{
	"contracts/periphery/VRFManagerChainlink.sol": {
		"VRFv2SubscriptionManager": {
			"abi": [
				{
					"inputs": [
						{
							"internalType": "address",
							"name": "_initialAdmin",
							"type": "address"
						},
						{
							"internalType": "address",
							"name": "_vrfCoordinator",
							"type": "address"
						},
						{
							"internalType": "address",
							"name": "_linkToken",
							"type": "address"
						},
						{
							"internalType": "bytes32",
							"name": "_keyHash",
							"type": "bytes32"
						},
						{
							"internalType": "uint32",
							"name": "_callbackGasLimit",
							"type": "uint32"
						},
						{
							"internalType": "uint16",
							"name": "_requestConfirmations",
							"type": "uint16"
						}
					],
					"stateMutability": "nonpayable",
					"type": "constructor"
				},
				{
					"inputs": [],
					"name": "AccessControlBadConfirmation",
					"type": "error"
				},
				{
					"inputs": [
						{
							"internalType": "address",
							"name": "account",
							"type": "address"
						},
						{
							"internalType": "bytes32",
							"name": "neededRole",
							"type": "bytes32"
						}
					],
					"name": "AccessControlUnauthorizedAccount",
					"type": "error"
				},
				{
					"inputs": [
						{
							"internalType": "address",
							"name": "have",
							"type": "address"
						},
						{
							"internalType": "address",
							"name": "want",
							"type": "address"
						}
					],
					"name": "OnlyCoordinatorCanFulfill",
					"type": "error"
				},
				{
					"inputs": [
						{
							"internalType": "uint256",
							"name": "requestId",
							"type": "uint256"
						}
					],
					"name": "RequestNotExist",
					"type": "error"
				},
				{
					"anonymous": false,
					"inputs": [
						{
							"indexed": false,
							"internalType": "uint256",
							"name": "requestId",
							"type": "uint256"
						},
						{
							"indexed": false,
							"internalType": "uint256[]",
							"name": "randomWords",
							"type": "uint256[]"
						}
					],
					"name": "RequestFulfilled",
					"type": "event"
				},
				{
					"anonymous": false,
					"inputs": [
						{
							"indexed": false,
							"internalType": "uint256",
							"name": "requestId",
							"type": "uint256"
						},
						{
							"indexed": false,
							"internalType": "address",
							"name": "_requester",
							"type": "address"
						}
					],
					"name": "RequestSent",
					"type": "event"
				},
				{
					"anonymous": false,
					"inputs": [
						{
							"indexed": true,
							"internalType": "bytes32",
							"name": "role",
							"type": "bytes32"
						},
						{
							"indexed": true,
							"internalType": "bytes32",
							"name": "previousAdminRole",
							"type": "bytes32"
						},
						{
							"indexed": true,
							"internalType": "bytes32",
							"name": "newAdminRole",
							"type": "bytes32"
						}
					],
					"name": "RoleAdminChanged",
					"type": "event"
				},
				{
					"anonymous": false,
					"inputs": [
						{
							"indexed": true,
							"internalType": "bytes32",
							"name": "role",
							"type": "bytes32"
						},
						{
							"indexed": true,
							"internalType": "address",
							"name": "account",
							"type": "address"
						},
						{
							"indexed": true,
							"internalType": "address",
							"name": "sender",
							"type": "address"
						}
					],
					"name": "RoleGranted",
					"type": "event"
				},
				{
					"anonymous": false,
					"inputs": [
						{
							"indexed": true,
							"internalType": "bytes32",
							"name": "role",
							"type": "bytes32"
						},
						{
							"indexed": true,
							"internalType": "address",
							"name": "account",
							"type": "address"
						},
						{
							"indexed": true,
							"internalType": "address",
							"name": "sender",
							"type": "address"
						}
					],
					"name": "RoleRevoked",
					"type": "event"
				},
				{
					"inputs": [],
					"name": "COORDINATOR",
					"outputs": [
						{
							"internalType": "contract VRFCoordinatorV2Interface",
							"name": "",
							"type": "address"
						}
					],
					"stateMutability": "view",
					"type": "function"
				},
				{
					"inputs": [],
					"name": "DEFAULT_ADMIN_ROLE",
					"outputs": [
						{
							"internalType": "bytes32",
							"name": "",
							"type": "bytes32"
						}
					],
					"stateMutability": "view",
					"type": "function"
				},
				{
					"inputs": [],
					"name": "LINKTOKEN",
					"outputs": [
						{
							"internalType": "contract LinkTokenInterface",
							"name": "",
							"type": "address"
						}
					],
					"stateMutability": "view",
					"type": "function"
				},
				{
					"inputs": [],
					"name": "REQUESTER_ROLE",
					"outputs": [
						{
							"internalType": "bytes32",
							"name": "",
							"type": "bytes32"
						}
					],
					"stateMutability": "view",
					"type": "function"
				},
				{
					"inputs": [
						{
							"internalType": "address",
							"name": "consumerAddress",
							"type": "address"
						}
					],
					"name": "addConsumer",
					"outputs": [],
					"stateMutability": "nonpayable",
					"type": "function"
				},
				{
					"inputs": [],
					"name": "callbackGasLimit",
					"outputs": [
						{
							"internalType": "uint32",
							"name": "",
							"type": "uint32"
						}
					],
					"stateMutability": "view",
					"type": "function"
				},
				{
					"inputs": [
						{
							"internalType": "address",
							"name": "receivingWallet",
							"type": "address"
						}
					],
					"name": "cancelSubscription",
					"outputs": [],
					"stateMutability": "nonpayable",
					"type": "function"
				},
				{
					"inputs": [],
					"name": "drawingContract",
					"outputs": [
						{
							"internalType": "contract IHierarchicalDrawing",
							"name": "",
							"type": "address"
						}
					],
					"stateMutability": "view",
					"type": "function"
				},
				{
					"inputs": [
						{
							"internalType": "uint256",
							"name": "_requestId",
							"type": "uint256"
						}
					],
					"name": "getRequestStatus",
					"outputs": [
						{
							"internalType": "bool",
							"name": "fulfilled",
							"type": "bool"
						},
						{
							"internalType": "uint256[]",
							"name": "randomWords",
							"type": "uint256[]"
						}
					],
					"stateMutability": "view",
					"type": "function"
				},
				{
					"inputs": [
						{
							"internalType": "bytes32",
							"name": "role",
							"type": "bytes32"
						}
					],
					"name": "getRoleAdmin",
					"outputs": [
						{
							"internalType": "bytes32",
							"name": "",
							"type": "bytes32"
						}
					],
					"stateMutability": "view",
					"type": "function"
				},
				{
					"inputs": [
						{
							"internalType": "bytes32",
							"name": "role",
							"type": "bytes32"
						},
						{
							"internalType": "address",
							"name": "account",
							"type": "address"
						}
					],
					"name": "grantRole",
					"outputs": [],
					"stateMutability": "nonpayable",
					"type": "function"
				},
				{
					"inputs": [
						{
							"internalType": "bytes32",
							"name": "role",
							"type": "bytes32"
						},
						{
							"internalType": "address",
							"name": "account",
							"type": "address"
						}
					],
					"name": "hasRole",
					"outputs": [
						{
							"internalType": "bool",
							"name": "",
							"type": "bool"
						}
					],
					"stateMutability": "view",
					"type": "function"
				},
				{
					"inputs": [],
					"name": "keyHash",
					"outputs": [
						{
							"internalType": "bytes32",
							"name": "",
							"type": "bytes32"
						}
					],
					"stateMutability": "view",
					"type": "function"
				},
				{
					"inputs": [],
					"name": "lastRequestId",
					"outputs": [
						{
							"internalType": "uint256",
							"name": "",
							"type": "uint256"
						}
					],
					"stateMutability": "view",
					"type": "function"
				},
				{
					"inputs": [
						{
							"internalType": "uint256",
							"name": "requestId",
							"type": "uint256"
						},
						{
							"internalType": "uint256[]",
							"name": "randomWords",
							"type": "uint256[]"
						}
					],
					"name": "rawFulfillRandomWords",
					"outputs": [],
					"stateMutability": "nonpayable",
					"type": "function"
				},
				{
					"inputs": [
						{
							"internalType": "address",
							"name": "consumerAddress",
							"type": "address"
						}
					],
					"name": "removeConsumer",
					"outputs": [],
					"stateMutability": "nonpayable",
					"type": "function"
				},
				{
					"inputs": [
						{
							"internalType": "bytes32",
							"name": "role",
							"type": "bytes32"
						},
						{
							"internalType": "address",
							"name": "callerConfirmation",
							"type": "address"
						}
					],
					"name": "renounceRole",
					"outputs": [],
					"stateMutability": "nonpayable",
					"type": "function"
				},
				{
					"inputs": [],
					"name": "requestConfirmations",
					"outputs": [
						{
							"internalType": "uint16",
							"name": "",
							"type": "uint16"
						}
					],
					"stateMutability": "view",
					"type": "function"
				},
				{
					"inputs": [
						{
							"internalType": "uint256",
							"name": "",
							"type": "uint256"
						}
					],
					"name": "requestIds",
					"outputs": [
						{
							"internalType": "uint256",
							"name": "",
							"type": "uint256"
						}
					],
					"stateMutability": "view",
					"type": "function"
				},
				{
					"inputs": [
						{
							"internalType": "address",
							"name": "_requester",
							"type": "address"
						}
					],
					"name": "requestRandomWords",
					"outputs": [
						{
							"internalType": "uint256",
							"name": "requestId",
							"type": "uint256"
						}
					],
					"stateMutability": "nonpayable",
					"type": "function"
				},
				{
					"inputs": [
						{
							"internalType": "bytes32",
							"name": "role",
							"type": "bytes32"
						},
						{
							"internalType": "address",
							"name": "account",
							"type": "address"
						}
					],
					"name": "revokeRole",
					"outputs": [],
					"stateMutability": "nonpayable",
					"type": "function"
				},
				{
					"inputs": [
						{
							"internalType": "uint256",
							"name": "",
							"type": "uint256"
						}
					],
					"name": "s_requests",
					"outputs": [
						{
							"internalType": "bool",
							"name": "fulfilled",
							"type": "bool"
						},
						{
							"internalType": "bool",
							"name": "exists",
							"type": "bool"
						}
					],
					"stateMutability": "view",
					"type": "function"
				},
				{
					"inputs": [],
					"name": "s_subscriptionId",
					"outputs": [
						{
							"internalType": "uint64",
							"name": "",
							"type": "uint64"
						}
					],
					"stateMutability": "view",
					"type": "function"
				},
				{
					"inputs": [
						{
							"internalType": "address",
							"name": "_contract",
							"type": "address"
						}
					],
					"name": "setDrawingContract",
					"outputs": [],
					"stateMutability": "nonpayable",
					"type": "function"
				},
				{
					"inputs": [
						{
							"internalType": "bytes4",
							"name": "interfaceId",
							"type": "bytes4"
						}
					],
					"name": "supportsInterface",
					"outputs": [
						{
							"internalType": "bool",
							"name": "",
							"type": "bool"
						}
					],
					"stateMutability": "view",
					"type": "function"
				},
				{
					"inputs": [
						{
							"internalType": "uint256",
							"name": "amount",
							"type": "uint256"
						}
					],
					"name": "topUpSubscription",
					"outputs": [],
					"stateMutability": "nonpayable",
					"type": "function"
				},
				{
					"inputs": [],
					"name": "vrfCoordinator",
					"outputs": [
						{
							"internalType": "address",
							"name": "",
							"type": "address"
						}
					],
					"stateMutability": "view",
					"type": "function"
				},
				{
					"inputs": [
						{
							"internalType": "uint256",
							"name": "amount",
							"type": "uint256"
						},
						{
							"internalType": "address",
							"name": "to",
							"type": "address"
						}
					],
					"name": "withdraw",
					"outputs": [],
					"stateMutability": "nonpayable",
					"type": "function"
				}
			],
			"devdoc": {
				"errors": {
					"AccessControlBadConfirmation()": [
						{
							"details": "The caller of a function is not the expected one. NOTE: Don't confuse with {AccessControlUnauthorizedAccount}."
						}
					],
					"AccessControlUnauthorizedAccount(address,bytes32)": [
						{
							"details": "The `account` is missing a role."
						}
					]
				},
				"events": {
					"RoleAdminChanged(bytes32,bytes32,bytes32)": {
						"details": "Emitted when `newAdminRole` is set as ``role``'s admin role, replacing `previousAdminRole` `DEFAULT_ADMIN_ROLE` is the starting admin for all roles, despite {RoleAdminChanged} not being emitted signaling this."
					},
					"RoleGranted(bytes32,address,address)": {
						"details": "Emitted when `account` is granted `role`. `sender` is the account that originated the contract call, an admin role bearer except when using {AccessControl-_setupRole}."
					},
					"RoleRevoked(bytes32,address,address)": {
						"details": "Emitted when `account` is revoked `role`. `sender` is the account that originated the contract call:   - if using `revokeRole`, it is the admin role bearer   - if using `renounceRole`, it is the role bearer (i.e. `account`)"
					}
				},
				"kind": "dev",
				"methods": {
					"getRoleAdmin(bytes32)": {
						"details": "Returns the admin role that controls `role`. See {grantRole} and {revokeRole}. To change a role's admin, use {_setRoleAdmin}."
					},
					"grantRole(bytes32,address)": {
						"details": "Grants `role` to `account`. If `account` had not been already granted `role`, emits a {RoleGranted} event. Requirements: - the caller must have ``role``'s admin role. May emit a {RoleGranted} event."
					},
					"hasRole(bytes32,address)": {
						"details": "Returns `true` if `account` has been granted `role`."
					},
					"renounceRole(bytes32,address)": {
						"details": "Revokes `role` from the calling account. Roles are often managed via {grantRole} and {revokeRole}: this function's purpose is to provide a mechanism for accounts to lose their privileges if they are compromised (such as when a trusted device is misplaced). If the calling account had been revoked `role`, emits a {RoleRevoked} event. Requirements: - the caller must be `callerConfirmation`. May emit a {RoleRevoked} event."
					},
					"revokeRole(bytes32,address)": {
						"details": "Revokes `role` from `account`. If `account` had been granted `role`, emits a {RoleRevoked} event. Requirements: - the caller must have ``role``'s admin role. May emit a {RoleRevoked} event."
					},
					"supportsInterface(bytes4)": {
						"details": "See {IERC165-supportsInterface}."
					}
				},
				"version": 1
			},
			"evm": {
				"assembly": "    /* \"contracts/periphery/VRFManagerChainlink.sol\":698:5630  contract VRFv2SubscriptionManager is IVRFManager, VRFConsumerBaseV2, AccessControl {    ... */\n  mstore(0x40, 0xa0)\n    /* \"contracts/periphery/VRFManagerChainlink.sol\":1551:2207  constructor(... */\n  callvalue\n  dup1\n  iszero\n  tag_1\n  jumpi\n  0x00\n  dup1\n  revert\ntag_1:\n  pop\n  mload(0x40)\n  sub(codesize, bytecodeSize)\n  dup1\n  bytecodeSize\n  dup4\n  codecopy\n  dup2\n  dup2\n  add\n  0x40\n  mstore\n  dup2\n  add\n  swap1\n  tag_2\n  swap2\n  swap1\n  tag_3\n  jump\t// in\ntag_2:\n    /* \"contracts/periphery/VRFManagerChainlink.sol\":1782:1797  _vrfCoordinator */\n  dup5\n    /* \"@chainlink/contracts/src/v0.8/vrf/VRFConsumerBaseV2.sol\":5700:5715  _vrfCoordinator */\n  dup1\n    /* \"@chainlink/contracts/src/v0.8/vrf/VRFConsumerBaseV2.sol\":5683:5715  vrfCoordinator = _vrfCoordinator */\n  0xffffffffffffffffffffffffffffffffffffffff\n  and\n  0x80\n  dup2\n  0xffffffffffffffffffffffffffffffffffffffff\n  and\n  dup2\n  mstore\n  pop\n  pop\n    /* \"@chainlink/contracts/src/v0.8/vrf/VRFConsumerBaseV2.sol\":5640:5720  constructor(address _vrfCoordinator) {... */\n  pop\n    /* \"contracts/periphery/VRFManagerChainlink.sol\":1809:1854  _grantRole(DEFAULT_ADMIN_ROLE, _initialAdmin) */\n  tag_8\n    /* \"@openzeppelin/contracts/access/AccessControl.sol\":2232:2236  0x00 */\n  0x00\n    /* \"contracts/periphery/VRFManagerChainlink.sol\":1820:1838  DEFAULT_ADMIN_ROLE */\n  dup1\n  shl\n    /* \"contracts/periphery/VRFManagerChainlink.sol\":1840:1853  _initialAdmin */\n  dup8\n    /* \"contracts/periphery/VRFManagerChainlink.sol\":1809:1819  _grantRole */\n  shl(0x20, tag_9)\n    /* \"contracts/periphery/VRFManagerChainlink.sol\":1809:1854  _grantRole(DEFAULT_ADMIN_ROLE, _initialAdmin) */\n  0x20\n  shr\n  jump\t// in\ntag_8:\n  pop\n    /* \"contracts/periphery/VRFManagerChainlink.sol\":1904:1919  _vrfCoordinator */\n  dup5\n    /* \"contracts/periphery/VRFManagerChainlink.sol\":1864:1875  COORDINATOR */\n  0x01\n  0x00\n    /* \"contracts/periphery/VRFManagerChainlink.sol\":1864:1920  COORDINATOR = VRFCoordinatorV2Interface(_vrfCoordinator) */\n  0x0100\n  exp\n  dup2\n  sload\n  dup2\n  0xffffffffffffffffffffffffffffffffffffffff\n  mul\n  not\n  and\n  swap1\n  dup4\n  0xffffffffffffffffffffffffffffffffffffffff\n  and\n  mul\n  or\n  swap1\n  sstore\n  pop\n    /* \"contracts/periphery/VRFManagerChainlink.sol\":1961:1971  _linkToken */\n  dup4\n    /* \"contracts/periphery/VRFManagerChainlink.sol\":1930:1939  LINKTOKEN */\n  0x02\n  0x00\n    /* \"contracts/periphery/VRFManagerChainlink.sol\":1930:1972  LINKTOKEN = LinkTokenInterface(_linkToken) */\n  0x0100\n  exp\n  dup2\n  sload\n  dup2\n  0xffffffffffffffffffffffffffffffffffffffff\n  mul\n  not\n  and\n  swap1\n  dup4\n  0xffffffffffffffffffffffffffffffffffffffff\n  and\n  mul\n  or\n  swap1\n  sstore\n  pop\n    /* \"contracts/periphery/VRFManagerChainlink.sol\":1992:2000  _keyHash */\n  dup3\n    /* \"contracts/periphery/VRFManagerChainlink.sol\":1982:1989  keyHash */\n  0x06\n    /* \"contracts/periphery/VRFManagerChainlink.sol\":1982:2000  keyHash = _keyHash */\n  dup2\n  swap1\n  sstore\n  pop\n    /* \"contracts/periphery/VRFManagerChainlink.sol\":2029:2046  _callbackGasLimit */\n  dup2\n    /* \"contracts/periphery/VRFManagerChainlink.sol\":2010:2026  callbackGasLimit */\n  0x07\n  0x02\n    /* \"contracts/periphery/VRFManagerChainlink.sol\":2010:2046  callbackGasLimit = _callbackGasLimit */\n  0x0100\n  exp\n  dup2\n  sload\n  dup2\n  0xffffffff\n  mul\n  not\n  and\n  swap1\n  dup4\n  0xffffffff\n  and\n  mul\n  or\n  swap1\n  sstore\n  pop\n    /* \"contracts/periphery/VRFManagerChainlink.sol\":2079:2100  _requestConfirmations */\n  dup1\n    /* \"contracts/periphery/VRFManagerChainlink.sol\":2056:2076  requestConfirmations */\n  0x07\n  0x00\n    /* \"contracts/periphery/VRFManagerChainlink.sol\":2056:2100  requestConfirmations = _requestConfirmations */\n  0x0100\n  exp\n  dup2\n  sload\n  dup2\n  0xffff\n  mul\n  not\n  and\n  swap1\n  dup4\n  0xffff\n  and\n  mul\n  or\n  swap1\n  sstore\n  pop\n    /* \"contracts/periphery/VRFManagerChainlink.sol\":2177:2200  createNewSubscription() */\n  tag_10\n    /* \"contracts/periphery/VRFManagerChainlink.sol\":2177:2198  createNewSubscription */\n  shl(0x20, tag_11)\n    /* \"contracts/periphery/VRFManagerChainlink.sol\":2177:2200  createNewSubscription() */\n  0x20\n  shr\n  jump\t// in\ntag_10:\n    /* \"contracts/periphery/VRFManagerChainlink.sol\":1551:2207  constructor(... */\n  pop\n  pop\n  pop\n  pop\n  pop\n  pop\n    /* \"contracts/periphery/VRFManagerChainlink.sol\":698:5630  contract VRFv2SubscriptionManager is IVRFManager, VRFConsumerBaseV2, AccessControl {    ... */\n  jump(tag_12)\n    /* \"@openzeppelin/contracts/access/AccessControl.sol\":6179:6495  function _grantRole(bytes32 role, address account) internal virtual returns (bool) {... */\ntag_9:\n    /* \"@openzeppelin/contracts/access/AccessControl.sol\":6256:6260  bool */\n  0x00\n    /* \"@openzeppelin/contracts/access/AccessControl.sol\":6277:6299  hasRole(role, account) */\n  tag_14\n    /* \"@openzeppelin/contracts/access/AccessControl.sol\":6285:6289  role */\n  dup4\n    /* \"@openzeppelin/contracts/access/AccessControl.sol\":6291:6298  account */\n  dup4\n    /* \"@openzeppelin/contracts/access/AccessControl.sol\":6277:6284  hasRole */\n  shl(0x20, tag_15)\n    /* \"@openzeppelin/contracts/access/AccessControl.sol\":6277:6299  hasRole(role, account) */\n  0x20\n  shr\n  jump\t// in\ntag_14:\n    /* \"@openzeppelin/contracts/access/AccessControl.sol\":6272:6489  if (!hasRole(role, account)) {... */\n  tag_16\n  jumpi\n    /* \"@openzeppelin/contracts/access/AccessControl.sol\":6347:6351  true */\n  0x01\n    /* \"@openzeppelin/contracts/access/AccessControl.sol\":6315:6321  _roles */\n  0x00\n    /* \"@openzeppelin/contracts/access/AccessControl.sol\":6315:6327  _roles[role] */\n  dup1\n    /* \"@openzeppelin/contracts/access/AccessControl.sol\":6322:6326  role */\n  dup6\n    /* \"@openzeppelin/contracts/access/AccessControl.sol\":6315:6327  _roles[role] */\n  dup2\n  mstore\n  0x20\n  add\n  swap1\n  dup2\n  mstore\n  0x20\n  add\n  0x00\n  keccak256\n    /* \"@openzeppelin/contracts/access/AccessControl.sol\":6315:6335  _roles[role].hasRole */\n  0x00\n  add\n    /* \"@openzeppelin/contracts/access/AccessControl.sol\":6315:6344  _roles[role].hasRole[account] */\n  0x00\n    /* \"@openzeppelin/contracts/access/AccessControl.sol\":6336:6343  account */\n  dup5\n    /* \"@openzeppelin/contracts/access/AccessControl.sol\":6315:6344  _roles[role].hasRole[account] */\n  0xffffffffffffffffffffffffffffffffffffffff\n  and\n  0xffffffffffffffffffffffffffffffffffffffff\n  and\n  dup2\n  mstore\n  0x20\n  add\n  swap1\n  dup2\n  mstore\n  0x20\n  add\n  0x00\n  keccak256\n  0x00\n    /* \"@openzeppelin/contracts/access/AccessControl.sol\":6315:6351  _roles[role].hasRole[account] = true */\n  0x0100\n  exp\n  dup2\n  sload\n  dup2\n  0xff\n  mul\n  not\n  and\n  swap1\n  dup4\n  iszero\n  iszero\n  mul\n  or\n  swap1\n  sstore\n  pop\n    /* \"@openzeppelin/contracts/access/AccessControl.sol\":6397:6409  _msgSender() */\n  tag_17\n    /* \"@openzeppelin/contracts/access/AccessControl.sol\":6397:6407  _msgSender */\n  shl(0x20, tag_18)\n    /* \"@openzeppelin/contracts/access/AccessControl.sol\":6397:6409  _msgSender() */\n  0x20\n  shr\n  jump\t// in\ntag_17:\n    /* \"@openzeppelin/contracts/access/AccessControl.sol\":6370:6410  RoleGranted(role, account, _msgSender()) */\n  0xffffffffffffffffffffffffffffffffffffffff\n  and\n    /* \"@openzeppelin/contracts/access/AccessControl.sol\":6388:6395  account */\n  dup3\n    /* \"@openzeppelin/contracts/access/AccessControl.sol\":6370:6410  RoleGranted(role, account, _msgSender()) */\n  0xffffffffffffffffffffffffffffffffffffffff\n  and\n    /* \"@openzeppelin/contracts/access/AccessControl.sol\":6382:6386  role */\n  dup5\n    /* \"@openzeppelin/contracts/access/AccessControl.sol\":6370:6410  RoleGranted(role, account, _msgSender()) */\n  0x2f8788117e7eff1d82e926ec794901d17c78024a50270940304540a733656f0d\n  mload(0x40)\n  mload(0x40)\n  dup1\n  swap2\n  sub\n  swap1\n  log4\n    /* \"@openzeppelin/contracts/access/AccessControl.sol\":6431:6435  true */\n  0x01\n    /* \"@openzeppelin/contracts/access/AccessControl.sol\":6424:6435  return true */\n  swap1\n  pop\n  jump(tag_13)\n    /* \"@openzeppelin/contracts/access/AccessControl.sol\":6272:6489  if (!hasRole(role, account)) {... */\ntag_16:\n    /* \"@openzeppelin/contracts/access/AccessControl.sol\":6473:6478  false */\n  0x00\n    /* \"@openzeppelin/contracts/access/AccessControl.sol\":6466:6478  return false */\n  swap1\n  pop\n    /* \"@openzeppelin/contracts/access/AccessControl.sol\":6179:6495  function _grantRole(bytes32 role, address account) internal virtual returns (bool) {... */\ntag_13:\n  swap3\n  swap2\n  pop\n  pop\n  jump\t// out\n    /* \"contracts/periphery/VRFManagerChainlink.sol\":4092:4364  function createNewSubscription() private onlyRole(DEFAULT_ADMIN_ROLE) {... */\ntag_11:\n    /* \"@openzeppelin/contracts/access/AccessControl.sol\":2232:2236  0x00 */\n  0x00\n    /* \"contracts/periphery/VRFManagerChainlink.sol\":4142:4160  DEFAULT_ADMIN_ROLE */\n  dup1\n  shl\n    /* \"@openzeppelin/contracts/access/AccessControl.sol\":2464:2480  _checkRole(role) */\n  tag_21\n    /* \"@openzeppelin/contracts/access/AccessControl.sol\":2475:2479  role */\n  dup2\n    /* \"@openzeppelin/contracts/access/AccessControl.sol\":2464:2474  _checkRole */\n  shl(0x20, tag_22)\n    /* \"@openzeppelin/contracts/access/AccessControl.sol\":2464:2480  _checkRole(role) */\n  0x20\n  shr\n  jump\t// in\ntag_21:\n    /* \"contracts/periphery/VRFManagerChainlink.sol\":4191:4202  COORDINATOR */\n  0x01\n  0x00\n  swap1\n  sload\n  swap1\n  0x0100\n  exp\n  swap1\n  div\n  0xffffffffffffffffffffffffffffffffffffffff\n  and\n    /* \"contracts/periphery/VRFManagerChainlink.sol\":4191:4221  COORDINATOR.createSubscription */\n  0xffffffffffffffffffffffffffffffffffffffff\n  and\n  0xa21a23e4\n    /* \"contracts/periphery/VRFManagerChainlink.sol\":4191:4223  COORDINATOR.createSubscription() */\n  mload(0x40)\n  dup2\n  0xffffffff\n  and\n  0xe0\n  shl\n  dup2\n  mstore\n  0x04\n  add\n  0x20\n  mload(0x40)\n  dup1\n  dup4\n  sub\n  dup2\n  0x00\n  dup8\n  gas\n  call\n  iszero\n  dup1\n  iszero\n  tag_25\n  jumpi\n  returndatasize\n  0x00\n  dup1\n  returndatacopy\n  revert(0x00, returndatasize)\ntag_25:\n  pop\n  pop\n  pop\n  pop\n  mload(0x40)\n  returndatasize\n  not(0x1f)\n  0x1f\n  dup3\n  add\n  and\n  dup3\n  add\n  dup1\n  0x40\n  mstore\n  pop\n  dup2\n  add\n  swap1\n  tag_26\n  swap2\n  swap1\n  tag_27\n  jump\t// in\ntag_26:\n    /* \"contracts/periphery/VRFManagerChainlink.sol\":4172:4188  s_subscriptionId */\n  0x07\n  0x06\n    /* \"contracts/periphery/VRFManagerChainlink.sol\":4172:4223  s_subscriptionId = COORDINATOR.createSubscription() */\n  0x0100\n  exp\n  dup2\n  sload\n  dup2\n  0xffffffffffffffff\n  mul\n  not\n  and\n  swap1\n  dup4\n  0xffffffffffffffff\n  and\n  mul\n  or\n  swap1\n  sstore\n  pop\n    /* \"contracts/periphery/VRFManagerChainlink.sol\":4301:4312  COORDINATOR */\n  0x01\n  0x00\n  swap1\n  sload\n  swap1\n  0x0100\n  exp\n  swap1\n  div\n  0xffffffffffffffffffffffffffffffffffffffff\n  and\n    /* \"contracts/periphery/VRFManagerChainlink.sol\":4301:4324  COORDINATOR.addConsumer */\n  0xffffffffffffffffffffffffffffffffffffffff\n  and\n  0x7341c10c\n    /* \"contracts/periphery/VRFManagerChainlink.sol\":4325:4341  s_subscriptionId */\n  0x07\n  0x06\n  swap1\n  sload\n  swap1\n  0x0100\n  exp\n  swap1\n  div\n  0xffffffffffffffff\n  and\n    /* \"contracts/periphery/VRFManagerChainlink.sol\":4351:4355  this */\n  address\n    /* \"contracts/periphery/VRFManagerChainlink.sol\":4301:4357  COORDINATOR.addConsumer(s_subscriptionId, address(this)) */\n  mload(0x40)\n  dup4\n  0xffffffff\n  and\n  0xe0\n  shl\n  dup2\n  mstore\n  0x04\n  add\n  tag_28\n  swap3\n  swap2\n  swap1\n  tag_29\n  jump\t// in\ntag_28:\n  0x00\n  mload(0x40)\n  dup1\n  dup4\n  sub\n  dup2\n  0x00\n  dup8\n  dup1\n  extcodesize\n  iszero\n  dup1\n  iszero\n  tag_30\n  jumpi\n  0x00\n  dup1\n  revert\ntag_30:\n  pop\n  gas\n  call\n  iszero\n  dup1\n  iszero\n  tag_32\n  jumpi\n  returndatasize\n  0x00\n  dup1\n  returndatacopy\n  revert(0x00, returndatasize)\ntag_32:\n  pop\n  pop\n  pop\n  pop\n    /* \"contracts/periphery/VRFManagerChainlink.sol\":4092:4364  function createNewSubscription() private onlyRole(DEFAULT_ADMIN_ROLE) {... */\n  pop\n  jump\t// out\n    /* \"@openzeppelin/contracts/access/AccessControl.sol\":2854:2990  function hasRole(bytes32 role, address account) public view virtual returns (bool) {... */\ntag_15:\n    /* \"@openzeppelin/contracts/access/AccessControl.sol\":2931:2935  bool */\n  0x00\n    /* \"@openzeppelin/contracts/access/AccessControl.sol\":2954:2960  _roles */\n  dup1\n    /* \"@openzeppelin/contracts/access/AccessControl.sol\":2954:2966  _roles[role] */\n  0x00\n    /* \"@openzeppelin/contracts/access/AccessControl.sol\":2961:2965  role */\n  dup5\n    /* \"@openzeppelin/contracts/access/AccessControl.sol\":2954:2966  _roles[role] */\n  dup2\n  mstore\n  0x20\n  add\n  swap1\n  dup2\n  mstore\n  0x20\n  add\n  0x00\n  keccak256\n    /* \"@openzeppelin/contracts/access/AccessControl.sol\":2954:2974  _roles[role].hasRole */\n  0x00\n  add\n    /* \"@openzeppelin/contracts/access/AccessControl.sol\":2954:2983  _roles[role].hasRole[account] */\n  0x00\n    /* \"@openzeppelin/contracts/access/AccessControl.sol\":2975:2982  account */\n  dup4\n    /* \"@openzeppelin/contracts/access/AccessControl.sol\":2954:2983  _roles[role].hasRole[account] */\n  0xffffffffffffffffffffffffffffffffffffffff\n  and\n  0xffffffffffffffffffffffffffffffffffffffff\n  and\n  dup2\n  mstore\n  0x20\n  add\n  swap1\n  dup2\n  mstore\n  0x20\n  add\n  0x00\n  keccak256\n  0x00\n  swap1\n  sload\n  swap1\n  0x0100\n  exp\n  swap1\n  div\n  0xff\n  and\n    /* \"@openzeppelin/contracts/access/AccessControl.sol\":2947:2983  return _roles[role].hasRole[account] */\n  swap1\n  pop\n    /* \"@openzeppelin/contracts/access/AccessControl.sol\":2854:2990  function hasRole(bytes32 role, address account) public view virtual returns (bool) {... */\n  swap3\n  swap2\n  pop\n  pop\n  jump\t// out\n    /* \"@openzeppelin/contracts/utils/Context.sol\":656:752  function _msgSender() internal view virtual returns (address) {... */\ntag_18:\n    /* \"@openzeppelin/contracts/utils/Context.sol\":709:716  address */\n  0x00\n    /* \"@openzeppelin/contracts/utils/Context.sol\":735:745  msg.sender */\n  caller\n    /* \"@openzeppelin/contracts/utils/Context.sol\":728:745  return msg.sender */\n  swap1\n  pop\n    /* \"@openzeppelin/contracts/utils/Context.sol\":656:752  function _msgSender() internal view virtual returns (address) {... */\n  swap1\n  jump\t// out\n    /* \"@openzeppelin/contracts/access/AccessControl.sol\":3199:3302  function _checkRole(bytes32 role) internal view virtual {... */\ntag_22:\n    /* \"@openzeppelin/contracts/access/AccessControl.sol\":3265:3295  _checkRole(role, _msgSender()) */\n  tag_36\n    /* \"@openzeppelin/contracts/access/AccessControl.sol\":3276:3280  role */\n  dup2\n    /* \"@openzeppelin/contracts/access/AccessControl.sol\":3282:3294  _msgSender() */\n  tag_37\n    /* \"@openzeppelin/contracts/access/AccessControl.sol\":3282:3292  _msgSender */\n  shl(0x20, tag_18)\n    /* \"@openzeppelin/contracts/access/AccessControl.sol\":3282:3294  _msgSender() */\n  0x20\n  shr\n  jump\t// in\ntag_37:\n    /* \"@openzeppelin/contracts/access/AccessControl.sol\":3265:3275  _checkRole */\n  shl(0x20, tag_38)\n    /* \"@openzeppelin/contracts/access/AccessControl.sol\":3265:3295  _checkRole(role, _msgSender()) */\n  0x20\n  shr\n  jump\t// in\ntag_36:\n    /* \"@openzeppelin/contracts/access/AccessControl.sol\":3199:3302  function _checkRole(bytes32 role) internal view virtual {... */\n  pop\n  jump\t// out\n    /* \"@openzeppelin/contracts/access/AccessControl.sol\":3432:3629  function _checkRole(bytes32 role, address account) internal view virtual {... */\ntag_38:\n    /* \"@openzeppelin/contracts/access/AccessControl.sol\":3520:3542  hasRole(role, account) */\n  tag_40\n    /* \"@openzeppelin/contracts/access/AccessControl.sol\":3528:3532  role */\n  dup3\n    /* \"@openzeppelin/contracts/access/AccessControl.sol\":3534:3541  account */\n  dup3\n    /* \"@openzeppelin/contracts/access/AccessControl.sol\":3520:3527  hasRole */\n  shl(0x20, tag_15)\n    /* \"@openzeppelin/contracts/access/AccessControl.sol\":3520:3542  hasRole(role, account) */\n  0x20\n  shr\n  jump\t// in\ntag_40:\n    /* \"@openzeppelin/contracts/access/AccessControl.sol\":3515:3623  if (!hasRole(role, account)) {... */\n  tag_41\n  jumpi\n    /* \"@openzeppelin/contracts/access/AccessControl.sol\":3598:3605  account */\n  dup1\n    /* \"@openzeppelin/contracts/access/AccessControl.sol\":3607:3611  role */\n  dup3\n    /* \"@openzeppelin/contracts/access/AccessControl.sol\":3565:3612  AccessControlUnauthorizedAccount(account, role) */\n  mload(0x40)\n  0xe2517d3f00000000000000000000000000000000000000000000000000000000\n  dup2\n  mstore\n  0x04\n  add\n  tag_42\n  swap3\n  swap2\n  swap1\n  tag_43\n  jump\t// in\ntag_42:\n  mload(0x40)\n  dup1\n  swap2\n  sub\n  swap1\n  revert\n    /* \"@openzeppelin/contracts/access/AccessControl.sol\":3515:3623  if (!hasRole(role, account)) {... */\ntag_41:\n    /* \"@openzeppelin/contracts/access/AccessControl.sol\":3432:3629  function _checkRole(bytes32 role, address account) internal view virtual {... */\n  pop\n  pop\n  jump\t// out\n    /* \"#utility.yul\":88:205   */\ntag_45:\n    /* \"#utility.yul\":197:198   */\n  0x00\n    /* \"#utility.yul\":194:195   */\n  dup1\n    /* \"#utility.yul\":187:199   */\n  revert\n    /* \"#utility.yul\":334:460   */\ntag_47:\n    /* \"#utility.yul\":371:378   */\n  0x00\n    /* \"#utility.yul\":411:453   */\n  0xffffffffffffffffffffffffffffffffffffffff\n    /* \"#utility.yul\":404:409   */\n  dup3\n    /* \"#utility.yul\":400:454   */\n  and\n    /* \"#utility.yul\":389:454   */\n  swap1\n  pop\n    /* \"#utility.yul\":334:460   */\n  swap2\n  swap1\n  pop\n  jump\t// out\n    /* \"#utility.yul\":466:562   */\ntag_48:\n    /* \"#utility.yul\":503:510   */\n  0x00\n    /* \"#utility.yul\":532:556   */\n  tag_72\n    /* \"#utility.yul\":550:555   */\n  dup3\n    /* \"#utility.yul\":532:556   */\n  tag_47\n  jump\t// in\ntag_72:\n    /* \"#utility.yul\":521:556   */\n  swap1\n  pop\n    /* \"#utility.yul\":466:562   */\n  swap2\n  swap1\n  pop\n  jump\t// out\n    /* \"#utility.yul\":568:690   */\ntag_49:\n    /* \"#utility.yul\":641:665   */\n  tag_74\n    /* \"#utility.yul\":659:664   */\n  dup2\n    /* \"#utility.yul\":641:665   */\n  tag_48\n  jump\t// in\ntag_74:\n    /* \"#utility.yul\":634:639   */\n  dup2\n    /* \"#utility.yul\":631:666   */\n  eq\n    /* \"#utility.yul\":621:684   */\n  tag_75\n  jumpi\n    /* \"#utility.yul\":680:681   */\n  0x00\n    /* \"#utility.yul\":677:678   */\n  dup1\n    /* \"#utility.yul\":670:682   */\n  revert\n    /* \"#utility.yul\":621:684   */\ntag_75:\n    /* \"#utility.yul\":568:690   */\n  pop\n  jump\t// out\n    /* \"#utility.yul\":696:839   */\ntag_50:\n    /* \"#utility.yul\":753:758   */\n  0x00\n    /* \"#utility.yul\":784:790   */\n  dup2\n    /* \"#utility.yul\":778:791   */\n  mload\n    /* \"#utility.yul\":769:791   */\n  swap1\n  pop\n    /* \"#utility.yul\":800:833   */\n  tag_77\n    /* \"#utility.yul\":827:832   */\n  dup2\n    /* \"#utility.yul\":800:833   */\n  tag_49\n  jump\t// in\ntag_77:\n    /* \"#utility.yul\":696:839   */\n  swap3\n  swap2\n  pop\n  pop\n  jump\t// out\n    /* \"#utility.yul\":845:922   */\ntag_51:\n    /* \"#utility.yul\":882:889   */\n  0x00\n    /* \"#utility.yul\":911:916   */\n  dup2\n    /* \"#utility.yul\":900:916   */\n  swap1\n  pop\n    /* \"#utility.yul\":845:922   */\n  swap2\n  swap1\n  pop\n  jump\t// out\n    /* \"#utility.yul\":928:1050   */\ntag_52:\n    /* \"#utility.yul\":1001:1025   */\n  tag_80\n    /* \"#utility.yul\":1019:1024   */\n  dup2\n    /* \"#utility.yul\":1001:1025   */\n  tag_51\n  jump\t// in\ntag_80:\n    /* \"#utility.yul\":994:999   */\n  dup2\n    /* \"#utility.yul\":991:1026   */\n  eq\n    /* \"#utility.yul\":981:1044   */\n  tag_81\n  jumpi\n    /* \"#utility.yul\":1040:1041   */\n  0x00\n    /* \"#utility.yul\":1037:1038   */\n  dup1\n    /* \"#utility.yul\":1030:1042   */\n  revert\n    /* \"#utility.yul\":981:1044   */\ntag_81:\n    /* \"#utility.yul\":928:1050   */\n  pop\n  jump\t// out\n    /* \"#utility.yul\":1056:1199   */\ntag_53:\n    /* \"#utility.yul\":1113:1118   */\n  0x00\n    /* \"#utility.yul\":1144:1150   */\n  dup2\n    /* \"#utility.yul\":1138:1151   */\n  mload\n    /* \"#utility.yul\":1129:1151   */\n  swap1\n  pop\n    /* \"#utility.yul\":1160:1193   */\n  tag_83\n    /* \"#utility.yul\":1187:1192   */\n  dup2\n    /* \"#utility.yul\":1160:1193   */\n  tag_52\n  jump\t// in\ntag_83:\n    /* \"#utility.yul\":1056:1199   */\n  swap3\n  swap2\n  pop\n  pop\n  jump\t// out\n    /* \"#utility.yul\":1205:1298   */\ntag_54:\n    /* \"#utility.yul\":1241:1248   */\n  0x00\n    /* \"#utility.yul\":1281:1291   */\n  0xffffffff\n    /* \"#utility.yul\":1274:1279   */\n  dup3\n    /* \"#utility.yul\":1270:1292   */\n  and\n    /* \"#utility.yul\":1259:1292   */\n  swap1\n  pop\n    /* \"#utility.yul\":1205:1298   */\n  swap2\n  swap1\n  pop\n  jump\t// out\n    /* \"#utility.yul\":1304:1424   */\ntag_55:\n    /* \"#utility.yul\":1376:1399   */\n  tag_86\n    /* \"#utility.yul\":1393:1398   */\n  dup2\n    /* \"#utility.yul\":1376:1399   */\n  tag_54\n  jump\t// in\ntag_86:\n    /* \"#utility.yul\":1369:1374   */\n  dup2\n    /* \"#utility.yul\":1366:1400   */\n  eq\n    /* \"#utility.yul\":1356:1418   */\n  tag_87\n  jumpi\n    /* \"#utility.yul\":1414:1415   */\n  0x00\n    /* \"#utility.yul\":1411:1412   */\n  dup1\n    /* \"#utility.yul\":1404:1416   */\n  revert\n    /* \"#utility.yul\":1356:1418   */\ntag_87:\n    /* \"#utility.yul\":1304:1424   */\n  pop\n  jump\t// out\n    /* \"#utility.yul\":1430:1571   */\ntag_56:\n    /* \"#utility.yul\":1486:1491   */\n  0x00\n    /* \"#utility.yul\":1517:1523   */\n  dup2\n    /* \"#utility.yul\":1511:1524   */\n  mload\n    /* \"#utility.yul\":1502:1524   */\n  swap1\n  pop\n    /* \"#utility.yul\":1533:1565   */\n  tag_89\n    /* \"#utility.yul\":1559:1564   */\n  dup2\n    /* \"#utility.yul\":1533:1565   */\n  tag_55\n  jump\t// in\ntag_89:\n    /* \"#utility.yul\":1430:1571   */\n  swap3\n  swap2\n  pop\n  pop\n  jump\t// out\n    /* \"#utility.yul\":1577:1666   */\ntag_57:\n    /* \"#utility.yul\":1613:1620   */\n  0x00\n    /* \"#utility.yul\":1653:1659   */\n  0xffff\n    /* \"#utility.yul\":1646:1651   */\n  dup3\n    /* \"#utility.yul\":1642:1660   */\n  and\n    /* \"#utility.yul\":1631:1660   */\n  swap1\n  pop\n    /* \"#utility.yul\":1577:1666   */\n  swap2\n  swap1\n  pop\n  jump\t// out\n    /* \"#utility.yul\":1672:1792   */\ntag_58:\n    /* \"#utility.yul\":1744:1767   */\n  tag_92\n    /* \"#utility.yul\":1761:1766   */\n  dup2\n    /* \"#utility.yul\":1744:1767   */\n  tag_57\n  jump\t// in\ntag_92:\n    /* \"#utility.yul\":1737:1742   */\n  dup2\n    /* \"#utility.yul\":1734:1768   */\n  eq\n    /* \"#utility.yul\":1724:1786   */\n  tag_93\n  jumpi\n    /* \"#utility.yul\":1782:1783   */\n  0x00\n    /* \"#utility.yul\":1779:1780   */\n  dup1\n    /* \"#utility.yul\":1772:1784   */\n  revert\n    /* \"#utility.yul\":1724:1786   */\ntag_93:\n    /* \"#utility.yul\":1672:1792   */\n  pop\n  jump\t// out\n    /* \"#utility.yul\":1798:1939   */\ntag_59:\n    /* \"#utility.yul\":1854:1859   */\n  0x00\n    /* \"#utility.yul\":1885:1891   */\n  dup2\n    /* \"#utility.yul\":1879:1892   */\n  mload\n    /* \"#utility.yul\":1870:1892   */\n  swap1\n  pop\n    /* \"#utility.yul\":1901:1933   */\n  tag_95\n    /* \"#utility.yul\":1927:1932   */\n  dup2\n    /* \"#utility.yul\":1901:1933   */\n  tag_58\n  jump\t// in\ntag_95:\n    /* \"#utility.yul\":1798:1939   */\n  swap3\n  swap2\n  pop\n  pop\n  jump\t// out\n    /* \"#utility.yul\":1945:3075   */\ntag_3:\n    /* \"#utility.yul\":2058:2064   */\n  0x00\n    /* \"#utility.yul\":2066:2072   */\n  dup1\n    /* \"#utility.yul\":2074:2080   */\n  0x00\n    /* \"#utility.yul\":2082:2088   */\n  dup1\n    /* \"#utility.yul\":2090:2096   */\n  0x00\n    /* \"#utility.yul\":2098:2104   */\n  dup1\n    /* \"#utility.yul\":2147:2150   */\n  0xc0\n    /* \"#utility.yul\":2135:2144   */\n  dup8\n    /* \"#utility.yul\":2126:2133   */\n  dup10\n    /* \"#utility.yul\":2122:2145   */\n  sub\n    /* \"#utility.yul\":2118:2151   */\n  slt\n    /* \"#utility.yul\":2115:2235   */\n  iszero\n  tag_97\n  jumpi\n    /* \"#utility.yul\":2154:2233   */\n  tag_98\n  tag_45\n  jump\t// in\ntag_98:\n    /* \"#utility.yul\":2115:2235   */\ntag_97:\n    /* \"#utility.yul\":2274:2275   */\n  0x00\n    /* \"#utility.yul\":2299:2363   */\n  tag_99\n    /* \"#utility.yul\":2355:2362   */\n  dup10\n    /* \"#utility.yul\":2346:2352   */\n  dup3\n    /* \"#utility.yul\":2335:2344   */\n  dup11\n    /* \"#utility.yul\":2331:2353   */\n  add\n    /* \"#utility.yul\":2299:2363   */\n  tag_50\n  jump\t// in\ntag_99:\n    /* \"#utility.yul\":2289:2363   */\n  swap7\n  pop\n    /* \"#utility.yul\":2245:2373   */\n  pop\n    /* \"#utility.yul\":2412:2414   */\n  0x20\n    /* \"#utility.yul\":2438:2502   */\n  tag_100\n    /* \"#utility.yul\":2494:2501   */\n  dup10\n    /* \"#utility.yul\":2485:2491   */\n  dup3\n    /* \"#utility.yul\":2474:2483   */\n  dup11\n    /* \"#utility.yul\":2470:2492   */\n  add\n    /* \"#utility.yul\":2438:2502   */\n  tag_50\n  jump\t// in\ntag_100:\n    /* \"#utility.yul\":2428:2502   */\n  swap6\n  pop\n    /* \"#utility.yul\":2383:2512   */\n  pop\n    /* \"#utility.yul\":2551:2553   */\n  0x40\n    /* \"#utility.yul\":2577:2641   */\n  tag_101\n    /* \"#utility.yul\":2633:2640   */\n  dup10\n    /* \"#utility.yul\":2624:2630   */\n  dup3\n    /* \"#utility.yul\":2613:2622   */\n  dup11\n    /* \"#utility.yul\":2609:2631   */\n  add\n    /* \"#utility.yul\":2577:2641   */\n  tag_50\n  jump\t// in\ntag_101:\n    /* \"#utility.yul\":2567:2641   */\n  swap5\n  pop\n    /* \"#utility.yul\":2522:2651   */\n  pop\n    /* \"#utility.yul\":2690:2692   */\n  0x60\n    /* \"#utility.yul\":2716:2780   */\n  tag_102\n    /* \"#utility.yul\":2772:2779   */\n  dup10\n    /* \"#utility.yul\":2763:2769   */\n  dup3\n    /* \"#utility.yul\":2752:2761   */\n  dup11\n    /* \"#utility.yul\":2748:2770   */\n  add\n    /* \"#utility.yul\":2716:2780   */\n  tag_53\n  jump\t// in\ntag_102:\n    /* \"#utility.yul\":2706:2780   */\n  swap4\n  pop\n    /* \"#utility.yul\":2661:2790   */\n  pop\n    /* \"#utility.yul\":2829:2832   */\n  0x80\n    /* \"#utility.yul\":2856:2919   */\n  tag_103\n    /* \"#utility.yul\":2911:2918   */\n  dup10\n    /* \"#utility.yul\":2902:2908   */\n  dup3\n    /* \"#utility.yul\":2891:2900   */\n  dup11\n    /* \"#utility.yul\":2887:2909   */\n  add\n    /* \"#utility.yul\":2856:2919   */\n  tag_56\n  jump\t// in\ntag_103:\n    /* \"#utility.yul\":2846:2919   */\n  swap3\n  pop\n    /* \"#utility.yul\":2800:2929   */\n  pop\n    /* \"#utility.yul\":2968:2971   */\n  0xa0\n    /* \"#utility.yul\":2995:3058   */\n  tag_104\n    /* \"#utility.yul\":3050:3057   */\n  dup10\n    /* \"#utility.yul\":3041:3047   */\n  dup3\n    /* \"#utility.yul\":3030:3039   */\n  dup11\n    /* \"#utility.yul\":3026:3048   */\n  add\n    /* \"#utility.yul\":2995:3058   */\n  tag_59\n  jump\t// in\ntag_104:\n    /* \"#utility.yul\":2985:3058   */\n  swap2\n  pop\n    /* \"#utility.yul\":2939:3068   */\n  pop\n    /* \"#utility.yul\":1945:3075   */\n  swap3\n  swap6\n  pop\n  swap3\n  swap6\n  pop\n  swap3\n  swap6\n  jump\t// out\n    /* \"#utility.yul\":3081:3182   */\ntag_60:\n    /* \"#utility.yul\":3117:3124   */\n  0x00\n    /* \"#utility.yul\":3157:3175   */\n  0xffffffffffffffff\n    /* \"#utility.yul\":3150:3155   */\n  dup3\n    /* \"#utility.yul\":3146:3176   */\n  and\n    /* \"#utility.yul\":3135:3176   */\n  swap1\n  pop\n    /* \"#utility.yul\":3081:3182   */\n  swap2\n  swap1\n  pop\n  jump\t// out\n    /* \"#utility.yul\":3188:3308   */\ntag_61:\n    /* \"#utility.yul\":3260:3283   */\n  tag_107\n    /* \"#utility.yul\":3277:3282   */\n  dup2\n    /* \"#utility.yul\":3260:3283   */\n  tag_60\n  jump\t// in\ntag_107:\n    /* \"#utility.yul\":3253:3258   */\n  dup2\n    /* \"#utility.yul\":3250:3284   */\n  eq\n    /* \"#utility.yul\":3240:3302   */\n  tag_108\n  jumpi\n    /* \"#utility.yul\":3298:3299   */\n  0x00\n    /* \"#utility.yul\":3295:3296   */\n  dup1\n    /* \"#utility.yul\":3288:3300   */\n  revert\n    /* \"#utility.yul\":3240:3302   */\ntag_108:\n    /* \"#utility.yul\":3188:3308   */\n  pop\n  jump\t// out\n    /* \"#utility.yul\":3314:3455   */\ntag_62:\n    /* \"#utility.yul\":3370:3375   */\n  0x00\n    /* \"#utility.yul\":3401:3407   */\n  dup2\n    /* \"#utility.yul\":3395:3408   */\n  mload\n    /* \"#utility.yul\":3386:3408   */\n  swap1\n  pop\n    /* \"#utility.yul\":3417:3449   */\n  tag_110\n    /* \"#utility.yul\":3443:3448   */\n  dup2\n    /* \"#utility.yul\":3417:3449   */\n  tag_61\n  jump\t// in\ntag_110:\n    /* \"#utility.yul\":3314:3455   */\n  swap3\n  swap2\n  pop\n  pop\n  jump\t// out\n    /* \"#utility.yul\":3461:3810   */\ntag_27:\n    /* \"#utility.yul\":3530:3536   */\n  0x00\n    /* \"#utility.yul\":3579:3581   */\n  0x20\n    /* \"#utility.yul\":3567:3576   */\n  dup3\n    /* \"#utility.yul\":3558:3565   */\n  dup5\n    /* \"#utility.yul\":3554:3577   */\n  sub\n    /* \"#utility.yul\":3550:3582   */\n  slt\n    /* \"#utility.yul\":3547:3666   */\n  iszero\n  tag_112\n  jumpi\n    /* \"#utility.yul\":3585:3664   */\n  tag_113\n  tag_45\n  jump\t// in\ntag_113:\n    /* \"#utility.yul\":3547:3666   */\ntag_112:\n    /* \"#utility.yul\":3705:3706   */\n  0x00\n    /* \"#utility.yul\":3730:3793   */\n  tag_114\n    /* \"#utility.yul\":3785:3792   */\n  dup5\n    /* \"#utility.yul\":3776:3782   */\n  dup3\n    /* \"#utility.yul\":3765:3774   */\n  dup6\n    /* \"#utility.yul\":3761:3783   */\n  add\n    /* \"#utility.yul\":3730:3793   */\n  tag_62\n  jump\t// in\ntag_114:\n    /* \"#utility.yul\":3720:3793   */\n  swap2\n  pop\n    /* \"#utility.yul\":3676:3803   */\n  pop\n    /* \"#utility.yul\":3461:3810   */\n  swap3\n  swap2\n  pop\n  pop\n  jump\t// out\n    /* \"#utility.yul\":3816:3931   */\ntag_63:\n    /* \"#utility.yul\":3901:3924   */\n  tag_116\n    /* \"#utility.yul\":3918:3923   */\n  dup2\n    /* \"#utility.yul\":3901:3924   */\n  tag_60\n  jump\t// in\ntag_116:\n    /* \"#utility.yul\":3896:3899   */\n  dup3\n    /* \"#utility.yul\":3889:3925   */\n  mstore\n    /* \"#utility.yul\":3816:3931   */\n  pop\n  pop\n  jump\t// out\n    /* \"#utility.yul\":3937:4055   */\ntag_64:\n    /* \"#utility.yul\":4024:4048   */\n  tag_118\n    /* \"#utility.yul\":4042:4047   */\n  dup2\n    /* \"#utility.yul\":4024:4048   */\n  tag_48\n  jump\t// in\ntag_118:\n    /* \"#utility.yul\":4019:4022   */\n  dup3\n    /* \"#utility.yul\":4012:4049   */\n  mstore\n    /* \"#utility.yul\":3937:4055   */\n  pop\n  pop\n  jump\t// out\n    /* \"#utility.yul\":4061:4389   */\ntag_29:\n    /* \"#utility.yul\":4180:4184   */\n  0x00\n    /* \"#utility.yul\":4218:4220   */\n  0x40\n    /* \"#utility.yul\":4207:4216   */\n  dup3\n    /* \"#utility.yul\":4203:4221   */\n  add\n    /* \"#utility.yul\":4195:4221   */\n  swap1\n  pop\n    /* \"#utility.yul\":4231:4300   */\n  tag_120\n    /* \"#utility.yul\":4297:4298   */\n  0x00\n    /* \"#utility.yul\":4286:4295   */\n  dup4\n    /* \"#utility.yul\":4282:4299   */\n  add\n    /* \"#utility.yul\":4273:4279   */\n  dup6\n    /* \"#utility.yul\":4231:4300   */\n  tag_63\n  jump\t// in\ntag_120:\n    /* \"#utility.yul\":4310:4382   */\n  tag_121\n    /* \"#utility.yul\":4378:4380   */\n  0x20\n    /* \"#utility.yul\":4367:4376   */\n  dup4\n    /* \"#utility.yul\":4363:4381   */\n  add\n    /* \"#utility.yul\":4354:4360   */\n  dup5\n    /* \"#utility.yul\":4310:4382   */\n  tag_64\n  jump\t// in\ntag_121:\n    /* \"#utility.yul\":4061:4389   */\n  swap4\n  swap3\n  pop\n  pop\n  pop\n  jump\t// out\n    /* \"#utility.yul\":4395:4513   */\ntag_65:\n    /* \"#utility.yul\":4482:4506   */\n  tag_123\n    /* \"#utility.yul\":4500:4505   */\n  dup2\n    /* \"#utility.yul\":4482:4506   */\n  tag_51\n  jump\t// in\ntag_123:\n    /* \"#utility.yul\":4477:4480   */\n  dup3\n    /* \"#utility.yul\":4470:4507   */\n  mstore\n    /* \"#utility.yul\":4395:4513   */\n  pop\n  pop\n  jump\t// out\n    /* \"#utility.yul\":4519:4851   */\ntag_43:\n    /* \"#utility.yul\":4640:4644   */\n  0x00\n    /* \"#utility.yul\":4678:4680   */\n  0x40\n    /* \"#utility.yul\":4667:4676   */\n  dup3\n    /* \"#utility.yul\":4663:4681   */\n  add\n    /* \"#utility.yul\":4655:4681   */\n  swap1\n  pop\n    /* \"#utility.yul\":4691:4762   */\n  tag_125\n    /* \"#utility.yul\":4759:4760   */\n  0x00\n    /* \"#utility.yul\":4748:4757   */\n  dup4\n    /* \"#utility.yul\":4744:4761   */\n  add\n    /* \"#utility.yul\":4735:4741   */\n  dup6\n    /* \"#utility.yul\":4691:4762   */\n  tag_64\n  jump\t// in\ntag_125:\n    /* \"#utility.yul\":4772:4844   */\n  tag_126\n    /* \"#utility.yul\":4840:4842   */\n  0x20\n    /* \"#utility.yul\":4829:4838   */\n  dup4\n    /* \"#utility.yul\":4825:4843   */\n  add\n    /* \"#utility.yul\":4816:4822   */\n  dup5\n    /* \"#utility.yul\":4772:4844   */\n  tag_65\n  jump\t// in\ntag_126:\n    /* \"#utility.yul\":4519:4851   */\n  swap4\n  swap3\n  pop\n  pop\n  pop\n  jump\t// out\n    /* \"contracts/periphery/VRFManagerChainlink.sol\":698:5630  contract VRFv2SubscriptionManager is IVRFManager, VRFConsumerBaseV2, AccessControl {    ... */\ntag_12:\n  mload(0x80)\n  codecopy(0x00, dataOffset(sub_0), dataSize(sub_0))\n  0x00\n  assignImmutable(\"0xa882a7942f9c31b62f61719affd7835f08bca3f855f990bbc994d54b51d095ca\")\n  return(0x00, dataSize(sub_0))\nstop\n\nsub_0: assembly {\n        /* \"contracts/periphery/VRFManagerChainlink.sol\":698:5630  contract VRFv2SubscriptionManager is IVRFManager, VRFConsumerBaseV2, AccessControl {    ... */\n      mstore(0x40, 0x80)\n      callvalue\n      dup1\n      iszero\n      tag_1\n      jumpi\n      0x00\n      dup1\n      revert\n    tag_1:\n      pop\n      jumpi(tag_2, lt(calldatasize, 0x04))\n      shr(0xe0, calldataload(0x00))\n      dup1\n      0x80c95b14\n      gt\n      tag_31\n      jumpi\n      dup1\n      0xa217fddf\n      gt\n      tag_32\n      jumpi\n      dup1\n      0xbdf1e06d\n      gt\n      tag_33\n      jumpi\n      dup1\n      0xbdf1e06d\n      eq\n      tag_27\n      jumpi\n      dup1\n      0xd547741f\n      eq\n      tag_28\n      jumpi\n      dup1\n      0xd8a4676f\n      eq\n      tag_29\n      jumpi\n      dup1\n      0xfc2a88c3\n      eq\n      tag_30\n      jumpi\n      jump(tag_2)\n    tag_33:\n      dup1\n      0xa217fddf\n      eq\n      tag_24\n      jumpi\n      dup1\n      0xa3e56fa8\n      eq\n      tag_25\n      jumpi\n      dup1\n      0xb0fb162f\n      eq\n      tag_26\n      jumpi\n      jump(tag_2)\n    tag_32:\n      dup1\n      0x8ac00021\n      gt\n      tag_34\n      jumpi\n      dup1\n      0x8ac00021\n      eq\n      tag_20\n      jumpi\n      dup1\n      0x91d14854\n      eq\n      tag_21\n      jumpi\n      dup1\n      0x93d81d58\n      eq\n      tag_22\n      jumpi\n      dup1\n      0xa168fa89\n      eq\n      tag_23\n      jumpi\n      jump(tag_2)\n    tag_34:\n      dup1\n      0x80c95b14\n      eq\n      tag_17\n      jumpi\n      dup1\n      0x86850e93\n      eq\n      tag_18\n      jumpi\n      dup1\n      0x8796ba8c\n      eq\n      tag_19\n      jumpi\n      jump(tag_2)\n    tag_31:\n      dup1\n      0x24f74697\n      gt\n      tag_35\n      jumpi\n      dup1\n      0x3b2bcbf1\n      gt\n      tag_36\n      jumpi\n      dup1\n      0x3b2bcbf1\n      eq\n      tag_13\n      jumpi\n      dup1\n      0x4430db7e\n      eq\n      tag_14\n      jumpi\n      dup1\n      0x55380dfb\n      eq\n      tag_15\n      jumpi\n      dup1\n      0x61728f39\n      eq\n      tag_16\n      jumpi\n      jump(tag_2)\n    tag_36:\n      dup1\n      0x24f74697\n      eq\n      tag_10\n      jumpi\n      dup1\n      0x2f2ff15d\n      eq\n      tag_11\n      jumpi\n      dup1\n      0x36568abe\n      eq\n      tag_12\n      jumpi\n      jump(tag_2)\n    tag_35:\n      dup1\n      0x0fa08046\n      gt\n      tag_37\n      jumpi\n      dup1\n      0x0fa08046\n      eq\n      tag_6\n      jumpi\n      dup1\n      0x112940f9\n      eq\n      tag_7\n      jumpi\n      dup1\n      0x1fe543e3\n      eq\n      tag_8\n      jumpi\n      dup1\n      0x248a9ca3\n      eq\n      tag_9\n      jumpi\n      jump(tag_2)\n    tag_37:\n      dup1\n      0xf714ce\n      eq\n      tag_3\n      jumpi\n      dup1\n      0x01ffc9a7\n      eq\n      tag_4\n      jumpi\n      dup1\n      0x0e27e3df\n      eq\n      tag_5\n      jumpi\n    tag_2:\n      0x00\n      dup1\n      revert\n        /* \"contracts/periphery/VRFManagerChainlink.sol\":5497:5628  function withdraw(uint256 amount, address to) external onlyRole(DEFAULT_ADMIN_ROLE) {... */\n    tag_3:\n      tag_38\n      0x04\n      dup1\n      calldatasize\n      sub\n      dup2\n      add\n      swap1\n      tag_39\n      swap2\n      swap1\n      tag_40\n      jump\t// in\n    tag_39:\n      tag_41\n      jump\t// in\n    tag_38:\n      stop\n        /* \"@openzeppelin/contracts/access/AccessControl.sol\":2565:2767  function supportsInterface(bytes4 interfaceId) public view virtual override returns (bool) {... */\n    tag_4:\n      tag_42\n      0x04\n      dup1\n      calldatasize\n      sub\n      dup2\n      add\n      swap1\n      tag_43\n      swap2\n      swap1\n      tag_44\n      jump\t// in\n    tag_43:\n      tag_45\n      jump\t// in\n    tag_42:\n      mload(0x40)\n      tag_46\n      swap2\n      swap1\n      tag_47\n      jump\t// in\n    tag_46:\n      mload(0x40)\n      dup1\n      swap2\n      sub\n      swap1\n      return\n        /* \"contracts/periphery/VRFManagerChainlink.sol\":4919:5145  function removeConsumer(address consumerAddress) external onlyRole(DEFAULT_ADMIN_ROLE) {... */\n    tag_5:\n      tag_48\n      0x04\n      dup1\n      calldatasize\n      sub\n      dup2\n      add\n      swap1\n      tag_49\n      swap2\n      swap1\n      tag_50\n      jump\t// in\n    tag_49:\n      tag_51\n      jump\t// in\n    tag_48:\n      stop\n        /* \"contracts/periphery/VRFManagerChainlink.sol\":957:1000  IHierarchicalDrawing public drawingContract */\n    tag_6:\n      tag_52\n      tag_53\n      jump\t// in\n    tag_52:\n      mload(0x40)\n      tag_54\n      swap2\n      swap1\n      tag_55\n      jump\t// in\n    tag_54:\n      mload(0x40)\n      dup1\n      swap2\n      sub\n      swap1\n      return\n        /* \"contracts/periphery/VRFManagerChainlink.sol\":4645:4913  function addConsumer(address consumerAddress) external onlyRole(DEFAULT_ADMIN_ROLE) {... */\n    tag_7:\n      tag_56\n      0x04\n      dup1\n      calldatasize\n      sub\n      dup2\n      add\n      swap1\n      tag_57\n      swap2\n      swap1\n      tag_50\n      jump\t// in\n    tag_57:\n      tag_58\n      jump\t// in\n    tag_56:\n      stop\n        /* \"@chainlink/contracts/src/v0.8/vrf/VRFConsumerBaseV2.sol\":6794:7050  function rawFulfillRandomWords(uint256 requestId, uint256[] memory randomWords) external {... */\n    tag_8:\n      tag_59\n      0x04\n      dup1\n      calldatasize\n      sub\n      dup2\n      add\n      swap1\n      tag_60\n      swap2\n      swap1\n      tag_61\n      jump\t// in\n    tag_60:\n      tag_62\n      jump\t// in\n    tag_59:\n      stop\n        /* \"@openzeppelin/contracts/access/AccessControl.sol\":3810:3930  function getRoleAdmin(bytes32 role) public view virtual returns (bytes32) {... */\n    tag_9:\n      tag_63\n      0x04\n      dup1\n      calldatasize\n      sub\n      dup2\n      add\n      swap1\n      tag_64\n      swap2\n      swap1\n      tag_65\n      jump\t// in\n    tag_64:\n      tag_66\n      jump\t// in\n    tag_63:\n      mload(0x40)\n      tag_67\n      swap2\n      swap1\n      tag_68\n      jump\t// in\n    tag_67:\n      mload(0x40)\n      dup1\n      swap2\n      sub\n      swap1\n      return\n        /* \"contracts/periphery/VRFManagerChainlink.sol\":1406:1436  uint32 public callbackGasLimit */\n    tag_10:\n      tag_69\n      tag_70\n      jump\t// in\n    tag_69:\n      mload(0x40)\n      tag_71\n      swap2\n      swap1\n      tag_72\n      jump\t// in\n    tag_71:\n      mload(0x40)\n      dup1\n      swap2\n      sub\n      swap1\n      return\n        /* \"@openzeppelin/contracts/access/AccessControl.sol\":4226:4362  function grantRole(bytes32 role, address account) public virtual onlyRole(getRoleAdmin(role)) {... */\n    tag_11:\n      tag_73\n      0x04\n      dup1\n      calldatasize\n      sub\n      dup2\n      add\n      swap1\n      tag_74\n      swap2\n      swap1\n      tag_75\n      jump\t// in\n    tag_74:\n      tag_76\n      jump\t// in\n    tag_73:\n      stop\n        /* \"@openzeppelin/contracts/access/AccessControl.sol\":5328:5573  function renounceRole(bytes32 role, address callerConfirmation) public virtual {... */\n    tag_12:\n      tag_77\n      0x04\n      dup1\n      calldatasize\n      sub\n      dup2\n      add\n      swap1\n      tag_78\n      swap2\n      swap1\n      tag_75\n      jump\t// in\n    tag_78:\n      tag_79\n      jump\t// in\n    tag_77:\n      stop\n        /* \"contracts/periphery/VRFManagerChainlink.sol\":866:910  VRFCoordinatorV2Interface public COORDINATOR */\n    tag_13:\n      tag_80\n      tag_81\n      jump\t// in\n    tag_80:\n      mload(0x40)\n      tag_82\n      swap2\n      swap1\n      tag_83\n      jump\t// in\n    tag_82:\n      mload(0x40)\n      dup1\n      swap2\n      sub\n      swap1\n      return\n        /* \"contracts/periphery/VRFManagerChainlink.sol\":791:859  bytes32 public constant REQUESTER_ROLE = keccak256(\"REQUESTER_ROLE\") */\n    tag_14:\n      tag_84\n      tag_85\n      jump\t// in\n    tag_84:\n      mload(0x40)\n      tag_86\n      swap2\n      swap1\n      tag_68\n      jump\t// in\n    tag_86:\n      mload(0x40)\n      dup1\n      swap2\n      sub\n      swap1\n      return\n        /* \"contracts/periphery/VRFManagerChainlink.sol\":916:951  LinkTokenInterface public LINKTOKEN */\n    tag_15:\n      tag_87\n      tag_88\n      jump\t// in\n    tag_87:\n      mload(0x40)\n      tag_89\n      swap2\n      swap1\n      tag_90\n      jump\t// in\n    tag_89:\n      mload(0x40)\n      dup1\n      swap2\n      sub\n      swap1\n      return\n        /* \"contracts/periphery/VRFManagerChainlink.sol\":1338:1360  bytes32 public keyHash */\n    tag_16:\n      tag_91\n      tag_92\n      jump\t// in\n    tag_91:\n      mload(0x40)\n      tag_93\n      swap2\n      swap1\n      tag_68\n      jump\t// in\n    tag_93:\n      mload(0x40)\n      dup1\n      swap2\n      sub\n      swap1\n      return\n        /* \"contracts/periphery/VRFManagerChainlink.sol\":2472:3135  function requestRandomWords(address _requester) external onlyRole(REQUESTER_ROLE) returns(uint256 requestId){... */\n    tag_17:\n      tag_94\n      0x04\n      dup1\n      calldatasize\n      sub\n      dup2\n      add\n      swap1\n      tag_95\n      swap2\n      swap1\n      tag_50\n      jump\t// in\n    tag_95:\n      tag_96\n      jump\t// in\n    tag_94:\n      mload(0x40)\n      tag_97\n      swap2\n      swap1\n      tag_98\n      jump\t// in\n    tag_97:\n      mload(0x40)\n      dup1\n      swap2\n      sub\n      swap1\n      return\n        /* \"contracts/periphery/VRFManagerChainlink.sol\":4410:4639  function topUpSubscription(uint256 amount) external onlyRole(DEFAULT_ADMIN_ROLE) {... */\n    tag_18:\n      tag_99\n      0x04\n      dup1\n      calldatasize\n      sub\n      dup2\n      add\n      swap1\n      tag_100\n      swap2\n      swap1\n      tag_101\n      jump\t// in\n    tag_100:\n      tag_102\n      jump\t// in\n    tag_99:\n      stop\n        /* \"contracts/periphery/VRFManagerChainlink.sol\":1479:1506  uint256[] public requestIds */\n    tag_19:\n      tag_103\n      0x04\n      dup1\n      calldatasize\n      sub\n      dup2\n      add\n      swap1\n      tag_104\n      swap2\n      swap1\n      tag_101\n      jump\t// in\n    tag_104:\n      tag_105\n      jump\t// in\n    tag_103:\n      mload(0x40)\n      tag_106\n      swap2\n      swap1\n      tag_98\n      jump\t// in\n    tag_106:\n      mload(0x40)\n      dup1\n      swap2\n      sub\n      swap1\n      return\n        /* \"contracts/periphery/VRFManagerChainlink.sol\":1443:1473  uint64 public s_subscriptionId */\n    tag_20:\n      tag_107\n      tag_108\n      jump\t// in\n    tag_107:\n      mload(0x40)\n      tag_109\n      swap2\n      swap1\n      tag_110\n      jump\t// in\n    tag_109:\n      mload(0x40)\n      dup1\n      swap2\n      sub\n      swap1\n      return\n        /* \"@openzeppelin/contracts/access/AccessControl.sol\":2854:2990  function hasRole(bytes32 role, address account) public view virtual returns (bool) {... */\n    tag_21:\n      tag_111\n      0x04\n      dup1\n      calldatasize\n      sub\n      dup2\n      add\n      swap1\n      tag_112\n      swap2\n      swap1\n      tag_75\n      jump\t// in\n    tag_112:\n      tag_113\n      jump\t// in\n    tag_111:\n      mload(0x40)\n      tag_114\n      swap2\n      swap1\n      tag_47\n      jump\t// in\n    tag_114:\n      mload(0x40)\n      dup1\n      swap2\n      sub\n      swap1\n      return\n        /* \"contracts/periphery/VRFManagerChainlink.sol\":5151:5438  function cancelSubscription(address receivingWallet) external onlyRole(DEFAULT_ADMIN_ROLE) {... */\n    tag_22:\n      tag_115\n      0x04\n      dup1\n      calldatasize\n      sub\n      dup2\n      add\n      swap1\n      tag_116\n      swap2\n      swap1\n      tag_50\n      jump\t// in\n    tag_116:\n      tag_117\n      jump\t// in\n    tag_115:\n      stop\n        /* \"contracts/periphery/VRFManagerChainlink.sol\":1240:1291  mapping(uint256 => RequestStatus) public s_requests */\n    tag_23:\n      tag_118\n      0x04\n      dup1\n      calldatasize\n      sub\n      dup2\n      add\n      swap1\n      tag_119\n      swap2\n      swap1\n      tag_101\n      jump\t// in\n    tag_119:\n      tag_120\n      jump\t// in\n    tag_118:\n      mload(0x40)\n      tag_121\n      swap3\n      swap2\n      swap1\n      tag_122\n      jump\t// in\n    tag_121:\n      mload(0x40)\n      dup1\n      swap2\n      sub\n      swap1\n      return\n        /* \"@openzeppelin/contracts/access/AccessControl.sol\":2187:2236  bytes32 public constant DEFAULT_ADMIN_ROLE = 0x00 */\n    tag_24:\n      tag_123\n      tag_124\n      jump\t// in\n    tag_123:\n      mload(0x40)\n      tag_125\n      swap2\n      swap1\n      tag_68\n      jump\t// in\n    tag_125:\n      mload(0x40)\n      dup1\n      swap2\n      sub\n      swap1\n      return\n        /* \"contracts/periphery/VRFManagerChainlink.sol\":1303:1332  address public vrfCoordinator */\n    tag_25:\n      tag_126\n      tag_127\n      jump\t// in\n    tag_126:\n      mload(0x40)\n      tag_128\n      swap2\n      swap1\n      tag_129\n      jump\t// in\n    tag_128:\n      mload(0x40)\n      dup1\n      swap2\n      sub\n      swap1\n      return\n        /* \"contracts/periphery/VRFManagerChainlink.sol\":1366:1400  uint16 public requestConfirmations */\n    tag_26:\n      tag_130\n      tag_131\n      jump\t// in\n    tag_130:\n      mload(0x40)\n      tag_132\n      swap2\n      swap1\n      tag_133\n      jump\t// in\n    tag_132:\n      mload(0x40)\n      dup1\n      swap2\n      sub\n      swap1\n      return\n        /* \"contracts/periphery/VRFManagerChainlink.sol\":2213:2364  function setDrawingContract(address _contract) external onlyRole(DEFAULT_ADMIN_ROLE) {... */\n    tag_27:\n      tag_134\n      0x04\n      dup1\n      calldatasize\n      sub\n      dup2\n      add\n      swap1\n      tag_135\n      swap2\n      swap1\n      tag_50\n      jump\t// in\n    tag_135:\n      tag_136\n      jump\t// in\n    tag_134:\n      stop\n        /* \"@openzeppelin/contracts/access/AccessControl.sol\":4642:4780  function revokeRole(bytes32 role, address account) public virtual onlyRole(getRoleAdmin(role)) {... */\n    tag_28:\n      tag_137\n      0x04\n      dup1\n      calldatasize\n      sub\n      dup2\n      add\n      swap1\n      tag_138\n      swap2\n      swap1\n      tag_75\n      jump\t// in\n    tag_138:\n      tag_139\n      jump\t// in\n    tag_137:\n      stop\n        /* \"contracts/periphery/VRFManagerChainlink.sol\":3677:4012  function getRequestStatus(... */\n    tag_29:\n      tag_140\n      0x04\n      dup1\n      calldatasize\n      sub\n      dup2\n      add\n      swap1\n      tag_141\n      swap2\n      swap1\n      tag_101\n      jump\t// in\n    tag_141:\n      tag_142\n      jump\t// in\n    tag_140:\n      mload(0x40)\n      tag_143\n      swap3\n      swap2\n      swap1\n      tag_144\n      jump\t// in\n    tag_143:\n      mload(0x40)\n      dup1\n      swap2\n      sub\n      swap1\n      return\n        /* \"contracts/periphery/VRFManagerChainlink.sol\":1512:1540  uint256 public lastRequestId */\n    tag_30:\n      tag_145\n      tag_146\n      jump\t// in\n    tag_145:\n      mload(0x40)\n      tag_147\n      swap2\n      swap1\n      tag_98\n      jump\t// in\n    tag_147:\n      mload(0x40)\n      dup1\n      swap2\n      sub\n      swap1\n      return\n        /* \"contracts/periphery/VRFManagerChainlink.sol\":5497:5628  function withdraw(uint256 amount, address to) external onlyRole(DEFAULT_ADMIN_ROLE) {... */\n    tag_41:\n        /* \"@openzeppelin/contracts/access/AccessControl.sol\":2232:2236  0x00 */\n      0x00\n        /* \"contracts/periphery/VRFManagerChainlink.sol\":5561:5579  DEFAULT_ADMIN_ROLE */\n      dup1\n      shl\n        /* \"@openzeppelin/contracts/access/AccessControl.sol\":2464:2480  _checkRole(role) */\n      tag_149\n        /* \"@openzeppelin/contracts/access/AccessControl.sol\":2475:2479  role */\n      dup2\n        /* \"@openzeppelin/contracts/access/AccessControl.sol\":2464:2474  _checkRole */\n      tag_150\n        /* \"@openzeppelin/contracts/access/AccessControl.sol\":2464:2480  _checkRole(role) */\n      jump\t// in\n    tag_149:\n        /* \"contracts/periphery/VRFManagerChainlink.sol\":5591:5600  LINKTOKEN */\n      0x02\n      0x00\n      swap1\n      sload\n      swap1\n      0x0100\n      exp\n      swap1\n      div\n      0xffffffffffffffffffffffffffffffffffffffff\n      and\n        /* \"contracts/periphery/VRFManagerChainlink.sol\":5591:5609  LINKTOKEN.transfer */\n      0xffffffffffffffffffffffffffffffffffffffff\n      and\n      0xa9059cbb\n        /* \"contracts/periphery/VRFManagerChainlink.sol\":5610:5612  to */\n      dup4\n        /* \"contracts/periphery/VRFManagerChainlink.sol\":5614:5620  amount */\n      dup6\n        /* \"contracts/periphery/VRFManagerChainlink.sol\":5591:5621  LINKTOKEN.transfer(to, amount) */\n      mload(0x40)\n      dup4\n      0xffffffff\n      and\n      0xe0\n      shl\n      dup2\n      mstore\n      0x04\n      add\n      tag_152\n      swap3\n      swap2\n      swap1\n      tag_153\n      jump\t// in\n    tag_152:\n      0x20\n      mload(0x40)\n      dup1\n      dup4\n      sub\n      dup2\n      0x00\n      dup8\n      gas\n      call\n      iszero\n      dup1\n      iszero\n      tag_155\n      jumpi\n      returndatasize\n      0x00\n      dup1\n      returndatacopy\n      revert(0x00, returndatasize)\n    tag_155:\n      pop\n      pop\n      pop\n      pop\n      mload(0x40)\n      returndatasize\n      not(0x1f)\n      0x1f\n      dup3\n      add\n      and\n      dup3\n      add\n      dup1\n      0x40\n      mstore\n      pop\n      dup2\n      add\n      swap1\n      tag_156\n      swap2\n      swap1\n      tag_157\n      jump\t// in\n    tag_156:\n      pop\n        /* \"contracts/periphery/VRFManagerChainlink.sol\":5497:5628  function withdraw(uint256 amount, address to) external onlyRole(DEFAULT_ADMIN_ROLE) {... */\n      pop\n      pop\n      pop\n      jump\t// out\n        /* \"@openzeppelin/contracts/access/AccessControl.sol\":2565:2767  function supportsInterface(bytes4 interfaceId) public view virtual override returns (bool) {... */\n    tag_45:\n        /* \"@openzeppelin/contracts/access/AccessControl.sol\":2650:2654  bool */\n      0x00\n        /* \"@openzeppelin/contracts/access/AccessControl.sol\":2688:2720  type(IAccessControl).interfaceId */\n      0x7965db0b00000000000000000000000000000000000000000000000000000000\n        /* \"@openzeppelin/contracts/access/AccessControl.sol\":2673:2720  interfaceId == type(IAccessControl).interfaceId */\n      not(0xffffffffffffffffffffffffffffffffffffffffffffffffffffffff)\n      and\n        /* \"@openzeppelin/contracts/access/AccessControl.sol\":2673:2684  interfaceId */\n      dup3\n        /* \"@openzeppelin/contracts/access/AccessControl.sol\":2673:2720  interfaceId == type(IAccessControl).interfaceId */\n      not(0xffffffffffffffffffffffffffffffffffffffffffffffffffffffff)\n      and\n      eq\n        /* \"@openzeppelin/contracts/access/AccessControl.sol\":2673:2760  interfaceId == type(IAccessControl).interfaceId || super.supportsInterface(interfaceId) */\n      dup1\n      tag_159\n      jumpi\n      pop\n        /* \"@openzeppelin/contracts/access/AccessControl.sol\":2724:2760  super.supportsInterface(interfaceId) */\n      tag_160\n        /* \"@openzeppelin/contracts/access/AccessControl.sol\":2748:2759  interfaceId */\n      dup3\n        /* \"@openzeppelin/contracts/access/AccessControl.sol\":2724:2747  super.supportsInterface */\n      tag_161\n        /* \"@openzeppelin/contracts/access/AccessControl.sol\":2724:2760  super.supportsInterface(interfaceId) */\n      jump\t// in\n    tag_160:\n        /* \"@openzeppelin/contracts/access/AccessControl.sol\":2673:2760  interfaceId == type(IAccessControl).interfaceId || super.supportsInterface(interfaceId) */\n    tag_159:\n        /* \"@openzeppelin/contracts/access/AccessControl.sol\":2666:2760  return interfaceId == type(IAccessControl).interfaceId || super.supportsInterface(interfaceId) */\n      swap1\n      pop\n        /* \"@openzeppelin/contracts/access/AccessControl.sol\":2565:2767  function supportsInterface(bytes4 interfaceId) public view virtual override returns (bool) {... */\n      swap2\n      swap1\n      pop\n      jump\t// out\n        /* \"contracts/periphery/VRFManagerChainlink.sol\":4919:5145  function removeConsumer(address consumerAddress) external onlyRole(DEFAULT_ADMIN_ROLE) {... */\n    tag_51:\n        /* \"@openzeppelin/contracts/access/AccessControl.sol\":2232:2236  0x00 */\n      0x00\n        /* \"contracts/periphery/VRFManagerChainlink.sol\":4986:5004  DEFAULT_ADMIN_ROLE */\n      dup1\n      shl\n        /* \"@openzeppelin/contracts/access/AccessControl.sol\":2464:2480  _checkRole(role) */\n      tag_163\n        /* \"@openzeppelin/contracts/access/AccessControl.sol\":2475:2479  role */\n      dup2\n        /* \"@openzeppelin/contracts/access/AccessControl.sol\":2464:2474  _checkRole */\n      tag_150\n        /* \"@openzeppelin/contracts/access/AccessControl.sol\":2464:2480  _checkRole(role) */\n      jump\t// in\n    tag_163:\n        /* \"contracts/periphery/VRFManagerChainlink.sol\":5077:5088  COORDINATOR */\n      0x01\n      0x00\n      swap1\n      sload\n      swap1\n      0x0100\n      exp\n      swap1\n      div\n      0xffffffffffffffffffffffffffffffffffffffff\n      and\n        /* \"contracts/periphery/VRFManagerChainlink.sol\":5077:5103  COORDINATOR.removeConsumer */\n      0xffffffffffffffffffffffffffffffffffffffff\n      and\n      0x9f87fad7\n        /* \"contracts/periphery/VRFManagerChainlink.sol\":5104:5120  s_subscriptionId */\n      0x07\n      0x06\n      swap1\n      sload\n      swap1\n      0x0100\n      exp\n      swap1\n      div\n      0xffffffffffffffff\n      and\n        /* \"contracts/periphery/VRFManagerChainlink.sol\":5122:5137  consumerAddress */\n      dup5\n        /* \"contracts/periphery/VRFManagerChainlink.sol\":5077:5138  COORDINATOR.removeConsumer(s_subscriptionId, consumerAddress) */\n      mload(0x40)\n      dup4\n      0xffffffff\n      and\n      0xe0\n      shl\n      dup2\n      mstore\n      0x04\n      add\n      tag_165\n      swap3\n      swap2\n      swap1\n      tag_166\n      jump\t// in\n    tag_165:\n      0x00\n      mload(0x40)\n      dup1\n      dup4\n      sub\n      dup2\n      0x00\n      dup8\n      dup1\n      extcodesize\n      iszero\n      dup1\n      iszero\n      tag_167\n      jumpi\n      0x00\n      dup1\n      revert\n    tag_167:\n      pop\n      gas\n      call\n      iszero\n      dup1\n      iszero\n      tag_169\n      jumpi\n      returndatasize\n      0x00\n      dup1\n      returndatacopy\n      revert(0x00, returndatasize)\n    tag_169:\n      pop\n      pop\n      pop\n      pop\n        /* \"contracts/periphery/VRFManagerChainlink.sol\":4919:5145  function removeConsumer(address consumerAddress) external onlyRole(DEFAULT_ADMIN_ROLE) {... */\n      pop\n      pop\n      jump\t// out\n        /* \"contracts/periphery/VRFManagerChainlink.sol\":957:1000  IHierarchicalDrawing public drawingContract */\n    tag_53:\n      0x03\n      0x00\n      swap1\n      sload\n      swap1\n      0x0100\n      exp\n      swap1\n      div\n      0xffffffffffffffffffffffffffffffffffffffff\n      and\n      dup2\n      jump\t// out\n        /* \"contracts/periphery/VRFManagerChainlink.sol\":4645:4913  function addConsumer(address consumerAddress) external onlyRole(DEFAULT_ADMIN_ROLE) {... */\n    tag_58:\n        /* \"@openzeppelin/contracts/access/AccessControl.sol\":2232:2236  0x00 */\n      0x00\n        /* \"contracts/periphery/VRFManagerChainlink.sol\":4709:4727  DEFAULT_ADMIN_ROLE */\n      dup1\n      shl\n        /* \"@openzeppelin/contracts/access/AccessControl.sol\":2464:2480  _checkRole(role) */\n      tag_171\n        /* \"@openzeppelin/contracts/access/AccessControl.sol\":2475:2479  role */\n      dup2\n        /* \"@openzeppelin/contracts/access/AccessControl.sol\":2464:2474  _checkRole */\n      tag_150\n        /* \"@openzeppelin/contracts/access/AccessControl.sol\":2464:2480  _checkRole(role) */\n      jump\t// in\n    tag_171:\n        /* \"contracts/periphery/VRFManagerChainlink.sol\":4795:4806  COORDINATOR */\n      0x01\n      0x00\n      swap1\n      sload\n      swap1\n      0x0100\n      exp\n      swap1\n      div\n      0xffffffffffffffffffffffffffffffffffffffff\n      and\n        /* \"contracts/periphery/VRFManagerChainlink.sol\":4795:4818  COORDINATOR.addConsumer */\n      0xffffffffffffffffffffffffffffffffffffffff\n      and\n      0x7341c10c\n        /* \"contracts/periphery/VRFManagerChainlink.sol\":4819:4835  s_subscriptionId */\n      0x07\n      0x06\n      swap1\n      sload\n      swap1\n      0x0100\n      exp\n      swap1\n      div\n      0xffffffffffffffff\n      and\n        /* \"contracts/periphery/VRFManagerChainlink.sol\":4837:4852  consumerAddress */\n      dup5\n        /* \"contracts/periphery/VRFManagerChainlink.sol\":4795:4853  COORDINATOR.addConsumer(s_subscriptionId, consumerAddress) */\n      mload(0x40)\n      dup4\n      0xffffffff\n      and\n      0xe0\n      shl\n      dup2\n      mstore\n      0x04\n      add\n      tag_173\n      swap3\n      swap2\n      swap1\n      tag_166\n      jump\t// in\n    tag_173:\n      0x00\n      mload(0x40)\n      dup1\n      dup4\n      sub\n      dup2\n      0x00\n      dup8\n      dup1\n      extcodesize\n      iszero\n      dup1\n      iszero\n      tag_174\n      jumpi\n      0x00\n      dup1\n      revert\n    tag_174:\n      pop\n      gas\n      call\n      iszero\n      dup1\n      iszero\n      tag_176\n      jumpi\n      returndatasize\n      0x00\n      dup1\n      returndatacopy\n      revert(0x00, returndatasize)\n    tag_176:\n      pop\n      pop\n      pop\n      pop\n        /* \"contracts/periphery/VRFManagerChainlink.sol\":4863:4906  _grantRole(REQUESTER_ROLE, consumerAddress) */\n      tag_177\n        /* \"contracts/periphery/VRFManagerChainlink.sol\":832:859  keccak256(\"REQUESTER_ROLE\") */\n      0x61a3517f153a09154844ed8be639dabc6e78dc22315c2d9a91f7eddf9398c002\n        /* \"contracts/periphery/VRFManagerChainlink.sol\":4890:4905  consumerAddress */\n      dup4\n        /* \"contracts/periphery/VRFManagerChainlink.sol\":4863:4873  _grantRole */\n      tag_178\n        /* \"contracts/periphery/VRFManagerChainlink.sol\":4863:4906  _grantRole(REQUESTER_ROLE, consumerAddress) */\n      jump\t// in\n    tag_177:\n      pop\n        /* \"contracts/periphery/VRFManagerChainlink.sol\":4645:4913  function addConsumer(address consumerAddress) external onlyRole(DEFAULT_ADMIN_ROLE) {... */\n      pop\n      pop\n      jump\t// out\n        /* \"@chainlink/contracts/src/v0.8/vrf/VRFConsumerBaseV2.sol\":6794:7050  function rawFulfillRandomWords(uint256 requestId, uint256[] memory randomWords) external {... */\n    tag_62:\n        /* \"@chainlink/contracts/src/v0.8/vrf/VRFConsumerBaseV2.sol\":6907:6921  vrfCoordinator */\n      immutable(\"0xa882a7942f9c31b62f61719affd7835f08bca3f855f990bbc994d54b51d095ca\")\n        /* \"@chainlink/contracts/src/v0.8/vrf/VRFConsumerBaseV2.sol\":6893:6921  msg.sender != vrfCoordinator */\n      0xffffffffffffffffffffffffffffffffffffffff\n      and\n        /* \"@chainlink/contracts/src/v0.8/vrf/VRFConsumerBaseV2.sol\":6893:6903  msg.sender */\n      caller\n        /* \"@chainlink/contracts/src/v0.8/vrf/VRFConsumerBaseV2.sol\":6893:6921  msg.sender != vrfCoordinator */\n      0xffffffffffffffffffffffffffffffffffffffff\n      and\n      eq\n        /* \"@chainlink/contracts/src/v0.8/vrf/VRFConsumerBaseV2.sol\":6889:6998  if (msg.sender != vrfCoordinator) {... */\n      tag_180\n      jumpi\n        /* \"@chainlink/contracts/src/v0.8/vrf/VRFConsumerBaseV2.sol\":6964:6974  msg.sender */\n      caller\n        /* \"@chainlink/contracts/src/v0.8/vrf/VRFConsumerBaseV2.sol\":6976:6990  vrfCoordinator */\n      immutable(\"0xa882a7942f9c31b62f61719affd7835f08bca3f855f990bbc994d54b51d095ca\")\n        /* \"@chainlink/contracts/src/v0.8/vrf/VRFConsumerBaseV2.sol\":6938:6991  OnlyCoordinatorCanFulfill(msg.sender, vrfCoordinator) */\n      mload(0x40)\n      0x1cf993f400000000000000000000000000000000000000000000000000000000\n      dup2\n      mstore\n      0x04\n      add\n      tag_181\n      swap3\n      swap2\n      swap1\n      tag_182\n      jump\t// in\n    tag_181:\n      mload(0x40)\n      dup1\n      swap2\n      sub\n      swap1\n      revert\n        /* \"@chainlink/contracts/src/v0.8/vrf/VRFConsumerBaseV2.sol\":6889:6998  if (msg.sender != vrfCoordinator) {... */\n    tag_180:\n        /* \"@chainlink/contracts/src/v0.8/vrf/VRFConsumerBaseV2.sol\":7003:7045  fulfillRandomWords(requestId, randomWords) */\n      tag_183\n        /* \"@chainlink/contracts/src/v0.8/vrf/VRFConsumerBaseV2.sol\":7022:7031  requestId */\n      dup3\n        /* \"@chainlink/contracts/src/v0.8/vrf/VRFConsumerBaseV2.sol\":7033:7044  randomWords */\n      dup3\n        /* \"@chainlink/contracts/src/v0.8/vrf/VRFConsumerBaseV2.sol\":7003:7021  fulfillRandomWords */\n      tag_184\n        /* \"@chainlink/contracts/src/v0.8/vrf/VRFConsumerBaseV2.sol\":7003:7045  fulfillRandomWords(requestId, randomWords) */\n      jump\t// in\n    tag_183:\n        /* \"@chainlink/contracts/src/v0.8/vrf/VRFConsumerBaseV2.sol\":6794:7050  function rawFulfillRandomWords(uint256 requestId, uint256[] memory randomWords) external {... */\n      pop\n      pop\n      jump\t// out\n        /* \"@openzeppelin/contracts/access/AccessControl.sol\":3810:3930  function getRoleAdmin(bytes32 role) public view virtual returns (bytes32) {... */\n    tag_66:\n        /* \"@openzeppelin/contracts/access/AccessControl.sol\":3875:3882  bytes32 */\n      0x00\n        /* \"@openzeppelin/contracts/access/AccessControl.sol\":3901:3907  _roles */\n      dup1\n        /* \"@openzeppelin/contracts/access/AccessControl.sol\":3901:3913  _roles[role] */\n      0x00\n        /* \"@openzeppelin/contracts/access/AccessControl.sol\":3908:3912  role */\n      dup4\n        /* \"@openzeppelin/contracts/access/AccessControl.sol\":3901:3913  _roles[role] */\n      dup2\n      mstore\n      0x20\n      add\n      swap1\n      dup2\n      mstore\n      0x20\n      add\n      0x00\n      keccak256\n        /* \"@openzeppelin/contracts/access/AccessControl.sol\":3901:3923  _roles[role].adminRole */\n      0x01\n      add\n      sload\n        /* \"@openzeppelin/contracts/access/AccessControl.sol\":3894:3923  return _roles[role].adminRole */\n      swap1\n      pop\n        /* \"@openzeppelin/contracts/access/AccessControl.sol\":3810:3930  function getRoleAdmin(bytes32 role) public view virtual returns (bytes32) {... */\n      swap2\n      swap1\n      pop\n      jump\t// out\n        /* \"contracts/periphery/VRFManagerChainlink.sol\":1406:1436  uint32 public callbackGasLimit */\n    tag_70:\n      0x07\n      0x02\n      swap1\n      sload\n      swap1\n      0x0100\n      exp\n      swap1\n      div\n      0xffffffff\n      and\n      dup2\n      jump\t// out\n        /* \"@openzeppelin/contracts/access/AccessControl.sol\":4226:4362  function grantRole(bytes32 role, address account) public virtual onlyRole(getRoleAdmin(role)) {... */\n    tag_76:\n        /* \"@openzeppelin/contracts/access/AccessControl.sol\":4300:4318  getRoleAdmin(role) */\n      tag_186\n        /* \"@openzeppelin/contracts/access/AccessControl.sol\":4313:4317  role */\n      dup3\n        /* \"@openzeppelin/contracts/access/AccessControl.sol\":4300:4312  getRoleAdmin */\n      tag_66\n        /* \"@openzeppelin/contracts/access/AccessControl.sol\":4300:4318  getRoleAdmin(role) */\n      jump\t// in\n    tag_186:\n        /* \"@openzeppelin/contracts/access/AccessControl.sol\":2464:2480  _checkRole(role) */\n      tag_188\n        /* \"@openzeppelin/contracts/access/AccessControl.sol\":2475:2479  role */\n      dup2\n        /* \"@openzeppelin/contracts/access/AccessControl.sol\":2464:2474  _checkRole */\n      tag_150\n        /* \"@openzeppelin/contracts/access/AccessControl.sol\":2464:2480  _checkRole(role) */\n      jump\t// in\n    tag_188:\n        /* \"@openzeppelin/contracts/access/AccessControl.sol\":4330:4355  _grantRole(role, account) */\n      tag_190\n        /* \"@openzeppelin/contracts/access/AccessControl.sol\":4341:4345  role */\n      dup4\n        /* \"@openzeppelin/contracts/access/AccessControl.sol\":4347:4354  account */\n      dup4\n        /* \"@openzeppelin/contracts/access/AccessControl.sol\":4330:4340  _grantRole */\n      tag_178\n        /* \"@openzeppelin/contracts/access/AccessControl.sol\":4330:4355  _grantRole(role, account) */\n      jump\t// in\n    tag_190:\n      pop\n        /* \"@openzeppelin/contracts/access/AccessControl.sol\":4226:4362  function grantRole(bytes32 role, address account) public virtual onlyRole(getRoleAdmin(role)) {... */\n      pop\n      pop\n      pop\n      jump\t// out\n        /* \"@openzeppelin/contracts/access/AccessControl.sol\":5328:5573  function renounceRole(bytes32 role, address callerConfirmation) public virtual {... */\n    tag_79:\n        /* \"@openzeppelin/contracts/access/AccessControl.sol\":5443:5455  _msgSender() */\n      tag_192\n        /* \"@openzeppelin/contracts/access/AccessControl.sol\":5443:5453  _msgSender */\n      tag_193\n        /* \"@openzeppelin/contracts/access/AccessControl.sol\":5443:5455  _msgSender() */\n      jump\t// in\n    tag_192:\n        /* \"@openzeppelin/contracts/access/AccessControl.sol\":5421:5455  callerConfirmation != _msgSender() */\n      0xffffffffffffffffffffffffffffffffffffffff\n      and\n        /* \"@openzeppelin/contracts/access/AccessControl.sol\":5421:5439  callerConfirmation */\n      dup2\n        /* \"@openzeppelin/contracts/access/AccessControl.sol\":5421:5455  callerConfirmation != _msgSender() */\n      0xffffffffffffffffffffffffffffffffffffffff\n      and\n      eq\n        /* \"@openzeppelin/contracts/access/AccessControl.sol\":5417:5519  if (callerConfirmation != _msgSender()) {... */\n      tag_194\n      jumpi\n        /* \"@openzeppelin/contracts/access/AccessControl.sol\":5478:5508  AccessControlBadConfirmation() */\n      mload(0x40)\n      0x6697b23200000000000000000000000000000000000000000000000000000000\n      dup2\n      mstore\n      0x04\n      add\n      mload(0x40)\n      dup1\n      swap2\n      sub\n      swap1\n      revert\n        /* \"@openzeppelin/contracts/access/AccessControl.sol\":5417:5519  if (callerConfirmation != _msgSender()) {... */\n    tag_194:\n        /* \"@openzeppelin/contracts/access/AccessControl.sol\":5529:5566  _revokeRole(role, callerConfirmation) */\n      tag_195\n        /* \"@openzeppelin/contracts/access/AccessControl.sol\":5541:5545  role */\n      dup3\n        /* \"@openzeppelin/contracts/access/AccessControl.sol\":5547:5565  callerConfirmation */\n      dup3\n        /* \"@openzeppelin/contracts/access/AccessControl.sol\":5529:5540  _revokeRole */\n      tag_196\n        /* \"@openzeppelin/contracts/access/AccessControl.sol\":5529:5566  _revokeRole(role, callerConfirmation) */\n      jump\t// in\n    tag_195:\n      pop\n        /* \"@openzeppelin/contracts/access/AccessControl.sol\":5328:5573  function renounceRole(bytes32 role, address callerConfirmation) public virtual {... */\n      pop\n      pop\n      jump\t// out\n        /* \"contracts/periphery/VRFManagerChainlink.sol\":866:910  VRFCoordinatorV2Interface public COORDINATOR */\n    tag_81:\n      0x01\n      0x00\n      swap1\n      sload\n      swap1\n      0x0100\n      exp\n      swap1\n      div\n      0xffffffffffffffffffffffffffffffffffffffff\n      and\n      dup2\n      jump\t// out\n        /* \"contracts/periphery/VRFManagerChainlink.sol\":791:859  bytes32 public constant REQUESTER_ROLE = keccak256(\"REQUESTER_ROLE\") */\n    tag_85:\n        /* \"contracts/periphery/VRFManagerChainlink.sol\":832:859  keccak256(\"REQUESTER_ROLE\") */\n      0x61a3517f153a09154844ed8be639dabc6e78dc22315c2d9a91f7eddf9398c002\n        /* \"contracts/periphery/VRFManagerChainlink.sol\":791:859  bytes32 public constant REQUESTER_ROLE = keccak256(\"REQUESTER_ROLE\") */\n      dup2\n      jump\t// out\n        /* \"contracts/periphery/VRFManagerChainlink.sol\":916:951  LinkTokenInterface public LINKTOKEN */\n    tag_88:\n      0x02\n      0x00\n      swap1\n      sload\n      swap1\n      0x0100\n      exp\n      swap1\n      div\n      0xffffffffffffffffffffffffffffffffffffffff\n      and\n      dup2\n      jump\t// out\n        /* \"contracts/periphery/VRFManagerChainlink.sol\":1338:1360  bytes32 public keyHash */\n    tag_92:\n      sload(0x06)\n      dup2\n      jump\t// out\n        /* \"contracts/periphery/VRFManagerChainlink.sol\":2472:3135  function requestRandomWords(address _requester) external onlyRole(REQUESTER_ROLE) returns(uint256 requestId){... */\n    tag_96:\n        /* \"contracts/periphery/VRFManagerChainlink.sol\":2562:2579  uint256 requestId */\n      0x00\n        /* \"contracts/periphery/VRFManagerChainlink.sol\":832:859  keccak256(\"REQUESTER_ROLE\") */\n      0x61a3517f153a09154844ed8be639dabc6e78dc22315c2d9a91f7eddf9398c002\n        /* \"@openzeppelin/contracts/access/AccessControl.sol\":2464:2480  _checkRole(role) */\n      tag_198\n        /* \"@openzeppelin/contracts/access/AccessControl.sol\":2475:2479  role */\n      dup2\n        /* \"@openzeppelin/contracts/access/AccessControl.sol\":2464:2474  _checkRole */\n      tag_150\n        /* \"@openzeppelin/contracts/access/AccessControl.sol\":2464:2480  _checkRole(role) */\n      jump\t// in\n    tag_198:\n        /* \"contracts/periphery/VRFManagerChainlink.sol\":2664:2675  COORDINATOR */\n      0x01\n      0x00\n      swap1\n      sload\n      swap1\n      0x0100\n      exp\n      swap1\n      div\n      0xffffffffffffffffffffffffffffffffffffffff\n      and\n        /* \"contracts/periphery/VRFManagerChainlink.sol\":2664:2694  COORDINATOR.requestRandomWords */\n      0xffffffffffffffffffffffffffffffffffffffff\n      and\n      0x5d3b1d30\n        /* \"contracts/periphery/VRFManagerChainlink.sol\":2708:2715  keyHash */\n      sload(0x06)\n        /* \"contracts/periphery/VRFManagerChainlink.sol\":2729:2745  s_subscriptionId */\n      0x07\n      0x06\n      swap1\n      sload\n      swap1\n      0x0100\n      exp\n      swap1\n      div\n      0xffffffffffffffff\n      and\n        /* \"contracts/periphery/VRFManagerChainlink.sol\":2759:2779  requestConfirmations */\n      0x07\n      0x00\n      swap1\n      sload\n      swap1\n      0x0100\n      exp\n      swap1\n      div\n      0xffff\n      and\n        /* \"contracts/periphery/VRFManagerChainlink.sol\":2793:2809  callbackGasLimit */\n      0x07\n      0x02\n      swap1\n      sload\n      swap1\n      0x0100\n      exp\n      swap1\n      div\n      0xffffffff\n      and\n        /* \"contracts/periphery/VRFManagerChainlink.sol\":2823:2824  1 */\n      0x01\n        /* \"contracts/periphery/VRFManagerChainlink.sol\":2664:2834  COORDINATOR.requestRandomWords(... */\n      mload(0x40)\n      dup7\n      0xffffffff\n      and\n      0xe0\n      shl\n      dup2\n      mstore\n      0x04\n      add\n      tag_200\n      swap6\n      swap5\n      swap4\n      swap3\n      swap2\n      swap1\n      tag_201\n      jump\t// in\n    tag_200:\n      0x20\n      mload(0x40)\n      dup1\n      dup4\n      sub\n      dup2\n      0x00\n      dup8\n      gas\n      call\n      iszero\n      dup1\n      iszero\n      tag_203\n      jumpi\n      returndatasize\n      0x00\n      dup1\n      returndatacopy\n      revert(0x00, returndatasize)\n    tag_203:\n      pop\n      pop\n      pop\n      pop\n      mload(0x40)\n      returndatasize\n      not(0x1f)\n      0x1f\n      dup3\n      add\n      and\n      dup3\n      add\n      dup1\n      0x40\n      mstore\n      pop\n      dup2\n      add\n      swap1\n      tag_204\n      swap2\n      swap1\n      tag_205\n      jump\t// in\n    tag_204:\n        /* \"contracts/periphery/VRFManagerChainlink.sol\":2652:2834  requestId = COORDINATOR.requestRandomWords(... */\n      swap2\n      pop\n        /* \"contracts/periphery/VRFManagerChainlink.sol\":2869:2981  RequestStatus({... */\n      mload(0x40)\n      dup1\n      0x60\n      add\n      0x40\n      mstore\n      dup1\n        /* \"contracts/periphery/VRFManagerChainlink.sol\":2965:2970  false */\n      0x00\n        /* \"contracts/periphery/VRFManagerChainlink.sol\":2869:2981  RequestStatus({... */\n      iszero\n      iszero\n      dup2\n      mstore\n      0x20\n      add\n        /* \"contracts/periphery/VRFManagerChainlink.sol\":2940:2944  true */\n      0x01\n        /* \"contracts/periphery/VRFManagerChainlink.sol\":2869:2981  RequestStatus({... */\n      iszero\n      iszero\n      dup2\n      mstore\n      0x20\n      add\n        /* \"contracts/periphery/VRFManagerChainlink.sol\":2920:2921  0 */\n      0x00\n        /* \"contracts/periphery/VRFManagerChainlink.sol\":2906:2922  new uint256[](0) */\n      0xffffffffffffffff\n      dup2\n      gt\n      iszero\n      tag_206\n      jumpi\n      tag_207\n      tag_208\n      jump\t// in\n    tag_207:\n    tag_206:\n      mload(0x40)\n      swap1\n      dup1\n      dup3\n      mstore\n      dup1\n      0x20\n      mul\n      0x20\n      add\n      dup3\n      add\n      0x40\n      mstore\n      dup1\n      iszero\n      tag_209\n      jumpi\n      dup2\n      0x20\n      add\n      0x20\n      dup3\n      mul\n      dup1\n      calldatasize\n      dup4\n      calldatacopy\n      dup1\n      dup3\n      add\n      swap2\n      pop\n      pop\n      swap1\n      pop\n    tag_209:\n      pop\n        /* \"contracts/periphery/VRFManagerChainlink.sol\":2869:2981  RequestStatus({... */\n      dup2\n      mstore\n      pop\n        /* \"contracts/periphery/VRFManagerChainlink.sol\":2845:2855  s_requests */\n      0x04\n        /* \"contracts/periphery/VRFManagerChainlink.sol\":2845:2866  s_requests[requestId] */\n      0x00\n        /* \"contracts/periphery/VRFManagerChainlink.sol\":2856:2865  requestId */\n      dup5\n        /* \"contracts/periphery/VRFManagerChainlink.sol\":2845:2866  s_requests[requestId] */\n      dup2\n      mstore\n      0x20\n      add\n      swap1\n      dup2\n      mstore\n      0x20\n      add\n      0x00\n      keccak256\n        /* \"contracts/periphery/VRFManagerChainlink.sol\":2845:2981  s_requests[requestId] = RequestStatus({... */\n      0x00\n      dup3\n      add\n      mload\n      dup2\n      0x00\n      add\n      exp(0x0100, 0x00)\n      dup2\n      sload\n      dup2\n      0xff\n      mul\n      not\n      and\n      swap1\n      dup4\n      iszero\n      iszero\n      mul\n      or\n      swap1\n      sstore\n      pop\n      0x20\n      dup3\n      add\n      mload\n      dup2\n      0x00\n      add\n      exp(0x0100, 0x01)\n      dup2\n      sload\n      dup2\n      0xff\n      mul\n      not\n      and\n      swap1\n      dup4\n      iszero\n      iszero\n      mul\n      or\n      swap1\n      sstore\n      pop\n      0x40\n      dup3\n      add\n      mload\n      dup2\n      0x01\n      add\n      swap1\n      dup1\n      mload\n      swap1\n      0x20\n      add\n      swap1\n      tag_210\n      swap3\n      swap2\n      swap1\n      tag_211\n      jump\t// in\n    tag_210:\n      pop\n      swap1\n      pop\n      pop\n        /* \"contracts/periphery/VRFManagerChainlink.sol\":2992:3002  requestIds */\n      0x08\n        /* \"contracts/periphery/VRFManagerChainlink.sol\":3008:3017  requestId */\n      dup3\n        /* \"contracts/periphery/VRFManagerChainlink.sol\":2992:3018  requestIds.push(requestId) */\n      swap1\n      dup1\n      0x01\n      dup2\n      sload\n      add\n      dup1\n      dup3\n      sstore\n      dup1\n      swap2\n      pop\n      pop\n      0x01\n      swap1\n      sub\n      swap1\n      0x00\n      mstore\n      keccak256(0x00, 0x20)\n      add\n      0x00\n      swap1\n      swap2\n      swap1\n      swap2\n      swap1\n      swap2\n      pop\n      sstore\n        /* \"contracts/periphery/VRFManagerChainlink.sol\":3044:3053  requestId */\n      dup2\n        /* \"contracts/periphery/VRFManagerChainlink.sol\":3028:3041  lastRequestId */\n      0x09\n        /* \"contracts/periphery/VRFManagerChainlink.sol\":3028:3053  lastRequestId = requestId */\n      dup2\n      swap1\n      sstore\n      pop\n        /* \"contracts/periphery/VRFManagerChainlink.sol\":3068:3102  RequestSent(requestId, _requester) */\n      0x48b98ad7a8a8dbe21cc82bf98710ad4d2cdd949ccac393692e4d9a1722c162c7\n        /* \"contracts/periphery/VRFManagerChainlink.sol\":3080:3089  requestId */\n      dup3\n        /* \"contracts/periphery/VRFManagerChainlink.sol\":3091:3101  _requester */\n      dup5\n        /* \"contracts/periphery/VRFManagerChainlink.sol\":3068:3102  RequestSent(requestId, _requester) */\n      mload(0x40)\n      tag_213\n      swap3\n      swap2\n      swap1\n      tag_214\n      jump\t// in\n    tag_213:\n      mload(0x40)\n      dup1\n      swap2\n      sub\n      swap1\n      log1\n        /* \"contracts/periphery/VRFManagerChainlink.sol\":2472:3135  function requestRandomWords(address _requester) external onlyRole(REQUESTER_ROLE) returns(uint256 requestId){... */\n      pop\n      swap2\n      swap1\n      pop\n      jump\t// out\n        /* \"contracts/periphery/VRFManagerChainlink.sol\":4410:4639  function topUpSubscription(uint256 amount) external onlyRole(DEFAULT_ADMIN_ROLE) {... */\n    tag_102:\n        /* \"@openzeppelin/contracts/access/AccessControl.sol\":2232:2236  0x00 */\n      0x00\n        /* \"contracts/periphery/VRFManagerChainlink.sol\":4471:4489  DEFAULT_ADMIN_ROLE */\n      dup1\n      shl\n        /* \"@openzeppelin/contracts/access/AccessControl.sol\":2464:2480  _checkRole(role) */\n      tag_216\n        /* \"@openzeppelin/contracts/access/AccessControl.sol\":2475:2479  role */\n      dup2\n        /* \"@openzeppelin/contracts/access/AccessControl.sol\":2464:2474  _checkRole */\n      tag_150\n        /* \"@openzeppelin/contracts/access/AccessControl.sol\":2464:2480  _checkRole(role) */\n      jump\t// in\n    tag_216:\n        /* \"contracts/periphery/VRFManagerChainlink.sol\":4501:4510  LINKTOKEN */\n      0x02\n      0x00\n      swap1\n      sload\n      swap1\n      0x0100\n      exp\n      swap1\n      div\n      0xffffffffffffffffffffffffffffffffffffffff\n      and\n        /* \"contracts/periphery/VRFManagerChainlink.sol\":4501:4526  LINKTOKEN.transferAndCall */\n      0xffffffffffffffffffffffffffffffffffffffff\n      and\n      0x4000aea0\n        /* \"contracts/periphery/VRFManagerChainlink.sol\":4548:4559  COORDINATOR */\n      0x01\n      0x00\n      swap1\n      sload\n      swap1\n      0x0100\n      exp\n      swap1\n      div\n      0xffffffffffffffffffffffffffffffffffffffff\n      and\n        /* \"contracts/periphery/VRFManagerChainlink.sol\":4574:4580  amount */\n      dup5\n        /* \"contracts/periphery/VRFManagerChainlink.sol\":4605:4621  s_subscriptionId */\n      0x07\n      0x06\n      swap1\n      sload\n      swap1\n      0x0100\n      exp\n      swap1\n      div\n      0xffffffffffffffff\n      and\n        /* \"contracts/periphery/VRFManagerChainlink.sol\":4594:4622  abi.encode(s_subscriptionId) */\n      add(0x20, mload(0x40))\n      tag_218\n      swap2\n      swap1\n      tag_110\n      jump\t// in\n    tag_218:\n      mload(0x40)\n      0x20\n      dup2\n      dup4\n      sub\n      sub\n      dup2\n      mstore\n      swap1\n      0x40\n      mstore\n        /* \"contracts/periphery/VRFManagerChainlink.sol\":4501:4632  LINKTOKEN.transferAndCall(... */\n      mload(0x40)\n      dup5\n      0xffffffff\n      and\n      0xe0\n      shl\n      dup2\n      mstore\n      0x04\n      add\n      tag_219\n      swap4\n      swap3\n      swap2\n      swap1\n      tag_220\n      jump\t// in\n    tag_219:\n      0x20\n      mload(0x40)\n      dup1\n      dup4\n      sub\n      dup2\n      0x00\n      dup8\n      gas\n      call\n      iszero\n      dup1\n      iszero\n      tag_222\n      jumpi\n      returndatasize\n      0x00\n      dup1\n      returndatacopy\n      revert(0x00, returndatasize)\n    tag_222:\n      pop\n      pop\n      pop\n      pop\n      mload(0x40)\n      returndatasize\n      not(0x1f)\n      0x1f\n      dup3\n      add\n      and\n      dup3\n      add\n      dup1\n      0x40\n      mstore\n      pop\n      dup2\n      add\n      swap1\n      tag_223\n      swap2\n      swap1\n      tag_157\n      jump\t// in\n    tag_223:\n      pop\n        /* \"contracts/periphery/VRFManagerChainlink.sol\":4410:4639  function topUpSubscription(uint256 amount) external onlyRole(DEFAULT_ADMIN_ROLE) {... */\n      pop\n      pop\n      jump\t// out\n        /* \"contracts/periphery/VRFManagerChainlink.sol\":1479:1506  uint256[] public requestIds */\n    tag_105:\n      0x08\n      dup2\n      dup2\n      sload\n      dup2\n      lt\n      tag_224\n      jumpi\n      0x00\n      dup1\n      revert\n    tag_224:\n      swap1\n      0x00\n      mstore\n      keccak256(0x00, 0x20)\n      add\n      0x00\n      swap2\n      pop\n      swap1\n      pop\n      sload\n      dup2\n      jump\t// out\n        /* \"contracts/periphery/VRFManagerChainlink.sol\":1443:1473  uint64 public s_subscriptionId */\n    tag_108:\n      0x07\n      0x06\n      swap1\n      sload\n      swap1\n      0x0100\n      exp\n      swap1\n      div\n      0xffffffffffffffff\n      and\n      dup2\n      jump\t// out\n        /* \"@openzeppelin/contracts/access/AccessControl.sol\":2854:2990  function hasRole(bytes32 role, address account) public view virtual returns (bool) {... */\n    tag_113:\n        /* \"@openzeppelin/contracts/access/AccessControl.sol\":2931:2935  bool */\n      0x00\n        /* \"@openzeppelin/contracts/access/AccessControl.sol\":2954:2960  _roles */\n      dup1\n        /* \"@openzeppelin/contracts/access/AccessControl.sol\":2954:2966  _roles[role] */\n      0x00\n        /* \"@openzeppelin/contracts/access/AccessControl.sol\":2961:2965  role */\n      dup5\n        /* \"@openzeppelin/contracts/access/AccessControl.sol\":2954:2966  _roles[role] */\n      dup2\n      mstore\n      0x20\n      add\n      swap1\n      dup2\n      mstore\n      0x20\n      add\n      0x00\n      keccak256\n        /* \"@openzeppelin/contracts/access/AccessControl.sol\":2954:2974  _roles[role].hasRole */\n      0x00\n      add\n        /* \"@openzeppelin/contracts/access/AccessControl.sol\":2954:2983  _roles[role].hasRole[account] */\n      0x00\n        /* \"@openzeppelin/contracts/access/AccessControl.sol\":2975:2982  account */\n      dup4\n        /* \"@openzeppelin/contracts/access/AccessControl.sol\":2954:2983  _roles[role].hasRole[account] */\n      0xffffffffffffffffffffffffffffffffffffffff\n      and\n      0xffffffffffffffffffffffffffffffffffffffff\n      and\n      dup2\n      mstore\n      0x20\n      add\n      swap1\n      dup2\n      mstore\n      0x20\n      add\n      0x00\n      keccak256\n      0x00\n      swap1\n      sload\n      swap1\n      0x0100\n      exp\n      swap1\n      div\n      0xff\n      and\n        /* \"@openzeppelin/contracts/access/AccessControl.sol\":2947:2983  return _roles[role].hasRole[account] */\n      swap1\n      pop\n        /* \"@openzeppelin/contracts/access/AccessControl.sol\":2854:2990  function hasRole(bytes32 role, address account) public view virtual returns (bool) {... */\n      swap3\n      swap2\n      pop\n      pop\n      jump\t// out\n        /* \"contracts/periphery/VRFManagerChainlink.sol\":5151:5438  function cancelSubscription(address receivingWallet) external onlyRole(DEFAULT_ADMIN_ROLE) {... */\n    tag_117:\n        /* \"@openzeppelin/contracts/access/AccessControl.sol\":2232:2236  0x00 */\n      0x00\n        /* \"contracts/periphery/VRFManagerChainlink.sol\":5222:5240  DEFAULT_ADMIN_ROLE */\n      dup1\n      shl\n        /* \"@openzeppelin/contracts/access/AccessControl.sol\":2464:2480  _checkRole(role) */\n      tag_228\n        /* \"@openzeppelin/contracts/access/AccessControl.sol\":2475:2479  role */\n      dup2\n        /* \"@openzeppelin/contracts/access/AccessControl.sol\":2464:2474  _checkRole */\n      tag_150\n        /* \"@openzeppelin/contracts/access/AccessControl.sol\":2464:2480  _checkRole(role) */\n      jump\t// in\n    tag_228:\n        /* \"contracts/periphery/VRFManagerChainlink.sol\":5336:5347  COORDINATOR */\n      0x01\n      0x00\n      swap1\n      sload\n      swap1\n      0x0100\n      exp\n      swap1\n      div\n      0xffffffffffffffffffffffffffffffffffffffff\n      and\n        /* \"contracts/periphery/VRFManagerChainlink.sol\":5336:5366  COORDINATOR.cancelSubscription */\n      0xffffffffffffffffffffffffffffffffffffffff\n      and\n      0xd7ae1d30\n        /* \"contracts/periphery/VRFManagerChainlink.sol\":5367:5383  s_subscriptionId */\n      0x07\n      0x06\n      swap1\n      sload\n      swap1\n      0x0100\n      exp\n      swap1\n      div\n      0xffffffffffffffff\n      and\n        /* \"contracts/periphery/VRFManagerChainlink.sol\":5385:5400  receivingWallet */\n      dup5\n        /* \"contracts/periphery/VRFManagerChainlink.sol\":5336:5401  COORDINATOR.cancelSubscription(s_subscriptionId, receivingWallet) */\n      mload(0x40)\n      dup4\n      0xffffffff\n      and\n      0xe0\n      shl\n      dup2\n      mstore\n      0x04\n      add\n      tag_230\n      swap3\n      swap2\n      swap1\n      tag_166\n      jump\t// in\n    tag_230:\n      0x00\n      mload(0x40)\n      dup1\n      dup4\n      sub\n      dup2\n      0x00\n      dup8\n      dup1\n      extcodesize\n      iszero\n      dup1\n      iszero\n      tag_231\n      jumpi\n      0x00\n      dup1\n      revert\n    tag_231:\n      pop\n      gas\n      call\n      iszero\n      dup1\n      iszero\n      tag_233\n      jumpi\n      returndatasize\n      0x00\n      dup1\n      returndatacopy\n      revert(0x00, returndatasize)\n    tag_233:\n      pop\n      pop\n      pop\n      pop\n        /* \"contracts/periphery/VRFManagerChainlink.sol\":5430:5431  0 */\n      0x00\n        /* \"contracts/periphery/VRFManagerChainlink.sol\":5411:5427  s_subscriptionId */\n      0x07\n      0x06\n        /* \"contracts/periphery/VRFManagerChainlink.sol\":5411:5431  s_subscriptionId = 0 */\n      0x0100\n      exp\n      dup2\n      sload\n      dup2\n      0xffffffffffffffff\n      mul\n      not\n      and\n      swap1\n      dup4\n      0xffffffffffffffff\n      and\n      mul\n      or\n      swap1\n      sstore\n      pop\n        /* \"contracts/periphery/VRFManagerChainlink.sol\":5151:5438  function cancelSubscription(address receivingWallet) external onlyRole(DEFAULT_ADMIN_ROLE) {... */\n      pop\n      pop\n      jump\t// out\n        /* \"contracts/periphery/VRFManagerChainlink.sol\":1240:1291  mapping(uint256 => RequestStatus) public s_requests */\n    tag_120:\n      mstore(0x20, 0x04)\n      dup1\n      0x00\n      mstore\n      keccak256(0x00, 0x40)\n      0x00\n      swap2\n      pop\n      swap1\n      pop\n      dup1\n      0x00\n      add\n      0x00\n      swap1\n      sload\n      swap1\n      0x0100\n      exp\n      swap1\n      div\n      0xff\n      and\n      swap1\n      dup1\n      0x00\n      add\n      0x01\n      swap1\n      sload\n      swap1\n      0x0100\n      exp\n      swap1\n      div\n      0xff\n      and\n      swap1\n      pop\n      dup3\n      jump\t// out\n        /* \"@openzeppelin/contracts/access/AccessControl.sol\":2187:2236  bytes32 public constant DEFAULT_ADMIN_ROLE = 0x00 */\n    tag_124:\n        /* \"@openzeppelin/contracts/access/AccessControl.sol\":2232:2236  0x00 */\n      0x00\n        /* \"@openzeppelin/contracts/access/AccessControl.sol\":2187:2236  bytes32 public constant DEFAULT_ADMIN_ROLE = 0x00 */\n      dup1\n      shl\n      dup2\n      jump\t// out\n        /* \"contracts/periphery/VRFManagerChainlink.sol\":1303:1332  address public vrfCoordinator */\n    tag_127:\n      0x05\n      0x00\n      swap1\n      sload\n      swap1\n      0x0100\n      exp\n      swap1\n      div\n      0xffffffffffffffffffffffffffffffffffffffff\n      and\n      dup2\n      jump\t// out\n        /* \"contracts/periphery/VRFManagerChainlink.sol\":1366:1400  uint16 public requestConfirmations */\n    tag_131:\n      0x07\n      0x00\n      swap1\n      sload\n      swap1\n      0x0100\n      exp\n      swap1\n      div\n      0xffff\n      and\n      dup2\n      jump\t// out\n        /* \"contracts/periphery/VRFManagerChainlink.sol\":2213:2364  function setDrawingContract(address _contract) external onlyRole(DEFAULT_ADMIN_ROLE) {... */\n    tag_136:\n        /* \"@openzeppelin/contracts/access/AccessControl.sol\":2232:2236  0x00 */\n      0x00\n        /* \"contracts/periphery/VRFManagerChainlink.sol\":2278:2296  DEFAULT_ADMIN_ROLE */\n      dup1\n      shl\n        /* \"@openzeppelin/contracts/access/AccessControl.sol\":2464:2480  _checkRole(role) */\n      tag_235\n        /* \"@openzeppelin/contracts/access/AccessControl.sol\":2475:2479  role */\n      dup2\n        /* \"@openzeppelin/contracts/access/AccessControl.sol\":2464:2474  _checkRole */\n      tag_150\n        /* \"@openzeppelin/contracts/access/AccessControl.sol\":2464:2480  _checkRole(role) */\n      jump\t// in\n    tag_235:\n        /* \"contracts/periphery/VRFManagerChainlink.sol\":2347:2356  _contract */\n      dup2\n        /* \"contracts/periphery/VRFManagerChainlink.sol\":2308:2323  drawingContract */\n      0x03\n      0x00\n        /* \"contracts/periphery/VRFManagerChainlink.sol\":2308:2357  drawingContract = IHierarchicalDrawing(_contract) */\n      0x0100\n      exp\n      dup2\n      sload\n      dup2\n      0xffffffffffffffffffffffffffffffffffffffff\n      mul\n      not\n      and\n      swap1\n      dup4\n      0xffffffffffffffffffffffffffffffffffffffff\n      and\n      mul\n      or\n      swap1\n      sstore\n      pop\n        /* \"contracts/periphery/VRFManagerChainlink.sol\":2213:2364  function setDrawingContract(address _contract) external onlyRole(DEFAULT_ADMIN_ROLE) {... */\n      pop\n      pop\n      jump\t// out\n        /* \"@openzeppelin/contracts/access/AccessControl.sol\":4642:4780  function revokeRole(bytes32 role, address account) public virtual onlyRole(getRoleAdmin(role)) {... */\n    tag_139:\n        /* \"@openzeppelin/contracts/access/AccessControl.sol\":4717:4735  getRoleAdmin(role) */\n      tag_237\n        /* \"@openzeppelin/contracts/access/AccessControl.sol\":4730:4734  role */\n      dup3\n        /* \"@openzeppelin/contracts/access/AccessControl.sol\":4717:4729  getRoleAdmin */\n      tag_66\n        /* \"@openzeppelin/contracts/access/AccessControl.sol\":4717:4735  getRoleAdmin(role) */\n      jump\t// in\n    tag_237:\n        /* \"@openzeppelin/contracts/access/AccessControl.sol\":2464:2480  _checkRole(role) */\n      tag_239\n        /* \"@openzeppelin/contracts/access/AccessControl.sol\":2475:2479  role */\n      dup2\n        /* \"@openzeppelin/contracts/access/AccessControl.sol\":2464:2474  _checkRole */\n      tag_150\n        /* \"@openzeppelin/contracts/access/AccessControl.sol\":2464:2480  _checkRole(role) */\n      jump\t// in\n    tag_239:\n        /* \"@openzeppelin/contracts/access/AccessControl.sol\":4747:4773  _revokeRole(role, account) */\n      tag_241\n        /* \"@openzeppelin/contracts/access/AccessControl.sol\":4759:4763  role */\n      dup4\n        /* \"@openzeppelin/contracts/access/AccessControl.sol\":4765:4772  account */\n      dup4\n        /* \"@openzeppelin/contracts/access/AccessControl.sol\":4747:4758  _revokeRole */\n      tag_196\n        /* \"@openzeppelin/contracts/access/AccessControl.sol\":4747:4773  _revokeRole(role, account) */\n      jump\t// in\n    tag_241:\n      pop\n        /* \"@openzeppelin/contracts/access/AccessControl.sol\":4642:4780  function revokeRole(bytes32 role, address account) public virtual onlyRole(getRoleAdmin(role)) {... */\n      pop\n      pop\n      pop\n      jump\t// out\n        /* \"contracts/periphery/VRFManagerChainlink.sol\":3677:4012  function getRequestStatus(... */\n    tag_142:\n        /* \"contracts/periphery/VRFManagerChainlink.sol\":3760:3774  bool fulfilled */\n      0x00\n        /* \"contracts/periphery/VRFManagerChainlink.sol\":3776:3804  uint256[] memory randomWords */\n      0x60\n        /* \"contracts/periphery/VRFManagerChainlink.sol\":3820:3830  s_requests */\n      0x04\n        /* \"contracts/periphery/VRFManagerChainlink.sol\":3820:3842  s_requests[_requestId] */\n      0x00\n        /* \"contracts/periphery/VRFManagerChainlink.sol\":3831:3841  _requestId */\n      dup5\n        /* \"contracts/periphery/VRFManagerChainlink.sol\":3820:3842  s_requests[_requestId] */\n      dup2\n      mstore\n      0x20\n      add\n      swap1\n      dup2\n      mstore\n      0x20\n      add\n      0x00\n      keccak256\n        /* \"contracts/periphery/VRFManagerChainlink.sol\":3820:3849  s_requests[_requestId].exists */\n      0x00\n      add\n      0x01\n      swap1\n      sload\n      swap1\n      0x0100\n      exp\n      swap1\n      div\n      0xff\n      and\n        /* \"contracts/periphery/VRFManagerChainlink.sol\":3816:3885  if(!s_requests[_requestId].exists) revert RequestNotExist(_requestId) */\n      tag_243\n      jumpi\n        /* \"contracts/periphery/VRFManagerChainlink.sol\":3874:3884  _requestId */\n      dup3\n        /* \"contracts/periphery/VRFManagerChainlink.sol\":3858:3885  RequestNotExist(_requestId) */\n      mload(0x40)\n      0x9a1cfbfd00000000000000000000000000000000000000000000000000000000\n      dup2\n      mstore\n      0x04\n      add\n      tag_244\n      swap2\n      swap1\n      tag_98\n      jump\t// in\n    tag_244:\n      mload(0x40)\n      dup1\n      swap2\n      sub\n      swap1\n      revert\n        /* \"contracts/periphery/VRFManagerChainlink.sol\":3816:3885  if(!s_requests[_requestId].exists) revert RequestNotExist(_requestId) */\n    tag_243:\n        /* \"contracts/periphery/VRFManagerChainlink.sol\":3895:3923  RequestStatus memory request */\n      0x00\n        /* \"contracts/periphery/VRFManagerChainlink.sol\":3926:3936  s_requests */\n      0x04\n        /* \"contracts/periphery/VRFManagerChainlink.sol\":3926:3948  s_requests[_requestId] */\n      0x00\n        /* \"contracts/periphery/VRFManagerChainlink.sol\":3937:3947  _requestId */\n      dup6\n        /* \"contracts/periphery/VRFManagerChainlink.sol\":3926:3948  s_requests[_requestId] */\n      dup2\n      mstore\n      0x20\n      add\n      swap1\n      dup2\n      mstore\n      0x20\n      add\n      0x00\n      keccak256\n        /* \"contracts/periphery/VRFManagerChainlink.sol\":3895:3948  RequestStatus memory request = s_requests[_requestId] */\n      mload(0x40)\n      dup1\n      0x60\n      add\n      0x40\n      mstore\n      swap1\n      dup2\n      0x00\n      dup3\n      add\n      0x00\n      swap1\n      sload\n      swap1\n      0x0100\n      exp\n      swap1\n      div\n      0xff\n      and\n      iszero\n      iszero\n      iszero\n      iszero\n      dup2\n      mstore\n      0x20\n      add\n      0x00\n      dup3\n      add\n      0x01\n      swap1\n      sload\n      swap1\n      0x0100\n      exp\n      swap1\n      div\n      0xff\n      and\n      iszero\n      iszero\n      iszero\n      iszero\n      dup2\n      mstore\n      0x20\n      add\n      0x01\n      dup3\n      add\n      dup1\n      sload\n      dup1\n      0x20\n      mul\n      0x20\n      add\n      mload(0x40)\n      swap1\n      dup2\n      add\n      0x40\n      mstore\n      dup1\n      swap3\n      swap2\n      swap1\n      dup2\n      dup2\n      mstore\n      0x20\n      add\n      dup3\n      dup1\n      sload\n      dup1\n      iszero\n      tag_245\n      jumpi\n      0x20\n      mul\n      dup3\n      add\n      swap2\n      swap1\n      0x00\n      mstore\n      keccak256(0x00, 0x20)\n      swap1\n    tag_246:\n      dup2\n      sload\n      dup2\n      mstore\n      0x20\n      add\n      swap1\n      0x01\n      add\n      swap1\n      dup1\n      dup4\n      gt\n      tag_246\n      jumpi\n    tag_245:\n      pop\n      pop\n      pop\n      pop\n      pop\n      dup2\n      mstore\n      pop\n      pop\n      swap1\n      pop\n        /* \"contracts/periphery/VRFManagerChainlink.sol\":3966:3973  request */\n      dup1\n        /* \"contracts/periphery/VRFManagerChainlink.sol\":3966:3983  request.fulfilled */\n      0x00\n      add\n      mload\n        /* \"contracts/periphery/VRFManagerChainlink.sol\":3985:3992  request */\n      dup2\n        /* \"contracts/periphery/VRFManagerChainlink.sol\":3985:4004  request.randomWords */\n      0x40\n      add\n      mload\n        /* \"contracts/periphery/VRFManagerChainlink.sol\":3958:4005  return (request.fulfilled, request.randomWords) */\n      swap3\n      pop\n      swap3\n      pop\n      pop\n        /* \"contracts/periphery/VRFManagerChainlink.sol\":3677:4012  function getRequestStatus(... */\n      swap2\n      pop\n      swap2\n      jump\t// out\n        /* \"contracts/periphery/VRFManagerChainlink.sol\":1512:1540  uint256 public lastRequestId */\n    tag_146:\n      sload(0x09)\n      dup2\n      jump\t// out\n        /* \"@openzeppelin/contracts/access/AccessControl.sol\":3199:3302  function _checkRole(bytes32 role) internal view virtual {... */\n    tag_150:\n        /* \"@openzeppelin/contracts/access/AccessControl.sol\":3265:3295  _checkRole(role, _msgSender()) */\n      tag_248\n        /* \"@openzeppelin/contracts/access/AccessControl.sol\":3276:3280  role */\n      dup2\n        /* \"@openzeppelin/contracts/access/AccessControl.sol\":3282:3294  _msgSender() */\n      tag_249\n        /* \"@openzeppelin/contracts/access/AccessControl.sol\":3282:3292  _msgSender */\n      tag_193\n        /* \"@openzeppelin/contracts/access/AccessControl.sol\":3282:3294  _msgSender() */\n      jump\t// in\n    tag_249:\n        /* \"@openzeppelin/contracts/access/AccessControl.sol\":3265:3275  _checkRole */\n      tag_250\n        /* \"@openzeppelin/contracts/access/AccessControl.sol\":3265:3295  _checkRole(role, _msgSender()) */\n      jump\t// in\n    tag_248:\n        /* \"@openzeppelin/contracts/access/AccessControl.sol\":3199:3302  function _checkRole(bytes32 role) internal view virtual {... */\n      pop\n      jump\t// out\n        /* \"@openzeppelin/contracts/utils/introspection/ERC165.sol\":762:908  function supportsInterface(bytes4 interfaceId) public view virtual returns (bool) {... */\n    tag_161:\n        /* \"@openzeppelin/contracts/utils/introspection/ERC165.sol\":838:842  bool */\n      0x00\n        /* \"@openzeppelin/contracts/utils/introspection/ERC165.sol\":876:901  type(IERC165).interfaceId */\n      0x01ffc9a700000000000000000000000000000000000000000000000000000000\n        /* \"@openzeppelin/contracts/utils/introspection/ERC165.sol\":861:901  interfaceId == type(IERC165).interfaceId */\n      not(0xffffffffffffffffffffffffffffffffffffffffffffffffffffffff)\n      and\n        /* \"@openzeppelin/contracts/utils/introspection/ERC165.sol\":861:872  interfaceId */\n      dup3\n        /* \"@openzeppelin/contracts/utils/introspection/ERC165.sol\":861:901  interfaceId == type(IERC165).interfaceId */\n      not(0xffffffffffffffffffffffffffffffffffffffffffffffffffffffff)\n      and\n      eq\n        /* \"@openzeppelin/contracts/utils/introspection/ERC165.sol\":854:901  return interfaceId == type(IERC165).interfaceId */\n      swap1\n      pop\n        /* \"@openzeppelin/contracts/utils/introspection/ERC165.sol\":762:908  function supportsInterface(bytes4 interfaceId) public view virtual returns (bool) {... */\n      swap2\n      swap1\n      pop\n      jump\t// out\n        /* \"@openzeppelin/contracts/access/AccessControl.sol\":6179:6495  function _grantRole(bytes32 role, address account) internal virtual returns (bool) {... */\n    tag_178:\n        /* \"@openzeppelin/contracts/access/AccessControl.sol\":6256:6260  bool */\n      0x00\n        /* \"@openzeppelin/contracts/access/AccessControl.sol\":6277:6299  hasRole(role, account) */\n      tag_253\n        /* \"@openzeppelin/contracts/access/AccessControl.sol\":6285:6289  role */\n      dup4\n        /* \"@openzeppelin/contracts/access/AccessControl.sol\":6291:6298  account */\n      dup4\n        /* \"@openzeppelin/contracts/access/AccessControl.sol\":6277:6284  hasRole */\n      tag_113\n        /* \"@openzeppelin/contracts/access/AccessControl.sol\":6277:6299  hasRole(role, account) */\n      jump\t// in\n    tag_253:\n        /* \"@openzeppelin/contracts/access/AccessControl.sol\":6272:6489  if (!hasRole(role, account)) {... */\n      tag_254\n      jumpi\n        /* \"@openzeppelin/contracts/access/AccessControl.sol\":6347:6351  true */\n      0x01\n        /* \"@openzeppelin/contracts/access/AccessControl.sol\":6315:6321  _roles */\n      0x00\n        /* \"@openzeppelin/contracts/access/AccessControl.sol\":6315:6327  _roles[role] */\n      dup1\n        /* \"@openzeppelin/contracts/access/AccessControl.sol\":6322:6326  role */\n      dup6\n        /* \"@openzeppelin/contracts/access/AccessControl.sol\":6315:6327  _roles[role] */\n      dup2\n      mstore\n      0x20\n      add\n      swap1\n      dup2\n      mstore\n      0x20\n      add\n      0x00\n      keccak256\n        /* \"@openzeppelin/contracts/access/AccessControl.sol\":6315:6335  _roles[role].hasRole */\n      0x00\n      add\n        /* \"@openzeppelin/contracts/access/AccessControl.sol\":6315:6344  _roles[role].hasRole[account] */\n      0x00\n        /* \"@openzeppelin/contracts/access/AccessControl.sol\":6336:6343  account */\n      dup5\n        /* \"@openzeppelin/contracts/access/AccessControl.sol\":6315:6344  _roles[role].hasRole[account] */\n      0xffffffffffffffffffffffffffffffffffffffff\n      and\n      0xffffffffffffffffffffffffffffffffffffffff\n      and\n      dup2\n      mstore\n      0x20\n      add\n      swap1\n      dup2\n      mstore\n      0x20\n      add\n      0x00\n      keccak256\n      0x00\n        /* \"@openzeppelin/contracts/access/AccessControl.sol\":6315:6351  _roles[role].hasRole[account] = true */\n      0x0100\n      exp\n      dup2\n      sload\n      dup2\n      0xff\n      mul\n      not\n      and\n      swap1\n      dup4\n      iszero\n      iszero\n      mul\n      or\n      swap1\n      sstore\n      pop\n        /* \"@openzeppelin/contracts/access/AccessControl.sol\":6397:6409  _msgSender() */\n      tag_255\n        /* \"@openzeppelin/contracts/access/AccessControl.sol\":6397:6407  _msgSender */\n      tag_193\n        /* \"@openzeppelin/contracts/access/AccessControl.sol\":6397:6409  _msgSender() */\n      jump\t// in\n    tag_255:\n        /* \"@openzeppelin/contracts/access/AccessControl.sol\":6370:6410  RoleGranted(role, account, _msgSender()) */\n      0xffffffffffffffffffffffffffffffffffffffff\n      and\n        /* \"@openzeppelin/contracts/access/AccessControl.sol\":6388:6395  account */\n      dup3\n        /* \"@openzeppelin/contracts/access/AccessControl.sol\":6370:6410  RoleGranted(role, account, _msgSender()) */\n      0xffffffffffffffffffffffffffffffffffffffff\n      and\n        /* \"@openzeppelin/contracts/access/AccessControl.sol\":6382:6386  role */\n      dup5\n        /* \"@openzeppelin/contracts/access/AccessControl.sol\":6370:6410  RoleGranted(role, account, _msgSender()) */\n      0x2f8788117e7eff1d82e926ec794901d17c78024a50270940304540a733656f0d\n      mload(0x40)\n      mload(0x40)\n      dup1\n      swap2\n      sub\n      swap1\n      log4\n        /* \"@openzeppelin/contracts/access/AccessControl.sol\":6431:6435  true */\n      0x01\n        /* \"@openzeppelin/contracts/access/AccessControl.sol\":6424:6435  return true */\n      swap1\n      pop\n      jump(tag_252)\n        /* \"@openzeppelin/contracts/access/AccessControl.sol\":6272:6489  if (!hasRole(role, account)) {... */\n    tag_254:\n        /* \"@openzeppelin/contracts/access/AccessControl.sol\":6473:6478  false */\n      0x00\n        /* \"@openzeppelin/contracts/access/AccessControl.sol\":6466:6478  return false */\n      swap1\n      pop\n        /* \"@openzeppelin/contracts/access/AccessControl.sol\":6179:6495  function _grantRole(bytes32 role, address account) internal virtual returns (bool) {... */\n    tag_252:\n      swap3\n      swap2\n      pop\n      pop\n      jump\t// out\n        /* \"contracts/periphery/VRFManagerChainlink.sol\":3213:3671  function fulfillRandomWords(... */\n    tag_184:\n        /* \"contracts/periphery/VRFManagerChainlink.sol\":3346:3356  s_requests */\n      0x04\n        /* \"contracts/periphery/VRFManagerChainlink.sol\":3346:3368  s_requests[_requestId] */\n      0x00\n        /* \"contracts/periphery/VRFManagerChainlink.sol\":3357:3367  _requestId */\n      dup4\n        /* \"contracts/periphery/VRFManagerChainlink.sol\":3346:3368  s_requests[_requestId] */\n      dup2\n      mstore\n      0x20\n      add\n      swap1\n      dup2\n      mstore\n      0x20\n      add\n      0x00\n      keccak256\n        /* \"contracts/periphery/VRFManagerChainlink.sol\":3346:3375  s_requests[_requestId].exists */\n      0x00\n      add\n      0x01\n      swap1\n      sload\n      swap1\n      0x0100\n      exp\n      swap1\n      div\n      0xff\n      and\n        /* \"contracts/periphery/VRFManagerChainlink.sol\":3342:3411  if(!s_requests[_requestId].exists) revert RequestNotExist(_requestId) */\n      tag_258\n      jumpi\n        /* \"contracts/periphery/VRFManagerChainlink.sol\":3400:3410  _requestId */\n      dup2\n        /* \"contracts/periphery/VRFManagerChainlink.sol\":3384:3411  RequestNotExist(_requestId) */\n      mload(0x40)\n      0x9a1cfbfd00000000000000000000000000000000000000000000000000000000\n      dup2\n      mstore\n      0x04\n      add\n      tag_259\n      swap2\n      swap1\n      tag_98\n      jump\t// in\n    tag_259:\n      mload(0x40)\n      dup1\n      swap2\n      sub\n      swap1\n      revert\n        /* \"contracts/periphery/VRFManagerChainlink.sol\":3342:3411  if(!s_requests[_requestId].exists) revert RequestNotExist(_requestId) */\n    tag_258:\n        /* \"contracts/periphery/VRFManagerChainlink.sol\":3465:3469  true */\n      0x01\n        /* \"contracts/periphery/VRFManagerChainlink.sol\":3430:3440  s_requests */\n      0x04\n        /* \"contracts/periphery/VRFManagerChainlink.sol\":3430:3452  s_requests[_requestId] */\n      0x00\n        /* \"contracts/periphery/VRFManagerChainlink.sol\":3441:3451  _requestId */\n      dup5\n        /* \"contracts/periphery/VRFManagerChainlink.sol\":3430:3452  s_requests[_requestId] */\n      dup2\n      mstore\n      0x20\n      add\n      swap1\n      dup2\n      mstore\n      0x20\n      add\n      0x00\n      keccak256\n        /* \"contracts/periphery/VRFManagerChainlink.sol\":3430:3462  s_requests[_requestId].fulfilled */\n      0x00\n      add\n      0x00\n        /* \"contracts/periphery/VRFManagerChainlink.sol\":3430:3469  s_requests[_requestId].fulfilled = true */\n      0x0100\n      exp\n      dup2\n      sload\n      dup2\n      0xff\n      mul\n      not\n      and\n      swap1\n      dup4\n      iszero\n      iszero\n      mul\n      or\n      swap1\n      sstore\n      pop\n        /* \"contracts/periphery/VRFManagerChainlink.sol\":3516:3528  _randomWords */\n      dup1\n        /* \"contracts/periphery/VRFManagerChainlink.sol\":3479:3489  s_requests */\n      0x04\n        /* \"contracts/periphery/VRFManagerChainlink.sol\":3479:3501  s_requests[_requestId] */\n      0x00\n        /* \"contracts/periphery/VRFManagerChainlink.sol\":3490:3500  _requestId */\n      dup5\n        /* \"contracts/periphery/VRFManagerChainlink.sol\":3479:3501  s_requests[_requestId] */\n      dup2\n      mstore\n      0x20\n      add\n      swap1\n      dup2\n      mstore\n      0x20\n      add\n      0x00\n      keccak256\n        /* \"contracts/periphery/VRFManagerChainlink.sol\":3479:3513  s_requests[_requestId].randomWords */\n      0x01\n      add\n        /* \"contracts/periphery/VRFManagerChainlink.sol\":3479:3528  s_requests[_requestId].randomWords = _randomWords */\n      swap1\n      dup1\n      mload\n      swap1\n      0x20\n      add\n      swap1\n      tag_260\n      swap3\n      swap2\n      swap1\n      tag_211\n      jump\t// in\n    tag_260:\n      pop\n        /* \"contracts/periphery/VRFManagerChainlink.sol\":3547:3562  drawingContract */\n      0x03\n      0x00\n      swap1\n      sload\n      swap1\n      0x0100\n      exp\n      swap1\n      div\n      0xffffffffffffffffffffffffffffffffffffffff\n      and\n        /* \"contracts/periphery/VRFManagerChainlink.sol\":3547:3581  drawingContract.fulfillRandomWords */\n      0xffffffffffffffffffffffffffffffffffffffff\n      and\n      0x38ba4614\n        /* \"contracts/periphery/VRFManagerChainlink.sol\":3582:3592  _requestId */\n      dup4\n        /* \"contracts/periphery/VRFManagerChainlink.sol\":3594:3606  _randomWords */\n      dup4\n        /* \"contracts/periphery/VRFManagerChainlink.sol\":3547:3607  drawingContract.fulfillRandomWords(_requestId, _randomWords) */\n      mload(0x40)\n      dup4\n      0xffffffff\n      and\n      0xe0\n      shl\n      dup2\n      mstore\n      0x04\n      add\n      tag_261\n      swap3\n      swap2\n      swap1\n      tag_262\n      jump\t// in\n    tag_261:\n      0x00\n      mload(0x40)\n      dup1\n      dup4\n      sub\n      dup2\n      0x00\n      dup8\n      dup1\n      extcodesize\n      iszero\n      dup1\n      iszero\n      tag_263\n      jumpi\n      0x00\n      dup1\n      revert\n    tag_263:\n      pop\n      gas\n      call\n      iszero\n      dup1\n      iszero\n      tag_265\n      jumpi\n      returndatasize\n      0x00\n      dup1\n      returndatacopy\n      revert(0x00, returndatasize)\n    tag_265:\n      pop\n      pop\n      pop\n      pop\n        /* \"contracts/periphery/VRFManagerChainlink.sol\":3622:3664  RequestFulfilled(_requestId, _randomWords) */\n      0xfe2e2d779dba245964d4e3ef9b994be63856fd568bf7d3ca9e224755cb1bd54d\n        /* \"contracts/periphery/VRFManagerChainlink.sol\":3639:3649  _requestId */\n      dup3\n        /* \"contracts/periphery/VRFManagerChainlink.sol\":3651:3663  _randomWords */\n      dup3\n        /* \"contracts/periphery/VRFManagerChainlink.sol\":3622:3664  RequestFulfilled(_requestId, _randomWords) */\n      mload(0x40)\n      tag_266\n      swap3\n      swap2\n      swap1\n      tag_262\n      jump\t// in\n    tag_266:\n      mload(0x40)\n      dup1\n      swap2\n      sub\n      swap1\n      log1\n        /* \"contracts/periphery/VRFManagerChainlink.sol\":3213:3671  function fulfillRandomWords(... */\n      pop\n      pop\n      jump\t// out\n        /* \"@openzeppelin/contracts/utils/Context.sol\":656:752  function _msgSender() internal view virtual returns (address) {... */\n    tag_193:\n        /* \"@openzeppelin/contracts/utils/Context.sol\":709:716  address */\n      0x00\n        /* \"@openzeppelin/contracts/utils/Context.sol\":735:745  msg.sender */\n      caller\n        /* \"@openzeppelin/contracts/utils/Context.sol\":728:745  return msg.sender */\n      swap1\n      pop\n        /* \"@openzeppelin/contracts/utils/Context.sol\":656:752  function _msgSender() internal view virtual returns (address) {... */\n      swap1\n      jump\t// out\n        /* \"@openzeppelin/contracts/access/AccessControl.sol\":6730:7047  function _revokeRole(bytes32 role, address account) internal virtual returns (bool) {... */\n    tag_196:\n        /* \"@openzeppelin/contracts/access/AccessControl.sol\":6808:6812  bool */\n      0x00\n        /* \"@openzeppelin/contracts/access/AccessControl.sol\":6828:6850  hasRole(role, account) */\n      tag_269\n        /* \"@openzeppelin/contracts/access/AccessControl.sol\":6836:6840  role */\n      dup4\n        /* \"@openzeppelin/contracts/access/AccessControl.sol\":6842:6849  account */\n      dup4\n        /* \"@openzeppelin/contracts/access/AccessControl.sol\":6828:6835  hasRole */\n      tag_113\n        /* \"@openzeppelin/contracts/access/AccessControl.sol\":6828:6850  hasRole(role, account) */\n      jump\t// in\n    tag_269:\n        /* \"@openzeppelin/contracts/access/AccessControl.sol\":6824:7041  if (hasRole(role, account)) {... */\n      iszero\n      tag_270\n      jumpi\n        /* \"@openzeppelin/contracts/access/AccessControl.sol\":6898:6903  false */\n      0x00\n        /* \"@openzeppelin/contracts/access/AccessControl.sol\":6866:6872  _roles */\n      dup1\n        /* \"@openzeppelin/contracts/access/AccessControl.sol\":6866:6878  _roles[role] */\n      0x00\n        /* \"@openzeppelin/contracts/access/AccessControl.sol\":6873:6877  role */\n      dup6\n        /* \"@openzeppelin/contracts/access/AccessControl.sol\":6866:6878  _roles[role] */\n      dup2\n      mstore\n      0x20\n      add\n      swap1\n      dup2\n      mstore\n      0x20\n      add\n      0x00\n      keccak256\n        /* \"@openzeppelin/contracts/access/AccessControl.sol\":6866:6886  _roles[role].hasRole */\n      0x00\n      add\n        /* \"@openzeppelin/contracts/access/AccessControl.sol\":6866:6895  _roles[role].hasRole[account] */\n      0x00\n        /* \"@openzeppelin/contracts/access/AccessControl.sol\":6887:6894  account */\n      dup5\n        /* \"@openzeppelin/contracts/access/AccessControl.sol\":6866:6895  _roles[role].hasRole[account] */\n      0xffffffffffffffffffffffffffffffffffffffff\n      and\n      0xffffffffffffffffffffffffffffffffffffffff\n      and\n      dup2\n      mstore\n      0x20\n      add\n      swap1\n      dup2\n      mstore\n      0x20\n      add\n      0x00\n      keccak256\n      0x00\n        /* \"@openzeppelin/contracts/access/AccessControl.sol\":6866:6903  _roles[role].hasRole[account] = false */\n      0x0100\n      exp\n      dup2\n      sload\n      dup2\n      0xff\n      mul\n      not\n      and\n      swap1\n      dup4\n      iszero\n      iszero\n      mul\n      or\n      swap1\n      sstore\n      pop\n        /* \"@openzeppelin/contracts/access/AccessControl.sol\":6949:6961  _msgSender() */\n      tag_271\n        /* \"@openzeppelin/contracts/access/AccessControl.sol\":6949:6959  _msgSender */\n      tag_193\n        /* \"@openzeppelin/contracts/access/AccessControl.sol\":6949:6961  _msgSender() */\n      jump\t// in\n    tag_271:\n        /* \"@openzeppelin/contracts/access/AccessControl.sol\":6922:6962  RoleRevoked(role, account, _msgSender()) */\n      0xffffffffffffffffffffffffffffffffffffffff\n      and\n        /* \"@openzeppelin/contracts/access/AccessControl.sol\":6940:6947  account */\n      dup3\n        /* \"@openzeppelin/contracts/access/AccessControl.sol\":6922:6962  RoleRevoked(role, account, _msgSender()) */\n      0xffffffffffffffffffffffffffffffffffffffff\n      and\n        /* \"@openzeppelin/contracts/access/AccessControl.sol\":6934:6938  role */\n      dup5\n        /* \"@openzeppelin/contracts/access/AccessControl.sol\":6922:6962  RoleRevoked(role, account, _msgSender()) */\n      0xf6391f5c32d9c69d2a47ea670b442974b53935d1edc7fd64eb21e047a839171b\n      mload(0x40)\n      mload(0x40)\n      dup1\n      swap2\n      sub\n      swap1\n      log4\n        /* \"@openzeppelin/contracts/access/AccessControl.sol\":6983:6987  true */\n      0x01\n        /* \"@openzeppelin/contracts/access/AccessControl.sol\":6976:6987  return true */\n      swap1\n      pop\n      jump(tag_268)\n        /* \"@openzeppelin/contracts/access/AccessControl.sol\":6824:7041  if (hasRole(role, account)) {... */\n    tag_270:\n        /* \"@openzeppelin/contracts/access/AccessControl.sol\":7025:7030  false */\n      0x00\n        /* \"@openzeppelin/contracts/access/AccessControl.sol\":7018:7030  return false */\n      swap1\n      pop\n        /* \"@openzeppelin/contracts/access/AccessControl.sol\":6730:7047  function _revokeRole(bytes32 role, address account) internal virtual returns (bool) {... */\n    tag_268:\n      swap3\n      swap2\n      pop\n      pop\n      jump\t// out\n        /* \"@openzeppelin/contracts/access/AccessControl.sol\":3432:3629  function _checkRole(bytes32 role, address account) internal view virtual {... */\n    tag_250:\n        /* \"@openzeppelin/contracts/access/AccessControl.sol\":3520:3542  hasRole(role, account) */\n      tag_274\n        /* \"@openzeppelin/contracts/access/AccessControl.sol\":3528:3532  role */\n      dup3\n        /* \"@openzeppelin/contracts/access/AccessControl.sol\":3534:3541  account */\n      dup3\n        /* \"@openzeppelin/contracts/access/AccessControl.sol\":3520:3527  hasRole */\n      tag_113\n        /* \"@openzeppelin/contracts/access/AccessControl.sol\":3520:3542  hasRole(role, account) */\n      jump\t// in\n    tag_274:\n        /* \"@openzeppelin/contracts/access/AccessControl.sol\":3515:3623  if (!hasRole(role, account)) {... */\n      tag_275\n      jumpi\n        /* \"@openzeppelin/contracts/access/AccessControl.sol\":3598:3605  account */\n      dup1\n        /* \"@openzeppelin/contracts/access/AccessControl.sol\":3607:3611  role */\n      dup3\n        /* \"@openzeppelin/contracts/access/AccessControl.sol\":3565:3612  AccessControlUnauthorizedAccount(account, role) */\n      mload(0x40)\n      0xe2517d3f00000000000000000000000000000000000000000000000000000000\n      dup2\n      mstore\n      0x04\n      add\n      tag_276\n      swap3\n      swap2\n      swap1\n      tag_277\n      jump\t// in\n    tag_276:\n      mload(0x40)\n      dup1\n      swap2\n      sub\n      swap1\n      revert\n        /* \"@openzeppelin/contracts/access/AccessControl.sol\":3515:3623  if (!hasRole(role, account)) {... */\n    tag_275:\n        /* \"@openzeppelin/contracts/access/AccessControl.sol\":3432:3629  function _checkRole(bytes32 role, address account) internal view virtual {... */\n      pop\n      pop\n      jump\t// out\n    tag_211:\n      dup3\n      dup1\n      sload\n      dup3\n      dup3\n      sstore\n      swap1\n      0x00\n      mstore\n      keccak256(0x00, 0x20)\n      swap1\n      dup2\n      add\n      swap3\n      dup3\n      iszero\n      tag_278\n      jumpi\n      swap2\n      0x20\n      mul\n      dup3\n      add\n    tag_279:\n      dup3\n      dup2\n      gt\n      iszero\n      tag_280\n      jumpi\n      dup3\n      mload\n      dup3\n      sstore\n      swap2\n      0x20\n      add\n      swap2\n      swap1\n      0x01\n      add\n      swap1\n      jump(tag_279)\n    tag_280:\n    tag_278:\n      pop\n      swap1\n      pop\n      tag_281\n      swap2\n      swap1\n      tag_282\n      jump\t// in\n    tag_281:\n      pop\n      swap1\n      jump\t// out\n    tag_282:\n    tag_283:\n      dup1\n      dup3\n      gt\n      iszero\n      tag_284\n      jumpi\n      0x00\n      dup2\n      0x00\n      swap1\n      sstore\n      pop\n      0x01\n      add\n      jump(tag_283)\n    tag_284:\n      pop\n      swap1\n      jump\t// out\n        /* \"#utility.yul\":7:82   */\n    tag_285:\n        /* \"#utility.yul\":40:46   */\n      0x00\n        /* \"#utility.yul\":73:75   */\n      0x40\n        /* \"#utility.yul\":67:76   */\n      mload\n        /* \"#utility.yul\":57:76   */\n      swap1\n      pop\n        /* \"#utility.yul\":7:82   */\n      swap1\n      jump\t// out\n        /* \"#utility.yul\":88:205   */\n    tag_286:\n        /* \"#utility.yul\":197:198   */\n      0x00\n        /* \"#utility.yul\":194:195   */\n      dup1\n        /* \"#utility.yul\":187:199   */\n      revert\n        /* \"#utility.yul\":211:328   */\n    tag_287:\n        /* \"#utility.yul\":320:321   */\n      0x00\n        /* \"#utility.yul\":317:318   */\n      dup1\n        /* \"#utility.yul\":310:322   */\n      revert\n        /* \"#utility.yul\":334:411   */\n    tag_288:\n        /* \"#utility.yul\":371:378   */\n      0x00\n        /* \"#utility.yul\":400:405   */\n      dup2\n        /* \"#utility.yul\":389:405   */\n      swap1\n      pop\n        /* \"#utility.yul\":334:411   */\n      swap2\n      swap1\n      pop\n      jump\t// out\n        /* \"#utility.yul\":417:539   */\n    tag_289:\n        /* \"#utility.yul\":490:514   */\n      tag_352\n        /* \"#utility.yul\":508:513   */\n      dup2\n        /* \"#utility.yul\":490:514   */\n      tag_288\n      jump\t// in\n    tag_352:\n        /* \"#utility.yul\":483:488   */\n      dup2\n        /* \"#utility.yul\":480:515   */\n      eq\n        /* \"#utility.yul\":470:533   */\n      tag_353\n      jumpi\n        /* \"#utility.yul\":529:530   */\n      0x00\n        /* \"#utility.yul\":526:527   */\n      dup1\n        /* \"#utility.yul\":519:531   */\n      revert\n        /* \"#utility.yul\":470:533   */\n    tag_353:\n        /* \"#utility.yul\":417:539   */\n      pop\n      jump\t// out\n        /* \"#utility.yul\":545:684   */\n    tag_290:\n        /* \"#utility.yul\":591:596   */\n      0x00\n        /* \"#utility.yul\":629:635   */\n      dup2\n        /* \"#utility.yul\":616:636   */\n      calldataload\n        /* \"#utility.yul\":607:636   */\n      swap1\n      pop\n        /* \"#utility.yul\":645:678   */\n      tag_355\n        /* \"#utility.yul\":672:677   */\n      dup2\n        /* \"#utility.yul\":645:678   */\n      tag_289\n      jump\t// in\n    tag_355:\n        /* \"#utility.yul\":545:684   */\n      swap3\n      swap2\n      pop\n      pop\n      jump\t// out\n        /* \"#utility.yul\":690:816   */\n    tag_291:\n        /* \"#utility.yul\":727:734   */\n      0x00\n        /* \"#utility.yul\":767:809   */\n      0xffffffffffffffffffffffffffffffffffffffff\n        /* \"#utility.yul\":760:765   */\n      dup3\n        /* \"#utility.yul\":756:810   */\n      and\n        /* \"#utility.yul\":745:810   */\n      swap1\n      pop\n        /* \"#utility.yul\":690:816   */\n      swap2\n      swap1\n      pop\n      jump\t// out\n        /* \"#utility.yul\":822:918   */\n    tag_292:\n        /* \"#utility.yul\":859:866   */\n      0x00\n        /* \"#utility.yul\":888:912   */\n      tag_358\n        /* \"#utility.yul\":906:911   */\n      dup3\n        /* \"#utility.yul\":888:912   */\n      tag_291\n      jump\t// in\n    tag_358:\n        /* \"#utility.yul\":877:912   */\n      swap1\n      pop\n        /* \"#utility.yul\":822:918   */\n      swap2\n      swap1\n      pop\n      jump\t// out\n        /* \"#utility.yul\":924:1046   */\n    tag_293:\n        /* \"#utility.yul\":997:1021   */\n      tag_360\n        /* \"#utility.yul\":1015:1020   */\n      dup2\n        /* \"#utility.yul\":997:1021   */\n      tag_292\n      jump\t// in\n    tag_360:\n        /* \"#utility.yul\":990:995   */\n      dup2\n        /* \"#utility.yul\":987:1022   */\n      eq\n        /* \"#utility.yul\":977:1040   */\n      tag_361\n      jumpi\n        /* \"#utility.yul\":1036:1037   */\n      0x00\n        /* \"#utility.yul\":1033:1034   */\n      dup1\n        /* \"#utility.yul\":1026:1038   */\n      revert\n        /* \"#utility.yul\":977:1040   */\n    tag_361:\n        /* \"#utility.yul\":924:1046   */\n      pop\n      jump\t// out\n        /* \"#utility.yul\":1052:1191   */\n    tag_294:\n        /* \"#utility.yul\":1098:1103   */\n      0x00\n        /* \"#utility.yul\":1136:1142   */\n      dup2\n        /* \"#utility.yul\":1123:1143   */\n      calldataload\n        /* \"#utility.yul\":1114:1143   */\n      swap1\n      pop\n        /* \"#utility.yul\":1152:1185   */\n      tag_363\n        /* \"#utility.yul\":1179:1184   */\n      dup2\n        /* \"#utility.yul\":1152:1185   */\n      tag_293\n      jump\t// in\n    tag_363:\n        /* \"#utility.yul\":1052:1191   */\n      swap3\n      swap2\n      pop\n      pop\n      jump\t// out\n        /* \"#utility.yul\":1197:1671   */\n    tag_40:\n        /* \"#utility.yul\":1265:1271   */\n      0x00\n        /* \"#utility.yul\":1273:1279   */\n      dup1\n        /* \"#utility.yul\":1322:1324   */\n      0x40\n        /* \"#utility.yul\":1310:1319   */\n      dup4\n        /* \"#utility.yul\":1301:1308   */\n      dup6\n        /* \"#utility.yul\":1297:1320   */\n      sub\n        /* \"#utility.yul\":1293:1325   */\n      slt\n        /* \"#utility.yul\":1290:1409   */\n      iszero\n      tag_365\n      jumpi\n        /* \"#utility.yul\":1328:1407   */\n      tag_366\n      tag_286\n      jump\t// in\n    tag_366:\n        /* \"#utility.yul\":1290:1409   */\n    tag_365:\n        /* \"#utility.yul\":1448:1449   */\n      0x00\n        /* \"#utility.yul\":1473:1526   */\n      tag_367\n        /* \"#utility.yul\":1518:1525   */\n      dup6\n        /* \"#utility.yul\":1509:1515   */\n      dup3\n        /* \"#utility.yul\":1498:1507   */\n      dup7\n        /* \"#utility.yul\":1494:1516   */\n      add\n        /* \"#utility.yul\":1473:1526   */\n      tag_290\n      jump\t// in\n    tag_367:\n        /* \"#utility.yul\":1463:1526   */\n      swap3\n      pop\n        /* \"#utility.yul\":1419:1536   */\n      pop\n        /* \"#utility.yul\":1575:1577   */\n      0x20\n        /* \"#utility.yul\":1601:1654   */\n      tag_368\n        /* \"#utility.yul\":1646:1653   */\n      dup6\n        /* \"#utility.yul\":1637:1643   */\n      dup3\n        /* \"#utility.yul\":1626:1635   */\n      dup7\n        /* \"#utility.yul\":1622:1644   */\n      add\n        /* \"#utility.yul\":1601:1654   */\n      tag_294\n      jump\t// in\n    tag_368:\n        /* \"#utility.yul\":1591:1654   */\n      swap2\n      pop\n        /* \"#utility.yul\":1546:1664   */\n      pop\n        /* \"#utility.yul\":1197:1671   */\n      swap3\n      pop\n      swap3\n      swap1\n      pop\n      jump\t// out\n        /* \"#utility.yul\":1677:1826   */\n    tag_295:\n        /* \"#utility.yul\":1713:1720   */\n      0x00\n        /* \"#utility.yul\":1753:1819   */\n      0xffffffff00000000000000000000000000000000000000000000000000000000\n        /* \"#utility.yul\":1746:1751   */\n      dup3\n        /* \"#utility.yul\":1742:1820   */\n      and\n        /* \"#utility.yul\":1731:1820   */\n      swap1\n      pop\n        /* \"#utility.yul\":1677:1826   */\n      swap2\n      swap1\n      pop\n      jump\t// out\n        /* \"#utility.yul\":1832:1952   */\n    tag_296:\n        /* \"#utility.yul\":1904:1927   */\n      tag_371\n        /* \"#utility.yul\":1921:1926   */\n      dup2\n        /* \"#utility.yul\":1904:1927   */\n      tag_295\n      jump\t// in\n    tag_371:\n        /* \"#utility.yul\":1897:1902   */\n      dup2\n        /* \"#utility.yul\":1894:1928   */\n      eq\n        /* \"#utility.yul\":1884:1946   */\n      tag_372\n      jumpi\n        /* \"#utility.yul\":1942:1943   */\n      0x00\n        /* \"#utility.yul\":1939:1940   */\n      dup1\n        /* \"#utility.yul\":1932:1944   */\n      revert\n        /* \"#utility.yul\":1884:1946   */\n    tag_372:\n        /* \"#utility.yul\":1832:1952   */\n      pop\n      jump\t// out\n        /* \"#utility.yul\":1958:2095   */\n    tag_297:\n        /* \"#utility.yul\":2003:2008   */\n      0x00\n        /* \"#utility.yul\":2041:2047   */\n      dup2\n        /* \"#utility.yul\":2028:2048   */\n      calldataload\n        /* \"#utility.yul\":2019:2048   */\n      swap1\n      pop\n        /* \"#utility.yul\":2057:2089   */\n      tag_374\n        /* \"#utility.yul\":2083:2088   */\n      dup2\n        /* \"#utility.yul\":2057:2089   */\n      tag_296\n      jump\t// in\n    tag_374:\n        /* \"#utility.yul\":1958:2095   */\n      swap3\n      swap2\n      pop\n      pop\n      jump\t// out\n        /* \"#utility.yul\":2101:2428   */\n    tag_44:\n        /* \"#utility.yul\":2159:2165   */\n      0x00\n        /* \"#utility.yul\":2208:2210   */\n      0x20\n        /* \"#utility.yul\":2196:2205   */\n      dup3\n        /* \"#utility.yul\":2187:2194   */\n      dup5\n        /* \"#utility.yul\":2183:2206   */\n      sub\n        /* \"#utility.yul\":2179:2211   */\n      slt\n        /* \"#utility.yul\":2176:2295   */\n      iszero\n      tag_376\n      jumpi\n        /* \"#utility.yul\":2214:2293   */\n      tag_377\n      tag_286\n      jump\t// in\n    tag_377:\n        /* \"#utility.yul\":2176:2295   */\n    tag_376:\n        /* \"#utility.yul\":2334:2335   */\n      0x00\n        /* \"#utility.yul\":2359:2411   */\n      tag_378\n        /* \"#utility.yul\":2403:2410   */\n      dup5\n        /* \"#utility.yul\":2394:2400   */\n      dup3\n        /* \"#utility.yul\":2383:2392   */\n      dup6\n        /* \"#utility.yul\":2379:2401   */\n      add\n        /* \"#utility.yul\":2359:2411   */\n      tag_297\n      jump\t// in\n    tag_378:\n        /* \"#utility.yul\":2349:2411   */\n      swap2\n      pop\n        /* \"#utility.yul\":2305:2421   */\n      pop\n        /* \"#utility.yul\":2101:2428   */\n      swap3\n      swap2\n      pop\n      pop\n      jump\t// out\n        /* \"#utility.yul\":2434:2524   */\n    tag_298:\n        /* \"#utility.yul\":2468:2475   */\n      0x00\n        /* \"#utility.yul\":2511:2516   */\n      dup2\n        /* \"#utility.yul\":2504:2517   */\n      iszero\n        /* \"#utility.yul\":2497:2518   */\n      iszero\n        /* \"#utility.yul\":2486:2518   */\n      swap1\n      pop\n        /* \"#utility.yul\":2434:2524   */\n      swap2\n      swap1\n      pop\n      jump\t// out\n        /* \"#utility.yul\":2530:2639   */\n    tag_299:\n        /* \"#utility.yul\":2611:2632   */\n      tag_381\n        /* \"#utility.yul\":2626:2631   */\n      dup2\n        /* \"#utility.yul\":2611:2632   */\n      tag_298\n      jump\t// in\n    tag_381:\n        /* \"#utility.yul\":2606:2609   */\n      dup3\n        /* \"#utility.yul\":2599:2633   */\n      mstore\n        /* \"#utility.yul\":2530:2639   */\n      pop\n      pop\n      jump\t// out\n        /* \"#utility.yul\":2645:2855   */\n    tag_47:\n        /* \"#utility.yul\":2732:2736   */\n      0x00\n        /* \"#utility.yul\":2770:2772   */\n      0x20\n        /* \"#utility.yul\":2759:2768   */\n      dup3\n        /* \"#utility.yul\":2755:2773   */\n      add\n        /* \"#utility.yul\":2747:2773   */\n      swap1\n      pop\n        /* \"#utility.yul\":2783:2848   */\n      tag_383\n        /* \"#utility.yul\":2845:2846   */\n      0x00\n        /* \"#utility.yul\":2834:2843   */\n      dup4\n        /* \"#utility.yul\":2830:2847   */\n      add\n        /* \"#utility.yul\":2821:2827   */\n      dup5\n        /* \"#utility.yul\":2783:2848   */\n      tag_299\n      jump\t// in\n    tag_383:\n        /* \"#utility.yul\":2645:2855   */\n      swap3\n      swap2\n      pop\n      pop\n      jump\t// out\n        /* \"#utility.yul\":2861:3190   */\n    tag_50:\n        /* \"#utility.yul\":2920:2926   */\n      0x00\n        /* \"#utility.yul\":2969:2971   */\n      0x20\n        /* \"#utility.yul\":2957:2966   */\n      dup3\n        /* \"#utility.yul\":2948:2955   */\n      dup5\n        /* \"#utility.yul\":2944:2967   */\n      sub\n        /* \"#utility.yul\":2940:2972   */\n      slt\n        /* \"#utility.yul\":2937:3056   */\n      iszero\n      tag_385\n      jumpi\n        /* \"#utility.yul\":2975:3054   */\n      tag_386\n      tag_286\n      jump\t// in\n    tag_386:\n        /* \"#utility.yul\":2937:3056   */\n    tag_385:\n        /* \"#utility.yul\":3095:3096   */\n      0x00\n        /* \"#utility.yul\":3120:3173   */\n      tag_387\n        /* \"#utility.yul\":3165:3172   */\n      dup5\n        /* \"#utility.yul\":3156:3162   */\n      dup3\n        /* \"#utility.yul\":3145:3154   */\n      dup6\n        /* \"#utility.yul\":3141:3163   */\n      add\n        /* \"#utility.yul\":3120:3173   */\n      tag_294\n      jump\t// in\n    tag_387:\n        /* \"#utility.yul\":3110:3173   */\n      swap2\n      pop\n        /* \"#utility.yul\":3066:3183   */\n      pop\n        /* \"#utility.yul\":2861:3190   */\n      swap3\n      swap2\n      pop\n      pop\n      jump\t// out\n        /* \"#utility.yul\":3196:3256   */\n    tag_300:\n        /* \"#utility.yul\":3224:3227   */\n      0x00\n        /* \"#utility.yul\":3245:3250   */\n      dup2\n        /* \"#utility.yul\":3238:3250   */\n      swap1\n      pop\n        /* \"#utility.yul\":3196:3256   */\n      swap2\n      swap1\n      pop\n      jump\t// out\n        /* \"#utility.yul\":3262:3404   */\n    tag_301:\n        /* \"#utility.yul\":3312:3321   */\n      0x00\n        /* \"#utility.yul\":3345:3398   */\n      tag_390\n        /* \"#utility.yul\":3363:3397   */\n      tag_391\n        /* \"#utility.yul\":3372:3396   */\n      tag_392\n        /* \"#utility.yul\":3390:3395   */\n      dup5\n        /* \"#utility.yul\":3372:3396   */\n      tag_291\n      jump\t// in\n    tag_392:\n        /* \"#utility.yul\":3363:3397   */\n      tag_300\n      jump\t// in\n    tag_391:\n        /* \"#utility.yul\":3345:3398   */\n      tag_291\n      jump\t// in\n    tag_390:\n        /* \"#utility.yul\":3332:3398   */\n      swap1\n      pop\n        /* \"#utility.yul\":3262:3404   */\n      swap2\n      swap1\n      pop\n      jump\t// out\n        /* \"#utility.yul\":3410:3536   */\n    tag_302:\n        /* \"#utility.yul\":3460:3469   */\n      0x00\n        /* \"#utility.yul\":3493:3530   */\n      tag_394\n        /* \"#utility.yul\":3524:3529   */\n      dup3\n        /* \"#utility.yul\":3493:3530   */\n      tag_301\n      jump\t// in\n    tag_394:\n        /* \"#utility.yul\":3480:3530   */\n      swap1\n      pop\n        /* \"#utility.yul\":3410:3536   */\n      swap2\n      swap1\n      pop\n      jump\t// out\n        /* \"#utility.yul\":3542:3696   */\n    tag_303:\n        /* \"#utility.yul\":3620:3629   */\n      0x00\n        /* \"#utility.yul\":3653:3690   */\n      tag_396\n        /* \"#utility.yul\":3684:3689   */\n      dup3\n        /* \"#utility.yul\":3653:3690   */\n      tag_302\n      jump\t// in\n    tag_396:\n        /* \"#utility.yul\":3640:3690   */\n      swap1\n      pop\n        /* \"#utility.yul\":3542:3696   */\n      swap2\n      swap1\n      pop\n      jump\t// out\n        /* \"#utility.yul\":3702:3889   */\n    tag_304:\n        /* \"#utility.yul\":3817:3882   */\n      tag_398\n        /* \"#utility.yul\":3876:3881   */\n      dup2\n        /* \"#utility.yul\":3817:3882   */\n      tag_303\n      jump\t// in\n    tag_398:\n        /* \"#utility.yul\":3812:3815   */\n      dup3\n        /* \"#utility.yul\":3805:3883   */\n      mstore\n        /* \"#utility.yul\":3702:3889   */\n      pop\n      pop\n      jump\t// out\n        /* \"#utility.yul\":3895:4173   */\n    tag_55:\n        /* \"#utility.yul\":4016:4020   */\n      0x00\n        /* \"#utility.yul\":4054:4056   */\n      0x20\n        /* \"#utility.yul\":4043:4052   */\n      dup3\n        /* \"#utility.yul\":4039:4057   */\n      add\n        /* \"#utility.yul\":4031:4057   */\n      swap1\n      pop\n        /* \"#utility.yul\":4067:4166   */\n      tag_400\n        /* \"#utility.yul\":4163:4164   */\n      0x00\n        /* \"#utility.yul\":4152:4161   */\n      dup4\n        /* \"#utility.yul\":4148:4165   */\n      add\n        /* \"#utility.yul\":4139:4145   */\n      dup5\n        /* \"#utility.yul\":4067:4166   */\n      tag_304\n      jump\t// in\n    tag_400:\n        /* \"#utility.yul\":3895:4173   */\n      swap3\n      swap2\n      pop\n      pop\n      jump\t// out\n        /* \"#utility.yul\":4179:4296   */\n    tag_305:\n        /* \"#utility.yul\":4288:4289   */\n      0x00\n        /* \"#utility.yul\":4285:4286   */\n      dup1\n        /* \"#utility.yul\":4278:4290   */\n      revert\n        /* \"#utility.yul\":4302:4404   */\n    tag_306:\n        /* \"#utility.yul\":4343:4349   */\n      0x00\n        /* \"#utility.yul\":4394:4396   */\n      0x1f\n        /* \"#utility.yul\":4390:4397   */\n      not\n        /* \"#utility.yul\":4385:4387   */\n      0x1f\n        /* \"#utility.yul\":4378:4383   */\n      dup4\n        /* \"#utility.yul\":4374:4388   */\n      add\n        /* \"#utility.yul\":4370:4398   */\n      and\n        /* \"#utility.yul\":4360:4398   */\n      swap1\n      pop\n        /* \"#utility.yul\":4302:4404   */\n      swap2\n      swap1\n      pop\n      jump\t// out\n        /* \"#utility.yul\":4410:4590   */\n    tag_208:\n        /* \"#utility.yul\":4458:4535   */\n      0x4e487b7100000000000000000000000000000000000000000000000000000000\n        /* \"#utility.yul\":4455:4456   */\n      0x00\n        /* \"#utility.yul\":4448:4536   */\n      mstore\n        /* \"#utility.yul\":4555:4559   */\n      0x41\n        /* \"#utility.yul\":4552:4553   */\n      0x04\n        /* \"#utility.yul\":4545:4560   */\n      mstore\n        /* \"#utility.yul\":4579:4583   */\n      0x24\n        /* \"#utility.yul\":4576:4577   */\n      0x00\n        /* \"#utility.yul\":4569:4584   */\n      revert\n        /* \"#utility.yul\":4596:4877   */\n    tag_307:\n        /* \"#utility.yul\":4679:4706   */\n      tag_405\n        /* \"#utility.yul\":4701:4705   */\n      dup3\n        /* \"#utility.yul\":4679:4706   */\n      tag_306\n      jump\t// in\n    tag_405:\n        /* \"#utility.yul\":4671:4677   */\n      dup2\n        /* \"#utility.yul\":4667:4707   */\n      add\n        /* \"#utility.yul\":4809:4815   */\n      dup2\n        /* \"#utility.yul\":4797:4807   */\n      dup2\n        /* \"#utility.yul\":4794:4816   */\n      lt\n        /* \"#utility.yul\":4773:4791   */\n      0xffffffffffffffff\n        /* \"#utility.yul\":4761:4771   */\n      dup3\n        /* \"#utility.yul\":4758:4792   */\n      gt\n        /* \"#utility.yul\":4755:4817   */\n      or\n        /* \"#utility.yul\":4752:4840   */\n      iszero\n      tag_406\n      jumpi\n        /* \"#utility.yul\":4820:4838   */\n      tag_407\n      tag_208\n      jump\t// in\n    tag_407:\n        /* \"#utility.yul\":4752:4840   */\n    tag_406:\n        /* \"#utility.yul\":4860:4870   */\n      dup1\n        /* \"#utility.yul\":4856:4858   */\n      0x40\n        /* \"#utility.yul\":4849:4871   */\n      mstore\n        /* \"#utility.yul\":4639:4877   */\n      pop\n        /* \"#utility.yul\":4596:4877   */\n      pop\n      pop\n      jump\t// out\n        /* \"#utility.yul\":4883:5012   */\n    tag_308:\n        /* \"#utility.yul\":4917:4923   */\n      0x00\n        /* \"#utility.yul\":4944:4964   */\n      tag_409\n      tag_285\n      jump\t// in\n    tag_409:\n        /* \"#utility.yul\":4934:4964   */\n      swap1\n      pop\n        /* \"#utility.yul\":4973:5006   */\n      tag_410\n        /* \"#utility.yul\":5001:5005   */\n      dup3\n        /* \"#utility.yul\":4993:4999   */\n      dup3\n        /* \"#utility.yul\":4973:5006   */\n      tag_307\n      jump\t// in\n    tag_410:\n        /* \"#utility.yul\":4883:5012   */\n      swap2\n      swap1\n      pop\n      jump\t// out\n        /* \"#utility.yul\":5018:5329   */\n    tag_309:\n        /* \"#utility.yul\":5095:5099   */\n      0x00\n        /* \"#utility.yul\":5185:5203   */\n      0xffffffffffffffff\n        /* \"#utility.yul\":5177:5183   */\n      dup3\n        /* \"#utility.yul\":5174:5204   */\n      gt\n        /* \"#utility.yul\":5171:5227   */\n      iszero\n      tag_412\n      jumpi\n        /* \"#utility.yul\":5207:5225   */\n      tag_413\n      tag_208\n      jump\t// in\n    tag_413:\n        /* \"#utility.yul\":5171:5227   */\n    tag_412:\n        /* \"#utility.yul\":5257:5261   */\n      0x20\n        /* \"#utility.yul\":5249:5255   */\n      dup3\n        /* \"#utility.yul\":5245:5262   */\n      mul\n        /* \"#utility.yul\":5237:5262   */\n      swap1\n      pop\n        /* \"#utility.yul\":5317:5321   */\n      0x20\n        /* \"#utility.yul\":5311:5315   */\n      dup2\n        /* \"#utility.yul\":5307:5322   */\n      add\n        /* \"#utility.yul\":5299:5322   */\n      swap1\n      pop\n        /* \"#utility.yul\":5018:5329   */\n      swap2\n      swap1\n      pop\n      jump\t// out\n        /* \"#utility.yul\":5335:5452   */\n    tag_310:\n        /* \"#utility.yul\":5444:5445   */\n      0x00\n        /* \"#utility.yul\":5441:5442   */\n      dup1\n        /* \"#utility.yul\":5434:5446   */\n      revert\n        /* \"#utility.yul\":5475:6185   */\n    tag_311:\n        /* \"#utility.yul\":5571:5576   */\n      0x00\n        /* \"#utility.yul\":5596:5677   */\n      tag_416\n        /* \"#utility.yul\":5612:5676   */\n      tag_417\n        /* \"#utility.yul\":5669:5675   */\n      dup5\n        /* \"#utility.yul\":5612:5676   */\n      tag_309\n      jump\t// in\n    tag_417:\n        /* \"#utility.yul\":5596:5677   */\n      tag_308\n      jump\t// in\n    tag_416:\n        /* \"#utility.yul\":5587:5677   */\n      swap1\n      pop\n        /* \"#utility.yul\":5697:5702   */\n      dup1\n        /* \"#utility.yul\":5726:5732   */\n      dup4\n        /* \"#utility.yul\":5719:5724   */\n      dup3\n        /* \"#utility.yul\":5712:5733   */\n      mstore\n        /* \"#utility.yul\":5760:5764   */\n      0x20\n        /* \"#utility.yul\":5753:5758   */\n      dup3\n        /* \"#utility.yul\":5749:5765   */\n      add\n        /* \"#utility.yul\":5742:5765   */\n      swap1\n      pop\n        /* \"#utility.yul\":5813:5817   */\n      0x20\n        /* \"#utility.yul\":5805:5811   */\n      dup5\n        /* \"#utility.yul\":5801:5818   */\n      mul\n        /* \"#utility.yul\":5793:5799   */\n      dup4\n        /* \"#utility.yul\":5789:5819   */\n      add\n        /* \"#utility.yul\":5842:5845   */\n      dup6\n        /* \"#utility.yul\":5834:5840   */\n      dup2\n        /* \"#utility.yul\":5831:5846   */\n      gt\n        /* \"#utility.yul\":5828:5950   */\n      iszero\n      tag_418\n      jumpi\n        /* \"#utility.yul\":5861:5940   */\n      tag_419\n      tag_310\n      jump\t// in\n    tag_419:\n        /* \"#utility.yul\":5828:5950   */\n    tag_418:\n        /* \"#utility.yul\":5976:5982   */\n      dup4\n        /* \"#utility.yul\":5959:6179   */\n    tag_420:\n        /* \"#utility.yul\":5993:5999   */\n      dup2\n        /* \"#utility.yul\":5988:5991   */\n      dup2\n        /* \"#utility.yul\":5985:6000   */\n      lt\n        /* \"#utility.yul\":5959:6179   */\n      iszero\n      tag_422\n      jumpi\n        /* \"#utility.yul\":6068:6071   */\n      dup1\n        /* \"#utility.yul\":6097:6134   */\n      tag_423\n        /* \"#utility.yul\":6130:6133   */\n      dup9\n        /* \"#utility.yul\":6118:6128   */\n      dup3\n        /* \"#utility.yul\":6097:6134   */\n      tag_290\n      jump\t// in\n    tag_423:\n        /* \"#utility.yul\":6092:6095   */\n      dup5\n        /* \"#utility.yul\":6085:6135   */\n      mstore\n        /* \"#utility.yul\":6164:6168   */\n      0x20\n        /* \"#utility.yul\":6159:6162   */\n      dup5\n        /* \"#utility.yul\":6155:6169   */\n      add\n        /* \"#utility.yul\":6148:6169   */\n      swap4\n      pop\n        /* \"#utility.yul\":6035:6179   */\n      pop\n        /* \"#utility.yul\":6019:6023   */\n      0x20\n        /* \"#utility.yul\":6014:6017   */\n      dup2\n        /* \"#utility.yul\":6010:6024   */\n      add\n        /* \"#utility.yul\":6003:6024   */\n      swap1\n      pop\n        /* \"#utility.yul\":5959:6179   */\n      jump(tag_420)\n    tag_422:\n        /* \"#utility.yul\":5963:5984   */\n      pop\n        /* \"#utility.yul\":5577:6185   */\n      pop\n      pop\n        /* \"#utility.yul\":5475:6185   */\n      swap4\n      swap3\n      pop\n      pop\n      pop\n      jump\t// out\n        /* \"#utility.yul\":6208:6578   */\n    tag_312:\n        /* \"#utility.yul\":6279:6284   */\n      0x00\n        /* \"#utility.yul\":6328:6331   */\n      dup3\n        /* \"#utility.yul\":6321:6325   */\n      0x1f\n        /* \"#utility.yul\":6313:6319   */\n      dup4\n        /* \"#utility.yul\":6309:6326   */\n      add\n        /* \"#utility.yul\":6305:6332   */\n      slt\n        /* \"#utility.yul\":6295:6417   */\n      tag_425\n      jumpi\n        /* \"#utility.yul\":6336:6415   */\n      tag_426\n      tag_305\n      jump\t// in\n    tag_426:\n        /* \"#utility.yul\":6295:6417   */\n    tag_425:\n        /* \"#utility.yul\":6453:6459   */\n      dup2\n        /* \"#utility.yul\":6440:6460   */\n      calldataload\n        /* \"#utility.yul\":6478:6572   */\n      tag_427\n        /* \"#utility.yul\":6568:6571   */\n      dup5\n        /* \"#utility.yul\":6560:6566   */\n      dup3\n        /* \"#utility.yul\":6553:6557   */\n      0x20\n        /* \"#utility.yul\":6545:6551   */\n      dup7\n        /* \"#utility.yul\":6541:6558   */\n      add\n        /* \"#utility.yul\":6478:6572   */\n      tag_311\n      jump\t// in\n    tag_427:\n        /* \"#utility.yul\":6469:6572   */\n      swap2\n      pop\n        /* \"#utility.yul\":6285:6578   */\n      pop\n        /* \"#utility.yul\":6208:6578   */\n      swap3\n      swap2\n      pop\n      pop\n      jump\t// out\n        /* \"#utility.yul\":6584:7268   */\n    tag_61:\n        /* \"#utility.yul\":6677:6683   */\n      0x00\n        /* \"#utility.yul\":6685:6691   */\n      dup1\n        /* \"#utility.yul\":6734:6736   */\n      0x40\n        /* \"#utility.yul\":6722:6731   */\n      dup4\n        /* \"#utility.yul\":6713:6720   */\n      dup6\n        /* \"#utility.yul\":6709:6732   */\n      sub\n        /* \"#utility.yul\":6705:6737   */\n      slt\n        /* \"#utility.yul\":6702:6821   */\n      iszero\n      tag_429\n      jumpi\n        /* \"#utility.yul\":6740:6819   */\n      tag_430\n      tag_286\n      jump\t// in\n    tag_430:\n        /* \"#utility.yul\":6702:6821   */\n    tag_429:\n        /* \"#utility.yul\":6860:6861   */\n      0x00\n        /* \"#utility.yul\":6885:6938   */\n      tag_431\n        /* \"#utility.yul\":6930:6937   */\n      dup6\n        /* \"#utility.yul\":6921:6927   */\n      dup3\n        /* \"#utility.yul\":6910:6919   */\n      dup7\n        /* \"#utility.yul\":6906:6928   */\n      add\n        /* \"#utility.yul\":6885:6938   */\n      tag_290\n      jump\t// in\n    tag_431:\n        /* \"#utility.yul\":6875:6938   */\n      swap3\n      pop\n        /* \"#utility.yul\":6831:6948   */\n      pop\n        /* \"#utility.yul\":7015:7017   */\n      0x20\n        /* \"#utility.yul\":7004:7013   */\n      dup4\n        /* \"#utility.yul\":7000:7018   */\n      add\n        /* \"#utility.yul\":6987:7019   */\n      calldataload\n        /* \"#utility.yul\":7046:7064   */\n      0xffffffffffffffff\n        /* \"#utility.yul\":7038:7044   */\n      dup2\n        /* \"#utility.yul\":7035:7065   */\n      gt\n        /* \"#utility.yul\":7032:7149   */\n      iszero\n      tag_432\n      jumpi\n        /* \"#utility.yul\":7068:7147   */\n      tag_433\n      tag_287\n      jump\t// in\n    tag_433:\n        /* \"#utility.yul\":7032:7149   */\n    tag_432:\n        /* \"#utility.yul\":7173:7251   */\n      tag_434\n        /* \"#utility.yul\":7243:7250   */\n      dup6\n        /* \"#utility.yul\":7234:7240   */\n      dup3\n        /* \"#utility.yul\":7223:7232   */\n      dup7\n        /* \"#utility.yul\":7219:7241   */\n      add\n        /* \"#utility.yul\":7173:7251   */\n      tag_312\n      jump\t// in\n    tag_434:\n        /* \"#utility.yul\":7163:7251   */\n      swap2\n      pop\n        /* \"#utility.yul\":6958:7261   */\n      pop\n        /* \"#utility.yul\":6584:7268   */\n      swap3\n      pop\n      swap3\n      swap1\n      pop\n      jump\t// out\n        /* \"#utility.yul\":7274:7351   */\n    tag_313:\n        /* \"#utility.yul\":7311:7318   */\n      0x00\n        /* \"#utility.yul\":7340:7345   */\n      dup2\n        /* \"#utility.yul\":7329:7345   */\n      swap1\n      pop\n        /* \"#utility.yul\":7274:7351   */\n      swap2\n      swap1\n      pop\n      jump\t// out\n        /* \"#utility.yul\":7357:7479   */\n    tag_314:\n        /* \"#utility.yul\":7430:7454   */\n      tag_437\n        /* \"#utility.yul\":7448:7453   */\n      dup2\n        /* \"#utility.yul\":7430:7454   */\n      tag_313\n      jump\t// in\n    tag_437:\n        /* \"#utility.yul\":7423:7428   */\n      dup2\n        /* \"#utility.yul\":7420:7455   */\n      eq\n        /* \"#utility.yul\":7410:7473   */\n      tag_438\n      jumpi\n        /* \"#utility.yul\":7469:7470   */\n      0x00\n        /* \"#utility.yul\":7466:7467   */\n      dup1\n        /* \"#utility.yul\":7459:7471   */\n      revert\n        /* \"#utility.yul\":7410:7473   */\n    tag_438:\n        /* \"#utility.yul\":7357:7479   */\n      pop\n      jump\t// out\n        /* \"#utility.yul\":7485:7624   */\n    tag_315:\n        /* \"#utility.yul\":7531:7536   */\n      0x00\n        /* \"#utility.yul\":7569:7575   */\n      dup2\n        /* \"#utility.yul\":7556:7576   */\n      calldataload\n        /* \"#utility.yul\":7547:7576   */\n      swap1\n      pop\n        /* \"#utility.yul\":7585:7618   */\n      tag_440\n        /* \"#utility.yul\":7612:7617   */\n      dup2\n        /* \"#utility.yul\":7585:7618   */\n      tag_314\n      jump\t// in\n    tag_440:\n        /* \"#utility.yul\":7485:7624   */\n      swap3\n      swap2\n      pop\n      pop\n      jump\t// out\n        /* \"#utility.yul\":7630:7959   */\n    tag_65:\n        /* \"#utility.yul\":7689:7695   */\n      0x00\n        /* \"#utility.yul\":7738:7740   */\n      0x20\n        /* \"#utility.yul\":7726:7735   */\n      dup3\n        /* \"#utility.yul\":7717:7724   */\n      dup5\n        /* \"#utility.yul\":7713:7736   */\n      sub\n        /* \"#utility.yul\":7709:7741   */\n      slt\n        /* \"#utility.yul\":7706:7825   */\n      iszero\n      tag_442\n      jumpi\n        /* \"#utility.yul\":7744:7823   */\n      tag_443\n      tag_286\n      jump\t// in\n    tag_443:\n        /* \"#utility.yul\":7706:7825   */\n    tag_442:\n        /* \"#utility.yul\":7864:7865   */\n      0x00\n        /* \"#utility.yul\":7889:7942   */\n      tag_444\n        /* \"#utility.yul\":7934:7941   */\n      dup5\n        /* \"#utility.yul\":7925:7931   */\n      dup3\n        /* \"#utility.yul\":7914:7923   */\n      dup6\n        /* \"#utility.yul\":7910:7932   */\n      add\n        /* \"#utility.yul\":7889:7942   */\n      tag_315\n      jump\t// in\n    tag_444:\n        /* \"#utility.yul\":7879:7942   */\n      swap2\n      pop\n        /* \"#utility.yul\":7835:7952   */\n      pop\n        /* \"#utility.yul\":7630:7959   */\n      swap3\n      swap2\n      pop\n      pop\n      jump\t// out\n        /* \"#utility.yul\":7965:8083   */\n    tag_316:\n        /* \"#utility.yul\":8052:8076   */\n      tag_446\n        /* \"#utility.yul\":8070:8075   */\n      dup2\n        /* \"#utility.yul\":8052:8076   */\n      tag_313\n      jump\t// in\n    tag_446:\n        /* \"#utility.yul\":8047:8050   */\n      dup3\n        /* \"#utility.yul\":8040:8077   */\n      mstore\n        /* \"#utility.yul\":7965:8083   */\n      pop\n      pop\n      jump\t// out\n        /* \"#utility.yul\":8089:8311   */\n    tag_68:\n        /* \"#utility.yul\":8182:8186   */\n      0x00\n        /* \"#utility.yul\":8220:8222   */\n      0x20\n        /* \"#utility.yul\":8209:8218   */\n      dup3\n        /* \"#utility.yul\":8205:8223   */\n      add\n        /* \"#utility.yul\":8197:8223   */\n      swap1\n      pop\n        /* \"#utility.yul\":8233:8304   */\n      tag_448\n        /* \"#utility.yul\":8301:8302   */\n      0x00\n        /* \"#utility.yul\":8290:8299   */\n      dup4\n        /* \"#utility.yul\":8286:8303   */\n      add\n        /* \"#utility.yul\":8277:8283   */\n      dup5\n        /* \"#utility.yul\":8233:8304   */\n      tag_316\n      jump\t// in\n    tag_448:\n        /* \"#utility.yul\":8089:8311   */\n      swap3\n      swap2\n      pop\n      pop\n      jump\t// out\n        /* \"#utility.yul\":8317:8410   */\n    tag_317:\n        /* \"#utility.yul\":8353:8360   */\n      0x00\n        /* \"#utility.yul\":8393:8403   */\n      0xffffffff\n        /* \"#utility.yul\":8386:8391   */\n      dup3\n        /* \"#utility.yul\":8382:8404   */\n      and\n        /* \"#utility.yul\":8371:8404   */\n      swap1\n      pop\n        /* \"#utility.yul\":8317:8410   */\n      swap2\n      swap1\n      pop\n      jump\t// out\n        /* \"#utility.yul\":8416:8531   */\n    tag_318:\n        /* \"#utility.yul\":8501:8524   */\n      tag_451\n        /* \"#utility.yul\":8518:8523   */\n      dup2\n        /* \"#utility.yul\":8501:8524   */\n      tag_317\n      jump\t// in\n    tag_451:\n        /* \"#utility.yul\":8496:8499   */\n      dup3\n        /* \"#utility.yul\":8489:8525   */\n      mstore\n        /* \"#utility.yul\":8416:8531   */\n      pop\n      pop\n      jump\t// out\n        /* \"#utility.yul\":8537:8755   */\n    tag_72:\n        /* \"#utility.yul\":8628:8632   */\n      0x00\n        /* \"#utility.yul\":8666:8668   */\n      0x20\n        /* \"#utility.yul\":8655:8664   */\n      dup3\n        /* \"#utility.yul\":8651:8669   */\n      add\n        /* \"#utility.yul\":8643:8669   */\n      swap1\n      pop\n        /* \"#utility.yul\":8679:8748   */\n      tag_453\n        /* \"#utility.yul\":8745:8746   */\n      0x00\n        /* \"#utility.yul\":8734:8743   */\n      dup4\n        /* \"#utility.yul\":8730:8747   */\n      add\n        /* \"#utility.yul\":8721:8727   */\n      dup5\n        /* \"#utility.yul\":8679:8748   */\n      tag_318\n      jump\t// in\n    tag_453:\n        /* \"#utility.yul\":8537:8755   */\n      swap3\n      swap2\n      pop\n      pop\n      jump\t// out\n        /* \"#utility.yul\":8761:9235   */\n    tag_75:\n        /* \"#utility.yul\":8829:8835   */\n      0x00\n        /* \"#utility.yul\":8837:8843   */\n      dup1\n        /* \"#utility.yul\":8886:8888   */\n      0x40\n        /* \"#utility.yul\":8874:8883   */\n      dup4\n        /* \"#utility.yul\":8865:8872   */\n      dup6\n        /* \"#utility.yul\":8861:8884   */\n      sub\n        /* \"#utility.yul\":8857:8889   */\n      slt\n        /* \"#utility.yul\":8854:8973   */\n      iszero\n      tag_455\n      jumpi\n        /* \"#utility.yul\":8892:8971   */\n      tag_456\n      tag_286\n      jump\t// in\n    tag_456:\n        /* \"#utility.yul\":8854:8973   */\n    tag_455:\n        /* \"#utility.yul\":9012:9013   */\n      0x00\n        /* \"#utility.yul\":9037:9090   */\n      tag_457\n        /* \"#utility.yul\":9082:9089   */\n      dup6\n        /* \"#utility.yul\":9073:9079   */\n      dup3\n        /* \"#utility.yul\":9062:9071   */\n      dup7\n        /* \"#utility.yul\":9058:9080   */\n      add\n        /* \"#utility.yul\":9037:9090   */\n      tag_315\n      jump\t// in\n    tag_457:\n        /* \"#utility.yul\":9027:9090   */\n      swap3\n      pop\n        /* \"#utility.yul\":8983:9100   */\n      pop\n        /* \"#utility.yul\":9139:9141   */\n      0x20\n        /* \"#utility.yul\":9165:9218   */\n      tag_458\n        /* \"#utility.yul\":9210:9217   */\n      dup6\n        /* \"#utility.yul\":9201:9207   */\n      dup3\n        /* \"#utility.yul\":9190:9199   */\n      dup7\n        /* \"#utility.yul\":9186:9208   */\n      add\n        /* \"#utility.yul\":9165:9218   */\n      tag_294\n      jump\t// in\n    tag_458:\n        /* \"#utility.yul\":9155:9218   */\n      swap2\n      pop\n        /* \"#utility.yul\":9110:9228   */\n      pop\n        /* \"#utility.yul\":8761:9235   */\n      swap3\n      pop\n      swap3\n      swap1\n      pop\n      jump\t// out\n        /* \"#utility.yul\":9241:9399   */\n    tag_319:\n        /* \"#utility.yul\":9323:9332   */\n      0x00\n        /* \"#utility.yul\":9356:9393   */\n      tag_460\n        /* \"#utility.yul\":9387:9392   */\n      dup3\n        /* \"#utility.yul\":9356:9393   */\n      tag_302\n      jump\t// in\n    tag_460:\n        /* \"#utility.yul\":9343:9393   */\n      swap1\n      pop\n        /* \"#utility.yul\":9241:9399   */\n      swap2\n      swap1\n      pop\n      jump\t// out\n        /* \"#utility.yul\":9405:9600   */\n    tag_320:\n        /* \"#utility.yul\":9524:9593   */\n      tag_462\n        /* \"#utility.yul\":9587:9592   */\n      dup2\n        /* \"#utility.yul\":9524:9593   */\n      tag_319\n      jump\t// in\n    tag_462:\n        /* \"#utility.yul\":9519:9522   */\n      dup3\n        /* \"#utility.yul\":9512:9594   */\n      mstore\n        /* \"#utility.yul\":9405:9600   */\n      pop\n      pop\n      jump\t// out\n        /* \"#utility.yul\":9606:9892   */\n    tag_83:\n        /* \"#utility.yul\":9731:9735   */\n      0x00\n        /* \"#utility.yul\":9769:9771   */\n      0x20\n        /* \"#utility.yul\":9758:9767   */\n      dup3\n        /* \"#utility.yul\":9754:9772   */\n      add\n        /* \"#utility.yul\":9746:9772   */\n      swap1\n      pop\n        /* \"#utility.yul\":9782:9885   */\n      tag_464\n        /* \"#utility.yul\":9882:9883   */\n      0x00\n        /* \"#utility.yul\":9871:9880   */\n      dup4\n        /* \"#utility.yul\":9867:9884   */\n      add\n        /* \"#utility.yul\":9858:9864   */\n      dup5\n        /* \"#utility.yul\":9782:9885   */\n      tag_320\n      jump\t// in\n    tag_464:\n        /* \"#utility.yul\":9606:9892   */\n      swap3\n      swap2\n      pop\n      pop\n      jump\t// out\n        /* \"#utility.yul\":9898:10050   */\n    tag_321:\n        /* \"#utility.yul\":9974:9983   */\n      0x00\n        /* \"#utility.yul\":10007:10044   */\n      tag_466\n        /* \"#utility.yul\":10038:10043   */\n      dup3\n        /* \"#utility.yul\":10007:10044   */\n      tag_302\n      jump\t// in\n    tag_466:\n        /* \"#utility.yul\":9994:10044   */\n      swap1\n      pop\n        /* \"#utility.yul\":9898:10050   */\n      swap2\n      swap1\n      pop\n      jump\t// out\n        /* \"#utility.yul\":10056:10239   */\n    tag_322:\n        /* \"#utility.yul\":10169:10232   */\n      tag_468\n        /* \"#utility.yul\":10226:10231   */\n      dup2\n        /* \"#utility.yul\":10169:10232   */\n      tag_321\n      jump\t// in\n    tag_468:\n        /* \"#utility.yul\":10164:10167   */\n      dup3\n        /* \"#utility.yul\":10157:10233   */\n      mstore\n        /* \"#utility.yul\":10056:10239   */\n      pop\n      pop\n      jump\t// out\n        /* \"#utility.yul\":10245:10519   */\n    tag_90:\n        /* \"#utility.yul\":10364:10368   */\n      0x00\n        /* \"#utility.yul\":10402:10404   */\n      0x20\n        /* \"#utility.yul\":10391:10400   */\n      dup3\n        /* \"#utility.yul\":10387:10405   */\n      add\n        /* \"#utility.yul\":10379:10405   */\n      swap1\n      pop\n        /* \"#utility.yul\":10415:10512   */\n      tag_470\n        /* \"#utility.yul\":10509:10510   */\n      0x00\n        /* \"#utility.yul\":10498:10507   */\n      dup4\n        /* \"#utility.yul\":10494:10511   */\n      add\n        /* \"#utility.yul\":10485:10491   */\n      dup5\n        /* \"#utility.yul\":10415:10512   */\n      tag_322\n      jump\t// in\n    tag_470:\n        /* \"#utility.yul\":10245:10519   */\n      swap3\n      swap2\n      pop\n      pop\n      jump\t// out\n        /* \"#utility.yul\":10525:10643   */\n    tag_323:\n        /* \"#utility.yul\":10612:10636   */\n      tag_472\n        /* \"#utility.yul\":10630:10635   */\n      dup2\n        /* \"#utility.yul\":10612:10636   */\n      tag_288\n      jump\t// in\n    tag_472:\n        /* \"#utility.yul\":10607:10610   */\n      dup3\n        /* \"#utility.yul\":10600:10637   */\n      mstore\n        /* \"#utility.yul\":10525:10643   */\n      pop\n      pop\n      jump\t// out\n        /* \"#utility.yul\":10649:10871   */\n    tag_98:\n        /* \"#utility.yul\":10742:10746   */\n      0x00\n        /* \"#utility.yul\":10780:10782   */\n      0x20\n        /* \"#utility.yul\":10769:10778   */\n      dup3\n        /* \"#utility.yul\":10765:10783   */\n      add\n        /* \"#utility.yul\":10757:10783   */\n      swap1\n      pop\n        /* \"#utility.yul\":10793:10864   */\n      tag_474\n        /* \"#utility.yul\":10861:10862   */\n      0x00\n        /* \"#utility.yul\":10850:10859   */\n      dup4\n        /* \"#utility.yul\":10846:10863   */\n      add\n        /* \"#utility.yul\":10837:10843   */\n      dup5\n        /* \"#utility.yul\":10793:10864   */\n      tag_323\n      jump\t// in\n    tag_474:\n        /* \"#utility.yul\":10649:10871   */\n      swap3\n      swap2\n      pop\n      pop\n      jump\t// out\n        /* \"#utility.yul\":10877:11206   */\n    tag_101:\n        /* \"#utility.yul\":10936:10942   */\n      0x00\n        /* \"#utility.yul\":10985:10987   */\n      0x20\n        /* \"#utility.yul\":10973:10982   */\n      dup3\n        /* \"#utility.yul\":10964:10971   */\n      dup5\n        /* \"#utility.yul\":10960:10983   */\n      sub\n        /* \"#utility.yul\":10956:10988   */\n      slt\n        /* \"#utility.yul\":10953:11072   */\n      iszero\n      tag_476\n      jumpi\n        /* \"#utility.yul\":10991:11070   */\n      tag_477\n      tag_286\n      jump\t// in\n    tag_477:\n        /* \"#utility.yul\":10953:11072   */\n    tag_476:\n        /* \"#utility.yul\":11111:11112   */\n      0x00\n        /* \"#utility.yul\":11136:11189   */\n      tag_478\n        /* \"#utility.yul\":11181:11188   */\n      dup5\n        /* \"#utility.yul\":11172:11178   */\n      dup3\n        /* \"#utility.yul\":11161:11170   */\n      dup6\n        /* \"#utility.yul\":11157:11179   */\n      add\n        /* \"#utility.yul\":11136:11189   */\n      tag_290\n      jump\t// in\n    tag_478:\n        /* \"#utility.yul\":11126:11189   */\n      swap2\n      pop\n        /* \"#utility.yul\":11082:11199   */\n      pop\n        /* \"#utility.yul\":10877:11206   */\n      swap3\n      swap2\n      pop\n      pop\n      jump\t// out\n        /* \"#utility.yul\":11212:11313   */\n    tag_324:\n        /* \"#utility.yul\":11248:11255   */\n      0x00\n        /* \"#utility.yul\":11288:11306   */\n      0xffffffffffffffff\n        /* \"#utility.yul\":11281:11286   */\n      dup3\n        /* \"#utility.yul\":11277:11307   */\n      and\n        /* \"#utility.yul\":11266:11307   */\n      swap1\n      pop\n        /* \"#utility.yul\":11212:11313   */\n      swap2\n      swap1\n      pop\n      jump\t// out\n        /* \"#utility.yul\":11319:11434   */\n    tag_325:\n        /* \"#utility.yul\":11404:11427   */\n      tag_481\n        /* \"#utility.yul\":11421:11426   */\n      dup2\n        /* \"#utility.yul\":11404:11427   */\n      tag_324\n      jump\t// in\n    tag_481:\n        /* \"#utility.yul\":11399:11402   */\n      dup3\n        /* \"#utility.yul\":11392:11428   */\n      mstore\n        /* \"#utility.yul\":11319:11434   */\n      pop\n      pop\n      jump\t// out\n        /* \"#utility.yul\":11440:11658   */\n    tag_110:\n        /* \"#utility.yul\":11531:11535   */\n      0x00\n        /* \"#utility.yul\":11569:11571   */\n      0x20\n        /* \"#utility.yul\":11558:11567   */\n      dup3\n        /* \"#utility.yul\":11554:11572   */\n      add\n        /* \"#utility.yul\":11546:11572   */\n      swap1\n      pop\n        /* \"#utility.yul\":11582:11651   */\n      tag_483\n        /* \"#utility.yul\":11648:11649   */\n      0x00\n        /* \"#utility.yul\":11637:11646   */\n      dup4\n        /* \"#utility.yul\":11633:11650   */\n      add\n        /* \"#utility.yul\":11624:11630   */\n      dup5\n        /* \"#utility.yul\":11582:11651   */\n      tag_325\n      jump\t// in\n    tag_483:\n        /* \"#utility.yul\":11440:11658   */\n      swap3\n      swap2\n      pop\n      pop\n      jump\t// out\n        /* \"#utility.yul\":11664:11972   */\n    tag_122:\n        /* \"#utility.yul\":11773:11777   */\n      0x00\n        /* \"#utility.yul\":11811:11813   */\n      0x40\n        /* \"#utility.yul\":11800:11809   */\n      dup3\n        /* \"#utility.yul\":11796:11814   */\n      add\n        /* \"#utility.yul\":11788:11814   */\n      swap1\n      pop\n        /* \"#utility.yul\":11824:11889   */\n      tag_485\n        /* \"#utility.yul\":11886:11887   */\n      0x00\n        /* \"#utility.yul\":11875:11884   */\n      dup4\n        /* \"#utility.yul\":11871:11888   */\n      add\n        /* \"#utility.yul\":11862:11868   */\n      dup6\n        /* \"#utility.yul\":11824:11889   */\n      tag_299\n      jump\t// in\n    tag_485:\n        /* \"#utility.yul\":11899:11965   */\n      tag_486\n        /* \"#utility.yul\":11961:11963   */\n      0x20\n        /* \"#utility.yul\":11950:11959   */\n      dup4\n        /* \"#utility.yul\":11946:11964   */\n      add\n        /* \"#utility.yul\":11937:11943   */\n      dup5\n        /* \"#utility.yul\":11899:11965   */\n      tag_299\n      jump\t// in\n    tag_486:\n        /* \"#utility.yul\":11664:11972   */\n      swap4\n      swap3\n      pop\n      pop\n      pop\n      jump\t// out\n        /* \"#utility.yul\":11978:12096   */\n    tag_326:\n        /* \"#utility.yul\":12065:12089   */\n      tag_488\n        /* \"#utility.yul\":12083:12088   */\n      dup2\n        /* \"#utility.yul\":12065:12089   */\n      tag_292\n      jump\t// in\n    tag_488:\n        /* \"#utility.yul\":12060:12063   */\n      dup3\n        /* \"#utility.yul\":12053:12090   */\n      mstore\n        /* \"#utility.yul\":11978:12096   */\n      pop\n      pop\n      jump\t// out\n        /* \"#utility.yul\":12102:12324   */\n    tag_129:\n        /* \"#utility.yul\":12195:12199   */\n      0x00\n        /* \"#utility.yul\":12233:12235   */\n      0x20\n        /* \"#utility.yul\":12222:12231   */\n      dup3\n        /* \"#utility.yul\":12218:12236   */\n      add\n        /* \"#utility.yul\":12210:12236   */\n      swap1\n      pop\n        /* \"#utility.yul\":12246:12317   */\n      tag_490\n        /* \"#utility.yul\":12314:12315   */\n      0x00\n        /* \"#utility.yul\":12303:12312   */\n      dup4\n        /* \"#utility.yul\":12299:12316   */\n      add\n        /* \"#utility.yul\":12290:12296   */\n      dup5\n        /* \"#utility.yul\":12246:12317   */\n      tag_326\n      jump\t// in\n    tag_490:\n        /* \"#utility.yul\":12102:12324   */\n      swap3\n      swap2\n      pop\n      pop\n      jump\t// out\n        /* \"#utility.yul\":12330:12419   */\n    tag_327:\n        /* \"#utility.yul\":12366:12373   */\n      0x00\n        /* \"#utility.yul\":12406:12412   */\n      0xffff\n        /* \"#utility.yul\":12399:12404   */\n      dup3\n        /* \"#utility.yul\":12395:12413   */\n      and\n        /* \"#utility.yul\":12384:12413   */\n      swap1\n      pop\n        /* \"#utility.yul\":12330:12419   */\n      swap2\n      swap1\n      pop\n      jump\t// out\n        /* \"#utility.yul\":12425:12540   */\n    tag_328:\n        /* \"#utility.yul\":12510:12533   */\n      tag_493\n        /* \"#utility.yul\":12527:12532   */\n      dup2\n        /* \"#utility.yul\":12510:12533   */\n      tag_327\n      jump\t// in\n    tag_493:\n        /* \"#utility.yul\":12505:12508   */\n      dup3\n        /* \"#utility.yul\":12498:12534   */\n      mstore\n        /* \"#utility.yul\":12425:12540   */\n      pop\n      pop\n      jump\t// out\n        /* \"#utility.yul\":12546:12764   */\n    tag_133:\n        /* \"#utility.yul\":12637:12641   */\n      0x00\n        /* \"#utility.yul\":12675:12677   */\n      0x20\n        /* \"#utility.yul\":12664:12673   */\n      dup3\n        /* \"#utility.yul\":12660:12678   */\n      add\n        /* \"#utility.yul\":12652:12678   */\n      swap1\n      pop\n        /* \"#utility.yul\":12688:12757   */\n      tag_495\n        /* \"#utility.yul\":12754:12755   */\n      0x00\n        /* \"#utility.yul\":12743:12752   */\n      dup4\n        /* \"#utility.yul\":12739:12756   */\n      add\n        /* \"#utility.yul\":12730:12736   */\n      dup5\n        /* \"#utility.yul\":12688:12757   */\n      tag_328\n      jump\t// in\n    tag_495:\n        /* \"#utility.yul\":12546:12764   */\n      swap3\n      swap2\n      pop\n      pop\n      jump\t// out\n        /* \"#utility.yul\":12770:12884   */\n    tag_329:\n        /* \"#utility.yul\":12837:12843   */\n      0x00\n        /* \"#utility.yul\":12871:12876   */\n      dup2\n        /* \"#utility.yul\":12865:12877   */\n      mload\n        /* \"#utility.yul\":12855:12877   */\n      swap1\n      pop\n        /* \"#utility.yul\":12770:12884   */\n      swap2\n      swap1\n      pop\n      jump\t// out\n        /* \"#utility.yul\":12890:13074   */\n    tag_330:\n        /* \"#utility.yul\":12989:13000   */\n      0x00\n        /* \"#utility.yul\":13023:13029   */\n      dup3\n        /* \"#utility.yul\":13018:13021   */\n      dup3\n        /* \"#utility.yul\":13011:13030   */\n      mstore\n        /* \"#utility.yul\":13063:13067   */\n      0x20\n        /* \"#utility.yul\":13058:13061   */\n      dup3\n        /* \"#utility.yul\":13054:13068   */\n      add\n        /* \"#utility.yul\":13039:13068   */\n      swap1\n      pop\n        /* \"#utility.yul\":12890:13074   */\n      swap3\n      swap2\n      pop\n      pop\n      jump\t// out\n        /* \"#utility.yul\":13080:13212   */\n    tag_331:\n        /* \"#utility.yul\":13147:13151   */\n      0x00\n        /* \"#utility.yul\":13170:13173   */\n      dup2\n        /* \"#utility.yul\":13162:13173   */\n      swap1\n      pop\n        /* \"#utility.yul\":13200:13204   */\n      0x20\n        /* \"#utility.yul\":13195:13198   */\n      dup3\n        /* \"#utility.yul\":13191:13205   */\n      add\n        /* \"#utility.yul\":13183:13205   */\n      swap1\n      pop\n        /* \"#utility.yul\":13080:13212   */\n      swap2\n      swap1\n      pop\n      jump\t// out\n        /* \"#utility.yul\":13218:13326   */\n    tag_332:\n        /* \"#utility.yul\":13295:13319   */\n      tag_500\n        /* \"#utility.yul\":13313:13318   */\n      dup2\n        /* \"#utility.yul\":13295:13319   */\n      tag_288\n      jump\t// in\n    tag_500:\n        /* \"#utility.yul\":13290:13293   */\n      dup3\n        /* \"#utility.yul\":13283:13320   */\n      mstore\n        /* \"#utility.yul\":13218:13326   */\n      pop\n      pop\n      jump\t// out\n        /* \"#utility.yul\":13332:13511   */\n    tag_333:\n        /* \"#utility.yul\":13401:13411   */\n      0x00\n        /* \"#utility.yul\":13422:13468   */\n      tag_502\n        /* \"#utility.yul\":13464:13467   */\n      dup4\n        /* \"#utility.yul\":13456:13462   */\n      dup4\n        /* \"#utility.yul\":13422:13468   */\n      tag_332\n      jump\t// in\n    tag_502:\n        /* \"#utility.yul\":13500:13504   */\n      0x20\n        /* \"#utility.yul\":13495:13498   */\n      dup4\n        /* \"#utility.yul\":13491:13505   */\n      add\n        /* \"#utility.yul\":13477:13505   */\n      swap1\n      pop\n        /* \"#utility.yul\":13332:13511   */\n      swap3\n      swap2\n      pop\n      pop\n      jump\t// out\n        /* \"#utility.yul\":13517:13630   */\n    tag_334:\n        /* \"#utility.yul\":13587:13591   */\n      0x00\n        /* \"#utility.yul\":13619:13623   */\n      0x20\n        /* \"#utility.yul\":13614:13617   */\n      dup3\n        /* \"#utility.yul\":13610:13624   */\n      add\n        /* \"#utility.yul\":13602:13624   */\n      swap1\n      pop\n        /* \"#utility.yul\":13517:13630   */\n      swap2\n      swap1\n      pop\n      jump\t// out\n        /* \"#utility.yul\":13666:14398   */\n    tag_335:\n        /* \"#utility.yul\":13785:13788   */\n      0x00\n        /* \"#utility.yul\":13814:13868   */\n      tag_505\n        /* \"#utility.yul\":13862:13867   */\n      dup3\n        /* \"#utility.yul\":13814:13868   */\n      tag_329\n      jump\t// in\n    tag_505:\n        /* \"#utility.yul\":13884:13970   */\n      tag_506\n        /* \"#utility.yul\":13963:13969   */\n      dup2\n        /* \"#utility.yul\":13958:13961   */\n      dup6\n        /* \"#utility.yul\":13884:13970   */\n      tag_330\n      jump\t// in\n    tag_506:\n        /* \"#utility.yul\":13877:13970   */\n      swap4\n      pop\n        /* \"#utility.yul\":13994:14050   */\n      tag_507\n        /* \"#utility.yul\":14044:14049   */\n      dup4\n        /* \"#utility.yul\":13994:14050   */\n      tag_331\n      jump\t// in\n    tag_507:\n        /* \"#utility.yul\":14073:14080   */\n      dup1\n        /* \"#utility.yul\":14104:14105   */\n      0x00\n        /* \"#utility.yul\":14089:14373   */\n    tag_508:\n        /* \"#utility.yul\":14114:14120   */\n      dup4\n        /* \"#utility.yul\":14111:14112   */\n      dup2\n        /* \"#utility.yul\":14108:14121   */\n      lt\n        /* \"#utility.yul\":14089:14373   */\n      iszero\n      tag_510\n      jumpi\n        /* \"#utility.yul\":14190:14196   */\n      dup2\n        /* \"#utility.yul\":14184:14197   */\n      mload\n        /* \"#utility.yul\":14217:14280   */\n      tag_511\n        /* \"#utility.yul\":14276:14279   */\n      dup9\n        /* \"#utility.yul\":14261:14274   */\n      dup3\n        /* \"#utility.yul\":14217:14280   */\n      tag_333\n      jump\t// in\n    tag_511:\n        /* \"#utility.yul\":14210:14280   */\n      swap8\n      pop\n        /* \"#utility.yul\":14303:14363   */\n      tag_512\n        /* \"#utility.yul\":14356:14362   */\n      dup4\n        /* \"#utility.yul\":14303:14363   */\n      tag_334\n      jump\t// in\n    tag_512:\n        /* \"#utility.yul\":14293:14363   */\n      swap3\n      pop\n        /* \"#utility.yul\":14149:14373   */\n      pop\n        /* \"#utility.yul\":14136:14137   */\n      0x01\n        /* \"#utility.yul\":14133:14134   */\n      dup2\n        /* \"#utility.yul\":14129:14138   */\n      add\n        /* \"#utility.yul\":14124:14138   */\n      swap1\n      pop\n        /* \"#utility.yul\":14089:14373   */\n      jump(tag_508)\n    tag_510:\n        /* \"#utility.yul\":14093:14107   */\n      pop\n        /* \"#utility.yul\":14389:14392   */\n      dup6\n        /* \"#utility.yul\":14382:14392   */\n      swap4\n      pop\n        /* \"#utility.yul\":13790:14398   */\n      pop\n      pop\n      pop\n        /* \"#utility.yul\":13666:14398   */\n      swap3\n      swap2\n      pop\n      pop\n      jump\t// out\n        /* \"#utility.yul\":14404:14875   */\n    tag_144:\n        /* \"#utility.yul\":14569:14573   */\n      0x00\n        /* \"#utility.yul\":14607:14609   */\n      0x40\n        /* \"#utility.yul\":14596:14605   */\n      dup3\n        /* \"#utility.yul\":14592:14610   */\n      add\n        /* \"#utility.yul\":14584:14610   */\n      swap1\n      pop\n        /* \"#utility.yul\":14620:14685   */\n      tag_514\n        /* \"#utility.yul\":14682:14683   */\n      0x00\n        /* \"#utility.yul\":14671:14680   */\n      dup4\n        /* \"#utility.yul\":14667:14684   */\n      add\n        /* \"#utility.yul\":14658:14664   */\n      dup6\n        /* \"#utility.yul\":14620:14685   */\n      tag_299\n      jump\t// in\n    tag_514:\n        /* \"#utility.yul\":14732:14741   */\n      dup2\n        /* \"#utility.yul\":14726:14730   */\n      dup2\n        /* \"#utility.yul\":14722:14742   */\n      sub\n        /* \"#utility.yul\":14717:14719   */\n      0x20\n        /* \"#utility.yul\":14706:14715   */\n      dup4\n        /* \"#utility.yul\":14702:14720   */\n      add\n        /* \"#utility.yul\":14695:14743   */\n      mstore\n        /* \"#utility.yul\":14760:14868   */\n      tag_515\n        /* \"#utility.yul\":14863:14867   */\n      dup2\n        /* \"#utility.yul\":14854:14860   */\n      dup5\n        /* \"#utility.yul\":14760:14868   */\n      tag_335\n      jump\t// in\n    tag_515:\n        /* \"#utility.yul\":14752:14868   */\n      swap1\n      pop\n        /* \"#utility.yul\":14404:14875   */\n      swap4\n      swap3\n      pop\n      pop\n      pop\n      jump\t// out\n        /* \"#utility.yul\":14881:15213   */\n    tag_153:\n        /* \"#utility.yul\":15002:15006   */\n      0x00\n        /* \"#utility.yul\":15040:15042   */\n      0x40\n        /* \"#utility.yul\":15029:15038   */\n      dup3\n        /* \"#utility.yul\":15025:15043   */\n      add\n        /* \"#utility.yul\":15017:15043   */\n      swap1\n      pop\n        /* \"#utility.yul\":15053:15124   */\n      tag_517\n        /* \"#utility.yul\":15121:15122   */\n      0x00\n        /* \"#utility.yul\":15110:15119   */\n      dup4\n        /* \"#utility.yul\":15106:15123   */\n      add\n        /* \"#utility.yul\":15097:15103   */\n      dup6\n        /* \"#utility.yul\":15053:15124   */\n      tag_326\n      jump\t// in\n    tag_517:\n        /* \"#utility.yul\":15134:15206   */\n      tag_518\n        /* \"#utility.yul\":15202:15204   */\n      0x20\n        /* \"#utility.yul\":15191:15200   */\n      dup4\n        /* \"#utility.yul\":15187:15205   */\n      add\n        /* \"#utility.yul\":15178:15184   */\n      dup5\n        /* \"#utility.yul\":15134:15206   */\n      tag_323\n      jump\t// in\n    tag_518:\n        /* \"#utility.yul\":14881:15213   */\n      swap4\n      swap3\n      pop\n      pop\n      pop\n      jump\t// out\n        /* \"#utility.yul\":15219:15335   */\n    tag_336:\n        /* \"#utility.yul\":15289:15310   */\n      tag_520\n        /* \"#utility.yul\":15304:15309   */\n      dup2\n        /* \"#utility.yul\":15289:15310   */\n      tag_298\n      jump\t// in\n    tag_520:\n        /* \"#utility.yul\":15282:15287   */\n      dup2\n        /* \"#utility.yul\":15279:15311   */\n      eq\n        /* \"#utility.yul\":15269:15329   */\n      tag_521\n      jumpi\n        /* \"#utility.yul\":15325:15326   */\n      0x00\n        /* \"#utility.yul\":15322:15323   */\n      dup1\n        /* \"#utility.yul\":15315:15327   */\n      revert\n        /* \"#utility.yul\":15269:15329   */\n    tag_521:\n        /* \"#utility.yul\":15219:15335   */\n      pop\n      jump\t// out\n        /* \"#utility.yul\":15341:15478   */\n    tag_337:\n        /* \"#utility.yul\":15395:15400   */\n      0x00\n        /* \"#utility.yul\":15426:15432   */\n      dup2\n        /* \"#utility.yul\":15420:15433   */\n      mload\n        /* \"#utility.yul\":15411:15433   */\n      swap1\n      pop\n        /* \"#utility.yul\":15442:15472   */\n      tag_523\n        /* \"#utility.yul\":15466:15471   */\n      dup2\n        /* \"#utility.yul\":15442:15472   */\n      tag_336\n      jump\t// in\n    tag_523:\n        /* \"#utility.yul\":15341:15478   */\n      swap3\n      swap2\n      pop\n      pop\n      jump\t// out\n        /* \"#utility.yul\":15484:15829   */\n    tag_157:\n        /* \"#utility.yul\":15551:15557   */\n      0x00\n        /* \"#utility.yul\":15600:15602   */\n      0x20\n        /* \"#utility.yul\":15588:15597   */\n      dup3\n        /* \"#utility.yul\":15579:15586   */\n      dup5\n        /* \"#utility.yul\":15575:15598   */\n      sub\n        /* \"#utility.yul\":15571:15603   */\n      slt\n        /* \"#utility.yul\":15568:15687   */\n      iszero\n      tag_525\n      jumpi\n        /* \"#utility.yul\":15606:15685   */\n      tag_526\n      tag_286\n      jump\t// in\n    tag_526:\n        /* \"#utility.yul\":15568:15687   */\n    tag_525:\n        /* \"#utility.yul\":15726:15727   */\n      0x00\n        /* \"#utility.yul\":15751:15812   */\n      tag_527\n        /* \"#utility.yul\":15804:15811   */\n      dup5\n        /* \"#utility.yul\":15795:15801   */\n      dup3\n        /* \"#utility.yul\":15784:15793   */\n      dup6\n        /* \"#utility.yul\":15780:15802   */\n      add\n        /* \"#utility.yul\":15751:15812   */\n      tag_337\n      jump\t// in\n    tag_527:\n        /* \"#utility.yul\":15741:15812   */\n      swap2\n      pop\n        /* \"#utility.yul\":15697:15822   */\n      pop\n        /* \"#utility.yul\":15484:15829   */\n      swap3\n      swap2\n      pop\n      pop\n      jump\t// out\n        /* \"#utility.yul\":15835:16163   */\n    tag_166:\n        /* \"#utility.yul\":15954:15958   */\n      0x00\n        /* \"#utility.yul\":15992:15994   */\n      0x40\n        /* \"#utility.yul\":15981:15990   */\n      dup3\n        /* \"#utility.yul\":15977:15995   */\n      add\n        /* \"#utility.yul\":15969:15995   */\n      swap1\n      pop\n        /* \"#utility.yul\":16005:16074   */\n      tag_529\n        /* \"#utility.yul\":16071:16072   */\n      0x00\n        /* \"#utility.yul\":16060:16069   */\n      dup4\n        /* \"#utility.yul\":16056:16073   */\n      add\n        /* \"#utility.yul\":16047:16053   */\n      dup6\n        /* \"#utility.yul\":16005:16074   */\n      tag_325\n      jump\t// in\n    tag_529:\n        /* \"#utility.yul\":16084:16156   */\n      tag_530\n        /* \"#utility.yul\":16152:16154   */\n      0x20\n        /* \"#utility.yul\":16141:16150   */\n      dup4\n        /* \"#utility.yul\":16137:16155   */\n      add\n        /* \"#utility.yul\":16128:16134   */\n      dup5\n        /* \"#utility.yul\":16084:16156   */\n      tag_326\n      jump\t// in\n    tag_530:\n        /* \"#utility.yul\":15835:16163   */\n      swap4\n      swap3\n      pop\n      pop\n      pop\n      jump\t// out\n        /* \"#utility.yul\":16169:16501   */\n    tag_182:\n        /* \"#utility.yul\":16290:16294   */\n      0x00\n        /* \"#utility.yul\":16328:16330   */\n      0x40\n        /* \"#utility.yul\":16317:16326   */\n      dup3\n        /* \"#utility.yul\":16313:16331   */\n      add\n        /* \"#utility.yul\":16305:16331   */\n      swap1\n      pop\n        /* \"#utility.yul\":16341:16412   */\n      tag_532\n        /* \"#utility.yul\":16409:16410   */\n      0x00\n        /* \"#utility.yul\":16398:16407   */\n      dup4\n        /* \"#utility.yul\":16394:16411   */\n      add\n        /* \"#utility.yul\":16385:16391   */\n      dup6\n        /* \"#utility.yul\":16341:16412   */\n      tag_326\n      jump\t// in\n    tag_532:\n        /* \"#utility.yul\":16422:16494   */\n      tag_533\n        /* \"#utility.yul\":16490:16492   */\n      0x20\n        /* \"#utility.yul\":16479:16488   */\n      dup4\n        /* \"#utility.yul\":16475:16493   */\n      add\n        /* \"#utility.yul\":16466:16472   */\n      dup5\n        /* \"#utility.yul\":16422:16494   */\n      tag_326\n      jump\t// in\n    tag_533:\n        /* \"#utility.yul\":16169:16501   */\n      swap4\n      swap3\n      pop\n      pop\n      pop\n      jump\t// out\n        /* \"#utility.yul\":16507:16592   */\n    tag_338:\n        /* \"#utility.yul\":16552:16559   */\n      0x00\n        /* \"#utility.yul\":16581:16586   */\n      dup2\n        /* \"#utility.yul\":16570:16586   */\n      swap1\n      pop\n        /* \"#utility.yul\":16507:16592   */\n      swap2\n      swap1\n      pop\n      jump\t// out\n        /* \"#utility.yul\":16598:16754   */\n    tag_339:\n        /* \"#utility.yul\":16655:16664   */\n      0x00\n        /* \"#utility.yul\":16688:16748   */\n      tag_536\n        /* \"#utility.yul\":16705:16747   */\n      tag_537\n        /* \"#utility.yul\":16714:16746   */\n      tag_538\n        /* \"#utility.yul\":16740:16745   */\n      dup5\n        /* \"#utility.yul\":16714:16746   */\n      tag_338\n      jump\t// in\n    tag_538:\n        /* \"#utility.yul\":16705:16747   */\n      tag_300\n      jump\t// in\n    tag_537:\n        /* \"#utility.yul\":16688:16748   */\n      tag_317\n      jump\t// in\n    tag_536:\n        /* \"#utility.yul\":16675:16748   */\n      swap1\n      pop\n        /* \"#utility.yul\":16598:16754   */\n      swap2\n      swap1\n      pop\n      jump\t// out\n        /* \"#utility.yul\":16760:16905   */\n    tag_340:\n        /* \"#utility.yul\":16854:16898   */\n      tag_540\n        /* \"#utility.yul\":16892:16897   */\n      dup2\n        /* \"#utility.yul\":16854:16898   */\n      tag_339\n      jump\t// in\n    tag_540:\n        /* \"#utility.yul\":16849:16852   */\n      dup3\n        /* \"#utility.yul\":16842:16899   */\n      mstore\n        /* \"#utility.yul\":16760:16905   */\n      pop\n      pop\n      jump\t// out\n        /* \"#utility.yul\":16911:17577   */\n    tag_201:\n        /* \"#utility.yul\":17117:17121   */\n      0x00\n        /* \"#utility.yul\":17155:17158   */\n      0xa0\n        /* \"#utility.yul\":17144:17153   */\n      dup3\n        /* \"#utility.yul\":17140:17159   */\n      add\n        /* \"#utility.yul\":17132:17159   */\n      swap1\n      pop\n        /* \"#utility.yul\":17169:17240   */\n      tag_542\n        /* \"#utility.yul\":17237:17238   */\n      0x00\n        /* \"#utility.yul\":17226:17235   */\n      dup4\n        /* \"#utility.yul\":17222:17239   */\n      add\n        /* \"#utility.yul\":17213:17219   */\n      dup9\n        /* \"#utility.yul\":17169:17240   */\n      tag_316\n      jump\t// in\n    tag_542:\n        /* \"#utility.yul\":17250:17320   */\n      tag_543\n        /* \"#utility.yul\":17316:17318   */\n      0x20\n        /* \"#utility.yul\":17305:17314   */\n      dup4\n        /* \"#utility.yul\":17301:17319   */\n      add\n        /* \"#utility.yul\":17292:17298   */\n      dup8\n        /* \"#utility.yul\":17250:17320   */\n      tag_325\n      jump\t// in\n    tag_543:\n        /* \"#utility.yul\":17330:17400   */\n      tag_544\n        /* \"#utility.yul\":17396:17398   */\n      0x40\n        /* \"#utility.yul\":17385:17394   */\n      dup4\n        /* \"#utility.yul\":17381:17399   */\n      add\n        /* \"#utility.yul\":17372:17378   */\n      dup7\n        /* \"#utility.yul\":17330:17400   */\n      tag_328\n      jump\t// in\n    tag_544:\n        /* \"#utility.yul\":17410:17480   */\n      tag_545\n        /* \"#utility.yul\":17476:17478   */\n      0x60\n        /* \"#utility.yul\":17465:17474   */\n      dup4\n        /* \"#utility.yul\":17461:17479   */\n      add\n        /* \"#utility.yul\":17452:17458   */\n      dup6\n        /* \"#utility.yul\":17410:17480   */\n      tag_318\n      jump\t// in\n    tag_545:\n        /* \"#utility.yul\":17490:17570   */\n      tag_546\n        /* \"#utility.yul\":17565:17568   */\n      0x80\n        /* \"#utility.yul\":17554:17563   */\n      dup4\n        /* \"#utility.yul\":17550:17569   */\n      add\n        /* \"#utility.yul\":17541:17547   */\n      dup5\n        /* \"#utility.yul\":17490:17570   */\n      tag_340\n      jump\t// in\n    tag_546:\n        /* \"#utility.yul\":16911:17577   */\n      swap7\n      swap6\n      pop\n      pop\n      pop\n      pop\n      pop\n      pop\n      jump\t// out\n        /* \"#utility.yul\":17583:17726   */\n    tag_341:\n        /* \"#utility.yul\":17640:17645   */\n      0x00\n        /* \"#utility.yul\":17671:17677   */\n      dup2\n        /* \"#utility.yul\":17665:17678   */\n      mload\n        /* \"#utility.yul\":17656:17678   */\n      swap1\n      pop\n        /* \"#utility.yul\":17687:17720   */\n      tag_548\n        /* \"#utility.yul\":17714:17719   */\n      dup2\n        /* \"#utility.yul\":17687:17720   */\n      tag_289\n      jump\t// in\n    tag_548:\n        /* \"#utility.yul\":17583:17726   */\n      swap3\n      swap2\n      pop\n      pop\n      jump\t// out\n        /* \"#utility.yul\":17732:18083   */\n    tag_205:\n        /* \"#utility.yul\":17802:17808   */\n      0x00\n        /* \"#utility.yul\":17851:17853   */\n      0x20\n        /* \"#utility.yul\":17839:17848   */\n      dup3\n        /* \"#utility.yul\":17830:17837   */\n      dup5\n        /* \"#utility.yul\":17826:17849   */\n      sub\n        /* \"#utility.yul\":17822:17854   */\n      slt\n        /* \"#utility.yul\":17819:17938   */\n      iszero\n      tag_550\n      jumpi\n        /* \"#utility.yul\":17857:17936   */\n      tag_551\n      tag_286\n      jump\t// in\n    tag_551:\n        /* \"#utility.yul\":17819:17938   */\n    tag_550:\n        /* \"#utility.yul\":17977:17978   */\n      0x00\n        /* \"#utility.yul\":18002:18066   */\n      tag_552\n        /* \"#utility.yul\":18058:18065   */\n      dup5\n        /* \"#utility.yul\":18049:18055   */\n      dup3\n        /* \"#utility.yul\":18038:18047   */\n      dup6\n        /* \"#utility.yul\":18034:18056   */\n      add\n        /* \"#utility.yul\":18002:18066   */\n      tag_341\n      jump\t// in\n    tag_552:\n        /* \"#utility.yul\":17992:18066   */\n      swap2\n      pop\n        /* \"#utility.yul\":17948:18076   */\n      pop\n        /* \"#utility.yul\":17732:18083   */\n      swap3\n      swap2\n      pop\n      pop\n      jump\t// out\n        /* \"#utility.yul\":18089:18421   */\n    tag_214:\n        /* \"#utility.yul\":18210:18214   */\n      0x00\n        /* \"#utility.yul\":18248:18250   */\n      0x40\n        /* \"#utility.yul\":18237:18246   */\n      dup3\n        /* \"#utility.yul\":18233:18251   */\n      add\n        /* \"#utility.yul\":18225:18251   */\n      swap1\n      pop\n        /* \"#utility.yul\":18261:18332   */\n      tag_554\n        /* \"#utility.yul\":18329:18330   */\n      0x00\n        /* \"#utility.yul\":18318:18327   */\n      dup4\n        /* \"#utility.yul\":18314:18331   */\n      add\n        /* \"#utility.yul\":18305:18311   */\n      dup6\n        /* \"#utility.yul\":18261:18332   */\n      tag_323\n      jump\t// in\n    tag_554:\n        /* \"#utility.yul\":18342:18414   */\n      tag_555\n        /* \"#utility.yul\":18410:18412   */\n      0x20\n        /* \"#utility.yul\":18399:18408   */\n      dup4\n        /* \"#utility.yul\":18395:18413   */\n      add\n        /* \"#utility.yul\":18386:18392   */\n      dup5\n        /* \"#utility.yul\":18342:18414   */\n      tag_326\n      jump\t// in\n    tag_555:\n        /* \"#utility.yul\":18089:18421   */\n      swap4\n      swap3\n      pop\n      pop\n      pop\n      jump\t// out\n        /* \"#utility.yul\":18427:18525   */\n    tag_342:\n        /* \"#utility.yul\":18478:18484   */\n      0x00\n        /* \"#utility.yul\":18512:18517   */\n      dup2\n        /* \"#utility.yul\":18506:18518   */\n      mload\n        /* \"#utility.yul\":18496:18518   */\n      swap1\n      pop\n        /* \"#utility.yul\":18427:18525   */\n      swap2\n      swap1\n      pop\n      jump\t// out\n        /* \"#utility.yul\":18531:18699   */\n    tag_343:\n        /* \"#utility.yul\":18614:18625   */\n      0x00\n        /* \"#utility.yul\":18648:18654   */\n      dup3\n        /* \"#utility.yul\":18643:18646   */\n      dup3\n        /* \"#utility.yul\":18636:18655   */\n      mstore\n        /* \"#utility.yul\":18688:18692   */\n      0x20\n        /* \"#utility.yul\":18683:18686   */\n      dup3\n        /* \"#utility.yul\":18679:18693   */\n      add\n        /* \"#utility.yul\":18664:18693   */\n      swap1\n      pop\n        /* \"#utility.yul\":18531:18699   */\n      swap3\n      swap2\n      pop\n      pop\n      jump\t// out\n        /* \"#utility.yul\":18705:18951   */\n    tag_344:\n        /* \"#utility.yul\":18786:18787   */\n      0x00\n        /* \"#utility.yul\":18796:18909   */\n    tag_559:\n        /* \"#utility.yul\":18810:18816   */\n      dup4\n        /* \"#utility.yul\":18807:18808   */\n      dup2\n        /* \"#utility.yul\":18804:18817   */\n      lt\n        /* \"#utility.yul\":18796:18909   */\n      iszero\n      tag_561\n      jumpi\n        /* \"#utility.yul\":18895:18896   */\n      dup1\n        /* \"#utility.yul\":18890:18893   */\n      dup3\n        /* \"#utility.yul\":18886:18897   */\n      add\n        /* \"#utility.yul\":18880:18898   */\n      mload\n        /* \"#utility.yul\":18876:18877   */\n      dup2\n        /* \"#utility.yul\":18871:18874   */\n      dup5\n        /* \"#utility.yul\":18867:18878   */\n      add\n        /* \"#utility.yul\":18860:18899   */\n      mstore\n        /* \"#utility.yul\":18832:18834   */\n      0x20\n        /* \"#utility.yul\":18829:18830   */\n      dup2\n        /* \"#utility.yul\":18825:18835   */\n      add\n        /* \"#utility.yul\":18820:18835   */\n      swap1\n      pop\n        /* \"#utility.yul\":18796:18909   */\n      jump(tag_559)\n    tag_561:\n        /* \"#utility.yul\":18943:18944   */\n      0x00\n        /* \"#utility.yul\":18934:18940   */\n      dup5\n        /* \"#utility.yul\":18929:18932   */\n      dup5\n        /* \"#utility.yul\":18925:18941   */\n      add\n        /* \"#utility.yul\":18918:18945   */\n      mstore\n        /* \"#utility.yul\":18767:18951   */\n      pop\n        /* \"#utility.yul\":18705:18951   */\n      pop\n      pop\n      pop\n      jump\t// out\n        /* \"#utility.yul\":18957:19330   */\n    tag_345:\n        /* \"#utility.yul\":19043:19046   */\n      0x00\n        /* \"#utility.yul\":19071:19109   */\n      tag_563\n        /* \"#utility.yul\":19103:19108   */\n      dup3\n        /* \"#utility.yul\":19071:19109   */\n      tag_342\n      jump\t// in\n    tag_563:\n        /* \"#utility.yul\":19125:19195   */\n      tag_564\n        /* \"#utility.yul\":19188:19194   */\n      dup2\n        /* \"#utility.yul\":19183:19186   */\n      dup6\n        /* \"#utility.yul\":19125:19195   */\n      tag_343\n      jump\t// in\n    tag_564:\n        /* \"#utility.yul\":19118:19195   */\n      swap4\n      pop\n        /* \"#utility.yul\":19204:19269   */\n      tag_565\n        /* \"#utility.yul\":19262:19268   */\n      dup2\n        /* \"#utility.yul\":19257:19260   */\n      dup6\n        /* \"#utility.yul\":19250:19254   */\n      0x20\n        /* \"#utility.yul\":19243:19248   */\n      dup7\n        /* \"#utility.yul\":19239:19255   */\n      add\n        /* \"#utility.yul\":19204:19269   */\n      tag_344\n      jump\t// in\n    tag_565:\n        /* \"#utility.yul\":19294:19323   */\n      tag_566\n        /* \"#utility.yul\":19316:19322   */\n      dup2\n        /* \"#utility.yul\":19294:19323   */\n      tag_306\n      jump\t// in\n    tag_566:\n        /* \"#utility.yul\":19289:19292   */\n      dup5\n        /* \"#utility.yul\":19285:19324   */\n      add\n        /* \"#utility.yul\":19278:19324   */\n      swap2\n      pop\n        /* \"#utility.yul\":19047:19330   */\n      pop\n        /* \"#utility.yul\":18957:19330   */\n      swap3\n      swap2\n      pop\n      pop\n      jump\t// out\n        /* \"#utility.yul\":19336:19865   */\n    tag_220:\n        /* \"#utility.yul\":19503:19507   */\n      0x00\n        /* \"#utility.yul\":19541:19543   */\n      0x60\n        /* \"#utility.yul\":19530:19539   */\n      dup3\n        /* \"#utility.yul\":19526:19544   */\n      add\n        /* \"#utility.yul\":19518:19544   */\n      swap1\n      pop\n        /* \"#utility.yul\":19554:19625   */\n      tag_568\n        /* \"#utility.yul\":19622:19623   */\n      0x00\n        /* \"#utility.yul\":19611:19620   */\n      dup4\n        /* \"#utility.yul\":19607:19624   */\n      add\n        /* \"#utility.yul\":19598:19604   */\n      dup7\n        /* \"#utility.yul\":19554:19625   */\n      tag_326\n      jump\t// in\n    tag_568:\n        /* \"#utility.yul\":19635:19707   */\n      tag_569\n        /* \"#utility.yul\":19703:19705   */\n      0x20\n        /* \"#utility.yul\":19692:19701   */\n      dup4\n        /* \"#utility.yul\":19688:19706   */\n      add\n        /* \"#utility.yul\":19679:19685   */\n      dup6\n        /* \"#utility.yul\":19635:19707   */\n      tag_323\n      jump\t// in\n    tag_569:\n        /* \"#utility.yul\":19754:19763   */\n      dup2\n        /* \"#utility.yul\":19748:19752   */\n      dup2\n        /* \"#utility.yul\":19744:19764   */\n      sub\n        /* \"#utility.yul\":19739:19741   */\n      0x40\n        /* \"#utility.yul\":19728:19737   */\n      dup4\n        /* \"#utility.yul\":19724:19742   */\n      add\n        /* \"#utility.yul\":19717:19765   */\n      mstore\n        /* \"#utility.yul\":19782:19858   */\n      tag_570\n        /* \"#utility.yul\":19853:19857   */\n      dup2\n        /* \"#utility.yul\":19844:19850   */\n      dup5\n        /* \"#utility.yul\":19782:19858   */\n      tag_345\n      jump\t// in\n    tag_570:\n        /* \"#utility.yul\":19774:19858   */\n      swap1\n      pop\n        /* \"#utility.yul\":19336:19865   */\n      swap5\n      swap4\n      pop\n      pop\n      pop\n      pop\n      jump\t// out\n        /* \"#utility.yul\":19871:20354   */\n    tag_262:\n        /* \"#utility.yul\":20042:20046   */\n      0x00\n        /* \"#utility.yul\":20080:20082   */\n      0x40\n        /* \"#utility.yul\":20069:20078   */\n      dup3\n        /* \"#utility.yul\":20065:20083   */\n      add\n        /* \"#utility.yul\":20057:20083   */\n      swap1\n      pop\n        /* \"#utility.yul\":20093:20164   */\n      tag_572\n        /* \"#utility.yul\":20161:20162   */\n      0x00\n        /* \"#utility.yul\":20150:20159   */\n      dup4\n        /* \"#utility.yul\":20146:20163   */\n      add\n        /* \"#utility.yul\":20137:20143   */\n      dup6\n        /* \"#utility.yul\":20093:20164   */\n      tag_323\n      jump\t// in\n    tag_572:\n        /* \"#utility.yul\":20211:20220   */\n      dup2\n        /* \"#utility.yul\":20205:20209   */\n      dup2\n        /* \"#utility.yul\":20201:20221   */\n      sub\n        /* \"#utility.yul\":20196:20198   */\n      0x20\n        /* \"#utility.yul\":20185:20194   */\n      dup4\n        /* \"#utility.yul\":20181:20199   */\n      add\n        /* \"#utility.yul\":20174:20222   */\n      mstore\n        /* \"#utility.yul\":20239:20347   */\n      tag_573\n        /* \"#utility.yul\":20342:20346   */\n      dup2\n        /* \"#utility.yul\":20333:20339   */\n      dup5\n        /* \"#utility.yul\":20239:20347   */\n      tag_335\n      jump\t// in\n    tag_573:\n        /* \"#utility.yul\":20231:20347   */\n      swap1\n      pop\n        /* \"#utility.yul\":19871:20354   */\n      swap4\n      swap3\n      pop\n      pop\n      pop\n      jump\t// out\n        /* \"#utility.yul\":20360:20692   */\n    tag_277:\n        /* \"#utility.yul\":20481:20485   */\n      0x00\n        /* \"#utility.yul\":20519:20521   */\n      0x40\n        /* \"#utility.yul\":20508:20517   */\n      dup3\n        /* \"#utility.yul\":20504:20522   */\n      add\n        /* \"#utility.yul\":20496:20522   */\n      swap1\n      pop\n        /* \"#utility.yul\":20532:20603   */\n      tag_575\n        /* \"#utility.yul\":20600:20601   */\n      0x00\n        /* \"#utility.yul\":20589:20598   */\n      dup4\n        /* \"#utility.yul\":20585:20602   */\n      add\n        /* \"#utility.yul\":20576:20582   */\n      dup6\n        /* \"#utility.yul\":20532:20603   */\n      tag_326\n      jump\t// in\n    tag_575:\n        /* \"#utility.yul\":20613:20685   */\n      tag_576\n        /* \"#utility.yul\":20681:20683   */\n      0x20\n        /* \"#utility.yul\":20670:20679   */\n      dup4\n        /* \"#utility.yul\":20666:20684   */\n      add\n        /* \"#utility.yul\":20657:20663   */\n      dup5\n        /* \"#utility.yul\":20613:20685   */\n      tag_316\n      jump\t// in\n    tag_576:\n        /* \"#utility.yul\":20360:20692   */\n      swap4\n      swap3\n      pop\n      pop\n      pop\n      jump\t// out\n\n    auxdata: 0xa2646970667358221220bd89a7938c152c32ae34c40a84f40f95713e47d8aca8ba5c5ae7756dafe0d07f64736f6c63430008170033\n}\n",
				"bytecode": {
					"linkReferences": {},
					"object": "60a06040523480156200001157600080fd5b5060405162002898380380620028988339818101604052810190620000379190620005ff565b848073ffffffffffffffffffffffffffffffffffffffff1660808173ffffffffffffffffffffffffffffffffffffffff168152505050620000826000801b876200016660201b60201c565b5084600160006101000a81548173ffffffffffffffffffffffffffffffffffffffff021916908373ffffffffffffffffffffffffffffffffffffffff16021790555083600260006101000a81548173ffffffffffffffffffffffffffffffffffffffff021916908373ffffffffffffffffffffffffffffffffffffffff1602179055508260068190555081600760026101000a81548163ffffffff021916908363ffffffff16021790555080600760006101000a81548161ffff021916908361ffff1602179055506200015a6200026960201b60201c565b5050505050506200079f565b60006200017a8383620003e860201b60201c565b6200025e57600160008085815260200190815260200160002060000160008473ffffffffffffffffffffffffffffffffffffffff1673ffffffffffffffffffffffffffffffffffffffff16815260200190815260200160002060006101000a81548160ff021916908315150217905550620001fa6200045260201b60201c565b73ffffffffffffffffffffffffffffffffffffffff168273ffffffffffffffffffffffffffffffffffffffff16847f2f8788117e7eff1d82e926ec794901d17c78024a50270940304540a733656f0d60405160405180910390a46001905062000263565b600090505b92915050565b6000801b6200027e816200045a60201b60201c565b600160009054906101000a900473ffffffffffffffffffffffffffffffffffffffff1673ffffffffffffffffffffffffffffffffffffffff1663a21a23e46040518163ffffffff1660e01b81526004016020604051808303816000875af1158015620002ee573d6000803e3d6000fd5b505050506040513d601f19601f82011682018060405250810190620003149190620006e0565b600760066101000a81548167ffffffffffffffff021916908367ffffffffffffffff160217905550600160009054906101000a900473ffffffffffffffffffffffffffffffffffffffff1673ffffffffffffffffffffffffffffffffffffffff16637341c10c600760069054906101000a900467ffffffffffffffff16306040518363ffffffff1660e01b8152600401620003b192919062000734565b600060405180830381600087803b158015620003cc57600080fd5b505af1158015620003e1573d6000803e3d6000fd5b5050505050565b600080600084815260200190815260200160002060000160008373ffffffffffffffffffffffffffffffffffffffff1673ffffffffffffffffffffffffffffffffffffffff16815260200190815260200160002060009054906101000a900460ff16905092915050565b600033905090565b6200047b816200046f6200045260201b60201c565b6200047e60201b60201c565b50565b620004908282620003e860201b60201c565b620004d65780826040517fe2517d3f000000000000000000000000000000000000000000000000000000008152600401620004cd92919062000772565b60405180910390fd5b5050565b600080fd5b600073ffffffffffffffffffffffffffffffffffffffff82169050919050565b60006200050c82620004df565b9050919050565b6200051e81620004ff565b81146200052a57600080fd5b50565b6000815190506200053e8162000513565b92915050565b6000819050919050565b620005598162000544565b81146200056557600080fd5b50565b60008151905062000579816200054e565b92915050565b600063ffffffff82169050919050565b6200059a816200057f565b8114620005a657600080fd5b50565b600081519050620005ba816200058f565b92915050565b600061ffff82169050919050565b620005d981620005c0565b8114620005e557600080fd5b50565b600081519050620005f981620005ce565b92915050565b60008060008060008060c087890312156200061f576200061e620004da565b5b60006200062f89828a016200052d565b96505060206200064289828a016200052d565b95505060406200065589828a016200052d565b94505060606200066889828a0162000568565b93505060806200067b89828a01620005a9565b92505060a06200068e89828a01620005e8565b9150509295509295509295565b600067ffffffffffffffff82169050919050565b620006ba816200069b565b8114620006c657600080fd5b50565b600081519050620006da81620006af565b92915050565b600060208284031215620006f957620006f8620004da565b5b60006200070984828501620006c9565b91505092915050565b6200071d816200069b565b82525050565b6200072e81620004ff565b82525050565b60006040820190506200074b600083018562000712565b6200075a602083018462000723565b9392505050565b6200076c8162000544565b82525050565b600060408201905062000789600083018562000723565b62000798602083018462000761565b9392505050565b6080516120d6620007c26000396000818161086801526108bc01526120d66000f3fe608060405234801561001057600080fd5b50600436106101c35760003560e01c806380c95b14116100f9578063a217fddf11610097578063bdf1e06d11610071578063bdf1e06d146104f5578063d547741f14610511578063d8a4676f1461052d578063fc2a88c31461055e576101c3565b8063a217fddf1461049b578063a3e56fa8146104b9578063b0fb162f146104d7576101c3565b80638ac00021116100d35780638ac000211461040057806391d148541461041e57806393d81d581461044e578063a168fa891461046a576101c3565b806380c95b141461038457806386850e93146103b45780638796ba8c146103d0576101c3565b806324f74697116101665780633b2bcbf1116101405780633b2bcbf11461030c5780634430db7e1461032a57806355380dfb1461034857806361728f3914610366576101c3565b806324f74697146102b65780632f2ff15d146102d457806336568abe146102f0576101c3565b80630fa08046116101a25780630fa0804614610230578063112940f91461024e5780631fe543e31461026a578063248a9ca314610286576101c3565b8062f714ce146101c857806301ffc9a7146101e45780630e27e3df14610214575b600080fd5b6101e260048036038101906101dd91906116d9565b61057c565b005b6101fe60048036038101906101f99190611771565b61062f565b60405161020b91906117b9565b60405180910390f35b61022e600480360381019061022991906117d4565b6106a9565b005b61023861075f565b6040516102459190611860565b60405180910390f35b610268600480360381019061026391906117d4565b610785565b005b610284600480360381019061027f91906119d4565b610866565b005b6102a0600480360381019061029b9190611a66565b610926565b6040516102ad9190611aa2565b60405180910390f35b6102be610945565b6040516102cb9190611adc565b60405180910390f35b6102ee60048036038101906102e99190611af7565b61095b565b005b61030a60048036038101906103059190611af7565b61097d565b005b6103146109f8565b6040516103219190611b58565b60405180910390f35b610332610a1e565b60405161033f9190611aa2565b60405180910390f35b610350610a42565b60405161035d9190611b94565b60405180910390f35b61036e610a68565b60405161037b9190611aa2565b60405180910390f35b61039e600480360381019061039991906117d4565b610a6e565b6040516103ab9190611bbe565b60405180910390f35b6103ce60048036038101906103c99190611bd9565b610cc9565b005b6103ea60048036038101906103e59190611bd9565b610dd4565b6040516103f79190611bbe565b60405180910390f35b610408610df8565b6040516104159190611c29565b60405180910390f35b61043860048036038101906104339190611af7565b610e12565b60405161044591906117b9565b60405180910390f35b610468600480360381019061046391906117d4565b610e7c565b005b610484600480360381019061047f9190611bd9565b610f5c565b604051610492929190611c44565b60405180910390f35b6104a3610f9a565b6040516104b09190611aa2565b60405180910390f35b6104c1610fa1565b6040516104ce9190611c7c565b60405180910390f35b6104df610fc7565b6040516104ec9190611cb4565b60405180910390f35b61050f600480360381019061050a91906117d4565b610fdb565b005b61052b60048036038101906105269190611af7565b61102d565b005b61054760048036038101906105429190611bd9565b61104f565b604051610555929190611d8d565b60405180910390f35b61056661117c565b6040516105739190611bbe565b60405180910390f35b6000801b61058981611182565b600260009054906101000a900473ffffffffffffffffffffffffffffffffffffffff1673ffffffffffffffffffffffffffffffffffffffff1663a9059cbb83856040518363ffffffff1660e01b81526004016105e6929190611dbd565b6020604051808303816000875af1158015610605573d6000803e3d6000fd5b505050506040513d601f19601f820116820180604052508101906106299190611e12565b50505050565b60007f7965db0b000000000000000000000000000000000000000000000000000000007bffffffffffffffffffffffffffffffffffffffffffffffffffffffff1916827bffffffffffffffffffffffffffffffffffffffffffffffffffffffff191614806106a257506106a182611196565b5b9050919050565b6000801b6106b681611182565b600160009054906101000a900473ffffffffffffffffffffffffffffffffffffffff1673ffffffffffffffffffffffffffffffffffffffff16639f87fad7600760069054906101000a900467ffffffffffffffff16846040518363ffffffff1660e01b8152600401610729929190611e3f565b600060405180830381600087803b15801561074357600080fd5b505af1158015610757573d6000803e3d6000fd5b505050505050565b600360009054906101000a900473ffffffffffffffffffffffffffffffffffffffff1681565b6000801b61079281611182565b600160009054906101000a900473ffffffffffffffffffffffffffffffffffffffff1673ffffffffffffffffffffffffffffffffffffffff16637341c10c600760069054906101000a900467ffffffffffffffff16846040518363ffffffff1660e01b8152600401610805929190611e3f565b600060405180830381600087803b15801561081f57600080fd5b505af1158015610833573d6000803e3d6000fd5b505050506108617f61a3517f153a09154844ed8be639dabc6e78dc22315c2d9a91f7eddf9398c00283611200565b505050565b7f000000000000000000000000000000000000000000000000000000000000000073ffffffffffffffffffffffffffffffffffffffff163373ffffffffffffffffffffffffffffffffffffffff161461091857337f00000000000000000000000000000000000000000000000000000000000000006040517f1cf993f400000000000000000000000000000000000000000000000000000000815260040161090f929190611e68565b60405180910390fd5b61092282826112f1565b5050565b6000806000838152602001908152602001600020600101549050919050565b600760029054906101000a900463ffffffff1681565b61096482610926565b61096d81611182565b6109778383611200565b50505050565b61098561147c565b73ffffffffffffffffffffffffffffffffffffffff168173ffffffffffffffffffffffffffffffffffffffff16146109e9576040517f6697b23200000000000000000000000000000000000000000000000000000000815260040160405180910390fd5b6109f38282611484565b505050565b600160009054906101000a900473ffffffffffffffffffffffffffffffffffffffff1681565b7f61a3517f153a09154844ed8be639dabc6e78dc22315c2d9a91f7eddf9398c00281565b600260009054906101000a900473ffffffffffffffffffffffffffffffffffffffff1681565b60065481565b60007f61a3517f153a09154844ed8be639dabc6e78dc22315c2d9a91f7eddf9398c002610a9a81611182565b600160009054906101000a900473ffffffffffffffffffffffffffffffffffffffff1673ffffffffffffffffffffffffffffffffffffffff16635d3b1d30600654600760069054906101000a900467ffffffffffffffff16600760009054906101000a900461ffff16600760029054906101000a900463ffffffff1660016040518663ffffffff1660e01b8152600401610b38959493929190611ecc565b6020604051808303816000875af1158015610b57573d6000803e3d6000fd5b505050506040513d601f19601f82011682018060405250810190610b7b9190611f34565b91506040518060600160405280600015158152602001600115158152602001600067ffffffffffffffff811115610bb557610bb4611891565b5b604051908082528060200260200182016040528015610be35781602001602082028036833780820191505090505b508152506004600084815260200190815260200160002060008201518160000160006101000a81548160ff02191690831515021790555060208201518160000160016101000a81548160ff0219169083151502179055506040820151816001019080519060200190610c569291906115c7565b509050506008829080600181540180825580915050600190039060005260206000200160009091909190915055816009819055507f48b98ad7a8a8dbe21cc82bf98710ad4d2cdd949ccac393692e4d9a1722c162c78284604051610cbb929190611f61565b60405180910390a150919050565b6000801b610cd681611182565b600260009054906101000a900473ffffffffffffffffffffffffffffffffffffffff1673ffffffffffffffffffffffffffffffffffffffff16634000aea0600160009054906101000a900473ffffffffffffffffffffffffffffffffffffffff1684600760069054906101000a900467ffffffffffffffff16604051602001610d5f9190611c29565b6040516020818303038152906040526040518463ffffffff1660e01b8152600401610d8c93929190612009565b6020604051808303816000875af1158015610dab573d6000803e3d6000fd5b505050506040513d601f19601f82011682018060405250810190610dcf9190611e12565b505050565b60088181548110610de457600080fd5b906000526020600020016000915090505481565b600760069054906101000a900467ffffffffffffffff1681565b600080600084815260200190815260200160002060000160008373ffffffffffffffffffffffffffffffffffffffff1673ffffffffffffffffffffffffffffffffffffffff16815260200190815260200160002060009054906101000a900460ff16905092915050565b6000801b610e8981611182565b600160009054906101000a900473ffffffffffffffffffffffffffffffffffffffff1673ffffffffffffffffffffffffffffffffffffffff1663d7ae1d30600760069054906101000a900467ffffffffffffffff16846040518363ffffffff1660e01b8152600401610efc929190611e3f565b600060405180830381600087803b158015610f1657600080fd5b505af1158015610f2a573d6000803e3d6000fd5b505050506000600760066101000a81548167ffffffffffffffff021916908367ffffffffffffffff1602179055505050565b60046020528060005260406000206000915090508060000160009054906101000a900460ff16908060000160019054906101000a900460ff16905082565b6000801b81565b600560009054906101000a900473ffffffffffffffffffffffffffffffffffffffff1681565b600760009054906101000a900461ffff1681565b6000801b610fe881611182565b81600360006101000a81548173ffffffffffffffffffffffffffffffffffffffff021916908373ffffffffffffffffffffffffffffffffffffffff1602179055505050565b61103682610926565b61103f81611182565b6110498383611484565b50505050565b600060606004600084815260200190815260200160002060000160019054906101000a900460ff166110b857826040517f9a1cfbfd0000000000000000000000000000000000000000000000000000000081526004016110af9190611bbe565b60405180910390fd5b6000600460008581526020019081526020016000206040518060600160405290816000820160009054906101000a900460ff161515151581526020016000820160019054906101000a900460ff161515151581526020016001820180548060200260200160405190810160405280929190818152602001828054801561115d57602002820191906000526020600020905b815481526020019060010190808311611149575b5050505050815250509050806000015181604001519250925050915091565b60095481565b6111938161118e61147c565b611576565b50565b60007f01ffc9a7000000000000000000000000000000000000000000000000000000007bffffffffffffffffffffffffffffffffffffffffffffffffffffffff1916827bffffffffffffffffffffffffffffffffffffffffffffffffffffffff1916149050919050565b600061120c8383610e12565b6112e657600160008085815260200190815260200160002060000160008473ffffffffffffffffffffffffffffffffffffffff1673ffffffffffffffffffffffffffffffffffffffff16815260200190815260200160002060006101000a81548160ff02191690831515021790555061128361147c565b73ffffffffffffffffffffffffffffffffffffffff168273ffffffffffffffffffffffffffffffffffffffff16847f2f8788117e7eff1d82e926ec794901d17c78024a50270940304540a733656f0d60405160405180910390a4600190506112eb565b600090505b92915050565b6004600083815260200190815260200160002060000160019054906101000a900460ff1661135657816040517f9a1cfbfd00000000000000000000000000000000000000000000000000000000815260040161134d9190611bbe565b60405180910390fd5b60016004600084815260200190815260200160002060000160006101000a81548160ff021916908315150217905550806004600084815260200190815260200160002060010190805190602001906113af9291906115c7565b50600360009054906101000a900473ffffffffffffffffffffffffffffffffffffffff1673ffffffffffffffffffffffffffffffffffffffff166338ba461483836040518363ffffffff1660e01b815260040161140d929190612047565b600060405180830381600087803b15801561142757600080fd5b505af115801561143b573d6000803e3d6000fd5b505050507ffe2e2d779dba245964d4e3ef9b994be63856fd568bf7d3ca9e224755cb1bd54d8282604051611470929190612047565b60405180910390a15050565b600033905090565b60006114908383610e12565b1561156b57600080600085815260200190815260200160002060000160008473ffffffffffffffffffffffffffffffffffffffff1673ffffffffffffffffffffffffffffffffffffffff16815260200190815260200160002060006101000a81548160ff02191690831515021790555061150861147c565b73ffffffffffffffffffffffffffffffffffffffff168273ffffffffffffffffffffffffffffffffffffffff16847ff6391f5c32d9c69d2a47ea670b442974b53935d1edc7fd64eb21e047a839171b60405160405180910390a460019050611570565b600090505b92915050565b6115808282610e12565b6115c35780826040517fe2517d3f0000000000000000000000000000000000000000000000000000000081526004016115ba929190612077565b60405180910390fd5b5050565b828054828255906000526020600020908101928215611603579160200282015b828111156116025782518255916020019190600101906115e7565b5b5090506116109190611614565b5090565b5b8082111561162d576000816000905550600101611615565b5090565b6000604051905090565b600080fd5b600080fd5b6000819050919050565b61165881611645565b811461166357600080fd5b50565b6000813590506116758161164f565b92915050565b600073ffffffffffffffffffffffffffffffffffffffff82169050919050565b60006116a68261167b565b9050919050565b6116b68161169b565b81146116c157600080fd5b50565b6000813590506116d3816116ad565b92915050565b600080604083850312156116f0576116ef61163b565b5b60006116fe85828601611666565b925050602061170f858286016116c4565b9150509250929050565b60007fffffffff0000000000000000000000000000000000000000000000000000000082169050919050565b61174e81611719565b811461175957600080fd5b50565b60008135905061176b81611745565b92915050565b6000602082840312156117875761178661163b565b5b60006117958482850161175c565b91505092915050565b60008115159050919050565b6117b38161179e565b82525050565b60006020820190506117ce60008301846117aa565b92915050565b6000602082840312156117ea576117e961163b565b5b60006117f8848285016116c4565b91505092915050565b6000819050919050565b600061182661182161181c8461167b565b611801565b61167b565b9050919050565b60006118388261180b565b9050919050565b600061184a8261182d565b9050919050565b61185a8161183f565b82525050565b60006020820190506118756000830184611851565b92915050565b600080fd5b6000601f19601f8301169050919050565b7f4e487b7100000000000000000000000000000000000000000000000000000000600052604160045260246000fd5b6118c982611880565b810181811067ffffffffffffffff821117156118e8576118e7611891565b5b80604052505050565b60006118fb611631565b905061190782826118c0565b919050565b600067ffffffffffffffff82111561192757611926611891565b5b602082029050602081019050919050565b600080fd5b600061195061194b8461190c565b6118f1565b9050808382526020820190506020840283018581111561197357611972611938565b5b835b8181101561199c57806119888882611666565b845260208401935050602081019050611975565b5050509392505050565b600082601f8301126119bb576119ba61187b565b5b81356119cb84826020860161193d565b91505092915050565b600080604083850312156119eb576119ea61163b565b5b60006119f985828601611666565b925050602083013567ffffffffffffffff811115611a1a57611a19611640565b5b611a26858286016119a6565b9150509250929050565b6000819050919050565b611a4381611a30565b8114611a4e57600080fd5b50565b600081359050611a6081611a3a565b92915050565b600060208284031215611a7c57611a7b61163b565b5b6000611a8a84828501611a51565b91505092915050565b611a9c81611a30565b82525050565b6000602082019050611ab76000830184611a93565b92915050565b600063ffffffff82169050919050565b611ad681611abd565b82525050565b6000602082019050611af16000830184611acd565b92915050565b60008060408385031215611b0e57611b0d61163b565b5b6000611b1c85828601611a51565b9250506020611b2d858286016116c4565b9150509250929050565b6000611b428261182d565b9050919050565b611b5281611b37565b82525050565b6000602082019050611b6d6000830184611b49565b92915050565b6000611b7e8261182d565b9050919050565b611b8e81611b73565b82525050565b6000602082019050611ba96000830184611b85565b92915050565b611bb881611645565b82525050565b6000602082019050611bd36000830184611baf565b92915050565b600060208284031215611bef57611bee61163b565b5b6000611bfd84828501611666565b91505092915050565b600067ffffffffffffffff82169050919050565b611c2381611c06565b82525050565b6000602082019050611c3e6000830184611c1a565b92915050565b6000604082019050611c5960008301856117aa565b611c6660208301846117aa565b9392505050565b611c768161169b565b82525050565b6000602082019050611c916000830184611c6d565b92915050565b600061ffff82169050919050565b611cae81611c97565b82525050565b6000602082019050611cc96000830184611ca5565b92915050565b600081519050919050565b600082825260208201905092915050565b6000819050602082019050919050565b611d0481611645565b82525050565b6000611d168383611cfb565b60208301905092915050565b6000602082019050919050565b6000611d3a82611ccf565b611d448185611cda565b9350611d4f83611ceb565b8060005b83811015611d80578151611d678882611d0a565b9750611d7283611d22565b925050600181019050611d53565b5085935050505092915050565b6000604082019050611da260008301856117aa565b8181036020830152611db48184611d2f565b90509392505050565b6000604082019050611dd26000830185611c6d565b611ddf6020830184611baf565b9392505050565b611def8161179e565b8114611dfa57600080fd5b50565b600081519050611e0c81611de6565b92915050565b600060208284031215611e2857611e2761163b565b5b6000611e3684828501611dfd565b91505092915050565b6000604082019050611e546000830185611c1a565b611e616020830184611c6d565b9392505050565b6000604082019050611e7d6000830185611c6d565b611e8a6020830184611c6d565b9392505050565b6000819050919050565b6000611eb6611eb1611eac84611e91565b611801565b611abd565b9050919050565b611ec681611e9b565b82525050565b600060a082019050611ee16000830188611a93565b611eee6020830187611c1a565b611efb6040830186611ca5565b611f086060830185611acd565b611f156080830184611ebd565b9695505050505050565b600081519050611f2e8161164f565b92915050565b600060208284031215611f4a57611f4961163b565b5b6000611f5884828501611f1f565b91505092915050565b6000604082019050611f766000830185611baf565b611f836020830184611c6d565b9392505050565b600081519050919050565b600082825260208201905092915050565b60005b83811015611fc4578082015181840152602081019050611fa9565b60008484015250505050565b6000611fdb82611f8a565b611fe58185611f95565b9350611ff5818560208601611fa6565b611ffe81611880565b840191505092915050565b600060608201905061201e6000830186611c6d565b61202b6020830185611baf565b818103604083015261203d8184611fd0565b9050949350505050565b600060408201905061205c6000830185611baf565b818103602083015261206e8184611d2f565b90509392505050565b600060408201905061208c6000830185611c6d565b6120996020830184611a93565b939250505056fea2646970667358221220bd89a7938c152c32ae34c40a84f40f95713e47d8aca8ba5c5ae7756dafe0d07f64736f6c63430008170033",
					"opcodes": "PUSH1 0xA0 PUSH1 0x40 MSTORE CALLVALUE DUP1 ISZERO PUSH3 0x11 JUMPI PUSH1 0x0 DUP1 REVERT JUMPDEST POP PUSH1 0x40 MLOAD PUSH3 0x2898 CODESIZE SUB DUP1 PUSH3 0x2898 DUP4 CODECOPY DUP2 DUP2 ADD PUSH1 0x40 MSTORE DUP2 ADD SWAP1 PUSH3 0x37 SWAP2 SWAP1 PUSH3 0x5FF JUMP JUMPDEST DUP5 DUP1 PUSH20 0xFFFFFFFFFFFFFFFFFFFFFFFFFFFFFFFFFFFFFFFF AND PUSH1 0x80 DUP2 PUSH20 0xFFFFFFFFFFFFFFFFFFFFFFFFFFFFFFFFFFFFFFFF AND DUP2 MSTORE POP POP POP PUSH3 0x82 PUSH1 0x0 DUP1 SHL DUP8 PUSH3 0x166 PUSH1 0x20 SHL PUSH1 0x20 SHR JUMP JUMPDEST POP DUP5 PUSH1 0x1 PUSH1 0x0 PUSH2 0x100 EXP DUP2 SLOAD DUP2 PUSH20 0xFFFFFFFFFFFFFFFFFFFFFFFFFFFFFFFFFFFFFFFF MUL NOT AND SWAP1 DUP4 PUSH20 0xFFFFFFFFFFFFFFFFFFFFFFFFFFFFFFFFFFFFFFFF AND MUL OR SWAP1 SSTORE POP DUP4 PUSH1 0x2 PUSH1 0x0 PUSH2 0x100 EXP DUP2 SLOAD DUP2 PUSH20 0xFFFFFFFFFFFFFFFFFFFFFFFFFFFFFFFFFFFFFFFF MUL NOT AND SWAP1 DUP4 PUSH20 0xFFFFFFFFFFFFFFFFFFFFFFFFFFFFFFFFFFFFFFFF AND MUL OR SWAP1 SSTORE POP DUP3 PUSH1 0x6 DUP2 SWAP1 SSTORE POP DUP2 PUSH1 0x7 PUSH1 0x2 PUSH2 0x100 EXP DUP2 SLOAD DUP2 PUSH4 0xFFFFFFFF MUL NOT AND SWAP1 DUP4 PUSH4 0xFFFFFFFF AND MUL OR SWAP1 SSTORE POP DUP1 PUSH1 0x7 PUSH1 0x0 PUSH2 0x100 EXP DUP2 SLOAD DUP2 PUSH2 0xFFFF MUL NOT AND SWAP1 DUP4 PUSH2 0xFFFF AND MUL OR SWAP1 SSTORE POP PUSH3 0x15A PUSH3 0x269 PUSH1 0x20 SHL PUSH1 0x20 SHR JUMP JUMPDEST POP POP POP POP POP POP PUSH3 0x79F JUMP JUMPDEST PUSH1 0x0 PUSH3 0x17A DUP4 DUP4 PUSH3 0x3E8 PUSH1 0x20 SHL PUSH1 0x20 SHR JUMP JUMPDEST PUSH3 0x25E JUMPI PUSH1 0x1 PUSH1 0x0 DUP1 DUP6 DUP2 MSTORE PUSH1 0x20 ADD SWAP1 DUP2 MSTORE PUSH1 0x20 ADD PUSH1 0x0 KECCAK256 PUSH1 0x0 ADD PUSH1 0x0 DUP5 PUSH20 0xFFFFFFFFFFFFFFFFFFFFFFFFFFFFFFFFFFFFFFFF AND PUSH20 0xFFFFFFFFFFFFFFFFFFFFFFFFFFFFFFFFFFFFFFFF AND DUP2 MSTORE PUSH1 0x20 ADD SWAP1 DUP2 MSTORE PUSH1 0x20 ADD PUSH1 0x0 KECCAK256 PUSH1 0x0 PUSH2 0x100 EXP DUP2 SLOAD DUP2 PUSH1 0xFF MUL NOT AND SWAP1 DUP4 ISZERO ISZERO MUL OR SWAP1 SSTORE POP PUSH3 0x1FA PUSH3 0x452 PUSH1 0x20 SHL PUSH1 0x20 SHR JUMP JUMPDEST PUSH20 0xFFFFFFFFFFFFFFFFFFFFFFFFFFFFFFFFFFFFFFFF AND DUP3 PUSH20 0xFFFFFFFFFFFFFFFFFFFFFFFFFFFFFFFFFFFFFFFF AND DUP5 PUSH32 0x2F8788117E7EFF1D82E926EC794901D17C78024A50270940304540A733656F0D PUSH1 0x40 MLOAD PUSH1 0x40 MLOAD DUP1 SWAP2 SUB SWAP1 LOG4 PUSH1 0x1 SWAP1 POP PUSH3 0x263 JUMP JUMPDEST PUSH1 0x0 SWAP1 POP JUMPDEST SWAP3 SWAP2 POP POP JUMP JUMPDEST PUSH1 0x0 DUP1 SHL PUSH3 0x27E DUP2 PUSH3 0x45A PUSH1 0x20 SHL PUSH1 0x20 SHR JUMP JUMPDEST PUSH1 0x1 PUSH1 0x0 SWAP1 SLOAD SWAP1 PUSH2 0x100 EXP SWAP1 DIV PUSH20 0xFFFFFFFFFFFFFFFFFFFFFFFFFFFFFFFFFFFFFFFF AND PUSH20 0xFFFFFFFFFFFFFFFFFFFFFFFFFFFFFFFFFFFFFFFF AND PUSH4 0xA21A23E4 PUSH1 0x40 MLOAD DUP2 PUSH4 0xFFFFFFFF AND PUSH1 0xE0 SHL DUP2 MSTORE PUSH1 0x4 ADD PUSH1 0x20 PUSH1 0x40 MLOAD DUP1 DUP4 SUB DUP2 PUSH1 0x0 DUP8 GAS CALL ISZERO DUP1 ISZERO PUSH3 0x2EE JUMPI RETURNDATASIZE PUSH1 0x0 DUP1 RETURNDATACOPY RETURNDATASIZE PUSH1 0x0 REVERT JUMPDEST POP POP POP POP PUSH1 0x40 MLOAD RETURNDATASIZE PUSH1 0x1F NOT PUSH1 0x1F DUP3 ADD AND DUP3 ADD DUP1 PUSH1 0x40 MSTORE POP DUP2 ADD SWAP1 PUSH3 0x314 SWAP2 SWAP1 PUSH3 0x6E0 JUMP JUMPDEST PUSH1 0x7 PUSH1 0x6 PUSH2 0x100 EXP DUP2 SLOAD DUP2 PUSH8 0xFFFFFFFFFFFFFFFF MUL NOT AND SWAP1 DUP4 PUSH8 0xFFFFFFFFFFFFFFFF AND MUL OR SWAP1 SSTORE POP PUSH1 0x1 PUSH1 0x0 SWAP1 SLOAD SWAP1 PUSH2 0x100 EXP SWAP1 DIV PUSH20 0xFFFFFFFFFFFFFFFFFFFFFFFFFFFFFFFFFFFFFFFF AND PUSH20 0xFFFFFFFFFFFFFFFFFFFFFFFFFFFFFFFFFFFFFFFF AND PUSH4 0x7341C10C PUSH1 0x7 PUSH1 0x6 SWAP1 SLOAD SWAP1 PUSH2 0x100 EXP SWAP1 DIV PUSH8 0xFFFFFFFFFFFFFFFF AND ADDRESS PUSH1 0x40 MLOAD DUP4 PUSH4 0xFFFFFFFF AND PUSH1 0xE0 SHL DUP2 MSTORE PUSH1 0x4 ADD PUSH3 0x3B1 SWAP3 SWAP2 SWAP1 PUSH3 0x734 JUMP JUMPDEST PUSH1 0x0 PUSH1 0x40 MLOAD DUP1 DUP4 SUB DUP2 PUSH1 0x0 DUP8 DUP1 EXTCODESIZE ISZERO DUP1 ISZERO PUSH3 0x3CC JUMPI PUSH1 0x0 DUP1 REVERT JUMPDEST POP GAS CALL ISZERO DUP1 ISZERO PUSH3 0x3E1 JUMPI RETURNDATASIZE PUSH1 0x0 DUP1 RETURNDATACOPY RETURNDATASIZE PUSH1 0x0 REVERT JUMPDEST POP POP POP POP POP JUMP JUMPDEST PUSH1 0x0 DUP1 PUSH1 0x0 DUP5 DUP2 MSTORE PUSH1 0x20 ADD SWAP1 DUP2 MSTORE PUSH1 0x20 ADD PUSH1 0x0 KECCAK256 PUSH1 0x0 ADD PUSH1 0x0 DUP4 PUSH20 0xFFFFFFFFFFFFFFFFFFFFFFFFFFFFFFFFFFFFFFFF AND PUSH20 0xFFFFFFFFFFFFFFFFFFFFFFFFFFFFFFFFFFFFFFFF AND DUP2 MSTORE PUSH1 0x20 ADD SWAP1 DUP2 MSTORE PUSH1 0x20 ADD PUSH1 0x0 KECCAK256 PUSH1 0x0 SWAP1 SLOAD SWAP1 PUSH2 0x100 EXP SWAP1 DIV PUSH1 0xFF AND SWAP1 POP SWAP3 SWAP2 POP POP JUMP JUMPDEST PUSH1 0x0 CALLER SWAP1 POP SWAP1 JUMP JUMPDEST PUSH3 0x47B DUP2 PUSH3 0x46F PUSH3 0x452 PUSH1 0x20 SHL PUSH1 0x20 SHR JUMP JUMPDEST PUSH3 0x47E PUSH1 0x20 SHL PUSH1 0x20 SHR JUMP JUMPDEST POP JUMP JUMPDEST PUSH3 0x490 DUP3 DUP3 PUSH3 0x3E8 PUSH1 0x20 SHL PUSH1 0x20 SHR JUMP JUMPDEST PUSH3 0x4D6 JUMPI DUP1 DUP3 PUSH1 0x40 MLOAD PUSH32 0xE2517D3F00000000000000000000000000000000000000000000000000000000 DUP2 MSTORE PUSH1 0x4 ADD PUSH3 0x4CD SWAP3 SWAP2 SWAP1 PUSH3 0x772 JUMP JUMPDEST PUSH1 0x40 MLOAD DUP1 SWAP2 SUB SWAP1 REVERT JUMPDEST POP POP JUMP JUMPDEST PUSH1 0x0 DUP1 REVERT JUMPDEST PUSH1 0x0 PUSH20 0xFFFFFFFFFFFFFFFFFFFFFFFFFFFFFFFFFFFFFFFF DUP3 AND SWAP1 POP SWAP2 SWAP1 POP JUMP JUMPDEST PUSH1 0x0 PUSH3 0x50C DUP3 PUSH3 0x4DF JUMP JUMPDEST SWAP1 POP SWAP2 SWAP1 POP JUMP JUMPDEST PUSH3 0x51E DUP2 PUSH3 0x4FF JUMP JUMPDEST DUP2 EQ PUSH3 0x52A JUMPI PUSH1 0x0 DUP1 REVERT JUMPDEST POP JUMP JUMPDEST PUSH1 0x0 DUP2 MLOAD SWAP1 POP PUSH3 0x53E DUP2 PUSH3 0x513 JUMP JUMPDEST SWAP3 SWAP2 POP POP JUMP JUMPDEST PUSH1 0x0 DUP2 SWAP1 POP SWAP2 SWAP1 POP JUMP JUMPDEST PUSH3 0x559 DUP2 PUSH3 0x544 JUMP JUMPDEST DUP2 EQ PUSH3 0x565 JUMPI PUSH1 0x0 DUP1 REVERT JUMPDEST POP JUMP JUMPDEST PUSH1 0x0 DUP2 MLOAD SWAP1 POP PUSH3 0x579 DUP2 PUSH3 0x54E JUMP JUMPDEST SWAP3 SWAP2 POP POP JUMP JUMPDEST PUSH1 0x0 PUSH4 0xFFFFFFFF DUP3 AND SWAP1 POP SWAP2 SWAP1 POP JUMP JUMPDEST PUSH3 0x59A DUP2 PUSH3 0x57F JUMP JUMPDEST DUP2 EQ PUSH3 0x5A6 JUMPI PUSH1 0x0 DUP1 REVERT JUMPDEST POP JUMP JUMPDEST PUSH1 0x0 DUP2 MLOAD SWAP1 POP PUSH3 0x5BA DUP2 PUSH3 0x58F JUMP JUMPDEST SWAP3 SWAP2 POP POP JUMP JUMPDEST PUSH1 0x0 PUSH2 0xFFFF DUP3 AND SWAP1 POP SWAP2 SWAP1 POP JUMP JUMPDEST PUSH3 0x5D9 DUP2 PUSH3 0x5C0 JUMP JUMPDEST DUP2 EQ PUSH3 0x5E5 JUMPI PUSH1 0x0 DUP1 REVERT JUMPDEST POP JUMP JUMPDEST PUSH1 0x0 DUP2 MLOAD SWAP1 POP PUSH3 0x5F9 DUP2 PUSH3 0x5CE JUMP JUMPDEST SWAP3 SWAP2 POP POP JUMP JUMPDEST PUSH1 0x0 DUP1 PUSH1 0x0 DUP1 PUSH1 0x0 DUP1 PUSH1 0xC0 DUP8 DUP10 SUB SLT ISZERO PUSH3 0x61F JUMPI PUSH3 0x61E PUSH3 0x4DA JUMP JUMPDEST JUMPDEST PUSH1 0x0 PUSH3 0x62F DUP10 DUP3 DUP11 ADD PUSH3 0x52D JUMP JUMPDEST SWAP7 POP POP PUSH1 0x20 PUSH3 0x642 DUP10 DUP3 DUP11 ADD PUSH3 0x52D JUMP JUMPDEST SWAP6 POP POP PUSH1 0x40 PUSH3 0x655 DUP10 DUP3 DUP11 ADD PUSH3 0x52D JUMP JUMPDEST SWAP5 POP POP PUSH1 0x60 PUSH3 0x668 DUP10 DUP3 DUP11 ADD PUSH3 0x568 JUMP JUMPDEST SWAP4 POP POP PUSH1 0x80 PUSH3 0x67B DUP10 DUP3 DUP11 ADD PUSH3 0x5A9 JUMP JUMPDEST SWAP3 POP POP PUSH1 0xA0 PUSH3 0x68E DUP10 DUP3 DUP11 ADD PUSH3 0x5E8 JUMP JUMPDEST SWAP2 POP POP SWAP3 SWAP6 POP SWAP3 SWAP6 POP SWAP3 SWAP6 JUMP JUMPDEST PUSH1 0x0 PUSH8 0xFFFFFFFFFFFFFFFF DUP3 AND SWAP1 POP SWAP2 SWAP1 POP JUMP JUMPDEST PUSH3 0x6BA DUP2 PUSH3 0x69B JUMP JUMPDEST DUP2 EQ PUSH3 0x6C6 JUMPI PUSH1 0x0 DUP1 REVERT JUMPDEST POP JUMP JUMPDEST PUSH1 0x0 DUP2 MLOAD SWAP1 POP PUSH3 0x6DA DUP2 PUSH3 0x6AF JUMP JUMPDEST SWAP3 SWAP2 POP POP JUMP JUMPDEST PUSH1 0x0 PUSH1 0x20 DUP3 DUP5 SUB SLT ISZERO PUSH3 0x6F9 JUMPI PUSH3 0x6F8 PUSH3 0x4DA JUMP JUMPDEST JUMPDEST PUSH1 0x0 PUSH3 0x709 DUP5 DUP3 DUP6 ADD PUSH3 0x6C9 JUMP JUMPDEST SWAP2 POP POP SWAP3 SWAP2 POP POP JUMP JUMPDEST PUSH3 0x71D DUP2 PUSH3 0x69B JUMP JUMPDEST DUP3 MSTORE POP POP JUMP JUMPDEST PUSH3 0x72E DUP2 PUSH3 0x4FF JUMP JUMPDEST DUP3 MSTORE POP POP JUMP JUMPDEST PUSH1 0x0 PUSH1 0x40 DUP3 ADD SWAP1 POP PUSH3 0x74B PUSH1 0x0 DUP4 ADD DUP6 PUSH3 0x712 JUMP JUMPDEST PUSH3 0x75A PUSH1 0x20 DUP4 ADD DUP5 PUSH3 0x723 JUMP JUMPDEST SWAP4 SWAP3 POP POP POP JUMP JUMPDEST PUSH3 0x76C DUP2 PUSH3 0x544 JUMP JUMPDEST DUP3 MSTORE POP POP JUMP JUMPDEST PUSH1 0x0 PUSH1 0x40 DUP3 ADD SWAP1 POP PUSH3 0x789 PUSH1 0x0 DUP4 ADD DUP6 PUSH3 0x723 JUMP JUMPDEST PUSH3 0x798 PUSH1 0x20 DUP4 ADD DUP5 PUSH3 0x761 JUMP JUMPDEST SWAP4 SWAP3 POP POP POP JUMP JUMPDEST PUSH1 0x80 MLOAD PUSH2 0x20D6 PUSH3 0x7C2 PUSH1 0x0 CODECOPY PUSH1 0x0 DUP2 DUP2 PUSH2 0x868 ADD MSTORE PUSH2 0x8BC ADD MSTORE PUSH2 0x20D6 PUSH1 0x0 RETURN INVALID PUSH1 0x80 PUSH1 0x40 MSTORE CALLVALUE DUP1 ISZERO PUSH2 0x10 JUMPI PUSH1 0x0 DUP1 REVERT JUMPDEST POP PUSH1 0x4 CALLDATASIZE LT PUSH2 0x1C3 JUMPI PUSH1 0x0 CALLDATALOAD PUSH1 0xE0 SHR DUP1 PUSH4 0x80C95B14 GT PUSH2 0xF9 JUMPI DUP1 PUSH4 0xA217FDDF GT PUSH2 0x97 JUMPI DUP1 PUSH4 0xBDF1E06D GT PUSH2 0x71 JUMPI DUP1 PUSH4 0xBDF1E06D EQ PUSH2 0x4F5 JUMPI DUP1 PUSH4 0xD547741F EQ PUSH2 0x511 JUMPI DUP1 PUSH4 0xD8A4676F EQ PUSH2 0x52D JUMPI DUP1 PUSH4 0xFC2A88C3 EQ PUSH2 0x55E JUMPI PUSH2 0x1C3 JUMP JUMPDEST DUP1 PUSH4 0xA217FDDF EQ PUSH2 0x49B JUMPI DUP1 PUSH4 0xA3E56FA8 EQ PUSH2 0x4B9 JUMPI DUP1 PUSH4 0xB0FB162F EQ PUSH2 0x4D7 JUMPI PUSH2 0x1C3 JUMP JUMPDEST DUP1 PUSH4 0x8AC00021 GT PUSH2 0xD3 JUMPI DUP1 PUSH4 0x8AC00021 EQ PUSH2 0x400 JUMPI DUP1 PUSH4 0x91D14854 EQ PUSH2 0x41E JUMPI DUP1 PUSH4 0x93D81D58 EQ PUSH2 0x44E JUMPI DUP1 PUSH4 0xA168FA89 EQ PUSH2 0x46A JUMPI PUSH2 0x1C3 JUMP JUMPDEST DUP1 PUSH4 0x80C95B14 EQ PUSH2 0x384 JUMPI DUP1 PUSH4 0x86850E93 EQ PUSH2 0x3B4 JUMPI DUP1 PUSH4 0x8796BA8C EQ PUSH2 0x3D0 JUMPI PUSH2 0x1C3 JUMP JUMPDEST DUP1 PUSH4 0x24F74697 GT PUSH2 0x166 JUMPI DUP1 PUSH4 0x3B2BCBF1 GT PUSH2 0x140 JUMPI DUP1 PUSH4 0x3B2BCBF1 EQ PUSH2 0x30C JUMPI DUP1 PUSH4 0x4430DB7E EQ PUSH2 0x32A JUMPI DUP1 PUSH4 0x55380DFB EQ PUSH2 0x348 JUMPI DUP1 PUSH4 0x61728F39 EQ PUSH2 0x366 JUMPI PUSH2 0x1C3 JUMP JUMPDEST DUP1 PUSH4 0x24F74697 EQ PUSH2 0x2B6 JUMPI DUP1 PUSH4 0x2F2FF15D EQ PUSH2 0x2D4 JUMPI DUP1 PUSH4 0x36568ABE EQ PUSH2 0x2F0 JUMPI PUSH2 0x1C3 JUMP JUMPDEST DUP1 PUSH4 0xFA08046 GT PUSH2 0x1A2 JUMPI DUP1 PUSH4 0xFA08046 EQ PUSH2 0x230 JUMPI DUP1 PUSH4 0x112940F9 EQ PUSH2 0x24E JUMPI DUP1 PUSH4 0x1FE543E3 EQ PUSH2 0x26A JUMPI DUP1 PUSH4 0x248A9CA3 EQ PUSH2 0x286 JUMPI PUSH2 0x1C3 JUMP JUMPDEST DUP1 PUSH3 0xF714CE EQ PUSH2 0x1C8 JUMPI DUP1 PUSH4 0x1FFC9A7 EQ PUSH2 0x1E4 JUMPI DUP1 PUSH4 0xE27E3DF EQ PUSH2 0x214 JUMPI JUMPDEST PUSH1 0x0 DUP1 REVERT JUMPDEST PUSH2 0x1E2 PUSH1 0x4 DUP1 CALLDATASIZE SUB DUP2 ADD SWAP1 PUSH2 0x1DD SWAP2 SWAP1 PUSH2 0x16D9 JUMP JUMPDEST PUSH2 0x57C JUMP JUMPDEST STOP JUMPDEST PUSH2 0x1FE PUSH1 0x4 DUP1 CALLDATASIZE SUB DUP2 ADD SWAP1 PUSH2 0x1F9 SWAP2 SWAP1 PUSH2 0x1771 JUMP JUMPDEST PUSH2 0x62F JUMP JUMPDEST PUSH1 0x40 MLOAD PUSH2 0x20B SWAP2 SWAP1 PUSH2 0x17B9 JUMP JUMPDEST PUSH1 0x40 MLOAD DUP1 SWAP2 SUB SWAP1 RETURN JUMPDEST PUSH2 0x22E PUSH1 0x4 DUP1 CALLDATASIZE SUB DUP2 ADD SWAP1 PUSH2 0x229 SWAP2 SWAP1 PUSH2 0x17D4 JUMP JUMPDEST PUSH2 0x6A9 JUMP JUMPDEST STOP JUMPDEST PUSH2 0x238 PUSH2 0x75F JUMP JUMPDEST PUSH1 0x40 MLOAD PUSH2 0x245 SWAP2 SWAP1 PUSH2 0x1860 JUMP JUMPDEST PUSH1 0x40 MLOAD DUP1 SWAP2 SUB SWAP1 RETURN JUMPDEST PUSH2 0x268 PUSH1 0x4 DUP1 CALLDATASIZE SUB DUP2 ADD SWAP1 PUSH2 0x263 SWAP2 SWAP1 PUSH2 0x17D4 JUMP JUMPDEST PUSH2 0x785 JUMP JUMPDEST STOP JUMPDEST PUSH2 0x284 PUSH1 0x4 DUP1 CALLDATASIZE SUB DUP2 ADD SWAP1 PUSH2 0x27F SWAP2 SWAP1 PUSH2 0x19D4 JUMP JUMPDEST PUSH2 0x866 JUMP JUMPDEST STOP JUMPDEST PUSH2 0x2A0 PUSH1 0x4 DUP1 CALLDATASIZE SUB DUP2 ADD SWAP1 PUSH2 0x29B SWAP2 SWAP1 PUSH2 0x1A66 JUMP JUMPDEST PUSH2 0x926 JUMP JUMPDEST PUSH1 0x40 MLOAD PUSH2 0x2AD SWAP2 SWAP1 PUSH2 0x1AA2 JUMP JUMPDEST PUSH1 0x40 MLOAD DUP1 SWAP2 SUB SWAP1 RETURN JUMPDEST PUSH2 0x2BE PUSH2 0x945 JUMP JUMPDEST PUSH1 0x40 MLOAD PUSH2 0x2CB SWAP2 SWAP1 PUSH2 0x1ADC JUMP JUMPDEST PUSH1 0x40 MLOAD DUP1 SWAP2 SUB SWAP1 RETURN JUMPDEST PUSH2 0x2EE PUSH1 0x4 DUP1 CALLDATASIZE SUB DUP2 ADD SWAP1 PUSH2 0x2E9 SWAP2 SWAP1 PUSH2 0x1AF7 JUMP JUMPDEST PUSH2 0x95B JUMP JUMPDEST STOP JUMPDEST PUSH2 0x30A PUSH1 0x4 DUP1 CALLDATASIZE SUB DUP2 ADD SWAP1 PUSH2 0x305 SWAP2 SWAP1 PUSH2 0x1AF7 JUMP JUMPDEST PUSH2 0x97D JUMP JUMPDEST STOP JUMPDEST PUSH2 0x314 PUSH2 0x9F8 JUMP JUMPDEST PUSH1 0x40 MLOAD PUSH2 0x321 SWAP2 SWAP1 PUSH2 0x1B58 JUMP JUMPDEST PUSH1 0x40 MLOAD DUP1 SWAP2 SUB SWAP1 RETURN JUMPDEST PUSH2 0x332 PUSH2 0xA1E JUMP JUMPDEST PUSH1 0x40 MLOAD PUSH2 0x33F SWAP2 SWAP1 PUSH2 0x1AA2 JUMP JUMPDEST PUSH1 0x40 MLOAD DUP1 SWAP2 SUB SWAP1 RETURN JUMPDEST PUSH2 0x350 PUSH2 0xA42 JUMP JUMPDEST PUSH1 0x40 MLOAD PUSH2 0x35D SWAP2 SWAP1 PUSH2 0x1B94 JUMP JUMPDEST PUSH1 0x40 MLOAD DUP1 SWAP2 SUB SWAP1 RETURN JUMPDEST PUSH2 0x36E PUSH2 0xA68 JUMP JUMPDEST PUSH1 0x40 MLOAD PUSH2 0x37B SWAP2 SWAP1 PUSH2 0x1AA2 JUMP JUMPDEST PUSH1 0x40 MLOAD DUP1 SWAP2 SUB SWAP1 RETURN JUMPDEST PUSH2 0x39E PUSH1 0x4 DUP1 CALLDATASIZE SUB DUP2 ADD SWAP1 PUSH2 0x399 SWAP2 SWAP1 PUSH2 0x17D4 JUMP JUMPDEST PUSH2 0xA6E JUMP JUMPDEST PUSH1 0x40 MLOAD PUSH2 0x3AB SWAP2 SWAP1 PUSH2 0x1BBE JUMP JUMPDEST PUSH1 0x40 MLOAD DUP1 SWAP2 SUB SWAP1 RETURN JUMPDEST PUSH2 0x3CE PUSH1 0x4 DUP1 CALLDATASIZE SUB DUP2 ADD SWAP1 PUSH2 0x3C9 SWAP2 SWAP1 PUSH2 0x1BD9 JUMP JUMPDEST PUSH2 0xCC9 JUMP JUMPDEST STOP JUMPDEST PUSH2 0x3EA PUSH1 0x4 DUP1 CALLDATASIZE SUB DUP2 ADD SWAP1 PUSH2 0x3E5 SWAP2 SWAP1 PUSH2 0x1BD9 JUMP JUMPDEST PUSH2 0xDD4 JUMP JUMPDEST PUSH1 0x40 MLOAD PUSH2 0x3F7 SWAP2 SWAP1 PUSH2 0x1BBE JUMP JUMPDEST PUSH1 0x40 MLOAD DUP1 SWAP2 SUB SWAP1 RETURN JUMPDEST PUSH2 0x408 PUSH2 0xDF8 JUMP JUMPDEST PUSH1 0x40 MLOAD PUSH2 0x415 SWAP2 SWAP1 PUSH2 0x1C29 JUMP JUMPDEST PUSH1 0x40 MLOAD DUP1 SWAP2 SUB SWAP1 RETURN JUMPDEST PUSH2 0x438 PUSH1 0x4 DUP1 CALLDATASIZE SUB DUP2 ADD SWAP1 PUSH2 0x433 SWAP2 SWAP1 PUSH2 0x1AF7 JUMP JUMPDEST PUSH2 0xE12 JUMP JUMPDEST PUSH1 0x40 MLOAD PUSH2 0x445 SWAP2 SWAP1 PUSH2 0x17B9 JUMP JUMPDEST PUSH1 0x40 MLOAD DUP1 SWAP2 SUB SWAP1 RETURN JUMPDEST PUSH2 0x468 PUSH1 0x4 DUP1 CALLDATASIZE SUB DUP2 ADD SWAP1 PUSH2 0x463 SWAP2 SWAP1 PUSH2 0x17D4 JUMP JUMPDEST PUSH2 0xE7C JUMP JUMPDEST STOP JUMPDEST PUSH2 0x484 PUSH1 0x4 DUP1 CALLDATASIZE SUB DUP2 ADD SWAP1 PUSH2 0x47F SWAP2 SWAP1 PUSH2 0x1BD9 JUMP JUMPDEST PUSH2 0xF5C JUMP JUMPDEST PUSH1 0x40 MLOAD PUSH2 0x492 SWAP3 SWAP2 SWAP1 PUSH2 0x1C44 JUMP JUMPDEST PUSH1 0x40 MLOAD DUP1 SWAP2 SUB SWAP1 RETURN JUMPDEST PUSH2 0x4A3 PUSH2 0xF9A JUMP JUMPDEST PUSH1 0x40 MLOAD PUSH2 0x4B0 SWAP2 SWAP1 PUSH2 0x1AA2 JUMP JUMPDEST PUSH1 0x40 MLOAD DUP1 SWAP2 SUB SWAP1 RETURN JUMPDEST PUSH2 0x4C1 PUSH2 0xFA1 JUMP JUMPDEST PUSH1 0x40 MLOAD PUSH2 0x4CE SWAP2 SWAP1 PUSH2 0x1C7C JUMP JUMPDEST PUSH1 0x40 MLOAD DUP1 SWAP2 SUB SWAP1 RETURN JUMPDEST PUSH2 0x4DF PUSH2 0xFC7 JUMP JUMPDEST PUSH1 0x40 MLOAD PUSH2 0x4EC SWAP2 SWAP1 PUSH2 0x1CB4 JUMP JUMPDEST PUSH1 0x40 MLOAD DUP1 SWAP2 SUB SWAP1 RETURN JUMPDEST PUSH2 0x50F PUSH1 0x4 DUP1 CALLDATASIZE SUB DUP2 ADD SWAP1 PUSH2 0x50A SWAP2 SWAP1 PUSH2 0x17D4 JUMP JUMPDEST PUSH2 0xFDB JUMP JUMPDEST STOP JUMPDEST PUSH2 0x52B PUSH1 0x4 DUP1 CALLDATASIZE SUB DUP2 ADD SWAP1 PUSH2 0x526 SWAP2 SWAP1 PUSH2 0x1AF7 JUMP JUMPDEST PUSH2 0x102D JUMP JUMPDEST STOP JUMPDEST PUSH2 0x547 PUSH1 0x4 DUP1 CALLDATASIZE SUB DUP2 ADD SWAP1 PUSH2 0x542 SWAP2 SWAP1 PUSH2 0x1BD9 JUMP JUMPDEST PUSH2 0x104F JUMP JUMPDEST PUSH1 0x40 MLOAD PUSH2 0x555 SWAP3 SWAP2 SWAP1 PUSH2 0x1D8D JUMP JUMPDEST PUSH1 0x40 MLOAD DUP1 SWAP2 SUB SWAP1 RETURN JUMPDEST PUSH2 0x566 PUSH2 0x117C JUMP JUMPDEST PUSH1 0x40 MLOAD PUSH2 0x573 SWAP2 SWAP1 PUSH2 0x1BBE JUMP JUMPDEST PUSH1 0x40 MLOAD DUP1 SWAP2 SUB SWAP1 RETURN JUMPDEST PUSH1 0x0 DUP1 SHL PUSH2 0x589 DUP2 PUSH2 0x1182 JUMP JUMPDEST PUSH1 0x2 PUSH1 0x0 SWAP1 SLOAD SWAP1 PUSH2 0x100 EXP SWAP1 DIV PUSH20 0xFFFFFFFFFFFFFFFFFFFFFFFFFFFFFFFFFFFFFFFF AND PUSH20 0xFFFFFFFFFFFFFFFFFFFFFFFFFFFFFFFFFFFFFFFF AND PUSH4 0xA9059CBB DUP4 DUP6 PUSH1 0x40 MLOAD DUP4 PUSH4 0xFFFFFFFF AND PUSH1 0xE0 SHL DUP2 MSTORE PUSH1 0x4 ADD PUSH2 0x5E6 SWAP3 SWAP2 SWAP1 PUSH2 0x1DBD JUMP JUMPDEST PUSH1 0x20 PUSH1 0x40 MLOAD DUP1 DUP4 SUB DUP2 PUSH1 0x0 DUP8 GAS CALL ISZERO DUP1 ISZERO PUSH2 0x605 JUMPI RETURNDATASIZE PUSH1 0x0 DUP1 RETURNDATACOPY RETURNDATASIZE PUSH1 0x0 REVERT JUMPDEST POP POP POP POP PUSH1 0x40 MLOAD RETURNDATASIZE PUSH1 0x1F NOT PUSH1 0x1F DUP3 ADD AND DUP3 ADD DUP1 PUSH1 0x40 MSTORE POP DUP2 ADD SWAP1 PUSH2 0x629 SWAP2 SWAP1 PUSH2 0x1E12 JUMP JUMPDEST POP POP POP POP JUMP JUMPDEST PUSH1 0x0 PUSH32 0x7965DB0B00000000000000000000000000000000000000000000000000000000 PUSH28 0xFFFFFFFFFFFFFFFFFFFFFFFFFFFFFFFFFFFFFFFFFFFFFFFFFFFFFFFF NOT AND DUP3 PUSH28 0xFFFFFFFFFFFFFFFFFFFFFFFFFFFFFFFFFFFFFFFFFFFFFFFFFFFFFFFF NOT AND EQ DUP1 PUSH2 0x6A2 JUMPI POP PUSH2 0x6A1 DUP3 PUSH2 0x1196 JUMP JUMPDEST JUMPDEST SWAP1 POP SWAP2 SWAP1 POP JUMP JUMPDEST PUSH1 0x0 DUP1 SHL PUSH2 0x6B6 DUP2 PUSH2 0x1182 JUMP JUMPDEST PUSH1 0x1 PUSH1 0x0 SWAP1 SLOAD SWAP1 PUSH2 0x100 EXP SWAP1 DIV PUSH20 0xFFFFFFFFFFFFFFFFFFFFFFFFFFFFFFFFFFFFFFFF AND PUSH20 0xFFFFFFFFFFFFFFFFFFFFFFFFFFFFFFFFFFFFFFFF AND PUSH4 0x9F87FAD7 PUSH1 0x7 PUSH1 0x6 SWAP1 SLOAD SWAP1 PUSH2 0x100 EXP SWAP1 DIV PUSH8 0xFFFFFFFFFFFFFFFF AND DUP5 PUSH1 0x40 MLOAD DUP4 PUSH4 0xFFFFFFFF AND PUSH1 0xE0 SHL DUP2 MSTORE PUSH1 0x4 ADD PUSH2 0x729 SWAP3 SWAP2 SWAP1 PUSH2 0x1E3F JUMP JUMPDEST PUSH1 0x0 PUSH1 0x40 MLOAD DUP1 DUP4 SUB DUP2 PUSH1 0x0 DUP8 DUP1 EXTCODESIZE ISZERO DUP1 ISZERO PUSH2 0x743 JUMPI PUSH1 0x0 DUP1 REVERT JUMPDEST POP GAS CALL ISZERO DUP1 ISZERO PUSH2 0x757 JUMPI RETURNDATASIZE PUSH1 0x0 DUP1 RETURNDATACOPY RETURNDATASIZE PUSH1 0x0 REVERT JUMPDEST POP POP POP POP POP POP JUMP JUMPDEST PUSH1 0x3 PUSH1 0x0 SWAP1 SLOAD SWAP1 PUSH2 0x100 EXP SWAP1 DIV PUSH20 0xFFFFFFFFFFFFFFFFFFFFFFFFFFFFFFFFFFFFFFFF AND DUP2 JUMP JUMPDEST PUSH1 0x0 DUP1 SHL PUSH2 0x792 DUP2 PUSH2 0x1182 JUMP JUMPDEST PUSH1 0x1 PUSH1 0x0 SWAP1 SLOAD SWAP1 PUSH2 0x100 EXP SWAP1 DIV PUSH20 0xFFFFFFFFFFFFFFFFFFFFFFFFFFFFFFFFFFFFFFFF AND PUSH20 0xFFFFFFFFFFFFFFFFFFFFFFFFFFFFFFFFFFFFFFFF AND PUSH4 0x7341C10C PUSH1 0x7 PUSH1 0x6 SWAP1 SLOAD SWAP1 PUSH2 0x100 EXP SWAP1 DIV PUSH8 0xFFFFFFFFFFFFFFFF AND DUP5 PUSH1 0x40 MLOAD DUP4 PUSH4 0xFFFFFFFF AND PUSH1 0xE0 SHL DUP2 MSTORE PUSH1 0x4 ADD PUSH2 0x805 SWAP3 SWAP2 SWAP1 PUSH2 0x1E3F JUMP JUMPDEST PUSH1 0x0 PUSH1 0x40 MLOAD DUP1 DUP4 SUB DUP2 PUSH1 0x0 DUP8 DUP1 EXTCODESIZE ISZERO DUP1 ISZERO PUSH2 0x81F JUMPI PUSH1 0x0 DUP1 REVERT JUMPDEST POP GAS CALL ISZERO DUP1 ISZERO PUSH2 0x833 JUMPI RETURNDATASIZE PUSH1 0x0 DUP1 RETURNDATACOPY RETURNDATASIZE PUSH1 0x0 REVERT JUMPDEST POP POP POP POP PUSH2 0x861 PUSH32 0x61A3517F153A09154844ED8BE639DABC6E78DC22315C2D9A91F7EDDF9398C002 DUP4 PUSH2 0x1200 JUMP JUMPDEST POP POP POP JUMP JUMPDEST PUSH32 0x0 PUSH20 0xFFFFFFFFFFFFFFFFFFFFFFFFFFFFFFFFFFFFFFFF AND CALLER PUSH20 0xFFFFFFFFFFFFFFFFFFFFFFFFFFFFFFFFFFFFFFFF AND EQ PUSH2 0x918 JUMPI CALLER PUSH32 0x0 PUSH1 0x40 MLOAD PUSH32 0x1CF993F400000000000000000000000000000000000000000000000000000000 DUP2 MSTORE PUSH1 0x4 ADD PUSH2 0x90F SWAP3 SWAP2 SWAP1 PUSH2 0x1E68 JUMP JUMPDEST PUSH1 0x40 MLOAD DUP1 SWAP2 SUB SWAP1 REVERT JUMPDEST PUSH2 0x922 DUP3 DUP3 PUSH2 0x12F1 JUMP JUMPDEST POP POP JUMP JUMPDEST PUSH1 0x0 DUP1 PUSH1 0x0 DUP4 DUP2 MSTORE PUSH1 0x20 ADD SWAP1 DUP2 MSTORE PUSH1 0x20 ADD PUSH1 0x0 KECCAK256 PUSH1 0x1 ADD SLOAD SWAP1 POP SWAP2 SWAP1 POP JUMP JUMPDEST PUSH1 0x7 PUSH1 0x2 SWAP1 SLOAD SWAP1 PUSH2 0x100 EXP SWAP1 DIV PUSH4 0xFFFFFFFF AND DUP2 JUMP JUMPDEST PUSH2 0x964 DUP3 PUSH2 0x926 JUMP JUMPDEST PUSH2 0x96D DUP2 PUSH2 0x1182 JUMP JUMPDEST PUSH2 0x977 DUP4 DUP4 PUSH2 0x1200 JUMP JUMPDEST POP POP POP POP JUMP JUMPDEST PUSH2 0x985 PUSH2 0x147C JUMP JUMPDEST PUSH20 0xFFFFFFFFFFFFFFFFFFFFFFFFFFFFFFFFFFFFFFFF AND DUP2 PUSH20 0xFFFFFFFFFFFFFFFFFFFFFFFFFFFFFFFFFFFFFFFF AND EQ PUSH2 0x9E9 JUMPI PUSH1 0x40 MLOAD PUSH32 0x6697B23200000000000000000000000000000000000000000000000000000000 DUP2 MSTORE PUSH1 0x4 ADD PUSH1 0x40 MLOAD DUP1 SWAP2 SUB SWAP1 REVERT JUMPDEST PUSH2 0x9F3 DUP3 DUP3 PUSH2 0x1484 JUMP JUMPDEST POP POP POP JUMP JUMPDEST PUSH1 0x1 PUSH1 0x0 SWAP1 SLOAD SWAP1 PUSH2 0x100 EXP SWAP1 DIV PUSH20 0xFFFFFFFFFFFFFFFFFFFFFFFFFFFFFFFFFFFFFFFF AND DUP2 JUMP JUMPDEST PUSH32 0x61A3517F153A09154844ED8BE639DABC6E78DC22315C2D9A91F7EDDF9398C002 DUP2 JUMP JUMPDEST PUSH1 0x2 PUSH1 0x0 SWAP1 SLOAD SWAP1 PUSH2 0x100 EXP SWAP1 DIV PUSH20 0xFFFFFFFFFFFFFFFFFFFFFFFFFFFFFFFFFFFFFFFF AND DUP2 JUMP JUMPDEST PUSH1 0x6 SLOAD DUP2 JUMP JUMPDEST PUSH1 0x0 PUSH32 0x61A3517F153A09154844ED8BE639DABC6E78DC22315C2D9A91F7EDDF9398C002 PUSH2 0xA9A DUP2 PUSH2 0x1182 JUMP JUMPDEST PUSH1 0x1 PUSH1 0x0 SWAP1 SLOAD SWAP1 PUSH2 0x100 EXP SWAP1 DIV PUSH20 0xFFFFFFFFFFFFFFFFFFFFFFFFFFFFFFFFFFFFFFFF AND PUSH20 0xFFFFFFFFFFFFFFFFFFFFFFFFFFFFFFFFFFFFFFFF AND PUSH4 0x5D3B1D30 PUSH1 0x6 SLOAD PUSH1 0x7 PUSH1 0x6 SWAP1 SLOAD SWAP1 PUSH2 0x100 EXP SWAP1 DIV PUSH8 0xFFFFFFFFFFFFFFFF AND PUSH1 0x7 PUSH1 0x0 SWAP1 SLOAD SWAP1 PUSH2 0x100 EXP SWAP1 DIV PUSH2 0xFFFF AND PUSH1 0x7 PUSH1 0x2 SWAP1 SLOAD SWAP1 PUSH2 0x100 EXP SWAP1 DIV PUSH4 0xFFFFFFFF AND PUSH1 0x1 PUSH1 0x40 MLOAD DUP7 PUSH4 0xFFFFFFFF AND PUSH1 0xE0 SHL DUP2 MSTORE PUSH1 0x4 ADD PUSH2 0xB38 SWAP6 SWAP5 SWAP4 SWAP3 SWAP2 SWAP1 PUSH2 0x1ECC JUMP JUMPDEST PUSH1 0x20 PUSH1 0x40 MLOAD DUP1 DUP4 SUB DUP2 PUSH1 0x0 DUP8 GAS CALL ISZERO DUP1 ISZERO PUSH2 0xB57 JUMPI RETURNDATASIZE PUSH1 0x0 DUP1 RETURNDATACOPY RETURNDATASIZE PUSH1 0x0 REVERT JUMPDEST POP POP POP POP PUSH1 0x40 MLOAD RETURNDATASIZE PUSH1 0x1F NOT PUSH1 0x1F DUP3 ADD AND DUP3 ADD DUP1 PUSH1 0x40 MSTORE POP DUP2 ADD SWAP1 PUSH2 0xB7B SWAP2 SWAP1 PUSH2 0x1F34 JUMP JUMPDEST SWAP2 POP PUSH1 0x40 MLOAD DUP1 PUSH1 0x60 ADD PUSH1 0x40 MSTORE DUP1 PUSH1 0x0 ISZERO ISZERO DUP2 MSTORE PUSH1 0x20 ADD PUSH1 0x1 ISZERO ISZERO DUP2 MSTORE PUSH1 0x20 ADD PUSH1 0x0 PUSH8 0xFFFFFFFFFFFFFFFF DUP2 GT ISZERO PUSH2 0xBB5 JUMPI PUSH2 0xBB4 PUSH2 0x1891 JUMP JUMPDEST JUMPDEST PUSH1 0x40 MLOAD SWAP1 DUP1 DUP3 MSTORE DUP1 PUSH1 0x20 MUL PUSH1 0x20 ADD DUP3 ADD PUSH1 0x40 MSTORE DUP1 ISZERO PUSH2 0xBE3 JUMPI DUP2 PUSH1 0x20 ADD PUSH1 0x20 DUP3 MUL DUP1 CALLDATASIZE DUP4 CALLDATACOPY DUP1 DUP3 ADD SWAP2 POP POP SWAP1 POP JUMPDEST POP DUP2 MSTORE POP PUSH1 0x4 PUSH1 0x0 DUP5 DUP2 MSTORE PUSH1 0x20 ADD SWAP1 DUP2 MSTORE PUSH1 0x20 ADD PUSH1 0x0 KECCAK256 PUSH1 0x0 DUP3 ADD MLOAD DUP2 PUSH1 0x0 ADD PUSH1 0x0 PUSH2 0x100 EXP DUP2 SLOAD DUP2 PUSH1 0xFF MUL NOT AND SWAP1 DUP4 ISZERO ISZERO MUL OR SWAP1 SSTORE POP PUSH1 0x20 DUP3 ADD MLOAD DUP2 PUSH1 0x0 ADD PUSH1 0x1 PUSH2 0x100 EXP DUP2 SLOAD DUP2 PUSH1 0xFF MUL NOT AND SWAP1 DUP4 ISZERO ISZERO MUL OR SWAP1 SSTORE POP PUSH1 0x40 DUP3 ADD MLOAD DUP2 PUSH1 0x1 ADD SWAP1 DUP1 MLOAD SWAP1 PUSH1 0x20 ADD SWAP1 PUSH2 0xC56 SWAP3 SWAP2 SWAP1 PUSH2 0x15C7 JUMP JUMPDEST POP SWAP1 POP POP PUSH1 0x8 DUP3 SWAP1 DUP1 PUSH1 0x1 DUP2 SLOAD ADD DUP1 DUP3 SSTORE DUP1 SWAP2 POP POP PUSH1 0x1 SWAP1 SUB SWAP1 PUSH1 0x0 MSTORE PUSH1 0x20 PUSH1 0x0 KECCAK256 ADD PUSH1 0x0 SWAP1 SWAP2 SWAP1 SWAP2 SWAP1 SWAP2 POP SSTORE DUP2 PUSH1 0x9 DUP2 SWAP1 SSTORE POP PUSH32 0x48B98AD7A8A8DBE21CC82BF98710AD4D2CDD949CCAC393692E4D9A1722C162C7 DUP3 DUP5 PUSH1 0x40 MLOAD PUSH2 0xCBB SWAP3 SWAP2 SWAP1 PUSH2 0x1F61 JUMP JUMPDEST PUSH1 0x40 MLOAD DUP1 SWAP2 SUB SWAP1 LOG1 POP SWAP2 SWAP1 POP JUMP JUMPDEST PUSH1 0x0 DUP1 SHL PUSH2 0xCD6 DUP2 PUSH2 0x1182 JUMP JUMPDEST PUSH1 0x2 PUSH1 0x0 SWAP1 SLOAD SWAP1 PUSH2 0x100 EXP SWAP1 DIV PUSH20 0xFFFFFFFFFFFFFFFFFFFFFFFFFFFFFFFFFFFFFFFF AND PUSH20 0xFFFFFFFFFFFFFFFFFFFFFFFFFFFFFFFFFFFFFFFF AND PUSH4 0x4000AEA0 PUSH1 0x1 PUSH1 0x0 SWAP1 SLOAD SWAP1 PUSH2 0x100 EXP SWAP1 DIV PUSH20 0xFFFFFFFFFFFFFFFFFFFFFFFFFFFFFFFFFFFFFFFF AND DUP5 PUSH1 0x7 PUSH1 0x6 SWAP1 SLOAD SWAP1 PUSH2 0x100 EXP SWAP1 DIV PUSH8 0xFFFFFFFFFFFFFFFF AND PUSH1 0x40 MLOAD PUSH1 0x20 ADD PUSH2 0xD5F SWAP2 SWAP1 PUSH2 0x1C29 JUMP JUMPDEST PUSH1 0x40 MLOAD PUSH1 0x20 DUP2 DUP4 SUB SUB DUP2 MSTORE SWAP1 PUSH1 0x40 MSTORE PUSH1 0x40 MLOAD DUP5 PUSH4 0xFFFFFFFF AND PUSH1 0xE0 SHL DUP2 MSTORE PUSH1 0x4 ADD PUSH2 0xD8C SWAP4 SWAP3 SWAP2 SWAP1 PUSH2 0x2009 JUMP JUMPDEST PUSH1 0x20 PUSH1 0x40 MLOAD DUP1 DUP4 SUB DUP2 PUSH1 0x0 DUP8 GAS CALL ISZERO DUP1 ISZERO PUSH2 0xDAB JUMPI RETURNDATASIZE PUSH1 0x0 DUP1 RETURNDATACOPY RETURNDATASIZE PUSH1 0x0 REVERT JUMPDEST POP POP POP POP PUSH1 0x40 MLOAD RETURNDATASIZE PUSH1 0x1F NOT PUSH1 0x1F DUP3 ADD AND DUP3 ADD DUP1 PUSH1 0x40 MSTORE POP DUP2 ADD SWAP1 PUSH2 0xDCF SWAP2 SWAP1 PUSH2 0x1E12 JUMP JUMPDEST POP POP POP JUMP JUMPDEST PUSH1 0x8 DUP2 DUP2 SLOAD DUP2 LT PUSH2 0xDE4 JUMPI PUSH1 0x0 DUP1 REVERT JUMPDEST SWAP1 PUSH1 0x0 MSTORE PUSH1 0x20 PUSH1 0x0 KECCAK256 ADD PUSH1 0x0 SWAP2 POP SWAP1 POP SLOAD DUP2 JUMP JUMPDEST PUSH1 0x7 PUSH1 0x6 SWAP1 SLOAD SWAP1 PUSH2 0x100 EXP SWAP1 DIV PUSH8 0xFFFFFFFFFFFFFFFF AND DUP2 JUMP JUMPDEST PUSH1 0x0 DUP1 PUSH1 0x0 DUP5 DUP2 MSTORE PUSH1 0x20 ADD SWAP1 DUP2 MSTORE PUSH1 0x20 ADD PUSH1 0x0 KECCAK256 PUSH1 0x0 ADD PUSH1 0x0 DUP4 PUSH20 0xFFFFFFFFFFFFFFFFFFFFFFFFFFFFFFFFFFFFFFFF AND PUSH20 0xFFFFFFFFFFFFFFFFFFFFFFFFFFFFFFFFFFFFFFFF AND DUP2 MSTORE PUSH1 0x20 ADD SWAP1 DUP2 MSTORE PUSH1 0x20 ADD PUSH1 0x0 KECCAK256 PUSH1 0x0 SWAP1 SLOAD SWAP1 PUSH2 0x100 EXP SWAP1 DIV PUSH1 0xFF AND SWAP1 POP SWAP3 SWAP2 POP POP JUMP JUMPDEST PUSH1 0x0 DUP1 SHL PUSH2 0xE89 DUP2 PUSH2 0x1182 JUMP JUMPDEST PUSH1 0x1 PUSH1 0x0 SWAP1 SLOAD SWAP1 PUSH2 0x100 EXP SWAP1 DIV PUSH20 0xFFFFFFFFFFFFFFFFFFFFFFFFFFFFFFFFFFFFFFFF AND PUSH20 0xFFFFFFFFFFFFFFFFFFFFFFFFFFFFFFFFFFFFFFFF AND PUSH4 0xD7AE1D30 PUSH1 0x7 PUSH1 0x6 SWAP1 SLOAD SWAP1 PUSH2 0x100 EXP SWAP1 DIV PUSH8 0xFFFFFFFFFFFFFFFF AND DUP5 PUSH1 0x40 MLOAD DUP4 PUSH4 0xFFFFFFFF AND PUSH1 0xE0 SHL DUP2 MSTORE PUSH1 0x4 ADD PUSH2 0xEFC SWAP3 SWAP2 SWAP1 PUSH2 0x1E3F JUMP JUMPDEST PUSH1 0x0 PUSH1 0x40 MLOAD DUP1 DUP4 SUB DUP2 PUSH1 0x0 DUP8 DUP1 EXTCODESIZE ISZERO DUP1 ISZERO PUSH2 0xF16 JUMPI PUSH1 0x0 DUP1 REVERT JUMPDEST POP GAS CALL ISZERO DUP1 ISZERO PUSH2 0xF2A JUMPI RETURNDATASIZE PUSH1 0x0 DUP1 RETURNDATACOPY RETURNDATASIZE PUSH1 0x0 REVERT JUMPDEST POP POP POP POP PUSH1 0x0 PUSH1 0x7 PUSH1 0x6 PUSH2 0x100 EXP DUP2 SLOAD DUP2 PUSH8 0xFFFFFFFFFFFFFFFF MUL NOT AND SWAP1 DUP4 PUSH8 0xFFFFFFFFFFFFFFFF AND MUL OR SWAP1 SSTORE POP POP POP JUMP JUMPDEST PUSH1 0x4 PUSH1 0x20 MSTORE DUP1 PUSH1 0x0 MSTORE PUSH1 0x40 PUSH1 0x0 KECCAK256 PUSH1 0x0 SWAP2 POP SWAP1 POP DUP1 PUSH1 0x0 ADD PUSH1 0x0 SWAP1 SLOAD SWAP1 PUSH2 0x100 EXP SWAP1 DIV PUSH1 0xFF AND SWAP1 DUP1 PUSH1 0x0 ADD PUSH1 0x1 SWAP1 SLOAD SWAP1 PUSH2 0x100 EXP SWAP1 DIV PUSH1 0xFF AND SWAP1 POP DUP3 JUMP JUMPDEST PUSH1 0x0 DUP1 SHL DUP2 JUMP JUMPDEST PUSH1 0x5 PUSH1 0x0 SWAP1 SLOAD SWAP1 PUSH2 0x100 EXP SWAP1 DIV PUSH20 0xFFFFFFFFFFFFFFFFFFFFFFFFFFFFFFFFFFFFFFFF AND DUP2 JUMP JUMPDEST PUSH1 0x7 PUSH1 0x0 SWAP1 SLOAD SWAP1 PUSH2 0x100 EXP SWAP1 DIV PUSH2 0xFFFF AND DUP2 JUMP JUMPDEST PUSH1 0x0 DUP1 SHL PUSH2 0xFE8 DUP2 PUSH2 0x1182 JUMP JUMPDEST DUP2 PUSH1 0x3 PUSH1 0x0 PUSH2 0x100 EXP DUP2 SLOAD DUP2 PUSH20 0xFFFFFFFFFFFFFFFFFFFFFFFFFFFFFFFFFFFFFFFF MUL NOT AND SWAP1 DUP4 PUSH20 0xFFFFFFFFFFFFFFFFFFFFFFFFFFFFFFFFFFFFFFFF AND MUL OR SWAP1 SSTORE POP POP POP JUMP JUMPDEST PUSH2 0x1036 DUP3 PUSH2 0x926 JUMP JUMPDEST PUSH2 0x103F DUP2 PUSH2 0x1182 JUMP JUMPDEST PUSH2 0x1049 DUP4 DUP4 PUSH2 0x1484 JUMP JUMPDEST POP POP POP POP JUMP JUMPDEST PUSH1 0x0 PUSH1 0x60 PUSH1 0x4 PUSH1 0x0 DUP5 DUP2 MSTORE PUSH1 0x20 ADD SWAP1 DUP2 MSTORE PUSH1 0x20 ADD PUSH1 0x0 KECCAK256 PUSH1 0x0 ADD PUSH1 0x1 SWAP1 SLOAD SWAP1 PUSH2 0x100 EXP SWAP1 DIV PUSH1 0xFF AND PUSH2 0x10B8 JUMPI DUP3 PUSH1 0x40 MLOAD PUSH32 0x9A1CFBFD00000000000000000000000000000000000000000000000000000000 DUP2 MSTORE PUSH1 0x4 ADD PUSH2 0x10AF SWAP2 SWAP1 PUSH2 0x1BBE JUMP JUMPDEST PUSH1 0x40 MLOAD DUP1 SWAP2 SUB SWAP1 REVERT JUMPDEST PUSH1 0x0 PUSH1 0x4 PUSH1 0x0 DUP6 DUP2 MSTORE PUSH1 0x20 ADD SWAP1 DUP2 MSTORE PUSH1 0x20 ADD PUSH1 0x0 KECCAK256 PUSH1 0x40 MLOAD DUP1 PUSH1 0x60 ADD PUSH1 0x40 MSTORE SWAP1 DUP2 PUSH1 0x0 DUP3 ADD PUSH1 0x0 SWAP1 SLOAD SWAP1 PUSH2 0x100 EXP SWAP1 DIV PUSH1 0xFF AND ISZERO ISZERO ISZERO ISZERO DUP2 MSTORE PUSH1 0x20 ADD PUSH1 0x0 DUP3 ADD PUSH1 0x1 SWAP1 SLOAD SWAP1 PUSH2 0x100 EXP SWAP1 DIV PUSH1 0xFF AND ISZERO ISZERO ISZERO ISZERO DUP2 MSTORE PUSH1 0x20 ADD PUSH1 0x1 DUP3 ADD DUP1 SLOAD DUP1 PUSH1 0x20 MUL PUSH1 0x20 ADD PUSH1 0x40 MLOAD SWAP1 DUP2 ADD PUSH1 0x40 MSTORE DUP1 SWAP3 SWAP2 SWAP1 DUP2 DUP2 MSTORE PUSH1 0x20 ADD DUP3 DUP1 SLOAD DUP1 ISZERO PUSH2 0x115D JUMPI PUSH1 0x20 MUL DUP3 ADD SWAP2 SWAP1 PUSH1 0x0 MSTORE PUSH1 0x20 PUSH1 0x0 KECCAK256 SWAP1 JUMPDEST DUP2 SLOAD DUP2 MSTORE PUSH1 0x20 ADD SWAP1 PUSH1 0x1 ADD SWAP1 DUP1 DUP4 GT PUSH2 0x1149 JUMPI JUMPDEST POP POP POP POP POP DUP2 MSTORE POP POP SWAP1 POP DUP1 PUSH1 0x0 ADD MLOAD DUP2 PUSH1 0x40 ADD MLOAD SWAP3 POP SWAP3 POP POP SWAP2 POP SWAP2 JUMP JUMPDEST PUSH1 0x9 SLOAD DUP2 JUMP JUMPDEST PUSH2 0x1193 DUP2 PUSH2 0x118E PUSH2 0x147C JUMP JUMPDEST PUSH2 0x1576 JUMP JUMPDEST POP JUMP JUMPDEST PUSH1 0x0 PUSH32 0x1FFC9A700000000000000000000000000000000000000000000000000000000 PUSH28 0xFFFFFFFFFFFFFFFFFFFFFFFFFFFFFFFFFFFFFFFFFFFFFFFFFFFFFFFF NOT AND DUP3 PUSH28 0xFFFFFFFFFFFFFFFFFFFFFFFFFFFFFFFFFFFFFFFFFFFFFFFFFFFFFFFF NOT AND EQ SWAP1 POP SWAP2 SWAP1 POP JUMP JUMPDEST PUSH1 0x0 PUSH2 0x120C DUP4 DUP4 PUSH2 0xE12 JUMP JUMPDEST PUSH2 0x12E6 JUMPI PUSH1 0x1 PUSH1 0x0 DUP1 DUP6 DUP2 MSTORE PUSH1 0x20 ADD SWAP1 DUP2 MSTORE PUSH1 0x20 ADD PUSH1 0x0 KECCAK256 PUSH1 0x0 ADD PUSH1 0x0 DUP5 PUSH20 0xFFFFFFFFFFFFFFFFFFFFFFFFFFFFFFFFFFFFFFFF AND PUSH20 0xFFFFFFFFFFFFFFFFFFFFFFFFFFFFFFFFFFFFFFFF AND DUP2 MSTORE PUSH1 0x20 ADD SWAP1 DUP2 MSTORE PUSH1 0x20 ADD PUSH1 0x0 KECCAK256 PUSH1 0x0 PUSH2 0x100 EXP DUP2 SLOAD DUP2 PUSH1 0xFF MUL NOT AND SWAP1 DUP4 ISZERO ISZERO MUL OR SWAP1 SSTORE POP PUSH2 0x1283 PUSH2 0x147C JUMP JUMPDEST PUSH20 0xFFFFFFFFFFFFFFFFFFFFFFFFFFFFFFFFFFFFFFFF AND DUP3 PUSH20 0xFFFFFFFFFFFFFFFFFFFFFFFFFFFFFFFFFFFFFFFF AND DUP5 PUSH32 0x2F8788117E7EFF1D82E926EC794901D17C78024A50270940304540A733656F0D PUSH1 0x40 MLOAD PUSH1 0x40 MLOAD DUP1 SWAP2 SUB SWAP1 LOG4 PUSH1 0x1 SWAP1 POP PUSH2 0x12EB JUMP JUMPDEST PUSH1 0x0 SWAP1 POP JUMPDEST SWAP3 SWAP2 POP POP JUMP JUMPDEST PUSH1 0x4 PUSH1 0x0 DUP4 DUP2 MSTORE PUSH1 0x20 ADD SWAP1 DUP2 MSTORE PUSH1 0x20 ADD PUSH1 0x0 KECCAK256 PUSH1 0x0 ADD PUSH1 0x1 SWAP1 SLOAD SWAP1 PUSH2 0x100 EXP SWAP1 DIV PUSH1 0xFF AND PUSH2 0x1356 JUMPI DUP2 PUSH1 0x40 MLOAD PUSH32 0x9A1CFBFD00000000000000000000000000000000000000000000000000000000 DUP2 MSTORE PUSH1 0x4 ADD PUSH2 0x134D SWAP2 SWAP1 PUSH2 0x1BBE JUMP JUMPDEST PUSH1 0x40 MLOAD DUP1 SWAP2 SUB SWAP1 REVERT JUMPDEST PUSH1 0x1 PUSH1 0x4 PUSH1 0x0 DUP5 DUP2 MSTORE PUSH1 0x20 ADD SWAP1 DUP2 MSTORE PUSH1 0x20 ADD PUSH1 0x0 KECCAK256 PUSH1 0x0 ADD PUSH1 0x0 PUSH2 0x100 EXP DUP2 SLOAD DUP2 PUSH1 0xFF MUL NOT AND SWAP1 DUP4 ISZERO ISZERO MUL OR SWAP1 SSTORE POP DUP1 PUSH1 0x4 PUSH1 0x0 DUP5 DUP2 MSTORE PUSH1 0x20 ADD SWAP1 DUP2 MSTORE PUSH1 0x20 ADD PUSH1 0x0 KECCAK256 PUSH1 0x1 ADD SWAP1 DUP1 MLOAD SWAP1 PUSH1 0x20 ADD SWAP1 PUSH2 0x13AF SWAP3 SWAP2 SWAP1 PUSH2 0x15C7 JUMP JUMPDEST POP PUSH1 0x3 PUSH1 0x0 SWAP1 SLOAD SWAP1 PUSH2 0x100 EXP SWAP1 DIV PUSH20 0xFFFFFFFFFFFFFFFFFFFFFFFFFFFFFFFFFFFFFFFF AND PUSH20 0xFFFFFFFFFFFFFFFFFFFFFFFFFFFFFFFFFFFFFFFF AND PUSH4 0x38BA4614 DUP4 DUP4 PUSH1 0x40 MLOAD DUP4 PUSH4 0xFFFFFFFF AND PUSH1 0xE0 SHL DUP2 MSTORE PUSH1 0x4 ADD PUSH2 0x140D SWAP3 SWAP2 SWAP1 PUSH2 0x2047 JUMP JUMPDEST PUSH1 0x0 PUSH1 0x40 MLOAD DUP1 DUP4 SUB DUP2 PUSH1 0x0 DUP8 DUP1 EXTCODESIZE ISZERO DUP1 ISZERO PUSH2 0x1427 JUMPI PUSH1 0x0 DUP1 REVERT JUMPDEST POP GAS CALL ISZERO DUP1 ISZERO PUSH2 0x143B JUMPI RETURNDATASIZE PUSH1 0x0 DUP1 RETURNDATACOPY RETURNDATASIZE PUSH1 0x0 REVERT JUMPDEST POP POP POP POP PUSH32 0xFE2E2D779DBA245964D4E3EF9B994BE63856FD568BF7D3CA9E224755CB1BD54D DUP3 DUP3 PUSH1 0x40 MLOAD PUSH2 0x1470 SWAP3 SWAP2 SWAP1 PUSH2 0x2047 JUMP JUMPDEST PUSH1 0x40 MLOAD DUP1 SWAP2 SUB SWAP1 LOG1 POP POP JUMP JUMPDEST PUSH1 0x0 CALLER SWAP1 POP SWAP1 JUMP JUMPDEST PUSH1 0x0 PUSH2 0x1490 DUP4 DUP4 PUSH2 0xE12 JUMP JUMPDEST ISZERO PUSH2 0x156B JUMPI PUSH1 0x0 DUP1 PUSH1 0x0 DUP6 DUP2 MSTORE PUSH1 0x20 ADD SWAP1 DUP2 MSTORE PUSH1 0x20 ADD PUSH1 0x0 KECCAK256 PUSH1 0x0 ADD PUSH1 0x0 DUP5 PUSH20 0xFFFFFFFFFFFFFFFFFFFFFFFFFFFFFFFFFFFFFFFF AND PUSH20 0xFFFFFFFFFFFFFFFFFFFFFFFFFFFFFFFFFFFFFFFF AND DUP2 MSTORE PUSH1 0x20 ADD SWAP1 DUP2 MSTORE PUSH1 0x20 ADD PUSH1 0x0 KECCAK256 PUSH1 0x0 PUSH2 0x100 EXP DUP2 SLOAD DUP2 PUSH1 0xFF MUL NOT AND SWAP1 DUP4 ISZERO ISZERO MUL OR SWAP1 SSTORE POP PUSH2 0x1508 PUSH2 0x147C JUMP JUMPDEST PUSH20 0xFFFFFFFFFFFFFFFFFFFFFFFFFFFFFFFFFFFFFFFF AND DUP3 PUSH20 0xFFFFFFFFFFFFFFFFFFFFFFFFFFFFFFFFFFFFFFFF AND DUP5 PUSH32 0xF6391F5C32D9C69D2A47EA670B442974B53935D1EDC7FD64EB21E047A839171B PUSH1 0x40 MLOAD PUSH1 0x40 MLOAD DUP1 SWAP2 SUB SWAP1 LOG4 PUSH1 0x1 SWAP1 POP PUSH2 0x1570 JUMP JUMPDEST PUSH1 0x0 SWAP1 POP JUMPDEST SWAP3 SWAP2 POP POP JUMP JUMPDEST PUSH2 0x1580 DUP3 DUP3 PUSH2 0xE12 JUMP JUMPDEST PUSH2 0x15C3 JUMPI DUP1 DUP3 PUSH1 0x40 MLOAD PUSH32 0xE2517D3F00000000000000000000000000000000000000000000000000000000 DUP2 MSTORE PUSH1 0x4 ADD PUSH2 0x15BA SWAP3 SWAP2 SWAP1 PUSH2 0x2077 JUMP JUMPDEST PUSH1 0x40 MLOAD DUP1 SWAP2 SUB SWAP1 REVERT JUMPDEST POP POP JUMP JUMPDEST DUP3 DUP1 SLOAD DUP3 DUP3 SSTORE SWAP1 PUSH1 0x0 MSTORE PUSH1 0x20 PUSH1 0x0 KECCAK256 SWAP1 DUP2 ADD SWAP3 DUP3 ISZERO PUSH2 0x1603 JUMPI SWAP2 PUSH1 0x20 MUL DUP3 ADD JUMPDEST DUP3 DUP2 GT ISZERO PUSH2 0x1602 JUMPI DUP3 MLOAD DUP3 SSTORE SWAP2 PUSH1 0x20 ADD SWAP2 SWAP1 PUSH1 0x1 ADD SWAP1 PUSH2 0x15E7 JUMP JUMPDEST JUMPDEST POP SWAP1 POP PUSH2 0x1610 SWAP2 SWAP1 PUSH2 0x1614 JUMP JUMPDEST POP SWAP1 JUMP JUMPDEST JUMPDEST DUP1 DUP3 GT ISZERO PUSH2 0x162D JUMPI PUSH1 0x0 DUP2 PUSH1 0x0 SWAP1 SSTORE POP PUSH1 0x1 ADD PUSH2 0x1615 JUMP JUMPDEST POP SWAP1 JUMP JUMPDEST PUSH1 0x0 PUSH1 0x40 MLOAD SWAP1 POP SWAP1 JUMP JUMPDEST PUSH1 0x0 DUP1 REVERT JUMPDEST PUSH1 0x0 DUP1 REVERT JUMPDEST PUSH1 0x0 DUP2 SWAP1 POP SWAP2 SWAP1 POP JUMP JUMPDEST PUSH2 0x1658 DUP2 PUSH2 0x1645 JUMP JUMPDEST DUP2 EQ PUSH2 0x1663 JUMPI PUSH1 0x0 DUP1 REVERT JUMPDEST POP JUMP JUMPDEST PUSH1 0x0 DUP2 CALLDATALOAD SWAP1 POP PUSH2 0x1675 DUP2 PUSH2 0x164F JUMP JUMPDEST SWAP3 SWAP2 POP POP JUMP JUMPDEST PUSH1 0x0 PUSH20 0xFFFFFFFFFFFFFFFFFFFFFFFFFFFFFFFFFFFFFFFF DUP3 AND SWAP1 POP SWAP2 SWAP1 POP JUMP JUMPDEST PUSH1 0x0 PUSH2 0x16A6 DUP3 PUSH2 0x167B JUMP JUMPDEST SWAP1 POP SWAP2 SWAP1 POP JUMP JUMPDEST PUSH2 0x16B6 DUP2 PUSH2 0x169B JUMP JUMPDEST DUP2 EQ PUSH2 0x16C1 JUMPI PUSH1 0x0 DUP1 REVERT JUMPDEST POP JUMP JUMPDEST PUSH1 0x0 DUP2 CALLDATALOAD SWAP1 POP PUSH2 0x16D3 DUP2 PUSH2 0x16AD JUMP JUMPDEST SWAP3 SWAP2 POP POP JUMP JUMPDEST PUSH1 0x0 DUP1 PUSH1 0x40 DUP4 DUP6 SUB SLT ISZERO PUSH2 0x16F0 JUMPI PUSH2 0x16EF PUSH2 0x163B JUMP JUMPDEST JUMPDEST PUSH1 0x0 PUSH2 0x16FE DUP6 DUP3 DUP7 ADD PUSH2 0x1666 JUMP JUMPDEST SWAP3 POP POP PUSH1 0x20 PUSH2 0x170F DUP6 DUP3 DUP7 ADD PUSH2 0x16C4 JUMP JUMPDEST SWAP2 POP POP SWAP3 POP SWAP3 SWAP1 POP JUMP JUMPDEST PUSH1 0x0 PUSH32 0xFFFFFFFF00000000000000000000000000000000000000000000000000000000 DUP3 AND SWAP1 POP SWAP2 SWAP1 POP JUMP JUMPDEST PUSH2 0x174E DUP2 PUSH2 0x1719 JUMP JUMPDEST DUP2 EQ PUSH2 0x1759 JUMPI PUSH1 0x0 DUP1 REVERT JUMPDEST POP JUMP JUMPDEST PUSH1 0x0 DUP2 CALLDATALOAD SWAP1 POP PUSH2 0x176B DUP2 PUSH2 0x1745 JUMP JUMPDEST SWAP3 SWAP2 POP POP JUMP JUMPDEST PUSH1 0x0 PUSH1 0x20 DUP3 DUP5 SUB SLT ISZERO PUSH2 0x1787 JUMPI PUSH2 0x1786 PUSH2 0x163B JUMP JUMPDEST JUMPDEST PUSH1 0x0 PUSH2 0x1795 DUP5 DUP3 DUP6 ADD PUSH2 0x175C JUMP JUMPDEST SWAP2 POP POP SWAP3 SWAP2 POP POP JUMP JUMPDEST PUSH1 0x0 DUP2 ISZERO ISZERO SWAP1 POP SWAP2 SWAP1 POP JUMP JUMPDEST PUSH2 0x17B3 DUP2 PUSH2 0x179E JUMP JUMPDEST DUP3 MSTORE POP POP JUMP JUMPDEST PUSH1 0x0 PUSH1 0x20 DUP3 ADD SWAP1 POP PUSH2 0x17CE PUSH1 0x0 DUP4 ADD DUP5 PUSH2 0x17AA JUMP JUMPDEST SWAP3 SWAP2 POP POP JUMP JUMPDEST PUSH1 0x0 PUSH1 0x20 DUP3 DUP5 SUB SLT ISZERO PUSH2 0x17EA JUMPI PUSH2 0x17E9 PUSH2 0x163B JUMP JUMPDEST JUMPDEST PUSH1 0x0 PUSH2 0x17F8 DUP5 DUP3 DUP6 ADD PUSH2 0x16C4 JUMP JUMPDEST SWAP2 POP POP SWAP3 SWAP2 POP POP JUMP JUMPDEST PUSH1 0x0 DUP2 SWAP1 POP SWAP2 SWAP1 POP JUMP JUMPDEST PUSH1 0x0 PUSH2 0x1826 PUSH2 0x1821 PUSH2 0x181C DUP5 PUSH2 0x167B JUMP JUMPDEST PUSH2 0x1801 JUMP JUMPDEST PUSH2 0x167B JUMP JUMPDEST SWAP1 POP SWAP2 SWAP1 POP JUMP JUMPDEST PUSH1 0x0 PUSH2 0x1838 DUP3 PUSH2 0x180B JUMP JUMPDEST SWAP1 POP SWAP2 SWAP1 POP JUMP JUMPDEST PUSH1 0x0 PUSH2 0x184A DUP3 PUSH2 0x182D JUMP JUMPDEST SWAP1 POP SWAP2 SWAP1 POP JUMP JUMPDEST PUSH2 0x185A DUP2 PUSH2 0x183F JUMP JUMPDEST DUP3 MSTORE POP POP JUMP JUMPDEST PUSH1 0x0 PUSH1 0x20 DUP3 ADD SWAP1 POP PUSH2 0x1875 PUSH1 0x0 DUP4 ADD DUP5 PUSH2 0x1851 JUMP JUMPDEST SWAP3 SWAP2 POP POP JUMP JUMPDEST PUSH1 0x0 DUP1 REVERT JUMPDEST PUSH1 0x0 PUSH1 0x1F NOT PUSH1 0x1F DUP4 ADD AND SWAP1 POP SWAP2 SWAP1 POP JUMP JUMPDEST PUSH32 0x4E487B7100000000000000000000000000000000000000000000000000000000 PUSH1 0x0 MSTORE PUSH1 0x41 PUSH1 0x4 MSTORE PUSH1 0x24 PUSH1 0x0 REVERT JUMPDEST PUSH2 0x18C9 DUP3 PUSH2 0x1880 JUMP JUMPDEST DUP2 ADD DUP2 DUP2 LT PUSH8 0xFFFFFFFFFFFFFFFF DUP3 GT OR ISZERO PUSH2 0x18E8 JUMPI PUSH2 0x18E7 PUSH2 0x1891 JUMP JUMPDEST JUMPDEST DUP1 PUSH1 0x40 MSTORE POP POP POP JUMP JUMPDEST PUSH1 0x0 PUSH2 0x18FB PUSH2 0x1631 JUMP JUMPDEST SWAP1 POP PUSH2 0x1907 DUP3 DUP3 PUSH2 0x18C0 JUMP JUMPDEST SWAP2 SWAP1 POP JUMP JUMPDEST PUSH1 0x0 PUSH8 0xFFFFFFFFFFFFFFFF DUP3 GT ISZERO PUSH2 0x1927 JUMPI PUSH2 0x1926 PUSH2 0x1891 JUMP JUMPDEST JUMPDEST PUSH1 0x20 DUP3 MUL SWAP1 POP PUSH1 0x20 DUP2 ADD SWAP1 POP SWAP2 SWAP1 POP JUMP JUMPDEST PUSH1 0x0 DUP1 REVERT JUMPDEST PUSH1 0x0 PUSH2 0x1950 PUSH2 0x194B DUP5 PUSH2 0x190C JUMP JUMPDEST PUSH2 0x18F1 JUMP JUMPDEST SWAP1 POP DUP1 DUP4 DUP3 MSTORE PUSH1 0x20 DUP3 ADD SWAP1 POP PUSH1 0x20 DUP5 MUL DUP4 ADD DUP6 DUP2 GT ISZERO PUSH2 0x1973 JUMPI PUSH2 0x1972 PUSH2 0x1938 JUMP JUMPDEST JUMPDEST DUP4 JUMPDEST DUP2 DUP2 LT ISZERO PUSH2 0x199C JUMPI DUP1 PUSH2 0x1988 DUP9 DUP3 PUSH2 0x1666 JUMP JUMPDEST DUP5 MSTORE PUSH1 0x20 DUP5 ADD SWAP4 POP POP PUSH1 0x20 DUP2 ADD SWAP1 POP PUSH2 0x1975 JUMP JUMPDEST POP POP POP SWAP4 SWAP3 POP POP POP JUMP JUMPDEST PUSH1 0x0 DUP3 PUSH1 0x1F DUP4 ADD SLT PUSH2 0x19BB JUMPI PUSH2 0x19BA PUSH2 0x187B JUMP JUMPDEST JUMPDEST DUP2 CALLDATALOAD PUSH2 0x19CB DUP5 DUP3 PUSH1 0x20 DUP7 ADD PUSH2 0x193D JUMP JUMPDEST SWAP2 POP POP SWAP3 SWAP2 POP POP JUMP JUMPDEST PUSH1 0x0 DUP1 PUSH1 0x40 DUP4 DUP6 SUB SLT ISZERO PUSH2 0x19EB JUMPI PUSH2 0x19EA PUSH2 0x163B JUMP JUMPDEST JUMPDEST PUSH1 0x0 PUSH2 0x19F9 DUP6 DUP3 DUP7 ADD PUSH2 0x1666 JUMP JUMPDEST SWAP3 POP POP PUSH1 0x20 DUP4 ADD CALLDATALOAD PUSH8 0xFFFFFFFFFFFFFFFF DUP2 GT ISZERO PUSH2 0x1A1A JUMPI PUSH2 0x1A19 PUSH2 0x1640 JUMP JUMPDEST JUMPDEST PUSH2 0x1A26 DUP6 DUP3 DUP7 ADD PUSH2 0x19A6 JUMP JUMPDEST SWAP2 POP POP SWAP3 POP SWAP3 SWAP1 POP JUMP JUMPDEST PUSH1 0x0 DUP2 SWAP1 POP SWAP2 SWAP1 POP JUMP JUMPDEST PUSH2 0x1A43 DUP2 PUSH2 0x1A30 JUMP JUMPDEST DUP2 EQ PUSH2 0x1A4E JUMPI PUSH1 0x0 DUP1 REVERT JUMPDEST POP JUMP JUMPDEST PUSH1 0x0 DUP2 CALLDATALOAD SWAP1 POP PUSH2 0x1A60 DUP2 PUSH2 0x1A3A JUMP JUMPDEST SWAP3 SWAP2 POP POP JUMP JUMPDEST PUSH1 0x0 PUSH1 0x20 DUP3 DUP5 SUB SLT ISZERO PUSH2 0x1A7C JUMPI PUSH2 0x1A7B PUSH2 0x163B JUMP JUMPDEST JUMPDEST PUSH1 0x0 PUSH2 0x1A8A DUP5 DUP3 DUP6 ADD PUSH2 0x1A51 JUMP JUMPDEST SWAP2 POP POP SWAP3 SWAP2 POP POP JUMP JUMPDEST PUSH2 0x1A9C DUP2 PUSH2 0x1A30 JUMP JUMPDEST DUP3 MSTORE POP POP JUMP JUMPDEST PUSH1 0x0 PUSH1 0x20 DUP3 ADD SWAP1 POP PUSH2 0x1AB7 PUSH1 0x0 DUP4 ADD DUP5 PUSH2 0x1A93 JUMP JUMPDEST SWAP3 SWAP2 POP POP JUMP JUMPDEST PUSH1 0x0 PUSH4 0xFFFFFFFF DUP3 AND SWAP1 POP SWAP2 SWAP1 POP JUMP JUMPDEST PUSH2 0x1AD6 DUP2 PUSH2 0x1ABD JUMP JUMPDEST DUP3 MSTORE POP POP JUMP JUMPDEST PUSH1 0x0 PUSH1 0x20 DUP3 ADD SWAP1 POP PUSH2 0x1AF1 PUSH1 0x0 DUP4 ADD DUP5 PUSH2 0x1ACD JUMP JUMPDEST SWAP3 SWAP2 POP POP JUMP JUMPDEST PUSH1 0x0 DUP1 PUSH1 0x40 DUP4 DUP6 SUB SLT ISZERO PUSH2 0x1B0E JUMPI PUSH2 0x1B0D PUSH2 0x163B JUMP JUMPDEST JUMPDEST PUSH1 0x0 PUSH2 0x1B1C DUP6 DUP3 DUP7 ADD PUSH2 0x1A51 JUMP JUMPDEST SWAP3 POP POP PUSH1 0x20 PUSH2 0x1B2D DUP6 DUP3 DUP7 ADD PUSH2 0x16C4 JUMP JUMPDEST SWAP2 POP POP SWAP3 POP SWAP3 SWAP1 POP JUMP JUMPDEST PUSH1 0x0 PUSH2 0x1B42 DUP3 PUSH2 0x182D JUMP JUMPDEST SWAP1 POP SWAP2 SWAP1 POP JUMP JUMPDEST PUSH2 0x1B52 DUP2 PUSH2 0x1B37 JUMP JUMPDEST DUP3 MSTORE POP POP JUMP JUMPDEST PUSH1 0x0 PUSH1 0x20 DUP3 ADD SWAP1 POP PUSH2 0x1B6D PUSH1 0x0 DUP4 ADD DUP5 PUSH2 0x1B49 JUMP JUMPDEST SWAP3 SWAP2 POP POP JUMP JUMPDEST PUSH1 0x0 PUSH2 0x1B7E DUP3 PUSH2 0x182D JUMP JUMPDEST SWAP1 POP SWAP2 SWAP1 POP JUMP JUMPDEST PUSH2 0x1B8E DUP2 PUSH2 0x1B73 JUMP JUMPDEST DUP3 MSTORE POP POP JUMP JUMPDEST PUSH1 0x0 PUSH1 0x20 DUP3 ADD SWAP1 POP PUSH2 0x1BA9 PUSH1 0x0 DUP4 ADD DUP5 PUSH2 0x1B85 JUMP JUMPDEST SWAP3 SWAP2 POP POP JUMP JUMPDEST PUSH2 0x1BB8 DUP2 PUSH2 0x1645 JUMP JUMPDEST DUP3 MSTORE POP POP JUMP JUMPDEST PUSH1 0x0 PUSH1 0x20 DUP3 ADD SWAP1 POP PUSH2 0x1BD3 PUSH1 0x0 DUP4 ADD DUP5 PUSH2 0x1BAF JUMP JUMPDEST SWAP3 SWAP2 POP POP JUMP JUMPDEST PUSH1 0x0 PUSH1 0x20 DUP3 DUP5 SUB SLT ISZERO PUSH2 0x1BEF JUMPI PUSH2 0x1BEE PUSH2 0x163B JUMP JUMPDEST JUMPDEST PUSH1 0x0 PUSH2 0x1BFD DUP5 DUP3 DUP6 ADD PUSH2 0x1666 JUMP JUMPDEST SWAP2 POP POP SWAP3 SWAP2 POP POP JUMP JUMPDEST PUSH1 0x0 PUSH8 0xFFFFFFFFFFFFFFFF DUP3 AND SWAP1 POP SWAP2 SWAP1 POP JUMP JUMPDEST PUSH2 0x1C23 DUP2 PUSH2 0x1C06 JUMP JUMPDEST DUP3 MSTORE POP POP JUMP JUMPDEST PUSH1 0x0 PUSH1 0x20 DUP3 ADD SWAP1 POP PUSH2 0x1C3E PUSH1 0x0 DUP4 ADD DUP5 PUSH2 0x1C1A JUMP JUMPDEST SWAP3 SWAP2 POP POP JUMP JUMPDEST PUSH1 0x0 PUSH1 0x40 DUP3 ADD SWAP1 POP PUSH2 0x1C59 PUSH1 0x0 DUP4 ADD DUP6 PUSH2 0x17AA JUMP JUMPDEST PUSH2 0x1C66 PUSH1 0x20 DUP4 ADD DUP5 PUSH2 0x17AA JUMP JUMPDEST SWAP4 SWAP3 POP POP POP JUMP JUMPDEST PUSH2 0x1C76 DUP2 PUSH2 0x169B JUMP JUMPDEST DUP3 MSTORE POP POP JUMP JUMPDEST PUSH1 0x0 PUSH1 0x20 DUP3 ADD SWAP1 POP PUSH2 0x1C91 PUSH1 0x0 DUP4 ADD DUP5 PUSH2 0x1C6D JUMP JUMPDEST SWAP3 SWAP2 POP POP JUMP JUMPDEST PUSH1 0x0 PUSH2 0xFFFF DUP3 AND SWAP1 POP SWAP2 SWAP1 POP JUMP JUMPDEST PUSH2 0x1CAE DUP2 PUSH2 0x1C97 JUMP JUMPDEST DUP3 MSTORE POP POP JUMP JUMPDEST PUSH1 0x0 PUSH1 0x20 DUP3 ADD SWAP1 POP PUSH2 0x1CC9 PUSH1 0x0 DUP4 ADD DUP5 PUSH2 0x1CA5 JUMP JUMPDEST SWAP3 SWAP2 POP POP JUMP JUMPDEST PUSH1 0x0 DUP2 MLOAD SWAP1 POP SWAP2 SWAP1 POP JUMP JUMPDEST PUSH1 0x0 DUP3 DUP3 MSTORE PUSH1 0x20 DUP3 ADD SWAP1 POP SWAP3 SWAP2 POP POP JUMP JUMPDEST PUSH1 0x0 DUP2 SWAP1 POP PUSH1 0x20 DUP3 ADD SWAP1 POP SWAP2 SWAP1 POP JUMP JUMPDEST PUSH2 0x1D04 DUP2 PUSH2 0x1645 JUMP JUMPDEST DUP3 MSTORE POP POP JUMP JUMPDEST PUSH1 0x0 PUSH2 0x1D16 DUP4 DUP4 PUSH2 0x1CFB JUMP JUMPDEST PUSH1 0x20 DUP4 ADD SWAP1 POP SWAP3 SWAP2 POP POP JUMP JUMPDEST PUSH1 0x0 PUSH1 0x20 DUP3 ADD SWAP1 POP SWAP2 SWAP1 POP JUMP JUMPDEST PUSH1 0x0 PUSH2 0x1D3A DUP3 PUSH2 0x1CCF JUMP JUMPDEST PUSH2 0x1D44 DUP2 DUP6 PUSH2 0x1CDA JUMP JUMPDEST SWAP4 POP PUSH2 0x1D4F DUP4 PUSH2 0x1CEB JUMP JUMPDEST DUP1 PUSH1 0x0 JUMPDEST DUP4 DUP2 LT ISZERO PUSH2 0x1D80 JUMPI DUP2 MLOAD PUSH2 0x1D67 DUP9 DUP3 PUSH2 0x1D0A JUMP JUMPDEST SWAP8 POP PUSH2 0x1D72 DUP4 PUSH2 0x1D22 JUMP JUMPDEST SWAP3 POP POP PUSH1 0x1 DUP2 ADD SWAP1 POP PUSH2 0x1D53 JUMP JUMPDEST POP DUP6 SWAP4 POP POP POP POP SWAP3 SWAP2 POP POP JUMP JUMPDEST PUSH1 0x0 PUSH1 0x40 DUP3 ADD SWAP1 POP PUSH2 0x1DA2 PUSH1 0x0 DUP4 ADD DUP6 PUSH2 0x17AA JUMP JUMPDEST DUP2 DUP2 SUB PUSH1 0x20 DUP4 ADD MSTORE PUSH2 0x1DB4 DUP2 DUP5 PUSH2 0x1D2F JUMP JUMPDEST SWAP1 POP SWAP4 SWAP3 POP POP POP JUMP JUMPDEST PUSH1 0x0 PUSH1 0x40 DUP3 ADD SWAP1 POP PUSH2 0x1DD2 PUSH1 0x0 DUP4 ADD DUP6 PUSH2 0x1C6D JUMP JUMPDEST PUSH2 0x1DDF PUSH1 0x20 DUP4 ADD DUP5 PUSH2 0x1BAF JUMP JUMPDEST SWAP4 SWAP3 POP POP POP JUMP JUMPDEST PUSH2 0x1DEF DUP2 PUSH2 0x179E JUMP JUMPDEST DUP2 EQ PUSH2 0x1DFA JUMPI PUSH1 0x0 DUP1 REVERT JUMPDEST POP JUMP JUMPDEST PUSH1 0x0 DUP2 MLOAD SWAP1 POP PUSH2 0x1E0C DUP2 PUSH2 0x1DE6 JUMP JUMPDEST SWAP3 SWAP2 POP POP JUMP JUMPDEST PUSH1 0x0 PUSH1 0x20 DUP3 DUP5 SUB SLT ISZERO PUSH2 0x1E28 JUMPI PUSH2 0x1E27 PUSH2 0x163B JUMP JUMPDEST JUMPDEST PUSH1 0x0 PUSH2 0x1E36 DUP5 DUP3 DUP6 ADD PUSH2 0x1DFD JUMP JUMPDEST SWAP2 POP POP SWAP3 SWAP2 POP POP JUMP JUMPDEST PUSH1 0x0 PUSH1 0x40 DUP3 ADD SWAP1 POP PUSH2 0x1E54 PUSH1 0x0 DUP4 ADD DUP6 PUSH2 0x1C1A JUMP JUMPDEST PUSH2 0x1E61 PUSH1 0x20 DUP4 ADD DUP5 PUSH2 0x1C6D JUMP JUMPDEST SWAP4 SWAP3 POP POP POP JUMP JUMPDEST PUSH1 0x0 PUSH1 0x40 DUP3 ADD SWAP1 POP PUSH2 0x1E7D PUSH1 0x0 DUP4 ADD DUP6 PUSH2 0x1C6D JUMP JUMPDEST PUSH2 0x1E8A PUSH1 0x20 DUP4 ADD DUP5 PUSH2 0x1C6D JUMP JUMPDEST SWAP4 SWAP3 POP POP POP JUMP JUMPDEST PUSH1 0x0 DUP2 SWAP1 POP SWAP2 SWAP1 POP JUMP JUMPDEST PUSH1 0x0 PUSH2 0x1EB6 PUSH2 0x1EB1 PUSH2 0x1EAC DUP5 PUSH2 0x1E91 JUMP JUMPDEST PUSH2 0x1801 JUMP JUMPDEST PUSH2 0x1ABD JUMP JUMPDEST SWAP1 POP SWAP2 SWAP1 POP JUMP JUMPDEST PUSH2 0x1EC6 DUP2 PUSH2 0x1E9B JUMP JUMPDEST DUP3 MSTORE POP POP JUMP JUMPDEST PUSH1 0x0 PUSH1 0xA0 DUP3 ADD SWAP1 POP PUSH2 0x1EE1 PUSH1 0x0 DUP4 ADD DUP9 PUSH2 0x1A93 JUMP JUMPDEST PUSH2 0x1EEE PUSH1 0x20 DUP4 ADD DUP8 PUSH2 0x1C1A JUMP JUMPDEST PUSH2 0x1EFB PUSH1 0x40 DUP4 ADD DUP7 PUSH2 0x1CA5 JUMP JUMPDEST PUSH2 0x1F08 PUSH1 0x60 DUP4 ADD DUP6 PUSH2 0x1ACD JUMP JUMPDEST PUSH2 0x1F15 PUSH1 0x80 DUP4 ADD DUP5 PUSH2 0x1EBD JUMP JUMPDEST SWAP7 SWAP6 POP POP POP POP POP POP JUMP JUMPDEST PUSH1 0x0 DUP2 MLOAD SWAP1 POP PUSH2 0x1F2E DUP2 PUSH2 0x164F JUMP JUMPDEST SWAP3 SWAP2 POP POP JUMP JUMPDEST PUSH1 0x0 PUSH1 0x20 DUP3 DUP5 SUB SLT ISZERO PUSH2 0x1F4A JUMPI PUSH2 0x1F49 PUSH2 0x163B JUMP JUMPDEST JUMPDEST PUSH1 0x0 PUSH2 0x1F58 DUP5 DUP3 DUP6 ADD PUSH2 0x1F1F JUMP JUMPDEST SWAP2 POP POP SWAP3 SWAP2 POP POP JUMP JUMPDEST PUSH1 0x0 PUSH1 0x40 DUP3 ADD SWAP1 POP PUSH2 0x1F76 PUSH1 0x0 DUP4 ADD DUP6 PUSH2 0x1BAF JUMP JUMPDEST PUSH2 0x1F83 PUSH1 0x20 DUP4 ADD DUP5 PUSH2 0x1C6D JUMP JUMPDEST SWAP4 SWAP3 POP POP POP JUMP JUMPDEST PUSH1 0x0 DUP2 MLOAD SWAP1 POP SWAP2 SWAP1 POP JUMP JUMPDEST PUSH1 0x0 DUP3 DUP3 MSTORE PUSH1 0x20 DUP3 ADD SWAP1 POP SWAP3 SWAP2 POP POP JUMP JUMPDEST PUSH1 0x0 JUMPDEST DUP4 DUP2 LT ISZERO PUSH2 0x1FC4 JUMPI DUP1 DUP3 ADD MLOAD DUP2 DUP5 ADD MSTORE PUSH1 0x20 DUP2 ADD SWAP1 POP PUSH2 0x1FA9 JUMP JUMPDEST PUSH1 0x0 DUP5 DUP5 ADD MSTORE POP POP POP POP JUMP JUMPDEST PUSH1 0x0 PUSH2 0x1FDB DUP3 PUSH2 0x1F8A JUMP JUMPDEST PUSH2 0x1FE5 DUP2 DUP6 PUSH2 0x1F95 JUMP JUMPDEST SWAP4 POP PUSH2 0x1FF5 DUP2 DUP6 PUSH1 0x20 DUP7 ADD PUSH2 0x1FA6 JUMP JUMPDEST PUSH2 0x1FFE DUP2 PUSH2 0x1880 JUMP JUMPDEST DUP5 ADD SWAP2 POP POP SWAP3 SWAP2 POP POP JUMP JUMPDEST PUSH1 0x0 PUSH1 0x60 DUP3 ADD SWAP1 POP PUSH2 0x201E PUSH1 0x0 DUP4 ADD DUP7 PUSH2 0x1C6D JUMP JUMPDEST PUSH2 0x202B PUSH1 0x20 DUP4 ADD DUP6 PUSH2 0x1BAF JUMP JUMPDEST DUP2 DUP2 SUB PUSH1 0x40 DUP4 ADD MSTORE PUSH2 0x203D DUP2 DUP5 PUSH2 0x1FD0 JUMP JUMPDEST SWAP1 POP SWAP5 SWAP4 POP POP POP POP JUMP JUMPDEST PUSH1 0x0 PUSH1 0x40 DUP3 ADD SWAP1 POP PUSH2 0x205C PUSH1 0x0 DUP4 ADD DUP6 PUSH2 0x1BAF JUMP JUMPDEST DUP2 DUP2 SUB PUSH1 0x20 DUP4 ADD MSTORE PUSH2 0x206E DUP2 DUP5 PUSH2 0x1D2F JUMP JUMPDEST SWAP1 POP SWAP4 SWAP3 POP POP POP JUMP JUMPDEST PUSH1 0x0 PUSH1 0x40 DUP3 ADD SWAP1 POP PUSH2 0x208C PUSH1 0x0 DUP4 ADD DUP6 PUSH2 0x1C6D JUMP JUMPDEST PUSH2 0x2099 PUSH1 0x20 DUP4 ADD DUP5 PUSH2 0x1A93 JUMP JUMPDEST SWAP4 SWAP3 POP POP POP JUMP INVALID LOG2 PUSH5 0x6970667358 0x22 SLT KECCAK256 0xBD DUP10 0xA7 SWAP4 DUP13 ISZERO 0x2C ORIGIN 0xAE CALLVALUE 0xC4 EXP DUP5 DELEGATECALL 0xF SWAP6 PUSH18 0x3E47D8ACA8BA5C5AE7756DAFE0D07F64736F PUSH13 0x63430008170033000000000000 "
				},
				"gasEstimates": {
					"creation": {
						"codeDepositCost": "1681200",
						"executionCost": "infinite",
						"totalCost": "infinite"
					},
					"external": {
						"COORDINATOR()": "infinite",
						"DEFAULT_ADMIN_ROLE()": "380",
						"LINKTOKEN()": "infinite",
						"REQUESTER_ROLE()": "396",
						"addConsumer(address)": "infinite",
						"callbackGasLimit()": "2567",
						"cancelSubscription(address)": "infinite",
						"drawingContract()": "infinite",
						"getRequestStatus(uint256)": "infinite",
						"getRoleAdmin(bytes32)": "infinite",
						"grantRole(bytes32,address)": "infinite",
						"hasRole(bytes32,address)": "3207",
						"keyHash()": "2540",
						"lastRequestId()": "2539",
						"rawFulfillRandomWords(uint256,uint256[])": "infinite",
						"removeConsumer(address)": "infinite",
						"renounceRole(bytes32,address)": "infinite",
						"requestConfirmations()": "2560",
						"requestIds(uint256)": "infinite",
						"requestRandomWords(address)": "infinite",
						"revokeRole(bytes32,address)": "infinite",
						"s_requests(uint256)": "infinite",
						"s_subscriptionId()": "2566",
						"setDrawingContract(address)": "infinite",
						"supportsInterface(bytes4)": "796",
						"topUpSubscription(uint256)": "infinite",
						"vrfCoordinator()": "2581",
						"withdraw(uint256,address)": "infinite"
					},
					"internal": {
						"createNewSubscription()": "infinite",
						"fulfillRandomWords(uint256,uint256[] memory)": "infinite"
					}
				},
				"methodIdentifiers": {
					"COORDINATOR()": "3b2bcbf1",
					"DEFAULT_ADMIN_ROLE()": "a217fddf",
					"LINKTOKEN()": "55380dfb",
					"REQUESTER_ROLE()": "4430db7e",
					"addConsumer(address)": "112940f9",
					"callbackGasLimit()": "24f74697",
					"cancelSubscription(address)": "93d81d58",
					"drawingContract()": "0fa08046",
					"getRequestStatus(uint256)": "d8a4676f",
					"getRoleAdmin(bytes32)": "248a9ca3",
					"grantRole(bytes32,address)": "2f2ff15d",
					"hasRole(bytes32,address)": "91d14854",
					"keyHash()": "61728f39",
					"lastRequestId()": "fc2a88c3",
					"rawFulfillRandomWords(uint256,uint256[])": "1fe543e3",
					"removeConsumer(address)": "0e27e3df",
					"renounceRole(bytes32,address)": "36568abe",
					"requestConfirmations()": "b0fb162f",
					"requestIds(uint256)": "8796ba8c",
					"requestRandomWords(address)": "80c95b14",
					"revokeRole(bytes32,address)": "d547741f",
					"s_requests(uint256)": "a168fa89",
					"s_subscriptionId()": "8ac00021",
					"setDrawingContract(address)": "bdf1e06d",
					"supportsInterface(bytes4)": "01ffc9a7",
					"topUpSubscription(uint256)": "86850e93",
					"vrfCoordinator()": "a3e56fa8",
					"withdraw(uint256,address)": "00f714ce"
				}
			},
			"storageLayout": {
				"storage": [
					{
						"astId": 275,
						"contract": "contracts/periphery/VRFManagerChainlink.sol:VRFv2SubscriptionManager",
						"label": "_roles",
						"offset": 0,
						"slot": "0",
						"type": "t_mapping(t_bytes32,t_struct(RoleData)270_storage)"
					},
					{
						"astId": 1261,
						"contract": "contracts/periphery/VRFManagerChainlink.sol:VRFv2SubscriptionManager",
						"label": "COORDINATOR",
						"offset": 0,
						"slot": "1",
						"type": "t_contract(VRFCoordinatorV2Interface)95"
					},
					{
						"astId": 1264,
						"contract": "contracts/periphery/VRFManagerChainlink.sol:VRFv2SubscriptionManager",
						"label": "LINKTOKEN",
						"offset": 0,
						"slot": "2",
						"type": "t_contract(LinkTokenInterface)190"
					},
					{
						"astId": 1267,
						"contract": "contracts/periphery/VRFManagerChainlink.sol:VRFv2SubscriptionManager",
						"label": "drawingContract",
						"offset": 0,
						"slot": "3",
						"type": "t_contract(IHierarchicalDrawing)987"
					},
					{
						"astId": 1280,
						"contract": "contracts/periphery/VRFManagerChainlink.sol:VRFv2SubscriptionManager",
						"label": "s_requests",
						"offset": 0,
						"slot": "4",
						"type": "t_mapping(t_uint256,t_struct(RequestStatus)1275_storage)"
					},
					{
						"astId": 1282,
						"contract": "contracts/periphery/VRFManagerChainlink.sol:VRFv2SubscriptionManager",
						"label": "vrfCoordinator",
						"offset": 0,
						"slot": "5",
						"type": "t_address"
					},
					{
						"astId": 1284,
						"contract": "contracts/periphery/VRFManagerChainlink.sol:VRFv2SubscriptionManager",
						"label": "keyHash",
						"offset": 0,
						"slot": "6",
						"type": "t_bytes32"
					},
					{
						"astId": 1286,
						"contract": "contracts/periphery/VRFManagerChainlink.sol:VRFv2SubscriptionManager",
						"label": "requestConfirmations",
						"offset": 0,
						"slot": "7",
						"type": "t_uint16"
					},
					{
						"astId": 1288,
						"contract": "contracts/periphery/VRFManagerChainlink.sol:VRFv2SubscriptionManager",
						"label": "callbackGasLimit",
						"offset": 2,
						"slot": "7",
						"type": "t_uint32"
					},
					{
						"astId": 1290,
						"contract": "contracts/periphery/VRFManagerChainlink.sol:VRFv2SubscriptionManager",
						"label": "s_subscriptionId",
						"offset": 6,
						"slot": "7",
						"type": "t_uint64"
					},
					{
						"astId": 1293,
						"contract": "contracts/periphery/VRFManagerChainlink.sol:VRFv2SubscriptionManager",
						"label": "requestIds",
						"offset": 0,
						"slot": "8",
						"type": "t_array(t_uint256)dyn_storage"
					},
					{
						"astId": 1295,
						"contract": "contracts/periphery/VRFManagerChainlink.sol:VRFv2SubscriptionManager",
						"label": "lastRequestId",
						"offset": 0,
						"slot": "9",
						"type": "t_uint256"
					}
				],
				"types": {
					"t_address": {
						"encoding": "inplace",
						"label": "address",
						"numberOfBytes": "20"
					},
					"t_array(t_uint256)dyn_storage": {
						"base": "t_uint256",
						"encoding": "dynamic_array",
						"label": "uint256[]",
						"numberOfBytes": "32"
					},
					"t_bool": {
						"encoding": "inplace",
						"label": "bool",
						"numberOfBytes": "1"
					},
					"t_bytes32": {
						"encoding": "inplace",
						"label": "bytes32",
						"numberOfBytes": "32"
					},
					"t_contract(IHierarchicalDrawing)987": {
						"encoding": "inplace",
						"label": "contract IHierarchicalDrawing",
						"numberOfBytes": "20"
					},
					"t_contract(LinkTokenInterface)190": {
						"encoding": "inplace",
						"label": "contract LinkTokenInterface",
						"numberOfBytes": "20"
					},
					"t_contract(VRFCoordinatorV2Interface)95": {
						"encoding": "inplace",
						"label": "contract VRFCoordinatorV2Interface",
						"numberOfBytes": "20"
					},
					"t_mapping(t_address,t_bool)": {
						"encoding": "mapping",
						"key": "t_address",
						"label": "mapping(address => bool)",
						"numberOfBytes": "32",
						"value": "t_bool"
					},
					"t_mapping(t_bytes32,t_struct(RoleData)270_storage)": {
						"encoding": "mapping",
						"key": "t_bytes32",
						"label": "mapping(bytes32 => struct AccessControl.RoleData)",
						"numberOfBytes": "32",
						"value": "t_struct(RoleData)270_storage"
					},
					"t_mapping(t_uint256,t_struct(RequestStatus)1275_storage)": {
						"encoding": "mapping",
						"key": "t_uint256",
						"label": "mapping(uint256 => struct VRFv2SubscriptionManager.RequestStatus)",
						"numberOfBytes": "32",
						"value": "t_struct(RequestStatus)1275_storage"
					},
					"t_struct(RequestStatus)1275_storage": {
						"encoding": "inplace",
						"label": "struct VRFv2SubscriptionManager.RequestStatus",
						"members": [
							{
								"astId": 1269,
								"contract": "contracts/periphery/VRFManagerChainlink.sol:VRFv2SubscriptionManager",
								"label": "fulfilled",
								"offset": 0,
								"slot": "0",
								"type": "t_bool"
							},
							{
								"astId": 1271,
								"contract": "contracts/periphery/VRFManagerChainlink.sol:VRFv2SubscriptionManager",
								"label": "exists",
								"offset": 1,
								"slot": "0",
								"type": "t_bool"
							},
							{
								"astId": 1274,
								"contract": "contracts/periphery/VRFManagerChainlink.sol:VRFv2SubscriptionManager",
								"label": "randomWords",
								"offset": 0,
								"slot": "1",
								"type": "t_array(t_uint256)dyn_storage"
							}
						],
						"numberOfBytes": "64"
					},
					"t_struct(RoleData)270_storage": {
						"encoding": "inplace",
						"label": "struct AccessControl.RoleData",
						"members": [
							{
								"astId": 267,
								"contract": "contracts/periphery/VRFManagerChainlink.sol:VRFv2SubscriptionManager",
								"label": "hasRole",
								"offset": 0,
								"slot": "0",
								"type": "t_mapping(t_address,t_bool)"
							},
							{
								"astId": 269,
								"contract": "contracts/periphery/VRFManagerChainlink.sol:VRFv2SubscriptionManager",
								"label": "adminRole",
								"offset": 0,
								"slot": "1",
								"type": "t_bytes32"
							}
						],
						"numberOfBytes": "64"
					},
					"t_uint16": {
						"encoding": "inplace",
						"label": "uint16",
						"numberOfBytes": "2"
					},
					"t_uint256": {
						"encoding": "inplace",
						"label": "uint256",
						"numberOfBytes": "32"
					},
					"t_uint32": {
						"encoding": "inplace",
						"label": "uint32",
						"numberOfBytes": "4"
					},
					"t_uint64": {
						"encoding": "inplace",
						"label": "uint64",
						"numberOfBytes": "8"
					}
				}
			},
			"userdoc": {
				"kind": "user",
				"methods": {},
				"version": 1
			}
		}
	}
}