{
	"contracts/periphery/MarketplaceExample.sol": {
		"MarketplaceReceiver": {
			"abi": [
				{
					"inputs": [
						{
							"internalType": "address",
							"name": "_basePaymentToken",
							"type": "address"
						},
						{
							"internalType": "address",
							"name": "_initialAdmin",
							"type": "address"
						},
						{
							"internalType": "address",
							"name": "_register",
							"type": "address"
						}
					],
					"stateMutability": "nonpayable",
					"type": "constructor"
				},
				{
					"inputs": [],
					"name": "InsufficientAllowance",
					"type": "error"
				},
				{
					"inputs": [],
					"name": "InsufficientBalance",
					"type": "error"
				},
				{
					"inputs": [],
					"name": "InvalidAmount",
					"type": "error"
				},
				{
					"inputs": [
						{
							"internalType": "address",
							"name": "owner",
							"type": "address"
						}
					],
					"name": "OwnableInvalidOwner",
					"type": "error"
				},
				{
					"inputs": [
						{
							"internalType": "address",
							"name": "account",
							"type": "address"
						}
					],
					"name": "OwnableUnauthorizedAccount",
					"type": "error"
				},
				{
					"anonymous": false,
					"inputs": [
						{
							"indexed": true,
							"internalType": "address",
							"name": "previousOwner",
							"type": "address"
						},
						{
							"indexed": true,
							"internalType": "address",
							"name": "newOwner",
							"type": "address"
						}
					],
					"name": "OwnershipTransferred",
					"type": "event"
				},
				{
					"anonymous": false,
					"inputs": [
						{
							"indexed": true,
							"internalType": "address",
							"name": "buyer",
							"type": "address"
						},
						{
							"indexed": false,
							"internalType": "uint32",
							"name": "amount",
							"type": "uint32"
						}
					],
					"name": "PackPurchased",
					"type": "event"
				},
				{
					"inputs": [],
					"name": "owner",
					"outputs": [
						{
							"internalType": "address",
							"name": "",
							"type": "address"
						}
					],
					"stateMutability": "view",
					"type": "function"
				},
				{
					"inputs": [
						{
							"internalType": "uint32",
							"name": "",
							"type": "uint32"
						}
					],
					"name": "packsInfo",
					"outputs": [
						{
							"internalType": "uint256",
							"name": "basePrice",
							"type": "uint256"
						}
					],
					"stateMutability": "view",
					"type": "function"
				},
				{
					"inputs": [],
					"name": "paymentToken",
					"outputs": [
						{
							"internalType": "contract ERC20",
							"name": "",
							"type": "address"
						}
					],
					"stateMutability": "view",
					"type": "function"
				},
				{
					"inputs": [
						{
							"internalType": "uint32",
							"name": "_packID",
							"type": "uint32"
						},
						{
							"internalType": "uint32",
							"name": "_packAmounts",
							"type": "uint32"
						},
						{
							"internalType": "address",
							"name": "_referral",
							"type": "address"
						}
					],
					"name": "purchasePack",
					"outputs": [],
					"stateMutability": "nonpayable",
					"type": "function"
				},
				{
					"inputs": [],
					"name": "register",
					"outputs": [
						{
							"internalType": "contract Register",
							"name": "",
							"type": "address"
						}
					],
					"stateMutability": "view",
					"type": "function"
				},
				{
					"inputs": [],
					"name": "renounceOwnership",
					"outputs": [],
					"stateMutability": "nonpayable",
					"type": "function"
				},
				{
					"inputs": [
						{
							"internalType": "uint32",
							"name": "_packID",
							"type": "uint32"
						},
						{
							"internalType": "uint256",
							"name": "_packPrice",
							"type": "uint256"
						},
						{
							"internalType": "uint32[]",
							"name": "_poolsID",
							"type": "uint32[]"
						},
						{
							"internalType": "uint32[]",
							"name": "_amounts",
							"type": "uint32[]"
						}
					],
					"name": "setPack",
					"outputs": [],
					"stateMutability": "nonpayable",
					"type": "function"
				},
				{
					"inputs": [
						{
							"internalType": "address",
							"name": "",
							"type": "address"
						}
					],
					"name": "totalAmount",
					"outputs": [
						{
							"internalType": "uint256",
							"name": "",
							"type": "uint256"
						}
					],
					"stateMutability": "view",
					"type": "function"
				},
				{
					"inputs": [
						{
							"internalType": "address",
							"name": "newOwner",
							"type": "address"
						}
					],
					"name": "transferOwnership",
					"outputs": [],
					"stateMutability": "nonpayable",
					"type": "function"
				},
				{
					"inputs": [
						{
							"internalType": "address",
							"name": "_token",
							"type": "address"
						},
						{
							"internalType": "uint256",
							"name": "_amount",
							"type": "uint256"
						}
					],
					"name": "withdrawFunds",
					"outputs": [],
					"stateMutability": "nonpayable",
					"type": "function"
				},
				{
					"inputs": [],
					"name": "withdrawNative",
					"outputs": [],
					"stateMutability": "nonpayable",
					"type": "function"
				}
			],
			"devdoc": {
				"errors": {
					"OwnableInvalidOwner(address)": [
						{
							"details": "The owner is not a valid owner account. (eg. `address(0)`)"
						}
					],
					"OwnableUnauthorizedAccount(address)": [
						{
							"details": "The caller account is not authorized to perform an operation."
						}
					]
				},
				"kind": "dev",
				"methods": {
					"owner()": {
						"details": "Returns the address of the current owner."
					},
					"purchasePack(uint32,uint32,address)": {
						"params": {
							"_packAmounts": "The amount of the pack",
							"_packID": "The pack ID",
							"_referral": "The referral address"
						}
					},
					"renounceOwnership()": {
						"details": "Leaves the contract without owner. It will not be possible to call `onlyOwner` functions. Can only be called by the current owner. NOTE: Renouncing ownership will leave the contract without an owner, thereby disabling any functionality that is only available to the owner."
					},
					"transferOwnership(address)": {
						"details": "Transfers ownership of the contract to a new account (`newOwner`). Can only be called by the current owner."
					}
				},
				"version": 1
			},
			"evm": {
				"assembly": "    /* \"contracts/periphery/MarketplaceExample.sol\":424:3844  contract MarketplaceReceiver is Ownable, IMarketplace {... */\n  mstore(0x40, 0x80)\n    /* \"contracts/periphery/MarketplaceExample.sol\":656:885  constructor(... */\n  callvalue\n  dup1\n  iszero\n  tag_1\n  jumpi\n  0x00\n  dup1\n  revert\ntag_1:\n  pop\n  mload(0x40)\n  sub(codesize, bytecodeSize)\n  dup1\n  bytecodeSize\n  dup4\n  codecopy\n  dup2\n  dup2\n  add\n  0x40\n  mstore\n  dup2\n  add\n  swap1\n  tag_2\n  swap2\n  swap1\n  tag_3\n  jump\t// in\ntag_2:\n    /* \"contracts/periphery/MarketplaceExample.sol\":775:788  _initialAdmin */\n  dup2\n    /* \"@openzeppelin/contracts/access/Ownable.sol\":1297:1298  0 */\n  0x00\n    /* \"@openzeppelin/contracts/access/Ownable.sol\":1273:1299  initialOwner == address(0) */\n  0xffffffffffffffffffffffffffffffffffffffff\n  and\n    /* \"@openzeppelin/contracts/access/Ownable.sol\":1273:1285  initialOwner */\n  dup2\n    /* \"@openzeppelin/contracts/access/Ownable.sol\":1273:1299  initialOwner == address(0) */\n  0xffffffffffffffffffffffffffffffffffffffff\n  and\n  sub\n    /* \"@openzeppelin/contracts/access/Ownable.sol\":1269:1364  if (initialOwner == address(0)) {... */\n  tag_7\n  jumpi\n    /* \"@openzeppelin/contracts/access/Ownable.sol\":1350:1351  0 */\n  0x00\n    /* \"@openzeppelin/contracts/access/Ownable.sol\":1322:1353  OwnableInvalidOwner(address(0)) */\n  mload(0x40)\n  0x1e4fbdf700000000000000000000000000000000000000000000000000000000\n  dup2\n  mstore\n  0x04\n  add\n  tag_8\n  swap2\n  swap1\n  tag_9\n  jump\t// in\ntag_8:\n  mload(0x40)\n  dup1\n  swap2\n  sub\n  swap1\n  revert\n    /* \"@openzeppelin/contracts/access/Ownable.sol\":1269:1364  if (initialOwner == address(0)) {... */\ntag_7:\n    /* \"@openzeppelin/contracts/access/Ownable.sol\":1373:1405  _transferOwnership(initialOwner) */\n  tag_10\n    /* \"@openzeppelin/contracts/access/Ownable.sol\":1392:1404  initialOwner */\n  dup2\n    /* \"@openzeppelin/contracts/access/Ownable.sol\":1373:1391  _transferOwnership */\n  shl(0x20, tag_11)\n    /* \"@openzeppelin/contracts/access/Ownable.sol\":1373:1405  _transferOwnership(initialOwner) */\n  0x20\n  shr\n  jump\t// in\ntag_10:\n    /* \"@openzeppelin/contracts/access/Ownable.sol\":1225:1412  constructor(address initialOwner) {... */\n  pop\n    /* \"contracts/periphery/MarketplaceExample.sol\":820:837  _basePaymentToken */\n  dup3\n    /* \"contracts/periphery/MarketplaceExample.sol\":799:811  paymentToken */\n  0x03\n  0x00\n    /* \"contracts/periphery/MarketplaceExample.sol\":799:838  paymentToken = ERC20(_basePaymentToken) */\n  0x0100\n  exp\n  dup2\n  sload\n  dup2\n  0xffffffffffffffffffffffffffffffffffffffff\n  mul\n  not\n  and\n  swap1\n  dup4\n  0xffffffffffffffffffffffffffffffffffffffff\n  and\n  mul\n  or\n  swap1\n  sstore\n  pop\n    /* \"contracts/periphery/MarketplaceExample.sol\":868:877  _register */\n  dup1\n    /* \"contracts/periphery/MarketplaceExample.sol\":848:856  register */\n  0x04\n  0x00\n    /* \"contracts/periphery/MarketplaceExample.sol\":848:878  register = Register(_register) */\n  0x0100\n  exp\n  dup2\n  sload\n  dup2\n  0xffffffffffffffffffffffffffffffffffffffff\n  mul\n  not\n  and\n  swap1\n  dup4\n  0xffffffffffffffffffffffffffffffffffffffff\n  and\n  mul\n  or\n  swap1\n  sstore\n  pop\n    /* \"contracts/periphery/MarketplaceExample.sol\":656:885  constructor(... */\n  pop\n  pop\n  pop\n    /* \"contracts/periphery/MarketplaceExample.sol\":424:3844  contract MarketplaceReceiver is Ownable, IMarketplace {... */\n  jump(tag_13)\n    /* \"@openzeppelin/contracts/access/Ownable.sol\":2912:3099  function _transferOwnership(address newOwner) internal virtual {... */\ntag_11:\n    /* \"@openzeppelin/contracts/access/Ownable.sol\":2985:3001  address oldOwner */\n  0x00\n    /* \"@openzeppelin/contracts/access/Ownable.sol\":3004:3010  _owner */\n  dup1\n  0x00\n  swap1\n  sload\n  swap1\n  0x0100\n  exp\n  swap1\n  div\n  0xffffffffffffffffffffffffffffffffffffffff\n  and\n    /* \"@openzeppelin/contracts/access/Ownable.sol\":2985:3010  address oldOwner = _owner */\n  swap1\n  pop\n    /* \"@openzeppelin/contracts/access/Ownable.sol\":3029:3037  newOwner */\n  dup2\n    /* \"@openzeppelin/contracts/access/Ownable.sol\":3020:3026  _owner */\n  0x00\n  dup1\n    /* \"@openzeppelin/contracts/access/Ownable.sol\":3020:3037  _owner = newOwner */\n  0x0100\n  exp\n  dup2\n  sload\n  dup2\n  0xffffffffffffffffffffffffffffffffffffffff\n  mul\n  not\n  and\n  swap1\n  dup4\n  0xffffffffffffffffffffffffffffffffffffffff\n  and\n  mul\n  or\n  swap1\n  sstore\n  pop\n    /* \"@openzeppelin/contracts/access/Ownable.sol\":3083:3091  newOwner */\n  dup2\n    /* \"@openzeppelin/contracts/access/Ownable.sol\":3052:3092  OwnershipTransferred(oldOwner, newOwner) */\n  0xffffffffffffffffffffffffffffffffffffffff\n  and\n    /* \"@openzeppelin/contracts/access/Ownable.sol\":3073:3081  oldOwner */\n  dup2\n    /* \"@openzeppelin/contracts/access/Ownable.sol\":3052:3092  OwnershipTransferred(oldOwner, newOwner) */\n  0xffffffffffffffffffffffffffffffffffffffff\n  and\n  0x8be0079c531659141344cd1fd0a4f28419497f9722a3daafe3b4186f6b6457e0\n  mload(0x40)\n  mload(0x40)\n  dup1\n  swap2\n  sub\n  swap1\n  log3\n    /* \"@openzeppelin/contracts/access/Ownable.sol\":2975:3099  {... */\n  pop\n    /* \"@openzeppelin/contracts/access/Ownable.sol\":2912:3099  function _transferOwnership(address newOwner) internal virtual {... */\n  pop\n  jump\t// out\n    /* \"#utility.yul\":88:205   */\ntag_16:\n    /* \"#utility.yul\":197:198   */\n  0x00\n    /* \"#utility.yul\":194:195   */\n  dup1\n    /* \"#utility.yul\":187:199   */\n  revert\n    /* \"#utility.yul\":334:460   */\ntag_18:\n    /* \"#utility.yul\":371:378   */\n  0x00\n    /* \"#utility.yul\":411:453   */\n  0xffffffffffffffffffffffffffffffffffffffff\n    /* \"#utility.yul\":404:409   */\n  dup3\n    /* \"#utility.yul\":400:454   */\n  and\n    /* \"#utility.yul\":389:454   */\n  swap1\n  pop\n    /* \"#utility.yul\":334:460   */\n  swap2\n  swap1\n  pop\n  jump\t// out\n    /* \"#utility.yul\":466:562   */\ntag_19:\n    /* \"#utility.yul\":503:510   */\n  0x00\n    /* \"#utility.yul\":532:556   */\n  tag_29\n    /* \"#utility.yul\":550:555   */\n  dup3\n    /* \"#utility.yul\":532:556   */\n  tag_18\n  jump\t// in\ntag_29:\n    /* \"#utility.yul\":521:556   */\n  swap1\n  pop\n    /* \"#utility.yul\":466:562   */\n  swap2\n  swap1\n  pop\n  jump\t// out\n    /* \"#utility.yul\":568:690   */\ntag_20:\n    /* \"#utility.yul\":641:665   */\n  tag_31\n    /* \"#utility.yul\":659:664   */\n  dup2\n    /* \"#utility.yul\":641:665   */\n  tag_19\n  jump\t// in\ntag_31:\n    /* \"#utility.yul\":634:639   */\n  dup2\n    /* \"#utility.yul\":631:666   */\n  eq\n    /* \"#utility.yul\":621:684   */\n  tag_32\n  jumpi\n    /* \"#utility.yul\":680:681   */\n  0x00\n    /* \"#utility.yul\":677:678   */\n  dup1\n    /* \"#utility.yul\":670:682   */\n  revert\n    /* \"#utility.yul\":621:684   */\ntag_32:\n    /* \"#utility.yul\":568:690   */\n  pop\n  jump\t// out\n    /* \"#utility.yul\":696:839   */\ntag_21:\n    /* \"#utility.yul\":753:758   */\n  0x00\n    /* \"#utility.yul\":784:790   */\n  dup2\n    /* \"#utility.yul\":778:791   */\n  mload\n    /* \"#utility.yul\":769:791   */\n  swap1\n  pop\n    /* \"#utility.yul\":800:833   */\n  tag_34\n    /* \"#utility.yul\":827:832   */\n  dup2\n    /* \"#utility.yul\":800:833   */\n  tag_20\n  jump\t// in\ntag_34:\n    /* \"#utility.yul\":696:839   */\n  swap3\n  swap2\n  pop\n  pop\n  jump\t// out\n    /* \"#utility.yul\":845:1508   */\ntag_3:\n    /* \"#utility.yul\":933:939   */\n  0x00\n    /* \"#utility.yul\":941:947   */\n  dup1\n    /* \"#utility.yul\":949:955   */\n  0x00\n    /* \"#utility.yul\":998:1000   */\n  0x60\n    /* \"#utility.yul\":986:995   */\n  dup5\n    /* \"#utility.yul\":977:984   */\n  dup7\n    /* \"#utility.yul\":973:996   */\n  sub\n    /* \"#utility.yul\":969:1001   */\n  slt\n    /* \"#utility.yul\":966:1085   */\n  iszero\n  tag_36\n  jumpi\n    /* \"#utility.yul\":1004:1083   */\n  tag_37\n  tag_16\n  jump\t// in\ntag_37:\n    /* \"#utility.yul\":966:1085   */\ntag_36:\n    /* \"#utility.yul\":1124:1125   */\n  0x00\n    /* \"#utility.yul\":1149:1213   */\n  tag_38\n    /* \"#utility.yul\":1205:1212   */\n  dup7\n    /* \"#utility.yul\":1196:1202   */\n  dup3\n    /* \"#utility.yul\":1185:1194   */\n  dup8\n    /* \"#utility.yul\":1181:1203   */\n  add\n    /* \"#utility.yul\":1149:1213   */\n  tag_21\n  jump\t// in\ntag_38:\n    /* \"#utility.yul\":1139:1213   */\n  swap4\n  pop\n    /* \"#utility.yul\":1095:1223   */\n  pop\n    /* \"#utility.yul\":1262:1264   */\n  0x20\n    /* \"#utility.yul\":1288:1352   */\n  tag_39\n    /* \"#utility.yul\":1344:1351   */\n  dup7\n    /* \"#utility.yul\":1335:1341   */\n  dup3\n    /* \"#utility.yul\":1324:1333   */\n  dup8\n    /* \"#utility.yul\":1320:1342   */\n  add\n    /* \"#utility.yul\":1288:1352   */\n  tag_21\n  jump\t// in\ntag_39:\n    /* \"#utility.yul\":1278:1352   */\n  swap3\n  pop\n    /* \"#utility.yul\":1233:1362   */\n  pop\n    /* \"#utility.yul\":1401:1403   */\n  0x40\n    /* \"#utility.yul\":1427:1491   */\n  tag_40\n    /* \"#utility.yul\":1483:1490   */\n  dup7\n    /* \"#utility.yul\":1474:1480   */\n  dup3\n    /* \"#utility.yul\":1463:1472   */\n  dup8\n    /* \"#utility.yul\":1459:1481   */\n  add\n    /* \"#utility.yul\":1427:1491   */\n  tag_21\n  jump\t// in\ntag_40:\n    /* \"#utility.yul\":1417:1491   */\n  swap2\n  pop\n    /* \"#utility.yul\":1372:1501   */\n  pop\n    /* \"#utility.yul\":845:1508   */\n  swap3\n  pop\n  swap3\n  pop\n  swap3\n  jump\t// out\n    /* \"#utility.yul\":1514:1632   */\ntag_22:\n    /* \"#utility.yul\":1601:1625   */\n  tag_42\n    /* \"#utility.yul\":1619:1624   */\n  dup2\n    /* \"#utility.yul\":1601:1625   */\n  tag_19\n  jump\t// in\ntag_42:\n    /* \"#utility.yul\":1596:1599   */\n  dup3\n    /* \"#utility.yul\":1589:1626   */\n  mstore\n    /* \"#utility.yul\":1514:1632   */\n  pop\n  pop\n  jump\t// out\n    /* \"#utility.yul\":1638:1860   */\ntag_9:\n    /* \"#utility.yul\":1731:1735   */\n  0x00\n    /* \"#utility.yul\":1769:1771   */\n  0x20\n    /* \"#utility.yul\":1758:1767   */\n  dup3\n    /* \"#utility.yul\":1754:1772   */\n  add\n    /* \"#utility.yul\":1746:1772   */\n  swap1\n  pop\n    /* \"#utility.yul\":1782:1853   */\n  tag_44\n    /* \"#utility.yul\":1850:1851   */\n  0x00\n    /* \"#utility.yul\":1839:1848   */\n  dup4\n    /* \"#utility.yul\":1835:1852   */\n  add\n    /* \"#utility.yul\":1826:1832   */\n  dup5\n    /* \"#utility.yul\":1782:1853   */\n  tag_22\n  jump\t// in\ntag_44:\n    /* \"#utility.yul\":1638:1860   */\n  swap3\n  swap2\n  pop\n  pop\n  jump\t// out\n    /* \"contracts/periphery/MarketplaceExample.sol\":424:3844  contract MarketplaceReceiver is Ownable, IMarketplace {... */\ntag_13:\n  dataSize(sub_0)\n  dup1\n  dataOffset(sub_0)\n  0x00\n  codecopy\n  0x00\n  return\nstop\n\nsub_0: assembly {\n        /* \"contracts/periphery/MarketplaceExample.sol\":424:3844  contract MarketplaceReceiver is Ownable, IMarketplace {... */\n      mstore(0x40, 0x80)\n      callvalue\n      dup1\n      iszero\n      tag_1\n      jumpi\n      0x00\n      dup1\n      revert\n    tag_1:\n      pop\n      jumpi(tag_2, lt(calldatasize, 0x04))\n      shr(0xe0, calldataload(0x00))\n      dup1\n      0x715018a6\n      gt\n      tag_14\n      jumpi\n      dup1\n      0x715018a6\n      eq\n      tag_8\n      jumpi\n      dup1\n      0x8da5cb5b\n      eq\n      tag_9\n      jumpi\n      dup1\n      0xa5410136\n      eq\n      tag_10\n      jumpi\n      dup1\n      0xc1075329\n      eq\n      tag_11\n      jumpi\n      dup1\n      0xd72b9da2\n      eq\n      tag_12\n      jumpi\n      dup1\n      0xf2fde38b\n      eq\n      tag_13\n      jumpi\n      jump(tag_2)\n    tag_14:\n      dup1\n      0x1aa3a008\n      eq\n      tag_3\n      jumpi\n      dup1\n      0x3013ce29\n      eq\n      tag_4\n      jumpi\n      dup1\n      0x4718f6f9\n      eq\n      tag_5\n      jumpi\n      dup1\n      0x50431ce4\n      eq\n      tag_6\n      jumpi\n      dup1\n      0x51793665\n      eq\n      tag_7\n      jumpi\n    tag_2:\n      0x00\n      dup1\n      revert\n        /* \"contracts/periphery/MarketplaceExample.sol\":621:645  Register public register */\n    tag_3:\n      tag_15\n      tag_16\n      jump\t// in\n    tag_15:\n      mload(0x40)\n      tag_17\n      swap2\n      swap1\n      tag_18\n      jump\t// in\n    tag_17:\n      mload(0x40)\n      dup1\n      swap2\n      sub\n      swap1\n      return\n        /* \"contracts/periphery/MarketplaceExample.sol\":590:615  ERC20 public paymentToken */\n    tag_4:\n      tag_19\n      tag_20\n      jump\t// in\n    tag_19:\n      mload(0x40)\n      tag_21\n      swap2\n      swap1\n      tag_22\n      jump\t// in\n    tag_21:\n      mload(0x40)\n      dup1\n      swap2\n      sub\n      swap1\n      return\n        /* \"contracts/periphery/MarketplaceExample.sol\":538:583  mapping (uint32 => PackInfo) public packsInfo */\n    tag_5:\n      tag_23\n      0x04\n      dup1\n      calldatasize\n      sub\n      dup2\n      add\n      swap1\n      tag_24\n      swap2\n      swap1\n      tag_25\n      jump\t// in\n    tag_24:\n      tag_26\n      jump\t// in\n    tag_23:\n      mload(0x40)\n      tag_27\n      swap2\n      swap1\n      tag_28\n      jump\t// in\n    tag_27:\n      mload(0x40)\n      dup1\n      swap2\n      sub\n      swap1\n      return\n        /* \"contracts/periphery/MarketplaceExample.sol\":3732:3842  function withdrawNative() external onlyOwner {... */\n    tag_6:\n      tag_29\n      tag_30\n      jump\t// in\n    tag_29:\n      stop\n        /* \"contracts/periphery/MarketplaceExample.sol\":1255:3279  function purchasePack(uint32 _packID, uint32 _packAmounts, address _referral) external override {... */\n    tag_7:\n      tag_31\n      0x04\n      dup1\n      calldatasize\n      sub\n      dup2\n      add\n      swap1\n      tag_32\n      swap2\n      swap1\n      tag_33\n      jump\t// in\n    tag_32:\n      tag_34\n      jump\t// in\n    tag_31:\n      stop\n        /* \"@openzeppelin/contracts/access/Ownable.sol\":2293:2394  function renounceOwnership() public virtual onlyOwner {... */\n    tag_8:\n      tag_35\n      tag_36\n      jump\t// in\n    tag_35:\n      stop\n        /* \"@openzeppelin/contracts/access/Ownable.sol\":1638:1723  function owner() public view virtual returns (address) {... */\n    tag_9:\n      tag_37\n      tag_38\n      jump\t// in\n    tag_37:\n      mload(0x40)\n      tag_39\n      swap2\n      swap1\n      tag_40\n      jump\t// in\n    tag_39:\n      mload(0x40)\n      dup1\n      swap2\n      sub\n      swap1\n      return\n        /* \"contracts/periphery/MarketplaceExample.sol\":929:1209  function setPack(uint32 _packID, uint256 _packPrice, uint32[] calldata _poolsID, uint32[] calldata _amounts) external onlyOwner {... */\n    tag_10:\n      tag_41\n      0x04\n      dup1\n      calldatasize\n      sub\n      dup2\n      add\n      swap1\n      tag_42\n      swap2\n      swap1\n      tag_43\n      jump\t// in\n    tag_42:\n      tag_44\n      jump\t// in\n    tag_41:\n      stop\n        /* \"contracts/periphery/MarketplaceExample.sol\":3355:3664  function withdrawFunds(address _token, uint256 _amount) external onlyOwner {... */\n    tag_11:\n      tag_45\n      0x04\n      dup1\n      calldatasize\n      sub\n      dup2\n      add\n      swap1\n      tag_46\n      swap2\n      swap1\n      tag_47\n      jump\t// in\n    tag_46:\n      tag_48\n      jump\t// in\n    tag_45:\n      stop\n        /* \"contracts/periphery/MarketplaceExample.sol\":485:532  mapping (address => uint256) public totalAmount */\n    tag_12:\n      tag_49\n      0x04\n      dup1\n      calldatasize\n      sub\n      dup2\n      add\n      swap1\n      tag_50\n      swap2\n      swap1\n      tag_51\n      jump\t// in\n    tag_50:\n      tag_52\n      jump\t// in\n    tag_49:\n      mload(0x40)\n      tag_53\n      swap2\n      swap1\n      tag_28\n      jump\t// in\n    tag_53:\n      mload(0x40)\n      dup1\n      swap2\n      sub\n      swap1\n      return\n        /* \"@openzeppelin/contracts/access/Ownable.sol\":2543:2758  function transferOwnership(address newOwner) public virtual onlyOwner {... */\n    tag_13:\n      tag_54\n      0x04\n      dup1\n      calldatasize\n      sub\n      dup2\n      add\n      swap1\n      tag_55\n      swap2\n      swap1\n      tag_51\n      jump\t// in\n    tag_55:\n      tag_56\n      jump\t// in\n    tag_54:\n      stop\n        /* \"contracts/periphery/MarketplaceExample.sol\":621:645  Register public register */\n    tag_16:\n      0x04\n      0x00\n      swap1\n      sload\n      swap1\n      0x0100\n      exp\n      swap1\n      div\n      0xffffffffffffffffffffffffffffffffffffffff\n      and\n      dup2\n      jump\t// out\n        /* \"contracts/periphery/MarketplaceExample.sol\":590:615  ERC20 public paymentToken */\n    tag_20:\n      0x03\n      0x00\n      swap1\n      sload\n      swap1\n      0x0100\n      exp\n      swap1\n      div\n      0xffffffffffffffffffffffffffffffffffffffff\n      and\n      dup2\n      jump\t// out\n        /* \"contracts/periphery/MarketplaceExample.sol\":538:583  mapping (uint32 => PackInfo) public packsInfo */\n    tag_26:\n      mstore(0x20, 0x02)\n      dup1\n      0x00\n      mstore\n      keccak256(0x00, 0x40)\n      0x00\n      swap2\n      pop\n      swap1\n      pop\n      dup1\n      0x00\n      add\n      sload\n      swap1\n      pop\n      dup2\n      jump\t// out\n        /* \"contracts/periphery/MarketplaceExample.sol\":3732:3842  function withdrawNative() external onlyOwner {... */\n    tag_30:\n        /* \"@openzeppelin/contracts/access/Ownable.sol\":1531:1544  _checkOwner() */\n      tag_58\n        /* \"@openzeppelin/contracts/access/Ownable.sol\":1531:1542  _checkOwner */\n      tag_59\n        /* \"@openzeppelin/contracts/access/Ownable.sol\":1531:1544  _checkOwner() */\n      jump\t// in\n    tag_58:\n        /* \"contracts/periphery/MarketplaceExample.sol\":3795:3802  owner() */\n      tag_61\n        /* \"contracts/periphery/MarketplaceExample.sol\":3795:3800  owner */\n      tag_38\n        /* \"contracts/periphery/MarketplaceExample.sol\":3795:3802  owner() */\n      jump\t// in\n    tag_61:\n        /* \"contracts/periphery/MarketplaceExample.sol\":3787:3812  payable(owner()).transfer */\n      0xffffffffffffffffffffffffffffffffffffffff\n      and\n        /* \"contracts/periphery/MarketplaceExample.sol\":3787:3835  payable(owner()).transfer(address(this).balance) */\n      0x08fc\n        /* \"contracts/periphery/MarketplaceExample.sol\":3813:3834  address(this).balance */\n      selfbalance\n        /* \"contracts/periphery/MarketplaceExample.sol\":3787:3835  payable(owner()).transfer(address(this).balance) */\n      swap1\n      dup2\n      iszero\n      mul\n      swap1\n      mload(0x40)\n      0x00\n      mload(0x40)\n      dup1\n      dup4\n      sub\n      dup2\n      dup6\n      dup9\n      dup9\n      call\n      swap4\n      pop\n      pop\n      pop\n      pop\n      iszero\n      dup1\n      iszero\n      tag_63\n      jumpi\n      returndatasize\n      0x00\n      dup1\n      returndatacopy\n      revert(0x00, returndatasize)\n    tag_63:\n      pop\n        /* \"contracts/periphery/MarketplaceExample.sol\":3732:3842  function withdrawNative() external onlyOwner {... */\n      jump\t// out\n        /* \"contracts/periphery/MarketplaceExample.sol\":1255:3279  function purchasePack(uint32 _packID, uint32 _packAmounts, address _referral) external override {... */\n    tag_34:\n        /* \"contracts/periphery/MarketplaceExample.sol\":1361:1378  uint256 basePrice */\n      0x00\n        /* \"contracts/periphery/MarketplaceExample.sol\":1381:1390  packsInfo */\n      0x02\n        /* \"contracts/periphery/MarketplaceExample.sol\":1381:1399  packsInfo[_packID] */\n      0x00\n        /* \"contracts/periphery/MarketplaceExample.sol\":1391:1398  _packID */\n      dup6\n        /* \"contracts/periphery/MarketplaceExample.sol\":1381:1399  packsInfo[_packID] */\n      0xffffffff\n      and\n      0xffffffff\n      and\n      dup2\n      mstore\n      0x20\n      add\n      swap1\n      dup2\n      mstore\n      0x20\n      add\n      0x00\n      keccak256\n        /* \"contracts/periphery/MarketplaceExample.sol\":1381:1409  packsInfo[_packID].basePrice */\n      0x00\n      add\n      sload\n        /* \"contracts/periphery/MarketplaceExample.sol\":1361:1409  uint256 basePrice = packsInfo[_packID].basePrice */\n      swap1\n      pop\n        /* \"contracts/periphery/MarketplaceExample.sol\":1419:1439  uint256 totalPayment */\n      0x00\n        /* \"contracts/periphery/MarketplaceExample.sol\":1449:1466  address purchaser */\n      dup1\n        /* \"contracts/periphery/MarketplaceExample.sol\":1469:1479  msg.sender */\n      caller\n        /* \"contracts/periphery/MarketplaceExample.sol\":1449:1479  address purchaser = msg.sender */\n      swap1\n      pop\n        /* \"contracts/periphery/MarketplaceExample.sol\":1597:1598  0 */\n      0x00\n        /* \"contracts/periphery/MarketplaceExample.sol\":1576:1599  _referral == address(0) */\n      0xffffffffffffffffffffffffffffffffffffffff\n      and\n        /* \"contracts/periphery/MarketplaceExample.sol\":1576:1585  _referral */\n      dup5\n        /* \"contracts/periphery/MarketplaceExample.sol\":1576:1599  _referral == address(0) */\n      0xffffffffffffffffffffffffffffffffffffffff\n      and\n      sub\n        /* \"contracts/periphery/MarketplaceExample.sol\":1573:1644  if(_referral == address(0)){... */\n      tag_65\n      jumpi\n        /* \"contracts/periphery/MarketplaceExample.sol\":1626:1633  owner() */\n      tag_66\n        /* \"contracts/periphery/MarketplaceExample.sol\":1626:1631  owner */\n      tag_38\n        /* \"contracts/periphery/MarketplaceExample.sol\":1626:1633  owner() */\n      jump\t// in\n    tag_66:\n        /* \"contracts/periphery/MarketplaceExample.sol\":1614:1633  _referral = owner() */\n      swap4\n      pop\n        /* \"contracts/periphery/MarketplaceExample.sol\":1573:1644  if(_referral == address(0)){... */\n    tag_65:\n        /* \"contracts/periphery/MarketplaceExample.sol\":1673:1674  0 */\n      0x00\n        /* \"contracts/periphery/MarketplaceExample.sol\":1657:1669  _packAmounts */\n      dup6\n        /* \"contracts/periphery/MarketplaceExample.sol\":1657:1674  _packAmounts == 0 */\n      0xffffffff\n      and\n      sub\n        /* \"contracts/periphery/MarketplaceExample.sol\":1654:1698  if(_packAmounts == 0) revert InvalidAmount() */\n      tag_67\n      jumpi\n        /* \"contracts/periphery/MarketplaceExample.sol\":1683:1698  InvalidAmount() */\n      mload(0x40)\n      0x2c5211c600000000000000000000000000000000000000000000000000000000\n      dup2\n      mstore\n      0x04\n      add\n      mload(0x40)\n      dup1\n      swap2\n      sub\n      swap1\n      revert\n        /* \"contracts/periphery/MarketplaceExample.sol\":1654:1698  if(_packAmounts == 0) revert InvalidAmount() */\n    tag_67:\n        /* \"contracts/periphery/MarketplaceExample.sol\":1737:1746  basePrice */\n      dup3\n        /* \"contracts/periphery/MarketplaceExample.sol\":1724:1736  _packAmounts */\n      dup6\n        /* \"contracts/periphery/MarketplaceExample.sol\":1724:1746  _packAmounts*basePrice */\n      0xffffffff\n      and\n      tag_68\n      swap2\n      swap1\n      tag_69\n      jump\t// in\n    tag_68:\n        /* \"contracts/periphery/MarketplaceExample.sol\":1709:1746  totalPayment = _packAmounts*basePrice */\n      swap2\n      pop\n        /* \"contracts/periphery/MarketplaceExample.sol\":1895:1907  totalPayment */\n      dup2\n        /* \"contracts/periphery/MarketplaceExample.sol\":1844:1856  paymentToken */\n      0x03\n      0x00\n      swap1\n      sload\n      swap1\n      0x0100\n      exp\n      swap1\n      div\n      0xffffffffffffffffffffffffffffffffffffffff\n      and\n        /* \"contracts/periphery/MarketplaceExample.sol\":1844:1866  paymentToken.allowance */\n      0xffffffffffffffffffffffffffffffffffffffff\n      and\n      0xdd62ed3e\n        /* \"contracts/periphery/MarketplaceExample.sol\":1867:1876  purchaser */\n      dup4\n        /* \"contracts/periphery/MarketplaceExample.sol\":1886:1890  this */\n      address\n        /* \"contracts/periphery/MarketplaceExample.sol\":1844:1892  paymentToken.allowance(purchaser, address(this)) */\n      mload(0x40)\n      dup4\n      0xffffffff\n      and\n      0xe0\n      shl\n      dup2\n      mstore\n      0x04\n      add\n      tag_70\n      swap3\n      swap2\n      swap1\n      tag_71\n      jump\t// in\n    tag_70:\n      0x20\n      mload(0x40)\n      dup1\n      dup4\n      sub\n      dup2\n      dup7\n      gas\n      staticcall\n      iszero\n      dup1\n      iszero\n      tag_73\n      jumpi\n      returndatasize\n      0x00\n      dup1\n      returndatacopy\n      revert(0x00, returndatasize)\n    tag_73:\n      pop\n      pop\n      pop\n      pop\n      mload(0x40)\n      returndatasize\n      not(0x1f)\n      0x1f\n      dup3\n      add\n      and\n      dup3\n      add\n      dup1\n      0x40\n      mstore\n      pop\n      dup2\n      add\n      swap1\n      tag_74\n      swap2\n      swap1\n      tag_75\n      jump\t// in\n    tag_74:\n        /* \"contracts/periphery/MarketplaceExample.sol\":1844:1907  paymentToken.allowance(purchaser, address(this)) < totalPayment */\n      lt\n        /* \"contracts/periphery/MarketplaceExample.sol\":1841:1939  if(paymentToken.allowance(purchaser, address(this)) < totalPayment) revert InsufficientAllowance() */\n      iszero\n      tag_76\n      jumpi\n        /* \"contracts/periphery/MarketplaceExample.sol\":1916:1939  InsufficientAllowance() */\n      mload(0x40)\n      0x13be252b00000000000000000000000000000000000000000000000000000000\n      dup2\n      mstore\n      0x04\n      add\n      mload(0x40)\n      dup1\n      swap2\n      sub\n      swap1\n      revert\n        /* \"contracts/periphery/MarketplaceExample.sol\":1841:1939  if(paymentToken.allowance(purchaser, address(this)) < totalPayment) revert InsufficientAllowance() */\n    tag_76:\n        /* \"contracts/periphery/MarketplaceExample.sol\":1988:2000  totalPayment */\n      dup2\n        /* \"contracts/periphery/MarketplaceExample.sol\":1952:1964  paymentToken */\n      0x03\n      0x00\n      swap1\n      sload\n      swap1\n      0x0100\n      exp\n      swap1\n      div\n      0xffffffffffffffffffffffffffffffffffffffff\n      and\n        /* \"contracts/periphery/MarketplaceExample.sol\":1952:1974  paymentToken.balanceOf */\n      0xffffffffffffffffffffffffffffffffffffffff\n      and\n      0x70a08231\n        /* \"contracts/periphery/MarketplaceExample.sol\":1975:1984  purchaser */\n      dup4\n        /* \"contracts/periphery/MarketplaceExample.sol\":1952:1985  paymentToken.balanceOf(purchaser) */\n      mload(0x40)\n      dup3\n      0xffffffff\n      and\n      0xe0\n      shl\n      dup2\n      mstore\n      0x04\n      add\n      tag_77\n      swap2\n      swap1\n      tag_40\n      jump\t// in\n    tag_77:\n      0x20\n      mload(0x40)\n      dup1\n      dup4\n      sub\n      dup2\n      dup7\n      gas\n      staticcall\n      iszero\n      dup1\n      iszero\n      tag_79\n      jumpi\n      returndatasize\n      0x00\n      dup1\n      returndatacopy\n      revert(0x00, returndatasize)\n    tag_79:\n      pop\n      pop\n      pop\n      pop\n      mload(0x40)\n      returndatasize\n      not(0x1f)\n      0x1f\n      dup3\n      add\n      and\n      dup3\n      add\n      dup1\n      0x40\n      mstore\n      pop\n      dup2\n      add\n      swap1\n      tag_80\n      swap2\n      swap1\n      tag_75\n      jump\t// in\n    tag_80:\n        /* \"contracts/periphery/MarketplaceExample.sol\":1952:2000  paymentToken.balanceOf(purchaser) < totalPayment */\n      lt\n        /* \"contracts/periphery/MarketplaceExample.sol\":1949:2030  if(paymentToken.balanceOf(purchaser) < totalPayment) revert InsufficientBalance() */\n      iszero\n      tag_81\n      jumpi\n        /* \"contracts/periphery/MarketplaceExample.sol\":2009:2030  InsufficientBalance() */\n      mload(0x40)\n      0xf4d678b800000000000000000000000000000000000000000000000000000000\n      dup2\n      mstore\n      0x04\n      add\n      mload(0x40)\n      dup1\n      swap2\n      sub\n      swap1\n      revert\n        /* \"contracts/periphery/MarketplaceExample.sol\":1949:2030  if(paymentToken.balanceOf(purchaser) < totalPayment) revert InsufficientBalance() */\n    tag_81:\n        /* \"contracts/periphery/MarketplaceExample.sol\":2059:2083  uint32[] memory _amounts */\n      0x00\n        /* \"contracts/periphery/MarketplaceExample.sol\":2086:2095  packsInfo */\n      0x02\n        /* \"contracts/periphery/MarketplaceExample.sol\":2086:2104  packsInfo[_packID] */\n      0x00\n        /* \"contracts/periphery/MarketplaceExample.sol\":2096:2103  _packID */\n      dup9\n        /* \"contracts/periphery/MarketplaceExample.sol\":2086:2104  packsInfo[_packID] */\n      0xffffffff\n      and\n      0xffffffff\n      and\n      dup2\n      mstore\n      0x20\n      add\n      swap1\n      dup2\n      mstore\n      0x20\n      add\n      0x00\n      keccak256\n        /* \"contracts/periphery/MarketplaceExample.sol\":2086:2112  packsInfo[_packID].amounts */\n      0x02\n      add\n        /* \"contracts/periphery/MarketplaceExample.sol\":2059:2112  uint32[] memory _amounts = packsInfo[_packID].amounts */\n      dup1\n      sload\n      dup1\n      0x20\n      mul\n      0x20\n      add\n      mload(0x40)\n      swap1\n      dup2\n      add\n      0x40\n      mstore\n      dup1\n      swap3\n      swap2\n      swap1\n      dup2\n      dup2\n      mstore\n      0x20\n      add\n      dup3\n      dup1\n      sload\n      dup1\n      iszero\n      tag_82\n      jumpi\n      0x20\n      mul\n      dup3\n      add\n      swap2\n      swap1\n      0x00\n      mstore\n      keccak256(0x00, 0x20)\n      swap1\n      0x00\n      swap1\n    tag_83:\n      dup3\n      dup3\n      swap1\n      sload\n      swap1\n      0x0100\n      exp\n      swap1\n      div\n      0xffffffff\n      and\n      0xffffffff\n      and\n      dup2\n      mstore\n      0x20\n      add\n      swap1\n      0x04\n      add\n      swap1\n      0x20\n      dup3\n      0x03\n      add\n      div\n      swap3\n      dup4\n      add\n      swap3\n      0x01\n      sub\n      dup3\n      mul\n      swap2\n      pop\n      dup1\n      dup5\n      gt\n      tag_83\n      jumpi\n      swap1\n      pop\n    tag_82:\n      pop\n      pop\n      pop\n      pop\n      pop\n      swap1\n      pop\n        /* \"contracts/periphery/MarketplaceExample.sol\":2122:2150  uint32[] memory totalAmounts */\n      0x00\n        /* \"contracts/periphery/MarketplaceExample.sol\":2166:2174  _amounts */\n      dup2\n        /* \"contracts/periphery/MarketplaceExample.sol\":2166:2181  _amounts.length */\n      mload\n        /* \"contracts/periphery/MarketplaceExample.sol\":2153:2182  new uint32[](_amounts.length) */\n      0xffffffffffffffff\n      dup2\n      gt\n      iszero\n      tag_84\n      jumpi\n      tag_85\n      tag_86\n      jump\t// in\n    tag_85:\n    tag_84:\n      mload(0x40)\n      swap1\n      dup1\n      dup3\n      mstore\n      dup1\n      0x20\n      mul\n      0x20\n      add\n      dup3\n      add\n      0x40\n      mstore\n      dup1\n      iszero\n      tag_87\n      jumpi\n      dup2\n      0x20\n      add\n      0x20\n      dup3\n      mul\n      dup1\n      calldatasize\n      dup4\n      calldatacopy\n      dup1\n      dup3\n      add\n      swap2\n      pop\n      pop\n      swap1\n      pop\n    tag_87:\n      pop\n        /* \"contracts/periphery/MarketplaceExample.sol\":2122:2182  uint32[] memory totalAmounts = new uint32[](_amounts.length) */\n      swap1\n      pop\n        /* \"contracts/periphery/MarketplaceExample.sol\":2192:2204  uint32 total */\n      0x00\n        /* \"contracts/periphery/MarketplaceExample.sol\":2223:2232  uint256 i */\n      dup1\n        /* \"contracts/periphery/MarketplaceExample.sol\":2219:2363  for(uint256 i; i<_amounts.length; i++) {... */\n    tag_88:\n        /* \"contracts/periphery/MarketplaceExample.sol\":2236:2244  _amounts */\n      dup4\n        /* \"contracts/periphery/MarketplaceExample.sol\":2236:2251  _amounts.length */\n      mload\n        /* \"contracts/periphery/MarketplaceExample.sol\":2234:2235  i */\n      dup2\n        /* \"contracts/periphery/MarketplaceExample.sol\":2234:2251  i<_amounts.length */\n      lt\n        /* \"contracts/periphery/MarketplaceExample.sol\":2219:2363  for(uint256 i; i<_amounts.length; i++) {... */\n      iszero\n      tag_89\n      jumpi\n        /* \"contracts/periphery/MarketplaceExample.sol\":2302:2314  _packAmounts */\n      dup9\n        /* \"contracts/periphery/MarketplaceExample.sol\":2290:2298  _amounts */\n      dup5\n        /* \"contracts/periphery/MarketplaceExample.sol\":2299:2300  i */\n      dup3\n        /* \"contracts/periphery/MarketplaceExample.sol\":2290:2301  _amounts[i] */\n      dup2\n      mload\n      dup2\n      lt\n      tag_91\n      jumpi\n      tag_92\n      tag_93\n      jump\t// in\n    tag_92:\n    tag_91:\n      0x20\n      mul\n      0x20\n      add\n      add\n      mload\n        /* \"contracts/periphery/MarketplaceExample.sol\":2290:2314  _amounts[i]*_packAmounts */\n      tag_94\n      swap2\n      swap1\n      tag_95\n      jump\t// in\n    tag_94:\n        /* \"contracts/periphery/MarketplaceExample.sol\":2272:2284  totalAmounts */\n      dup4\n        /* \"contracts/periphery/MarketplaceExample.sol\":2285:2286  i */\n      dup3\n        /* \"contracts/periphery/MarketplaceExample.sol\":2272:2287  totalAmounts[i] */\n      dup2\n      mload\n      dup2\n      lt\n      tag_96\n      jumpi\n      tag_97\n      tag_93\n      jump\t// in\n    tag_97:\n    tag_96:\n      0x20\n      mul\n      0x20\n      add\n      add\n        /* \"contracts/periphery/MarketplaceExample.sol\":2272:2314  totalAmounts[i] = _amounts[i]*_packAmounts */\n      swap1\n      0xffffffff\n      and\n      swap1\n      dup2\n      0xffffffff\n      and\n      dup2\n      mstore\n      pop\n      pop\n        /* \"contracts/periphery/MarketplaceExample.sol\":2337:2349  totalAmounts */\n      dup3\n        /* \"contracts/periphery/MarketplaceExample.sol\":2350:2351  i */\n      dup2\n        /* \"contracts/periphery/MarketplaceExample.sol\":2337:2352  totalAmounts[i] */\n      dup2\n      mload\n      dup2\n      lt\n      tag_98\n      jumpi\n      tag_99\n      tag_93\n      jump\t// in\n    tag_99:\n    tag_98:\n      0x20\n      mul\n      0x20\n      add\n      add\n      mload\n        /* \"contracts/periphery/MarketplaceExample.sol\":2328:2352  total += totalAmounts[i] */\n      dup3\n      tag_100\n      swap2\n      swap1\n      tag_101\n      jump\t// in\n    tag_100:\n      swap2\n      pop\n        /* \"contracts/periphery/MarketplaceExample.sol\":2253:2256  i++ */\n      dup1\n      dup1\n      0x01\n      add\n      swap2\n      pop\n      pop\n        /* \"contracts/periphery/MarketplaceExample.sol\":2219:2363  for(uint256 i; i<_amounts.length; i++) {... */\n      jump(tag_88)\n    tag_89:\n      pop\n        /* \"contracts/periphery/MarketplaceExample.sol\":2517:2529  paymentToken */\n      0x03\n      0x00\n      swap1\n      sload\n      swap1\n      0x0100\n      exp\n      swap1\n      div\n      0xffffffffffffffffffffffffffffffffffffffff\n      and\n        /* \"contracts/periphery/MarketplaceExample.sol\":2517:2542  paymentToken.transferFrom */\n      0xffffffffffffffffffffffffffffffffffffffff\n      and\n      0x23b872dd\n        /* \"contracts/periphery/MarketplaceExample.sol\":2543:2552  purchaser */\n      dup6\n        /* \"contracts/periphery/MarketplaceExample.sol\":2554:2562  register */\n      0x04\n      0x00\n      swap1\n      sload\n      swap1\n      0x0100\n      exp\n      swap1\n      div\n      0xffffffffffffffffffffffffffffffffffffffff\n      and\n        /* \"contracts/periphery/MarketplaceExample.sol\":2554:2574  register.getContract */\n      0xffffffffffffffffffffffffffffffffffffffff\n      and\n      0xe16c7d98\n        /* \"contracts/periphery/MarketplaceExample.sol\":2575:2583  register */\n      0x04\n      0x00\n      swap1\n      sload\n      swap1\n      0x0100\n      exp\n      swap1\n      div\n      0xffffffffffffffffffffffffffffffffffffffff\n      and\n        /* \"contracts/periphery/MarketplaceExample.sol\":2575:2590  register.FOMO3D */\n      0xffffffffffffffffffffffffffffffffffffffff\n      and\n      0x4e2164c9\n        /* \"contracts/periphery/MarketplaceExample.sol\":2575:2592  register.FOMO3D() */\n      mload(0x40)\n      dup2\n      0xffffffff\n      and\n      0xe0\n      shl\n      dup2\n      mstore\n      0x04\n      add\n      0x20\n      mload(0x40)\n      dup1\n      dup4\n      sub\n      dup2\n      dup7\n      gas\n      staticcall\n      iszero\n      dup1\n      iszero\n      tag_103\n      jumpi\n      returndatasize\n      0x00\n      dup1\n      returndatacopy\n      revert(0x00, returndatasize)\n    tag_103:\n      pop\n      pop\n      pop\n      pop\n      mload(0x40)\n      returndatasize\n      not(0x1f)\n      0x1f\n      dup3\n      add\n      and\n      dup3\n      add\n      dup1\n      0x40\n      mstore\n      pop\n      dup2\n      add\n      swap1\n      tag_104\n      swap2\n      swap1\n      tag_105\n      jump\t// in\n    tag_104:\n        /* \"contracts/periphery/MarketplaceExample.sol\":2554:2593  register.getContract(register.FOMO3D()) */\n      mload(0x40)\n      dup3\n      0xffffffff\n      and\n      0xe0\n      shl\n      dup2\n      mstore\n      0x04\n      add\n      tag_106\n      swap2\n      swap1\n      tag_107\n      jump\t// in\n    tag_106:\n      0x20\n      mload(0x40)\n      dup1\n      dup4\n      sub\n      dup2\n      dup7\n      gas\n      staticcall\n      iszero\n      dup1\n      iszero\n      tag_109\n      jumpi\n      returndatasize\n      0x00\n      dup1\n      returndatacopy\n      revert(0x00, returndatasize)\n    tag_109:\n      pop\n      pop\n      pop\n      pop\n      mload(0x40)\n      returndatasize\n      not(0x1f)\n      0x1f\n      dup3\n      add\n      and\n      dup3\n      add\n      dup1\n      0x40\n      mstore\n      pop\n      dup2\n      add\n      swap1\n      tag_110\n      swap2\n      swap1\n      tag_111\n      jump\t// in\n    tag_110:\n        /* \"contracts/periphery/MarketplaceExample.sol\":2608:2610  10 */\n      0x0a\n        /* \"contracts/periphery/MarketplaceExample.sol\":2595:2607  totalPayment */\n      dup10\n        /* \"contracts/periphery/MarketplaceExample.sol\":2595:2610  totalPayment/10 */\n      tag_112\n      swap2\n      swap1\n      tag_113\n      jump\t// in\n    tag_112:\n        /* \"contracts/periphery/MarketplaceExample.sol\":2517:2611  paymentToken.transferFrom(purchaser, register.getContract(register.FOMO3D()), totalPayment/10) */\n      mload(0x40)\n      dup5\n      0xffffffff\n      and\n      0xe0\n      shl\n      dup2\n      mstore\n      0x04\n      add\n      tag_114\n      swap4\n      swap3\n      swap2\n      swap1\n      tag_115\n      jump\t// in\n    tag_114:\n      0x20\n      mload(0x40)\n      dup1\n      dup4\n      sub\n      dup2\n      0x00\n      dup8\n      gas\n      call\n      iszero\n      dup1\n      iszero\n      tag_117\n      jumpi\n      returndatasize\n      0x00\n      dup1\n      returndatacopy\n      revert(0x00, returndatasize)\n    tag_117:\n      pop\n      pop\n      pop\n      pop\n      mload(0x40)\n      returndatasize\n      not(0x1f)\n      0x1f\n      dup3\n      add\n      and\n      dup3\n      add\n      dup1\n      0x40\n      mstore\n      pop\n      dup2\n      add\n      swap1\n      tag_118\n      swap2\n      swap1\n      tag_119\n      jump\t// in\n    tag_118:\n      pop\n        /* \"contracts/periphery/MarketplaceExample.sol\":2629:2637  register */\n      0x04\n      0x00\n      swap1\n      sload\n      swap1\n      0x0100\n      exp\n      swap1\n      div\n      0xffffffffffffffffffffffffffffffffffffffff\n      and\n        /* \"contracts/periphery/MarketplaceExample.sol\":2629:2649  register.getContract */\n      0xffffffffffffffffffffffffffffffffffffffff\n      and\n      0xe16c7d98\n        /* \"contracts/periphery/MarketplaceExample.sol\":2650:2658  register */\n      0x04\n      0x00\n      swap1\n      sload\n      swap1\n      0x0100\n      exp\n      swap1\n      div\n      0xffffffffffffffffffffffffffffffffffffffff\n      and\n        /* \"contracts/periphery/MarketplaceExample.sol\":2650:2665  register.FOMO3D */\n      0xffffffffffffffffffffffffffffffffffffffff\n      and\n      0x4e2164c9\n        /* \"contracts/periphery/MarketplaceExample.sol\":2650:2667  register.FOMO3D() */\n      mload(0x40)\n      dup2\n      0xffffffff\n      and\n      0xe0\n      shl\n      dup2\n      mstore\n      0x04\n      add\n      0x20\n      mload(0x40)\n      dup1\n      dup4\n      sub\n      dup2\n      dup7\n      gas\n      staticcall\n      iszero\n      dup1\n      iszero\n      tag_121\n      jumpi\n      returndatasize\n      0x00\n      dup1\n      returndatacopy\n      revert(0x00, returndatasize)\n    tag_121:\n      pop\n      pop\n      pop\n      pop\n      mload(0x40)\n      returndatasize\n      not(0x1f)\n      0x1f\n      dup3\n      add\n      and\n      dup3\n      add\n      dup1\n      0x40\n      mstore\n      pop\n      dup2\n      add\n      swap1\n      tag_122\n      swap2\n      swap1\n      tag_105\n      jump\t// in\n    tag_122:\n        /* \"contracts/periphery/MarketplaceExample.sol\":2629:2668  register.getContract(register.FOMO3D()) */\n      mload(0x40)\n      dup3\n      0xffffffff\n      and\n      0xe0\n      shl\n      dup2\n      mstore\n      0x04\n      add\n      tag_123\n      swap2\n      swap1\n      tag_107\n      jump\t// in\n    tag_123:\n      0x20\n      mload(0x40)\n      dup1\n      dup4\n      sub\n      dup2\n      dup7\n      gas\n      staticcall\n      iszero\n      dup1\n      iszero\n      tag_125\n      jumpi\n      returndatasize\n      0x00\n      dup1\n      returndatacopy\n      revert(0x00, returndatasize)\n    tag_125:\n      pop\n      pop\n      pop\n      pop\n      mload(0x40)\n      returndatasize\n      not(0x1f)\n      0x1f\n      dup3\n      add\n      and\n      dup3\n      add\n      dup1\n      0x40\n      mstore\n      pop\n      dup2\n      add\n      swap1\n      tag_126\n      swap2\n      swap1\n      tag_111\n      jump\t// in\n    tag_126:\n        /* \"contracts/periphery/MarketplaceExample.sol\":2621:2677  IFomo3d(register.getContract(register.FOMO3D())).deposit */\n      0xffffffffffffffffffffffffffffffffffffffff\n      and\n      0x0efe6a8b\n        /* \"contracts/periphery/MarketplaceExample.sol\":2678:2687  purchaser */\n      dup6\n        /* \"contracts/periphery/MarketplaceExample.sol\":2702:2704  10 */\n      0x0a\n        /* \"contracts/periphery/MarketplaceExample.sol\":2689:2701  totalPayment */\n      dup9\n        /* \"contracts/periphery/MarketplaceExample.sol\":2689:2704  totalPayment/10 */\n      tag_127\n      swap2\n      swap1\n      tag_113\n      jump\t// in\n    tag_127:\n        /* \"contracts/periphery/MarketplaceExample.sol\":2706:2711  total */\n      dup5\n        /* \"contracts/periphery/MarketplaceExample.sol\":2621:2712  IFomo3d(register.getContract(register.FOMO3D())).deposit(purchaser, totalPayment/10, total) */\n      mload(0x40)\n      dup5\n      0xffffffff\n      and\n      0xe0\n      shl\n      dup2\n      mstore\n      0x04\n      add\n      tag_128\n      swap4\n      swap3\n      swap2\n      swap1\n      tag_129\n      jump\t// in\n    tag_128:\n      0x00\n      mload(0x40)\n      dup1\n      dup4\n      sub\n      dup2\n      0x00\n      dup8\n      dup1\n      extcodesize\n      iszero\n      dup1\n      iszero\n      tag_130\n      jumpi\n      0x00\n      dup1\n      revert\n    tag_130:\n      pop\n      gas\n      call\n      iszero\n      dup1\n      iszero\n      tag_132\n      jumpi\n      returndatasize\n      0x00\n      dup1\n      returndatacopy\n      revert(0x00, returndatasize)\n    tag_132:\n      pop\n      pop\n      pop\n      pop\n        /* \"contracts/periphery/MarketplaceExample.sol\":2730:2742  paymentToken */\n      0x03\n      0x00\n      swap1\n      sload\n      swap1\n      0x0100\n      exp\n      swap1\n      div\n      0xffffffffffffffffffffffffffffffffffffffff\n      and\n        /* \"contracts/periphery/MarketplaceExample.sol\":2730:2755  paymentToken.transferFrom */\n      0xffffffffffffffffffffffffffffffffffffffff\n      and\n      0x23b872dd\n        /* \"contracts/periphery/MarketplaceExample.sol\":2756:2765  purchaser */\n      dup6\n        /* \"contracts/periphery/MarketplaceExample.sol\":2767:2775  register */\n      0x04\n      0x00\n      swap1\n      sload\n      swap1\n      0x0100\n      exp\n      swap1\n      div\n      0xffffffffffffffffffffffffffffffffffffffff\n      and\n        /* \"contracts/periphery/MarketplaceExample.sol\":2767:2787  register.getContract */\n      0xffffffffffffffffffffffffffffffffffffffff\n      and\n      0xe16c7d98\n        /* \"contracts/periphery/MarketplaceExample.sol\":2788:2796  register */\n      0x04\n      0x00\n      swap1\n      sload\n      swap1\n      0x0100\n      exp\n      swap1\n      div\n      0xffffffffffffffffffffffffffffffffffffffff\n      and\n        /* \"contracts/periphery/MarketplaceExample.sol\":2788:2804  register.JACKPOT */\n      0xffffffffffffffffffffffffffffffffffffffff\n      and\n      0x43c5cd74\n        /* \"contracts/periphery/MarketplaceExample.sol\":2788:2806  register.JACKPOT() */\n      mload(0x40)\n      dup2\n      0xffffffff\n      and\n      0xe0\n      shl\n      dup2\n      mstore\n      0x04\n      add\n      0x20\n      mload(0x40)\n      dup1\n      dup4\n      sub\n      dup2\n      dup7\n      gas\n      staticcall\n      iszero\n      dup1\n      iszero\n      tag_134\n      jumpi\n      returndatasize\n      0x00\n      dup1\n      returndatacopy\n      revert(0x00, returndatasize)\n    tag_134:\n      pop\n      pop\n      pop\n      pop\n      mload(0x40)\n      returndatasize\n      not(0x1f)\n      0x1f\n      dup3\n      add\n      and\n      dup3\n      add\n      dup1\n      0x40\n      mstore\n      pop\n      dup2\n      add\n      swap1\n      tag_135\n      swap2\n      swap1\n      tag_105\n      jump\t// in\n    tag_135:\n        /* \"contracts/periphery/MarketplaceExample.sol\":2767:2807  register.getContract(register.JACKPOT()) */\n      mload(0x40)\n      dup3\n      0xffffffff\n      and\n      0xe0\n      shl\n      dup2\n      mstore\n      0x04\n      add\n      tag_136\n      swap2\n      swap1\n      tag_107\n      jump\t// in\n    tag_136:\n      0x20\n      mload(0x40)\n      dup1\n      dup4\n      sub\n      dup2\n      dup7\n      gas\n      staticcall\n      iszero\n      dup1\n      iszero\n      tag_138\n      jumpi\n      returndatasize\n      0x00\n      dup1\n      returndatacopy\n      revert(0x00, returndatasize)\n    tag_138:\n      pop\n      pop\n      pop\n      pop\n      mload(0x40)\n      returndatasize\n      not(0x1f)\n      0x1f\n      dup3\n      add\n      and\n      dup3\n      add\n      dup1\n      0x40\n      mstore\n      pop\n      dup2\n      add\n      swap1\n      tag_139\n      swap2\n      swap1\n      tag_111\n      jump\t// in\n    tag_139:\n        /* \"contracts/periphery/MarketplaceExample.sol\":2824:2826  10 */\n      0x0a\n        /* \"contracts/periphery/MarketplaceExample.sol\":2822:2823  8 */\n      0x08\n        /* \"contracts/periphery/MarketplaceExample.sol\":2809:2821  totalPayment */\n      dup11\n        /* \"contracts/periphery/MarketplaceExample.sol\":2809:2823  totalPayment*8 */\n      tag_140\n      swap2\n      swap1\n      tag_69\n      jump\t// in\n    tag_140:\n        /* \"contracts/periphery/MarketplaceExample.sol\":2809:2826  totalPayment*8/10 */\n      tag_141\n      swap2\n      swap1\n      tag_113\n      jump\t// in\n    tag_141:\n        /* \"contracts/periphery/MarketplaceExample.sol\":2730:2827  paymentToken.transferFrom(purchaser, register.getContract(register.JACKPOT()), totalPayment*8/10) */\n      mload(0x40)\n      dup5\n      0xffffffff\n      and\n      0xe0\n      shl\n      dup2\n      mstore\n      0x04\n      add\n      tag_142\n      swap4\n      swap3\n      swap2\n      swap1\n      tag_115\n      jump\t// in\n    tag_142:\n      0x20\n      mload(0x40)\n      dup1\n      dup4\n      sub\n      dup2\n      0x00\n      dup8\n      gas\n      call\n      iszero\n      dup1\n      iszero\n      tag_144\n      jumpi\n      returndatasize\n      0x00\n      dup1\n      returndatacopy\n      revert(0x00, returndatasize)\n    tag_144:\n      pop\n      pop\n      pop\n      pop\n      mload(0x40)\n      returndatasize\n      not(0x1f)\n      0x1f\n      dup3\n      add\n      and\n      dup3\n      add\n      dup1\n      0x40\n      mstore\n      pop\n      dup2\n      add\n      swap1\n      tag_145\n      swap2\n      swap1\n      tag_119\n      jump\t// in\n    tag_145:\n      pop\n        /* \"contracts/periphery/MarketplaceExample.sol\":2838:2850  paymentToken */\n      0x03\n      0x00\n      swap1\n      sload\n      swap1\n      0x0100\n      exp\n      swap1\n      div\n      0xffffffffffffffffffffffffffffffffffffffff\n      and\n        /* \"contracts/periphery/MarketplaceExample.sol\":2838:2863  paymentToken.transferFrom */\n      0xffffffffffffffffffffffffffffffffffffffff\n      and\n      0x23b872dd\n        /* \"contracts/periphery/MarketplaceExample.sol\":2864:2873  purchaser */\n      dup6\n        /* \"contracts/periphery/MarketplaceExample.sol\":2875:2884  _referral */\n      dup10\n        /* \"contracts/periphery/MarketplaceExample.sol\":2899:2901  10 */\n      0x0a\n        /* \"contracts/periphery/MarketplaceExample.sol\":2886:2898  totalPayment */\n      dup10\n        /* \"contracts/periphery/MarketplaceExample.sol\":2886:2901  totalPayment/10 */\n      tag_146\n      swap2\n      swap1\n      tag_113\n      jump\t// in\n    tag_146:\n        /* \"contracts/periphery/MarketplaceExample.sol\":2838:2902  paymentToken.transferFrom(purchaser, _referral, totalPayment/10) */\n      mload(0x40)\n      dup5\n      0xffffffff\n      and\n      0xe0\n      shl\n      dup2\n      mstore\n      0x04\n      add\n      tag_147\n      swap4\n      swap3\n      swap2\n      swap1\n      tag_115\n      jump\t// in\n    tag_147:\n      0x20\n      mload(0x40)\n      dup1\n      dup4\n      sub\n      dup2\n      0x00\n      dup8\n      gas\n      call\n      iszero\n      dup1\n      iszero\n      tag_149\n      jumpi\n      returndatasize\n      0x00\n      dup1\n      returndatacopy\n      revert(0x00, returndatasize)\n    tag_149:\n      pop\n      pop\n      pop\n      pop\n      mload(0x40)\n      returndatasize\n      not(0x1f)\n      0x1f\n      dup3\n      add\n      and\n      dup3\n      add\n      dup1\n      0x40\n      mstore\n      pop\n      dup2\n      add\n      swap1\n      tag_150\n      swap2\n      swap1\n      tag_119\n      jump\t// in\n    tag_150:\n      pop\n        /* \"contracts/periphery/MarketplaceExample.sol\":2922:2930  register */\n      0x04\n      0x00\n      swap1\n      sload\n      swap1\n      0x0100\n      exp\n      swap1\n      div\n      0xffffffffffffffffffffffffffffffffffffffff\n      and\n        /* \"contracts/periphery/MarketplaceExample.sol\":2922:2942  register.getContract */\n      0xffffffffffffffffffffffffffffffffffffffff\n      and\n      0xe16c7d98\n        /* \"contracts/periphery/MarketplaceExample.sol\":2943:2951  register */\n      0x04\n      0x00\n      swap1\n      sload\n      swap1\n      0x0100\n      exp\n      swap1\n      div\n      0xffffffffffffffffffffffffffffffffffffffff\n      and\n        /* \"contracts/periphery/MarketplaceExample.sol\":2943:2960  register.REFERRAL */\n      0xffffffffffffffffffffffffffffffffffffffff\n      and\n      0xc63568c7\n        /* \"contracts/periphery/MarketplaceExample.sol\":2943:2962  register.REFERRAL() */\n      mload(0x40)\n      dup2\n      0xffffffff\n      and\n      0xe0\n      shl\n      dup2\n      mstore\n      0x04\n      add\n      0x20\n      mload(0x40)\n      dup1\n      dup4\n      sub\n      dup2\n      dup7\n      gas\n      staticcall\n      iszero\n      dup1\n      iszero\n      tag_152\n      jumpi\n      returndatasize\n      0x00\n      dup1\n      returndatacopy\n      revert(0x00, returndatasize)\n    tag_152:\n      pop\n      pop\n      pop\n      pop\n      mload(0x40)\n      returndatasize\n      not(0x1f)\n      0x1f\n      dup3\n      add\n      and\n      dup3\n      add\n      dup1\n      0x40\n      mstore\n      pop\n      dup2\n      add\n      swap1\n      tag_153\n      swap2\n      swap1\n      tag_105\n      jump\t// in\n    tag_153:\n        /* \"contracts/periphery/MarketplaceExample.sol\":2922:2963  register.getContract(register.REFERRAL()) */\n      mload(0x40)\n      dup3\n      0xffffffff\n      and\n      0xe0\n      shl\n      dup2\n      mstore\n      0x04\n      add\n      tag_154\n      swap2\n      swap1\n      tag_107\n      jump\t// in\n    tag_154:\n      0x20\n      mload(0x40)\n      dup1\n      dup4\n      sub\n      dup2\n      dup7\n      gas\n      staticcall\n      iszero\n      dup1\n      iszero\n      tag_156\n      jumpi\n      returndatasize\n      0x00\n      dup1\n      returndatacopy\n      revert(0x00, returndatasize)\n    tag_156:\n      pop\n      pop\n      pop\n      pop\n      mload(0x40)\n      returndatasize\n      not(0x1f)\n      0x1f\n      dup3\n      add\n      and\n      dup3\n      add\n      dup1\n      0x40\n      mstore\n      pop\n      dup2\n      add\n      swap1\n      tag_157\n      swap2\n      swap1\n      tag_111\n      jump\t// in\n    tag_157:\n        /* \"contracts/periphery/MarketplaceExample.sol\":2912:2972  IReferral(register.getContract(register.REFERRAL())).deposit */\n      0xffffffffffffffffffffffffffffffffffffffff\n      and\n      0x7ef58e91\n        /* \"contracts/periphery/MarketplaceExample.sol\":2973:2982  purchaser */\n      dup6\n        /* \"contracts/periphery/MarketplaceExample.sol\":2984:2993  _referral */\n      dup10\n        /* \"contracts/periphery/MarketplaceExample.sol\":3008:3010  10 */\n      0x0a\n        /* \"contracts/periphery/MarketplaceExample.sol\":2995:3007  totalPayment */\n      dup10\n        /* \"contracts/periphery/MarketplaceExample.sol\":2995:3010  totalPayment/10 */\n      tag_158\n      swap2\n      swap1\n      tag_113\n      jump\t// in\n    tag_158:\n        /* \"contracts/periphery/MarketplaceExample.sol\":3012:3017  total */\n      dup6\n        /* \"contracts/periphery/MarketplaceExample.sol\":2912:3018  IReferral(register.getContract(register.REFERRAL())).deposit(purchaser, _referral, totalPayment/10, total) */\n      mload(0x40)\n      dup6\n      0xffffffff\n      and\n      0xe0\n      shl\n      dup2\n      mstore\n      0x04\n      add\n      tag_159\n      swap5\n      swap4\n      swap3\n      swap2\n      swap1\n      tag_160\n      jump\t// in\n    tag_159:\n      0x00\n      mload(0x40)\n      dup1\n      dup4\n      sub\n      dup2\n      0x00\n      dup8\n      dup1\n      extcodesize\n      iszero\n      dup1\n      iszero\n      tag_161\n      jumpi\n      0x00\n      dup1\n      revert\n    tag_161:\n      pop\n      gas\n      call\n      iszero\n      dup1\n      iszero\n      tag_163\n      jumpi\n      returndatasize\n      0x00\n      dup1\n      returndatacopy\n      revert(0x00, returndatasize)\n    tag_163:\n      pop\n      pop\n      pop\n      pop\n        /* \"contracts/periphery/MarketplaceExample.sol\":3115:3123  register */\n      0x04\n      0x00\n      swap1\n      sload\n      swap1\n      0x0100\n      exp\n      swap1\n      div\n      0xffffffffffffffffffffffffffffffffffffffff\n      and\n        /* \"contracts/periphery/MarketplaceExample.sol\":3115:3135  register.getContract */\n      0xffffffffffffffffffffffffffffffffffffffff\n      and\n      0xe16c7d98\n        /* \"contracts/periphery/MarketplaceExample.sol\":3136:3144  register */\n      0x04\n      0x00\n      swap1\n      sload\n      swap1\n      0x0100\n      exp\n      swap1\n      div\n      0xffffffffffffffffffffffffffffffffffffffff\n      and\n        /* \"contracts/periphery/MarketplaceExample.sol\":3136:3149  register.DRAW */\n      0xffffffffffffffffffffffffffffffffffffffff\n      and\n      0x619d36ef\n        /* \"contracts/periphery/MarketplaceExample.sol\":3136:3151  register.DRAW() */\n      mload(0x40)\n      dup2\n      0xffffffff\n      and\n      0xe0\n      shl\n      dup2\n      mstore\n      0x04\n      add\n      0x20\n      mload(0x40)\n      dup1\n      dup4\n      sub\n      dup2\n      dup7\n      gas\n      staticcall\n      iszero\n      dup1\n      iszero\n      tag_165\n      jumpi\n      returndatasize\n      0x00\n      dup1\n      returndatacopy\n      revert(0x00, returndatasize)\n    tag_165:\n      pop\n      pop\n      pop\n      pop\n      mload(0x40)\n      returndatasize\n      not(0x1f)\n      0x1f\n      dup3\n      add\n      and\n      dup3\n      add\n      dup1\n      0x40\n      mstore\n      pop\n      dup2\n      add\n      swap1\n      tag_166\n      swap2\n      swap1\n      tag_105\n      jump\t// in\n    tag_166:\n        /* \"contracts/periphery/MarketplaceExample.sol\":3115:3152  register.getContract(register.DRAW()) */\n      mload(0x40)\n      dup3\n      0xffffffff\n      and\n      0xe0\n      shl\n      dup2\n      mstore\n      0x04\n      add\n      tag_167\n      swap2\n      swap1\n      tag_107\n      jump\t// in\n    tag_167:\n      0x20\n      mload(0x40)\n      dup1\n      dup4\n      sub\n      dup2\n      dup7\n      gas\n      staticcall\n      iszero\n      dup1\n      iszero\n      tag_169\n      jumpi\n      returndatasize\n      0x00\n      dup1\n      returndatacopy\n      revert(0x00, returndatasize)\n    tag_169:\n      pop\n      pop\n      pop\n      pop\n      mload(0x40)\n      returndatasize\n      not(0x1f)\n      0x1f\n      dup3\n      add\n      and\n      dup3\n      add\n      dup1\n      0x40\n      mstore\n      pop\n      dup2\n      add\n      swap1\n      tag_170\n      swap2\n      swap1\n      tag_111\n      jump\t// in\n    tag_170:\n        /* \"contracts/periphery/MarketplaceExample.sol\":3094:3165  IHierarchicalDrawing(register.getContract(register.DRAW())).sendRequest */\n      0xffffffffffffffffffffffffffffffffffffffff\n      and\n      0x7c6ff2da\n        /* \"contracts/periphery/MarketplaceExample.sol\":3166:3175  purchaser */\n      dup6\n        /* \"contracts/periphery/MarketplaceExample.sol\":3177:3186  packsInfo */\n      0x02\n        /* \"contracts/periphery/MarketplaceExample.sol\":3177:3195  packsInfo[_packID] */\n      0x00\n        /* \"contracts/periphery/MarketplaceExample.sol\":3187:3194  _packID */\n      dup14\n        /* \"contracts/periphery/MarketplaceExample.sol\":3177:3195  packsInfo[_packID] */\n      0xffffffff\n      and\n      0xffffffff\n      and\n      dup2\n      mstore\n      0x20\n      add\n      swap1\n      dup2\n      mstore\n      0x20\n      add\n      0x00\n      keccak256\n        /* \"contracts/periphery/MarketplaceExample.sol\":3177:3203  packsInfo[_packID].poolsID */\n      0x01\n      add\n        /* \"contracts/periphery/MarketplaceExample.sol\":3205:3217  totalAmounts */\n      dup6\n        /* \"contracts/periphery/MarketplaceExample.sol\":3094:3218  IHierarchicalDrawing(register.getContract(register.DRAW())).sendRequest(purchaser, packsInfo[_packID].poolsID, totalAmounts) */\n      mload(0x40)\n      dup5\n      0xffffffff\n      and\n      0xe0\n      shl\n      dup2\n      mstore\n      0x04\n      add\n      tag_171\n      swap4\n      swap3\n      swap2\n      swap1\n      tag_172\n      jump\t// in\n    tag_171:\n      0x00\n      mload(0x40)\n      dup1\n      dup4\n      sub\n      dup2\n      0x00\n      dup8\n      dup1\n      extcodesize\n      iszero\n      dup1\n      iszero\n      tag_173\n      jumpi\n      0x00\n      dup1\n      revert\n    tag_173:\n      pop\n      gas\n      call\n      iszero\n      dup1\n      iszero\n      tag_175\n      jumpi\n      returndatasize\n      0x00\n      dup1\n      returndatacopy\n      revert(0x00, returndatasize)\n    tag_175:\n      pop\n      pop\n      pop\n      pop\n        /* \"contracts/periphery/MarketplaceExample.sol\":3248:3257  purchaser */\n      dup4\n        /* \"contracts/periphery/MarketplaceExample.sol\":3234:3272  PackPurchased(purchaser, _packAmounts) */\n      0xffffffffffffffffffffffffffffffffffffffff\n      and\n      0x7a204b221fca2a98f9de2405cc95185d3541e09e5b42c68677d0de26cfa8f40c\n        /* \"contracts/periphery/MarketplaceExample.sol\":3259:3271  _packAmounts */\n      dup10\n        /* \"contracts/periphery/MarketplaceExample.sol\":3234:3272  PackPurchased(purchaser, _packAmounts) */\n      mload(0x40)\n      tag_176\n      swap2\n      swap1\n      tag_177\n      jump\t// in\n    tag_176:\n      mload(0x40)\n      dup1\n      swap2\n      sub\n      swap1\n      log2\n        /* \"contracts/periphery/MarketplaceExample.sol\":1351:3279  {... */\n      pop\n      pop\n      pop\n      pop\n      pop\n      pop\n        /* \"contracts/periphery/MarketplaceExample.sol\":1255:3279  function purchasePack(uint32 _packID, uint32 _packAmounts, address _referral) external override {... */\n      pop\n      pop\n      pop\n      jump\t// out\n        /* \"@openzeppelin/contracts/access/Ownable.sol\":2293:2394  function renounceOwnership() public virtual onlyOwner {... */\n    tag_36:\n        /* \"@openzeppelin/contracts/access/Ownable.sol\":1531:1544  _checkOwner() */\n      tag_179\n        /* \"@openzeppelin/contracts/access/Ownable.sol\":1531:1542  _checkOwner */\n      tag_59\n        /* \"@openzeppelin/contracts/access/Ownable.sol\":1531:1544  _checkOwner() */\n      jump\t// in\n    tag_179:\n        /* \"@openzeppelin/contracts/access/Ownable.sol\":2357:2387  _transferOwnership(address(0)) */\n      tag_181\n        /* \"@openzeppelin/contracts/access/Ownable.sol\":2384:2385  0 */\n      0x00\n        /* \"@openzeppelin/contracts/access/Ownable.sol\":2357:2375  _transferOwnership */\n      tag_182\n        /* \"@openzeppelin/contracts/access/Ownable.sol\":2357:2387  _transferOwnership(address(0)) */\n      jump\t// in\n    tag_181:\n        /* \"@openzeppelin/contracts/access/Ownable.sol\":2293:2394  function renounceOwnership() public virtual onlyOwner {... */\n      jump\t// out\n        /* \"@openzeppelin/contracts/access/Ownable.sol\":1638:1723  function owner() public view virtual returns (address) {... */\n    tag_38:\n        /* \"@openzeppelin/contracts/access/Ownable.sol\":1684:1691  address */\n      0x00\n        /* \"@openzeppelin/contracts/access/Ownable.sol\":1710:1716  _owner */\n      dup1\n      0x00\n      swap1\n      sload\n      swap1\n      0x0100\n      exp\n      swap1\n      div\n      0xffffffffffffffffffffffffffffffffffffffff\n      and\n        /* \"@openzeppelin/contracts/access/Ownable.sol\":1703:1716  return _owner */\n      swap1\n      pop\n        /* \"@openzeppelin/contracts/access/Ownable.sol\":1638:1723  function owner() public view virtual returns (address) {... */\n      swap1\n      jump\t// out\n        /* \"contracts/periphery/MarketplaceExample.sol\":929:1209  function setPack(uint32 _packID, uint256 _packPrice, uint32[] calldata _poolsID, uint32[] calldata _amounts) external onlyOwner {... */\n    tag_44:\n        /* \"@openzeppelin/contracts/access/Ownable.sol\":1531:1544  _checkOwner() */\n      tag_185\n        /* \"@openzeppelin/contracts/access/Ownable.sol\":1531:1542  _checkOwner */\n      tag_59\n        /* \"@openzeppelin/contracts/access/Ownable.sol\":1531:1544  _checkOwner() */\n      jump\t// in\n    tag_185:\n        /* \"contracts/periphery/MarketplaceExample.sol\":1098:1108  _packPrice */\n      dup5\n        /* \"contracts/periphery/MarketplaceExample.sol\":1067:1076  packsInfo */\n      0x02\n        /* \"contracts/periphery/MarketplaceExample.sol\":1067:1085  packsInfo[_packID] */\n      0x00\n        /* \"contracts/periphery/MarketplaceExample.sol\":1077:1084  _packID */\n      dup9\n        /* \"contracts/periphery/MarketplaceExample.sol\":1067:1085  packsInfo[_packID] */\n      0xffffffff\n      and\n      0xffffffff\n      and\n      dup2\n      mstore\n      0x20\n      add\n      swap1\n      dup2\n      mstore\n      0x20\n      add\n      0x00\n      keccak256\n        /* \"contracts/periphery/MarketplaceExample.sol\":1067:1095  packsInfo[_packID].basePrice */\n      0x00\n      add\n        /* \"contracts/periphery/MarketplaceExample.sol\":1067:1108  packsInfo[_packID].basePrice = _packPrice */\n      dup2\n      swap1\n      sstore\n      pop\n        /* \"contracts/periphery/MarketplaceExample.sol\":1147:1155  _poolsID */\n      dup4\n      dup4\n        /* \"contracts/periphery/MarketplaceExample.sol\":1118:1127  packsInfo */\n      0x02\n        /* \"contracts/periphery/MarketplaceExample.sol\":1118:1136  packsInfo[_packID] */\n      0x00\n        /* \"contracts/periphery/MarketplaceExample.sol\":1128:1135  _packID */\n      dup10\n        /* \"contracts/periphery/MarketplaceExample.sol\":1118:1136  packsInfo[_packID] */\n      0xffffffff\n      and\n      0xffffffff\n      and\n      dup2\n      mstore\n      0x20\n      add\n      swap1\n      dup2\n      mstore\n      0x20\n      add\n      0x00\n      keccak256\n        /* \"contracts/periphery/MarketplaceExample.sol\":1118:1144  packsInfo[_packID].poolsID */\n      0x01\n      add\n        /* \"contracts/periphery/MarketplaceExample.sol\":1118:1155  packsInfo[_packID].poolsID = _poolsID */\n      swap2\n      swap1\n      tag_187\n      swap3\n      swap2\n      swap1\n      tag_188\n      jump\t// in\n    tag_187:\n      pop\n        /* \"contracts/periphery/MarketplaceExample.sol\":1194:1202  _amounts */\n      dup2\n      dup2\n        /* \"contracts/periphery/MarketplaceExample.sol\":1165:1174  packsInfo */\n      0x02\n        /* \"contracts/periphery/MarketplaceExample.sol\":1165:1183  packsInfo[_packID] */\n      0x00\n        /* \"contracts/periphery/MarketplaceExample.sol\":1175:1182  _packID */\n      dup10\n        /* \"contracts/periphery/MarketplaceExample.sol\":1165:1183  packsInfo[_packID] */\n      0xffffffff\n      and\n      0xffffffff\n      and\n      dup2\n      mstore\n      0x20\n      add\n      swap1\n      dup2\n      mstore\n      0x20\n      add\n      0x00\n      keccak256\n        /* \"contracts/periphery/MarketplaceExample.sol\":1165:1191  packsInfo[_packID].amounts */\n      0x02\n      add\n        /* \"contracts/periphery/MarketplaceExample.sol\":1165:1202  packsInfo[_packID].amounts = _amounts */\n      swap2\n      swap1\n      tag_189\n      swap3\n      swap2\n      swap1\n      tag_188\n      jump\t// in\n    tag_189:\n      pop\n        /* \"contracts/periphery/MarketplaceExample.sol\":929:1209  function setPack(uint32 _packID, uint256 _packPrice, uint32[] calldata _poolsID, uint32[] calldata _amounts) external onlyOwner {... */\n      pop\n      pop\n      pop\n      pop\n      pop\n      pop\n      jump\t// out\n        /* \"contracts/periphery/MarketplaceExample.sol\":3355:3664  function withdrawFunds(address _token, uint256 _amount) external onlyOwner {... */\n    tag_48:\n        /* \"@openzeppelin/contracts/access/Ownable.sol\":1531:1544  _checkOwner() */\n      tag_191\n        /* \"@openzeppelin/contracts/access/Ownable.sol\":1531:1542  _checkOwner */\n      tag_59\n        /* \"@openzeppelin/contracts/access/Ownable.sol\":1531:1544  _checkOwner() */\n      jump\t// in\n    tag_191:\n        /* \"contracts/periphery/MarketplaceExample.sol\":3440:3459  ERC20 withdrawToken */\n      0x00\n        /* \"contracts/periphery/MarketplaceExample.sol\":3468:3474  _token */\n      dup3\n        /* \"contracts/periphery/MarketplaceExample.sol\":3440:3475  ERC20 withdrawToken = ERC20(_token) */\n      swap1\n      pop\n        /* \"contracts/periphery/MarketplaceExample.sol\":3530:3537  _amount */\n      dup2\n        /* \"contracts/periphery/MarketplaceExample.sol\":3489:3502  withdrawToken */\n      dup2\n        /* \"contracts/periphery/MarketplaceExample.sol\":3489:3512  withdrawToken.balanceOf */\n      0xffffffffffffffffffffffffffffffffffffffff\n      and\n      0x70a08231\n        /* \"contracts/periphery/MarketplaceExample.sol\":3521:3525  this */\n      address\n        /* \"contracts/periphery/MarketplaceExample.sol\":3489:3527  withdrawToken.balanceOf(address(this)) */\n      mload(0x40)\n      dup3\n      0xffffffff\n      and\n      0xe0\n      shl\n      dup2\n      mstore\n      0x04\n      add\n      tag_193\n      swap2\n      swap1\n      tag_40\n      jump\t// in\n    tag_193:\n      0x20\n      mload(0x40)\n      dup1\n      dup4\n      sub\n      dup2\n      dup7\n      gas\n      staticcall\n      iszero\n      dup1\n      iszero\n      tag_195\n      jumpi\n      returndatasize\n      0x00\n      dup1\n      returndatacopy\n      revert(0x00, returndatasize)\n    tag_195:\n      pop\n      pop\n      pop\n      pop\n      mload(0x40)\n      returndatasize\n      not(0x1f)\n      0x1f\n      dup3\n      add\n      and\n      dup3\n      add\n      dup1\n      0x40\n      mstore\n      pop\n      dup2\n      add\n      swap1\n      tag_196\n      swap2\n      swap1\n      tag_75\n      jump\t// in\n    tag_196:\n        /* \"contracts/periphery/MarketplaceExample.sol\":3489:3537  withdrawToken.balanceOf(address(this)) < _amount */\n      lt\n        /* \"contracts/periphery/MarketplaceExample.sol\":3486:3567  if(withdrawToken.balanceOf(address(this)) < _amount) revert InsufficientBalance() */\n      iszero\n      tag_197\n      jumpi\n        /* \"contracts/periphery/MarketplaceExample.sol\":3546:3567  InsufficientBalance() */\n      mload(0x40)\n      0xf4d678b800000000000000000000000000000000000000000000000000000000\n      dup2\n      mstore\n      0x04\n      add\n      mload(0x40)\n      dup1\n      swap2\n      sub\n      swap1\n      revert\n        /* \"contracts/periphery/MarketplaceExample.sol\":3486:3567  if(withdrawToken.balanceOf(address(this)) < _amount) revert InsufficientBalance() */\n    tag_197:\n        /* \"contracts/periphery/MarketplaceExample.sol\":3617:3630  withdrawToken */\n      dup1\n        /* \"contracts/periphery/MarketplaceExample.sol\":3617:3639  withdrawToken.transfer */\n      0xffffffffffffffffffffffffffffffffffffffff\n      and\n      0xa9059cbb\n        /* \"contracts/periphery/MarketplaceExample.sol\":3640:3647  owner() */\n      tag_198\n        /* \"contracts/periphery/MarketplaceExample.sol\":3640:3645  owner */\n      tag_38\n        /* \"contracts/periphery/MarketplaceExample.sol\":3640:3647  owner() */\n      jump\t// in\n    tag_198:\n        /* \"contracts/periphery/MarketplaceExample.sol\":3649:3656  _amount */\n      dup5\n        /* \"contracts/periphery/MarketplaceExample.sol\":3617:3657  withdrawToken.transfer(owner(), _amount) */\n      mload(0x40)\n      dup4\n      0xffffffff\n      and\n      0xe0\n      shl\n      dup2\n      mstore\n      0x04\n      add\n      tag_199\n      swap3\n      swap2\n      swap1\n      tag_200\n      jump\t// in\n    tag_199:\n      0x20\n      mload(0x40)\n      dup1\n      dup4\n      sub\n      dup2\n      0x00\n      dup8\n      gas\n      call\n      iszero\n      dup1\n      iszero\n      tag_202\n      jumpi\n      returndatasize\n      0x00\n      dup1\n      returndatacopy\n      revert(0x00, returndatasize)\n    tag_202:\n      pop\n      pop\n      pop\n      pop\n      mload(0x40)\n      returndatasize\n      not(0x1f)\n      0x1f\n      dup3\n      add\n      and\n      dup3\n      add\n      dup1\n      0x40\n      mstore\n      pop\n      dup2\n      add\n      swap1\n      tag_203\n      swap2\n      swap1\n      tag_119\n      jump\t// in\n    tag_203:\n      pop\n        /* \"contracts/periphery/MarketplaceExample.sol\":3430:3664  {... */\n      pop\n        /* \"contracts/periphery/MarketplaceExample.sol\":3355:3664  function withdrawFunds(address _token, uint256 _amount) external onlyOwner {... */\n      pop\n      pop\n      jump\t// out\n        /* \"contracts/periphery/MarketplaceExample.sol\":485:532  mapping (address => uint256) public totalAmount */\n    tag_52:\n      mstore(0x20, 0x01)\n      dup1\n      0x00\n      mstore\n      keccak256(0x00, 0x40)\n      0x00\n      swap2\n      pop\n      swap1\n      pop\n      sload\n      dup2\n      jump\t// out\n        /* \"@openzeppelin/contracts/access/Ownable.sol\":2543:2758  function transferOwnership(address newOwner) public virtual onlyOwner {... */\n    tag_56:\n        /* \"@openzeppelin/contracts/access/Ownable.sol\":1531:1544  _checkOwner() */\n      tag_205\n        /* \"@openzeppelin/contracts/access/Ownable.sol\":1531:1542  _checkOwner */\n      tag_59\n        /* \"@openzeppelin/contracts/access/Ownable.sol\":1531:1544  _checkOwner() */\n      jump\t// in\n    tag_205:\n        /* \"@openzeppelin/contracts/access/Ownable.sol\":2647:2648  0 */\n      0x00\n        /* \"@openzeppelin/contracts/access/Ownable.sol\":2627:2649  newOwner == address(0) */\n      0xffffffffffffffffffffffffffffffffffffffff\n      and\n        /* \"@openzeppelin/contracts/access/Ownable.sol\":2627:2635  newOwner */\n      dup2\n        /* \"@openzeppelin/contracts/access/Ownable.sol\":2627:2649  newOwner == address(0) */\n      0xffffffffffffffffffffffffffffffffffffffff\n      and\n      sub\n        /* \"@openzeppelin/contracts/access/Ownable.sol\":2623:2714  if (newOwner == address(0)) {... */\n      tag_207\n      jumpi\n        /* \"@openzeppelin/contracts/access/Ownable.sol\":2700:2701  0 */\n      0x00\n        /* \"@openzeppelin/contracts/access/Ownable.sol\":2672:2703  OwnableInvalidOwner(address(0)) */\n      mload(0x40)\n      0x1e4fbdf700000000000000000000000000000000000000000000000000000000\n      dup2\n      mstore\n      0x04\n      add\n      tag_208\n      swap2\n      swap1\n      tag_40\n      jump\t// in\n    tag_208:\n      mload(0x40)\n      dup1\n      swap2\n      sub\n      swap1\n      revert\n        /* \"@openzeppelin/contracts/access/Ownable.sol\":2623:2714  if (newOwner == address(0)) {... */\n    tag_207:\n        /* \"@openzeppelin/contracts/access/Ownable.sol\":2723:2751  _transferOwnership(newOwner) */\n      tag_209\n        /* \"@openzeppelin/contracts/access/Ownable.sol\":2742:2750  newOwner */\n      dup2\n        /* \"@openzeppelin/contracts/access/Ownable.sol\":2723:2741  _transferOwnership */\n      tag_182\n        /* \"@openzeppelin/contracts/access/Ownable.sol\":2723:2751  _transferOwnership(newOwner) */\n      jump\t// in\n    tag_209:\n        /* \"@openzeppelin/contracts/access/Ownable.sol\":2543:2758  function transferOwnership(address newOwner) public virtual onlyOwner {... */\n      pop\n      jump\t// out\n        /* \"@openzeppelin/contracts/access/Ownable.sol\":1796:1958  function _checkOwner() internal view virtual {... */\n    tag_59:\n        /* \"@openzeppelin/contracts/access/Ownable.sol\":1866:1878  _msgSender() */\n      tag_211\n        /* \"@openzeppelin/contracts/access/Ownable.sol\":1866:1876  _msgSender */\n      tag_212\n        /* \"@openzeppelin/contracts/access/Ownable.sol\":1866:1878  _msgSender() */\n      jump\t// in\n    tag_211:\n        /* \"@openzeppelin/contracts/access/Ownable.sol\":1855:1878  owner() != _msgSender() */\n      0xffffffffffffffffffffffffffffffffffffffff\n      and\n        /* \"@openzeppelin/contracts/access/Ownable.sol\":1855:1862  owner() */\n      tag_213\n        /* \"@openzeppelin/contracts/access/Ownable.sol\":1855:1860  owner */\n      tag_38\n        /* \"@openzeppelin/contracts/access/Ownable.sol\":1855:1862  owner() */\n      jump\t// in\n    tag_213:\n        /* \"@openzeppelin/contracts/access/Ownable.sol\":1855:1878  owner() != _msgSender() */\n      0xffffffffffffffffffffffffffffffffffffffff\n      and\n      eq\n        /* \"@openzeppelin/contracts/access/Ownable.sol\":1851:1952  if (owner() != _msgSender()) {... */\n      tag_214\n      jumpi\n        /* \"@openzeppelin/contracts/access/Ownable.sol\":1928:1940  _msgSender() */\n      tag_215\n        /* \"@openzeppelin/contracts/access/Ownable.sol\":1928:1938  _msgSender */\n      tag_212\n        /* \"@openzeppelin/contracts/access/Ownable.sol\":1928:1940  _msgSender() */\n      jump\t// in\n    tag_215:\n        /* \"@openzeppelin/contracts/access/Ownable.sol\":1901:1941  OwnableUnauthorizedAccount(_msgSender()) */\n      mload(0x40)\n      0x118cdaa700000000000000000000000000000000000000000000000000000000\n      dup2\n      mstore\n      0x04\n      add\n      tag_216\n      swap2\n      swap1\n      tag_40\n      jump\t// in\n    tag_216:\n      mload(0x40)\n      dup1\n      swap2\n      sub\n      swap1\n      revert\n        /* \"@openzeppelin/contracts/access/Ownable.sol\":1851:1952  if (owner() != _msgSender()) {... */\n    tag_214:\n        /* \"@openzeppelin/contracts/access/Ownable.sol\":1796:1958  function _checkOwner() internal view virtual {... */\n      jump\t// out\n        /* \"@openzeppelin/contracts/access/Ownable.sol\":2912:3099  function _transferOwnership(address newOwner) internal virtual {... */\n    tag_182:\n        /* \"@openzeppelin/contracts/access/Ownable.sol\":2985:3001  address oldOwner */\n      0x00\n        /* \"@openzeppelin/contracts/access/Ownable.sol\":3004:3010  _owner */\n      dup1\n      0x00\n      swap1\n      sload\n      swap1\n      0x0100\n      exp\n      swap1\n      div\n      0xffffffffffffffffffffffffffffffffffffffff\n      and\n        /* \"@openzeppelin/contracts/access/Ownable.sol\":2985:3010  address oldOwner = _owner */\n      swap1\n      pop\n        /* \"@openzeppelin/contracts/access/Ownable.sol\":3029:3037  newOwner */\n      dup2\n        /* \"@openzeppelin/contracts/access/Ownable.sol\":3020:3026  _owner */\n      0x00\n      dup1\n        /* \"@openzeppelin/contracts/access/Ownable.sol\":3020:3037  _owner = newOwner */\n      0x0100\n      exp\n      dup2\n      sload\n      dup2\n      0xffffffffffffffffffffffffffffffffffffffff\n      mul\n      not\n      and\n      swap1\n      dup4\n      0xffffffffffffffffffffffffffffffffffffffff\n      and\n      mul\n      or\n      swap1\n      sstore\n      pop\n        /* \"@openzeppelin/contracts/access/Ownable.sol\":3083:3091  newOwner */\n      dup2\n        /* \"@openzeppelin/contracts/access/Ownable.sol\":3052:3092  OwnershipTransferred(oldOwner, newOwner) */\n      0xffffffffffffffffffffffffffffffffffffffff\n      and\n        /* \"@openzeppelin/contracts/access/Ownable.sol\":3073:3081  oldOwner */\n      dup2\n        /* \"@openzeppelin/contracts/access/Ownable.sol\":3052:3092  OwnershipTransferred(oldOwner, newOwner) */\n      0xffffffffffffffffffffffffffffffffffffffff\n      and\n      0x8be0079c531659141344cd1fd0a4f28419497f9722a3daafe3b4186f6b6457e0\n      mload(0x40)\n      mload(0x40)\n      dup1\n      swap2\n      sub\n      swap1\n      log3\n        /* \"@openzeppelin/contracts/access/Ownable.sol\":2975:3099  {... */\n      pop\n        /* \"@openzeppelin/contracts/access/Ownable.sol\":2912:3099  function _transferOwnership(address newOwner) internal virtual {... */\n      pop\n      jump\t// out\n        /* \"@openzeppelin/contracts/utils/Context.sol\":656:752  function _msgSender() internal view virtual returns (address) {... */\n    tag_212:\n        /* \"@openzeppelin/contracts/utils/Context.sol\":709:716  address */\n      0x00\n        /* \"@openzeppelin/contracts/utils/Context.sol\":735:745  msg.sender */\n      caller\n        /* \"@openzeppelin/contracts/utils/Context.sol\":728:745  return msg.sender */\n      swap1\n      pop\n        /* \"@openzeppelin/contracts/utils/Context.sol\":656:752  function _msgSender() internal view virtual returns (address) {... */\n      swap1\n      jump\t// out\n    tag_188:\n      dup3\n      dup1\n      sload\n      dup3\n      dup3\n      sstore\n      swap1\n      0x00\n      mstore\n      keccak256(0x00, 0x20)\n      swap1\n      0x07\n      add\n      0x08\n      swap1\n      div\n      dup2\n      add\n      swap3\n      dup3\n      iszero\n      tag_219\n      jumpi\n      swap2\n      0x20\n      mul\n      dup3\n      add\n      0x00\n    tag_220:\n      dup4\n      dup3\n      gt\n      iszero\n      tag_221\n      jumpi\n      dup4\n      calldataload\n      0xffffffff\n      and\n      dup4\n      dup3\n      0x0100\n      exp\n      dup2\n      sload\n      dup2\n      0xffffffff\n      mul\n      not\n      and\n      swap1\n      dup4\n      0xffffffff\n      and\n      mul\n      or\n      swap1\n      sstore\n      pop\n      swap3\n      0x20\n      add\n      swap3\n      0x04\n      add\n      0x20\n      dup2\n      0x03\n      add\n      div\n      swap3\n      dup4\n      add\n      swap3\n      0x01\n      sub\n      mul\n      jump(tag_220)\n    tag_221:\n      dup1\n      iszero\n      tag_222\n      jumpi\n      dup3\n      dup2\n      0x0100\n      exp\n      dup2\n      sload\n      swap1\n      0xffffffff\n      mul\n      not\n      and\n      swap1\n      sstore\n      0x04\n      add\n      0x20\n      dup2\n      0x03\n      add\n      div\n      swap3\n      dup4\n      add\n      swap3\n      0x01\n      sub\n      mul\n      jump(tag_221)\n    tag_222:\n      pop\n    tag_219:\n      pop\n      swap1\n      pop\n      tag_223\n      swap2\n      swap1\n      tag_224\n      jump\t// in\n    tag_223:\n      pop\n      swap1\n      jump\t// out\n    tag_224:\n    tag_225:\n      dup1\n      dup3\n      gt\n      iszero\n      tag_226\n      jumpi\n      0x00\n      dup2\n      0x00\n      swap1\n      sstore\n      pop\n      0x01\n      add\n      jump(tag_225)\n    tag_226:\n      pop\n      swap1\n      jump\t// out\n        /* \"#utility.yul\":7:133   */\n    tag_227:\n        /* \"#utility.yul\":44:51   */\n      0x00\n        /* \"#utility.yul\":84:126   */\n      0xffffffffffffffffffffffffffffffffffffffff\n        /* \"#utility.yul\":77:82   */\n      dup3\n        /* \"#utility.yul\":73:127   */\n      and\n        /* \"#utility.yul\":62:127   */\n      swap1\n      pop\n        /* \"#utility.yul\":7:133   */\n      swap2\n      swap1\n      pop\n      jump\t// out\n        /* \"#utility.yul\":139:199   */\n    tag_228:\n        /* \"#utility.yul\":167:170   */\n      0x00\n        /* \"#utility.yul\":188:193   */\n      dup2\n        /* \"#utility.yul\":181:193   */\n      swap1\n      pop\n        /* \"#utility.yul\":139:199   */\n      swap2\n      swap1\n      pop\n      jump\t// out\n        /* \"#utility.yul\":205:347   */\n    tag_229:\n        /* \"#utility.yul\":255:264   */\n      0x00\n        /* \"#utility.yul\":288:341   */\n      tag_298\n        /* \"#utility.yul\":306:340   */\n      tag_299\n        /* \"#utility.yul\":315:339   */\n      tag_300\n        /* \"#utility.yul\":333:338   */\n      dup5\n        /* \"#utility.yul\":315:339   */\n      tag_227\n      jump\t// in\n    tag_300:\n        /* \"#utility.yul\":306:340   */\n      tag_228\n      jump\t// in\n    tag_299:\n        /* \"#utility.yul\":288:341   */\n      tag_227\n      jump\t// in\n    tag_298:\n        /* \"#utility.yul\":275:341   */\n      swap1\n      pop\n        /* \"#utility.yul\":205:347   */\n      swap2\n      swap1\n      pop\n      jump\t// out\n        /* \"#utility.yul\":353:479   */\n    tag_230:\n        /* \"#utility.yul\":403:412   */\n      0x00\n        /* \"#utility.yul\":436:473   */\n      tag_302\n        /* \"#utility.yul\":467:472   */\n      dup3\n        /* \"#utility.yul\":436:473   */\n      tag_229\n      jump\t// in\n    tag_302:\n        /* \"#utility.yul\":423:473   */\n      swap1\n      pop\n        /* \"#utility.yul\":353:479   */\n      swap2\n      swap1\n      pop\n      jump\t// out\n        /* \"#utility.yul\":485:628   */\n    tag_231:\n        /* \"#utility.yul\":552:561   */\n      0x00\n        /* \"#utility.yul\":585:622   */\n      tag_304\n        /* \"#utility.yul\":616:621   */\n      dup3\n        /* \"#utility.yul\":585:622   */\n      tag_230\n      jump\t// in\n    tag_304:\n        /* \"#utility.yul\":572:622   */\n      swap1\n      pop\n        /* \"#utility.yul\":485:628   */\n      swap2\n      swap1\n      pop\n      jump\t// out\n        /* \"#utility.yul\":634:799   */\n    tag_232:\n        /* \"#utility.yul\":738:792   */\n      tag_306\n        /* \"#utility.yul\":786:791   */\n      dup2\n        /* \"#utility.yul\":738:792   */\n      tag_231\n      jump\t// in\n    tag_306:\n        /* \"#utility.yul\":733:736   */\n      dup3\n        /* \"#utility.yul\":726:793   */\n      mstore\n        /* \"#utility.yul\":634:799   */\n      pop\n      pop\n      jump\t// out\n        /* \"#utility.yul\":805:1061   */\n    tag_18:\n        /* \"#utility.yul\":915:919   */\n      0x00\n        /* \"#utility.yul\":953:955   */\n      0x20\n        /* \"#utility.yul\":942:951   */\n      dup3\n        /* \"#utility.yul\":938:956   */\n      add\n        /* \"#utility.yul\":930:956   */\n      swap1\n      pop\n        /* \"#utility.yul\":966:1054   */\n      tag_308\n        /* \"#utility.yul\":1051:1052   */\n      0x00\n        /* \"#utility.yul\":1040:1049   */\n      dup4\n        /* \"#utility.yul\":1036:1053   */\n      add\n        /* \"#utility.yul\":1027:1033   */\n      dup5\n        /* \"#utility.yul\":966:1054   */\n      tag_232\n      jump\t// in\n    tag_308:\n        /* \"#utility.yul\":805:1061   */\n      swap3\n      swap2\n      pop\n      pop\n      jump\t// out\n        /* \"#utility.yul\":1067:1207   */\n    tag_233:\n        /* \"#utility.yul\":1131:1140   */\n      0x00\n        /* \"#utility.yul\":1164:1201   */\n      tag_310\n        /* \"#utility.yul\":1195:1200   */\n      dup3\n        /* \"#utility.yul\":1164:1201   */\n      tag_230\n      jump\t// in\n    tag_310:\n        /* \"#utility.yul\":1151:1201   */\n      swap1\n      pop\n        /* \"#utility.yul\":1067:1207   */\n      swap2\n      swap1\n      pop\n      jump\t// out\n        /* \"#utility.yul\":1213:1372   */\n    tag_234:\n        /* \"#utility.yul\":1314:1365   */\n      tag_312\n        /* \"#utility.yul\":1359:1364   */\n      dup2\n        /* \"#utility.yul\":1314:1365   */\n      tag_233\n      jump\t// in\n    tag_312:\n        /* \"#utility.yul\":1309:1312   */\n      dup3\n        /* \"#utility.yul\":1302:1366   */\n      mstore\n        /* \"#utility.yul\":1213:1372   */\n      pop\n      pop\n      jump\t// out\n        /* \"#utility.yul\":1378:1628   */\n    tag_22:\n        /* \"#utility.yul\":1485:1489   */\n      0x00\n        /* \"#utility.yul\":1523:1525   */\n      0x20\n        /* \"#utility.yul\":1512:1521   */\n      dup3\n        /* \"#utility.yul\":1508:1526   */\n      add\n        /* \"#utility.yul\":1500:1526   */\n      swap1\n      pop\n        /* \"#utility.yul\":1536:1621   */\n      tag_314\n        /* \"#utility.yul\":1618:1619   */\n      0x00\n        /* \"#utility.yul\":1607:1616   */\n      dup4\n        /* \"#utility.yul\":1603:1620   */\n      add\n        /* \"#utility.yul\":1594:1600   */\n      dup5\n        /* \"#utility.yul\":1536:1621   */\n      tag_234\n      jump\t// in\n    tag_314:\n        /* \"#utility.yul\":1378:1628   */\n      swap3\n      swap2\n      pop\n      pop\n      jump\t// out\n        /* \"#utility.yul\":1715:1832   */\n    tag_236:\n        /* \"#utility.yul\":1824:1825   */\n      0x00\n        /* \"#utility.yul\":1821:1822   */\n      dup1\n        /* \"#utility.yul\":1814:1826   */\n      revert\n        /* \"#utility.yul\":1838:1955   */\n    tag_237:\n        /* \"#utility.yul\":1947:1948   */\n      0x00\n        /* \"#utility.yul\":1944:1945   */\n      dup1\n        /* \"#utility.yul\":1937:1949   */\n      revert\n        /* \"#utility.yul\":1961:2054   */\n    tag_238:\n        /* \"#utility.yul\":1997:2004   */\n      0x00\n        /* \"#utility.yul\":2037:2047   */\n      0xffffffff\n        /* \"#utility.yul\":2030:2035   */\n      dup3\n        /* \"#utility.yul\":2026:2048   */\n      and\n        /* \"#utility.yul\":2015:2048   */\n      swap1\n      pop\n        /* \"#utility.yul\":1961:2054   */\n      swap2\n      swap1\n      pop\n      jump\t// out\n        /* \"#utility.yul\":2060:2180   */\n    tag_239:\n        /* \"#utility.yul\":2132:2155   */\n      tag_320\n        /* \"#utility.yul\":2149:2154   */\n      dup2\n        /* \"#utility.yul\":2132:2155   */\n      tag_238\n      jump\t// in\n    tag_320:\n        /* \"#utility.yul\":2125:2130   */\n      dup2\n        /* \"#utility.yul\":2122:2156   */\n      eq\n        /* \"#utility.yul\":2112:2174   */\n      tag_321\n      jumpi\n        /* \"#utility.yul\":2170:2171   */\n      0x00\n        /* \"#utility.yul\":2167:2168   */\n      dup1\n        /* \"#utility.yul\":2160:2172   */\n      revert\n        /* \"#utility.yul\":2112:2174   */\n    tag_321:\n        /* \"#utility.yul\":2060:2180   */\n      pop\n      jump\t// out\n        /* \"#utility.yul\":2186:2323   */\n    tag_240:\n        /* \"#utility.yul\":2231:2236   */\n      0x00\n        /* \"#utility.yul\":2269:2275   */\n      dup2\n        /* \"#utility.yul\":2256:2276   */\n      calldataload\n        /* \"#utility.yul\":2247:2276   */\n      swap1\n      pop\n        /* \"#utility.yul\":2285:2317   */\n      tag_323\n        /* \"#utility.yul\":2311:2316   */\n      dup2\n        /* \"#utility.yul\":2285:2317   */\n      tag_239\n      jump\t// in\n    tag_323:\n        /* \"#utility.yul\":2186:2323   */\n      swap3\n      swap2\n      pop\n      pop\n      jump\t// out\n        /* \"#utility.yul\":2329:2656   */\n    tag_25:\n        /* \"#utility.yul\":2387:2393   */\n      0x00\n        /* \"#utility.yul\":2436:2438   */\n      0x20\n        /* \"#utility.yul\":2424:2433   */\n      dup3\n        /* \"#utility.yul\":2415:2422   */\n      dup5\n        /* \"#utility.yul\":2411:2434   */\n      sub\n        /* \"#utility.yul\":2407:2439   */\n      slt\n        /* \"#utility.yul\":2404:2523   */\n      iszero\n      tag_325\n      jumpi\n        /* \"#utility.yul\":2442:2521   */\n      tag_326\n      tag_236\n      jump\t// in\n    tag_326:\n        /* \"#utility.yul\":2404:2523   */\n    tag_325:\n        /* \"#utility.yul\":2562:2563   */\n      0x00\n        /* \"#utility.yul\":2587:2639   */\n      tag_327\n        /* \"#utility.yul\":2631:2638   */\n      dup5\n        /* \"#utility.yul\":2622:2628   */\n      dup3\n        /* \"#utility.yul\":2611:2620   */\n      dup6\n        /* \"#utility.yul\":2607:2629   */\n      add\n        /* \"#utility.yul\":2587:2639   */\n      tag_240\n      jump\t// in\n    tag_327:\n        /* \"#utility.yul\":2577:2639   */\n      swap2\n      pop\n        /* \"#utility.yul\":2533:2649   */\n      pop\n        /* \"#utility.yul\":2329:2656   */\n      swap3\n      swap2\n      pop\n      pop\n      jump\t// out\n        /* \"#utility.yul\":2662:2739   */\n    tag_241:\n        /* \"#utility.yul\":2699:2706   */\n      0x00\n        /* \"#utility.yul\":2728:2733   */\n      dup2\n        /* \"#utility.yul\":2717:2733   */\n      swap1\n      pop\n        /* \"#utility.yul\":2662:2739   */\n      swap2\n      swap1\n      pop\n      jump\t// out\n        /* \"#utility.yul\":2745:2863   */\n    tag_242:\n        /* \"#utility.yul\":2832:2856   */\n      tag_330\n        /* \"#utility.yul\":2850:2855   */\n      dup2\n        /* \"#utility.yul\":2832:2856   */\n      tag_241\n      jump\t// in\n    tag_330:\n        /* \"#utility.yul\":2827:2830   */\n      dup3\n        /* \"#utility.yul\":2820:2857   */\n      mstore\n        /* \"#utility.yul\":2745:2863   */\n      pop\n      pop\n      jump\t// out\n        /* \"#utility.yul\":2869:3091   */\n    tag_28:\n        /* \"#utility.yul\":2962:2966   */\n      0x00\n        /* \"#utility.yul\":3000:3002   */\n      0x20\n        /* \"#utility.yul\":2989:2998   */\n      dup3\n        /* \"#utility.yul\":2985:3003   */\n      add\n        /* \"#utility.yul\":2977:3003   */\n      swap1\n      pop\n        /* \"#utility.yul\":3013:3084   */\n      tag_332\n        /* \"#utility.yul\":3081:3082   */\n      0x00\n        /* \"#utility.yul\":3070:3079   */\n      dup4\n        /* \"#utility.yul\":3066:3083   */\n      add\n        /* \"#utility.yul\":3057:3063   */\n      dup5\n        /* \"#utility.yul\":3013:3084   */\n      tag_242\n      jump\t// in\n    tag_332:\n        /* \"#utility.yul\":2869:3091   */\n      swap3\n      swap2\n      pop\n      pop\n      jump\t// out\n        /* \"#utility.yul\":3097:3193   */\n    tag_243:\n        /* \"#utility.yul\":3134:3141   */\n      0x00\n        /* \"#utility.yul\":3163:3187   */\n      tag_334\n        /* \"#utility.yul\":3181:3186   */\n      dup3\n        /* \"#utility.yul\":3163:3187   */\n      tag_227\n      jump\t// in\n    tag_334:\n        /* \"#utility.yul\":3152:3187   */\n      swap1\n      pop\n        /* \"#utility.yul\":3097:3193   */\n      swap2\n      swap1\n      pop\n      jump\t// out\n        /* \"#utility.yul\":3199:3321   */\n    tag_244:\n        /* \"#utility.yul\":3272:3296   */\n      tag_336\n        /* \"#utility.yul\":3290:3295   */\n      dup2\n        /* \"#utility.yul\":3272:3296   */\n      tag_243\n      jump\t// in\n    tag_336:\n        /* \"#utility.yul\":3265:3270   */\n      dup2\n        /* \"#utility.yul\":3262:3297   */\n      eq\n        /* \"#utility.yul\":3252:3315   */\n      tag_337\n      jumpi\n        /* \"#utility.yul\":3311:3312   */\n      0x00\n        /* \"#utility.yul\":3308:3309   */\n      dup1\n        /* \"#utility.yul\":3301:3313   */\n      revert\n        /* \"#utility.yul\":3252:3315   */\n    tag_337:\n        /* \"#utility.yul\":3199:3321   */\n      pop\n      jump\t// out\n        /* \"#utility.yul\":3327:3466   */\n    tag_245:\n        /* \"#utility.yul\":3373:3378   */\n      0x00\n        /* \"#utility.yul\":3411:3417   */\n      dup2\n        /* \"#utility.yul\":3398:3418   */\n      calldataload\n        /* \"#utility.yul\":3389:3418   */\n      swap1\n      pop\n        /* \"#utility.yul\":3427:3460   */\n      tag_339\n        /* \"#utility.yul\":3454:3459   */\n      dup2\n        /* \"#utility.yul\":3427:3460   */\n      tag_244\n      jump\t// in\n    tag_339:\n        /* \"#utility.yul\":3327:3466   */\n      swap3\n      swap2\n      pop\n      pop\n      jump\t// out\n        /* \"#utility.yul\":3472:4087   */\n    tag_33:\n        /* \"#utility.yul\":3547:3553   */\n      0x00\n        /* \"#utility.yul\":3555:3561   */\n      dup1\n        /* \"#utility.yul\":3563:3569   */\n      0x00\n        /* \"#utility.yul\":3612:3614   */\n      0x60\n        /* \"#utility.yul\":3600:3609   */\n      dup5\n        /* \"#utility.yul\":3591:3598   */\n      dup7\n        /* \"#utility.yul\":3587:3610   */\n      sub\n        /* \"#utility.yul\":3583:3615   */\n      slt\n        /* \"#utility.yul\":3580:3699   */\n      iszero\n      tag_341\n      jumpi\n        /* \"#utility.yul\":3618:3697   */\n      tag_342\n      tag_236\n      jump\t// in\n    tag_342:\n        /* \"#utility.yul\":3580:3699   */\n    tag_341:\n        /* \"#utility.yul\":3738:3739   */\n      0x00\n        /* \"#utility.yul\":3763:3815   */\n      tag_343\n        /* \"#utility.yul\":3807:3814   */\n      dup7\n        /* \"#utility.yul\":3798:3804   */\n      dup3\n        /* \"#utility.yul\":3787:3796   */\n      dup8\n        /* \"#utility.yul\":3783:3805   */\n      add\n        /* \"#utility.yul\":3763:3815   */\n      tag_240\n      jump\t// in\n    tag_343:\n        /* \"#utility.yul\":3753:3815   */\n      swap4\n      pop\n        /* \"#utility.yul\":3709:3825   */\n      pop\n        /* \"#utility.yul\":3864:3866   */\n      0x20\n        /* \"#utility.yul\":3890:3942   */\n      tag_344\n        /* \"#utility.yul\":3934:3941   */\n      dup7\n        /* \"#utility.yul\":3925:3931   */\n      dup3\n        /* \"#utility.yul\":3914:3923   */\n      dup8\n        /* \"#utility.yul\":3910:3932   */\n      add\n        /* \"#utility.yul\":3890:3942   */\n      tag_240\n      jump\t// in\n    tag_344:\n        /* \"#utility.yul\":3880:3942   */\n      swap3\n      pop\n        /* \"#utility.yul\":3835:3952   */\n      pop\n        /* \"#utility.yul\":3991:3993   */\n      0x40\n        /* \"#utility.yul\":4017:4070   */\n      tag_345\n        /* \"#utility.yul\":4062:4069   */\n      dup7\n        /* \"#utility.yul\":4053:4059   */\n      dup3\n        /* \"#utility.yul\":4042:4051   */\n      dup8\n        /* \"#utility.yul\":4038:4060   */\n      add\n        /* \"#utility.yul\":4017:4070   */\n      tag_245\n      jump\t// in\n    tag_345:\n        /* \"#utility.yul\":4007:4070   */\n      swap2\n      pop\n        /* \"#utility.yul\":3962:4080   */\n      pop\n        /* \"#utility.yul\":3472:4087   */\n      swap3\n      pop\n      swap3\n      pop\n      swap3\n      jump\t// out\n        /* \"#utility.yul\":4093:4211   */\n    tag_246:\n        /* \"#utility.yul\":4180:4204   */\n      tag_347\n        /* \"#utility.yul\":4198:4203   */\n      dup2\n        /* \"#utility.yul\":4180:4204   */\n      tag_243\n      jump\t// in\n    tag_347:\n        /* \"#utility.yul\":4175:4178   */\n      dup3\n        /* \"#utility.yul\":4168:4205   */\n      mstore\n        /* \"#utility.yul\":4093:4211   */\n      pop\n      pop\n      jump\t// out\n        /* \"#utility.yul\":4217:4439   */\n    tag_40:\n        /* \"#utility.yul\":4310:4314   */\n      0x00\n        /* \"#utility.yul\":4348:4350   */\n      0x20\n        /* \"#utility.yul\":4337:4346   */\n      dup3\n        /* \"#utility.yul\":4333:4351   */\n      add\n        /* \"#utility.yul\":4325:4351   */\n      swap1\n      pop\n        /* \"#utility.yul\":4361:4432   */\n      tag_349\n        /* \"#utility.yul\":4429:4430   */\n      0x00\n        /* \"#utility.yul\":4418:4427   */\n      dup4\n        /* \"#utility.yul\":4414:4431   */\n      add\n        /* \"#utility.yul\":4405:4411   */\n      dup5\n        /* \"#utility.yul\":4361:4432   */\n      tag_246\n      jump\t// in\n    tag_349:\n        /* \"#utility.yul\":4217:4439   */\n      swap3\n      swap2\n      pop\n      pop\n      jump\t// out\n        /* \"#utility.yul\":4445:4567   */\n    tag_247:\n        /* \"#utility.yul\":4518:4542   */\n      tag_351\n        /* \"#utility.yul\":4536:4541   */\n      dup2\n        /* \"#utility.yul\":4518:4542   */\n      tag_241\n      jump\t// in\n    tag_351:\n        /* \"#utility.yul\":4511:4516   */\n      dup2\n        /* \"#utility.yul\":4508:4543   */\n      eq\n        /* \"#utility.yul\":4498:4561   */\n      tag_352\n      jumpi\n        /* \"#utility.yul\":4557:4558   */\n      0x00\n        /* \"#utility.yul\":4554:4555   */\n      dup1\n        /* \"#utility.yul\":4547:4559   */\n      revert\n        /* \"#utility.yul\":4498:4561   */\n    tag_352:\n        /* \"#utility.yul\":4445:4567   */\n      pop\n      jump\t// out\n        /* \"#utility.yul\":4573:4712   */\n    tag_248:\n        /* \"#utility.yul\":4619:4624   */\n      0x00\n        /* \"#utility.yul\":4657:4663   */\n      dup2\n        /* \"#utility.yul\":4644:4664   */\n      calldataload\n        /* \"#utility.yul\":4635:4664   */\n      swap1\n      pop\n        /* \"#utility.yul\":4673:4706   */\n      tag_354\n        /* \"#utility.yul\":4700:4705   */\n      dup2\n        /* \"#utility.yul\":4673:4706   */\n      tag_247\n      jump\t// in\n    tag_354:\n        /* \"#utility.yul\":4573:4712   */\n      swap3\n      swap2\n      pop\n      pop\n      jump\t// out\n        /* \"#utility.yul\":4718:4835   */\n    tag_249:\n        /* \"#utility.yul\":4827:4828   */\n      0x00\n        /* \"#utility.yul\":4824:4825   */\n      dup1\n        /* \"#utility.yul\":4817:4829   */\n      revert\n        /* \"#utility.yul\":4841:4958   */\n    tag_250:\n        /* \"#utility.yul\":4950:4951   */\n      0x00\n        /* \"#utility.yul\":4947:4948   */\n      dup1\n        /* \"#utility.yul\":4940:4952   */\n      revert\n        /* \"#utility.yul\":4964:5081   */\n    tag_251:\n        /* \"#utility.yul\":5073:5074   */\n      0x00\n        /* \"#utility.yul\":5070:5071   */\n      dup1\n        /* \"#utility.yul\":5063:5075   */\n      revert\n        /* \"#utility.yul\":5103:5670   */\n    tag_252:\n        /* \"#utility.yul\":5175:5183   */\n      0x00\n        /* \"#utility.yul\":5185:5191   */\n      dup1\n        /* \"#utility.yul\":5235:5238   */\n      dup4\n        /* \"#utility.yul\":5228:5232   */\n      0x1f\n        /* \"#utility.yul\":5220:5226   */\n      dup5\n        /* \"#utility.yul\":5216:5233   */\n      add\n        /* \"#utility.yul\":5212:5239   */\n      slt\n        /* \"#utility.yul\":5202:5324   */\n      tag_359\n      jumpi\n        /* \"#utility.yul\":5243:5322   */\n      tag_360\n      tag_249\n      jump\t// in\n    tag_360:\n        /* \"#utility.yul\":5202:5324   */\n    tag_359:\n        /* \"#utility.yul\":5356:5362   */\n      dup3\n        /* \"#utility.yul\":5343:5363   */\n      calldataload\n        /* \"#utility.yul\":5333:5363   */\n      swap1\n      pop\n        /* \"#utility.yul\":5386:5404   */\n      0xffffffffffffffff\n        /* \"#utility.yul\":5378:5384   */\n      dup2\n        /* \"#utility.yul\":5375:5405   */\n      gt\n        /* \"#utility.yul\":5372:5489   */\n      iszero\n      tag_361\n      jumpi\n        /* \"#utility.yul\":5408:5487   */\n      tag_362\n      tag_250\n      jump\t// in\n    tag_362:\n        /* \"#utility.yul\":5372:5489   */\n    tag_361:\n        /* \"#utility.yul\":5522:5526   */\n      0x20\n        /* \"#utility.yul\":5514:5520   */\n      dup4\n        /* \"#utility.yul\":5510:5527   */\n      add\n        /* \"#utility.yul\":5498:5527   */\n      swap2\n      pop\n        /* \"#utility.yul\":5576:5579   */\n      dup4\n        /* \"#utility.yul\":5568:5572   */\n      0x20\n        /* \"#utility.yul\":5560:5566   */\n      dup3\n        /* \"#utility.yul\":5556:5573   */\n      mul\n        /* \"#utility.yul\":5546:5554   */\n      dup4\n        /* \"#utility.yul\":5542:5574   */\n      add\n        /* \"#utility.yul\":5539:5580   */\n      gt\n        /* \"#utility.yul\":5536:5664   */\n      iszero\n      tag_363\n      jumpi\n        /* \"#utility.yul\":5583:5662   */\n      tag_364\n      tag_251\n      jump\t// in\n    tag_364:\n        /* \"#utility.yul\":5536:5664   */\n    tag_363:\n        /* \"#utility.yul\":5103:5670   */\n      swap3\n      pop\n      swap3\n      swap1\n      pop\n      jump\t// out\n        /* \"#utility.yul\":5676:6895   */\n    tag_43:\n        /* \"#utility.yul\":5813:5819   */\n      0x00\n        /* \"#utility.yul\":5821:5827   */\n      dup1\n        /* \"#utility.yul\":5829:5835   */\n      0x00\n        /* \"#utility.yul\":5837:5843   */\n      dup1\n        /* \"#utility.yul\":5845:5851   */\n      0x00\n        /* \"#utility.yul\":5853:5859   */\n      dup1\n        /* \"#utility.yul\":5902:5905   */\n      0x80\n        /* \"#utility.yul\":5890:5899   */\n      dup8\n        /* \"#utility.yul\":5881:5888   */\n      dup10\n        /* \"#utility.yul\":5877:5900   */\n      sub\n        /* \"#utility.yul\":5873:5906   */\n      slt\n        /* \"#utility.yul\":5870:5990   */\n      iszero\n      tag_366\n      jumpi\n        /* \"#utility.yul\":5909:5988   */\n      tag_367\n      tag_236\n      jump\t// in\n    tag_367:\n        /* \"#utility.yul\":5870:5990   */\n    tag_366:\n        /* \"#utility.yul\":6029:6030   */\n      0x00\n        /* \"#utility.yul\":6054:6106   */\n      tag_368\n        /* \"#utility.yul\":6098:6105   */\n      dup10\n        /* \"#utility.yul\":6089:6095   */\n      dup3\n        /* \"#utility.yul\":6078:6087   */\n      dup11\n        /* \"#utility.yul\":6074:6096   */\n      add\n        /* \"#utility.yul\":6054:6106   */\n      tag_240\n      jump\t// in\n    tag_368:\n        /* \"#utility.yul\":6044:6106   */\n      swap7\n      pop\n        /* \"#utility.yul\":6000:6116   */\n      pop\n        /* \"#utility.yul\":6155:6157   */\n      0x20\n        /* \"#utility.yul\":6181:6234   */\n      tag_369\n        /* \"#utility.yul\":6226:6233   */\n      dup10\n        /* \"#utility.yul\":6217:6223   */\n      dup3\n        /* \"#utility.yul\":6206:6215   */\n      dup11\n        /* \"#utility.yul\":6202:6224   */\n      add\n        /* \"#utility.yul\":6181:6234   */\n      tag_248\n      jump\t// in\n    tag_369:\n        /* \"#utility.yul\":6171:6234   */\n      swap6\n      pop\n        /* \"#utility.yul\":6126:6244   */\n      pop\n        /* \"#utility.yul\":6311:6313   */\n      0x40\n        /* \"#utility.yul\":6300:6309   */\n      dup8\n        /* \"#utility.yul\":6296:6314   */\n      add\n        /* \"#utility.yul\":6283:6315   */\n      calldataload\n        /* \"#utility.yul\":6342:6360   */\n      0xffffffffffffffff\n        /* \"#utility.yul\":6334:6340   */\n      dup2\n        /* \"#utility.yul\":6331:6361   */\n      gt\n        /* \"#utility.yul\":6328:6445   */\n      iszero\n      tag_370\n      jumpi\n        /* \"#utility.yul\":6364:6443   */\n      tag_371\n      tag_237\n      jump\t// in\n    tag_371:\n        /* \"#utility.yul\":6328:6445   */\n    tag_370:\n        /* \"#utility.yul\":6477:6556   */\n      tag_372\n        /* \"#utility.yul\":6548:6555   */\n      dup10\n        /* \"#utility.yul\":6539:6545   */\n      dup3\n        /* \"#utility.yul\":6528:6537   */\n      dup11\n        /* \"#utility.yul\":6524:6546   */\n      add\n        /* \"#utility.yul\":6477:6556   */\n      tag_252\n      jump\t// in\n    tag_372:\n        /* \"#utility.yul\":6459:6556   */\n      swap5\n      pop\n      swap5\n      pop\n        /* \"#utility.yul\":6254:6566   */\n      pop\n        /* \"#utility.yul\":6633:6635   */\n      0x60\n        /* \"#utility.yul\":6622:6631   */\n      dup8\n        /* \"#utility.yul\":6618:6636   */\n      add\n        /* \"#utility.yul\":6605:6637   */\n      calldataload\n        /* \"#utility.yul\":6664:6682   */\n      0xffffffffffffffff\n        /* \"#utility.yul\":6656:6662   */\n      dup2\n        /* \"#utility.yul\":6653:6683   */\n      gt\n        /* \"#utility.yul\":6650:6767   */\n      iszero\n      tag_373\n      jumpi\n        /* \"#utility.yul\":6686:6765   */\n      tag_374\n      tag_237\n      jump\t// in\n    tag_374:\n        /* \"#utility.yul\":6650:6767   */\n    tag_373:\n        /* \"#utility.yul\":6799:6878   */\n      tag_375\n        /* \"#utility.yul\":6870:6877   */\n      dup10\n        /* \"#utility.yul\":6861:6867   */\n      dup3\n        /* \"#utility.yul\":6850:6859   */\n      dup11\n        /* \"#utility.yul\":6846:6868   */\n      add\n        /* \"#utility.yul\":6799:6878   */\n      tag_252\n      jump\t// in\n    tag_375:\n        /* \"#utility.yul\":6781:6878   */\n      swap3\n      pop\n      swap3\n      pop\n        /* \"#utility.yul\":6576:6888   */\n      pop\n        /* \"#utility.yul\":5676:6895   */\n      swap3\n      swap6\n      pop\n      swap3\n      swap6\n      pop\n      swap3\n      swap6\n      jump\t// out\n        /* \"#utility.yul\":6901:7375   */\n    tag_47:\n        /* \"#utility.yul\":6969:6975   */\n      0x00\n        /* \"#utility.yul\":6977:6983   */\n      dup1\n        /* \"#utility.yul\":7026:7028   */\n      0x40\n        /* \"#utility.yul\":7014:7023   */\n      dup4\n        /* \"#utility.yul\":7005:7012   */\n      dup6\n        /* \"#utility.yul\":7001:7024   */\n      sub\n        /* \"#utility.yul\":6997:7029   */\n      slt\n        /* \"#utility.yul\":6994:7113   */\n      iszero\n      tag_377\n      jumpi\n        /* \"#utility.yul\":7032:7111   */\n      tag_378\n      tag_236\n      jump\t// in\n    tag_378:\n        /* \"#utility.yul\":6994:7113   */\n    tag_377:\n        /* \"#utility.yul\":7152:7153   */\n      0x00\n        /* \"#utility.yul\":7177:7230   */\n      tag_379\n        /* \"#utility.yul\":7222:7229   */\n      dup6\n        /* \"#utility.yul\":7213:7219   */\n      dup3\n        /* \"#utility.yul\":7202:7211   */\n      dup7\n        /* \"#utility.yul\":7198:7220   */\n      add\n        /* \"#utility.yul\":7177:7230   */\n      tag_245\n      jump\t// in\n    tag_379:\n        /* \"#utility.yul\":7167:7230   */\n      swap3\n      pop\n        /* \"#utility.yul\":7123:7240   */\n      pop\n        /* \"#utility.yul\":7279:7281   */\n      0x20\n        /* \"#utility.yul\":7305:7358   */\n      tag_380\n        /* \"#utility.yul\":7350:7357   */\n      dup6\n        /* \"#utility.yul\":7341:7347   */\n      dup3\n        /* \"#utility.yul\":7330:7339   */\n      dup7\n        /* \"#utility.yul\":7326:7348   */\n      add\n        /* \"#utility.yul\":7305:7358   */\n      tag_248\n      jump\t// in\n    tag_380:\n        /* \"#utility.yul\":7295:7358   */\n      swap2\n      pop\n        /* \"#utility.yul\":7250:7368   */\n      pop\n        /* \"#utility.yul\":6901:7375   */\n      swap3\n      pop\n      swap3\n      swap1\n      pop\n      jump\t// out\n        /* \"#utility.yul\":7381:7710   */\n    tag_51:\n        /* \"#utility.yul\":7440:7446   */\n      0x00\n        /* \"#utility.yul\":7489:7491   */\n      0x20\n        /* \"#utility.yul\":7477:7486   */\n      dup3\n        /* \"#utility.yul\":7468:7475   */\n      dup5\n        /* \"#utility.yul\":7464:7487   */\n      sub\n        /* \"#utility.yul\":7460:7492   */\n      slt\n        /* \"#utility.yul\":7457:7576   */\n      iszero\n      tag_382\n      jumpi\n        /* \"#utility.yul\":7495:7574   */\n      tag_383\n      tag_236\n      jump\t// in\n    tag_383:\n        /* \"#utility.yul\":7457:7576   */\n    tag_382:\n        /* \"#utility.yul\":7615:7616   */\n      0x00\n        /* \"#utility.yul\":7640:7693   */\n      tag_384\n        /* \"#utility.yul\":7685:7692   */\n      dup5\n        /* \"#utility.yul\":7676:7682   */\n      dup3\n        /* \"#utility.yul\":7665:7674   */\n      dup6\n        /* \"#utility.yul\":7661:7683   */\n      add\n        /* \"#utility.yul\":7640:7693   */\n      tag_245\n      jump\t// in\n    tag_384:\n        /* \"#utility.yul\":7630:7693   */\n      swap2\n      pop\n        /* \"#utility.yul\":7586:7703   */\n      pop\n        /* \"#utility.yul\":7381:7710   */\n      swap3\n      swap2\n      pop\n      pop\n      jump\t// out\n        /* \"#utility.yul\":7716:7896   */\n    tag_253:\n        /* \"#utility.yul\":7764:7841   */\n      0x4e487b7100000000000000000000000000000000000000000000000000000000\n        /* \"#utility.yul\":7761:7762   */\n      0x00\n        /* \"#utility.yul\":7754:7842   */\n      mstore\n        /* \"#utility.yul\":7861:7865   */\n      0x11\n        /* \"#utility.yul\":7858:7859   */\n      0x04\n        /* \"#utility.yul\":7851:7866   */\n      mstore\n        /* \"#utility.yul\":7885:7889   */\n      0x24\n        /* \"#utility.yul\":7882:7883   */\n      0x00\n        /* \"#utility.yul\":7875:7890   */\n      revert\n        /* \"#utility.yul\":7902:8312   */\n    tag_69:\n        /* \"#utility.yul\":7942:7949   */\n      0x00\n        /* \"#utility.yul\":7965:7985   */\n      tag_387\n        /* \"#utility.yul\":7983:7984   */\n      dup3\n        /* \"#utility.yul\":7965:7985   */\n      tag_241\n      jump\t// in\n    tag_387:\n        /* \"#utility.yul\":7960:7985   */\n      swap2\n      pop\n        /* \"#utility.yul\":7999:8019   */\n      tag_388\n        /* \"#utility.yul\":8017:8018   */\n      dup4\n        /* \"#utility.yul\":7999:8019   */\n      tag_241\n      jump\t// in\n    tag_388:\n        /* \"#utility.yul\":7994:8019   */\n      swap3\n      pop\n        /* \"#utility.yul\":8054:8055   */\n      dup3\n        /* \"#utility.yul\":8051:8052   */\n      dup3\n        /* \"#utility.yul\":8047:8056   */\n      mul\n        /* \"#utility.yul\":8076:8106   */\n      tag_389\n        /* \"#utility.yul\":8094:8105   */\n      dup2\n        /* \"#utility.yul\":8076:8106   */\n      tag_241\n      jump\t// in\n    tag_389:\n        /* \"#utility.yul\":8065:8106   */\n      swap2\n      pop\n        /* \"#utility.yul\":8255:8256   */\n      dup3\n        /* \"#utility.yul\":8246:8253   */\n      dup3\n        /* \"#utility.yul\":8242:8257   */\n      div\n        /* \"#utility.yul\":8239:8240   */\n      dup5\n        /* \"#utility.yul\":8236:8258   */\n      eq\n        /* \"#utility.yul\":8216:8217   */\n      dup4\n        /* \"#utility.yul\":8209:8218   */\n      iszero\n        /* \"#utility.yul\":8189:8272   */\n      or\n        /* \"#utility.yul\":8166:8305   */\n      tag_390\n      jumpi\n        /* \"#utility.yul\":8285:8303   */\n      tag_391\n      tag_253\n      jump\t// in\n    tag_391:\n        /* \"#utility.yul\":8166:8305   */\n    tag_390:\n        /* \"#utility.yul\":7950:8312   */\n      pop\n        /* \"#utility.yul\":7902:8312   */\n      swap3\n      swap2\n      pop\n      pop\n      jump\t// out\n        /* \"#utility.yul\":8318:8650   */\n    tag_71:\n        /* \"#utility.yul\":8439:8443   */\n      0x00\n        /* \"#utility.yul\":8477:8479   */\n      0x40\n        /* \"#utility.yul\":8466:8475   */\n      dup3\n        /* \"#utility.yul\":8462:8480   */\n      add\n        /* \"#utility.yul\":8454:8480   */\n      swap1\n      pop\n        /* \"#utility.yul\":8490:8561   */\n      tag_393\n        /* \"#utility.yul\":8558:8559   */\n      0x00\n        /* \"#utility.yul\":8547:8556   */\n      dup4\n        /* \"#utility.yul\":8543:8560   */\n      add\n        /* \"#utility.yul\":8534:8540   */\n      dup6\n        /* \"#utility.yul\":8490:8561   */\n      tag_246\n      jump\t// in\n    tag_393:\n        /* \"#utility.yul\":8571:8643   */\n      tag_394\n        /* \"#utility.yul\":8639:8641   */\n      0x20\n        /* \"#utility.yul\":8628:8637   */\n      dup4\n        /* \"#utility.yul\":8624:8642   */\n      add\n        /* \"#utility.yul\":8615:8621   */\n      dup5\n        /* \"#utility.yul\":8571:8643   */\n      tag_246\n      jump\t// in\n    tag_394:\n        /* \"#utility.yul\":8318:8650   */\n      swap4\n      swap3\n      pop\n      pop\n      pop\n      jump\t// out\n        /* \"#utility.yul\":8656:8799   */\n    tag_254:\n        /* \"#utility.yul\":8713:8718   */\n      0x00\n        /* \"#utility.yul\":8744:8750   */\n      dup2\n        /* \"#utility.yul\":8738:8751   */\n      mload\n        /* \"#utility.yul\":8729:8751   */\n      swap1\n      pop\n        /* \"#utility.yul\":8760:8793   */\n      tag_396\n        /* \"#utility.yul\":8787:8792   */\n      dup2\n        /* \"#utility.yul\":8760:8793   */\n      tag_247\n      jump\t// in\n    tag_396:\n        /* \"#utility.yul\":8656:8799   */\n      swap3\n      swap2\n      pop\n      pop\n      jump\t// out\n        /* \"#utility.yul\":8805:9156   */\n    tag_75:\n        /* \"#utility.yul\":8875:8881   */\n      0x00\n        /* \"#utility.yul\":8924:8926   */\n      0x20\n        /* \"#utility.yul\":8912:8921   */\n      dup3\n        /* \"#utility.yul\":8903:8910   */\n      dup5\n        /* \"#utility.yul\":8899:8922   */\n      sub\n        /* \"#utility.yul\":8895:8927   */\n      slt\n        /* \"#utility.yul\":8892:9011   */\n      iszero\n      tag_398\n      jumpi\n        /* \"#utility.yul\":8930:9009   */\n      tag_399\n      tag_236\n      jump\t// in\n    tag_399:\n        /* \"#utility.yul\":8892:9011   */\n    tag_398:\n        /* \"#utility.yul\":9050:9051   */\n      0x00\n        /* \"#utility.yul\":9075:9139   */\n      tag_400\n        /* \"#utility.yul\":9131:9138   */\n      dup5\n        /* \"#utility.yul\":9122:9128   */\n      dup3\n        /* \"#utility.yul\":9111:9120   */\n      dup6\n        /* \"#utility.yul\":9107:9129   */\n      add\n        /* \"#utility.yul\":9075:9139   */\n      tag_254\n      jump\t// in\n    tag_400:\n        /* \"#utility.yul\":9065:9139   */\n      swap2\n      pop\n        /* \"#utility.yul\":9021:9149   */\n      pop\n        /* \"#utility.yul\":8805:9156   */\n      swap3\n      swap2\n      pop\n      pop\n      jump\t// out\n        /* \"#utility.yul\":9162:9342   */\n    tag_86:\n        /* \"#utility.yul\":9210:9287   */\n      0x4e487b7100000000000000000000000000000000000000000000000000000000\n        /* \"#utility.yul\":9207:9208   */\n      0x00\n        /* \"#utility.yul\":9200:9288   */\n      mstore\n        /* \"#utility.yul\":9307:9311   */\n      0x41\n        /* \"#utility.yul\":9304:9305   */\n      0x04\n        /* \"#utility.yul\":9297:9312   */\n      mstore\n        /* \"#utility.yul\":9331:9335   */\n      0x24\n        /* \"#utility.yul\":9328:9329   */\n      0x00\n        /* \"#utility.yul\":9321:9336   */\n      revert\n        /* \"#utility.yul\":9348:9528   */\n    tag_93:\n        /* \"#utility.yul\":9396:9473   */\n      0x4e487b7100000000000000000000000000000000000000000000000000000000\n        /* \"#utility.yul\":9393:9394   */\n      0x00\n        /* \"#utility.yul\":9386:9474   */\n      mstore\n        /* \"#utility.yul\":9493:9497   */\n      0x32\n        /* \"#utility.yul\":9490:9491   */\n      0x04\n        /* \"#utility.yul\":9483:9498   */\n      mstore\n        /* \"#utility.yul\":9517:9521   */\n      0x24\n        /* \"#utility.yul\":9514:9515   */\n      0x00\n        /* \"#utility.yul\":9507:9522   */\n      revert\n        /* \"#utility.yul\":9534:9809   */\n    tag_95:\n        /* \"#utility.yul\":9573:9580   */\n      0x00\n        /* \"#utility.yul\":9596:9615   */\n      tag_404\n        /* \"#utility.yul\":9613:9614   */\n      dup3\n        /* \"#utility.yul\":9596:9615   */\n      tag_238\n      jump\t// in\n    tag_404:\n        /* \"#utility.yul\":9591:9615   */\n      swap2\n      pop\n        /* \"#utility.yul\":9629:9648   */\n      tag_405\n        /* \"#utility.yul\":9646:9647   */\n      dup4\n        /* \"#utility.yul\":9629:9648   */\n      tag_238\n      jump\t// in\n    tag_405:\n        /* \"#utility.yul\":9624:9648   */\n      swap3\n      pop\n        /* \"#utility.yul\":9683:9684   */\n      dup3\n        /* \"#utility.yul\":9680:9681   */\n      dup3\n        /* \"#utility.yul\":9676:9685   */\n      mul\n        /* \"#utility.yul\":9705:9734   */\n      tag_406\n        /* \"#utility.yul\":9722:9733   */\n      dup2\n        /* \"#utility.yul\":9705:9734   */\n      tag_238\n      jump\t// in\n    tag_406:\n        /* \"#utility.yul\":9694:9734   */\n      swap2\n      pop\n        /* \"#utility.yul\":9766:9777   */\n      dup1\n        /* \"#utility.yul\":9757:9764   */\n      dup3\n        /* \"#utility.yul\":9754:9778   */\n      eq\n        /* \"#utility.yul\":9744:9802   */\n      tag_407\n      jumpi\n        /* \"#utility.yul\":9782:9800   */\n      tag_408\n      tag_253\n      jump\t// in\n    tag_408:\n        /* \"#utility.yul\":9744:9802   */\n    tag_407:\n        /* \"#utility.yul\":9581:9809   */\n      pop\n        /* \"#utility.yul\":9534:9809   */\n      swap3\n      swap2\n      pop\n      pop\n      jump\t// out\n        /* \"#utility.yul\":9815:10012   */\n    tag_101:\n        /* \"#utility.yul\":9854:9857   */\n      0x00\n        /* \"#utility.yul\":9873:9892   */\n      tag_410\n        /* \"#utility.yul\":9890:9891   */\n      dup3\n        /* \"#utility.yul\":9873:9892   */\n      tag_238\n      jump\t// in\n    tag_410:\n        /* \"#utility.yul\":9868:9892   */\n      swap2\n      pop\n        /* \"#utility.yul\":9906:9925   */\n      tag_411\n        /* \"#utility.yul\":9923:9924   */\n      dup4\n        /* \"#utility.yul\":9906:9925   */\n      tag_238\n      jump\t// in\n    tag_411:\n        /* \"#utility.yul\":9901:9925   */\n      swap3\n      pop\n        /* \"#utility.yul\":9948:9949   */\n      dup3\n        /* \"#utility.yul\":9945:9946   */\n      dup3\n        /* \"#utility.yul\":9941:9950   */\n      add\n        /* \"#utility.yul\":9934:9950   */\n      swap1\n      pop\n        /* \"#utility.yul\":9971:9981   */\n      0xffffffff\n        /* \"#utility.yul\":9966:9969   */\n      dup2\n        /* \"#utility.yul\":9963:9982   */\n      gt\n        /* \"#utility.yul\":9960:10005   */\n      iszero\n      tag_412\n      jumpi\n        /* \"#utility.yul\":9985:10003   */\n      tag_413\n      tag_253\n      jump\t// in\n    tag_413:\n        /* \"#utility.yul\":9960:10005   */\n    tag_412:\n        /* \"#utility.yul\":9815:10012   */\n      swap3\n      swap2\n      pop\n      pop\n      jump\t// out\n        /* \"#utility.yul\":10018:10095   */\n    tag_255:\n        /* \"#utility.yul\":10055:10062   */\n      0x00\n        /* \"#utility.yul\":10084:10089   */\n      dup2\n        /* \"#utility.yul\":10073:10089   */\n      swap1\n      pop\n        /* \"#utility.yul\":10018:10095   */\n      swap2\n      swap1\n      pop\n      jump\t// out\n        /* \"#utility.yul\":10101:10223   */\n    tag_256:\n        /* \"#utility.yul\":10174:10198   */\n      tag_416\n        /* \"#utility.yul\":10192:10197   */\n      dup2\n        /* \"#utility.yul\":10174:10198   */\n      tag_255\n      jump\t// in\n    tag_416:\n        /* \"#utility.yul\":10167:10172   */\n      dup2\n        /* \"#utility.yul\":10164:10199   */\n      eq\n        /* \"#utility.yul\":10154:10217   */\n      tag_417\n      jumpi\n        /* \"#utility.yul\":10213:10214   */\n      0x00\n        /* \"#utility.yul\":10210:10211   */\n      dup1\n        /* \"#utility.yul\":10203:10215   */\n      revert\n        /* \"#utility.yul\":10154:10217   */\n    tag_417:\n        /* \"#utility.yul\":10101:10223   */\n      pop\n      jump\t// out\n        /* \"#utility.yul\":10229:10372   */\n    tag_257:\n        /* \"#utility.yul\":10286:10291   */\n      0x00\n        /* \"#utility.yul\":10317:10323   */\n      dup2\n        /* \"#utility.yul\":10311:10324   */\n      mload\n        /* \"#utility.yul\":10302:10324   */\n      swap1\n      pop\n        /* \"#utility.yul\":10333:10366   */\n      tag_419\n        /* \"#utility.yul\":10360:10365   */\n      dup2\n        /* \"#utility.yul\":10333:10366   */\n      tag_256\n      jump\t// in\n    tag_419:\n        /* \"#utility.yul\":10229:10372   */\n      swap3\n      swap2\n      pop\n      pop\n      jump\t// out\n        /* \"#utility.yul\":10378:10729   */\n    tag_105:\n        /* \"#utility.yul\":10448:10454   */\n      0x00\n        /* \"#utility.yul\":10497:10499   */\n      0x20\n        /* \"#utility.yul\":10485:10494   */\n      dup3\n        /* \"#utility.yul\":10476:10483   */\n      dup5\n        /* \"#utility.yul\":10472:10495   */\n      sub\n        /* \"#utility.yul\":10468:10500   */\n      slt\n        /* \"#utility.yul\":10465:10584   */\n      iszero\n      tag_421\n      jumpi\n        /* \"#utility.yul\":10503:10582   */\n      tag_422\n      tag_236\n      jump\t// in\n    tag_422:\n        /* \"#utility.yul\":10465:10584   */\n    tag_421:\n        /* \"#utility.yul\":10623:10624   */\n      0x00\n        /* \"#utility.yul\":10648:10712   */\n      tag_423\n        /* \"#utility.yul\":10704:10711   */\n      dup5\n        /* \"#utility.yul\":10695:10701   */\n      dup3\n        /* \"#utility.yul\":10684:10693   */\n      dup6\n        /* \"#utility.yul\":10680:10702   */\n      add\n        /* \"#utility.yul\":10648:10712   */\n      tag_257\n      jump\t// in\n    tag_423:\n        /* \"#utility.yul\":10638:10712   */\n      swap2\n      pop\n        /* \"#utility.yul\":10594:10722   */\n      pop\n        /* \"#utility.yul\":10378:10729   */\n      swap3\n      swap2\n      pop\n      pop\n      jump\t// out\n        /* \"#utility.yul\":10735:10853   */\n    tag_258:\n        /* \"#utility.yul\":10822:10846   */\n      tag_425\n        /* \"#utility.yul\":10840:10845   */\n      dup2\n        /* \"#utility.yul\":10822:10846   */\n      tag_255\n      jump\t// in\n    tag_425:\n        /* \"#utility.yul\":10817:10820   */\n      dup3\n        /* \"#utility.yul\":10810:10847   */\n      mstore\n        /* \"#utility.yul\":10735:10853   */\n      pop\n      pop\n      jump\t// out\n        /* \"#utility.yul\":10859:11081   */\n    tag_107:\n        /* \"#utility.yul\":10952:10956   */\n      0x00\n        /* \"#utility.yul\":10990:10992   */\n      0x20\n        /* \"#utility.yul\":10979:10988   */\n      dup3\n        /* \"#utility.yul\":10975:10993   */\n      add\n        /* \"#utility.yul\":10967:10993   */\n      swap1\n      pop\n        /* \"#utility.yul\":11003:11074   */\n      tag_427\n        /* \"#utility.yul\":11071:11072   */\n      0x00\n        /* \"#utility.yul\":11060:11069   */\n      dup4\n        /* \"#utility.yul\":11056:11073   */\n      add\n        /* \"#utility.yul\":11047:11053   */\n      dup5\n        /* \"#utility.yul\":11003:11074   */\n      tag_258\n      jump\t// in\n    tag_427:\n        /* \"#utility.yul\":10859:11081   */\n      swap3\n      swap2\n      pop\n      pop\n      jump\t// out\n        /* \"#utility.yul\":11087:11230   */\n    tag_259:\n        /* \"#utility.yul\":11144:11149   */\n      0x00\n        /* \"#utility.yul\":11175:11181   */\n      dup2\n        /* \"#utility.yul\":11169:11182   */\n      mload\n        /* \"#utility.yul\":11160:11182   */\n      swap1\n      pop\n        /* \"#utility.yul\":11191:11224   */\n      tag_429\n        /* \"#utility.yul\":11218:11223   */\n      dup2\n        /* \"#utility.yul\":11191:11224   */\n      tag_244\n      jump\t// in\n    tag_429:\n        /* \"#utility.yul\":11087:11230   */\n      swap3\n      swap2\n      pop\n      pop\n      jump\t// out\n        /* \"#utility.yul\":11236:11587   */\n    tag_111:\n        /* \"#utility.yul\":11306:11312   */\n      0x00\n        /* \"#utility.yul\":11355:11357   */\n      0x20\n        /* \"#utility.yul\":11343:11352   */\n      dup3\n        /* \"#utility.yul\":11334:11341   */\n      dup5\n        /* \"#utility.yul\":11330:11353   */\n      sub\n        /* \"#utility.yul\":11326:11358   */\n      slt\n        /* \"#utility.yul\":11323:11442   */\n      iszero\n      tag_431\n      jumpi\n        /* \"#utility.yul\":11361:11440   */\n      tag_432\n      tag_236\n      jump\t// in\n    tag_432:\n        /* \"#utility.yul\":11323:11442   */\n    tag_431:\n        /* \"#utility.yul\":11481:11482   */\n      0x00\n        /* \"#utility.yul\":11506:11570   */\n      tag_433\n        /* \"#utility.yul\":11562:11569   */\n      dup5\n        /* \"#utility.yul\":11553:11559   */\n      dup3\n        /* \"#utility.yul\":11542:11551   */\n      dup6\n        /* \"#utility.yul\":11538:11560   */\n      add\n        /* \"#utility.yul\":11506:11570   */\n      tag_259\n      jump\t// in\n    tag_433:\n        /* \"#utility.yul\":11496:11570   */\n      swap2\n      pop\n        /* \"#utility.yul\":11452:11580   */\n      pop\n        /* \"#utility.yul\":11236:11587   */\n      swap3\n      swap2\n      pop\n      pop\n      jump\t// out\n        /* \"#utility.yul\":11593:11773   */\n    tag_260:\n        /* \"#utility.yul\":11641:11718   */\n      0x4e487b7100000000000000000000000000000000000000000000000000000000\n        /* \"#utility.yul\":11638:11639   */\n      0x00\n        /* \"#utility.yul\":11631:11719   */\n      mstore\n        /* \"#utility.yul\":11738:11742   */\n      0x12\n        /* \"#utility.yul\":11735:11736   */\n      0x04\n        /* \"#utility.yul\":11728:11743   */\n      mstore\n        /* \"#utility.yul\":11762:11766   */\n      0x24\n        /* \"#utility.yul\":11759:11760   */\n      0x00\n        /* \"#utility.yul\":11752:11767   */\n      revert\n        /* \"#utility.yul\":11779:11964   */\n    tag_113:\n        /* \"#utility.yul\":11819:11820   */\n      0x00\n        /* \"#utility.yul\":11836:11856   */\n      tag_436\n        /* \"#utility.yul\":11854:11855   */\n      dup3\n        /* \"#utility.yul\":11836:11856   */\n      tag_241\n      jump\t// in\n    tag_436:\n        /* \"#utility.yul\":11831:11856   */\n      swap2\n      pop\n        /* \"#utility.yul\":11870:11890   */\n      tag_437\n        /* \"#utility.yul\":11888:11889   */\n      dup4\n        /* \"#utility.yul\":11870:11890   */\n      tag_241\n      jump\t// in\n    tag_437:\n        /* \"#utility.yul\":11865:11890   */\n      swap3\n      pop\n        /* \"#utility.yul\":11909:11910   */\n      dup3\n        /* \"#utility.yul\":11899:11934   */\n      tag_438\n      jumpi\n        /* \"#utility.yul\":11914:11932   */\n      tag_439\n      tag_260\n      jump\t// in\n    tag_439:\n        /* \"#utility.yul\":11899:11934   */\n    tag_438:\n        /* \"#utility.yul\":11956:11957   */\n      dup3\n        /* \"#utility.yul\":11953:11954   */\n      dup3\n        /* \"#utility.yul\":11949:11958   */\n      div\n        /* \"#utility.yul\":11944:11958   */\n      swap1\n      pop\n        /* \"#utility.yul\":11779:11964   */\n      swap3\n      swap2\n      pop\n      pop\n      jump\t// out\n        /* \"#utility.yul\":11970:12412   */\n    tag_115:\n        /* \"#utility.yul\":12119:12123   */\n      0x00\n        /* \"#utility.yul\":12157:12159   */\n      0x60\n        /* \"#utility.yul\":12146:12155   */\n      dup3\n        /* \"#utility.yul\":12142:12160   */\n      add\n        /* \"#utility.yul\":12134:12160   */\n      swap1\n      pop\n        /* \"#utility.yul\":12170:12241   */\n      tag_441\n        /* \"#utility.yul\":12238:12239   */\n      0x00\n        /* \"#utility.yul\":12227:12236   */\n      dup4\n        /* \"#utility.yul\":12223:12240   */\n      add\n        /* \"#utility.yul\":12214:12220   */\n      dup7\n        /* \"#utility.yul\":12170:12241   */\n      tag_246\n      jump\t// in\n    tag_441:\n        /* \"#utility.yul\":12251:12323   */\n      tag_442\n        /* \"#utility.yul\":12319:12321   */\n      0x20\n        /* \"#utility.yul\":12308:12317   */\n      dup4\n        /* \"#utility.yul\":12304:12322   */\n      add\n        /* \"#utility.yul\":12295:12301   */\n      dup6\n        /* \"#utility.yul\":12251:12323   */\n      tag_246\n      jump\t// in\n    tag_442:\n        /* \"#utility.yul\":12333:12405   */\n      tag_443\n        /* \"#utility.yul\":12401:12403   */\n      0x40\n        /* \"#utility.yul\":12390:12399   */\n      dup4\n        /* \"#utility.yul\":12386:12404   */\n      add\n        /* \"#utility.yul\":12377:12383   */\n      dup5\n        /* \"#utility.yul\":12333:12405   */\n      tag_242\n      jump\t// in\n    tag_443:\n        /* \"#utility.yul\":11970:12412   */\n      swap5\n      swap4\n      pop\n      pop\n      pop\n      pop\n      jump\t// out\n        /* \"#utility.yul\":12418:12508   */\n    tag_261:\n        /* \"#utility.yul\":12452:12459   */\n      0x00\n        /* \"#utility.yul\":12495:12500   */\n      dup2\n        /* \"#utility.yul\":12488:12501   */\n      iszero\n        /* \"#utility.yul\":12481:12502   */\n      iszero\n        /* \"#utility.yul\":12470:12502   */\n      swap1\n      pop\n        /* \"#utility.yul\":12418:12508   */\n      swap2\n      swap1\n      pop\n      jump\t// out\n        /* \"#utility.yul\":12514:12630   */\n    tag_262:\n        /* \"#utility.yul\":12584:12605   */\n      tag_446\n        /* \"#utility.yul\":12599:12604   */\n      dup2\n        /* \"#utility.yul\":12584:12605   */\n      tag_261\n      jump\t// in\n    tag_446:\n        /* \"#utility.yul\":12577:12582   */\n      dup2\n        /* \"#utility.yul\":12574:12606   */\n      eq\n        /* \"#utility.yul\":12564:12624   */\n      tag_447\n      jumpi\n        /* \"#utility.yul\":12620:12621   */\n      0x00\n        /* \"#utility.yul\":12617:12618   */\n      dup1\n        /* \"#utility.yul\":12610:12622   */\n      revert\n        /* \"#utility.yul\":12564:12624   */\n    tag_447:\n        /* \"#utility.yul\":12514:12630   */\n      pop\n      jump\t// out\n        /* \"#utility.yul\":12636:12773   */\n    tag_263:\n        /* \"#utility.yul\":12690:12695   */\n      0x00\n        /* \"#utility.yul\":12721:12727   */\n      dup2\n        /* \"#utility.yul\":12715:12728   */\n      mload\n        /* \"#utility.yul\":12706:12728   */\n      swap1\n      pop\n        /* \"#utility.yul\":12737:12767   */\n      tag_449\n        /* \"#utility.yul\":12761:12766   */\n      dup2\n        /* \"#utility.yul\":12737:12767   */\n      tag_262\n      jump\t// in\n    tag_449:\n        /* \"#utility.yul\":12636:12773   */\n      swap3\n      swap2\n      pop\n      pop\n      jump\t// out\n        /* \"#utility.yul\":12779:13124   */\n    tag_119:\n        /* \"#utility.yul\":12846:12852   */\n      0x00\n        /* \"#utility.yul\":12895:12897   */\n      0x20\n        /* \"#utility.yul\":12883:12892   */\n      dup3\n        /* \"#utility.yul\":12874:12881   */\n      dup5\n        /* \"#utility.yul\":12870:12893   */\n      sub\n        /* \"#utility.yul\":12866:12898   */\n      slt\n        /* \"#utility.yul\":12863:12982   */\n      iszero\n      tag_451\n      jumpi\n        /* \"#utility.yul\":12901:12980   */\n      tag_452\n      tag_236\n      jump\t// in\n    tag_452:\n        /* \"#utility.yul\":12863:12982   */\n    tag_451:\n        /* \"#utility.yul\":13021:13022   */\n      0x00\n        /* \"#utility.yul\":13046:13107   */\n      tag_453\n        /* \"#utility.yul\":13099:13106   */\n      dup5\n        /* \"#utility.yul\":13090:13096   */\n      dup3\n        /* \"#utility.yul\":13079:13088   */\n      dup6\n        /* \"#utility.yul\":13075:13097   */\n      add\n        /* \"#utility.yul\":13046:13107   */\n      tag_263\n      jump\t// in\n    tag_453:\n        /* \"#utility.yul\":13036:13107   */\n      swap2\n      pop\n        /* \"#utility.yul\":12992:13117   */\n      pop\n        /* \"#utility.yul\":12779:13124   */\n      swap3\n      swap2\n      pop\n      pop\n      jump\t// out\n        /* \"#utility.yul\":13130:13270   */\n    tag_264:\n        /* \"#utility.yul\":13179:13188   */\n      0x00\n        /* \"#utility.yul\":13212:13264   */\n      tag_455\n        /* \"#utility.yul\":13230:13263   */\n      tag_456\n        /* \"#utility.yul\":13239:13262   */\n      tag_457\n        /* \"#utility.yul\":13256:13261   */\n      dup5\n        /* \"#utility.yul\":13239:13262   */\n      tag_238\n      jump\t// in\n    tag_457:\n        /* \"#utility.yul\":13230:13263   */\n      tag_228\n      jump\t// in\n    tag_456:\n        /* \"#utility.yul\":13212:13264   */\n      tag_241\n      jump\t// in\n    tag_455:\n        /* \"#utility.yul\":13199:13264   */\n      swap1\n      pop\n        /* \"#utility.yul\":13130:13270   */\n      swap2\n      swap1\n      pop\n      jump\t// out\n        /* \"#utility.yul\":13276:13405   */\n    tag_265:\n        /* \"#utility.yul\":13362:13398   */\n      tag_459\n        /* \"#utility.yul\":13392:13397   */\n      dup2\n        /* \"#utility.yul\":13362:13398   */\n      tag_264\n      jump\t// in\n    tag_459:\n        /* \"#utility.yul\":13357:13360   */\n      dup3\n        /* \"#utility.yul\":13350:13399   */\n      mstore\n        /* \"#utility.yul\":13276:13405   */\n      pop\n      pop\n      jump\t// out\n        /* \"#utility.yul\":13411:13851   */\n    tag_129:\n        /* \"#utility.yul\":13559:13563   */\n      0x00\n        /* \"#utility.yul\":13597:13599   */\n      0x60\n        /* \"#utility.yul\":13586:13595   */\n      dup3\n        /* \"#utility.yul\":13582:13600   */\n      add\n        /* \"#utility.yul\":13574:13600   */\n      swap1\n      pop\n        /* \"#utility.yul\":13610:13681   */\n      tag_461\n        /* \"#utility.yul\":13678:13679   */\n      0x00\n        /* \"#utility.yul\":13667:13676   */\n      dup4\n        /* \"#utility.yul\":13663:13680   */\n      add\n        /* \"#utility.yul\":13654:13660   */\n      dup7\n        /* \"#utility.yul\":13610:13681   */\n      tag_246\n      jump\t// in\n    tag_461:\n        /* \"#utility.yul\":13691:13763   */\n      tag_462\n        /* \"#utility.yul\":13759:13761   */\n      0x20\n        /* \"#utility.yul\":13748:13757   */\n      dup4\n        /* \"#utility.yul\":13744:13762   */\n      add\n        /* \"#utility.yul\":13735:13741   */\n      dup6\n        /* \"#utility.yul\":13691:13763   */\n      tag_242\n      jump\t// in\n    tag_462:\n        /* \"#utility.yul\":13773:13844   */\n      tag_463\n        /* \"#utility.yul\":13840:13842   */\n      0x40\n        /* \"#utility.yul\":13829:13838   */\n      dup4\n        /* \"#utility.yul\":13825:13843   */\n      add\n        /* \"#utility.yul\":13816:13822   */\n      dup5\n        /* \"#utility.yul\":13773:13844   */\n      tag_265\n      jump\t// in\n    tag_463:\n        /* \"#utility.yul\":13411:13851   */\n      swap5\n      swap4\n      pop\n      pop\n      pop\n      pop\n      jump\t// out\n        /* \"#utility.yul\":13857:13972   */\n    tag_266:\n        /* \"#utility.yul\":13942:13965   */\n      tag_465\n        /* \"#utility.yul\":13959:13964   */\n      dup2\n        /* \"#utility.yul\":13942:13965   */\n      tag_238\n      jump\t// in\n    tag_465:\n        /* \"#utility.yul\":13937:13940   */\n      dup3\n        /* \"#utility.yul\":13930:13966   */\n      mstore\n        /* \"#utility.yul\":13857:13972   */\n      pop\n      pop\n      jump\t// out\n        /* \"#utility.yul\":13978:14527   */\n    tag_160:\n        /* \"#utility.yul\":14153:14157   */\n      0x00\n        /* \"#utility.yul\":14191:14194   */\n      0x80\n        /* \"#utility.yul\":14180:14189   */\n      dup3\n        /* \"#utility.yul\":14176:14195   */\n      add\n        /* \"#utility.yul\":14168:14195   */\n      swap1\n      pop\n        /* \"#utility.yul\":14205:14276   */\n      tag_467\n        /* \"#utility.yul\":14273:14274   */\n      0x00\n        /* \"#utility.yul\":14262:14271   */\n      dup4\n        /* \"#utility.yul\":14258:14275   */\n      add\n        /* \"#utility.yul\":14249:14255   */\n      dup8\n        /* \"#utility.yul\":14205:14276   */\n      tag_246\n      jump\t// in\n    tag_467:\n        /* \"#utility.yul\":14286:14358   */\n      tag_468\n        /* \"#utility.yul\":14354:14356   */\n      0x20\n        /* \"#utility.yul\":14343:14352   */\n      dup4\n        /* \"#utility.yul\":14339:14357   */\n      add\n        /* \"#utility.yul\":14330:14336   */\n      dup7\n        /* \"#utility.yul\":14286:14358   */\n      tag_246\n      jump\t// in\n    tag_468:\n        /* \"#utility.yul\":14368:14440   */\n      tag_469\n        /* \"#utility.yul\":14436:14438   */\n      0x40\n        /* \"#utility.yul\":14425:14434   */\n      dup4\n        /* \"#utility.yul\":14421:14439   */\n      add\n        /* \"#utility.yul\":14412:14418   */\n      dup6\n        /* \"#utility.yul\":14368:14440   */\n      tag_242\n      jump\t// in\n    tag_469:\n        /* \"#utility.yul\":14450:14520   */\n      tag_470\n        /* \"#utility.yul\":14516:14518   */\n      0x60\n        /* \"#utility.yul\":14505:14514   */\n      dup4\n        /* \"#utility.yul\":14501:14519   */\n      add\n        /* \"#utility.yul\":14492:14498   */\n      dup5\n        /* \"#utility.yul\":14450:14520   */\n      tag_266\n      jump\t// in\n    tag_470:\n        /* \"#utility.yul\":13978:14527   */\n      swap6\n      swap5\n      pop\n      pop\n      pop\n      pop\n      pop\n      jump\t// out\n        /* \"#utility.yul\":14533:14643   */\n    tag_267:\n        /* \"#utility.yul\":14596:14602   */\n      0x00\n        /* \"#utility.yul\":14630:14635   */\n      dup2\n        /* \"#utility.yul\":14624:14636   */\n      sload\n        /* \"#utility.yul\":14614:14636   */\n      swap1\n      pop\n        /* \"#utility.yul\":14533:14643   */\n      swap2\n      swap1\n      pop\n      jump\t// out\n        /* \"#utility.yul\":14649:14832   */\n    tag_268:\n        /* \"#utility.yul\":14747:14758   */\n      0x00\n        /* \"#utility.yul\":14781:14787   */\n      dup3\n        /* \"#utility.yul\":14776:14779   */\n      dup3\n        /* \"#utility.yul\":14769:14788   */\n      mstore\n        /* \"#utility.yul\":14821:14825   */\n      0x20\n        /* \"#utility.yul\":14816:14819   */\n      dup3\n        /* \"#utility.yul\":14812:14826   */\n      add\n        /* \"#utility.yul\":14797:14826   */\n      swap1\n      pop\n        /* \"#utility.yul\":14649:14832   */\n      swap3\n      swap2\n      pop\n      pop\n      jump\t// out\n        /* \"#utility.yul\":14838:14993   */\n    tag_269:\n        /* \"#utility.yul\":14901:14905   */\n      0x00\n        /* \"#utility.yul\":14924:14927   */\n      dup2\n        /* \"#utility.yul\":14916:14927   */\n      swap1\n      pop\n        /* \"#utility.yul\":14947:14950   */\n      dup2\n        /* \"#utility.yul\":14944:14945   */\n      0x00\n        /* \"#utility.yul\":14937:14951   */\n      mstore\n        /* \"#utility.yul\":14981:14985   */\n      0x20\n        /* \"#utility.yul\":14978:14979   */\n      0x00\n        /* \"#utility.yul\":14968:14986   */\n      keccak256\n        /* \"#utility.yul\":14960:14986   */\n      swap1\n      pop\n        /* \"#utility.yul\":14838:14993   */\n      swap2\n      swap1\n      pop\n      jump\t// out\n        /* \"#utility.yul\":14999:15104   */\n    tag_270:\n        /* \"#utility.yul\":15074:15097   */\n      tag_475\n        /* \"#utility.yul\":15091:15096   */\n      dup2\n        /* \"#utility.yul\":15074:15097   */\n      tag_238\n      jump\t// in\n    tag_475:\n        /* \"#utility.yul\":15069:15072   */\n      dup3\n        /* \"#utility.yul\":15062:15098   */\n      mstore\n        /* \"#utility.yul\":14999:15104   */\n      pop\n      pop\n      jump\t// out\n        /* \"#utility.yul\":15110:15212   */\n    tag_271:\n        /* \"#utility.yul\":15152:15160   */\n      0x00\n        /* \"#utility.yul\":15199:15204   */\n      dup2\n        /* \"#utility.yul\":15196:15197   */\n      0x00\n        /* \"#utility.yul\":15192:15205   */\n      shr\n        /* \"#utility.yul\":15171:15205   */\n      swap1\n      pop\n        /* \"#utility.yul\":15110:15212   */\n      swap2\n      swap1\n      pop\n      jump\t// out\n        /* \"#utility.yul\":15218:15324   */\n    tag_272:\n        /* \"#utility.yul\":15267:15274   */\n      0x00\n        /* \"#utility.yul\":15307:15317   */\n      0xffffffff\n        /* \"#utility.yul\":15300:15305   */\n      dup3\n        /* \"#utility.yul\":15296:15318   */\n      and\n        /* \"#utility.yul\":15285:15318   */\n      swap1\n      pop\n        /* \"#utility.yul\":15218:15324   */\n      swap2\n      swap1\n      pop\n      jump\t// out\n        /* \"#utility.yul\":15330:15494   */\n    tag_273:\n        /* \"#utility.yul\":15398:15403   */\n      0x00\n        /* \"#utility.yul\":15423:15488   */\n      tag_479\n        /* \"#utility.yul\":15453:15487   */\n      tag_480\n        /* \"#utility.yul\":15476:15486   */\n      dup4\n        /* \"#utility.yul\":15453:15487   */\n      tag_271\n      jump\t// in\n    tag_480:\n        /* \"#utility.yul\":15423:15488   */\n      tag_272\n      jump\t// in\n    tag_479:\n        /* \"#utility.yul\":15414:15488   */\n      swap1\n      pop\n        /* \"#utility.yul\":15330:15494   */\n      swap2\n      swap1\n      pop\n      jump\t// out\n        /* \"#utility.yul\":15500:15604   */\n    tag_274:\n        /* \"#utility.yul\":15543:15551   */\n      0x00\n        /* \"#utility.yul\":15591:15596   */\n      dup2\n        /* \"#utility.yul\":15587:15589   */\n      0x20\n        /* \"#utility.yul\":15583:15597   */\n      shr\n        /* \"#utility.yul\":15562:15597   */\n      swap1\n      pop\n        /* \"#utility.yul\":15500:15604   */\n      swap2\n      swap1\n      pop\n      jump\t// out\n        /* \"#utility.yul\":15610:15775   */\n    tag_275:\n        /* \"#utility.yul\":15678:15683   */\n      0x00\n        /* \"#utility.yul\":15703:15769   */\n      tag_483\n        /* \"#utility.yul\":15733:15768   */\n      tag_484\n        /* \"#utility.yul\":15757:15767   */\n      dup4\n        /* \"#utility.yul\":15733:15768   */\n      tag_274\n      jump\t// in\n    tag_484:\n        /* \"#utility.yul\":15703:15769   */\n      tag_272\n      jump\t// in\n    tag_483:\n        /* \"#utility.yul\":15694:15769   */\n      swap1\n      pop\n        /* \"#utility.yul\":15610:15775   */\n      swap2\n      swap1\n      pop\n      jump\t// out\n        /* \"#utility.yul\":15781:15885   */\n    tag_276:\n        /* \"#utility.yul\":15824:15832   */\n      0x00\n        /* \"#utility.yul\":15872:15877   */\n      dup2\n        /* \"#utility.yul\":15868:15870   */\n      0x40\n        /* \"#utility.yul\":15864:15878   */\n      shr\n        /* \"#utility.yul\":15843:15878   */\n      swap1\n      pop\n        /* \"#utility.yul\":15781:15885   */\n      swap2\n      swap1\n      pop\n      jump\t// out\n        /* \"#utility.yul\":15891:16056   */\n    tag_277:\n        /* \"#utility.yul\":15959:15964   */\n      0x00\n        /* \"#utility.yul\":15984:16050   */\n      tag_487\n        /* \"#utility.yul\":16014:16049   */\n      tag_488\n        /* \"#utility.yul\":16038:16048   */\n      dup4\n        /* \"#utility.yul\":16014:16049   */\n      tag_276\n      jump\t// in\n    tag_488:\n        /* \"#utility.yul\":15984:16050   */\n      tag_272\n      jump\t// in\n    tag_487:\n        /* \"#utility.yul\":15975:16050   */\n      swap1\n      pop\n        /* \"#utility.yul\":15891:16056   */\n      swap2\n      swap1\n      pop\n      jump\t// out\n        /* \"#utility.yul\":16062:16166   */\n    tag_278:\n        /* \"#utility.yul\":16105:16113   */\n      0x00\n        /* \"#utility.yul\":16153:16158   */\n      dup2\n        /* \"#utility.yul\":16149:16151   */\n      0x60\n        /* \"#utility.yul\":16145:16159   */\n      shr\n        /* \"#utility.yul\":16124:16159   */\n      swap1\n      pop\n        /* \"#utility.yul\":16062:16166   */\n      swap2\n      swap1\n      pop\n      jump\t// out\n        /* \"#utility.yul\":16172:16338   */\n    tag_279:\n        /* \"#utility.yul\":16241:16246   */\n      0x00\n        /* \"#utility.yul\":16266:16332   */\n      tag_491\n        /* \"#utility.yul\":16296:16331   */\n      tag_492\n        /* \"#utility.yul\":16320:16330   */\n      dup4\n        /* \"#utility.yul\":16296:16331   */\n      tag_278\n      jump\t// in\n    tag_492:\n        /* \"#utility.yul\":16266:16332   */\n      tag_272\n      jump\t// in\n    tag_491:\n        /* \"#utility.yul\":16257:16332   */\n      swap1\n      pop\n        /* \"#utility.yul\":16172:16338   */\n      swap2\n      swap1\n      pop\n      jump\t// out\n        /* \"#utility.yul\":16344:16450   */\n    tag_280:\n        /* \"#utility.yul\":16388:16396   */\n      0x00\n        /* \"#utility.yul\":16437:16442   */\n      dup2\n        /* \"#utility.yul\":16432:16435   */\n      0x80\n        /* \"#utility.yul\":16428:16443   */\n      shr\n        /* \"#utility.yul\":16407:16443   */\n      swap1\n      pop\n        /* \"#utility.yul\":16344:16450   */\n      swap2\n      swap1\n      pop\n      jump\t// out\n        /* \"#utility.yul\":16456:16623   */\n    tag_281:\n        /* \"#utility.yul\":16525:16530   */\n      0x00\n        /* \"#utility.yul\":16550:16617   */\n      tag_495\n        /* \"#utility.yul\":16580:16616   */\n      tag_496\n        /* \"#utility.yul\":16605:16615   */\n      dup4\n        /* \"#utility.yul\":16580:16616   */\n      tag_280\n      jump\t// in\n    tag_496:\n        /* \"#utility.yul\":16550:16617   */\n      tag_272\n      jump\t// in\n    tag_495:\n        /* \"#utility.yul\":16541:16617   */\n      swap1\n      pop\n        /* \"#utility.yul\":16456:16623   */\n      swap2\n      swap1\n      pop\n      jump\t// out\n        /* \"#utility.yul\":16629:16735   */\n    tag_282:\n        /* \"#utility.yul\":16673:16681   */\n      0x00\n        /* \"#utility.yul\":16722:16727   */\n      dup2\n        /* \"#utility.yul\":16717:16720   */\n      0xa0\n        /* \"#utility.yul\":16713:16728   */\n      shr\n        /* \"#utility.yul\":16692:16728   */\n      swap1\n      pop\n        /* \"#utility.yul\":16629:16735   */\n      swap2\n      swap1\n      pop\n      jump\t// out\n        /* \"#utility.yul\":16741:16908   */\n    tag_283:\n        /* \"#utility.yul\":16810:16815   */\n      0x00\n        /* \"#utility.yul\":16835:16902   */\n      tag_499\n        /* \"#utility.yul\":16865:16901   */\n      tag_500\n        /* \"#utility.yul\":16890:16900   */\n      dup4\n        /* \"#utility.yul\":16865:16901   */\n      tag_282\n      jump\t// in\n    tag_500:\n        /* \"#utility.yul\":16835:16902   */\n      tag_272\n      jump\t// in\n    tag_499:\n        /* \"#utility.yul\":16826:16902   */\n      swap1\n      pop\n        /* \"#utility.yul\":16741:16908   */\n      swap2\n      swap1\n      pop\n      jump\t// out\n        /* \"#utility.yul\":16914:17020   */\n    tag_284:\n        /* \"#utility.yul\":16958:16966   */\n      0x00\n        /* \"#utility.yul\":17007:17012   */\n      dup2\n        /* \"#utility.yul\":17002:17005   */\n      0xc0\n        /* \"#utility.yul\":16998:17013   */\n      shr\n        /* \"#utility.yul\":16977:17013   */\n      swap1\n      pop\n        /* \"#utility.yul\":16914:17020   */\n      swap2\n      swap1\n      pop\n      jump\t// out\n        /* \"#utility.yul\":17026:17193   */\n    tag_285:\n        /* \"#utility.yul\":17095:17100   */\n      0x00\n        /* \"#utility.yul\":17120:17187   */\n      tag_503\n        /* \"#utility.yul\":17150:17186   */\n      tag_504\n        /* \"#utility.yul\":17175:17185   */\n      dup4\n        /* \"#utility.yul\":17150:17186   */\n      tag_284\n      jump\t// in\n    tag_504:\n        /* \"#utility.yul\":17120:17187   */\n      tag_272\n      jump\t// in\n    tag_503:\n        /* \"#utility.yul\":17111:17187   */\n      swap1\n      pop\n        /* \"#utility.yul\":17026:17193   */\n      swap2\n      swap1\n      pop\n      jump\t// out\n        /* \"#utility.yul\":17199:17305   */\n    tag_286:\n        /* \"#utility.yul\":17243:17251   */\n      0x00\n        /* \"#utility.yul\":17292:17297   */\n      dup2\n        /* \"#utility.yul\":17287:17290   */\n      0xe0\n        /* \"#utility.yul\":17283:17298   */\n      shr\n        /* \"#utility.yul\":17262:17298   */\n      swap1\n      pop\n        /* \"#utility.yul\":17199:17305   */\n      swap2\n      swap1\n      pop\n      jump\t// out\n        /* \"#utility.yul\":17311:17478   */\n    tag_287:\n        /* \"#utility.yul\":17380:17385   */\n      0x00\n        /* \"#utility.yul\":17405:17472   */\n      tag_507\n        /* \"#utility.yul\":17435:17471   */\n      tag_508\n        /* \"#utility.yul\":17460:17470   */\n      dup4\n        /* \"#utility.yul\":17435:17471   */\n      tag_286\n      jump\t// in\n    tag_508:\n        /* \"#utility.yul\":17405:17472   */\n      tag_272\n      jump\t// in\n    tag_507:\n        /* \"#utility.yul\":17396:17472   */\n      swap1\n      pop\n        /* \"#utility.yul\":17311:17478   */\n      swap2\n      swap1\n      pop\n      jump\t// out\n        /* \"#utility.yul\":17512:21537   */\n    tag_288:\n        /* \"#utility.yul\":17626:17629   */\n      0x00\n        /* \"#utility.yul\":17655:17705   */\n      tag_510\n        /* \"#utility.yul\":17699:17704   */\n      dup3\n        /* \"#utility.yul\":17655:17705   */\n      tag_267\n      jump\t// in\n    tag_510:\n        /* \"#utility.yul\":17721:17806   */\n      tag_511\n        /* \"#utility.yul\":17799:17805   */\n      dup2\n        /* \"#utility.yul\":17794:17797   */\n      dup6\n        /* \"#utility.yul\":17721:17806   */\n      tag_268\n      jump\t// in\n    tag_511:\n        /* \"#utility.yul\":17714:17806   */\n      swap4\n      pop\n        /* \"#utility.yul\":17834:17837   */\n      dup4\n        /* \"#utility.yul\":17860:17912   */\n      tag_512\n        /* \"#utility.yul\":17906:17911   */\n      dup5\n        /* \"#utility.yul\":17860:17912   */\n      tag_269\n      jump\t// in\n    tag_512:\n        /* \"#utility.yul\":17940:17941   */\n      0x00\n        /* \"#utility.yul\":17953:17954   */\n      0x01\n        /* \"#utility.yul\":17950:19386   */\n      iszero\n      tag_513\n      jumpi\n        /* \"#utility.yul\":18017:19376   */\n    tag_514:\n        /* \"#utility.yul\":18057:18063   */\n      dup4\n        /* \"#utility.yul\":18052:18053   */\n      0x01\n        /* \"#utility.yul\":18049:18050   */\n      0x08\n        /* \"#utility.yul\":18045:18054   */\n      sub\n        /* \"#utility.yul\":18032:18043   */\n      dup3\n        /* \"#utility.yul\":18028:18055   */\n      add\n        /* \"#utility.yul\":18025:18064   */\n      lt\n        /* \"#utility.yul\":18017:19376   */\n      iszero\n      tag_516\n      jumpi\n        /* \"#utility.yul\":18164:18170   */\n      dup2\n        /* \"#utility.yul\":18158:18171   */\n      sload\n        /* \"#utility.yul\":18189:18276   */\n      tag_517\n        /* \"#utility.yul\":18272:18275   */\n      dup9\n        /* \"#utility.yul\":18221:18270   */\n      tag_518\n        /* \"#utility.yul\":18265:18269   */\n      dup4\n        /* \"#utility.yul\":18221:18270   */\n      tag_273\n      jump\t// in\n    tag_518:\n        /* \"#utility.yul\":18189:18276   */\n      tag_270\n      jump\t// in\n    tag_517:\n        /* \"#utility.yul\":18309:18313   */\n      0x20\n        /* \"#utility.yul\":18304:18307   */\n      dup9\n        /* \"#utility.yul\":18300:18314   */\n      add\n        /* \"#utility.yul\":18293:18314   */\n      swap8\n      pop\n        /* \"#utility.yul\":18332:18419   */\n      tag_519\n        /* \"#utility.yul\":18415:18418   */\n      dup9\n        /* \"#utility.yul\":18364:18413   */\n      tag_520\n        /* \"#utility.yul\":18408:18412   */\n      dup4\n        /* \"#utility.yul\":18364:18413   */\n      tag_275\n      jump\t// in\n    tag_520:\n        /* \"#utility.yul\":18332:18419   */\n      tag_270\n      jump\t// in\n    tag_519:\n        /* \"#utility.yul\":18452:18456   */\n      0x20\n        /* \"#utility.yul\":18447:18450   */\n      dup9\n        /* \"#utility.yul\":18443:18457   */\n      add\n        /* \"#utility.yul\":18436:18457   */\n      swap8\n      pop\n        /* \"#utility.yul\":18475:18562   */\n      tag_521\n        /* \"#utility.yul\":18558:18561   */\n      dup9\n        /* \"#utility.yul\":18507:18556   */\n      tag_522\n        /* \"#utility.yul\":18551:18555   */\n      dup4\n        /* \"#utility.yul\":18507:18556   */\n      tag_277\n      jump\t// in\n    tag_522:\n        /* \"#utility.yul\":18475:18562   */\n      tag_270\n      jump\t// in\n    tag_521:\n        /* \"#utility.yul\":18595:18599   */\n      0x20\n        /* \"#utility.yul\":18590:18593   */\n      dup9\n        /* \"#utility.yul\":18586:18600   */\n      add\n        /* \"#utility.yul\":18579:18600   */\n      swap8\n      pop\n        /* \"#utility.yul\":18618:18706   */\n      tag_523\n        /* \"#utility.yul\":18702:18705   */\n      dup9\n        /* \"#utility.yul\":18650:18700   */\n      tag_524\n        /* \"#utility.yul\":18695:18699   */\n      dup4\n        /* \"#utility.yul\":18650:18700   */\n      tag_279\n      jump\t// in\n    tag_524:\n        /* \"#utility.yul\":18618:18706   */\n      tag_270\n      jump\t// in\n    tag_523:\n        /* \"#utility.yul\":18739:18743   */\n      0x20\n        /* \"#utility.yul\":18734:18737   */\n      dup9\n        /* \"#utility.yul\":18730:18744   */\n      add\n        /* \"#utility.yul\":18723:18744   */\n      swap8\n      pop\n        /* \"#utility.yul\":18762:18850   */\n      tag_525\n        /* \"#utility.yul\":18846:18849   */\n      dup9\n        /* \"#utility.yul\":18794:18844   */\n      tag_526\n        /* \"#utility.yul\":18839:18843   */\n      dup4\n        /* \"#utility.yul\":18794:18844   */\n      tag_281\n      jump\t// in\n    tag_526:\n        /* \"#utility.yul\":18762:18850   */\n      tag_270\n      jump\t// in\n    tag_525:\n        /* \"#utility.yul\":18883:18887   */\n      0x20\n        /* \"#utility.yul\":18878:18881   */\n      dup9\n        /* \"#utility.yul\":18874:18888   */\n      add\n        /* \"#utility.yul\":18867:18888   */\n      swap8\n      pop\n        /* \"#utility.yul\":18906:18994   */\n      tag_527\n        /* \"#utility.yul\":18990:18993   */\n      dup9\n        /* \"#utility.yul\":18938:18988   */\n      tag_528\n        /* \"#utility.yul\":18983:18987   */\n      dup4\n        /* \"#utility.yul\":18938:18988   */\n      tag_283\n      jump\t// in\n    tag_528:\n        /* \"#utility.yul\":18906:18994   */\n      tag_270\n      jump\t// in\n    tag_527:\n        /* \"#utility.yul\":19027:19031   */\n      0x20\n        /* \"#utility.yul\":19022:19025   */\n      dup9\n        /* \"#utility.yul\":19018:19032   */\n      add\n        /* \"#utility.yul\":19011:19032   */\n      swap8\n      pop\n        /* \"#utility.yul\":19050:19138   */\n      tag_529\n        /* \"#utility.yul\":19134:19137   */\n      dup9\n        /* \"#utility.yul\":19082:19132   */\n      tag_530\n        /* \"#utility.yul\":19127:19131   */\n      dup4\n        /* \"#utility.yul\":19082:19132   */\n      tag_285\n      jump\t// in\n    tag_530:\n        /* \"#utility.yul\":19050:19138   */\n      tag_270\n      jump\t// in\n    tag_529:\n        /* \"#utility.yul\":19171:19175   */\n      0x20\n        /* \"#utility.yul\":19166:19169   */\n      dup9\n        /* \"#utility.yul\":19162:19176   */\n      add\n        /* \"#utility.yul\":19155:19176   */\n      swap8\n      pop\n        /* \"#utility.yul\":19194:19282   */\n      tag_531\n        /* \"#utility.yul\":19278:19281   */\n      dup9\n        /* \"#utility.yul\":19226:19276   */\n      tag_532\n        /* \"#utility.yul\":19271:19275   */\n      dup4\n        /* \"#utility.yul\":19226:19276   */\n      tag_287\n      jump\t// in\n    tag_532:\n        /* \"#utility.yul\":19194:19282   */\n      tag_270\n      jump\t// in\n    tag_531:\n        /* \"#utility.yul\":19315:19319   */\n      0x20\n        /* \"#utility.yul\":19310:19313   */\n      dup9\n        /* \"#utility.yul\":19306:19320   */\n      add\n        /* \"#utility.yul\":19299:19320   */\n      swap8\n      pop\n        /* \"#utility.yul\":19360:19361   */\n      0x01\n        /* \"#utility.yul\":19352:19358   */\n      dup4\n        /* \"#utility.yul\":19348:19362   */\n      add\n        /* \"#utility.yul\":19338:19362   */\n      swap3\n      pop\n        /* \"#utility.yul\":18128:19376   */\n      pop\n        /* \"#utility.yul\":18111:18112   */\n      0x08\n        /* \"#utility.yul\":18098:18109   */\n      dup2\n        /* \"#utility.yul\":18094:18113   */\n      add\n        /* \"#utility.yul\":18079:18113   */\n      swap1\n      pop\n        /* \"#utility.yul\":18017:19376   */\n      jump(tag_514)\n    tag_516:\n        /* \"#utility.yul\":17950:19386   */\n    tag_513:\n        /* \"#utility.yul\":19463:19464   */\n      0x01\n        /* \"#utility.yul\":19460:21512   */\n      iszero\n      tag_533\n      jumpi\n        /* \"#utility.yul\":19497:19503   */\n      dup2\n        /* \"#utility.yul\":19491:19504   */\n      sload\n        /* \"#utility.yul\":19537:19543   */\n      dup5\n        /* \"#utility.yul\":19524:19535   */\n      dup3\n        /* \"#utility.yul\":19521:19544   */\n      lt\n        /* \"#utility.yul\":19518:19753   */\n      iszero\n      tag_534\n      jumpi\n        /* \"#utility.yul\":19563:19650   */\n      tag_535\n        /* \"#utility.yul\":19646:19649   */\n      dup9\n        /* \"#utility.yul\":19595:19644   */\n      tag_536\n        /* \"#utility.yul\":19639:19643   */\n      dup4\n        /* \"#utility.yul\":19595:19644   */\n      tag_273\n      jump\t// in\n    tag_536:\n        /* \"#utility.yul\":19563:19650   */\n      tag_270\n      jump\t// in\n    tag_535:\n        /* \"#utility.yul\":19683:19687   */\n      0x20\n        /* \"#utility.yul\":19678:19681   */\n      dup9\n        /* \"#utility.yul\":19674:19688   */\n      add\n        /* \"#utility.yul\":19667:19688   */\n      swap8\n      pop\n        /* \"#utility.yul\":19737:19738   */\n      0x01\n        /* \"#utility.yul\":19724:19735   */\n      dup3\n        /* \"#utility.yul\":19720:19739   */\n      add\n        /* \"#utility.yul\":19705:19739   */\n      swap2\n      pop\n        /* \"#utility.yul\":19518:19753   */\n    tag_534:\n        /* \"#utility.yul\":19786:19792   */\n      dup5\n        /* \"#utility.yul\":19773:19784   */\n      dup3\n        /* \"#utility.yul\":19770:19793   */\n      lt\n        /* \"#utility.yul\":19767:20002   */\n      iszero\n      tag_537\n      jumpi\n        /* \"#utility.yul\":19812:19899   */\n      tag_538\n        /* \"#utility.yul\":19895:19898   */\n      dup9\n        /* \"#utility.yul\":19844:19893   */\n      tag_539\n        /* \"#utility.yul\":19888:19892   */\n      dup4\n        /* \"#utility.yul\":19844:19893   */\n      tag_275\n      jump\t// in\n    tag_539:\n        /* \"#utility.yul\":19812:19899   */\n      tag_270\n      jump\t// in\n    tag_538:\n        /* \"#utility.yul\":19932:19936   */\n      0x20\n        /* \"#utility.yul\":19927:19930   */\n      dup9\n        /* \"#utility.yul\":19923:19937   */\n      add\n        /* \"#utility.yul\":19916:19937   */\n      swap8\n      pop\n        /* \"#utility.yul\":19986:19987   */\n      0x01\n        /* \"#utility.yul\":19973:19984   */\n      dup3\n        /* \"#utility.yul\":19969:19988   */\n      add\n        /* \"#utility.yul\":19954:19988   */\n      swap2\n      pop\n        /* \"#utility.yul\":19767:20002   */\n    tag_537:\n        /* \"#utility.yul\":20035:20041   */\n      dup5\n        /* \"#utility.yul\":20022:20033   */\n      dup3\n        /* \"#utility.yul\":20019:20042   */\n      lt\n        /* \"#utility.yul\":20016:20251   */\n      iszero\n      tag_540\n      jumpi\n        /* \"#utility.yul\":20061:20148   */\n      tag_541\n        /* \"#utility.yul\":20144:20147   */\n      dup9\n        /* \"#utility.yul\":20093:20142   */\n      tag_542\n        /* \"#utility.yul\":20137:20141   */\n      dup4\n        /* \"#utility.yul\":20093:20142   */\n      tag_277\n      jump\t// in\n    tag_542:\n        /* \"#utility.yul\":20061:20148   */\n      tag_270\n      jump\t// in\n    tag_541:\n        /* \"#utility.yul\":20181:20185   */\n      0x20\n        /* \"#utility.yul\":20176:20179   */\n      dup9\n        /* \"#utility.yul\":20172:20186   */\n      add\n        /* \"#utility.yul\":20165:20186   */\n      swap8\n      pop\n        /* \"#utility.yul\":20235:20236   */\n      0x01\n        /* \"#utility.yul\":20222:20233   */\n      dup3\n        /* \"#utility.yul\":20218:20237   */\n      add\n        /* \"#utility.yul\":20203:20237   */\n      swap2\n      pop\n        /* \"#utility.yul\":20016:20251   */\n    tag_540:\n        /* \"#utility.yul\":20284:20290   */\n      dup5\n        /* \"#utility.yul\":20271:20282   */\n      dup3\n        /* \"#utility.yul\":20268:20291   */\n      lt\n        /* \"#utility.yul\":20265:20501   */\n      iszero\n      tag_543\n      jumpi\n        /* \"#utility.yul\":20310:20398   */\n      tag_544\n        /* \"#utility.yul\":20394:20397   */\n      dup9\n        /* \"#utility.yul\":20342:20392   */\n      tag_545\n        /* \"#utility.yul\":20387:20391   */\n      dup4\n        /* \"#utility.yul\":20342:20392   */\n      tag_279\n      jump\t// in\n    tag_545:\n        /* \"#utility.yul\":20310:20398   */\n      tag_270\n      jump\t// in\n    tag_544:\n        /* \"#utility.yul\":20431:20435   */\n      0x20\n        /* \"#utility.yul\":20426:20429   */\n      dup9\n        /* \"#utility.yul\":20422:20436   */\n      add\n        /* \"#utility.yul\":20415:20436   */\n      swap8\n      pop\n        /* \"#utility.yul\":20485:20486   */\n      0x01\n        /* \"#utility.yul\":20472:20483   */\n      dup3\n        /* \"#utility.yul\":20468:20487   */\n      add\n        /* \"#utility.yul\":20453:20487   */\n      swap2\n      pop\n        /* \"#utility.yul\":20265:20501   */\n    tag_543:\n        /* \"#utility.yul\":20534:20540   */\n      dup5\n        /* \"#utility.yul\":20521:20532   */\n      dup3\n        /* \"#utility.yul\":20518:20541   */\n      lt\n        /* \"#utility.yul\":20515:20751   */\n      iszero\n      tag_546\n      jumpi\n        /* \"#utility.yul\":20560:20648   */\n      tag_547\n        /* \"#utility.yul\":20644:20647   */\n      dup9\n        /* \"#utility.yul\":20592:20642   */\n      tag_548\n        /* \"#utility.yul\":20637:20641   */\n      dup4\n        /* \"#utility.yul\":20592:20642   */\n      tag_281\n      jump\t// in\n    tag_548:\n        /* \"#utility.yul\":20560:20648   */\n      tag_270\n      jump\t// in\n    tag_547:\n        /* \"#utility.yul\":20681:20685   */\n      0x20\n        /* \"#utility.yul\":20676:20679   */\n      dup9\n        /* \"#utility.yul\":20672:20686   */\n      add\n        /* \"#utility.yul\":20665:20686   */\n      swap8\n      pop\n        /* \"#utility.yul\":20735:20736   */\n      0x01\n        /* \"#utility.yul\":20722:20733   */\n      dup3\n        /* \"#utility.yul\":20718:20737   */\n      add\n        /* \"#utility.yul\":20703:20737   */\n      swap2\n      pop\n        /* \"#utility.yul\":20515:20751   */\n    tag_546:\n        /* \"#utility.yul\":20784:20790   */\n      dup5\n        /* \"#utility.yul\":20771:20782   */\n      dup3\n        /* \"#utility.yul\":20768:20791   */\n      lt\n        /* \"#utility.yul\":20765:21001   */\n      iszero\n      tag_549\n      jumpi\n        /* \"#utility.yul\":20810:20898   */\n      tag_550\n        /* \"#utility.yul\":20894:20897   */\n      dup9\n        /* \"#utility.yul\":20842:20892   */\n      tag_551\n        /* \"#utility.yul\":20887:20891   */\n      dup4\n        /* \"#utility.yul\":20842:20892   */\n      tag_283\n      jump\t// in\n    tag_551:\n        /* \"#utility.yul\":20810:20898   */\n      tag_270\n      jump\t// in\n    tag_550:\n        /* \"#utility.yul\":20931:20935   */\n      0x20\n        /* \"#utility.yul\":20926:20929   */\n      dup9\n        /* \"#utility.yul\":20922:20936   */\n      add\n        /* \"#utility.yul\":20915:20936   */\n      swap8\n      pop\n        /* \"#utility.yul\":20985:20986   */\n      0x01\n        /* \"#utility.yul\":20972:20983   */\n      dup3\n        /* \"#utility.yul\":20968:20987   */\n      add\n        /* \"#utility.yul\":20953:20987   */\n      swap2\n      pop\n        /* \"#utility.yul\":20765:21001   */\n    tag_549:\n        /* \"#utility.yul\":21034:21040   */\n      dup5\n        /* \"#utility.yul\":21021:21032   */\n      dup3\n        /* \"#utility.yul\":21018:21041   */\n      lt\n        /* \"#utility.yul\":21015:21251   */\n      iszero\n      tag_552\n      jumpi\n        /* \"#utility.yul\":21060:21148   */\n      tag_553\n        /* \"#utility.yul\":21144:21147   */\n      dup9\n        /* \"#utility.yul\":21092:21142   */\n      tag_554\n        /* \"#utility.yul\":21137:21141   */\n      dup4\n        /* \"#utility.yul\":21092:21142   */\n      tag_285\n      jump\t// in\n    tag_554:\n        /* \"#utility.yul\":21060:21148   */\n      tag_270\n      jump\t// in\n    tag_553:\n        /* \"#utility.yul\":21181:21185   */\n      0x20\n        /* \"#utility.yul\":21176:21179   */\n      dup9\n        /* \"#utility.yul\":21172:21186   */\n      add\n        /* \"#utility.yul\":21165:21186   */\n      swap8\n      pop\n        /* \"#utility.yul\":21235:21236   */\n      0x01\n        /* \"#utility.yul\":21222:21233   */\n      dup3\n        /* \"#utility.yul\":21218:21237   */\n      add\n        /* \"#utility.yul\":21203:21237   */\n      swap2\n      pop\n        /* \"#utility.yul\":21015:21251   */\n    tag_552:\n        /* \"#utility.yul\":21284:21290   */\n      dup5\n        /* \"#utility.yul\":21271:21282   */\n      dup3\n        /* \"#utility.yul\":21268:21291   */\n      lt\n        /* \"#utility.yul\":21265:21501   */\n      iszero\n      tag_555\n      jumpi\n        /* \"#utility.yul\":21310:21398   */\n      tag_556\n        /* \"#utility.yul\":21394:21397   */\n      dup9\n        /* \"#utility.yul\":21342:21392   */\n      tag_557\n        /* \"#utility.yul\":21387:21391   */\n      dup4\n        /* \"#utility.yul\":21342:21392   */\n      tag_287\n      jump\t// in\n    tag_557:\n        /* \"#utility.yul\":21310:21398   */\n      tag_270\n      jump\t// in\n    tag_556:\n        /* \"#utility.yul\":21431:21435   */\n      0x20\n        /* \"#utility.yul\":21426:21429   */\n      dup9\n        /* \"#utility.yul\":21422:21436   */\n      add\n        /* \"#utility.yul\":21415:21436   */\n      swap8\n      pop\n        /* \"#utility.yul\":21485:21486   */\n      0x01\n        /* \"#utility.yul\":21472:21483   */\n      dup3\n        /* \"#utility.yul\":21468:21487   */\n      add\n        /* \"#utility.yul\":21453:21487   */\n      swap2\n      pop\n        /* \"#utility.yul\":21265:21501   */\n    tag_555:\n        /* \"#utility.yul\":19465:21512   */\n      pop\n        /* \"#utility.yul\":19460:21512   */\n    tag_533:\n        /* \"#utility.yul\":21528:21531   */\n      dup7\n        /* \"#utility.yul\":21521:21531   */\n      swap5\n      pop\n        /* \"#utility.yul\":17631:21537   */\n      pop\n      pop\n      pop\n      pop\n        /* \"#utility.yul\":17512:21537   */\n      swap3\n      swap2\n      pop\n      pop\n      jump\t// out\n        /* \"#utility.yul\":21543:21656   */\n    tag_289:\n        /* \"#utility.yul\":21609:21615   */\n      0x00\n        /* \"#utility.yul\":21643:21648   */\n      dup2\n        /* \"#utility.yul\":21637:21649   */\n      mload\n        /* \"#utility.yul\":21627:21649   */\n      swap1\n      pop\n        /* \"#utility.yul\":21543:21656   */\n      swap2\n      swap1\n      pop\n      jump\t// out\n        /* \"#utility.yul\":21662:21793   */\n    tag_290:\n        /* \"#utility.yul\":21728:21732   */\n      0x00\n        /* \"#utility.yul\":21751:21754   */\n      dup2\n        /* \"#utility.yul\":21743:21754   */\n      swap1\n      pop\n        /* \"#utility.yul\":21781:21785   */\n      0x20\n        /* \"#utility.yul\":21776:21779   */\n      dup3\n        /* \"#utility.yul\":21772:21786   */\n      add\n        /* \"#utility.yul\":21764:21786   */\n      swap1\n      pop\n        /* \"#utility.yul\":21662:21793   */\n      swap2\n      swap1\n      pop\n      jump\t// out\n        /* \"#utility.yul\":21799:21974   */\n    tag_291:\n        /* \"#utility.yul\":21866:21876   */\n      0x00\n        /* \"#utility.yul\":21887:21931   */\n      tag_561\n        /* \"#utility.yul\":21927:21930   */\n      dup4\n        /* \"#utility.yul\":21919:21925   */\n      dup4\n        /* \"#utility.yul\":21887:21931   */\n      tag_270\n      jump\t// in\n    tag_561:\n        /* \"#utility.yul\":21963:21967   */\n      0x20\n        /* \"#utility.yul\":21958:21961   */\n      dup4\n        /* \"#utility.yul\":21954:21968   */\n      add\n        /* \"#utility.yul\":21940:21968   */\n      swap1\n      pop\n        /* \"#utility.yul\":21799:21974   */\n      swap3\n      swap2\n      pop\n      pop\n      jump\t// out\n        /* \"#utility.yul\":21980:22092   */\n    tag_292:\n        /* \"#utility.yul\":22049:22053   */\n      0x00\n        /* \"#utility.yul\":22081:22085   */\n      0x20\n        /* \"#utility.yul\":22076:22079   */\n      dup3\n        /* \"#utility.yul\":22072:22086   */\n      add\n        /* \"#utility.yul\":22064:22086   */\n      swap1\n      pop\n        /* \"#utility.yul\":21980:22092   */\n      swap2\n      swap1\n      pop\n      jump\t// out\n        /* \"#utility.yul\":22126:22850   */\n    tag_293:\n        /* \"#utility.yul\":22243:22246   */\n      0x00\n        /* \"#utility.yul\":22272:22325   */\n      tag_564\n        /* \"#utility.yul\":22319:22324   */\n      dup3\n        /* \"#utility.yul\":22272:22325   */\n      tag_289\n      jump\t// in\n    tag_564:\n        /* \"#utility.yul\":22341:22426   */\n      tag_565\n        /* \"#utility.yul\":22419:22425   */\n      dup2\n        /* \"#utility.yul\":22414:22417   */\n      dup6\n        /* \"#utility.yul\":22341:22426   */\n      tag_268\n      jump\t// in\n    tag_565:\n        /* \"#utility.yul\":22334:22426   */\n      swap4\n      pop\n        /* \"#utility.yul\":22450:22505   */\n      tag_566\n        /* \"#utility.yul\":22499:22504   */\n      dup4\n        /* \"#utility.yul\":22450:22505   */\n      tag_290\n      jump\t// in\n    tag_566:\n        /* \"#utility.yul\":22528:22535   */\n      dup1\n        /* \"#utility.yul\":22559:22560   */\n      0x00\n        /* \"#utility.yul\":22544:22825   */\n    tag_567:\n        /* \"#utility.yul\":22569:22575   */\n      dup4\n        /* \"#utility.yul\":22566:22567   */\n      dup2\n        /* \"#utility.yul\":22563:22576   */\n      lt\n        /* \"#utility.yul\":22544:22825   */\n      iszero\n      tag_569\n      jumpi\n        /* \"#utility.yul\":22645:22651   */\n      dup2\n        /* \"#utility.yul\":22639:22652   */\n      mload\n        /* \"#utility.yul\":22672:22733   */\n      tag_570\n        /* \"#utility.yul\":22729:22732   */\n      dup9\n        /* \"#utility.yul\":22714:22727   */\n      dup3\n        /* \"#utility.yul\":22672:22733   */\n      tag_291\n      jump\t// in\n    tag_570:\n        /* \"#utility.yul\":22665:22733   */\n      swap8\n      pop\n        /* \"#utility.yul\":22756:22815   */\n      tag_571\n        /* \"#utility.yul\":22808:22814   */\n      dup4\n        /* \"#utility.yul\":22756:22815   */\n      tag_292\n      jump\t// in\n    tag_571:\n        /* \"#utility.yul\":22746:22815   */\n      swap3\n      pop\n        /* \"#utility.yul\":22604:22825   */\n      pop\n        /* \"#utility.yul\":22591:22592   */\n      0x01\n        /* \"#utility.yul\":22588:22589   */\n      dup2\n        /* \"#utility.yul\":22584:22593   */\n      add\n        /* \"#utility.yul\":22579:22593   */\n      swap1\n      pop\n        /* \"#utility.yul\":22544:22825   */\n      jump(tag_567)\n    tag_569:\n        /* \"#utility.yul\":22548:22562   */\n      pop\n        /* \"#utility.yul\":22841:22844   */\n      dup6\n        /* \"#utility.yul\":22834:22844   */\n      swap4\n      pop\n        /* \"#utility.yul\":22248:22850   */\n      pop\n      pop\n      pop\n        /* \"#utility.yul\":22126:22850   */\n      swap3\n      swap2\n      pop\n      pop\n      jump\t// out\n        /* \"#utility.yul\":22856:23586   */\n    tag_172:\n        /* \"#utility.yul\":23098:23102   */\n      0x00\n        /* \"#utility.yul\":23136:23138   */\n      0x60\n        /* \"#utility.yul\":23125:23134   */\n      dup3\n        /* \"#utility.yul\":23121:23139   */\n      add\n        /* \"#utility.yul\":23113:23139   */\n      swap1\n      pop\n        /* \"#utility.yul\":23149:23220   */\n      tag_573\n        /* \"#utility.yul\":23217:23218   */\n      0x00\n        /* \"#utility.yul\":23206:23215   */\n      dup4\n        /* \"#utility.yul\":23202:23219   */\n      add\n        /* \"#utility.yul\":23193:23199   */\n      dup7\n        /* \"#utility.yul\":23149:23220   */\n      tag_246\n      jump\t// in\n    tag_573:\n        /* \"#utility.yul\":23267:23276   */\n      dup2\n        /* \"#utility.yul\":23261:23265   */\n      dup2\n        /* \"#utility.yul\":23257:23277   */\n      sub\n        /* \"#utility.yul\":23252:23254   */\n      0x20\n        /* \"#utility.yul\":23241:23250   */\n      dup4\n        /* \"#utility.yul\":23237:23255   */\n      add\n        /* \"#utility.yul\":23230:23278   */\n      mstore\n        /* \"#utility.yul\":23295:23398   */\n      tag_574\n        /* \"#utility.yul\":23393:23397   */\n      dup2\n        /* \"#utility.yul\":23384:23390   */\n      dup6\n        /* \"#utility.yul\":23295:23398   */\n      tag_288\n      jump\t// in\n    tag_574:\n        /* \"#utility.yul\":23287:23398   */\n      swap1\n      pop\n        /* \"#utility.yul\":23445:23454   */\n      dup2\n        /* \"#utility.yul\":23439:23443   */\n      dup2\n        /* \"#utility.yul\":23435:23455   */\n      sub\n        /* \"#utility.yul\":23430:23432   */\n      0x40\n        /* \"#utility.yul\":23419:23428   */\n      dup4\n        /* \"#utility.yul\":23415:23433   */\n      add\n        /* \"#utility.yul\":23408:23456   */\n      mstore\n        /* \"#utility.yul\":23473:23579   */\n      tag_575\n        /* \"#utility.yul\":23574:23578   */\n      dup2\n        /* \"#utility.yul\":23565:23571   */\n      dup5\n        /* \"#utility.yul\":23473:23579   */\n      tag_293\n      jump\t// in\n    tag_575:\n        /* \"#utility.yul\":23465:23579   */\n      swap1\n      pop\n        /* \"#utility.yul\":22856:23586   */\n      swap5\n      swap4\n      pop\n      pop\n      pop\n      pop\n      jump\t// out\n        /* \"#utility.yul\":23592:23810   */\n    tag_177:\n        /* \"#utility.yul\":23683:23687   */\n      0x00\n        /* \"#utility.yul\":23721:23723   */\n      0x20\n        /* \"#utility.yul\":23710:23719   */\n      dup3\n        /* \"#utility.yul\":23706:23724   */\n      add\n        /* \"#utility.yul\":23698:23724   */\n      swap1\n      pop\n        /* \"#utility.yul\":23734:23803   */\n      tag_577\n        /* \"#utility.yul\":23800:23801   */\n      0x00\n        /* \"#utility.yul\":23789:23798   */\n      dup4\n        /* \"#utility.yul\":23785:23802   */\n      add\n        /* \"#utility.yul\":23776:23782   */\n      dup5\n        /* \"#utility.yul\":23734:23803   */\n      tag_266\n      jump\t// in\n    tag_577:\n        /* \"#utility.yul\":23592:23810   */\n      swap3\n      swap2\n      pop\n      pop\n      jump\t// out\n        /* \"#utility.yul\":23816:24148   */\n    tag_200:\n        /* \"#utility.yul\":23937:23941   */\n      0x00\n        /* \"#utility.yul\":23975:23977   */\n      0x40\n        /* \"#utility.yul\":23964:23973   */\n      dup3\n        /* \"#utility.yul\":23960:23978   */\n      add\n        /* \"#utility.yul\":23952:23978   */\n      swap1\n      pop\n        /* \"#utility.yul\":23988:24059   */\n      tag_579\n        /* \"#utility.yul\":24056:24057   */\n      0x00\n        /* \"#utility.yul\":24045:24054   */\n      dup4\n        /* \"#utility.yul\":24041:24058   */\n      add\n        /* \"#utility.yul\":24032:24038   */\n      dup6\n        /* \"#utility.yul\":23988:24059   */\n      tag_246\n      jump\t// in\n    tag_579:\n        /* \"#utility.yul\":24069:24141   */\n      tag_580\n        /* \"#utility.yul\":24137:24139   */\n      0x20\n        /* \"#utility.yul\":24126:24135   */\n      dup4\n        /* \"#utility.yul\":24122:24140   */\n      add\n        /* \"#utility.yul\":24113:24119   */\n      dup5\n        /* \"#utility.yul\":24069:24141   */\n      tag_242\n      jump\t// in\n    tag_580:\n        /* \"#utility.yul\":23816:24148   */\n      swap4\n      swap3\n      pop\n      pop\n      pop\n      jump\t// out\n\n    auxdata: 0xa264697066735822122077e6f729af2e119eec4977878d794b5f9420d53376d42cffb7acd64877d7774764736f6c63430008170033\n}\n",
				"bytecode": {
					"linkReferences": {},
					"object": "60806040523480156200001157600080fd5b50604051620025bf380380620025bf833981810160405281019062000037919062000278565b81600073ffffffffffffffffffffffffffffffffffffffff168173ffffffffffffffffffffffffffffffffffffffff1603620000ad5760006040517f1e4fbdf7000000000000000000000000000000000000000000000000000000008152600401620000a49190620002e5565b60405180910390fd5b620000be816200014a60201b60201c565b5082600360006101000a81548173ffffffffffffffffffffffffffffffffffffffff021916908373ffffffffffffffffffffffffffffffffffffffff16021790555080600460006101000a81548173ffffffffffffffffffffffffffffffffffffffff021916908373ffffffffffffffffffffffffffffffffffffffff16021790555050505062000302565b60008060009054906101000a900473ffffffffffffffffffffffffffffffffffffffff169050816000806101000a81548173ffffffffffffffffffffffffffffffffffffffff021916908373ffffffffffffffffffffffffffffffffffffffff1602179055508173ffffffffffffffffffffffffffffffffffffffff168173ffffffffffffffffffffffffffffffffffffffff167f8be0079c531659141344cd1fd0a4f28419497f9722a3daafe3b4186f6b6457e060405160405180910390a35050565b600080fd5b600073ffffffffffffffffffffffffffffffffffffffff82169050919050565b6000620002408262000213565b9050919050565b620002528162000233565b81146200025e57600080fd5b50565b600081519050620002728162000247565b92915050565b6000806000606084860312156200029457620002936200020e565b5b6000620002a48682870162000261565b9350506020620002b78682870162000261565b9250506040620002ca8682870162000261565b9150509250925092565b620002df8162000233565b82525050565b6000602082019050620002fc6000830184620002d4565b92915050565b6122ad80620003126000396000f3fe608060405234801561001057600080fd5b50600436106100a95760003560e01c8063715018a611610071578063715018a6146101405780638da5cb5b1461014a578063a541013614610168578063c107532914610184578063d72b9da2146101a0578063f2fde38b146101d0576100a9565b80631aa3a008146100ae5780633013ce29146100cc5780634718f6f9146100ea57806350431ce41461011a5780635179366514610124575b600080fd5b6100b66101ec565b6040516100c391906115d6565b60405180910390f35b6100d4610212565b6040516100e19190611612565b60405180910390f35b61010460048036038101906100ff9190611673565b610238565b60405161011191906116b9565b60405180910390f35b610122610256565b005b61013e60048036038101906101399190611712565b6102ae565b005b610148611070565b005b610152611084565b60405161015f9190611774565b60405180910390f35b610182600480360381019061017d9190611820565b6110ad565b005b61019e600480360381019061019991906118c7565b611148565b005b6101ba60048036038101906101b59190611907565b611293565b6040516101c791906116b9565b60405180910390f35b6101ea60048036038101906101e59190611907565b6112ab565b005b600460009054906101000a900473ffffffffffffffffffffffffffffffffffffffff1681565b600360009054906101000a900473ffffffffffffffffffffffffffffffffffffffff1681565b60026020528060005260406000206000915090508060000154905081565b61025e611331565b610266611084565b73ffffffffffffffffffffffffffffffffffffffff166108fc479081150290604051600060405180830381858888f193505050501580156102ab573d6000803e3d6000fd5b50565b6000600260008563ffffffff1663ffffffff168152602001908152602001600020600001549050600080339050600073ffffffffffffffffffffffffffffffffffffffff168473ffffffffffffffffffffffffffffffffffffffff160361031a57610317611084565b93505b60008563ffffffff160361035a576040517f2c5211c600000000000000000000000000000000000000000000000000000000815260040160405180910390fd5b828563ffffffff1661036c9190611963565b915081600360009054906101000a900473ffffffffffffffffffffffffffffffffffffffff1673ffffffffffffffffffffffffffffffffffffffff1663dd62ed3e83306040518363ffffffff1660e01b81526004016103cc9291906119a5565b602060405180830381865afa1580156103e9573d6000803e3d6000fd5b505050506040513d601f19601f8201168201806040525081019061040d91906119e3565b1015610445576040517f13be252b00000000000000000000000000000000000000000000000000000000815260040160405180910390fd5b81600360009054906101000a900473ffffffffffffffffffffffffffffffffffffffff1673ffffffffffffffffffffffffffffffffffffffff166370a08231836040518263ffffffff1660e01b81526004016104a19190611774565b602060405180830381865afa1580156104be573d6000803e3d6000fd5b505050506040513d601f19601f820116820180604052508101906104e291906119e3565b101561051a576040517ff4d678b800000000000000000000000000000000000000000000000000000000815260040160405180910390fd5b6000600260008863ffffffff1663ffffffff1681526020019081526020016000206002018054806020026020016040519081016040528092919081815260200182805480156105b457602002820191906000526020600020906000905b82829054906101000a900463ffffffff1663ffffffff16815260200190600401906020826003010492830192600103820291508084116105775790505b505050505090506000815167ffffffffffffffff8111156105d8576105d7611a10565b5b6040519080825280602002602001820160405280156106065781602001602082028036833780820191505090505b5090506000805b835181101561069e578884828151811061062a57610629611a3f565b5b602002602001015161063c9190611a6e565b83828151811061064f5761064e611a3f565b5b602002602001019063ffffffff16908163ffffffff168152505082818151811061067c5761067b611a3f565b5b60200260200101518261068f9190611aab565b9150808060010191505061060d565b50600360009054906101000a900473ffffffffffffffffffffffffffffffffffffffff1673ffffffffffffffffffffffffffffffffffffffff166323b872dd85600460009054906101000a900473ffffffffffffffffffffffffffffffffffffffff1673ffffffffffffffffffffffffffffffffffffffff1663e16c7d98600460009054906101000a900473ffffffffffffffffffffffffffffffffffffffff1673ffffffffffffffffffffffffffffffffffffffff16634e2164c96040518163ffffffff1660e01b8152600401602060405180830381865afa158015610789573d6000803e3d6000fd5b505050506040513d601f19601f820116820180604052508101906107ad9190611b19565b6040518263ffffffff1660e01b81526004016107c99190611b55565b602060405180830381865afa1580156107e6573d6000803e3d6000fd5b505050506040513d601f19601f8201168201806040525081019061080a9190611b85565b600a896108179190611be1565b6040518463ffffffff1660e01b815260040161083593929190611c12565b6020604051808303816000875af1158015610854573d6000803e3d6000fd5b505050506040513d601f19601f820116820180604052508101906108789190611c81565b50600460009054906101000a900473ffffffffffffffffffffffffffffffffffffffff1673ffffffffffffffffffffffffffffffffffffffff1663e16c7d98600460009054906101000a900473ffffffffffffffffffffffffffffffffffffffff1673ffffffffffffffffffffffffffffffffffffffff16634e2164c96040518163ffffffff1660e01b8152600401602060405180830381865afa158015610924573d6000803e3d6000fd5b505050506040513d601f19601f820116820180604052508101906109489190611b19565b6040518263ffffffff1660e01b81526004016109649190611b55565b602060405180830381865afa158015610981573d6000803e3d6000fd5b505050506040513d601f19601f820116820180604052508101906109a59190611b85565b73ffffffffffffffffffffffffffffffffffffffff16630efe6a8b85600a886109ce9190611be1565b846040518463ffffffff1660e01b81526004016109ed93929190611cdf565b600060405180830381600087803b158015610a0757600080fd5b505af1158015610a1b573d6000803e3d6000fd5b50505050600360009054906101000a900473ffffffffffffffffffffffffffffffffffffffff1673ffffffffffffffffffffffffffffffffffffffff166323b872dd85600460009054906101000a900473ffffffffffffffffffffffffffffffffffffffff1673ffffffffffffffffffffffffffffffffffffffff1663e16c7d98600460009054906101000a900473ffffffffffffffffffffffffffffffffffffffff1673ffffffffffffffffffffffffffffffffffffffff166343c5cd746040518163ffffffff1660e01b8152600401602060405180830381865afa158015610b09573d6000803e3d6000fd5b505050506040513d601f19601f82011682018060405250810190610b2d9190611b19565b6040518263ffffffff1660e01b8152600401610b499190611b55565b602060405180830381865afa158015610b66573d6000803e3d6000fd5b505050506040513d601f19601f82011682018060405250810190610b8a9190611b85565b600a60088a610b999190611963565b610ba39190611be1565b6040518463ffffffff1660e01b8152600401610bc193929190611c12565b6020604051808303816000875af1158015610be0573d6000803e3d6000fd5b505050506040513d601f19601f82011682018060405250810190610c049190611c81565b50600360009054906101000a900473ffffffffffffffffffffffffffffffffffffffff1673ffffffffffffffffffffffffffffffffffffffff166323b872dd8589600a89610c529190611be1565b6040518463ffffffff1660e01b8152600401610c7093929190611c12565b6020604051808303816000875af1158015610c8f573d6000803e3d6000fd5b505050506040513d601f19601f82011682018060405250810190610cb39190611c81565b50600460009054906101000a900473ffffffffffffffffffffffffffffffffffffffff1673ffffffffffffffffffffffffffffffffffffffff1663e16c7d98600460009054906101000a900473ffffffffffffffffffffffffffffffffffffffff1673ffffffffffffffffffffffffffffffffffffffff1663c63568c76040518163ffffffff1660e01b8152600401602060405180830381865afa158015610d5f573d6000803e3d6000fd5b505050506040513d601f19601f82011682018060405250810190610d839190611b19565b6040518263ffffffff1660e01b8152600401610d9f9190611b55565b602060405180830381865afa158015610dbc573d6000803e3d6000fd5b505050506040513d601f19601f82011682018060405250810190610de09190611b85565b73ffffffffffffffffffffffffffffffffffffffff16637ef58e918589600a89610e0a9190611be1565b856040518563ffffffff1660e01b8152600401610e2a9493929190611d25565b600060405180830381600087803b158015610e4457600080fd5b505af1158015610e58573d6000803e3d6000fd5b50505050600460009054906101000a900473ffffffffffffffffffffffffffffffffffffffff1673ffffffffffffffffffffffffffffffffffffffff1663e16c7d98600460009054906101000a900473ffffffffffffffffffffffffffffffffffffffff1673ffffffffffffffffffffffffffffffffffffffff1663619d36ef6040518163ffffffff1660e01b8152600401602060405180830381865afa158015610f07573d6000803e3d6000fd5b505050506040513d601f19601f82011682018060405250810190610f2b9190611b19565b6040518263ffffffff1660e01b8152600401610f479190611b55565b602060405180830381865afa158015610f64573d6000803e3d6000fd5b505050506040513d601f19601f82011682018060405250810190610f889190611b85565b73ffffffffffffffffffffffffffffffffffffffff16637c6ff2da85600260008d63ffffffff1663ffffffff168152602001908152602001600020600101856040518463ffffffff1660e01b8152600401610fe5939291906121ee565b600060405180830381600087803b158015610fff57600080fd5b505af1158015611013573d6000803e3d6000fd5b505050508373ffffffffffffffffffffffffffffffffffffffff167f7a204b221fca2a98f9de2405cc95185d3541e09e5b42c68677d0de26cfa8f40c8960405161105d9190612233565b60405180910390a2505050505050505050565b611078611331565b61108260006113b8565b565b60008060009054906101000a900473ffffffffffffffffffffffffffffffffffffffff16905090565b6110b5611331565b84600260008863ffffffff1663ffffffff168152602001908152602001600020600001819055508383600260008963ffffffff1663ffffffff168152602001908152602001600020600101919061110d929190611484565b508181600260008963ffffffff1663ffffffff168152602001908152602001600020600201919061113f929190611484565b50505050505050565b611150611331565b6000829050818173ffffffffffffffffffffffffffffffffffffffff166370a08231306040518263ffffffff1660e01b815260040161118f9190611774565b602060405180830381865afa1580156111ac573d6000803e3d6000fd5b505050506040513d601f19601f820116820180604052508101906111d091906119e3565b1015611208576040517ff4d678b800000000000000000000000000000000000000000000000000000000815260040160405180910390fd5b8073ffffffffffffffffffffffffffffffffffffffff1663a9059cbb61122c611084565b846040518363ffffffff1660e01b815260040161124a92919061224e565b6020604051808303816000875af1158015611269573d6000803e3d6000fd5b505050506040513d601f19601f8201168201806040525081019061128d9190611c81565b50505050565b60016020528060005260406000206000915090505481565b6112b3611331565b600073ffffffffffffffffffffffffffffffffffffffff168173ffffffffffffffffffffffffffffffffffffffff16036113255760006040517f1e4fbdf700000000000000000000000000000000000000000000000000000000815260040161131c9190611774565b60405180910390fd5b61132e816113b8565b50565b61133961147c565b73ffffffffffffffffffffffffffffffffffffffff16611357611084565b73ffffffffffffffffffffffffffffffffffffffff16146113b65761137a61147c565b6040517f118cdaa70000000000000000000000000000000000000000000000000000000081526004016113ad9190611774565b60405180910390fd5b565b60008060009054906101000a900473ffffffffffffffffffffffffffffffffffffffff169050816000806101000a81548173ffffffffffffffffffffffffffffffffffffffff021916908373ffffffffffffffffffffffffffffffffffffffff1602179055508173ffffffffffffffffffffffffffffffffffffffff168173ffffffffffffffffffffffffffffffffffffffff167f8be0079c531659141344cd1fd0a4f28419497f9722a3daafe3b4186f6b6457e060405160405180910390a35050565b600033905090565b828054828255906000526020600020906007016008900481019282156115295791602002820160005b838211156114f757833563ffffffff1683826101000a81548163ffffffff021916908363ffffffff16021790555092602001926004016020816003010492830192600103026114ad565b80156115275782816101000a81549063ffffffff02191690556004016020816003010492830192600103026114f7565b505b509050611536919061153a565b5090565b5b8082111561155357600081600090555060010161153b565b5090565b600073ffffffffffffffffffffffffffffffffffffffff82169050919050565b6000819050919050565b600061159c61159761159284611557565b611577565b611557565b9050919050565b60006115ae82611581565b9050919050565b60006115c0826115a3565b9050919050565b6115d0816115b5565b82525050565b60006020820190506115eb60008301846115c7565b92915050565b60006115fc826115a3565b9050919050565b61160c816115f1565b82525050565b60006020820190506116276000830184611603565b92915050565b600080fd5b600080fd5b600063ffffffff82169050919050565b61165081611637565b811461165b57600080fd5b50565b60008135905061166d81611647565b92915050565b6000602082840312156116895761168861162d565b5b60006116978482850161165e565b91505092915050565b6000819050919050565b6116b3816116a0565b82525050565b60006020820190506116ce60008301846116aa565b92915050565b60006116df82611557565b9050919050565b6116ef816116d4565b81146116fa57600080fd5b50565b60008135905061170c816116e6565b92915050565b60008060006060848603121561172b5761172a61162d565b5b60006117398682870161165e565b935050602061174a8682870161165e565b925050604061175b868287016116fd565b9150509250925092565b61176e816116d4565b82525050565b60006020820190506117896000830184611765565b92915050565b611798816116a0565b81146117a357600080fd5b50565b6000813590506117b58161178f565b92915050565b600080fd5b600080fd5b600080fd5b60008083601f8401126117e0576117df6117bb565b5b8235905067ffffffffffffffff8111156117fd576117fc6117c0565b5b602083019150836020820283011115611819576118186117c5565b5b9250929050565b6000806000806000806080878903121561183d5761183c61162d565b5b600061184b89828a0161165e565b965050602061185c89828a016117a6565b955050604087013567ffffffffffffffff81111561187d5761187c611632565b5b61188989828a016117ca565b9450945050606087013567ffffffffffffffff8111156118ac576118ab611632565b5b6118b889828a016117ca565b92509250509295509295509295565b600080604083850312156118de576118dd61162d565b5b60006118ec858286016116fd565b92505060206118fd858286016117a6565b9150509250929050565b60006020828403121561191d5761191c61162d565b5b600061192b848285016116fd565b91505092915050565b7f4e487b7100000000000000000000000000000000000000000000000000000000600052601160045260246000fd5b600061196e826116a0565b9150611979836116a0565b9250828202611987816116a0565b9150828204841483151761199e5761199d611934565b5b5092915050565b60006040820190506119ba6000830185611765565b6119c76020830184611765565b9392505050565b6000815190506119dd8161178f565b92915050565b6000602082840312156119f9576119f861162d565b5b6000611a07848285016119ce565b91505092915050565b7f4e487b7100000000000000000000000000000000000000000000000000000000600052604160045260246000fd5b7f4e487b7100000000000000000000000000000000000000000000000000000000600052603260045260246000fd5b6000611a7982611637565b9150611a8483611637565b9250828202611a9281611637565b9150808214611aa457611aa3611934565b5b5092915050565b6000611ab682611637565b9150611ac183611637565b9250828201905063ffffffff811115611add57611adc611934565b5b92915050565b6000819050919050565b611af681611ae3565b8114611b0157600080fd5b50565b600081519050611b1381611aed565b92915050565b600060208284031215611b2f57611b2e61162d565b5b6000611b3d84828501611b04565b91505092915050565b611b4f81611ae3565b82525050565b6000602082019050611b6a6000830184611b46565b92915050565b600081519050611b7f816116e6565b92915050565b600060208284031215611b9b57611b9a61162d565b5b6000611ba984828501611b70565b91505092915050565b7f4e487b7100000000000000000000000000000000000000000000000000000000600052601260045260246000fd5b6000611bec826116a0565b9150611bf7836116a0565b925082611c0757611c06611bb2565b5b828204905092915050565b6000606082019050611c276000830186611765565b611c346020830185611765565b611c4160408301846116aa565b949350505050565b60008115159050919050565b611c5e81611c49565b8114611c6957600080fd5b50565b600081519050611c7b81611c55565b92915050565b600060208284031215611c9757611c9661162d565b5b6000611ca584828501611c6c565b91505092915050565b6000611cc9611cc4611cbf84611637565b611577565b6116a0565b9050919050565b611cd981611cae565b82525050565b6000606082019050611cf46000830186611765565b611d0160208301856116aa565b611d0e6040830184611cd0565b949350505050565b611d1f81611637565b82525050565b6000608082019050611d3a6000830187611765565b611d476020830186611765565b611d5460408301856116aa565b611d616060830184611d16565b95945050505050565b600081549050919050565b600082825260208201905092915050565b60008190508160005260206000209050919050565b611da481611637565b82525050565b60008160001c9050919050565b600063ffffffff82169050919050565b6000611dda611dd583611daa565b611db7565b9050919050565b60008160201c9050919050565b6000611e01611dfc83611de1565b611db7565b9050919050565b60008160401c9050919050565b6000611e28611e2383611e08565b611db7565b9050919050565b60008160601c9050919050565b6000611e4f611e4a83611e2f565b611db7565b9050919050565b60008160801c9050919050565b6000611e76611e7183611e56565b611db7565b9050919050565b60008160a01c9050919050565b6000611e9d611e9883611e7d565b611db7565b9050919050565b60008160c01c9050919050565b6000611ec4611ebf83611ea4565b611db7565b9050919050565b60008160e01c9050919050565b6000611eeb611ee683611ecb565b611db7565b9050919050565b6000611efd82611d6a565b611f078185611d75565b935083611f1384611d86565b6000600115612000575b83600160080382011015611fff578154611f3f88611f3a83611dc7565b611d9b565b602088019750611f5788611f5283611dee565b611d9b565b602088019750611f6f88611f6a83611e15565b611d9b565b602088019750611f8788611f8283611e3c565b611d9b565b602088019750611f9f88611f9a83611e63565b611d9b565b602088019750611fb788611fb283611e8a565b611d9b565b602088019750611fcf88611fca83611eb1565b611d9b565b602088019750611fe788611fe283611ed8565b611d9b565b60208801975060018301925050600881019050611f1d565b5b60011561214357815484821015612030576120238861201e83611dc7565b611d9b565b6020880197506001820191505b848210156120575761204a8861204583611dee565b611d9b565b6020880197506001820191505b8482101561207e576120718861206c83611e15565b611d9b565b6020880197506001820191505b848210156120a5576120988861209383611e3c565b611d9b565b6020880197506001820191505b848210156120cc576120bf886120ba83611e63565b611d9b565b6020880197506001820191505b848210156120f3576120e6886120e183611e8a565b611d9b565b6020880197506001820191505b8482101561211a5761210d8861210883611eb1565b611d9b565b6020880197506001820191505b84821015612141576121348861212f83611ed8565b611d9b565b6020880197506001820191505b505b8694505050505092915050565b600081519050919050565b6000819050602082019050919050565b60006121778383611d9b565b60208301905092915050565b6000602082019050919050565b600061219b82612150565b6121a58185611d75565b93506121b08361215b565b8060005b838110156121e15781516121c8888261216b565b97506121d383612183565b9250506001810190506121b4565b5085935050505092915050565b60006060820190506122036000830186611765565b81810360208301526122158185611ef2565b905081810360408301526122298184612190565b9050949350505050565b60006020820190506122486000830184611d16565b92915050565b60006040820190506122636000830185611765565b61227060208301846116aa565b939250505056fea264697066735822122077e6f729af2e119eec4977878d794b5f9420d53376d42cffb7acd64877d7774764736f6c63430008170033",
					"opcodes": "PUSH1 0x80 PUSH1 0x40 MSTORE CALLVALUE DUP1 ISZERO PUSH3 0x11 JUMPI PUSH1 0x0 DUP1 REVERT JUMPDEST POP PUSH1 0x40 MLOAD PUSH3 0x25BF CODESIZE SUB DUP1 PUSH3 0x25BF DUP4 CODECOPY DUP2 DUP2 ADD PUSH1 0x40 MSTORE DUP2 ADD SWAP1 PUSH3 0x37 SWAP2 SWAP1 PUSH3 0x278 JUMP JUMPDEST DUP2 PUSH1 0x0 PUSH20 0xFFFFFFFFFFFFFFFFFFFFFFFFFFFFFFFFFFFFFFFF AND DUP2 PUSH20 0xFFFFFFFFFFFFFFFFFFFFFFFFFFFFFFFFFFFFFFFF AND SUB PUSH3 0xAD JUMPI PUSH1 0x0 PUSH1 0x40 MLOAD PUSH32 0x1E4FBDF700000000000000000000000000000000000000000000000000000000 DUP2 MSTORE PUSH1 0x4 ADD PUSH3 0xA4 SWAP2 SWAP1 PUSH3 0x2E5 JUMP JUMPDEST PUSH1 0x40 MLOAD DUP1 SWAP2 SUB SWAP1 REVERT JUMPDEST PUSH3 0xBE DUP2 PUSH3 0x14A PUSH1 0x20 SHL PUSH1 0x20 SHR JUMP JUMPDEST POP DUP3 PUSH1 0x3 PUSH1 0x0 PUSH2 0x100 EXP DUP2 SLOAD DUP2 PUSH20 0xFFFFFFFFFFFFFFFFFFFFFFFFFFFFFFFFFFFFFFFF MUL NOT AND SWAP1 DUP4 PUSH20 0xFFFFFFFFFFFFFFFFFFFFFFFFFFFFFFFFFFFFFFFF AND MUL OR SWAP1 SSTORE POP DUP1 PUSH1 0x4 PUSH1 0x0 PUSH2 0x100 EXP DUP2 SLOAD DUP2 PUSH20 0xFFFFFFFFFFFFFFFFFFFFFFFFFFFFFFFFFFFFFFFF MUL NOT AND SWAP1 DUP4 PUSH20 0xFFFFFFFFFFFFFFFFFFFFFFFFFFFFFFFFFFFFFFFF AND MUL OR SWAP1 SSTORE POP POP POP POP PUSH3 0x302 JUMP JUMPDEST PUSH1 0x0 DUP1 PUSH1 0x0 SWAP1 SLOAD SWAP1 PUSH2 0x100 EXP SWAP1 DIV PUSH20 0xFFFFFFFFFFFFFFFFFFFFFFFFFFFFFFFFFFFFFFFF AND SWAP1 POP DUP2 PUSH1 0x0 DUP1 PUSH2 0x100 EXP DUP2 SLOAD DUP2 PUSH20 0xFFFFFFFFFFFFFFFFFFFFFFFFFFFFFFFFFFFFFFFF MUL NOT AND SWAP1 DUP4 PUSH20 0xFFFFFFFFFFFFFFFFFFFFFFFFFFFFFFFFFFFFFFFF AND MUL OR SWAP1 SSTORE POP DUP2 PUSH20 0xFFFFFFFFFFFFFFFFFFFFFFFFFFFFFFFFFFFFFFFF AND DUP2 PUSH20 0xFFFFFFFFFFFFFFFFFFFFFFFFFFFFFFFFFFFFFFFF AND PUSH32 0x8BE0079C531659141344CD1FD0A4F28419497F9722A3DAAFE3B4186F6B6457E0 PUSH1 0x40 MLOAD PUSH1 0x40 MLOAD DUP1 SWAP2 SUB SWAP1 LOG3 POP POP JUMP JUMPDEST PUSH1 0x0 DUP1 REVERT JUMPDEST PUSH1 0x0 PUSH20 0xFFFFFFFFFFFFFFFFFFFFFFFFFFFFFFFFFFFFFFFF DUP3 AND SWAP1 POP SWAP2 SWAP1 POP JUMP JUMPDEST PUSH1 0x0 PUSH3 0x240 DUP3 PUSH3 0x213 JUMP JUMPDEST SWAP1 POP SWAP2 SWAP1 POP JUMP JUMPDEST PUSH3 0x252 DUP2 PUSH3 0x233 JUMP JUMPDEST DUP2 EQ PUSH3 0x25E JUMPI PUSH1 0x0 DUP1 REVERT JUMPDEST POP JUMP JUMPDEST PUSH1 0x0 DUP2 MLOAD SWAP1 POP PUSH3 0x272 DUP2 PUSH3 0x247 JUMP JUMPDEST SWAP3 SWAP2 POP POP JUMP JUMPDEST PUSH1 0x0 DUP1 PUSH1 0x0 PUSH1 0x60 DUP5 DUP7 SUB SLT ISZERO PUSH3 0x294 JUMPI PUSH3 0x293 PUSH3 0x20E JUMP JUMPDEST JUMPDEST PUSH1 0x0 PUSH3 0x2A4 DUP7 DUP3 DUP8 ADD PUSH3 0x261 JUMP JUMPDEST SWAP4 POP POP PUSH1 0x20 PUSH3 0x2B7 DUP7 DUP3 DUP8 ADD PUSH3 0x261 JUMP JUMPDEST SWAP3 POP POP PUSH1 0x40 PUSH3 0x2CA DUP7 DUP3 DUP8 ADD PUSH3 0x261 JUMP JUMPDEST SWAP2 POP POP SWAP3 POP SWAP3 POP SWAP3 JUMP JUMPDEST PUSH3 0x2DF DUP2 PUSH3 0x233 JUMP JUMPDEST DUP3 MSTORE POP POP JUMP JUMPDEST PUSH1 0x0 PUSH1 0x20 DUP3 ADD SWAP1 POP PUSH3 0x2FC PUSH1 0x0 DUP4 ADD DUP5 PUSH3 0x2D4 JUMP JUMPDEST SWAP3 SWAP2 POP POP JUMP JUMPDEST PUSH2 0x22AD DUP1 PUSH3 0x312 PUSH1 0x0 CODECOPY PUSH1 0x0 RETURN INVALID PUSH1 0x80 PUSH1 0x40 MSTORE CALLVALUE DUP1 ISZERO PUSH2 0x10 JUMPI PUSH1 0x0 DUP1 REVERT JUMPDEST POP PUSH1 0x4 CALLDATASIZE LT PUSH2 0xA9 JUMPI PUSH1 0x0 CALLDATALOAD PUSH1 0xE0 SHR DUP1 PUSH4 0x715018A6 GT PUSH2 0x71 JUMPI DUP1 PUSH4 0x715018A6 EQ PUSH2 0x140 JUMPI DUP1 PUSH4 0x8DA5CB5B EQ PUSH2 0x14A JUMPI DUP1 PUSH4 0xA5410136 EQ PUSH2 0x168 JUMPI DUP1 PUSH4 0xC1075329 EQ PUSH2 0x184 JUMPI DUP1 PUSH4 0xD72B9DA2 EQ PUSH2 0x1A0 JUMPI DUP1 PUSH4 0xF2FDE38B EQ PUSH2 0x1D0 JUMPI PUSH2 0xA9 JUMP JUMPDEST DUP1 PUSH4 0x1AA3A008 EQ PUSH2 0xAE JUMPI DUP1 PUSH4 0x3013CE29 EQ PUSH2 0xCC JUMPI DUP1 PUSH4 0x4718F6F9 EQ PUSH2 0xEA JUMPI DUP1 PUSH4 0x50431CE4 EQ PUSH2 0x11A JUMPI DUP1 PUSH4 0x51793665 EQ PUSH2 0x124 JUMPI JUMPDEST PUSH1 0x0 DUP1 REVERT JUMPDEST PUSH2 0xB6 PUSH2 0x1EC JUMP JUMPDEST PUSH1 0x40 MLOAD PUSH2 0xC3 SWAP2 SWAP1 PUSH2 0x15D6 JUMP JUMPDEST PUSH1 0x40 MLOAD DUP1 SWAP2 SUB SWAP1 RETURN JUMPDEST PUSH2 0xD4 PUSH2 0x212 JUMP JUMPDEST PUSH1 0x40 MLOAD PUSH2 0xE1 SWAP2 SWAP1 PUSH2 0x1612 JUMP JUMPDEST PUSH1 0x40 MLOAD DUP1 SWAP2 SUB SWAP1 RETURN JUMPDEST PUSH2 0x104 PUSH1 0x4 DUP1 CALLDATASIZE SUB DUP2 ADD SWAP1 PUSH2 0xFF SWAP2 SWAP1 PUSH2 0x1673 JUMP JUMPDEST PUSH2 0x238 JUMP JUMPDEST PUSH1 0x40 MLOAD PUSH2 0x111 SWAP2 SWAP1 PUSH2 0x16B9 JUMP JUMPDEST PUSH1 0x40 MLOAD DUP1 SWAP2 SUB SWAP1 RETURN JUMPDEST PUSH2 0x122 PUSH2 0x256 JUMP JUMPDEST STOP JUMPDEST PUSH2 0x13E PUSH1 0x4 DUP1 CALLDATASIZE SUB DUP2 ADD SWAP1 PUSH2 0x139 SWAP2 SWAP1 PUSH2 0x1712 JUMP JUMPDEST PUSH2 0x2AE JUMP JUMPDEST STOP JUMPDEST PUSH2 0x148 PUSH2 0x1070 JUMP JUMPDEST STOP JUMPDEST PUSH2 0x152 PUSH2 0x1084 JUMP JUMPDEST PUSH1 0x40 MLOAD PUSH2 0x15F SWAP2 SWAP1 PUSH2 0x1774 JUMP JUMPDEST PUSH1 0x40 MLOAD DUP1 SWAP2 SUB SWAP1 RETURN JUMPDEST PUSH2 0x182 PUSH1 0x4 DUP1 CALLDATASIZE SUB DUP2 ADD SWAP1 PUSH2 0x17D SWAP2 SWAP1 PUSH2 0x1820 JUMP JUMPDEST PUSH2 0x10AD JUMP JUMPDEST STOP JUMPDEST PUSH2 0x19E PUSH1 0x4 DUP1 CALLDATASIZE SUB DUP2 ADD SWAP1 PUSH2 0x199 SWAP2 SWAP1 PUSH2 0x18C7 JUMP JUMPDEST PUSH2 0x1148 JUMP JUMPDEST STOP JUMPDEST PUSH2 0x1BA PUSH1 0x4 DUP1 CALLDATASIZE SUB DUP2 ADD SWAP1 PUSH2 0x1B5 SWAP2 SWAP1 PUSH2 0x1907 JUMP JUMPDEST PUSH2 0x1293 JUMP JUMPDEST PUSH1 0x40 MLOAD PUSH2 0x1C7 SWAP2 SWAP1 PUSH2 0x16B9 JUMP JUMPDEST PUSH1 0x40 MLOAD DUP1 SWAP2 SUB SWAP1 RETURN JUMPDEST PUSH2 0x1EA PUSH1 0x4 DUP1 CALLDATASIZE SUB DUP2 ADD SWAP1 PUSH2 0x1E5 SWAP2 SWAP1 PUSH2 0x1907 JUMP JUMPDEST PUSH2 0x12AB JUMP JUMPDEST STOP JUMPDEST PUSH1 0x4 PUSH1 0x0 SWAP1 SLOAD SWAP1 PUSH2 0x100 EXP SWAP1 DIV PUSH20 0xFFFFFFFFFFFFFFFFFFFFFFFFFFFFFFFFFFFFFFFF AND DUP2 JUMP JUMPDEST PUSH1 0x3 PUSH1 0x0 SWAP1 SLOAD SWAP1 PUSH2 0x100 EXP SWAP1 DIV PUSH20 0xFFFFFFFFFFFFFFFFFFFFFFFFFFFFFFFFFFFFFFFF AND DUP2 JUMP JUMPDEST PUSH1 0x2 PUSH1 0x20 MSTORE DUP1 PUSH1 0x0 MSTORE PUSH1 0x40 PUSH1 0x0 KECCAK256 PUSH1 0x0 SWAP2 POP SWAP1 POP DUP1 PUSH1 0x0 ADD SLOAD SWAP1 POP DUP2 JUMP JUMPDEST PUSH2 0x25E PUSH2 0x1331 JUMP JUMPDEST PUSH2 0x266 PUSH2 0x1084 JUMP JUMPDEST PUSH20 0xFFFFFFFFFFFFFFFFFFFFFFFFFFFFFFFFFFFFFFFF AND PUSH2 0x8FC SELFBALANCE SWAP1 DUP2 ISZERO MUL SWAP1 PUSH1 0x40 MLOAD PUSH1 0x0 PUSH1 0x40 MLOAD DUP1 DUP4 SUB DUP2 DUP6 DUP9 DUP9 CALL SWAP4 POP POP POP POP ISZERO DUP1 ISZERO PUSH2 0x2AB JUMPI RETURNDATASIZE PUSH1 0x0 DUP1 RETURNDATACOPY RETURNDATASIZE PUSH1 0x0 REVERT JUMPDEST POP JUMP JUMPDEST PUSH1 0x0 PUSH1 0x2 PUSH1 0x0 DUP6 PUSH4 0xFFFFFFFF AND PUSH4 0xFFFFFFFF AND DUP2 MSTORE PUSH1 0x20 ADD SWAP1 DUP2 MSTORE PUSH1 0x20 ADD PUSH1 0x0 KECCAK256 PUSH1 0x0 ADD SLOAD SWAP1 POP PUSH1 0x0 DUP1 CALLER SWAP1 POP PUSH1 0x0 PUSH20 0xFFFFFFFFFFFFFFFFFFFFFFFFFFFFFFFFFFFFFFFF AND DUP5 PUSH20 0xFFFFFFFFFFFFFFFFFFFFFFFFFFFFFFFFFFFFFFFF AND SUB PUSH2 0x31A JUMPI PUSH2 0x317 PUSH2 0x1084 JUMP JUMPDEST SWAP4 POP JUMPDEST PUSH1 0x0 DUP6 PUSH4 0xFFFFFFFF AND SUB PUSH2 0x35A JUMPI PUSH1 0x40 MLOAD PUSH32 0x2C5211C600000000000000000000000000000000000000000000000000000000 DUP2 MSTORE PUSH1 0x4 ADD PUSH1 0x40 MLOAD DUP1 SWAP2 SUB SWAP1 REVERT JUMPDEST DUP3 DUP6 PUSH4 0xFFFFFFFF AND PUSH2 0x36C SWAP2 SWAP1 PUSH2 0x1963 JUMP JUMPDEST SWAP2 POP DUP2 PUSH1 0x3 PUSH1 0x0 SWAP1 SLOAD SWAP1 PUSH2 0x100 EXP SWAP1 DIV PUSH20 0xFFFFFFFFFFFFFFFFFFFFFFFFFFFFFFFFFFFFFFFF AND PUSH20 0xFFFFFFFFFFFFFFFFFFFFFFFFFFFFFFFFFFFFFFFF AND PUSH4 0xDD62ED3E DUP4 ADDRESS PUSH1 0x40 MLOAD DUP4 PUSH4 0xFFFFFFFF AND PUSH1 0xE0 SHL DUP2 MSTORE PUSH1 0x4 ADD PUSH2 0x3CC SWAP3 SWAP2 SWAP1 PUSH2 0x19A5 JUMP JUMPDEST PUSH1 0x20 PUSH1 0x40 MLOAD DUP1 DUP4 SUB DUP2 DUP7 GAS STATICCALL ISZERO DUP1 ISZERO PUSH2 0x3E9 JUMPI RETURNDATASIZE PUSH1 0x0 DUP1 RETURNDATACOPY RETURNDATASIZE PUSH1 0x0 REVERT JUMPDEST POP POP POP POP PUSH1 0x40 MLOAD RETURNDATASIZE PUSH1 0x1F NOT PUSH1 0x1F DUP3 ADD AND DUP3 ADD DUP1 PUSH1 0x40 MSTORE POP DUP2 ADD SWAP1 PUSH2 0x40D SWAP2 SWAP1 PUSH2 0x19E3 JUMP JUMPDEST LT ISZERO PUSH2 0x445 JUMPI PUSH1 0x40 MLOAD PUSH32 0x13BE252B00000000000000000000000000000000000000000000000000000000 DUP2 MSTORE PUSH1 0x4 ADD PUSH1 0x40 MLOAD DUP1 SWAP2 SUB SWAP1 REVERT JUMPDEST DUP2 PUSH1 0x3 PUSH1 0x0 SWAP1 SLOAD SWAP1 PUSH2 0x100 EXP SWAP1 DIV PUSH20 0xFFFFFFFFFFFFFFFFFFFFFFFFFFFFFFFFFFFFFFFF AND PUSH20 0xFFFFFFFFFFFFFFFFFFFFFFFFFFFFFFFFFFFFFFFF AND PUSH4 0x70A08231 DUP4 PUSH1 0x40 MLOAD DUP3 PUSH4 0xFFFFFFFF AND PUSH1 0xE0 SHL DUP2 MSTORE PUSH1 0x4 ADD PUSH2 0x4A1 SWAP2 SWAP1 PUSH2 0x1774 JUMP JUMPDEST PUSH1 0x20 PUSH1 0x40 MLOAD DUP1 DUP4 SUB DUP2 DUP7 GAS STATICCALL ISZERO DUP1 ISZERO PUSH2 0x4BE JUMPI RETURNDATASIZE PUSH1 0x0 DUP1 RETURNDATACOPY RETURNDATASIZE PUSH1 0x0 REVERT JUMPDEST POP POP POP POP PUSH1 0x40 MLOAD RETURNDATASIZE PUSH1 0x1F NOT PUSH1 0x1F DUP3 ADD AND DUP3 ADD DUP1 PUSH1 0x40 MSTORE POP DUP2 ADD SWAP1 PUSH2 0x4E2 SWAP2 SWAP1 PUSH2 0x19E3 JUMP JUMPDEST LT ISZERO PUSH2 0x51A JUMPI PUSH1 0x40 MLOAD PUSH32 0xF4D678B800000000000000000000000000000000000000000000000000000000 DUP2 MSTORE PUSH1 0x4 ADD PUSH1 0x40 MLOAD DUP1 SWAP2 SUB SWAP1 REVERT JUMPDEST PUSH1 0x0 PUSH1 0x2 PUSH1 0x0 DUP9 PUSH4 0xFFFFFFFF AND PUSH4 0xFFFFFFFF AND DUP2 MSTORE PUSH1 0x20 ADD SWAP1 DUP2 MSTORE PUSH1 0x20 ADD PUSH1 0x0 KECCAK256 PUSH1 0x2 ADD DUP1 SLOAD DUP1 PUSH1 0x20 MUL PUSH1 0x20 ADD PUSH1 0x40 MLOAD SWAP1 DUP2 ADD PUSH1 0x40 MSTORE DUP1 SWAP3 SWAP2 SWAP1 DUP2 DUP2 MSTORE PUSH1 0x20 ADD DUP3 DUP1 SLOAD DUP1 ISZERO PUSH2 0x5B4 JUMPI PUSH1 0x20 MUL DUP3 ADD SWAP2 SWAP1 PUSH1 0x0 MSTORE PUSH1 0x20 PUSH1 0x0 KECCAK256 SWAP1 PUSH1 0x0 SWAP1 JUMPDEST DUP3 DUP3 SWAP1 SLOAD SWAP1 PUSH2 0x100 EXP SWAP1 DIV PUSH4 0xFFFFFFFF AND PUSH4 0xFFFFFFFF AND DUP2 MSTORE PUSH1 0x20 ADD SWAP1 PUSH1 0x4 ADD SWAP1 PUSH1 0x20 DUP3 PUSH1 0x3 ADD DIV SWAP3 DUP4 ADD SWAP3 PUSH1 0x1 SUB DUP3 MUL SWAP2 POP DUP1 DUP5 GT PUSH2 0x577 JUMPI SWAP1 POP JUMPDEST POP POP POP POP POP SWAP1 POP PUSH1 0x0 DUP2 MLOAD PUSH8 0xFFFFFFFFFFFFFFFF DUP2 GT ISZERO PUSH2 0x5D8 JUMPI PUSH2 0x5D7 PUSH2 0x1A10 JUMP JUMPDEST JUMPDEST PUSH1 0x40 MLOAD SWAP1 DUP1 DUP3 MSTORE DUP1 PUSH1 0x20 MUL PUSH1 0x20 ADD DUP3 ADD PUSH1 0x40 MSTORE DUP1 ISZERO PUSH2 0x606 JUMPI DUP2 PUSH1 0x20 ADD PUSH1 0x20 DUP3 MUL DUP1 CALLDATASIZE DUP4 CALLDATACOPY DUP1 DUP3 ADD SWAP2 POP POP SWAP1 POP JUMPDEST POP SWAP1 POP PUSH1 0x0 DUP1 JUMPDEST DUP4 MLOAD DUP2 LT ISZERO PUSH2 0x69E JUMPI DUP9 DUP5 DUP3 DUP2 MLOAD DUP2 LT PUSH2 0x62A JUMPI PUSH2 0x629 PUSH2 0x1A3F JUMP JUMPDEST JUMPDEST PUSH1 0x20 MUL PUSH1 0x20 ADD ADD MLOAD PUSH2 0x63C SWAP2 SWAP1 PUSH2 0x1A6E JUMP JUMPDEST DUP4 DUP3 DUP2 MLOAD DUP2 LT PUSH2 0x64F JUMPI PUSH2 0x64E PUSH2 0x1A3F JUMP JUMPDEST JUMPDEST PUSH1 0x20 MUL PUSH1 0x20 ADD ADD SWAP1 PUSH4 0xFFFFFFFF AND SWAP1 DUP2 PUSH4 0xFFFFFFFF AND DUP2 MSTORE POP POP DUP3 DUP2 DUP2 MLOAD DUP2 LT PUSH2 0x67C JUMPI PUSH2 0x67B PUSH2 0x1A3F JUMP JUMPDEST JUMPDEST PUSH1 0x20 MUL PUSH1 0x20 ADD ADD MLOAD DUP3 PUSH2 0x68F SWAP2 SWAP1 PUSH2 0x1AAB JUMP JUMPDEST SWAP2 POP DUP1 DUP1 PUSH1 0x1 ADD SWAP2 POP POP PUSH2 0x60D JUMP JUMPDEST POP PUSH1 0x3 PUSH1 0x0 SWAP1 SLOAD SWAP1 PUSH2 0x100 EXP SWAP1 DIV PUSH20 0xFFFFFFFFFFFFFFFFFFFFFFFFFFFFFFFFFFFFFFFF AND PUSH20 0xFFFFFFFFFFFFFFFFFFFFFFFFFFFFFFFFFFFFFFFF AND PUSH4 0x23B872DD DUP6 PUSH1 0x4 PUSH1 0x0 SWAP1 SLOAD SWAP1 PUSH2 0x100 EXP SWAP1 DIV PUSH20 0xFFFFFFFFFFFFFFFFFFFFFFFFFFFFFFFFFFFFFFFF AND PUSH20 0xFFFFFFFFFFFFFFFFFFFFFFFFFFFFFFFFFFFFFFFF AND PUSH4 0xE16C7D98 PUSH1 0x4 PUSH1 0x0 SWAP1 SLOAD SWAP1 PUSH2 0x100 EXP SWAP1 DIV PUSH20 0xFFFFFFFFFFFFFFFFFFFFFFFFFFFFFFFFFFFFFFFF AND PUSH20 0xFFFFFFFFFFFFFFFFFFFFFFFFFFFFFFFFFFFFFFFF AND PUSH4 0x4E2164C9 PUSH1 0x40 MLOAD DUP2 PUSH4 0xFFFFFFFF AND PUSH1 0xE0 SHL DUP2 MSTORE PUSH1 0x4 ADD PUSH1 0x20 PUSH1 0x40 MLOAD DUP1 DUP4 SUB DUP2 DUP7 GAS STATICCALL ISZERO DUP1 ISZERO PUSH2 0x789 JUMPI RETURNDATASIZE PUSH1 0x0 DUP1 RETURNDATACOPY RETURNDATASIZE PUSH1 0x0 REVERT JUMPDEST POP POP POP POP PUSH1 0x40 MLOAD RETURNDATASIZE PUSH1 0x1F NOT PUSH1 0x1F DUP3 ADD AND DUP3 ADD DUP1 PUSH1 0x40 MSTORE POP DUP2 ADD SWAP1 PUSH2 0x7AD SWAP2 SWAP1 PUSH2 0x1B19 JUMP JUMPDEST PUSH1 0x40 MLOAD DUP3 PUSH4 0xFFFFFFFF AND PUSH1 0xE0 SHL DUP2 MSTORE PUSH1 0x4 ADD PUSH2 0x7C9 SWAP2 SWAP1 PUSH2 0x1B55 JUMP JUMPDEST PUSH1 0x20 PUSH1 0x40 MLOAD DUP1 DUP4 SUB DUP2 DUP7 GAS STATICCALL ISZERO DUP1 ISZERO PUSH2 0x7E6 JUMPI RETURNDATASIZE PUSH1 0x0 DUP1 RETURNDATACOPY RETURNDATASIZE PUSH1 0x0 REVERT JUMPDEST POP POP POP POP PUSH1 0x40 MLOAD RETURNDATASIZE PUSH1 0x1F NOT PUSH1 0x1F DUP3 ADD AND DUP3 ADD DUP1 PUSH1 0x40 MSTORE POP DUP2 ADD SWAP1 PUSH2 0x80A SWAP2 SWAP1 PUSH2 0x1B85 JUMP JUMPDEST PUSH1 0xA DUP10 PUSH2 0x817 SWAP2 SWAP1 PUSH2 0x1BE1 JUMP JUMPDEST PUSH1 0x40 MLOAD DUP5 PUSH4 0xFFFFFFFF AND PUSH1 0xE0 SHL DUP2 MSTORE PUSH1 0x4 ADD PUSH2 0x835 SWAP4 SWAP3 SWAP2 SWAP1 PUSH2 0x1C12 JUMP JUMPDEST PUSH1 0x20 PUSH1 0x40 MLOAD DUP1 DUP4 SUB DUP2 PUSH1 0x0 DUP8 GAS CALL ISZERO DUP1 ISZERO PUSH2 0x854 JUMPI RETURNDATASIZE PUSH1 0x0 DUP1 RETURNDATACOPY RETURNDATASIZE PUSH1 0x0 REVERT JUMPDEST POP POP POP POP PUSH1 0x40 MLOAD RETURNDATASIZE PUSH1 0x1F NOT PUSH1 0x1F DUP3 ADD AND DUP3 ADD DUP1 PUSH1 0x40 MSTORE POP DUP2 ADD SWAP1 PUSH2 0x878 SWAP2 SWAP1 PUSH2 0x1C81 JUMP JUMPDEST POP PUSH1 0x4 PUSH1 0x0 SWAP1 SLOAD SWAP1 PUSH2 0x100 EXP SWAP1 DIV PUSH20 0xFFFFFFFFFFFFFFFFFFFFFFFFFFFFFFFFFFFFFFFF AND PUSH20 0xFFFFFFFFFFFFFFFFFFFFFFFFFFFFFFFFFFFFFFFF AND PUSH4 0xE16C7D98 PUSH1 0x4 PUSH1 0x0 SWAP1 SLOAD SWAP1 PUSH2 0x100 EXP SWAP1 DIV PUSH20 0xFFFFFFFFFFFFFFFFFFFFFFFFFFFFFFFFFFFFFFFF AND PUSH20 0xFFFFFFFFFFFFFFFFFFFFFFFFFFFFFFFFFFFFFFFF AND PUSH4 0x4E2164C9 PUSH1 0x40 MLOAD DUP2 PUSH4 0xFFFFFFFF AND PUSH1 0xE0 SHL DUP2 MSTORE PUSH1 0x4 ADD PUSH1 0x20 PUSH1 0x40 MLOAD DUP1 DUP4 SUB DUP2 DUP7 GAS STATICCALL ISZERO DUP1 ISZERO PUSH2 0x924 JUMPI RETURNDATASIZE PUSH1 0x0 DUP1 RETURNDATACOPY RETURNDATASIZE PUSH1 0x0 REVERT JUMPDEST POP POP POP POP PUSH1 0x40 MLOAD RETURNDATASIZE PUSH1 0x1F NOT PUSH1 0x1F DUP3 ADD AND DUP3 ADD DUP1 PUSH1 0x40 MSTORE POP DUP2 ADD SWAP1 PUSH2 0x948 SWAP2 SWAP1 PUSH2 0x1B19 JUMP JUMPDEST PUSH1 0x40 MLOAD DUP3 PUSH4 0xFFFFFFFF AND PUSH1 0xE0 SHL DUP2 MSTORE PUSH1 0x4 ADD PUSH2 0x964 SWAP2 SWAP1 PUSH2 0x1B55 JUMP JUMPDEST PUSH1 0x20 PUSH1 0x40 MLOAD DUP1 DUP4 SUB DUP2 DUP7 GAS STATICCALL ISZERO DUP1 ISZERO PUSH2 0x981 JUMPI RETURNDATASIZE PUSH1 0x0 DUP1 RETURNDATACOPY RETURNDATASIZE PUSH1 0x0 REVERT JUMPDEST POP POP POP POP PUSH1 0x40 MLOAD RETURNDATASIZE PUSH1 0x1F NOT PUSH1 0x1F DUP3 ADD AND DUP3 ADD DUP1 PUSH1 0x40 MSTORE POP DUP2 ADD SWAP1 PUSH2 0x9A5 SWAP2 SWAP1 PUSH2 0x1B85 JUMP JUMPDEST PUSH20 0xFFFFFFFFFFFFFFFFFFFFFFFFFFFFFFFFFFFFFFFF AND PUSH4 0xEFE6A8B DUP6 PUSH1 0xA DUP9 PUSH2 0x9CE SWAP2 SWAP1 PUSH2 0x1BE1 JUMP JUMPDEST DUP5 PUSH1 0x40 MLOAD DUP5 PUSH4 0xFFFFFFFF AND PUSH1 0xE0 SHL DUP2 MSTORE PUSH1 0x4 ADD PUSH2 0x9ED SWAP4 SWAP3 SWAP2 SWAP1 PUSH2 0x1CDF JUMP JUMPDEST PUSH1 0x0 PUSH1 0x40 MLOAD DUP1 DUP4 SUB DUP2 PUSH1 0x0 DUP8 DUP1 EXTCODESIZE ISZERO DUP1 ISZERO PUSH2 0xA07 JUMPI PUSH1 0x0 DUP1 REVERT JUMPDEST POP GAS CALL ISZERO DUP1 ISZERO PUSH2 0xA1B JUMPI RETURNDATASIZE PUSH1 0x0 DUP1 RETURNDATACOPY RETURNDATASIZE PUSH1 0x0 REVERT JUMPDEST POP POP POP POP PUSH1 0x3 PUSH1 0x0 SWAP1 SLOAD SWAP1 PUSH2 0x100 EXP SWAP1 DIV PUSH20 0xFFFFFFFFFFFFFFFFFFFFFFFFFFFFFFFFFFFFFFFF AND PUSH20 0xFFFFFFFFFFFFFFFFFFFFFFFFFFFFFFFFFFFFFFFF AND PUSH4 0x23B872DD DUP6 PUSH1 0x4 PUSH1 0x0 SWAP1 SLOAD SWAP1 PUSH2 0x100 EXP SWAP1 DIV PUSH20 0xFFFFFFFFFFFFFFFFFFFFFFFFFFFFFFFFFFFFFFFF AND PUSH20 0xFFFFFFFFFFFFFFFFFFFFFFFFFFFFFFFFFFFFFFFF AND PUSH4 0xE16C7D98 PUSH1 0x4 PUSH1 0x0 SWAP1 SLOAD SWAP1 PUSH2 0x100 EXP SWAP1 DIV PUSH20 0xFFFFFFFFFFFFFFFFFFFFFFFFFFFFFFFFFFFFFFFF AND PUSH20 0xFFFFFFFFFFFFFFFFFFFFFFFFFFFFFFFFFFFFFFFF AND PUSH4 0x43C5CD74 PUSH1 0x40 MLOAD DUP2 PUSH4 0xFFFFFFFF AND PUSH1 0xE0 SHL DUP2 MSTORE PUSH1 0x4 ADD PUSH1 0x20 PUSH1 0x40 MLOAD DUP1 DUP4 SUB DUP2 DUP7 GAS STATICCALL ISZERO DUP1 ISZERO PUSH2 0xB09 JUMPI RETURNDATASIZE PUSH1 0x0 DUP1 RETURNDATACOPY RETURNDATASIZE PUSH1 0x0 REVERT JUMPDEST POP POP POP POP PUSH1 0x40 MLOAD RETURNDATASIZE PUSH1 0x1F NOT PUSH1 0x1F DUP3 ADD AND DUP3 ADD DUP1 PUSH1 0x40 MSTORE POP DUP2 ADD SWAP1 PUSH2 0xB2D SWAP2 SWAP1 PUSH2 0x1B19 JUMP JUMPDEST PUSH1 0x40 MLOAD DUP3 PUSH4 0xFFFFFFFF AND PUSH1 0xE0 SHL DUP2 MSTORE PUSH1 0x4 ADD PUSH2 0xB49 SWAP2 SWAP1 PUSH2 0x1B55 JUMP JUMPDEST PUSH1 0x20 PUSH1 0x40 MLOAD DUP1 DUP4 SUB DUP2 DUP7 GAS STATICCALL ISZERO DUP1 ISZERO PUSH2 0xB66 JUMPI RETURNDATASIZE PUSH1 0x0 DUP1 RETURNDATACOPY RETURNDATASIZE PUSH1 0x0 REVERT JUMPDEST POP POP POP POP PUSH1 0x40 MLOAD RETURNDATASIZE PUSH1 0x1F NOT PUSH1 0x1F DUP3 ADD AND DUP3 ADD DUP1 PUSH1 0x40 MSTORE POP DUP2 ADD SWAP1 PUSH2 0xB8A SWAP2 SWAP1 PUSH2 0x1B85 JUMP JUMPDEST PUSH1 0xA PUSH1 0x8 DUP11 PUSH2 0xB99 SWAP2 SWAP1 PUSH2 0x1963 JUMP JUMPDEST PUSH2 0xBA3 SWAP2 SWAP1 PUSH2 0x1BE1 JUMP JUMPDEST PUSH1 0x40 MLOAD DUP5 PUSH4 0xFFFFFFFF AND PUSH1 0xE0 SHL DUP2 MSTORE PUSH1 0x4 ADD PUSH2 0xBC1 SWAP4 SWAP3 SWAP2 SWAP1 PUSH2 0x1C12 JUMP JUMPDEST PUSH1 0x20 PUSH1 0x40 MLOAD DUP1 DUP4 SUB DUP2 PUSH1 0x0 DUP8 GAS CALL ISZERO DUP1 ISZERO PUSH2 0xBE0 JUMPI RETURNDATASIZE PUSH1 0x0 DUP1 RETURNDATACOPY RETURNDATASIZE PUSH1 0x0 REVERT JUMPDEST POP POP POP POP PUSH1 0x40 MLOAD RETURNDATASIZE PUSH1 0x1F NOT PUSH1 0x1F DUP3 ADD AND DUP3 ADD DUP1 PUSH1 0x40 MSTORE POP DUP2 ADD SWAP1 PUSH2 0xC04 SWAP2 SWAP1 PUSH2 0x1C81 JUMP JUMPDEST POP PUSH1 0x3 PUSH1 0x0 SWAP1 SLOAD SWAP1 PUSH2 0x100 EXP SWAP1 DIV PUSH20 0xFFFFFFFFFFFFFFFFFFFFFFFFFFFFFFFFFFFFFFFF AND PUSH20 0xFFFFFFFFFFFFFFFFFFFFFFFFFFFFFFFFFFFFFFFF AND PUSH4 0x23B872DD DUP6 DUP10 PUSH1 0xA DUP10 PUSH2 0xC52 SWAP2 SWAP1 PUSH2 0x1BE1 JUMP JUMPDEST PUSH1 0x40 MLOAD DUP5 PUSH4 0xFFFFFFFF AND PUSH1 0xE0 SHL DUP2 MSTORE PUSH1 0x4 ADD PUSH2 0xC70 SWAP4 SWAP3 SWAP2 SWAP1 PUSH2 0x1C12 JUMP JUMPDEST PUSH1 0x20 PUSH1 0x40 MLOAD DUP1 DUP4 SUB DUP2 PUSH1 0x0 DUP8 GAS CALL ISZERO DUP1 ISZERO PUSH2 0xC8F JUMPI RETURNDATASIZE PUSH1 0x0 DUP1 RETURNDATACOPY RETURNDATASIZE PUSH1 0x0 REVERT JUMPDEST POP POP POP POP PUSH1 0x40 MLOAD RETURNDATASIZE PUSH1 0x1F NOT PUSH1 0x1F DUP3 ADD AND DUP3 ADD DUP1 PUSH1 0x40 MSTORE POP DUP2 ADD SWAP1 PUSH2 0xCB3 SWAP2 SWAP1 PUSH2 0x1C81 JUMP JUMPDEST POP PUSH1 0x4 PUSH1 0x0 SWAP1 SLOAD SWAP1 PUSH2 0x100 EXP SWAP1 DIV PUSH20 0xFFFFFFFFFFFFFFFFFFFFFFFFFFFFFFFFFFFFFFFF AND PUSH20 0xFFFFFFFFFFFFFFFFFFFFFFFFFFFFFFFFFFFFFFFF AND PUSH4 0xE16C7D98 PUSH1 0x4 PUSH1 0x0 SWAP1 SLOAD SWAP1 PUSH2 0x100 EXP SWAP1 DIV PUSH20 0xFFFFFFFFFFFFFFFFFFFFFFFFFFFFFFFFFFFFFFFF AND PUSH20 0xFFFFFFFFFFFFFFFFFFFFFFFFFFFFFFFFFFFFFFFF AND PUSH4 0xC63568C7 PUSH1 0x40 MLOAD DUP2 PUSH4 0xFFFFFFFF AND PUSH1 0xE0 SHL DUP2 MSTORE PUSH1 0x4 ADD PUSH1 0x20 PUSH1 0x40 MLOAD DUP1 DUP4 SUB DUP2 DUP7 GAS STATICCALL ISZERO DUP1 ISZERO PUSH2 0xD5F JUMPI RETURNDATASIZE PUSH1 0x0 DUP1 RETURNDATACOPY RETURNDATASIZE PUSH1 0x0 REVERT JUMPDEST POP POP POP POP PUSH1 0x40 MLOAD RETURNDATASIZE PUSH1 0x1F NOT PUSH1 0x1F DUP3 ADD AND DUP3 ADD DUP1 PUSH1 0x40 MSTORE POP DUP2 ADD SWAP1 PUSH2 0xD83 SWAP2 SWAP1 PUSH2 0x1B19 JUMP JUMPDEST PUSH1 0x40 MLOAD DUP3 PUSH4 0xFFFFFFFF AND PUSH1 0xE0 SHL DUP2 MSTORE PUSH1 0x4 ADD PUSH2 0xD9F SWAP2 SWAP1 PUSH2 0x1B55 JUMP JUMPDEST PUSH1 0x20 PUSH1 0x40 MLOAD DUP1 DUP4 SUB DUP2 DUP7 GAS STATICCALL ISZERO DUP1 ISZERO PUSH2 0xDBC JUMPI RETURNDATASIZE PUSH1 0x0 DUP1 RETURNDATACOPY RETURNDATASIZE PUSH1 0x0 REVERT JUMPDEST POP POP POP POP PUSH1 0x40 MLOAD RETURNDATASIZE PUSH1 0x1F NOT PUSH1 0x1F DUP3 ADD AND DUP3 ADD DUP1 PUSH1 0x40 MSTORE POP DUP2 ADD SWAP1 PUSH2 0xDE0 SWAP2 SWAP1 PUSH2 0x1B85 JUMP JUMPDEST PUSH20 0xFFFFFFFFFFFFFFFFFFFFFFFFFFFFFFFFFFFFFFFF AND PUSH4 0x7EF58E91 DUP6 DUP10 PUSH1 0xA DUP10 PUSH2 0xE0A SWAP2 SWAP1 PUSH2 0x1BE1 JUMP JUMPDEST DUP6 PUSH1 0x40 MLOAD DUP6 PUSH4 0xFFFFFFFF AND PUSH1 0xE0 SHL DUP2 MSTORE PUSH1 0x4 ADD PUSH2 0xE2A SWAP5 SWAP4 SWAP3 SWAP2 SWAP1 PUSH2 0x1D25 JUMP JUMPDEST PUSH1 0x0 PUSH1 0x40 MLOAD DUP1 DUP4 SUB DUP2 PUSH1 0x0 DUP8 DUP1 EXTCODESIZE ISZERO DUP1 ISZERO PUSH2 0xE44 JUMPI PUSH1 0x0 DUP1 REVERT JUMPDEST POP GAS CALL ISZERO DUP1 ISZERO PUSH2 0xE58 JUMPI RETURNDATASIZE PUSH1 0x0 DUP1 RETURNDATACOPY RETURNDATASIZE PUSH1 0x0 REVERT JUMPDEST POP POP POP POP PUSH1 0x4 PUSH1 0x0 SWAP1 SLOAD SWAP1 PUSH2 0x100 EXP SWAP1 DIV PUSH20 0xFFFFFFFFFFFFFFFFFFFFFFFFFFFFFFFFFFFFFFFF AND PUSH20 0xFFFFFFFFFFFFFFFFFFFFFFFFFFFFFFFFFFFFFFFF AND PUSH4 0xE16C7D98 PUSH1 0x4 PUSH1 0x0 SWAP1 SLOAD SWAP1 PUSH2 0x100 EXP SWAP1 DIV PUSH20 0xFFFFFFFFFFFFFFFFFFFFFFFFFFFFFFFFFFFFFFFF AND PUSH20 0xFFFFFFFFFFFFFFFFFFFFFFFFFFFFFFFFFFFFFFFF AND PUSH4 0x619D36EF PUSH1 0x40 MLOAD DUP2 PUSH4 0xFFFFFFFF AND PUSH1 0xE0 SHL DUP2 MSTORE PUSH1 0x4 ADD PUSH1 0x20 PUSH1 0x40 MLOAD DUP1 DUP4 SUB DUP2 DUP7 GAS STATICCALL ISZERO DUP1 ISZERO PUSH2 0xF07 JUMPI RETURNDATASIZE PUSH1 0x0 DUP1 RETURNDATACOPY RETURNDATASIZE PUSH1 0x0 REVERT JUMPDEST POP POP POP POP PUSH1 0x40 MLOAD RETURNDATASIZE PUSH1 0x1F NOT PUSH1 0x1F DUP3 ADD AND DUP3 ADD DUP1 PUSH1 0x40 MSTORE POP DUP2 ADD SWAP1 PUSH2 0xF2B SWAP2 SWAP1 PUSH2 0x1B19 JUMP JUMPDEST PUSH1 0x40 MLOAD DUP3 PUSH4 0xFFFFFFFF AND PUSH1 0xE0 SHL DUP2 MSTORE PUSH1 0x4 ADD PUSH2 0xF47 SWAP2 SWAP1 PUSH2 0x1B55 JUMP JUMPDEST PUSH1 0x20 PUSH1 0x40 MLOAD DUP1 DUP4 SUB DUP2 DUP7 GAS STATICCALL ISZERO DUP1 ISZERO PUSH2 0xF64 JUMPI RETURNDATASIZE PUSH1 0x0 DUP1 RETURNDATACOPY RETURNDATASIZE PUSH1 0x0 REVERT JUMPDEST POP POP POP POP PUSH1 0x40 MLOAD RETURNDATASIZE PUSH1 0x1F NOT PUSH1 0x1F DUP3 ADD AND DUP3 ADD DUP1 PUSH1 0x40 MSTORE POP DUP2 ADD SWAP1 PUSH2 0xF88 SWAP2 SWAP1 PUSH2 0x1B85 JUMP JUMPDEST PUSH20 0xFFFFFFFFFFFFFFFFFFFFFFFFFFFFFFFFFFFFFFFF AND PUSH4 0x7C6FF2DA DUP6 PUSH1 0x2 PUSH1 0x0 DUP14 PUSH4 0xFFFFFFFF AND PUSH4 0xFFFFFFFF AND DUP2 MSTORE PUSH1 0x20 ADD SWAP1 DUP2 MSTORE PUSH1 0x20 ADD PUSH1 0x0 KECCAK256 PUSH1 0x1 ADD DUP6 PUSH1 0x40 MLOAD DUP5 PUSH4 0xFFFFFFFF AND PUSH1 0xE0 SHL DUP2 MSTORE PUSH1 0x4 ADD PUSH2 0xFE5 SWAP4 SWAP3 SWAP2 SWAP1 PUSH2 0x21EE JUMP JUMPDEST PUSH1 0x0 PUSH1 0x40 MLOAD DUP1 DUP4 SUB DUP2 PUSH1 0x0 DUP8 DUP1 EXTCODESIZE ISZERO DUP1 ISZERO PUSH2 0xFFF JUMPI PUSH1 0x0 DUP1 REVERT JUMPDEST POP GAS CALL ISZERO DUP1 ISZERO PUSH2 0x1013 JUMPI RETURNDATASIZE PUSH1 0x0 DUP1 RETURNDATACOPY RETURNDATASIZE PUSH1 0x0 REVERT JUMPDEST POP POP POP POP DUP4 PUSH20 0xFFFFFFFFFFFFFFFFFFFFFFFFFFFFFFFFFFFFFFFF AND PUSH32 0x7A204B221FCA2A98F9DE2405CC95185D3541E09E5B42C68677D0DE26CFA8F40C DUP10 PUSH1 0x40 MLOAD PUSH2 0x105D SWAP2 SWAP1 PUSH2 0x2233 JUMP JUMPDEST PUSH1 0x40 MLOAD DUP1 SWAP2 SUB SWAP1 LOG2 POP POP POP POP POP POP POP POP POP JUMP JUMPDEST PUSH2 0x1078 PUSH2 0x1331 JUMP JUMPDEST PUSH2 0x1082 PUSH1 0x0 PUSH2 0x13B8 JUMP JUMPDEST JUMP JUMPDEST PUSH1 0x0 DUP1 PUSH1 0x0 SWAP1 SLOAD SWAP1 PUSH2 0x100 EXP SWAP1 DIV PUSH20 0xFFFFFFFFFFFFFFFFFFFFFFFFFFFFFFFFFFFFFFFF AND SWAP1 POP SWAP1 JUMP JUMPDEST PUSH2 0x10B5 PUSH2 0x1331 JUMP JUMPDEST DUP5 PUSH1 0x2 PUSH1 0x0 DUP9 PUSH4 0xFFFFFFFF AND PUSH4 0xFFFFFFFF AND DUP2 MSTORE PUSH1 0x20 ADD SWAP1 DUP2 MSTORE PUSH1 0x20 ADD PUSH1 0x0 KECCAK256 PUSH1 0x0 ADD DUP2 SWAP1 SSTORE POP DUP4 DUP4 PUSH1 0x2 PUSH1 0x0 DUP10 PUSH4 0xFFFFFFFF AND PUSH4 0xFFFFFFFF AND DUP2 MSTORE PUSH1 0x20 ADD SWAP1 DUP2 MSTORE PUSH1 0x20 ADD PUSH1 0x0 KECCAK256 PUSH1 0x1 ADD SWAP2 SWAP1 PUSH2 0x110D SWAP3 SWAP2 SWAP1 PUSH2 0x1484 JUMP JUMPDEST POP DUP2 DUP2 PUSH1 0x2 PUSH1 0x0 DUP10 PUSH4 0xFFFFFFFF AND PUSH4 0xFFFFFFFF AND DUP2 MSTORE PUSH1 0x20 ADD SWAP1 DUP2 MSTORE PUSH1 0x20 ADD PUSH1 0x0 KECCAK256 PUSH1 0x2 ADD SWAP2 SWAP1 PUSH2 0x113F SWAP3 SWAP2 SWAP1 PUSH2 0x1484 JUMP JUMPDEST POP POP POP POP POP POP POP JUMP JUMPDEST PUSH2 0x1150 PUSH2 0x1331 JUMP JUMPDEST PUSH1 0x0 DUP3 SWAP1 POP DUP2 DUP2 PUSH20 0xFFFFFFFFFFFFFFFFFFFFFFFFFFFFFFFFFFFFFFFF AND PUSH4 0x70A08231 ADDRESS PUSH1 0x40 MLOAD DUP3 PUSH4 0xFFFFFFFF AND PUSH1 0xE0 SHL DUP2 MSTORE PUSH1 0x4 ADD PUSH2 0x118F SWAP2 SWAP1 PUSH2 0x1774 JUMP JUMPDEST PUSH1 0x20 PUSH1 0x40 MLOAD DUP1 DUP4 SUB DUP2 DUP7 GAS STATICCALL ISZERO DUP1 ISZERO PUSH2 0x11AC JUMPI RETURNDATASIZE PUSH1 0x0 DUP1 RETURNDATACOPY RETURNDATASIZE PUSH1 0x0 REVERT JUMPDEST POP POP POP POP PUSH1 0x40 MLOAD RETURNDATASIZE PUSH1 0x1F NOT PUSH1 0x1F DUP3 ADD AND DUP3 ADD DUP1 PUSH1 0x40 MSTORE POP DUP2 ADD SWAP1 PUSH2 0x11D0 SWAP2 SWAP1 PUSH2 0x19E3 JUMP JUMPDEST LT ISZERO PUSH2 0x1208 JUMPI PUSH1 0x40 MLOAD PUSH32 0xF4D678B800000000000000000000000000000000000000000000000000000000 DUP2 MSTORE PUSH1 0x4 ADD PUSH1 0x40 MLOAD DUP1 SWAP2 SUB SWAP1 REVERT JUMPDEST DUP1 PUSH20 0xFFFFFFFFFFFFFFFFFFFFFFFFFFFFFFFFFFFFFFFF AND PUSH4 0xA9059CBB PUSH2 0x122C PUSH2 0x1084 JUMP JUMPDEST DUP5 PUSH1 0x40 MLOAD DUP4 PUSH4 0xFFFFFFFF AND PUSH1 0xE0 SHL DUP2 MSTORE PUSH1 0x4 ADD PUSH2 0x124A SWAP3 SWAP2 SWAP1 PUSH2 0x224E JUMP JUMPDEST PUSH1 0x20 PUSH1 0x40 MLOAD DUP1 DUP4 SUB DUP2 PUSH1 0x0 DUP8 GAS CALL ISZERO DUP1 ISZERO PUSH2 0x1269 JUMPI RETURNDATASIZE PUSH1 0x0 DUP1 RETURNDATACOPY RETURNDATASIZE PUSH1 0x0 REVERT JUMPDEST POP POP POP POP PUSH1 0x40 MLOAD RETURNDATASIZE PUSH1 0x1F NOT PUSH1 0x1F DUP3 ADD AND DUP3 ADD DUP1 PUSH1 0x40 MSTORE POP DUP2 ADD SWAP1 PUSH2 0x128D SWAP2 SWAP1 PUSH2 0x1C81 JUMP JUMPDEST POP POP POP POP JUMP JUMPDEST PUSH1 0x1 PUSH1 0x20 MSTORE DUP1 PUSH1 0x0 MSTORE PUSH1 0x40 PUSH1 0x0 KECCAK256 PUSH1 0x0 SWAP2 POP SWAP1 POP SLOAD DUP2 JUMP JUMPDEST PUSH2 0x12B3 PUSH2 0x1331 JUMP JUMPDEST PUSH1 0x0 PUSH20 0xFFFFFFFFFFFFFFFFFFFFFFFFFFFFFFFFFFFFFFFF AND DUP2 PUSH20 0xFFFFFFFFFFFFFFFFFFFFFFFFFFFFFFFFFFFFFFFF AND SUB PUSH2 0x1325 JUMPI PUSH1 0x0 PUSH1 0x40 MLOAD PUSH32 0x1E4FBDF700000000000000000000000000000000000000000000000000000000 DUP2 MSTORE PUSH1 0x4 ADD PUSH2 0x131C SWAP2 SWAP1 PUSH2 0x1774 JUMP JUMPDEST PUSH1 0x40 MLOAD DUP1 SWAP2 SUB SWAP1 REVERT JUMPDEST PUSH2 0x132E DUP2 PUSH2 0x13B8 JUMP JUMPDEST POP JUMP JUMPDEST PUSH2 0x1339 PUSH2 0x147C JUMP JUMPDEST PUSH20 0xFFFFFFFFFFFFFFFFFFFFFFFFFFFFFFFFFFFFFFFF AND PUSH2 0x1357 PUSH2 0x1084 JUMP JUMPDEST PUSH20 0xFFFFFFFFFFFFFFFFFFFFFFFFFFFFFFFFFFFFFFFF AND EQ PUSH2 0x13B6 JUMPI PUSH2 0x137A PUSH2 0x147C JUMP JUMPDEST PUSH1 0x40 MLOAD PUSH32 0x118CDAA700000000000000000000000000000000000000000000000000000000 DUP2 MSTORE PUSH1 0x4 ADD PUSH2 0x13AD SWAP2 SWAP1 PUSH2 0x1774 JUMP JUMPDEST PUSH1 0x40 MLOAD DUP1 SWAP2 SUB SWAP1 REVERT JUMPDEST JUMP JUMPDEST PUSH1 0x0 DUP1 PUSH1 0x0 SWAP1 SLOAD SWAP1 PUSH2 0x100 EXP SWAP1 DIV PUSH20 0xFFFFFFFFFFFFFFFFFFFFFFFFFFFFFFFFFFFFFFFF AND SWAP1 POP DUP2 PUSH1 0x0 DUP1 PUSH2 0x100 EXP DUP2 SLOAD DUP2 PUSH20 0xFFFFFFFFFFFFFFFFFFFFFFFFFFFFFFFFFFFFFFFF MUL NOT AND SWAP1 DUP4 PUSH20 0xFFFFFFFFFFFFFFFFFFFFFFFFFFFFFFFFFFFFFFFF AND MUL OR SWAP1 SSTORE POP DUP2 PUSH20 0xFFFFFFFFFFFFFFFFFFFFFFFFFFFFFFFFFFFFFFFF AND DUP2 PUSH20 0xFFFFFFFFFFFFFFFFFFFFFFFFFFFFFFFFFFFFFFFF AND PUSH32 0x8BE0079C531659141344CD1FD0A4F28419497F9722A3DAAFE3B4186F6B6457E0 PUSH1 0x40 MLOAD PUSH1 0x40 MLOAD DUP1 SWAP2 SUB SWAP1 LOG3 POP POP JUMP JUMPDEST PUSH1 0x0 CALLER SWAP1 POP SWAP1 JUMP JUMPDEST DUP3 DUP1 SLOAD DUP3 DUP3 SSTORE SWAP1 PUSH1 0x0 MSTORE PUSH1 0x20 PUSH1 0x0 KECCAK256 SWAP1 PUSH1 0x7 ADD PUSH1 0x8 SWAP1 DIV DUP2 ADD SWAP3 DUP3 ISZERO PUSH2 0x1529 JUMPI SWAP2 PUSH1 0x20 MUL DUP3 ADD PUSH1 0x0 JUMPDEST DUP4 DUP3 GT ISZERO PUSH2 0x14F7 JUMPI DUP4 CALLDATALOAD PUSH4 0xFFFFFFFF AND DUP4 DUP3 PUSH2 0x100 EXP DUP2 SLOAD DUP2 PUSH4 0xFFFFFFFF MUL NOT AND SWAP1 DUP4 PUSH4 0xFFFFFFFF AND MUL OR SWAP1 SSTORE POP SWAP3 PUSH1 0x20 ADD SWAP3 PUSH1 0x4 ADD PUSH1 0x20 DUP2 PUSH1 0x3 ADD DIV SWAP3 DUP4 ADD SWAP3 PUSH1 0x1 SUB MUL PUSH2 0x14AD JUMP JUMPDEST DUP1 ISZERO PUSH2 0x1527 JUMPI DUP3 DUP2 PUSH2 0x100 EXP DUP2 SLOAD SWAP1 PUSH4 0xFFFFFFFF MUL NOT AND SWAP1 SSTORE PUSH1 0x4 ADD PUSH1 0x20 DUP2 PUSH1 0x3 ADD DIV SWAP3 DUP4 ADD SWAP3 PUSH1 0x1 SUB MUL PUSH2 0x14F7 JUMP JUMPDEST POP JUMPDEST POP SWAP1 POP PUSH2 0x1536 SWAP2 SWAP1 PUSH2 0x153A JUMP JUMPDEST POP SWAP1 JUMP JUMPDEST JUMPDEST DUP1 DUP3 GT ISZERO PUSH2 0x1553 JUMPI PUSH1 0x0 DUP2 PUSH1 0x0 SWAP1 SSTORE POP PUSH1 0x1 ADD PUSH2 0x153B JUMP JUMPDEST POP SWAP1 JUMP JUMPDEST PUSH1 0x0 PUSH20 0xFFFFFFFFFFFFFFFFFFFFFFFFFFFFFFFFFFFFFFFF DUP3 AND SWAP1 POP SWAP2 SWAP1 POP JUMP JUMPDEST PUSH1 0x0 DUP2 SWAP1 POP SWAP2 SWAP1 POP JUMP JUMPDEST PUSH1 0x0 PUSH2 0x159C PUSH2 0x1597 PUSH2 0x1592 DUP5 PUSH2 0x1557 JUMP JUMPDEST PUSH2 0x1577 JUMP JUMPDEST PUSH2 0x1557 JUMP JUMPDEST SWAP1 POP SWAP2 SWAP1 POP JUMP JUMPDEST PUSH1 0x0 PUSH2 0x15AE DUP3 PUSH2 0x1581 JUMP JUMPDEST SWAP1 POP SWAP2 SWAP1 POP JUMP JUMPDEST PUSH1 0x0 PUSH2 0x15C0 DUP3 PUSH2 0x15A3 JUMP JUMPDEST SWAP1 POP SWAP2 SWAP1 POP JUMP JUMPDEST PUSH2 0x15D0 DUP2 PUSH2 0x15B5 JUMP JUMPDEST DUP3 MSTORE POP POP JUMP JUMPDEST PUSH1 0x0 PUSH1 0x20 DUP3 ADD SWAP1 POP PUSH2 0x15EB PUSH1 0x0 DUP4 ADD DUP5 PUSH2 0x15C7 JUMP JUMPDEST SWAP3 SWAP2 POP POP JUMP JUMPDEST PUSH1 0x0 PUSH2 0x15FC DUP3 PUSH2 0x15A3 JUMP JUMPDEST SWAP1 POP SWAP2 SWAP1 POP JUMP JUMPDEST PUSH2 0x160C DUP2 PUSH2 0x15F1 JUMP JUMPDEST DUP3 MSTORE POP POP JUMP JUMPDEST PUSH1 0x0 PUSH1 0x20 DUP3 ADD SWAP1 POP PUSH2 0x1627 PUSH1 0x0 DUP4 ADD DUP5 PUSH2 0x1603 JUMP JUMPDEST SWAP3 SWAP2 POP POP JUMP JUMPDEST PUSH1 0x0 DUP1 REVERT JUMPDEST PUSH1 0x0 DUP1 REVERT JUMPDEST PUSH1 0x0 PUSH4 0xFFFFFFFF DUP3 AND SWAP1 POP SWAP2 SWAP1 POP JUMP JUMPDEST PUSH2 0x1650 DUP2 PUSH2 0x1637 JUMP JUMPDEST DUP2 EQ PUSH2 0x165B JUMPI PUSH1 0x0 DUP1 REVERT JUMPDEST POP JUMP JUMPDEST PUSH1 0x0 DUP2 CALLDATALOAD SWAP1 POP PUSH2 0x166D DUP2 PUSH2 0x1647 JUMP JUMPDEST SWAP3 SWAP2 POP POP JUMP JUMPDEST PUSH1 0x0 PUSH1 0x20 DUP3 DUP5 SUB SLT ISZERO PUSH2 0x1689 JUMPI PUSH2 0x1688 PUSH2 0x162D JUMP JUMPDEST JUMPDEST PUSH1 0x0 PUSH2 0x1697 DUP5 DUP3 DUP6 ADD PUSH2 0x165E JUMP JUMPDEST SWAP2 POP POP SWAP3 SWAP2 POP POP JUMP JUMPDEST PUSH1 0x0 DUP2 SWAP1 POP SWAP2 SWAP1 POP JUMP JUMPDEST PUSH2 0x16B3 DUP2 PUSH2 0x16A0 JUMP JUMPDEST DUP3 MSTORE POP POP JUMP JUMPDEST PUSH1 0x0 PUSH1 0x20 DUP3 ADD SWAP1 POP PUSH2 0x16CE PUSH1 0x0 DUP4 ADD DUP5 PUSH2 0x16AA JUMP JUMPDEST SWAP3 SWAP2 POP POP JUMP JUMPDEST PUSH1 0x0 PUSH2 0x16DF DUP3 PUSH2 0x1557 JUMP JUMPDEST SWAP1 POP SWAP2 SWAP1 POP JUMP JUMPDEST PUSH2 0x16EF DUP2 PUSH2 0x16D4 JUMP JUMPDEST DUP2 EQ PUSH2 0x16FA JUMPI PUSH1 0x0 DUP1 REVERT JUMPDEST POP JUMP JUMPDEST PUSH1 0x0 DUP2 CALLDATALOAD SWAP1 POP PUSH2 0x170C DUP2 PUSH2 0x16E6 JUMP JUMPDEST SWAP3 SWAP2 POP POP JUMP JUMPDEST PUSH1 0x0 DUP1 PUSH1 0x0 PUSH1 0x60 DUP5 DUP7 SUB SLT ISZERO PUSH2 0x172B JUMPI PUSH2 0x172A PUSH2 0x162D JUMP JUMPDEST JUMPDEST PUSH1 0x0 PUSH2 0x1739 DUP7 DUP3 DUP8 ADD PUSH2 0x165E JUMP JUMPDEST SWAP4 POP POP PUSH1 0x20 PUSH2 0x174A DUP7 DUP3 DUP8 ADD PUSH2 0x165E JUMP JUMPDEST SWAP3 POP POP PUSH1 0x40 PUSH2 0x175B DUP7 DUP3 DUP8 ADD PUSH2 0x16FD JUMP JUMPDEST SWAP2 POP POP SWAP3 POP SWAP3 POP SWAP3 JUMP JUMPDEST PUSH2 0x176E DUP2 PUSH2 0x16D4 JUMP JUMPDEST DUP3 MSTORE POP POP JUMP JUMPDEST PUSH1 0x0 PUSH1 0x20 DUP3 ADD SWAP1 POP PUSH2 0x1789 PUSH1 0x0 DUP4 ADD DUP5 PUSH2 0x1765 JUMP JUMPDEST SWAP3 SWAP2 POP POP JUMP JUMPDEST PUSH2 0x1798 DUP2 PUSH2 0x16A0 JUMP JUMPDEST DUP2 EQ PUSH2 0x17A3 JUMPI PUSH1 0x0 DUP1 REVERT JUMPDEST POP JUMP JUMPDEST PUSH1 0x0 DUP2 CALLDATALOAD SWAP1 POP PUSH2 0x17B5 DUP2 PUSH2 0x178F JUMP JUMPDEST SWAP3 SWAP2 POP POP JUMP JUMPDEST PUSH1 0x0 DUP1 REVERT JUMPDEST PUSH1 0x0 DUP1 REVERT JUMPDEST PUSH1 0x0 DUP1 REVERT JUMPDEST PUSH1 0x0 DUP1 DUP4 PUSH1 0x1F DUP5 ADD SLT PUSH2 0x17E0 JUMPI PUSH2 0x17DF PUSH2 0x17BB JUMP JUMPDEST JUMPDEST DUP3 CALLDATALOAD SWAP1 POP PUSH8 0xFFFFFFFFFFFFFFFF DUP2 GT ISZERO PUSH2 0x17FD JUMPI PUSH2 0x17FC PUSH2 0x17C0 JUMP JUMPDEST JUMPDEST PUSH1 0x20 DUP4 ADD SWAP2 POP DUP4 PUSH1 0x20 DUP3 MUL DUP4 ADD GT ISZERO PUSH2 0x1819 JUMPI PUSH2 0x1818 PUSH2 0x17C5 JUMP JUMPDEST JUMPDEST SWAP3 POP SWAP3 SWAP1 POP JUMP JUMPDEST PUSH1 0x0 DUP1 PUSH1 0x0 DUP1 PUSH1 0x0 DUP1 PUSH1 0x80 DUP8 DUP10 SUB SLT ISZERO PUSH2 0x183D JUMPI PUSH2 0x183C PUSH2 0x162D JUMP JUMPDEST JUMPDEST PUSH1 0x0 PUSH2 0x184B DUP10 DUP3 DUP11 ADD PUSH2 0x165E JUMP JUMPDEST SWAP7 POP POP PUSH1 0x20 PUSH2 0x185C DUP10 DUP3 DUP11 ADD PUSH2 0x17A6 JUMP JUMPDEST SWAP6 POP POP PUSH1 0x40 DUP8 ADD CALLDATALOAD PUSH8 0xFFFFFFFFFFFFFFFF DUP2 GT ISZERO PUSH2 0x187D JUMPI PUSH2 0x187C PUSH2 0x1632 JUMP JUMPDEST JUMPDEST PUSH2 0x1889 DUP10 DUP3 DUP11 ADD PUSH2 0x17CA JUMP JUMPDEST SWAP5 POP SWAP5 POP POP PUSH1 0x60 DUP8 ADD CALLDATALOAD PUSH8 0xFFFFFFFFFFFFFFFF DUP2 GT ISZERO PUSH2 0x18AC JUMPI PUSH2 0x18AB PUSH2 0x1632 JUMP JUMPDEST JUMPDEST PUSH2 0x18B8 DUP10 DUP3 DUP11 ADD PUSH2 0x17CA JUMP JUMPDEST SWAP3 POP SWAP3 POP POP SWAP3 SWAP6 POP SWAP3 SWAP6 POP SWAP3 SWAP6 JUMP JUMPDEST PUSH1 0x0 DUP1 PUSH1 0x40 DUP4 DUP6 SUB SLT ISZERO PUSH2 0x18DE JUMPI PUSH2 0x18DD PUSH2 0x162D JUMP JUMPDEST JUMPDEST PUSH1 0x0 PUSH2 0x18EC DUP6 DUP3 DUP7 ADD PUSH2 0x16FD JUMP JUMPDEST SWAP3 POP POP PUSH1 0x20 PUSH2 0x18FD DUP6 DUP3 DUP7 ADD PUSH2 0x17A6 JUMP JUMPDEST SWAP2 POP POP SWAP3 POP SWAP3 SWAP1 POP JUMP JUMPDEST PUSH1 0x0 PUSH1 0x20 DUP3 DUP5 SUB SLT ISZERO PUSH2 0x191D JUMPI PUSH2 0x191C PUSH2 0x162D JUMP JUMPDEST JUMPDEST PUSH1 0x0 PUSH2 0x192B DUP5 DUP3 DUP6 ADD PUSH2 0x16FD JUMP JUMPDEST SWAP2 POP POP SWAP3 SWAP2 POP POP JUMP JUMPDEST PUSH32 0x4E487B7100000000000000000000000000000000000000000000000000000000 PUSH1 0x0 MSTORE PUSH1 0x11 PUSH1 0x4 MSTORE PUSH1 0x24 PUSH1 0x0 REVERT JUMPDEST PUSH1 0x0 PUSH2 0x196E DUP3 PUSH2 0x16A0 JUMP JUMPDEST SWAP2 POP PUSH2 0x1979 DUP4 PUSH2 0x16A0 JUMP JUMPDEST SWAP3 POP DUP3 DUP3 MUL PUSH2 0x1987 DUP2 PUSH2 0x16A0 JUMP JUMPDEST SWAP2 POP DUP3 DUP3 DIV DUP5 EQ DUP4 ISZERO OR PUSH2 0x199E JUMPI PUSH2 0x199D PUSH2 0x1934 JUMP JUMPDEST JUMPDEST POP SWAP3 SWAP2 POP POP JUMP JUMPDEST PUSH1 0x0 PUSH1 0x40 DUP3 ADD SWAP1 POP PUSH2 0x19BA PUSH1 0x0 DUP4 ADD DUP6 PUSH2 0x1765 JUMP JUMPDEST PUSH2 0x19C7 PUSH1 0x20 DUP4 ADD DUP5 PUSH2 0x1765 JUMP JUMPDEST SWAP4 SWAP3 POP POP POP JUMP JUMPDEST PUSH1 0x0 DUP2 MLOAD SWAP1 POP PUSH2 0x19DD DUP2 PUSH2 0x178F JUMP JUMPDEST SWAP3 SWAP2 POP POP JUMP JUMPDEST PUSH1 0x0 PUSH1 0x20 DUP3 DUP5 SUB SLT ISZERO PUSH2 0x19F9 JUMPI PUSH2 0x19F8 PUSH2 0x162D JUMP JUMPDEST JUMPDEST PUSH1 0x0 PUSH2 0x1A07 DUP5 DUP3 DUP6 ADD PUSH2 0x19CE JUMP JUMPDEST SWAP2 POP POP SWAP3 SWAP2 POP POP JUMP JUMPDEST PUSH32 0x4E487B7100000000000000000000000000000000000000000000000000000000 PUSH1 0x0 MSTORE PUSH1 0x41 PUSH1 0x4 MSTORE PUSH1 0x24 PUSH1 0x0 REVERT JUMPDEST PUSH32 0x4E487B7100000000000000000000000000000000000000000000000000000000 PUSH1 0x0 MSTORE PUSH1 0x32 PUSH1 0x4 MSTORE PUSH1 0x24 PUSH1 0x0 REVERT JUMPDEST PUSH1 0x0 PUSH2 0x1A79 DUP3 PUSH2 0x1637 JUMP JUMPDEST SWAP2 POP PUSH2 0x1A84 DUP4 PUSH2 0x1637 JUMP JUMPDEST SWAP3 POP DUP3 DUP3 MUL PUSH2 0x1A92 DUP2 PUSH2 0x1637 JUMP JUMPDEST SWAP2 POP DUP1 DUP3 EQ PUSH2 0x1AA4 JUMPI PUSH2 0x1AA3 PUSH2 0x1934 JUMP JUMPDEST JUMPDEST POP SWAP3 SWAP2 POP POP JUMP JUMPDEST PUSH1 0x0 PUSH2 0x1AB6 DUP3 PUSH2 0x1637 JUMP JUMPDEST SWAP2 POP PUSH2 0x1AC1 DUP4 PUSH2 0x1637 JUMP JUMPDEST SWAP3 POP DUP3 DUP3 ADD SWAP1 POP PUSH4 0xFFFFFFFF DUP2 GT ISZERO PUSH2 0x1ADD JUMPI PUSH2 0x1ADC PUSH2 0x1934 JUMP JUMPDEST JUMPDEST SWAP3 SWAP2 POP POP JUMP JUMPDEST PUSH1 0x0 DUP2 SWAP1 POP SWAP2 SWAP1 POP JUMP JUMPDEST PUSH2 0x1AF6 DUP2 PUSH2 0x1AE3 JUMP JUMPDEST DUP2 EQ PUSH2 0x1B01 JUMPI PUSH1 0x0 DUP1 REVERT JUMPDEST POP JUMP JUMPDEST PUSH1 0x0 DUP2 MLOAD SWAP1 POP PUSH2 0x1B13 DUP2 PUSH2 0x1AED JUMP JUMPDEST SWAP3 SWAP2 POP POP JUMP JUMPDEST PUSH1 0x0 PUSH1 0x20 DUP3 DUP5 SUB SLT ISZERO PUSH2 0x1B2F JUMPI PUSH2 0x1B2E PUSH2 0x162D JUMP JUMPDEST JUMPDEST PUSH1 0x0 PUSH2 0x1B3D DUP5 DUP3 DUP6 ADD PUSH2 0x1B04 JUMP JUMPDEST SWAP2 POP POP SWAP3 SWAP2 POP POP JUMP JUMPDEST PUSH2 0x1B4F DUP2 PUSH2 0x1AE3 JUMP JUMPDEST DUP3 MSTORE POP POP JUMP JUMPDEST PUSH1 0x0 PUSH1 0x20 DUP3 ADD SWAP1 POP PUSH2 0x1B6A PUSH1 0x0 DUP4 ADD DUP5 PUSH2 0x1B46 JUMP JUMPDEST SWAP3 SWAP2 POP POP JUMP JUMPDEST PUSH1 0x0 DUP2 MLOAD SWAP1 POP PUSH2 0x1B7F DUP2 PUSH2 0x16E6 JUMP JUMPDEST SWAP3 SWAP2 POP POP JUMP JUMPDEST PUSH1 0x0 PUSH1 0x20 DUP3 DUP5 SUB SLT ISZERO PUSH2 0x1B9B JUMPI PUSH2 0x1B9A PUSH2 0x162D JUMP JUMPDEST JUMPDEST PUSH1 0x0 PUSH2 0x1BA9 DUP5 DUP3 DUP6 ADD PUSH2 0x1B70 JUMP JUMPDEST SWAP2 POP POP SWAP3 SWAP2 POP POP JUMP JUMPDEST PUSH32 0x4E487B7100000000000000000000000000000000000000000000000000000000 PUSH1 0x0 MSTORE PUSH1 0x12 PUSH1 0x4 MSTORE PUSH1 0x24 PUSH1 0x0 REVERT JUMPDEST PUSH1 0x0 PUSH2 0x1BEC DUP3 PUSH2 0x16A0 JUMP JUMPDEST SWAP2 POP PUSH2 0x1BF7 DUP4 PUSH2 0x16A0 JUMP JUMPDEST SWAP3 POP DUP3 PUSH2 0x1C07 JUMPI PUSH2 0x1C06 PUSH2 0x1BB2 JUMP JUMPDEST JUMPDEST DUP3 DUP3 DIV SWAP1 POP SWAP3 SWAP2 POP POP JUMP JUMPDEST PUSH1 0x0 PUSH1 0x60 DUP3 ADD SWAP1 POP PUSH2 0x1C27 PUSH1 0x0 DUP4 ADD DUP7 PUSH2 0x1765 JUMP JUMPDEST PUSH2 0x1C34 PUSH1 0x20 DUP4 ADD DUP6 PUSH2 0x1765 JUMP JUMPDEST PUSH2 0x1C41 PUSH1 0x40 DUP4 ADD DUP5 PUSH2 0x16AA JUMP JUMPDEST SWAP5 SWAP4 POP POP POP POP JUMP JUMPDEST PUSH1 0x0 DUP2 ISZERO ISZERO SWAP1 POP SWAP2 SWAP1 POP JUMP JUMPDEST PUSH2 0x1C5E DUP2 PUSH2 0x1C49 JUMP JUMPDEST DUP2 EQ PUSH2 0x1C69 JUMPI PUSH1 0x0 DUP1 REVERT JUMPDEST POP JUMP JUMPDEST PUSH1 0x0 DUP2 MLOAD SWAP1 POP PUSH2 0x1C7B DUP2 PUSH2 0x1C55 JUMP JUMPDEST SWAP3 SWAP2 POP POP JUMP JUMPDEST PUSH1 0x0 PUSH1 0x20 DUP3 DUP5 SUB SLT ISZERO PUSH2 0x1C97 JUMPI PUSH2 0x1C96 PUSH2 0x162D JUMP JUMPDEST JUMPDEST PUSH1 0x0 PUSH2 0x1CA5 DUP5 DUP3 DUP6 ADD PUSH2 0x1C6C JUMP JUMPDEST SWAP2 POP POP SWAP3 SWAP2 POP POP JUMP JUMPDEST PUSH1 0x0 PUSH2 0x1CC9 PUSH2 0x1CC4 PUSH2 0x1CBF DUP5 PUSH2 0x1637 JUMP JUMPDEST PUSH2 0x1577 JUMP JUMPDEST PUSH2 0x16A0 JUMP JUMPDEST SWAP1 POP SWAP2 SWAP1 POP JUMP JUMPDEST PUSH2 0x1CD9 DUP2 PUSH2 0x1CAE JUMP JUMPDEST DUP3 MSTORE POP POP JUMP JUMPDEST PUSH1 0x0 PUSH1 0x60 DUP3 ADD SWAP1 POP PUSH2 0x1CF4 PUSH1 0x0 DUP4 ADD DUP7 PUSH2 0x1765 JUMP JUMPDEST PUSH2 0x1D01 PUSH1 0x20 DUP4 ADD DUP6 PUSH2 0x16AA JUMP JUMPDEST PUSH2 0x1D0E PUSH1 0x40 DUP4 ADD DUP5 PUSH2 0x1CD0 JUMP JUMPDEST SWAP5 SWAP4 POP POP POP POP JUMP JUMPDEST PUSH2 0x1D1F DUP2 PUSH2 0x1637 JUMP JUMPDEST DUP3 MSTORE POP POP JUMP JUMPDEST PUSH1 0x0 PUSH1 0x80 DUP3 ADD SWAP1 POP PUSH2 0x1D3A PUSH1 0x0 DUP4 ADD DUP8 PUSH2 0x1765 JUMP JUMPDEST PUSH2 0x1D47 PUSH1 0x20 DUP4 ADD DUP7 PUSH2 0x1765 JUMP JUMPDEST PUSH2 0x1D54 PUSH1 0x40 DUP4 ADD DUP6 PUSH2 0x16AA JUMP JUMPDEST PUSH2 0x1D61 PUSH1 0x60 DUP4 ADD DUP5 PUSH2 0x1D16 JUMP JUMPDEST SWAP6 SWAP5 POP POP POP POP POP JUMP JUMPDEST PUSH1 0x0 DUP2 SLOAD SWAP1 POP SWAP2 SWAP1 POP JUMP JUMPDEST PUSH1 0x0 DUP3 DUP3 MSTORE PUSH1 0x20 DUP3 ADD SWAP1 POP SWAP3 SWAP2 POP POP JUMP JUMPDEST PUSH1 0x0 DUP2 SWAP1 POP DUP2 PUSH1 0x0 MSTORE PUSH1 0x20 PUSH1 0x0 KECCAK256 SWAP1 POP SWAP2 SWAP1 POP JUMP JUMPDEST PUSH2 0x1DA4 DUP2 PUSH2 0x1637 JUMP JUMPDEST DUP3 MSTORE POP POP JUMP JUMPDEST PUSH1 0x0 DUP2 PUSH1 0x0 SHR SWAP1 POP SWAP2 SWAP1 POP JUMP JUMPDEST PUSH1 0x0 PUSH4 0xFFFFFFFF DUP3 AND SWAP1 POP SWAP2 SWAP1 POP JUMP JUMPDEST PUSH1 0x0 PUSH2 0x1DDA PUSH2 0x1DD5 DUP4 PUSH2 0x1DAA JUMP JUMPDEST PUSH2 0x1DB7 JUMP JUMPDEST SWAP1 POP SWAP2 SWAP1 POP JUMP JUMPDEST PUSH1 0x0 DUP2 PUSH1 0x20 SHR SWAP1 POP SWAP2 SWAP1 POP JUMP JUMPDEST PUSH1 0x0 PUSH2 0x1E01 PUSH2 0x1DFC DUP4 PUSH2 0x1DE1 JUMP JUMPDEST PUSH2 0x1DB7 JUMP JUMPDEST SWAP1 POP SWAP2 SWAP1 POP JUMP JUMPDEST PUSH1 0x0 DUP2 PUSH1 0x40 SHR SWAP1 POP SWAP2 SWAP1 POP JUMP JUMPDEST PUSH1 0x0 PUSH2 0x1E28 PUSH2 0x1E23 DUP4 PUSH2 0x1E08 JUMP JUMPDEST PUSH2 0x1DB7 JUMP JUMPDEST SWAP1 POP SWAP2 SWAP1 POP JUMP JUMPDEST PUSH1 0x0 DUP2 PUSH1 0x60 SHR SWAP1 POP SWAP2 SWAP1 POP JUMP JUMPDEST PUSH1 0x0 PUSH2 0x1E4F PUSH2 0x1E4A DUP4 PUSH2 0x1E2F JUMP JUMPDEST PUSH2 0x1DB7 JUMP JUMPDEST SWAP1 POP SWAP2 SWAP1 POP JUMP JUMPDEST PUSH1 0x0 DUP2 PUSH1 0x80 SHR SWAP1 POP SWAP2 SWAP1 POP JUMP JUMPDEST PUSH1 0x0 PUSH2 0x1E76 PUSH2 0x1E71 DUP4 PUSH2 0x1E56 JUMP JUMPDEST PUSH2 0x1DB7 JUMP JUMPDEST SWAP1 POP SWAP2 SWAP1 POP JUMP JUMPDEST PUSH1 0x0 DUP2 PUSH1 0xA0 SHR SWAP1 POP SWAP2 SWAP1 POP JUMP JUMPDEST PUSH1 0x0 PUSH2 0x1E9D PUSH2 0x1E98 DUP4 PUSH2 0x1E7D JUMP JUMPDEST PUSH2 0x1DB7 JUMP JUMPDEST SWAP1 POP SWAP2 SWAP1 POP JUMP JUMPDEST PUSH1 0x0 DUP2 PUSH1 0xC0 SHR SWAP1 POP SWAP2 SWAP1 POP JUMP JUMPDEST PUSH1 0x0 PUSH2 0x1EC4 PUSH2 0x1EBF DUP4 PUSH2 0x1EA4 JUMP JUMPDEST PUSH2 0x1DB7 JUMP JUMPDEST SWAP1 POP SWAP2 SWAP1 POP JUMP JUMPDEST PUSH1 0x0 DUP2 PUSH1 0xE0 SHR SWAP1 POP SWAP2 SWAP1 POP JUMP JUMPDEST PUSH1 0x0 PUSH2 0x1EEB PUSH2 0x1EE6 DUP4 PUSH2 0x1ECB JUMP JUMPDEST PUSH2 0x1DB7 JUMP JUMPDEST SWAP1 POP SWAP2 SWAP1 POP JUMP JUMPDEST PUSH1 0x0 PUSH2 0x1EFD DUP3 PUSH2 0x1D6A JUMP JUMPDEST PUSH2 0x1F07 DUP2 DUP6 PUSH2 0x1D75 JUMP JUMPDEST SWAP4 POP DUP4 PUSH2 0x1F13 DUP5 PUSH2 0x1D86 JUMP JUMPDEST PUSH1 0x0 PUSH1 0x1 ISZERO PUSH2 0x2000 JUMPI JUMPDEST DUP4 PUSH1 0x1 PUSH1 0x8 SUB DUP3 ADD LT ISZERO PUSH2 0x1FFF JUMPI DUP2 SLOAD PUSH2 0x1F3F DUP9 PUSH2 0x1F3A DUP4 PUSH2 0x1DC7 JUMP JUMPDEST PUSH2 0x1D9B JUMP JUMPDEST PUSH1 0x20 DUP9 ADD SWAP8 POP PUSH2 0x1F57 DUP9 PUSH2 0x1F52 DUP4 PUSH2 0x1DEE JUMP JUMPDEST PUSH2 0x1D9B JUMP JUMPDEST PUSH1 0x20 DUP9 ADD SWAP8 POP PUSH2 0x1F6F DUP9 PUSH2 0x1F6A DUP4 PUSH2 0x1E15 JUMP JUMPDEST PUSH2 0x1D9B JUMP JUMPDEST PUSH1 0x20 DUP9 ADD SWAP8 POP PUSH2 0x1F87 DUP9 PUSH2 0x1F82 DUP4 PUSH2 0x1E3C JUMP JUMPDEST PUSH2 0x1D9B JUMP JUMPDEST PUSH1 0x20 DUP9 ADD SWAP8 POP PUSH2 0x1F9F DUP9 PUSH2 0x1F9A DUP4 PUSH2 0x1E63 JUMP JUMPDEST PUSH2 0x1D9B JUMP JUMPDEST PUSH1 0x20 DUP9 ADD SWAP8 POP PUSH2 0x1FB7 DUP9 PUSH2 0x1FB2 DUP4 PUSH2 0x1E8A JUMP JUMPDEST PUSH2 0x1D9B JUMP JUMPDEST PUSH1 0x20 DUP9 ADD SWAP8 POP PUSH2 0x1FCF DUP9 PUSH2 0x1FCA DUP4 PUSH2 0x1EB1 JUMP JUMPDEST PUSH2 0x1D9B JUMP JUMPDEST PUSH1 0x20 DUP9 ADD SWAP8 POP PUSH2 0x1FE7 DUP9 PUSH2 0x1FE2 DUP4 PUSH2 0x1ED8 JUMP JUMPDEST PUSH2 0x1D9B JUMP JUMPDEST PUSH1 0x20 DUP9 ADD SWAP8 POP PUSH1 0x1 DUP4 ADD SWAP3 POP POP PUSH1 0x8 DUP2 ADD SWAP1 POP PUSH2 0x1F1D JUMP JUMPDEST JUMPDEST PUSH1 0x1 ISZERO PUSH2 0x2143 JUMPI DUP2 SLOAD DUP5 DUP3 LT ISZERO PUSH2 0x2030 JUMPI PUSH2 0x2023 DUP9 PUSH2 0x201E DUP4 PUSH2 0x1DC7 JUMP JUMPDEST PUSH2 0x1D9B JUMP JUMPDEST PUSH1 0x20 DUP9 ADD SWAP8 POP PUSH1 0x1 DUP3 ADD SWAP2 POP JUMPDEST DUP5 DUP3 LT ISZERO PUSH2 0x2057 JUMPI PUSH2 0x204A DUP9 PUSH2 0x2045 DUP4 PUSH2 0x1DEE JUMP JUMPDEST PUSH2 0x1D9B JUMP JUMPDEST PUSH1 0x20 DUP9 ADD SWAP8 POP PUSH1 0x1 DUP3 ADD SWAP2 POP JUMPDEST DUP5 DUP3 LT ISZERO PUSH2 0x207E JUMPI PUSH2 0x2071 DUP9 PUSH2 0x206C DUP4 PUSH2 0x1E15 JUMP JUMPDEST PUSH2 0x1D9B JUMP JUMPDEST PUSH1 0x20 DUP9 ADD SWAP8 POP PUSH1 0x1 DUP3 ADD SWAP2 POP JUMPDEST DUP5 DUP3 LT ISZERO PUSH2 0x20A5 JUMPI PUSH2 0x2098 DUP9 PUSH2 0x2093 DUP4 PUSH2 0x1E3C JUMP JUMPDEST PUSH2 0x1D9B JUMP JUMPDEST PUSH1 0x20 DUP9 ADD SWAP8 POP PUSH1 0x1 DUP3 ADD SWAP2 POP JUMPDEST DUP5 DUP3 LT ISZERO PUSH2 0x20CC JUMPI PUSH2 0x20BF DUP9 PUSH2 0x20BA DUP4 PUSH2 0x1E63 JUMP JUMPDEST PUSH2 0x1D9B JUMP JUMPDEST PUSH1 0x20 DUP9 ADD SWAP8 POP PUSH1 0x1 DUP3 ADD SWAP2 POP JUMPDEST DUP5 DUP3 LT ISZERO PUSH2 0x20F3 JUMPI PUSH2 0x20E6 DUP9 PUSH2 0x20E1 DUP4 PUSH2 0x1E8A JUMP JUMPDEST PUSH2 0x1D9B JUMP JUMPDEST PUSH1 0x20 DUP9 ADD SWAP8 POP PUSH1 0x1 DUP3 ADD SWAP2 POP JUMPDEST DUP5 DUP3 LT ISZERO PUSH2 0x211A JUMPI PUSH2 0x210D DUP9 PUSH2 0x2108 DUP4 PUSH2 0x1EB1 JUMP JUMPDEST PUSH2 0x1D9B JUMP JUMPDEST PUSH1 0x20 DUP9 ADD SWAP8 POP PUSH1 0x1 DUP3 ADD SWAP2 POP JUMPDEST DUP5 DUP3 LT ISZERO PUSH2 0x2141 JUMPI PUSH2 0x2134 DUP9 PUSH2 0x212F DUP4 PUSH2 0x1ED8 JUMP JUMPDEST PUSH2 0x1D9B JUMP JUMPDEST PUSH1 0x20 DUP9 ADD SWAP8 POP PUSH1 0x1 DUP3 ADD SWAP2 POP JUMPDEST POP JUMPDEST DUP7 SWAP5 POP POP POP POP POP SWAP3 SWAP2 POP POP JUMP JUMPDEST PUSH1 0x0 DUP2 MLOAD SWAP1 POP SWAP2 SWAP1 POP JUMP JUMPDEST PUSH1 0x0 DUP2 SWAP1 POP PUSH1 0x20 DUP3 ADD SWAP1 POP SWAP2 SWAP1 POP JUMP JUMPDEST PUSH1 0x0 PUSH2 0x2177 DUP4 DUP4 PUSH2 0x1D9B JUMP JUMPDEST PUSH1 0x20 DUP4 ADD SWAP1 POP SWAP3 SWAP2 POP POP JUMP JUMPDEST PUSH1 0x0 PUSH1 0x20 DUP3 ADD SWAP1 POP SWAP2 SWAP1 POP JUMP JUMPDEST PUSH1 0x0 PUSH2 0x219B DUP3 PUSH2 0x2150 JUMP JUMPDEST PUSH2 0x21A5 DUP2 DUP6 PUSH2 0x1D75 JUMP JUMPDEST SWAP4 POP PUSH2 0x21B0 DUP4 PUSH2 0x215B JUMP JUMPDEST DUP1 PUSH1 0x0 JUMPDEST DUP4 DUP2 LT ISZERO PUSH2 0x21E1 JUMPI DUP2 MLOAD PUSH2 0x21C8 DUP9 DUP3 PUSH2 0x216B JUMP JUMPDEST SWAP8 POP PUSH2 0x21D3 DUP4 PUSH2 0x2183 JUMP JUMPDEST SWAP3 POP POP PUSH1 0x1 DUP2 ADD SWAP1 POP PUSH2 0x21B4 JUMP JUMPDEST POP DUP6 SWAP4 POP POP POP POP SWAP3 SWAP2 POP POP JUMP JUMPDEST PUSH1 0x0 PUSH1 0x60 DUP3 ADD SWAP1 POP PUSH2 0x2203 PUSH1 0x0 DUP4 ADD DUP7 PUSH2 0x1765 JUMP JUMPDEST DUP2 DUP2 SUB PUSH1 0x20 DUP4 ADD MSTORE PUSH2 0x2215 DUP2 DUP6 PUSH2 0x1EF2 JUMP JUMPDEST SWAP1 POP DUP2 DUP2 SUB PUSH1 0x40 DUP4 ADD MSTORE PUSH2 0x2229 DUP2 DUP5 PUSH2 0x2190 JUMP JUMPDEST SWAP1 POP SWAP5 SWAP4 POP POP POP POP JUMP JUMPDEST PUSH1 0x0 PUSH1 0x20 DUP3 ADD SWAP1 POP PUSH2 0x2248 PUSH1 0x0 DUP4 ADD DUP5 PUSH2 0x1D16 JUMP JUMPDEST SWAP3 SWAP2 POP POP JUMP JUMPDEST PUSH1 0x0 PUSH1 0x40 DUP3 ADD SWAP1 POP PUSH2 0x2263 PUSH1 0x0 DUP4 ADD DUP6 PUSH2 0x1765 JUMP JUMPDEST PUSH2 0x2270 PUSH1 0x20 DUP4 ADD DUP5 PUSH2 0x16AA JUMP JUMPDEST SWAP4 SWAP3 POP POP POP JUMP INVALID LOG2 PUSH5 0x6970667358 0x22 SLT KECCAK256 PUSH24 0xE6F729AF2E119EEC4977878D794B5F9420D53376D42CFFB7 0xAC 0xD6 BASEFEE PUSH24 0xD7774764736F6C6343000817003300000000000000000000 "
				},
				"gasEstimates": {
					"creation": {
						"codeDepositCost": "1775400",
						"executionCost": "infinite",
						"totalCost": "infinite"
					},
					"external": {
						"owner()": "2544",
						"packsInfo(uint32)": "2830",
						"paymentToken()": "infinite",
						"purchasePack(uint32,uint32,address)": "infinite",
						"register()": "infinite",
						"renounceOwnership()": "infinite",
						"setPack(uint32,uint256,uint32[],uint32[])": "infinite",
						"totalAmount(address)": "2902",
						"transferOwnership(address)": "infinite",
						"withdrawFunds(address,uint256)": "infinite",
						"withdrawNative()": "infinite"
					}
				},
				"methodIdentifiers": {
					"owner()": "8da5cb5b",
					"packsInfo(uint32)": "4718f6f9",
					"paymentToken()": "3013ce29",
					"purchasePack(uint32,uint32,address)": "51793665",
					"register()": "1aa3a008",
					"renounceOwnership()": "715018a6",
					"setPack(uint32,uint256,uint32[],uint32[])": "a5410136",
					"totalAmount(address)": "d72b9da2",
					"transferOwnership(address)": "f2fde38b",
					"withdrawFunds(address,uint256)": "c1075329",
					"withdrawNative()": "50431ce4"
				}
			},
			"storageLayout": {
				"storage": [
					{
						"astId": 387,
						"contract": "contracts/periphery/MarketplaceExample.sol:MarketplaceReceiver",
						"label": "_owner",
						"offset": 0,
						"slot": "0",
						"type": "t_address"
					},
					{
						"astId": 2150,
						"contract": "contracts/periphery/MarketplaceExample.sol:MarketplaceReceiver",
						"label": "totalAmount",
						"offset": 0,
						"slot": "1",
						"type": "t_mapping(t_address,t_uint256)"
					},
					{
						"astId": 2155,
						"contract": "contracts/periphery/MarketplaceExample.sol:MarketplaceReceiver",
						"label": "packsInfo",
						"offset": 0,
						"slot": "2",
						"type": "t_mapping(t_uint32,t_struct(PackInfo)1806_storage)"
					},
					{
						"astId": 2158,
						"contract": "contracts/periphery/MarketplaceExample.sol:MarketplaceReceiver",
						"label": "paymentToken",
						"offset": 0,
						"slot": "3",
						"type": "t_contract(ERC20)1178"
					},
					{
						"astId": 2161,
						"contract": "contracts/periphery/MarketplaceExample.sol:MarketplaceReceiver",
						"label": "register",
						"offset": 0,
						"slot": "4",
						"type": "t_contract(Register)2624"
					}
				],
				"types": {
					"t_address": {
						"encoding": "inplace",
						"label": "address",
						"numberOfBytes": "20"
					},
					"t_array(t_uint32)dyn_storage": {
						"base": "t_uint32",
						"encoding": "dynamic_array",
						"label": "uint32[]",
						"numberOfBytes": "32"
					},
					"t_contract(ERC20)1178": {
						"encoding": "inplace",
						"label": "contract ERC20",
						"numberOfBytes": "20"
					},
					"t_contract(Register)2624": {
						"encoding": "inplace",
						"label": "contract Register",
						"numberOfBytes": "20"
					},
					"t_mapping(t_address,t_uint256)": {
						"encoding": "mapping",
						"key": "t_address",
						"label": "mapping(address => uint256)",
						"numberOfBytes": "32",
						"value": "t_uint256"
					},
					"t_mapping(t_uint32,t_struct(PackInfo)1806_storage)": {
						"encoding": "mapping",
						"key": "t_uint32",
						"label": "mapping(uint32 => struct IMarketplace.PackInfo)",
						"numberOfBytes": "32",
						"value": "t_struct(PackInfo)1806_storage"
					},
					"t_struct(PackInfo)1806_storage": {
						"encoding": "inplace",
						"label": "struct IMarketplace.PackInfo",
						"members": [
							{
								"astId": 1799,
								"contract": "contracts/periphery/MarketplaceExample.sol:MarketplaceReceiver",
								"label": "basePrice",
								"offset": 0,
								"slot": "0",
								"type": "t_uint256"
							},
							{
								"astId": 1802,
								"contract": "contracts/periphery/MarketplaceExample.sol:MarketplaceReceiver",
								"label": "poolsID",
								"offset": 0,
								"slot": "1",
								"type": "t_array(t_uint32)dyn_storage"
							},
							{
								"astId": 1805,
								"contract": "contracts/periphery/MarketplaceExample.sol:MarketplaceReceiver",
								"label": "amounts",
								"offset": 0,
								"slot": "2",
								"type": "t_array(t_uint32)dyn_storage"
							}
						],
						"numberOfBytes": "96"
					},
					"t_uint256": {
						"encoding": "inplace",
						"label": "uint256",
						"numberOfBytes": "32"
					},
					"t_uint32": {
						"encoding": "inplace",
						"label": "uint32",
						"numberOfBytes": "4"
					}
				}
			},
			"userdoc": {
				"kind": "user",
				"methods": {
					"purchasePack(uint32,uint32,address)": {
						"notice": "purchase a pack"
					},
					"withdrawNative()": {
						"notice": "Function to withdraw Native from the contract"
					}
				},
				"version": 1
			}
		}
	}
}