{
	"contracts/periphery/Jackpot.sol": {
		"Jackpot": {
			"abi": [
				{
					"inputs": [
						{
							"internalType": "address",
							"name": "_initialAdmin",
							"type": "address"
						},
						{
							"internalType": "address",
							"name": "_paymentToken",
							"type": "address"
						},
						{
							"internalType": "address",
							"name": "_myNFT",
							"type": "address"
						},
						{
							"internalType": "uint32[]",
							"name": "_collectedCardsID",
							"type": "uint32[]"
						}
					],
					"stateMutability": "nonpayable",
					"type": "constructor"
				},
				{
					"inputs": [],
					"name": "EmptyJackpot",
					"type": "error"
				},
				{
					"inputs": [],
					"name": "InvalidAddress",
					"type": "error"
				},
				{
					"inputs": [],
					"name": "InvalidAmount",
					"type": "error"
				},
				{
					"inputs": [],
					"name": "InvalidValue",
					"type": "error"
				},
				{
					"inputs": [],
					"name": "NotCollectedCards",
					"type": "error"
				},
				{
					"inputs": [
						{
							"internalType": "address",
							"name": "owner",
							"type": "address"
						}
					],
					"name": "OwnableInvalidOwner",
					"type": "error"
				},
				{
					"inputs": [
						{
							"internalType": "address",
							"name": "account",
							"type": "address"
						}
					],
					"name": "OwnableUnauthorizedAccount",
					"type": "error"
				},
				{
					"anonymous": false,
					"inputs": [
						{
							"indexed": true,
							"internalType": "address",
							"name": "user",
							"type": "address"
						},
						{
							"indexed": false,
							"internalType": "uint256",
							"name": "value",
							"type": "uint256"
						}
					],
					"name": "JackpotClaim",
					"type": "event"
				},
				{
					"anonymous": false,
					"inputs": [
						{
							"indexed": true,
							"internalType": "address",
							"name": "previousOwner",
							"type": "address"
						},
						{
							"indexed": true,
							"internalType": "address",
							"name": "newOwner",
							"type": "address"
						}
					],
					"name": "OwnershipTransferred",
					"type": "event"
				},
				{
					"inputs": [],
					"name": "claim",
					"outputs": [],
					"stateMutability": "nonpayable",
					"type": "function"
				},
				{
					"inputs": [
						{
							"internalType": "uint256",
							"name": "",
							"type": "uint256"
						}
					],
					"name": "collectedCardsID",
					"outputs": [
						{
							"internalType": "uint32",
							"name": "",
							"type": "uint32"
						}
					],
					"stateMutability": "view",
					"type": "function"
				},
				{
					"inputs": [],
					"name": "getCollectedCardsID",
					"outputs": [
						{
							"internalType": "uint32[]",
							"name": "cardsID",
							"type": "uint32[]"
						}
					],
					"stateMutability": "view",
					"type": "function"
				},
				{
					"inputs": [],
					"name": "getTotalValue",
					"outputs": [
						{
							"internalType": "uint256",
							"name": "value",
							"type": "uint256"
						}
					],
					"stateMutability": "view",
					"type": "function"
				},
				{
					"inputs": [],
					"name": "myNFT",
					"outputs": [
						{
							"internalType": "contract IMyNFT",
							"name": "",
							"type": "address"
						}
					],
					"stateMutability": "view",
					"type": "function"
				},
				{
					"inputs": [],
					"name": "owner",
					"outputs": [
						{
							"internalType": "address",
							"name": "",
							"type": "address"
						}
					],
					"stateMutability": "view",
					"type": "function"
				},
				{
					"inputs": [],
					"name": "paymentToken",
					"outputs": [
						{
							"internalType": "contract ERC20",
							"name": "",
							"type": "address"
						}
					],
					"stateMutability": "view",
					"type": "function"
				},
				{
					"inputs": [],
					"name": "renounceOwnership",
					"outputs": [],
					"stateMutability": "nonpayable",
					"type": "function"
				},
				{
					"inputs": [
						{
							"internalType": "uint32[]",
							"name": "_cardsID",
							"type": "uint32[]"
						}
					],
					"name": "setCollectedCardsID",
					"outputs": [],
					"stateMutability": "nonpayable",
					"type": "function"
				},
				{
					"inputs": [
						{
							"internalType": "address",
							"name": "newOwner",
							"type": "address"
						}
					],
					"name": "transferOwnership",
					"outputs": [],
					"stateMutability": "nonpayable",
					"type": "function"
				}
			],
			"devdoc": {
				"author": "SeekersAlliance",
				"errors": {
					"OwnableInvalidOwner(address)": [
						{
							"details": "The owner is not a valid owner account. (eg. `address(0)`)"
						}
					],
					"OwnableUnauthorizedAccount(address)": [
						{
							"details": "The caller account is not authorized to perform an operation."
						}
					]
				},
				"kind": "dev",
				"methods": {
					"owner()": {
						"details": "Returns the address of the current owner."
					},
					"renounceOwnership()": {
						"details": "Leaves the contract without owner. It will not be possible to call `onlyOwner` functions. Can only be called by the current owner. NOTE: Renouncing ownership will leave the contract without an owner, thereby disabling any functionality that is only available to the owner."
					},
					"setCollectedCardsID(uint32[])": {
						"params": {
							"_cardsID": "The cards ID"
						}
					},
					"transferOwnership(address)": {
						"details": "Transfers ownership of the contract to a new account (`newOwner`). Can only be called by the current owner."
					}
				},
				"version": 1
			},
			"evm": {
				"assembly": "    /* \"contracts/periphery/Jackpot.sol\":343:2485  contract Jackpot is Ownable, IJackpot{... */\n  mstore(0x40, 0x80)\n    /* \"contracts/periphery/Jackpot.sol\":490:798  constructor(... */\n  callvalue\n  dup1\n  iszero\n  tag_1\n  jumpi\n  0x00\n  dup1\n  revert\ntag_1:\n  pop\n  mload(0x40)\n  sub(codesize, bytecodeSize)\n  dup1\n  bytecodeSize\n  dup4\n  codecopy\n  dup2\n  dup2\n  add\n  0x40\n  mstore\n  dup2\n  add\n  swap1\n  tag_2\n  swap2\n  swap1\n  tag_3\n  jump\t// in\ntag_2:\n    /* \"contracts/periphery/Jackpot.sol\":650:663  _initialAdmin */\n  dup4\n    /* \"@openzeppelin/contracts/access/Ownable.sol\":1297:1298  0 */\n  0x00\n    /* \"@openzeppelin/contracts/access/Ownable.sol\":1273:1299  initialOwner == address(0) */\n  0xffffffffffffffffffffffffffffffffffffffff\n  and\n    /* \"@openzeppelin/contracts/access/Ownable.sol\":1273:1285  initialOwner */\n  dup2\n    /* \"@openzeppelin/contracts/access/Ownable.sol\":1273:1299  initialOwner == address(0) */\n  0xffffffffffffffffffffffffffffffffffffffff\n  and\n  sub\n    /* \"@openzeppelin/contracts/access/Ownable.sol\":1269:1364  if (initialOwner == address(0)) {... */\n  tag_7\n  jumpi\n    /* \"@openzeppelin/contracts/access/Ownable.sol\":1350:1351  0 */\n  0x00\n    /* \"@openzeppelin/contracts/access/Ownable.sol\":1322:1353  OwnableInvalidOwner(address(0)) */\n  mload(0x40)\n  0x1e4fbdf700000000000000000000000000000000000000000000000000000000\n  dup2\n  mstore\n  0x04\n  add\n  tag_8\n  swap2\n  swap1\n  tag_9\n  jump\t// in\ntag_8:\n  mload(0x40)\n  dup1\n  swap2\n  sub\n  swap1\n  revert\n    /* \"@openzeppelin/contracts/access/Ownable.sol\":1269:1364  if (initialOwner == address(0)) {... */\ntag_7:\n    /* \"@openzeppelin/contracts/access/Ownable.sol\":1373:1405  _transferOwnership(initialOwner) */\n  tag_10\n    /* \"@openzeppelin/contracts/access/Ownable.sol\":1392:1404  initialOwner */\n  dup2\n    /* \"@openzeppelin/contracts/access/Ownable.sol\":1373:1391  _transferOwnership */\n  shl(0x20, tag_11)\n    /* \"@openzeppelin/contracts/access/Ownable.sol\":1373:1405  _transferOwnership(initialOwner) */\n  0x20\n  shr\n  jump\t// in\ntag_10:\n    /* \"@openzeppelin/contracts/access/Ownable.sol\":1225:1412  constructor(address initialOwner) {... */\n  pop\n    /* \"contracts/periphery/Jackpot.sol\":696:709  _paymentToken */\n  dup3\n    /* \"contracts/periphery/Jackpot.sol\":675:687  paymentToken */\n  0x01\n  0x00\n    /* \"contracts/periphery/Jackpot.sol\":675:710  paymentToken = ERC20(_paymentToken) */\n  0x0100\n  exp\n  dup2\n  sload\n  dup2\n  0xffffffffffffffffffffffffffffffffffffffff\n  mul\n  not\n  and\n  swap1\n  dup4\n  0xffffffffffffffffffffffffffffffffffffffff\n  and\n  mul\n  or\n  swap1\n  sstore\n  pop\n    /* \"contracts/periphery/Jackpot.sol\":736:742  _myNFT */\n  dup2\n    /* \"contracts/periphery/Jackpot.sol\":721:726  myNFT */\n  0x02\n  0x00\n    /* \"contracts/periphery/Jackpot.sol\":721:743  myNFT = IMyNFT(_myNFT) */\n  0x0100\n  exp\n  dup2\n  sload\n  dup2\n  0xffffffffffffffffffffffffffffffffffffffff\n  mul\n  not\n  and\n  swap1\n  dup4\n  0xffffffffffffffffffffffffffffffffffffffff\n  and\n  mul\n  or\n  swap1\n  sstore\n  pop\n    /* \"contracts/periphery/Jackpot.sol\":773:790  _collectedCardsID */\n  dup1\n    /* \"contracts/periphery/Jackpot.sol\":754:770  collectedCardsID */\n  0x03\n    /* \"contracts/periphery/Jackpot.sol\":754:790  collectedCardsID = _collectedCardsID */\n  swap1\n  dup1\n  mload\n  swap1\n  0x20\n  add\n  swap1\n  tag_13\n  swap3\n  swap2\n  swap1\n  tag_14\n  jump\t// in\ntag_13:\n  pop\n    /* \"contracts/periphery/Jackpot.sol\":490:798  constructor(... */\n  pop\n  pop\n  pop\n  pop\n    /* \"contracts/periphery/Jackpot.sol\":343:2485  contract Jackpot is Ownable, IJackpot{... */\n  jump(tag_15)\n    /* \"@openzeppelin/contracts/access/Ownable.sol\":2912:3099  function _transferOwnership(address newOwner) internal virtual {... */\ntag_11:\n    /* \"@openzeppelin/contracts/access/Ownable.sol\":2985:3001  address oldOwner */\n  0x00\n    /* \"@openzeppelin/contracts/access/Ownable.sol\":3004:3010  _owner */\n  dup1\n  0x00\n  swap1\n  sload\n  swap1\n  0x0100\n  exp\n  swap1\n  div\n  0xffffffffffffffffffffffffffffffffffffffff\n  and\n    /* \"@openzeppelin/contracts/access/Ownable.sol\":2985:3010  address oldOwner = _owner */\n  swap1\n  pop\n    /* \"@openzeppelin/contracts/access/Ownable.sol\":3029:3037  newOwner */\n  dup2\n    /* \"@openzeppelin/contracts/access/Ownable.sol\":3020:3026  _owner */\n  0x00\n  dup1\n    /* \"@openzeppelin/contracts/access/Ownable.sol\":3020:3037  _owner = newOwner */\n  0x0100\n  exp\n  dup2\n  sload\n  dup2\n  0xffffffffffffffffffffffffffffffffffffffff\n  mul\n  not\n  and\n  swap1\n  dup4\n  0xffffffffffffffffffffffffffffffffffffffff\n  and\n  mul\n  or\n  swap1\n  sstore\n  pop\n    /* \"@openzeppelin/contracts/access/Ownable.sol\":3083:3091  newOwner */\n  dup2\n    /* \"@openzeppelin/contracts/access/Ownable.sol\":3052:3092  OwnershipTransferred(oldOwner, newOwner) */\n  0xffffffffffffffffffffffffffffffffffffffff\n  and\n    /* \"@openzeppelin/contracts/access/Ownable.sol\":3073:3081  oldOwner */\n  dup2\n    /* \"@openzeppelin/contracts/access/Ownable.sol\":3052:3092  OwnershipTransferred(oldOwner, newOwner) */\n  0xffffffffffffffffffffffffffffffffffffffff\n  and\n  0x8be0079c531659141344cd1fd0a4f28419497f9722a3daafe3b4186f6b6457e0\n  mload(0x40)\n  mload(0x40)\n  dup1\n  swap2\n  sub\n  swap1\n  log3\n    /* \"@openzeppelin/contracts/access/Ownable.sol\":2975:3099  {... */\n  pop\n    /* \"@openzeppelin/contracts/access/Ownable.sol\":2912:3099  function _transferOwnership(address newOwner) internal virtual {... */\n  pop\n  jump\t// out\n    /* \"contracts/periphery/Jackpot.sol\":343:2485  contract Jackpot is Ownable, IJackpot{... */\ntag_14:\n  dup3\n  dup1\n  sload\n  dup3\n  dup3\n  sstore\n  swap1\n  0x00\n  mstore\n  keccak256(0x00, 0x20)\n  swap1\n  0x07\n  add\n  0x08\n  swap1\n  div\n  dup2\n  add\n  swap3\n  dup3\n  iszero\n  tag_17\n  jumpi\n  swap2\n  0x20\n  mul\n  dup3\n  add\n  0x00\ntag_18:\n  dup4\n  dup3\n  gt\n  iszero\n  tag_19\n  jumpi\n  dup4\n  mload\n  dup4\n  dup3\n  0x0100\n  exp\n  dup2\n  sload\n  dup2\n  0xffffffff\n  mul\n  not\n  and\n  swap1\n  dup4\n  0xffffffff\n  and\n  mul\n  or\n  swap1\n  sstore\n  pop\n  swap3\n  0x20\n  add\n  swap3\n  0x04\n  add\n  0x20\n  dup2\n  0x03\n  add\n  div\n  swap3\n  dup4\n  add\n  swap3\n  0x01\n  sub\n  mul\n  jump(tag_18)\ntag_19:\n  dup1\n  iszero\n  tag_20\n  jumpi\n  dup3\n  dup2\n  0x0100\n  exp\n  dup2\n  sload\n  swap1\n  0xffffffff\n  mul\n  not\n  and\n  swap1\n  sstore\n  0x04\n  add\n  0x20\n  dup2\n  0x03\n  add\n  div\n  swap3\n  dup4\n  add\n  swap3\n  0x01\n  sub\n  mul\n  jump(tag_19)\ntag_20:\n  pop\ntag_17:\n  pop\n  swap1\n  pop\n  tag_21\n  swap2\n  swap1\n  tag_22\n  jump\t// in\ntag_21:\n  pop\n  swap1\n  jump\t// out\ntag_22:\ntag_23:\n  dup1\n  dup3\n  gt\n  iszero\n  tag_24\n  jumpi\n  0x00\n  dup2\n  0x00\n  swap1\n  sstore\n  pop\n  0x01\n  add\n  jump(tag_23)\ntag_24:\n  pop\n  swap1\n  jump\t// out\n    /* \"#utility.yul\":7:82   */\ntag_25:\n    /* \"#utility.yul\":40:46   */\n  0x00\n    /* \"#utility.yul\":73:75   */\n  0x40\n    /* \"#utility.yul\":67:76   */\n  mload\n    /* \"#utility.yul\":57:76   */\n  swap1\n  pop\n    /* \"#utility.yul\":7:82   */\n  swap1\n  jump\t// out\n    /* \"#utility.yul\":88:205   */\ntag_26:\n    /* \"#utility.yul\":197:198   */\n  0x00\n    /* \"#utility.yul\":194:195   */\n  dup1\n    /* \"#utility.yul\":187:199   */\n  revert\n    /* \"#utility.yul\":211:328   */\ntag_27:\n    /* \"#utility.yul\":320:321   */\n  0x00\n    /* \"#utility.yul\":317:318   */\n  dup1\n    /* \"#utility.yul\":310:322   */\n  revert\n    /* \"#utility.yul\":334:460   */\ntag_28:\n    /* \"#utility.yul\":371:378   */\n  0x00\n    /* \"#utility.yul\":411:453   */\n  0xffffffffffffffffffffffffffffffffffffffff\n    /* \"#utility.yul\":404:409   */\n  dup3\n    /* \"#utility.yul\":400:454   */\n  and\n    /* \"#utility.yul\":389:454   */\n  swap1\n  pop\n    /* \"#utility.yul\":334:460   */\n  swap2\n  swap1\n  pop\n  jump\t// out\n    /* \"#utility.yul\":466:562   */\ntag_29:\n    /* \"#utility.yul\":503:510   */\n  0x00\n    /* \"#utility.yul\":532:556   */\n  tag_51\n    /* \"#utility.yul\":550:555   */\n  dup3\n    /* \"#utility.yul\":532:556   */\n  tag_28\n  jump\t// in\ntag_51:\n    /* \"#utility.yul\":521:556   */\n  swap1\n  pop\n    /* \"#utility.yul\":466:562   */\n  swap2\n  swap1\n  pop\n  jump\t// out\n    /* \"#utility.yul\":568:690   */\ntag_30:\n    /* \"#utility.yul\":641:665   */\n  tag_53\n    /* \"#utility.yul\":659:664   */\n  dup2\n    /* \"#utility.yul\":641:665   */\n  tag_29\n  jump\t// in\ntag_53:\n    /* \"#utility.yul\":634:639   */\n  dup2\n    /* \"#utility.yul\":631:666   */\n  eq\n    /* \"#utility.yul\":621:684   */\n  tag_54\n  jumpi\n    /* \"#utility.yul\":680:681   */\n  0x00\n    /* \"#utility.yul\":677:678   */\n  dup1\n    /* \"#utility.yul\":670:682   */\n  revert\n    /* \"#utility.yul\":621:684   */\ntag_54:\n    /* \"#utility.yul\":568:690   */\n  pop\n  jump\t// out\n    /* \"#utility.yul\":696:839   */\ntag_31:\n    /* \"#utility.yul\":753:758   */\n  0x00\n    /* \"#utility.yul\":784:790   */\n  dup2\n    /* \"#utility.yul\":778:791   */\n  mload\n    /* \"#utility.yul\":769:791   */\n  swap1\n  pop\n    /* \"#utility.yul\":800:833   */\n  tag_56\n    /* \"#utility.yul\":827:832   */\n  dup2\n    /* \"#utility.yul\":800:833   */\n  tag_30\n  jump\t// in\ntag_56:\n    /* \"#utility.yul\":696:839   */\n  swap3\n  swap2\n  pop\n  pop\n  jump\t// out\n    /* \"#utility.yul\":845:962   */\ntag_32:\n    /* \"#utility.yul\":954:955   */\n  0x00\n    /* \"#utility.yul\":951:952   */\n  dup1\n    /* \"#utility.yul\":944:956   */\n  revert\n    /* \"#utility.yul\":968:1070   */\ntag_33:\n    /* \"#utility.yul\":1009:1015   */\n  0x00\n    /* \"#utility.yul\":1060:1062   */\n  0x1f\n    /* \"#utility.yul\":1056:1063   */\n  not\n    /* \"#utility.yul\":1051:1053   */\n  0x1f\n    /* \"#utility.yul\":1044:1049   */\n  dup4\n    /* \"#utility.yul\":1040:1054   */\n  add\n    /* \"#utility.yul\":1036:1064   */\n  and\n    /* \"#utility.yul\":1026:1064   */\n  swap1\n  pop\n    /* \"#utility.yul\":968:1070   */\n  swap2\n  swap1\n  pop\n  jump\t// out\n    /* \"#utility.yul\":1076:1256   */\ntag_34:\n    /* \"#utility.yul\":1124:1201   */\n  0x4e487b7100000000000000000000000000000000000000000000000000000000\n    /* \"#utility.yul\":1121:1122   */\n  0x00\n    /* \"#utility.yul\":1114:1202   */\n  mstore\n    /* \"#utility.yul\":1221:1225   */\n  0x41\n    /* \"#utility.yul\":1218:1219   */\n  0x04\n    /* \"#utility.yul\":1211:1226   */\n  mstore\n    /* \"#utility.yul\":1245:1249   */\n  0x24\n    /* \"#utility.yul\":1242:1243   */\n  0x00\n    /* \"#utility.yul\":1235:1250   */\n  revert\n    /* \"#utility.yul\":1262:1543   */\ntag_35:\n    /* \"#utility.yul\":1345:1372   */\n  tag_61\n    /* \"#utility.yul\":1367:1371   */\n  dup3\n    /* \"#utility.yul\":1345:1372   */\n  tag_33\n  jump\t// in\ntag_61:\n    /* \"#utility.yul\":1337:1343   */\n  dup2\n    /* \"#utility.yul\":1333:1373   */\n  add\n    /* \"#utility.yul\":1475:1481   */\n  dup2\n    /* \"#utility.yul\":1463:1473   */\n  dup2\n    /* \"#utility.yul\":1460:1482   */\n  lt\n    /* \"#utility.yul\":1439:1457   */\n  0xffffffffffffffff\n    /* \"#utility.yul\":1427:1437   */\n  dup3\n    /* \"#utility.yul\":1424:1458   */\n  gt\n    /* \"#utility.yul\":1421:1483   */\n  or\n    /* \"#utility.yul\":1418:1506   */\n  iszero\n  tag_62\n  jumpi\n    /* \"#utility.yul\":1486:1504   */\n  tag_63\n  tag_34\n  jump\t// in\ntag_63:\n    /* \"#utility.yul\":1418:1506   */\ntag_62:\n    /* \"#utility.yul\":1526:1536   */\n  dup1\n    /* \"#utility.yul\":1522:1524   */\n  0x40\n    /* \"#utility.yul\":1515:1537   */\n  mstore\n    /* \"#utility.yul\":1305:1543   */\n  pop\n    /* \"#utility.yul\":1262:1543   */\n  pop\n  pop\n  jump\t// out\n    /* \"#utility.yul\":1549:1678   */\ntag_36:\n    /* \"#utility.yul\":1583:1589   */\n  0x00\n    /* \"#utility.yul\":1610:1630   */\n  tag_65\n  tag_25\n  jump\t// in\ntag_65:\n    /* \"#utility.yul\":1600:1630   */\n  swap1\n  pop\n    /* \"#utility.yul\":1639:1672   */\n  tag_66\n    /* \"#utility.yul\":1667:1671   */\n  dup3\n    /* \"#utility.yul\":1659:1665   */\n  dup3\n    /* \"#utility.yul\":1639:1672   */\n  tag_35\n  jump\t// in\ntag_66:\n    /* \"#utility.yul\":1549:1678   */\n  swap2\n  swap1\n  pop\n  jump\t// out\n    /* \"#utility.yul\":1684:1994   */\ntag_37:\n    /* \"#utility.yul\":1760:1764   */\n  0x00\n    /* \"#utility.yul\":1850:1868   */\n  0xffffffffffffffff\n    /* \"#utility.yul\":1842:1848   */\n  dup3\n    /* \"#utility.yul\":1839:1869   */\n  gt\n    /* \"#utility.yul\":1836:1892   */\n  iszero\n  tag_68\n  jumpi\n    /* \"#utility.yul\":1872:1890   */\n  tag_69\n  tag_34\n  jump\t// in\ntag_69:\n    /* \"#utility.yul\":1836:1892   */\ntag_68:\n    /* \"#utility.yul\":1922:1926   */\n  0x20\n    /* \"#utility.yul\":1914:1920   */\n  dup3\n    /* \"#utility.yul\":1910:1927   */\n  mul\n    /* \"#utility.yul\":1902:1927   */\n  swap1\n  pop\n    /* \"#utility.yul\":1982:1986   */\n  0x20\n    /* \"#utility.yul\":1976:1980   */\n  dup2\n    /* \"#utility.yul\":1972:1987   */\n  add\n    /* \"#utility.yul\":1964:1987   */\n  swap1\n  pop\n    /* \"#utility.yul\":1684:1994   */\n  swap2\n  swap1\n  pop\n  jump\t// out\n    /* \"#utility.yul\":2000:2117   */\ntag_38:\n    /* \"#utility.yul\":2109:2110   */\n  0x00\n    /* \"#utility.yul\":2106:2107   */\n  dup1\n    /* \"#utility.yul\":2099:2111   */\n  revert\n    /* \"#utility.yul\":2123:2216   */\ntag_39:\n    /* \"#utility.yul\":2159:2166   */\n  0x00\n    /* \"#utility.yul\":2199:2209   */\n  0xffffffff\n    /* \"#utility.yul\":2192:2197   */\n  dup3\n    /* \"#utility.yul\":2188:2210   */\n  and\n    /* \"#utility.yul\":2177:2210   */\n  swap1\n  pop\n    /* \"#utility.yul\":2123:2216   */\n  swap2\n  swap1\n  pop\n  jump\t// out\n    /* \"#utility.yul\":2222:2342   */\ntag_40:\n    /* \"#utility.yul\":2294:2317   */\n  tag_73\n    /* \"#utility.yul\":2311:2316   */\n  dup2\n    /* \"#utility.yul\":2294:2317   */\n  tag_39\n  jump\t// in\ntag_73:\n    /* \"#utility.yul\":2287:2292   */\n  dup2\n    /* \"#utility.yul\":2284:2318   */\n  eq\n    /* \"#utility.yul\":2274:2336   */\n  tag_74\n  jumpi\n    /* \"#utility.yul\":2332:2333   */\n  0x00\n    /* \"#utility.yul\":2329:2330   */\n  dup1\n    /* \"#utility.yul\":2322:2334   */\n  revert\n    /* \"#utility.yul\":2274:2336   */\ntag_74:\n    /* \"#utility.yul\":2222:2342   */\n  pop\n  jump\t// out\n    /* \"#utility.yul\":2348:2489   */\ntag_41:\n    /* \"#utility.yul\":2404:2409   */\n  0x00\n    /* \"#utility.yul\":2435:2441   */\n  dup2\n    /* \"#utility.yul\":2429:2442   */\n  mload\n    /* \"#utility.yul\":2420:2442   */\n  swap1\n  pop\n    /* \"#utility.yul\":2451:2483   */\n  tag_76\n    /* \"#utility.yul\":2477:2482   */\n  dup2\n    /* \"#utility.yul\":2451:2483   */\n  tag_40\n  jump\t// in\ntag_76:\n    /* \"#utility.yul\":2348:2489   */\n  swap3\n  swap2\n  pop\n  pop\n  jump\t// out\n    /* \"#utility.yul\":2511:3240   */\ntag_42:\n    /* \"#utility.yul\":2617:2622   */\n  0x00\n    /* \"#utility.yul\":2642:2722   */\n  tag_78\n    /* \"#utility.yul\":2658:2721   */\n  tag_79\n    /* \"#utility.yul\":2714:2720   */\n  dup5\n    /* \"#utility.yul\":2658:2721   */\n  tag_37\n  jump\t// in\ntag_79:\n    /* \"#utility.yul\":2642:2722   */\n  tag_36\n  jump\t// in\ntag_78:\n    /* \"#utility.yul\":2633:2722   */\n  swap1\n  pop\n    /* \"#utility.yul\":2742:2747   */\n  dup1\n    /* \"#utility.yul\":2771:2777   */\n  dup4\n    /* \"#utility.yul\":2764:2769   */\n  dup3\n    /* \"#utility.yul\":2757:2778   */\n  mstore\n    /* \"#utility.yul\":2805:2809   */\n  0x20\n    /* \"#utility.yul\":2798:2803   */\n  dup3\n    /* \"#utility.yul\":2794:2810   */\n  add\n    /* \"#utility.yul\":2787:2810   */\n  swap1\n  pop\n    /* \"#utility.yul\":2858:2862   */\n  0x20\n    /* \"#utility.yul\":2850:2856   */\n  dup5\n    /* \"#utility.yul\":2846:2863   */\n  mul\n    /* \"#utility.yul\":2838:2844   */\n  dup4\n    /* \"#utility.yul\":2834:2864   */\n  add\n    /* \"#utility.yul\":2887:2890   */\n  dup6\n    /* \"#utility.yul\":2879:2885   */\n  dup2\n    /* \"#utility.yul\":2876:2891   */\n  gt\n    /* \"#utility.yul\":2873:2995   */\n  iszero\n  tag_80\n  jumpi\n    /* \"#utility.yul\":2906:2985   */\n  tag_81\n  tag_38\n  jump\t// in\ntag_81:\n    /* \"#utility.yul\":2873:2995   */\ntag_80:\n    /* \"#utility.yul\":3021:3027   */\n  dup4\n    /* \"#utility.yul\":3004:3234   */\ntag_82:\n    /* \"#utility.yul\":3038:3044   */\n  dup2\n    /* \"#utility.yul\":3033:3036   */\n  dup2\n    /* \"#utility.yul\":3030:3045   */\n  lt\n    /* \"#utility.yul\":3004:3234   */\n  iszero\n  tag_84\n  jumpi\n    /* \"#utility.yul\":3113:3116   */\n  dup1\n    /* \"#utility.yul\":3142:3189   */\n  tag_85\n    /* \"#utility.yul\":3185:3188   */\n  dup9\n    /* \"#utility.yul\":3173:3183   */\n  dup3\n    /* \"#utility.yul\":3142:3189   */\n  tag_41\n  jump\t// in\ntag_85:\n    /* \"#utility.yul\":3137:3140   */\n  dup5\n    /* \"#utility.yul\":3130:3190   */\n  mstore\n    /* \"#utility.yul\":3219:3223   */\n  0x20\n    /* \"#utility.yul\":3214:3217   */\n  dup5\n    /* \"#utility.yul\":3210:3224   */\n  add\n    /* \"#utility.yul\":3203:3224   */\n  swap4\n  pop\n    /* \"#utility.yul\":3080:3234   */\n  pop\n    /* \"#utility.yul\":3064:3068   */\n  0x20\n    /* \"#utility.yul\":3059:3062   */\n  dup2\n    /* \"#utility.yul\":3055:3069   */\n  add\n    /* \"#utility.yul\":3048:3069   */\n  swap1\n  pop\n    /* \"#utility.yul\":3004:3234   */\n  jump(tag_82)\ntag_84:\n    /* \"#utility.yul\":3008:3029   */\n  pop\n    /* \"#utility.yul\":2623:3240   */\n  pop\n  pop\n    /* \"#utility.yul\":2511:3240   */\n  swap4\n  swap3\n  pop\n  pop\n  pop\n  jump\t// out\n    /* \"#utility.yul\":3262:3645   */\ntag_43:\n    /* \"#utility.yul\":3343:3348   */\n  0x00\n    /* \"#utility.yul\":3392:3395   */\n  dup3\n    /* \"#utility.yul\":3385:3389   */\n  0x1f\n    /* \"#utility.yul\":3377:3383   */\n  dup4\n    /* \"#utility.yul\":3373:3390   */\n  add\n    /* \"#utility.yul\":3369:3396   */\n  slt\n    /* \"#utility.yul\":3359:3481   */\n  tag_87\n  jumpi\n    /* \"#utility.yul\":3400:3479   */\n  tag_88\n  tag_32\n  jump\t// in\ntag_88:\n    /* \"#utility.yul\":3359:3481   */\ntag_87:\n    /* \"#utility.yul\":3510:3516   */\n  dup2\n    /* \"#utility.yul\":3504:3517   */\n  mload\n    /* \"#utility.yul\":3535:3639   */\n  tag_89\n    /* \"#utility.yul\":3635:3638   */\n  dup5\n    /* \"#utility.yul\":3627:3633   */\n  dup3\n    /* \"#utility.yul\":3620:3624   */\n  0x20\n    /* \"#utility.yul\":3612:3618   */\n  dup7\n    /* \"#utility.yul\":3608:3625   */\n  add\n    /* \"#utility.yul\":3535:3639   */\n  tag_42\n  jump\t// in\ntag_89:\n    /* \"#utility.yul\":3526:3639   */\n  swap2\n  pop\n    /* \"#utility.yul\":3349:3645   */\n  pop\n    /* \"#utility.yul\":3262:3645   */\n  swap3\n  swap2\n  pop\n  pop\n  jump\t// out\n    /* \"#utility.yul\":3651:4672   */\ntag_3:\n    /* \"#utility.yul\":3772:3778   */\n  0x00\n    /* \"#utility.yul\":3780:3786   */\n  dup1\n    /* \"#utility.yul\":3788:3794   */\n  0x00\n    /* \"#utility.yul\":3796:3802   */\n  dup1\n    /* \"#utility.yul\":3845:3848   */\n  0x80\n    /* \"#utility.yul\":3833:3842   */\n  dup6\n    /* \"#utility.yul\":3824:3831   */\n  dup8\n    /* \"#utility.yul\":3820:3843   */\n  sub\n    /* \"#utility.yul\":3816:3849   */\n  slt\n    /* \"#utility.yul\":3813:3933   */\n  iszero\n  tag_91\n  jumpi\n    /* \"#utility.yul\":3852:3931   */\n  tag_92\n  tag_26\n  jump\t// in\ntag_92:\n    /* \"#utility.yul\":3813:3933   */\ntag_91:\n    /* \"#utility.yul\":3972:3973   */\n  0x00\n    /* \"#utility.yul\":3997:4061   */\n  tag_93\n    /* \"#utility.yul\":4053:4060   */\n  dup8\n    /* \"#utility.yul\":4044:4050   */\n  dup3\n    /* \"#utility.yul\":4033:4042   */\n  dup9\n    /* \"#utility.yul\":4029:4051   */\n  add\n    /* \"#utility.yul\":3997:4061   */\n  tag_31\n  jump\t// in\ntag_93:\n    /* \"#utility.yul\":3987:4061   */\n  swap5\n  pop\n    /* \"#utility.yul\":3943:4071   */\n  pop\n    /* \"#utility.yul\":4110:4112   */\n  0x20\n    /* \"#utility.yul\":4136:4200   */\n  tag_94\n    /* \"#utility.yul\":4192:4199   */\n  dup8\n    /* \"#utility.yul\":4183:4189   */\n  dup3\n    /* \"#utility.yul\":4172:4181   */\n  dup9\n    /* \"#utility.yul\":4168:4190   */\n  add\n    /* \"#utility.yul\":4136:4200   */\n  tag_31\n  jump\t// in\ntag_94:\n    /* \"#utility.yul\":4126:4200   */\n  swap4\n  pop\n    /* \"#utility.yul\":4081:4210   */\n  pop\n    /* \"#utility.yul\":4249:4251   */\n  0x40\n    /* \"#utility.yul\":4275:4339   */\n  tag_95\n    /* \"#utility.yul\":4331:4338   */\n  dup8\n    /* \"#utility.yul\":4322:4328   */\n  dup3\n    /* \"#utility.yul\":4311:4320   */\n  dup9\n    /* \"#utility.yul\":4307:4329   */\n  add\n    /* \"#utility.yul\":4275:4339   */\n  tag_31\n  jump\t// in\ntag_95:\n    /* \"#utility.yul\":4265:4339   */\n  swap3\n  pop\n    /* \"#utility.yul\":4220:4349   */\n  pop\n    /* \"#utility.yul\":4409:4411   */\n  0x60\n    /* \"#utility.yul\":4398:4407   */\n  dup6\n    /* \"#utility.yul\":4394:4412   */\n  add\n    /* \"#utility.yul\":4388:4413   */\n  mload\n    /* \"#utility.yul\":4440:4458   */\n  0xffffffffffffffff\n    /* \"#utility.yul\":4432:4438   */\n  dup2\n    /* \"#utility.yul\":4429:4459   */\n  gt\n    /* \"#utility.yul\":4426:4543   */\n  iszero\n  tag_96\n  jumpi\n    /* \"#utility.yul\":4462:4541   */\n  tag_97\n  tag_27\n  jump\t// in\ntag_97:\n    /* \"#utility.yul\":4426:4543   */\ntag_96:\n    /* \"#utility.yul\":4567:4655   */\n  tag_98\n    /* \"#utility.yul\":4647:4654   */\n  dup8\n    /* \"#utility.yul\":4638:4644   */\n  dup3\n    /* \"#utility.yul\":4627:4636   */\n  dup9\n    /* \"#utility.yul\":4623:4645   */\n  add\n    /* \"#utility.yul\":4567:4655   */\n  tag_43\n  jump\t// in\ntag_98:\n    /* \"#utility.yul\":4557:4655   */\n  swap2\n  pop\n    /* \"#utility.yul\":4359:4665   */\n  pop\n    /* \"#utility.yul\":3651:4672   */\n  swap3\n  swap6\n  swap2\n  swap5\n  pop\n  swap3\n  pop\n  jump\t// out\n    /* \"#utility.yul\":4678:4796   */\ntag_44:\n    /* \"#utility.yul\":4765:4789   */\n  tag_100\n    /* \"#utility.yul\":4783:4788   */\n  dup2\n    /* \"#utility.yul\":4765:4789   */\n  tag_29\n  jump\t// in\ntag_100:\n    /* \"#utility.yul\":4760:4763   */\n  dup3\n    /* \"#utility.yul\":4753:4790   */\n  mstore\n    /* \"#utility.yul\":4678:4796   */\n  pop\n  pop\n  jump\t// out\n    /* \"#utility.yul\":4802:5024   */\ntag_9:\n    /* \"#utility.yul\":4895:4899   */\n  0x00\n    /* \"#utility.yul\":4933:4935   */\n  0x20\n    /* \"#utility.yul\":4922:4931   */\n  dup3\n    /* \"#utility.yul\":4918:4936   */\n  add\n    /* \"#utility.yul\":4910:4936   */\n  swap1\n  pop\n    /* \"#utility.yul\":4946:5017   */\n  tag_102\n    /* \"#utility.yul\":5014:5015   */\n  0x00\n    /* \"#utility.yul\":5003:5012   */\n  dup4\n    /* \"#utility.yul\":4999:5016   */\n  add\n    /* \"#utility.yul\":4990:4996   */\n  dup5\n    /* \"#utility.yul\":4946:5017   */\n  tag_44\n  jump\t// in\ntag_102:\n    /* \"#utility.yul\":4802:5024   */\n  swap3\n  swap2\n  pop\n  pop\n  jump\t// out\n    /* \"contracts/periphery/Jackpot.sol\":343:2485  contract Jackpot is Ownable, IJackpot{... */\ntag_15:\n  dataSize(sub_0)\n  dup1\n  dataOffset(sub_0)\n  0x00\n  codecopy\n  0x00\n  return\nstop\n\nsub_0: assembly {\n        /* \"contracts/periphery/Jackpot.sol\":343:2485  contract Jackpot is Ownable, IJackpot{... */\n      mstore(0x40, 0x80)\n      callvalue\n      dup1\n      iszero\n      tag_1\n      jumpi\n      0x00\n      dup1\n      revert\n    tag_1:\n      pop\n      jumpi(tag_2, lt(calldatasize, 0x04))\n      shr(0xe0, calldataload(0x00))\n      dup1\n      0x715018a6\n      gt\n      tag_13\n      jumpi\n      dup1\n      0x715018a6\n      eq\n      tag_8\n      jumpi\n      dup1\n      0x8da5cb5b\n      eq\n      tag_9\n      jumpi\n      dup1\n      0xad26432e\n      eq\n      tag_10\n      jumpi\n      dup1\n      0xcaa648b4\n      eq\n      tag_11\n      jumpi\n      dup1\n      0xf2fde38b\n      eq\n      tag_12\n      jumpi\n      jump(tag_2)\n    tag_13:\n      dup1\n      0x09a31d50\n      eq\n      tag_3\n      jumpi\n      dup1\n      0x1dd5605d\n      eq\n      tag_4\n      jumpi\n      dup1\n      0x3013ce29\n      eq\n      tag_5\n      jumpi\n      dup1\n      0x4cbe5274\n      eq\n      tag_6\n      jumpi\n      dup1\n      0x4e71d92d\n      eq\n      tag_7\n      jumpi\n    tag_2:\n      0x00\n      dup1\n      revert\n        /* \"contracts/periphery/Jackpot.sol\":421:440  IMyNFT public myNFT */\n    tag_3:\n      tag_14\n      tag_15\n      jump\t// in\n    tag_14:\n      mload(0x40)\n      tag_16\n      swap2\n      swap1\n      tag_17\n      jump\t// in\n    tag_16:\n      mload(0x40)\n      dup1\n      swap2\n      sub\n      swap1\n      return\n        /* \"contracts/periphery/Jackpot.sol\":449:481  uint32[] public collectedCardsID */\n    tag_4:\n      tag_18\n      0x04\n      dup1\n      calldatasize\n      sub\n      dup2\n      add\n      swap1\n      tag_19\n      swap2\n      swap1\n      tag_20\n      jump\t// in\n    tag_19:\n      tag_21\n      jump\t// in\n    tag_18:\n      mload(0x40)\n      tag_22\n      swap2\n      swap1\n      tag_23\n      jump\t// in\n    tag_22:\n      mload(0x40)\n      dup1\n      swap2\n      sub\n      swap1\n      return\n        /* \"contracts/periphery/Jackpot.sol\":389:414  ERC20 public paymentToken */\n    tag_5:\n      tag_24\n      tag_25\n      jump\t// in\n    tag_24:\n      mload(0x40)\n      tag_26\n      swap2\n      swap1\n      tag_27\n      jump\t// in\n    tag_26:\n      mload(0x40)\n      dup1\n      swap2\n      sub\n      swap1\n      return\n        /* \"contracts/periphery/Jackpot.sol\":1534:1663  function getCollectedCardsID() external view override returns (uint32[] memory cardsID){... */\n    tag_6:\n      tag_28\n      tag_29\n      jump\t// in\n    tag_28:\n      mload(0x40)\n      tag_30\n      swap2\n      swap1\n      tag_31\n      jump\t// in\n    tag_30:\n      mload(0x40)\n      dup1\n      swap2\n      sub\n      swap1\n      return\n        /* \"contracts/periphery/Jackpot.sol\":837:1182  function claim() external override{... */\n    tag_7:\n      tag_32\n      tag_33\n      jump\t// in\n    tag_32:\n      stop\n        /* \"@openzeppelin/contracts/access/Ownable.sol\":2293:2394  function renounceOwnership() public virtual onlyOwner {... */\n    tag_8:\n      tag_34\n      tag_35\n      jump\t// in\n    tag_34:\n      stop\n        /* \"@openzeppelin/contracts/access/Ownable.sol\":1638:1723  function owner() public view virtual returns (address) {... */\n    tag_9:\n      tag_36\n      tag_37\n      jump\t// in\n    tag_36:\n      mload(0x40)\n      tag_38\n      swap2\n      swap1\n      tag_39\n      jump\t// in\n    tag_38:\n      mload(0x40)\n      dup1\n      swap2\n      sub\n      swap1\n      return\n        /* \"contracts/periphery/Jackpot.sol\":1369:1497  function setCollectedCardsID(uint32[] memory _cardsID) external override onlyOwner{... */\n    tag_10:\n      tag_40\n      0x04\n      dup1\n      calldatasize\n      sub\n      dup2\n      add\n      swap1\n      tag_41\n      swap2\n      swap1\n      tag_42\n      jump\t// in\n    tag_41:\n      tag_43\n      jump\t// in\n    tag_40:\n      stop\n        /* \"contracts/periphery/Jackpot.sol\":1219:1332  function getTotalValue() external view override returns (uint256 value){... */\n    tag_11:\n      tag_44\n      tag_45\n      jump\t// in\n    tag_44:\n      mload(0x40)\n      tag_46\n      swap2\n      swap1\n      tag_47\n      jump\t// in\n    tag_46:\n      mload(0x40)\n      dup1\n      swap2\n      sub\n      swap1\n      return\n        /* \"@openzeppelin/contracts/access/Ownable.sol\":2543:2758  function transferOwnership(address newOwner) public virtual onlyOwner {... */\n    tag_12:\n      tag_48\n      0x04\n      dup1\n      calldatasize\n      sub\n      dup2\n      add\n      swap1\n      tag_49\n      swap2\n      swap1\n      tag_50\n      jump\t// in\n    tag_49:\n      tag_51\n      jump\t// in\n    tag_48:\n      stop\n        /* \"contracts/periphery/Jackpot.sol\":421:440  IMyNFT public myNFT */\n    tag_15:\n      0x02\n      0x00\n      swap1\n      sload\n      swap1\n      0x0100\n      exp\n      swap1\n      div\n      0xffffffffffffffffffffffffffffffffffffffff\n      and\n      dup2\n      jump\t// out\n        /* \"contracts/periphery/Jackpot.sol\":449:481  uint32[] public collectedCardsID */\n    tag_21:\n      0x03\n      dup2\n      dup2\n      sload\n      dup2\n      lt\n      tag_52\n      jumpi\n      0x00\n      dup1\n      revert\n    tag_52:\n      swap1\n      0x00\n      mstore\n      keccak256(0x00, 0x20)\n      swap1\n      0x08\n      swap2\n      dup3\n      dup3\n      div\n      add\n      swap2\n      swap1\n      mod\n      0x04\n      mul\n      swap2\n      pop\n      sload\n      swap1\n      0x0100\n      exp\n      swap1\n      div\n      0xffffffff\n      and\n      dup2\n      jump\t// out\n        /* \"contracts/periphery/Jackpot.sol\":389:414  ERC20 public paymentToken */\n    tag_25:\n      0x01\n      0x00\n      swap1\n      sload\n      swap1\n      0x0100\n      exp\n      swap1\n      div\n      0xffffffffffffffffffffffffffffffffffffffff\n      and\n      dup2\n      jump\t// out\n        /* \"contracts/periphery/Jackpot.sol\":1534:1663  function getCollectedCardsID() external view override returns (uint32[] memory cardsID){... */\n    tag_29:\n        /* \"contracts/periphery/Jackpot.sol\":1597:1620  uint32[] memory cardsID */\n      0x60\n        /* \"contracts/periphery/Jackpot.sol\":1639:1655  collectedCardsID */\n      0x03\n        /* \"contracts/periphery/Jackpot.sol\":1632:1655  return collectedCardsID */\n      dup1\n      sload\n      dup1\n      0x20\n      mul\n      0x20\n      add\n      mload(0x40)\n      swap1\n      dup2\n      add\n      0x40\n      mstore\n      dup1\n      swap3\n      swap2\n      swap1\n      dup2\n      dup2\n      mstore\n      0x20\n      add\n      dup3\n      dup1\n      sload\n      dup1\n      iszero\n      tag_55\n      jumpi\n      0x20\n      mul\n      dup3\n      add\n      swap2\n      swap1\n      0x00\n      mstore\n      keccak256(0x00, 0x20)\n      swap1\n      0x00\n      swap1\n    tag_56:\n      dup3\n      dup3\n      swap1\n      sload\n      swap1\n      0x0100\n      exp\n      swap1\n      div\n      0xffffffff\n      and\n      0xffffffff\n      and\n      dup2\n      mstore\n      0x20\n      add\n      swap1\n      0x04\n      add\n      swap1\n      0x20\n      dup3\n      0x03\n      add\n      div\n      swap3\n      dup4\n      add\n      swap3\n      0x01\n      sub\n      dup3\n      mul\n      swap2\n      pop\n      dup1\n      dup5\n      gt\n      tag_56\n      jumpi\n      swap1\n      pop\n    tag_55:\n      pop\n      pop\n      pop\n      pop\n      pop\n      swap1\n      pop\n        /* \"contracts/periphery/Jackpot.sol\":1534:1663  function getCollectedCardsID() external view override returns (uint32[] memory cardsID){... */\n      swap1\n      jump\t// out\n        /* \"contracts/periphery/Jackpot.sol\":837:1182  function claim() external override{... */\n    tag_33:\n        /* \"contracts/periphery/Jackpot.sol\":882:896  address sender */\n      0x00\n        /* \"contracts/periphery/Jackpot.sol\":899:909  msg.sender */\n      caller\n        /* \"contracts/periphery/Jackpot.sol\":882:909  address sender = msg.sender */\n      swap1\n      pop\n        /* \"contracts/periphery/Jackpot.sol\":924:952  _checkCollectedCards(sender) */\n      tag_58\n        /* \"contracts/periphery/Jackpot.sol\":945:951  sender */\n      dup2\n        /* \"contracts/periphery/Jackpot.sol\":924:944  _checkCollectedCards */\n      tag_59\n        /* \"contracts/periphery/Jackpot.sol\":924:952  _checkCollectedCards(sender) */\n      jump\t// in\n    tag_58:\n        /* \"contracts/periphery/Jackpot.sol\":920:980  if(!_checkCollectedCards(sender)) revert NotCollectedCards() */\n      tag_60\n      jumpi\n        /* \"contracts/periphery/Jackpot.sol\":961:980  NotCollectedCards() */\n      mload(0x40)\n      0x7aa5b94c00000000000000000000000000000000000000000000000000000000\n      dup2\n      mstore\n      0x04\n      add\n      mload(0x40)\n      dup1\n      swap2\n      sub\n      swap1\n      revert\n        /* \"contracts/periphery/Jackpot.sol\":920:980  if(!_checkCollectedCards(sender)) revert NotCollectedCards() */\n    tag_60:\n        /* \"contracts/periphery/Jackpot.sol\":1014:1015  0 */\n      0x00\n        /* \"contracts/periphery/Jackpot.sol\":994:1010  _getTotalValue() */\n      tag_61\n        /* \"contracts/periphery/Jackpot.sol\":994:1008  _getTotalValue */\n      tag_62\n        /* \"contracts/periphery/Jackpot.sol\":994:1010  _getTotalValue() */\n      jump\t// in\n    tag_61:\n        /* \"contracts/periphery/Jackpot.sol\":994:1015  _getTotalValue() == 0 */\n      sub\n        /* \"contracts/periphery/Jackpot.sol\":991:1038  if(_getTotalValue() == 0) revert EmptyJackpot() */\n      tag_63\n      jumpi\n        /* \"contracts/periphery/Jackpot.sol\":1024:1038  EmptyJackpot() */\n      mload(0x40)\n      0x6e6681f600000000000000000000000000000000000000000000000000000000\n      dup2\n      mstore\n      0x04\n      add\n      mload(0x40)\n      dup1\n      swap2\n      sub\n      swap1\n      revert\n        /* \"contracts/periphery/Jackpot.sol\":991:1038  if(_getTotalValue() == 0) revert EmptyJackpot() */\n    tag_63:\n        /* \"contracts/periphery/Jackpot.sol\":1049:1062  _burn(sender) */\n      tag_64\n        /* \"contracts/periphery/Jackpot.sol\":1055:1061  sender */\n      dup2\n        /* \"contracts/periphery/Jackpot.sol\":1049:1054  _burn */\n      tag_65\n        /* \"contracts/periphery/Jackpot.sol\":1049:1062  _burn(sender) */\n      jump\t// in\n    tag_64:\n        /* \"contracts/periphery/Jackpot.sol\":1073:1085  paymentToken */\n      0x01\n      0x00\n      swap1\n      sload\n      swap1\n      0x0100\n      exp\n      swap1\n      div\n      0xffffffffffffffffffffffffffffffffffffffff\n      and\n        /* \"contracts/periphery/Jackpot.sol\":1073:1094  paymentToken.transfer */\n      0xffffffffffffffffffffffffffffffffffffffff\n      and\n      0xa9059cbb\n        /* \"contracts/periphery/Jackpot.sol\":1095:1101  sender */\n      dup3\n        /* \"contracts/periphery/Jackpot.sol\":1103:1119  _getTotalValue() */\n      tag_66\n        /* \"contracts/periphery/Jackpot.sol\":1103:1117  _getTotalValue */\n      tag_62\n        /* \"contracts/periphery/Jackpot.sol\":1103:1119  _getTotalValue() */\n      jump\t// in\n    tag_66:\n        /* \"contracts/periphery/Jackpot.sol\":1073:1120  paymentToken.transfer(sender, _getTotalValue()) */\n      mload(0x40)\n      dup4\n      0xffffffff\n      and\n      0xe0\n      shl\n      dup2\n      mstore\n      0x04\n      add\n      tag_67\n      swap3\n      swap2\n      swap1\n      tag_68\n      jump\t// in\n    tag_67:\n      0x20\n      mload(0x40)\n      dup1\n      dup4\n      sub\n      dup2\n      0x00\n      dup8\n      gas\n      call\n      iszero\n      dup1\n      iszero\n      tag_70\n      jumpi\n      returndatasize\n      0x00\n      dup1\n      returndatacopy\n      revert(0x00, returndatasize)\n    tag_70:\n      pop\n      pop\n      pop\n      pop\n      mload(0x40)\n      returndatasize\n      not(0x1f)\n      0x1f\n      dup3\n      add\n      and\n      dup3\n      add\n      dup1\n      0x40\n      mstore\n      pop\n      dup2\n      add\n      swap1\n      tag_71\n      swap2\n      swap1\n      tag_72\n      jump\t// in\n    tag_71:\n      pop\n        /* \"contracts/periphery/Jackpot.sol\":1149:1155  sender */\n      dup1\n        /* \"contracts/periphery/Jackpot.sol\":1136:1174  JackpotClaim(sender, _getTotalValue()) */\n      0xffffffffffffffffffffffffffffffffffffffff\n      and\n      0x16f67fd92ffb20fb68612d68e9725fe41944a7be57a193cb98fa735dd6f5d948\n        /* \"contracts/periphery/Jackpot.sol\":1157:1173  _getTotalValue() */\n      tag_73\n        /* \"contracts/periphery/Jackpot.sol\":1157:1171  _getTotalValue */\n      tag_62\n        /* \"contracts/periphery/Jackpot.sol\":1157:1173  _getTotalValue() */\n      jump\t// in\n    tag_73:\n        /* \"contracts/periphery/Jackpot.sol\":1136:1174  JackpotClaim(sender, _getTotalValue()) */\n      mload(0x40)\n      tag_74\n      swap2\n      swap1\n      tag_47\n      jump\t// in\n    tag_74:\n      mload(0x40)\n      dup1\n      swap2\n      sub\n      swap1\n      log2\n        /* \"contracts/periphery/Jackpot.sol\":871:1182  {... */\n      pop\n        /* \"contracts/periphery/Jackpot.sol\":837:1182  function claim() external override{... */\n      jump\t// out\n        /* \"@openzeppelin/contracts/access/Ownable.sol\":2293:2394  function renounceOwnership() public virtual onlyOwner {... */\n    tag_35:\n        /* \"@openzeppelin/contracts/access/Ownable.sol\":1531:1544  _checkOwner() */\n      tag_76\n        /* \"@openzeppelin/contracts/access/Ownable.sol\":1531:1542  _checkOwner */\n      tag_77\n        /* \"@openzeppelin/contracts/access/Ownable.sol\":1531:1544  _checkOwner() */\n      jump\t// in\n    tag_76:\n        /* \"@openzeppelin/contracts/access/Ownable.sol\":2357:2387  _transferOwnership(address(0)) */\n      tag_79\n        /* \"@openzeppelin/contracts/access/Ownable.sol\":2384:2385  0 */\n      0x00\n        /* \"@openzeppelin/contracts/access/Ownable.sol\":2357:2375  _transferOwnership */\n      tag_80\n        /* \"@openzeppelin/contracts/access/Ownable.sol\":2357:2387  _transferOwnership(address(0)) */\n      jump\t// in\n    tag_79:\n        /* \"@openzeppelin/contracts/access/Ownable.sol\":2293:2394  function renounceOwnership() public virtual onlyOwner {... */\n      jump\t// out\n        /* \"@openzeppelin/contracts/access/Ownable.sol\":1638:1723  function owner() public view virtual returns (address) {... */\n    tag_37:\n        /* \"@openzeppelin/contracts/access/Ownable.sol\":1684:1691  address */\n      0x00\n        /* \"@openzeppelin/contracts/access/Ownable.sol\":1710:1716  _owner */\n      dup1\n      0x00\n      swap1\n      sload\n      swap1\n      0x0100\n      exp\n      swap1\n      div\n      0xffffffffffffffffffffffffffffffffffffffff\n      and\n        /* \"@openzeppelin/contracts/access/Ownable.sol\":1703:1716  return _owner */\n      swap1\n      pop\n        /* \"@openzeppelin/contracts/access/Ownable.sol\":1638:1723  function owner() public view virtual returns (address) {... */\n      swap1\n      jump\t// out\n        /* \"contracts/periphery/Jackpot.sol\":1369:1497  function setCollectedCardsID(uint32[] memory _cardsID) external override onlyOwner{... */\n    tag_43:\n        /* \"@openzeppelin/contracts/access/Ownable.sol\":1531:1544  _checkOwner() */\n      tag_83\n        /* \"@openzeppelin/contracts/access/Ownable.sol\":1531:1542  _checkOwner */\n      tag_77\n        /* \"@openzeppelin/contracts/access/Ownable.sol\":1531:1544  _checkOwner() */\n      jump\t// in\n    tag_83:\n        /* \"contracts/periphery/Jackpot.sol\":1481:1489  _cardsID */\n      dup1\n        /* \"contracts/periphery/Jackpot.sol\":1462:1478  collectedCardsID */\n      0x03\n        /* \"contracts/periphery/Jackpot.sol\":1462:1489  collectedCardsID = _cardsID */\n      swap1\n      dup1\n      mload\n      swap1\n      0x20\n      add\n      swap1\n      tag_85\n      swap3\n      swap2\n      swap1\n      tag_86\n      jump\t// in\n    tag_85:\n      pop\n        /* \"contracts/periphery/Jackpot.sol\":1369:1497  function setCollectedCardsID(uint32[] memory _cardsID) external override onlyOwner{... */\n      pop\n      jump\t// out\n        /* \"contracts/periphery/Jackpot.sol\":1219:1332  function getTotalValue() external view override returns (uint256 value){... */\n    tag_45:\n        /* \"contracts/periphery/Jackpot.sol\":1276:1289  uint256 value */\n      0x00\n        /* \"contracts/periphery/Jackpot.sol\":1308:1324  _getTotalValue() */\n      tag_88\n        /* \"contracts/periphery/Jackpot.sol\":1308:1322  _getTotalValue */\n      tag_62\n        /* \"contracts/periphery/Jackpot.sol\":1308:1324  _getTotalValue() */\n      jump\t// in\n    tag_88:\n        /* \"contracts/periphery/Jackpot.sol\":1301:1324  return _getTotalValue() */\n      swap1\n      pop\n        /* \"contracts/periphery/Jackpot.sol\":1219:1332  function getTotalValue() external view override returns (uint256 value){... */\n      swap1\n      jump\t// out\n        /* \"@openzeppelin/contracts/access/Ownable.sol\":2543:2758  function transferOwnership(address newOwner) public virtual onlyOwner {... */\n    tag_51:\n        /* \"@openzeppelin/contracts/access/Ownable.sol\":1531:1544  _checkOwner() */\n      tag_90\n        /* \"@openzeppelin/contracts/access/Ownable.sol\":1531:1542  _checkOwner */\n      tag_77\n        /* \"@openzeppelin/contracts/access/Ownable.sol\":1531:1544  _checkOwner() */\n      jump\t// in\n    tag_90:\n        /* \"@openzeppelin/contracts/access/Ownable.sol\":2647:2648  0 */\n      0x00\n        /* \"@openzeppelin/contracts/access/Ownable.sol\":2627:2649  newOwner == address(0) */\n      0xffffffffffffffffffffffffffffffffffffffff\n      and\n        /* \"@openzeppelin/contracts/access/Ownable.sol\":2627:2635  newOwner */\n      dup2\n        /* \"@openzeppelin/contracts/access/Ownable.sol\":2627:2649  newOwner == address(0) */\n      0xffffffffffffffffffffffffffffffffffffffff\n      and\n      sub\n        /* \"@openzeppelin/contracts/access/Ownable.sol\":2623:2714  if (newOwner == address(0)) {... */\n      tag_92\n      jumpi\n        /* \"@openzeppelin/contracts/access/Ownable.sol\":2700:2701  0 */\n      0x00\n        /* \"@openzeppelin/contracts/access/Ownable.sol\":2672:2703  OwnableInvalidOwner(address(0)) */\n      mload(0x40)\n      0x1e4fbdf700000000000000000000000000000000000000000000000000000000\n      dup2\n      mstore\n      0x04\n      add\n      tag_93\n      swap2\n      swap1\n      tag_39\n      jump\t// in\n    tag_93:\n      mload(0x40)\n      dup1\n      swap2\n      sub\n      swap1\n      revert\n        /* \"@openzeppelin/contracts/access/Ownable.sol\":2623:2714  if (newOwner == address(0)) {... */\n    tag_92:\n        /* \"@openzeppelin/contracts/access/Ownable.sol\":2723:2751  _transferOwnership(newOwner) */\n      tag_94\n        /* \"@openzeppelin/contracts/access/Ownable.sol\":2742:2750  newOwner */\n      dup2\n        /* \"@openzeppelin/contracts/access/Ownable.sol\":2723:2741  _transferOwnership */\n      tag_80\n        /* \"@openzeppelin/contracts/access/Ownable.sol\":2723:2751  _transferOwnership(newOwner) */\n      jump\t// in\n    tag_94:\n        /* \"@openzeppelin/contracts/access/Ownable.sol\":2543:2758  function transferOwnership(address newOwner) public virtual onlyOwner {... */\n      pop\n      jump\t// out\n        /* \"contracts/periphery/Jackpot.sol\":1671:1958  function _checkCollectedCards(address _user) internal view returns (bool){... */\n    tag_59:\n        /* \"contracts/periphery/Jackpot.sol\":1739:1743  bool */\n      0x00\n        /* \"contracts/periphery/Jackpot.sol\":1759:1765  uint i */\n      dup1\n        /* \"contracts/periphery/Jackpot.sol\":1768:1769  0 */\n      0x00\n        /* \"contracts/periphery/Jackpot.sol\":1759:1769  uint i = 0 */\n      swap1\n      pop\n        /* \"contracts/periphery/Jackpot.sol\":1755:1929  for(uint i = 0; i < collectedCardsID.length; i++){... */\n    tag_96:\n        /* \"contracts/periphery/Jackpot.sol\":1775:1791  collectedCardsID */\n      0x03\n        /* \"contracts/periphery/Jackpot.sol\":1775:1798  collectedCardsID.length */\n      dup1\n      sload\n      swap1\n      pop\n        /* \"contracts/periphery/Jackpot.sol\":1771:1772  i */\n      dup2\n        /* \"contracts/periphery/Jackpot.sol\":1771:1798  i < collectedCardsID.length */\n      lt\n        /* \"contracts/periphery/Jackpot.sol\":1755:1929  for(uint i = 0; i < collectedCardsID.length; i++){... */\n      iszero\n      tag_97\n      jumpi\n        /* \"contracts/periphery/Jackpot.sol\":1869:1870  0 */\n      0x00\n        /* \"contracts/periphery/Jackpot.sol\":1822:1827  myNFT */\n      0x02\n      0x00\n      swap1\n      sload\n      swap1\n      0x0100\n      exp\n      swap1\n      div\n      0xffffffffffffffffffffffffffffffffffffffff\n      and\n        /* \"contracts/periphery/Jackpot.sol\":1822:1837  myNFT.balanceOf */\n      0xffffffffffffffffffffffffffffffffffffffff\n      and\n      0xfdd58e\n        /* \"contracts/periphery/Jackpot.sol\":1838:1843  _user */\n      dup6\n        /* \"contracts/periphery/Jackpot.sol\":1845:1861  collectedCardsID */\n      0x03\n        /* \"contracts/periphery/Jackpot.sol\":1862:1863  i */\n      dup6\n        /* \"contracts/periphery/Jackpot.sol\":1845:1864  collectedCardsID[i] */\n      dup2\n      sload\n      dup2\n      lt\n      tag_99\n      jumpi\n      tag_100\n      tag_101\n      jump\t// in\n    tag_100:\n    tag_99:\n      swap1\n      0x00\n      mstore\n      keccak256(0x00, 0x20)\n      swap1\n      0x08\n      swap2\n      dup3\n      dup3\n      div\n      add\n      swap2\n      swap1\n      mod\n      0x04\n      mul\n      swap1\n      sload\n      swap1\n      0x0100\n      exp\n      swap1\n      div\n      0xffffffff\n      and\n        /* \"contracts/periphery/Jackpot.sol\":1822:1865  myNFT.balanceOf(_user, collectedCardsID[i]) */\n      mload(0x40)\n      dup4\n      0xffffffff\n      and\n      0xe0\n      shl\n      dup2\n      mstore\n      0x04\n      add\n      tag_103\n      swap3\n      swap2\n      swap1\n      tag_104\n      jump\t// in\n    tag_103:\n      0x20\n      mload(0x40)\n      dup1\n      dup4\n      sub\n      dup2\n      dup7\n      gas\n      staticcall\n      iszero\n      dup1\n      iszero\n      tag_106\n      jumpi\n      returndatasize\n      0x00\n      dup1\n      returndatacopy\n      revert(0x00, returndatasize)\n    tag_106:\n      pop\n      pop\n      pop\n      pop\n      mload(0x40)\n      returndatasize\n      not(0x1f)\n      0x1f\n      dup3\n      add\n      and\n      dup3\n      add\n      dup1\n      0x40\n      mstore\n      pop\n      dup2\n      add\n      swap1\n      tag_107\n      swap2\n      swap1\n      tag_108\n      jump\t// in\n    tag_107:\n        /* \"contracts/periphery/Jackpot.sol\":1822:1870  myNFT.balanceOf(_user, collectedCardsID[i]) == 0 */\n      sub\n        /* \"contracts/periphery/Jackpot.sol\":1819:1918  if(myNFT.balanceOf(_user, collectedCardsID[i]) == 0){... */\n      tag_109\n      jumpi\n        /* \"contracts/periphery/Jackpot.sol\":1897:1902  false */\n      0x00\n        /* \"contracts/periphery/Jackpot.sol\":1890:1902  return false */\n      swap2\n      pop\n      pop\n      jump(tag_95)\n        /* \"contracts/periphery/Jackpot.sol\":1819:1918  if(myNFT.balanceOf(_user, collectedCardsID[i]) == 0){... */\n    tag_109:\n        /* \"contracts/periphery/Jackpot.sol\":1800:1803  i++ */\n      dup1\n      dup1\n      0x01\n      add\n      swap2\n      pop\n      pop\n        /* \"contracts/periphery/Jackpot.sol\":1755:1929  for(uint i = 0; i < collectedCardsID.length; i++){... */\n      jump(tag_96)\n    tag_97:\n      pop\n        /* \"contracts/periphery/Jackpot.sol\":1946:1950  true */\n      0x01\n        /* \"contracts/periphery/Jackpot.sol\":1939:1950  return true */\n      swap1\n      pop\n        /* \"contracts/periphery/Jackpot.sol\":1671:1958  function _checkCollectedCards(address _user) internal view returns (bool){... */\n    tag_95:\n      swap2\n      swap1\n      pop\n      jump\t// out\n        /* \"contracts/periphery/Jackpot.sol\":2356:2482  function _getTotalValue() internal view returns (uint256 value){... */\n    tag_62:\n        /* \"contracts/periphery/Jackpot.sol\":2405:2418  uint256 value */\n      0x00\n        /* \"contracts/periphery/Jackpot.sol\":2437:2449  paymentToken */\n      0x01\n      0x00\n      swap1\n      sload\n      swap1\n      0x0100\n      exp\n      swap1\n      div\n      0xffffffffffffffffffffffffffffffffffffffff\n      and\n        /* \"contracts/periphery/Jackpot.sol\":2437:2459  paymentToken.balanceOf */\n      0xffffffffffffffffffffffffffffffffffffffff\n      and\n      0x70a08231\n        /* \"contracts/periphery/Jackpot.sol\":2468:2472  this */\n      address\n        /* \"contracts/periphery/Jackpot.sol\":2437:2474  paymentToken.balanceOf(address(this)) */\n      mload(0x40)\n      dup3\n      0xffffffff\n      and\n      0xe0\n      shl\n      dup2\n      mstore\n      0x04\n      add\n      tag_111\n      swap2\n      swap1\n      tag_39\n      jump\t// in\n    tag_111:\n      0x20\n      mload(0x40)\n      dup1\n      dup4\n      sub\n      dup2\n      dup7\n      gas\n      staticcall\n      iszero\n      dup1\n      iszero\n      tag_113\n      jumpi\n      returndatasize\n      0x00\n      dup1\n      returndatacopy\n      revert(0x00, returndatasize)\n    tag_113:\n      pop\n      pop\n      pop\n      pop\n      mload(0x40)\n      returndatasize\n      not(0x1f)\n      0x1f\n      dup3\n      add\n      and\n      dup3\n      add\n      dup1\n      0x40\n      mstore\n      pop\n      dup2\n      add\n      swap1\n      tag_114\n      swap2\n      swap1\n      tag_108\n      jump\t// in\n    tag_114:\n        /* \"contracts/periphery/Jackpot.sol\":2430:2474  return paymentToken.balanceOf(address(this)) */\n      swap1\n      pop\n        /* \"contracts/periphery/Jackpot.sol\":2356:2482  function _getTotalValue() internal view returns (uint256 value){... */\n      swap1\n      jump\t// out\n        /* \"contracts/periphery/Jackpot.sol\":1966:2350  function _burn(address _user) internal{... */\n    tag_65:\n        /* \"contracts/periphery/Jackpot.sol\":2015:2035  uint256[] memory ids */\n      0x00\n        /* \"contracts/periphery/Jackpot.sol\":2052:2068  collectedCardsID */\n      0x03\n        /* \"contracts/periphery/Jackpot.sol\":2052:2075  collectedCardsID.length */\n      dup1\n      sload\n      swap1\n      pop\n        /* \"contracts/periphery/Jackpot.sol\":2038:2076  new uint256[](collectedCardsID.length) */\n      0xffffffffffffffff\n      dup2\n      gt\n      iszero\n      tag_116\n      jumpi\n      tag_117\n      tag_118\n      jump\t// in\n    tag_117:\n    tag_116:\n      mload(0x40)\n      swap1\n      dup1\n      dup3\n      mstore\n      dup1\n      0x20\n      mul\n      0x20\n      add\n      dup3\n      add\n      0x40\n      mstore\n      dup1\n      iszero\n      tag_119\n      jumpi\n      dup2\n      0x20\n      add\n      0x20\n      dup3\n      mul\n      dup1\n      calldatasize\n      dup4\n      calldatacopy\n      dup1\n      dup3\n      add\n      swap2\n      pop\n      pop\n      swap1\n      pop\n    tag_119:\n      pop\n        /* \"contracts/periphery/Jackpot.sol\":2015:2076  uint256[] memory ids = new uint256[](collectedCardsID.length) */\n      swap1\n      pop\n        /* \"contracts/periphery/Jackpot.sol\":2087:2111  uint256[] memory amounts */\n      0x00\n        /* \"contracts/periphery/Jackpot.sol\":2128:2144  collectedCardsID */\n      0x03\n        /* \"contracts/periphery/Jackpot.sol\":2128:2151  collectedCardsID.length */\n      dup1\n      sload\n      swap1\n      pop\n        /* \"contracts/periphery/Jackpot.sol\":2114:2152  new uint256[](collectedCardsID.length) */\n      0xffffffffffffffff\n      dup2\n      gt\n      iszero\n      tag_120\n      jumpi\n      tag_121\n      tag_118\n      jump\t// in\n    tag_121:\n    tag_120:\n      mload(0x40)\n      swap1\n      dup1\n      dup3\n      mstore\n      dup1\n      0x20\n      mul\n      0x20\n      add\n      dup3\n      add\n      0x40\n      mstore\n      dup1\n      iszero\n      tag_122\n      jumpi\n      dup2\n      0x20\n      add\n      0x20\n      dup3\n      mul\n      dup1\n      calldatasize\n      dup4\n      calldatacopy\n      dup1\n      dup3\n      add\n      swap2\n      pop\n      pop\n      swap1\n      pop\n    tag_122:\n      pop\n        /* \"contracts/periphery/Jackpot.sol\":2087:2152  uint256[] memory amounts = new uint256[](collectedCardsID.length) */\n      swap1\n      pop\n        /* \"contracts/periphery/Jackpot.sol\":2167:2173  uint i */\n      0x00\n        /* \"contracts/periphery/Jackpot.sol\":2163:2296  for(uint i = 0; i < collectedCardsID.length; i++){... */\n    tag_123:\n        /* \"contracts/periphery/Jackpot.sol\":2183:2199  collectedCardsID */\n      0x03\n        /* \"contracts/periphery/Jackpot.sol\":2183:2206  collectedCardsID.length */\n      dup1\n      sload\n      swap1\n      pop\n        /* \"contracts/periphery/Jackpot.sol\":2179:2180  i */\n      dup2\n        /* \"contracts/periphery/Jackpot.sol\":2179:2206  i < collectedCardsID.length */\n      lt\n        /* \"contracts/periphery/Jackpot.sol\":2163:2296  for(uint i = 0; i < collectedCardsID.length; i++){... */\n      iszero\n      tag_124\n      jumpi\n        /* \"contracts/periphery/Jackpot.sol\":2236:2252  collectedCardsID */\n      0x03\n        /* \"contracts/periphery/Jackpot.sol\":2253:2254  i */\n      dup2\n        /* \"contracts/periphery/Jackpot.sol\":2236:2255  collectedCardsID[i] */\n      dup2\n      sload\n      dup2\n      lt\n      tag_126\n      jumpi\n      tag_127\n      tag_101\n      jump\t// in\n    tag_127:\n    tag_126:\n      swap1\n      0x00\n      mstore\n      keccak256(0x00, 0x20)\n      swap1\n      0x08\n      swap2\n      dup3\n      dup3\n      div\n      add\n      swap2\n      swap1\n      mod\n      0x04\n      mul\n      swap1\n      sload\n      swap1\n      0x0100\n      exp\n      swap1\n      div\n      0xffffffff\n      and\n        /* \"contracts/periphery/Jackpot.sol\":2227:2255  ids[i] = collectedCardsID[i] */\n      0xffffffff\n      and\n        /* \"contracts/periphery/Jackpot.sol\":2227:2230  ids */\n      dup4\n        /* \"contracts/periphery/Jackpot.sol\":2231:2232  i */\n      dup3\n        /* \"contracts/periphery/Jackpot.sol\":2227:2233  ids[i] */\n      dup2\n      mload\n      dup2\n      lt\n      tag_129\n      jumpi\n      tag_130\n      tag_101\n      jump\t// in\n    tag_130:\n    tag_129:\n      0x20\n      mul\n      0x20\n      add\n      add\n        /* \"contracts/periphery/Jackpot.sol\":2227:2255  ids[i] = collectedCardsID[i] */\n      dup2\n      dup2\n      mstore\n      pop\n      pop\n        /* \"contracts/periphery/Jackpot.sol\":2283:2284  1 */\n      0x01\n        /* \"contracts/periphery/Jackpot.sol\":2270:2277  amounts */\n      dup3\n        /* \"contracts/periphery/Jackpot.sol\":2278:2279  i */\n      dup3\n        /* \"contracts/periphery/Jackpot.sol\":2270:2280  amounts[i] */\n      dup2\n      mload\n      dup2\n      lt\n      tag_131\n      jumpi\n      tag_132\n      tag_101\n      jump\t// in\n    tag_132:\n    tag_131:\n      0x20\n      mul\n      0x20\n      add\n      add\n        /* \"contracts/periphery/Jackpot.sol\":2270:2284  amounts[i] = 1 */\n      dup2\n      dup2\n      mstore\n      pop\n      pop\n        /* \"contracts/periphery/Jackpot.sol\":2208:2211  i++ */\n      dup1\n      dup1\n      0x01\n      add\n      swap2\n      pop\n      pop\n        /* \"contracts/periphery/Jackpot.sol\":2163:2296  for(uint i = 0; i < collectedCardsID.length; i++){... */\n      jump(tag_123)\n    tag_124:\n      pop\n        /* \"contracts/periphery/Jackpot.sol\":2306:2311  myNFT */\n      0x02\n      0x00\n      swap1\n      sload\n      swap1\n      0x0100\n      exp\n      swap1\n      div\n      0xffffffffffffffffffffffffffffffffffffffff\n      and\n        /* \"contracts/periphery/Jackpot.sol\":2306:2321  myNFT.burnBatch */\n      0xffffffffffffffffffffffffffffffffffffffff\n      and\n      0x6b20c454\n        /* \"contracts/periphery/Jackpot.sol\":2322:2327  _user */\n      dup5\n        /* \"contracts/periphery/Jackpot.sol\":2329:2332  ids */\n      dup5\n        /* \"contracts/periphery/Jackpot.sol\":2334:2341  amounts */\n      dup5\n        /* \"contracts/periphery/Jackpot.sol\":2306:2342  myNFT.burnBatch(_user, ids, amounts) */\n      mload(0x40)\n      dup5\n      0xffffffff\n      and\n      0xe0\n      shl\n      dup2\n      mstore\n      0x04\n      add\n      tag_133\n      swap4\n      swap3\n      swap2\n      swap1\n      tag_134\n      jump\t// in\n    tag_133:\n      0x00\n      mload(0x40)\n      dup1\n      dup4\n      sub\n      dup2\n      0x00\n      dup8\n      dup1\n      extcodesize\n      iszero\n      dup1\n      iszero\n      tag_135\n      jumpi\n      0x00\n      dup1\n      revert\n    tag_135:\n      pop\n      gas\n      call\n      iszero\n      dup1\n      iszero\n      tag_137\n      jumpi\n      returndatasize\n      0x00\n      dup1\n      returndatacopy\n      revert(0x00, returndatasize)\n    tag_137:\n      pop\n      pop\n      pop\n      pop\n        /* \"contracts/periphery/Jackpot.sol\":2004:2350  {... */\n      pop\n      pop\n        /* \"contracts/periphery/Jackpot.sol\":1966:2350  function _burn(address _user) internal{... */\n      pop\n      jump\t// out\n        /* \"@openzeppelin/contracts/access/Ownable.sol\":1796:1958  function _checkOwner() internal view virtual {... */\n    tag_77:\n        /* \"@openzeppelin/contracts/access/Ownable.sol\":1866:1878  _msgSender() */\n      tag_139\n        /* \"@openzeppelin/contracts/access/Ownable.sol\":1866:1876  _msgSender */\n      tag_140\n        /* \"@openzeppelin/contracts/access/Ownable.sol\":1866:1878  _msgSender() */\n      jump\t// in\n    tag_139:\n        /* \"@openzeppelin/contracts/access/Ownable.sol\":1855:1878  owner() != _msgSender() */\n      0xffffffffffffffffffffffffffffffffffffffff\n      and\n        /* \"@openzeppelin/contracts/access/Ownable.sol\":1855:1862  owner() */\n      tag_141\n        /* \"@openzeppelin/contracts/access/Ownable.sol\":1855:1860  owner */\n      tag_37\n        /* \"@openzeppelin/contracts/access/Ownable.sol\":1855:1862  owner() */\n      jump\t// in\n    tag_141:\n        /* \"@openzeppelin/contracts/access/Ownable.sol\":1855:1878  owner() != _msgSender() */\n      0xffffffffffffffffffffffffffffffffffffffff\n      and\n      eq\n        /* \"@openzeppelin/contracts/access/Ownable.sol\":1851:1952  if (owner() != _msgSender()) {... */\n      tag_142\n      jumpi\n        /* \"@openzeppelin/contracts/access/Ownable.sol\":1928:1940  _msgSender() */\n      tag_143\n        /* \"@openzeppelin/contracts/access/Ownable.sol\":1928:1938  _msgSender */\n      tag_140\n        /* \"@openzeppelin/contracts/access/Ownable.sol\":1928:1940  _msgSender() */\n      jump\t// in\n    tag_143:\n        /* \"@openzeppelin/contracts/access/Ownable.sol\":1901:1941  OwnableUnauthorizedAccount(_msgSender()) */\n      mload(0x40)\n      0x118cdaa700000000000000000000000000000000000000000000000000000000\n      dup2\n      mstore\n      0x04\n      add\n      tag_144\n      swap2\n      swap1\n      tag_39\n      jump\t// in\n    tag_144:\n      mload(0x40)\n      dup1\n      swap2\n      sub\n      swap1\n      revert\n        /* \"@openzeppelin/contracts/access/Ownable.sol\":1851:1952  if (owner() != _msgSender()) {... */\n    tag_142:\n        /* \"@openzeppelin/contracts/access/Ownable.sol\":1796:1958  function _checkOwner() internal view virtual {... */\n      jump\t// out\n        /* \"@openzeppelin/contracts/access/Ownable.sol\":2912:3099  function _transferOwnership(address newOwner) internal virtual {... */\n    tag_80:\n        /* \"@openzeppelin/contracts/access/Ownable.sol\":2985:3001  address oldOwner */\n      0x00\n        /* \"@openzeppelin/contracts/access/Ownable.sol\":3004:3010  _owner */\n      dup1\n      0x00\n      swap1\n      sload\n      swap1\n      0x0100\n      exp\n      swap1\n      div\n      0xffffffffffffffffffffffffffffffffffffffff\n      and\n        /* \"@openzeppelin/contracts/access/Ownable.sol\":2985:3010  address oldOwner = _owner */\n      swap1\n      pop\n        /* \"@openzeppelin/contracts/access/Ownable.sol\":3029:3037  newOwner */\n      dup2\n        /* \"@openzeppelin/contracts/access/Ownable.sol\":3020:3026  _owner */\n      0x00\n      dup1\n        /* \"@openzeppelin/contracts/access/Ownable.sol\":3020:3037  _owner = newOwner */\n      0x0100\n      exp\n      dup2\n      sload\n      dup2\n      0xffffffffffffffffffffffffffffffffffffffff\n      mul\n      not\n      and\n      swap1\n      dup4\n      0xffffffffffffffffffffffffffffffffffffffff\n      and\n      mul\n      or\n      swap1\n      sstore\n      pop\n        /* \"@openzeppelin/contracts/access/Ownable.sol\":3083:3091  newOwner */\n      dup2\n        /* \"@openzeppelin/contracts/access/Ownable.sol\":3052:3092  OwnershipTransferred(oldOwner, newOwner) */\n      0xffffffffffffffffffffffffffffffffffffffff\n      and\n        /* \"@openzeppelin/contracts/access/Ownable.sol\":3073:3081  oldOwner */\n      dup2\n        /* \"@openzeppelin/contracts/access/Ownable.sol\":3052:3092  OwnershipTransferred(oldOwner, newOwner) */\n      0xffffffffffffffffffffffffffffffffffffffff\n      and\n      0x8be0079c531659141344cd1fd0a4f28419497f9722a3daafe3b4186f6b6457e0\n      mload(0x40)\n      mload(0x40)\n      dup1\n      swap2\n      sub\n      swap1\n      log3\n        /* \"@openzeppelin/contracts/access/Ownable.sol\":2975:3099  {... */\n      pop\n        /* \"@openzeppelin/contracts/access/Ownable.sol\":2912:3099  function _transferOwnership(address newOwner) internal virtual {... */\n      pop\n      jump\t// out\n        /* \"@openzeppelin/contracts/utils/Context.sol\":656:752  function _msgSender() internal view virtual returns (address) {... */\n    tag_140:\n        /* \"@openzeppelin/contracts/utils/Context.sol\":709:716  address */\n      0x00\n        /* \"@openzeppelin/contracts/utils/Context.sol\":735:745  msg.sender */\n      caller\n        /* \"@openzeppelin/contracts/utils/Context.sol\":728:745  return msg.sender */\n      swap1\n      pop\n        /* \"@openzeppelin/contracts/utils/Context.sol\":656:752  function _msgSender() internal view virtual returns (address) {... */\n      swap1\n      jump\t// out\n    tag_86:\n      dup3\n      dup1\n      sload\n      dup3\n      dup3\n      sstore\n      swap1\n      0x00\n      mstore\n      keccak256(0x00, 0x20)\n      swap1\n      0x07\n      add\n      0x08\n      swap1\n      div\n      dup2\n      add\n      swap3\n      dup3\n      iszero\n      tag_147\n      jumpi\n      swap2\n      0x20\n      mul\n      dup3\n      add\n      0x00\n    tag_148:\n      dup4\n      dup3\n      gt\n      iszero\n      tag_149\n      jumpi\n      dup4\n      mload\n      dup4\n      dup3\n      0x0100\n      exp\n      dup2\n      sload\n      dup2\n      0xffffffff\n      mul\n      not\n      and\n      swap1\n      dup4\n      0xffffffff\n      and\n      mul\n      or\n      swap1\n      sstore\n      pop\n      swap3\n      0x20\n      add\n      swap3\n      0x04\n      add\n      0x20\n      dup2\n      0x03\n      add\n      div\n      swap3\n      dup4\n      add\n      swap3\n      0x01\n      sub\n      mul\n      jump(tag_148)\n    tag_149:\n      dup1\n      iszero\n      tag_150\n      jumpi\n      dup3\n      dup2\n      0x0100\n      exp\n      dup2\n      sload\n      swap1\n      0xffffffff\n      mul\n      not\n      and\n      swap1\n      sstore\n      0x04\n      add\n      0x20\n      dup2\n      0x03\n      add\n      div\n      swap3\n      dup4\n      add\n      swap3\n      0x01\n      sub\n      mul\n      jump(tag_149)\n    tag_150:\n      pop\n    tag_147:\n      pop\n      swap1\n      pop\n      tag_151\n      swap2\n      swap1\n      tag_152\n      jump\t// in\n    tag_151:\n      pop\n      swap1\n      jump\t// out\n    tag_152:\n    tag_153:\n      dup1\n      dup3\n      gt\n      iszero\n      tag_154\n      jumpi\n      0x00\n      dup2\n      0x00\n      swap1\n      sstore\n      pop\n      0x01\n      add\n      jump(tag_153)\n    tag_154:\n      pop\n      swap1\n      jump\t// out\n        /* \"#utility.yul\":7:133   */\n    tag_155:\n        /* \"#utility.yul\":44:51   */\n      0x00\n        /* \"#utility.yul\":84:126   */\n      0xffffffffffffffffffffffffffffffffffffffff\n        /* \"#utility.yul\":77:82   */\n      dup3\n        /* \"#utility.yul\":73:127   */\n      and\n        /* \"#utility.yul\":62:127   */\n      swap1\n      pop\n        /* \"#utility.yul\":7:133   */\n      swap2\n      swap1\n      pop\n      jump\t// out\n        /* \"#utility.yul\":139:199   */\n    tag_156:\n        /* \"#utility.yul\":167:170   */\n      0x00\n        /* \"#utility.yul\":188:193   */\n      dup2\n        /* \"#utility.yul\":181:193   */\n      swap1\n      pop\n        /* \"#utility.yul\":139:199   */\n      swap2\n      swap1\n      pop\n      jump\t// out\n        /* \"#utility.yul\":205:347   */\n    tag_157:\n        /* \"#utility.yul\":255:264   */\n      0x00\n        /* \"#utility.yul\":288:341   */\n      tag_210\n        /* \"#utility.yul\":306:340   */\n      tag_211\n        /* \"#utility.yul\":315:339   */\n      tag_212\n        /* \"#utility.yul\":333:338   */\n      dup5\n        /* \"#utility.yul\":315:339   */\n      tag_155\n      jump\t// in\n    tag_212:\n        /* \"#utility.yul\":306:340   */\n      tag_156\n      jump\t// in\n    tag_211:\n        /* \"#utility.yul\":288:341   */\n      tag_155\n      jump\t// in\n    tag_210:\n        /* \"#utility.yul\":275:341   */\n      swap1\n      pop\n        /* \"#utility.yul\":205:347   */\n      swap2\n      swap1\n      pop\n      jump\t// out\n        /* \"#utility.yul\":353:479   */\n    tag_158:\n        /* \"#utility.yul\":403:412   */\n      0x00\n        /* \"#utility.yul\":436:473   */\n      tag_214\n        /* \"#utility.yul\":467:472   */\n      dup3\n        /* \"#utility.yul\":436:473   */\n      tag_157\n      jump\t// in\n    tag_214:\n        /* \"#utility.yul\":423:473   */\n      swap1\n      pop\n        /* \"#utility.yul\":353:479   */\n      swap2\n      swap1\n      pop\n      jump\t// out\n        /* \"#utility.yul\":485:626   */\n    tag_159:\n        /* \"#utility.yul\":550:559   */\n      0x00\n        /* \"#utility.yul\":583:620   */\n      tag_216\n        /* \"#utility.yul\":614:619   */\n      dup3\n        /* \"#utility.yul\":583:620   */\n      tag_158\n      jump\t// in\n    tag_216:\n        /* \"#utility.yul\":570:620   */\n      swap1\n      pop\n        /* \"#utility.yul\":485:626   */\n      swap2\n      swap1\n      pop\n      jump\t// out\n        /* \"#utility.yul\":632:793   */\n    tag_160:\n        /* \"#utility.yul\":734:786   */\n      tag_218\n        /* \"#utility.yul\":780:785   */\n      dup2\n        /* \"#utility.yul\":734:786   */\n      tag_159\n      jump\t// in\n    tag_218:\n        /* \"#utility.yul\":729:732   */\n      dup3\n        /* \"#utility.yul\":722:787   */\n      mstore\n        /* \"#utility.yul\":632:793   */\n      pop\n      pop\n      jump\t// out\n        /* \"#utility.yul\":799:1051   */\n    tag_17:\n        /* \"#utility.yul\":907:911   */\n      0x00\n        /* \"#utility.yul\":945:947   */\n      0x20\n        /* \"#utility.yul\":934:943   */\n      dup3\n        /* \"#utility.yul\":930:948   */\n      add\n        /* \"#utility.yul\":922:948   */\n      swap1\n      pop\n        /* \"#utility.yul\":958:1044   */\n      tag_220\n        /* \"#utility.yul\":1041:1042   */\n      0x00\n        /* \"#utility.yul\":1030:1039   */\n      dup4\n        /* \"#utility.yul\":1026:1043   */\n      add\n        /* \"#utility.yul\":1017:1023   */\n      dup5\n        /* \"#utility.yul\":958:1044   */\n      tag_160\n      jump\t// in\n    tag_220:\n        /* \"#utility.yul\":799:1051   */\n      swap3\n      swap2\n      pop\n      pop\n      jump\t// out\n        /* \"#utility.yul\":1057:1132   */\n    tag_161:\n        /* \"#utility.yul\":1090:1096   */\n      0x00\n        /* \"#utility.yul\":1123:1125   */\n      0x40\n        /* \"#utility.yul\":1117:1126   */\n      mload\n        /* \"#utility.yul\":1107:1126   */\n      swap1\n      pop\n        /* \"#utility.yul\":1057:1132   */\n      swap1\n      jump\t// out\n        /* \"#utility.yul\":1138:1255   */\n    tag_162:\n        /* \"#utility.yul\":1247:1248   */\n      0x00\n        /* \"#utility.yul\":1244:1245   */\n      dup1\n        /* \"#utility.yul\":1237:1249   */\n      revert\n        /* \"#utility.yul\":1261:1378   */\n    tag_163:\n        /* \"#utility.yul\":1370:1371   */\n      0x00\n        /* \"#utility.yul\":1367:1368   */\n      dup1\n        /* \"#utility.yul\":1360:1372   */\n      revert\n        /* \"#utility.yul\":1384:1461   */\n    tag_164:\n        /* \"#utility.yul\":1421:1428   */\n      0x00\n        /* \"#utility.yul\":1450:1455   */\n      dup2\n        /* \"#utility.yul\":1439:1455   */\n      swap1\n      pop\n        /* \"#utility.yul\":1384:1461   */\n      swap2\n      swap1\n      pop\n      jump\t// out\n        /* \"#utility.yul\":1467:1589   */\n    tag_165:\n        /* \"#utility.yul\":1540:1564   */\n      tag_226\n        /* \"#utility.yul\":1558:1563   */\n      dup2\n        /* \"#utility.yul\":1540:1564   */\n      tag_164\n      jump\t// in\n    tag_226:\n        /* \"#utility.yul\":1533:1538   */\n      dup2\n        /* \"#utility.yul\":1530:1565   */\n      eq\n        /* \"#utility.yul\":1520:1583   */\n      tag_227\n      jumpi\n        /* \"#utility.yul\":1579:1580   */\n      0x00\n        /* \"#utility.yul\":1576:1577   */\n      dup1\n        /* \"#utility.yul\":1569:1581   */\n      revert\n        /* \"#utility.yul\":1520:1583   */\n    tag_227:\n        /* \"#utility.yul\":1467:1589   */\n      pop\n      jump\t// out\n        /* \"#utility.yul\":1595:1734   */\n    tag_166:\n        /* \"#utility.yul\":1641:1646   */\n      0x00\n        /* \"#utility.yul\":1679:1685   */\n      dup2\n        /* \"#utility.yul\":1666:1686   */\n      calldataload\n        /* \"#utility.yul\":1657:1686   */\n      swap1\n      pop\n        /* \"#utility.yul\":1695:1728   */\n      tag_229\n        /* \"#utility.yul\":1722:1727   */\n      dup2\n        /* \"#utility.yul\":1695:1728   */\n      tag_165\n      jump\t// in\n    tag_229:\n        /* \"#utility.yul\":1595:1734   */\n      swap3\n      swap2\n      pop\n      pop\n      jump\t// out\n        /* \"#utility.yul\":1740:2069   */\n    tag_20:\n        /* \"#utility.yul\":1799:1805   */\n      0x00\n        /* \"#utility.yul\":1848:1850   */\n      0x20\n        /* \"#utility.yul\":1836:1845   */\n      dup3\n        /* \"#utility.yul\":1827:1834   */\n      dup5\n        /* \"#utility.yul\":1823:1846   */\n      sub\n        /* \"#utility.yul\":1819:1851   */\n      slt\n        /* \"#utility.yul\":1816:1935   */\n      iszero\n      tag_231\n      jumpi\n        /* \"#utility.yul\":1854:1933   */\n      tag_232\n      tag_162\n      jump\t// in\n    tag_232:\n        /* \"#utility.yul\":1816:1935   */\n    tag_231:\n        /* \"#utility.yul\":1974:1975   */\n      0x00\n        /* \"#utility.yul\":1999:2052   */\n      tag_233\n        /* \"#utility.yul\":2044:2051   */\n      dup5\n        /* \"#utility.yul\":2035:2041   */\n      dup3\n        /* \"#utility.yul\":2024:2033   */\n      dup6\n        /* \"#utility.yul\":2020:2042   */\n      add\n        /* \"#utility.yul\":1999:2052   */\n      tag_166\n      jump\t// in\n    tag_233:\n        /* \"#utility.yul\":1989:2052   */\n      swap2\n      pop\n        /* \"#utility.yul\":1945:2062   */\n      pop\n        /* \"#utility.yul\":1740:2069   */\n      swap3\n      swap2\n      pop\n      pop\n      jump\t// out\n        /* \"#utility.yul\":2075:2168   */\n    tag_167:\n        /* \"#utility.yul\":2111:2118   */\n      0x00\n        /* \"#utility.yul\":2151:2161   */\n      0xffffffff\n        /* \"#utility.yul\":2144:2149   */\n      dup3\n        /* \"#utility.yul\":2140:2162   */\n      and\n        /* \"#utility.yul\":2129:2162   */\n      swap1\n      pop\n        /* \"#utility.yul\":2075:2168   */\n      swap2\n      swap1\n      pop\n      jump\t// out\n        /* \"#utility.yul\":2174:2289   */\n    tag_168:\n        /* \"#utility.yul\":2259:2282   */\n      tag_236\n        /* \"#utility.yul\":2276:2281   */\n      dup2\n        /* \"#utility.yul\":2259:2282   */\n      tag_167\n      jump\t// in\n    tag_236:\n        /* \"#utility.yul\":2254:2257   */\n      dup3\n        /* \"#utility.yul\":2247:2283   */\n      mstore\n        /* \"#utility.yul\":2174:2289   */\n      pop\n      pop\n      jump\t// out\n        /* \"#utility.yul\":2295:2513   */\n    tag_23:\n        /* \"#utility.yul\":2386:2390   */\n      0x00\n        /* \"#utility.yul\":2424:2426   */\n      0x20\n        /* \"#utility.yul\":2413:2422   */\n      dup3\n        /* \"#utility.yul\":2409:2427   */\n      add\n        /* \"#utility.yul\":2401:2427   */\n      swap1\n      pop\n        /* \"#utility.yul\":2437:2506   */\n      tag_238\n        /* \"#utility.yul\":2503:2504   */\n      0x00\n        /* \"#utility.yul\":2492:2501   */\n      dup4\n        /* \"#utility.yul\":2488:2505   */\n      add\n        /* \"#utility.yul\":2479:2485   */\n      dup5\n        /* \"#utility.yul\":2437:2506   */\n      tag_168\n      jump\t// in\n    tag_238:\n        /* \"#utility.yul\":2295:2513   */\n      swap3\n      swap2\n      pop\n      pop\n      jump\t// out\n        /* \"#utility.yul\":2519:2658   */\n    tag_169:\n        /* \"#utility.yul\":2582:2591   */\n      0x00\n        /* \"#utility.yul\":2615:2652   */\n      tag_240\n        /* \"#utility.yul\":2646:2651   */\n      dup3\n        /* \"#utility.yul\":2615:2652   */\n      tag_158\n      jump\t// in\n    tag_240:\n        /* \"#utility.yul\":2602:2652   */\n      swap1\n      pop\n        /* \"#utility.yul\":2519:2658   */\n      swap2\n      swap1\n      pop\n      jump\t// out\n        /* \"#utility.yul\":2664:2821   */\n    tag_170:\n        /* \"#utility.yul\":2764:2814   */\n      tag_242\n        /* \"#utility.yul\":2808:2813   */\n      dup2\n        /* \"#utility.yul\":2764:2814   */\n      tag_169\n      jump\t// in\n    tag_242:\n        /* \"#utility.yul\":2759:2762   */\n      dup3\n        /* \"#utility.yul\":2752:2815   */\n      mstore\n        /* \"#utility.yul\":2664:2821   */\n      pop\n      pop\n      jump\t// out\n        /* \"#utility.yul\":2827:3075   */\n    tag_27:\n        /* \"#utility.yul\":2933:2937   */\n      0x00\n        /* \"#utility.yul\":2971:2973   */\n      0x20\n        /* \"#utility.yul\":2960:2969   */\n      dup3\n        /* \"#utility.yul\":2956:2974   */\n      add\n        /* \"#utility.yul\":2948:2974   */\n      swap1\n      pop\n        /* \"#utility.yul\":2984:3068   */\n      tag_244\n        /* \"#utility.yul\":3065:3066   */\n      0x00\n        /* \"#utility.yul\":3054:3063   */\n      dup4\n        /* \"#utility.yul\":3050:3067   */\n      add\n        /* \"#utility.yul\":3041:3047   */\n      dup5\n        /* \"#utility.yul\":2984:3068   */\n      tag_170\n      jump\t// in\n    tag_244:\n        /* \"#utility.yul\":2827:3075   */\n      swap3\n      swap2\n      pop\n      pop\n      jump\t// out\n        /* \"#utility.yul\":3081:3194   */\n    tag_171:\n        /* \"#utility.yul\":3147:3153   */\n      0x00\n        /* \"#utility.yul\":3181:3186   */\n      dup2\n        /* \"#utility.yul\":3175:3187   */\n      mload\n        /* \"#utility.yul\":3165:3187   */\n      swap1\n      pop\n        /* \"#utility.yul\":3081:3194   */\n      swap2\n      swap1\n      pop\n      jump\t// out\n        /* \"#utility.yul\":3200:3383   */\n    tag_172:\n        /* \"#utility.yul\":3298:3309   */\n      0x00\n        /* \"#utility.yul\":3332:3338   */\n      dup3\n        /* \"#utility.yul\":3327:3330   */\n      dup3\n        /* \"#utility.yul\":3320:3339   */\n      mstore\n        /* \"#utility.yul\":3372:3376   */\n      0x20\n        /* \"#utility.yul\":3367:3370   */\n      dup3\n        /* \"#utility.yul\":3363:3377   */\n      add\n        /* \"#utility.yul\":3348:3377   */\n      swap1\n      pop\n        /* \"#utility.yul\":3200:3383   */\n      swap3\n      swap2\n      pop\n      pop\n      jump\t// out\n        /* \"#utility.yul\":3389:3520   */\n    tag_173:\n        /* \"#utility.yul\":3455:3459   */\n      0x00\n        /* \"#utility.yul\":3478:3481   */\n      dup2\n        /* \"#utility.yul\":3470:3481   */\n      swap1\n      pop\n        /* \"#utility.yul\":3508:3512   */\n      0x20\n        /* \"#utility.yul\":3503:3506   */\n      dup3\n        /* \"#utility.yul\":3499:3513   */\n      add\n        /* \"#utility.yul\":3491:3513   */\n      swap1\n      pop\n        /* \"#utility.yul\":3389:3520   */\n      swap2\n      swap1\n      pop\n      jump\t// out\n        /* \"#utility.yul\":3526:3631   */\n    tag_174:\n        /* \"#utility.yul\":3601:3624   */\n      tag_249\n        /* \"#utility.yul\":3618:3623   */\n      dup2\n        /* \"#utility.yul\":3601:3624   */\n      tag_167\n      jump\t// in\n    tag_249:\n        /* \"#utility.yul\":3596:3599   */\n      dup3\n        /* \"#utility.yul\":3589:3625   */\n      mstore\n        /* \"#utility.yul\":3526:3631   */\n      pop\n      pop\n      jump\t// out\n        /* \"#utility.yul\":3637:3812   */\n    tag_175:\n        /* \"#utility.yul\":3704:3714   */\n      0x00\n        /* \"#utility.yul\":3725:3769   */\n      tag_251\n        /* \"#utility.yul\":3765:3768   */\n      dup4\n        /* \"#utility.yul\":3757:3763   */\n      dup4\n        /* \"#utility.yul\":3725:3769   */\n      tag_174\n      jump\t// in\n    tag_251:\n        /* \"#utility.yul\":3801:3805   */\n      0x20\n        /* \"#utility.yul\":3796:3799   */\n      dup4\n        /* \"#utility.yul\":3792:3806   */\n      add\n        /* \"#utility.yul\":3778:3806   */\n      swap1\n      pop\n        /* \"#utility.yul\":3637:3812   */\n      swap3\n      swap2\n      pop\n      pop\n      jump\t// out\n        /* \"#utility.yul\":3818:3930   */\n    tag_176:\n        /* \"#utility.yul\":3887:3891   */\n      0x00\n        /* \"#utility.yul\":3919:3923   */\n      0x20\n        /* \"#utility.yul\":3914:3917   */\n      dup3\n        /* \"#utility.yul\":3910:3924   */\n      add\n        /* \"#utility.yul\":3902:3924   */\n      swap1\n      pop\n        /* \"#utility.yul\":3818:3930   */\n      swap2\n      swap1\n      pop\n      jump\t// out\n        /* \"#utility.yul\":3964:4688   */\n    tag_177:\n        /* \"#utility.yul\":4081:4084   */\n      0x00\n        /* \"#utility.yul\":4110:4163   */\n      tag_254\n        /* \"#utility.yul\":4157:4162   */\n      dup3\n        /* \"#utility.yul\":4110:4163   */\n      tag_171\n      jump\t// in\n    tag_254:\n        /* \"#utility.yul\":4179:4264   */\n      tag_255\n        /* \"#utility.yul\":4257:4263   */\n      dup2\n        /* \"#utility.yul\":4252:4255   */\n      dup6\n        /* \"#utility.yul\":4179:4264   */\n      tag_172\n      jump\t// in\n    tag_255:\n        /* \"#utility.yul\":4172:4264   */\n      swap4\n      pop\n        /* \"#utility.yul\":4288:4343   */\n      tag_256\n        /* \"#utility.yul\":4337:4342   */\n      dup4\n        /* \"#utility.yul\":4288:4343   */\n      tag_173\n      jump\t// in\n    tag_256:\n        /* \"#utility.yul\":4366:4373   */\n      dup1\n        /* \"#utility.yul\":4397:4398   */\n      0x00\n        /* \"#utility.yul\":4382:4663   */\n    tag_257:\n        /* \"#utility.yul\":4407:4413   */\n      dup4\n        /* \"#utility.yul\":4404:4405   */\n      dup2\n        /* \"#utility.yul\":4401:4414   */\n      lt\n        /* \"#utility.yul\":4382:4663   */\n      iszero\n      tag_259\n      jumpi\n        /* \"#utility.yul\":4483:4489   */\n      dup2\n        /* \"#utility.yul\":4477:4490   */\n      mload\n        /* \"#utility.yul\":4510:4571   */\n      tag_260\n        /* \"#utility.yul\":4567:4570   */\n      dup9\n        /* \"#utility.yul\":4552:4565   */\n      dup3\n        /* \"#utility.yul\":4510:4571   */\n      tag_175\n      jump\t// in\n    tag_260:\n        /* \"#utility.yul\":4503:4571   */\n      swap8\n      pop\n        /* \"#utility.yul\":4594:4653   */\n      tag_261\n        /* \"#utility.yul\":4646:4652   */\n      dup4\n        /* \"#utility.yul\":4594:4653   */\n      tag_176\n      jump\t// in\n    tag_261:\n        /* \"#utility.yul\":4584:4653   */\n      swap3\n      pop\n        /* \"#utility.yul\":4442:4663   */\n      pop\n        /* \"#utility.yul\":4429:4430   */\n      0x01\n        /* \"#utility.yul\":4426:4427   */\n      dup2\n        /* \"#utility.yul\":4422:4431   */\n      add\n        /* \"#utility.yul\":4417:4431   */\n      swap1\n      pop\n        /* \"#utility.yul\":4382:4663   */\n      jump(tag_257)\n    tag_259:\n        /* \"#utility.yul\":4386:4400   */\n      pop\n        /* \"#utility.yul\":4679:4682   */\n      dup6\n        /* \"#utility.yul\":4672:4682   */\n      swap4\n      pop\n        /* \"#utility.yul\":4086:4688   */\n      pop\n      pop\n      pop\n        /* \"#utility.yul\":3964:4688   */\n      swap3\n      swap2\n      pop\n      pop\n      jump\t// out\n        /* \"#utility.yul\":4694:5063   */\n    tag_31:\n        /* \"#utility.yul\":4835:4839   */\n      0x00\n        /* \"#utility.yul\":4873:4875   */\n      0x20\n        /* \"#utility.yul\":4862:4871   */\n      dup3\n        /* \"#utility.yul\":4858:4876   */\n      add\n        /* \"#utility.yul\":4850:4876   */\n      swap1\n      pop\n        /* \"#utility.yul\":4922:4931   */\n      dup2\n        /* \"#utility.yul\":4916:4920   */\n      dup2\n        /* \"#utility.yul\":4912:4932   */\n      sub\n        /* \"#utility.yul\":4908:4909   */\n      0x00\n        /* \"#utility.yul\":4897:4906   */\n      dup4\n        /* \"#utility.yul\":4893:4910   */\n      add\n        /* \"#utility.yul\":4886:4933   */\n      mstore\n        /* \"#utility.yul\":4950:5056   */\n      tag_263\n        /* \"#utility.yul\":5051:5055   */\n      dup2\n        /* \"#utility.yul\":5042:5048   */\n      dup5\n        /* \"#utility.yul\":4950:5056   */\n      tag_177\n      jump\t// in\n    tag_263:\n        /* \"#utility.yul\":4942:5056   */\n      swap1\n      pop\n        /* \"#utility.yul\":4694:5063   */\n      swap3\n      swap2\n      pop\n      pop\n      jump\t// out\n        /* \"#utility.yul\":5069:5165   */\n    tag_178:\n        /* \"#utility.yul\":5106:5113   */\n      0x00\n        /* \"#utility.yul\":5135:5159   */\n      tag_265\n        /* \"#utility.yul\":5153:5158   */\n      dup3\n        /* \"#utility.yul\":5135:5159   */\n      tag_155\n      jump\t// in\n    tag_265:\n        /* \"#utility.yul\":5124:5159   */\n      swap1\n      pop\n        /* \"#utility.yul\":5069:5165   */\n      swap2\n      swap1\n      pop\n      jump\t// out\n        /* \"#utility.yul\":5171:5289   */\n    tag_179:\n        /* \"#utility.yul\":5258:5282   */\n      tag_267\n        /* \"#utility.yul\":5276:5281   */\n      dup2\n        /* \"#utility.yul\":5258:5282   */\n      tag_178\n      jump\t// in\n    tag_267:\n        /* \"#utility.yul\":5253:5256   */\n      dup3\n        /* \"#utility.yul\":5246:5283   */\n      mstore\n        /* \"#utility.yul\":5171:5289   */\n      pop\n      pop\n      jump\t// out\n        /* \"#utility.yul\":5295:5517   */\n    tag_39:\n        /* \"#utility.yul\":5388:5392   */\n      0x00\n        /* \"#utility.yul\":5426:5428   */\n      0x20\n        /* \"#utility.yul\":5415:5424   */\n      dup3\n        /* \"#utility.yul\":5411:5429   */\n      add\n        /* \"#utility.yul\":5403:5429   */\n      swap1\n      pop\n        /* \"#utility.yul\":5439:5510   */\n      tag_269\n        /* \"#utility.yul\":5507:5508   */\n      0x00\n        /* \"#utility.yul\":5496:5505   */\n      dup4\n        /* \"#utility.yul\":5492:5509   */\n      add\n        /* \"#utility.yul\":5483:5489   */\n      dup5\n        /* \"#utility.yul\":5439:5510   */\n      tag_179\n      jump\t// in\n    tag_269:\n        /* \"#utility.yul\":5295:5517   */\n      swap3\n      swap2\n      pop\n      pop\n      jump\t// out\n        /* \"#utility.yul\":5523:5640   */\n    tag_180:\n        /* \"#utility.yul\":5632:5633   */\n      0x00\n        /* \"#utility.yul\":5629:5630   */\n      dup1\n        /* \"#utility.yul\":5622:5634   */\n      revert\n        /* \"#utility.yul\":5646:5748   */\n    tag_181:\n        /* \"#utility.yul\":5687:5693   */\n      0x00\n        /* \"#utility.yul\":5738:5740   */\n      0x1f\n        /* \"#utility.yul\":5734:5741   */\n      not\n        /* \"#utility.yul\":5729:5731   */\n      0x1f\n        /* \"#utility.yul\":5722:5727   */\n      dup4\n        /* \"#utility.yul\":5718:5732   */\n      add\n        /* \"#utility.yul\":5714:5742   */\n      and\n        /* \"#utility.yul\":5704:5742   */\n      swap1\n      pop\n        /* \"#utility.yul\":5646:5748   */\n      swap2\n      swap1\n      pop\n      jump\t// out\n        /* \"#utility.yul\":5754:5934   */\n    tag_118:\n        /* \"#utility.yul\":5802:5879   */\n      0x4e487b7100000000000000000000000000000000000000000000000000000000\n        /* \"#utility.yul\":5799:5800   */\n      0x00\n        /* \"#utility.yul\":5792:5880   */\n      mstore\n        /* \"#utility.yul\":5899:5903   */\n      0x41\n        /* \"#utility.yul\":5896:5897   */\n      0x04\n        /* \"#utility.yul\":5889:5904   */\n      mstore\n        /* \"#utility.yul\":5923:5927   */\n      0x24\n        /* \"#utility.yul\":5920:5921   */\n      0x00\n        /* \"#utility.yul\":5913:5928   */\n      revert\n        /* \"#utility.yul\":5940:6221   */\n    tag_182:\n        /* \"#utility.yul\":6023:6050   */\n      tag_274\n        /* \"#utility.yul\":6045:6049   */\n      dup3\n        /* \"#utility.yul\":6023:6050   */\n      tag_181\n      jump\t// in\n    tag_274:\n        /* \"#utility.yul\":6015:6021   */\n      dup2\n        /* \"#utility.yul\":6011:6051   */\n      add\n        /* \"#utility.yul\":6153:6159   */\n      dup2\n        /* \"#utility.yul\":6141:6151   */\n      dup2\n        /* \"#utility.yul\":6138:6160   */\n      lt\n        /* \"#utility.yul\":6117:6135   */\n      0xffffffffffffffff\n        /* \"#utility.yul\":6105:6115   */\n      dup3\n        /* \"#utility.yul\":6102:6136   */\n      gt\n        /* \"#utility.yul\":6099:6161   */\n      or\n        /* \"#utility.yul\":6096:6184   */\n      iszero\n      tag_275\n      jumpi\n        /* \"#utility.yul\":6164:6182   */\n      tag_276\n      tag_118\n      jump\t// in\n    tag_276:\n        /* \"#utility.yul\":6096:6184   */\n    tag_275:\n        /* \"#utility.yul\":6204:6214   */\n      dup1\n        /* \"#utility.yul\":6200:6202   */\n      0x40\n        /* \"#utility.yul\":6193:6215   */\n      mstore\n        /* \"#utility.yul\":5983:6221   */\n      pop\n        /* \"#utility.yul\":5940:6221   */\n      pop\n      pop\n      jump\t// out\n        /* \"#utility.yul\":6227:6356   */\n    tag_183:\n        /* \"#utility.yul\":6261:6267   */\n      0x00\n        /* \"#utility.yul\":6288:6308   */\n      tag_278\n      tag_161\n      jump\t// in\n    tag_278:\n        /* \"#utility.yul\":6278:6308   */\n      swap1\n      pop\n        /* \"#utility.yul\":6317:6350   */\n      tag_279\n        /* \"#utility.yul\":6345:6349   */\n      dup3\n        /* \"#utility.yul\":6337:6343   */\n      dup3\n        /* \"#utility.yul\":6317:6350   */\n      tag_182\n      jump\t// in\n    tag_279:\n        /* \"#utility.yul\":6227:6356   */\n      swap2\n      swap1\n      pop\n      jump\t// out\n        /* \"#utility.yul\":6362:6672   */\n    tag_184:\n        /* \"#utility.yul\":6438:6442   */\n      0x00\n        /* \"#utility.yul\":6528:6546   */\n      0xffffffffffffffff\n        /* \"#utility.yul\":6520:6526   */\n      dup3\n        /* \"#utility.yul\":6517:6547   */\n      gt\n        /* \"#utility.yul\":6514:6570   */\n      iszero\n      tag_281\n      jumpi\n        /* \"#utility.yul\":6550:6568   */\n      tag_282\n      tag_118\n      jump\t// in\n    tag_282:\n        /* \"#utility.yul\":6514:6570   */\n    tag_281:\n        /* \"#utility.yul\":6600:6604   */\n      0x20\n        /* \"#utility.yul\":6592:6598   */\n      dup3\n        /* \"#utility.yul\":6588:6605   */\n      mul\n        /* \"#utility.yul\":6580:6605   */\n      swap1\n      pop\n        /* \"#utility.yul\":6660:6664   */\n      0x20\n        /* \"#utility.yul\":6654:6658   */\n      dup2\n        /* \"#utility.yul\":6650:6665   */\n      add\n        /* \"#utility.yul\":6642:6665   */\n      swap1\n      pop\n        /* \"#utility.yul\":6362:6672   */\n      swap2\n      swap1\n      pop\n      jump\t// out\n        /* \"#utility.yul\":6678:6795   */\n    tag_185:\n        /* \"#utility.yul\":6787:6788   */\n      0x00\n        /* \"#utility.yul\":6784:6785   */\n      dup1\n        /* \"#utility.yul\":6777:6789   */\n      revert\n        /* \"#utility.yul\":6801:6921   */\n    tag_186:\n        /* \"#utility.yul\":6873:6896   */\n      tag_285\n        /* \"#utility.yul\":6890:6895   */\n      dup2\n        /* \"#utility.yul\":6873:6896   */\n      tag_167\n      jump\t// in\n    tag_285:\n        /* \"#utility.yul\":6866:6871   */\n      dup2\n        /* \"#utility.yul\":6863:6897   */\n      eq\n        /* \"#utility.yul\":6853:6915   */\n      tag_286\n      jumpi\n        /* \"#utility.yul\":6911:6912   */\n      0x00\n        /* \"#utility.yul\":6908:6909   */\n      dup1\n        /* \"#utility.yul\":6901:6913   */\n      revert\n        /* \"#utility.yul\":6853:6915   */\n    tag_286:\n        /* \"#utility.yul\":6801:6921   */\n      pop\n      jump\t// out\n        /* \"#utility.yul\":6927:7064   */\n    tag_187:\n        /* \"#utility.yul\":6972:6977   */\n      0x00\n        /* \"#utility.yul\":7010:7016   */\n      dup2\n        /* \"#utility.yul\":6997:7017   */\n      calldataload\n        /* \"#utility.yul\":6988:7017   */\n      swap1\n      pop\n        /* \"#utility.yul\":7026:7058   */\n      tag_288\n        /* \"#utility.yul\":7052:7057   */\n      dup2\n        /* \"#utility.yul\":7026:7058   */\n      tag_186\n      jump\t// in\n    tag_288:\n        /* \"#utility.yul\":6927:7064   */\n      swap3\n      swap2\n      pop\n      pop\n      jump\t// out\n        /* \"#utility.yul\":7086:7793   */\n    tag_188:\n        /* \"#utility.yul\":7181:7186   */\n      0x00\n        /* \"#utility.yul\":7206:7286   */\n      tag_290\n        /* \"#utility.yul\":7222:7285   */\n      tag_291\n        /* \"#utility.yul\":7278:7284   */\n      dup5\n        /* \"#utility.yul\":7222:7285   */\n      tag_184\n      jump\t// in\n    tag_291:\n        /* \"#utility.yul\":7206:7286   */\n      tag_183\n      jump\t// in\n    tag_290:\n        /* \"#utility.yul\":7197:7286   */\n      swap1\n      pop\n        /* \"#utility.yul\":7306:7311   */\n      dup1\n        /* \"#utility.yul\":7335:7341   */\n      dup4\n        /* \"#utility.yul\":7328:7333   */\n      dup3\n        /* \"#utility.yul\":7321:7342   */\n      mstore\n        /* \"#utility.yul\":7369:7373   */\n      0x20\n        /* \"#utility.yul\":7362:7367   */\n      dup3\n        /* \"#utility.yul\":7358:7374   */\n      add\n        /* \"#utility.yul\":7351:7374   */\n      swap1\n      pop\n        /* \"#utility.yul\":7422:7426   */\n      0x20\n        /* \"#utility.yul\":7414:7420   */\n      dup5\n        /* \"#utility.yul\":7410:7427   */\n      mul\n        /* \"#utility.yul\":7402:7408   */\n      dup4\n        /* \"#utility.yul\":7398:7428   */\n      add\n        /* \"#utility.yul\":7451:7454   */\n      dup6\n        /* \"#utility.yul\":7443:7449   */\n      dup2\n        /* \"#utility.yul\":7440:7455   */\n      gt\n        /* \"#utility.yul\":7437:7559   */\n      iszero\n      tag_292\n      jumpi\n        /* \"#utility.yul\":7470:7549   */\n      tag_293\n      tag_185\n      jump\t// in\n    tag_293:\n        /* \"#utility.yul\":7437:7559   */\n    tag_292:\n        /* \"#utility.yul\":7585:7591   */\n      dup4\n        /* \"#utility.yul\":7568:7787   */\n    tag_294:\n        /* \"#utility.yul\":7602:7608   */\n      dup2\n        /* \"#utility.yul\":7597:7600   */\n      dup2\n        /* \"#utility.yul\":7594:7609   */\n      lt\n        /* \"#utility.yul\":7568:7787   */\n      iszero\n      tag_296\n      jumpi\n        /* \"#utility.yul\":7677:7680   */\n      dup1\n        /* \"#utility.yul\":7706:7742   */\n      tag_297\n        /* \"#utility.yul\":7738:7741   */\n      dup9\n        /* \"#utility.yul\":7726:7736   */\n      dup3\n        /* \"#utility.yul\":7706:7742   */\n      tag_187\n      jump\t// in\n    tag_297:\n        /* \"#utility.yul\":7701:7704   */\n      dup5\n        /* \"#utility.yul\":7694:7743   */\n      mstore\n        /* \"#utility.yul\":7772:7776   */\n      0x20\n        /* \"#utility.yul\":7767:7770   */\n      dup5\n        /* \"#utility.yul\":7763:7777   */\n      add\n        /* \"#utility.yul\":7756:7777   */\n      swap4\n      pop\n        /* \"#utility.yul\":7644:7787   */\n      pop\n        /* \"#utility.yul\":7628:7632   */\n      0x20\n        /* \"#utility.yul\":7623:7626   */\n      dup2\n        /* \"#utility.yul\":7619:7633   */\n      add\n        /* \"#utility.yul\":7612:7633   */\n      swap1\n      pop\n        /* \"#utility.yul\":7568:7787   */\n      jump(tag_294)\n    tag_296:\n        /* \"#utility.yul\":7572:7593   */\n      pop\n        /* \"#utility.yul\":7187:7793   */\n      pop\n      pop\n        /* \"#utility.yul\":7086:7793   */\n      swap4\n      swap3\n      pop\n      pop\n      pop\n      jump\t// out\n        /* \"#utility.yul\":7815:8183   */\n    tag_189:\n        /* \"#utility.yul\":7885:7890   */\n      0x00\n        /* \"#utility.yul\":7934:7937   */\n      dup3\n        /* \"#utility.yul\":7927:7931   */\n      0x1f\n        /* \"#utility.yul\":7919:7925   */\n      dup4\n        /* \"#utility.yul\":7915:7932   */\n      add\n        /* \"#utility.yul\":7911:7938   */\n      slt\n        /* \"#utility.yul\":7901:8023   */\n      tag_299\n      jumpi\n        /* \"#utility.yul\":7942:8021   */\n      tag_300\n      tag_180\n      jump\t// in\n    tag_300:\n        /* \"#utility.yul\":7901:8023   */\n    tag_299:\n        /* \"#utility.yul\":8059:8065   */\n      dup2\n        /* \"#utility.yul\":8046:8066   */\n      calldataload\n        /* \"#utility.yul\":8084:8177   */\n      tag_301\n        /* \"#utility.yul\":8173:8176   */\n      dup5\n        /* \"#utility.yul\":8165:8171   */\n      dup3\n        /* \"#utility.yul\":8158:8162   */\n      0x20\n        /* \"#utility.yul\":8150:8156   */\n      dup7\n        /* \"#utility.yul\":8146:8163   */\n      add\n        /* \"#utility.yul\":8084:8177   */\n      tag_188\n      jump\t// in\n    tag_301:\n        /* \"#utility.yul\":8075:8177   */\n      swap2\n      pop\n        /* \"#utility.yul\":7891:8183   */\n      pop\n        /* \"#utility.yul\":7815:8183   */\n      swap3\n      swap2\n      pop\n      pop\n      jump\t// out\n        /* \"#utility.yul\":8189:8726   */\n    tag_42:\n        /* \"#utility.yul\":8272:8278   */\n      0x00\n        /* \"#utility.yul\":8321:8323   */\n      0x20\n        /* \"#utility.yul\":8309:8318   */\n      dup3\n        /* \"#utility.yul\":8300:8307   */\n      dup5\n        /* \"#utility.yul\":8296:8319   */\n      sub\n        /* \"#utility.yul\":8292:8324   */\n      slt\n        /* \"#utility.yul\":8289:8408   */\n      iszero\n      tag_303\n      jumpi\n        /* \"#utility.yul\":8327:8406   */\n      tag_304\n      tag_162\n      jump\t// in\n    tag_304:\n        /* \"#utility.yul\":8289:8408   */\n    tag_303:\n        /* \"#utility.yul\":8475:8476   */\n      0x00\n        /* \"#utility.yul\":8464:8473   */\n      dup3\n        /* \"#utility.yul\":8460:8477   */\n      add\n        /* \"#utility.yul\":8447:8478   */\n      calldataload\n        /* \"#utility.yul\":8505:8523   */\n      0xffffffffffffffff\n        /* \"#utility.yul\":8497:8503   */\n      dup2\n        /* \"#utility.yul\":8494:8524   */\n      gt\n        /* \"#utility.yul\":8491:8608   */\n      iszero\n      tag_305\n      jumpi\n        /* \"#utility.yul\":8527:8606   */\n      tag_306\n      tag_163\n      jump\t// in\n    tag_306:\n        /* \"#utility.yul\":8491:8608   */\n    tag_305:\n        /* \"#utility.yul\":8632:8709   */\n      tag_307\n        /* \"#utility.yul\":8701:8708   */\n      dup5\n        /* \"#utility.yul\":8692:8698   */\n      dup3\n        /* \"#utility.yul\":8681:8690   */\n      dup6\n        /* \"#utility.yul\":8677:8699   */\n      add\n        /* \"#utility.yul\":8632:8709   */\n      tag_189\n      jump\t// in\n    tag_307:\n        /* \"#utility.yul\":8622:8709   */\n      swap2\n      pop\n        /* \"#utility.yul\":8418:8719   */\n      pop\n        /* \"#utility.yul\":8189:8726   */\n      swap3\n      swap2\n      pop\n      pop\n      jump\t// out\n        /* \"#utility.yul\":8732:8850   */\n    tag_190:\n        /* \"#utility.yul\":8819:8843   */\n      tag_309\n        /* \"#utility.yul\":8837:8842   */\n      dup2\n        /* \"#utility.yul\":8819:8843   */\n      tag_164\n      jump\t// in\n    tag_309:\n        /* \"#utility.yul\":8814:8817   */\n      dup3\n        /* \"#utility.yul\":8807:8844   */\n      mstore\n        /* \"#utility.yul\":8732:8850   */\n      pop\n      pop\n      jump\t// out\n        /* \"#utility.yul\":8856:9078   */\n    tag_47:\n        /* \"#utility.yul\":8949:8953   */\n      0x00\n        /* \"#utility.yul\":8987:8989   */\n      0x20\n        /* \"#utility.yul\":8976:8985   */\n      dup3\n        /* \"#utility.yul\":8972:8990   */\n      add\n        /* \"#utility.yul\":8964:8990   */\n      swap1\n      pop\n        /* \"#utility.yul\":9000:9071   */\n      tag_311\n        /* \"#utility.yul\":9068:9069   */\n      0x00\n        /* \"#utility.yul\":9057:9066   */\n      dup4\n        /* \"#utility.yul\":9053:9070   */\n      add\n        /* \"#utility.yul\":9044:9050   */\n      dup5\n        /* \"#utility.yul\":9000:9071   */\n      tag_190\n      jump\t// in\n    tag_311:\n        /* \"#utility.yul\":8856:9078   */\n      swap3\n      swap2\n      pop\n      pop\n      jump\t// out\n        /* \"#utility.yul\":9084:9206   */\n    tag_191:\n        /* \"#utility.yul\":9157:9181   */\n      tag_313\n        /* \"#utility.yul\":9175:9180   */\n      dup2\n        /* \"#utility.yul\":9157:9181   */\n      tag_178\n      jump\t// in\n    tag_313:\n        /* \"#utility.yul\":9150:9155   */\n      dup2\n        /* \"#utility.yul\":9147:9182   */\n      eq\n        /* \"#utility.yul\":9137:9200   */\n      tag_314\n      jumpi\n        /* \"#utility.yul\":9196:9197   */\n      0x00\n        /* \"#utility.yul\":9193:9194   */\n      dup1\n        /* \"#utility.yul\":9186:9198   */\n      revert\n        /* \"#utility.yul\":9137:9200   */\n    tag_314:\n        /* \"#utility.yul\":9084:9206   */\n      pop\n      jump\t// out\n        /* \"#utility.yul\":9212:9351   */\n    tag_192:\n        /* \"#utility.yul\":9258:9263   */\n      0x00\n        /* \"#utility.yul\":9296:9302   */\n      dup2\n        /* \"#utility.yul\":9283:9303   */\n      calldataload\n        /* \"#utility.yul\":9274:9303   */\n      swap1\n      pop\n        /* \"#utility.yul\":9312:9345   */\n      tag_316\n        /* \"#utility.yul\":9339:9344   */\n      dup2\n        /* \"#utility.yul\":9312:9345   */\n      tag_191\n      jump\t// in\n    tag_316:\n        /* \"#utility.yul\":9212:9351   */\n      swap3\n      swap2\n      pop\n      pop\n      jump\t// out\n        /* \"#utility.yul\":9357:9686   */\n    tag_50:\n        /* \"#utility.yul\":9416:9422   */\n      0x00\n        /* \"#utility.yul\":9465:9467   */\n      0x20\n        /* \"#utility.yul\":9453:9462   */\n      dup3\n        /* \"#utility.yul\":9444:9451   */\n      dup5\n        /* \"#utility.yul\":9440:9463   */\n      sub\n        /* \"#utility.yul\":9436:9468   */\n      slt\n        /* \"#utility.yul\":9433:9552   */\n      iszero\n      tag_318\n      jumpi\n        /* \"#utility.yul\":9471:9550   */\n      tag_319\n      tag_162\n      jump\t// in\n    tag_319:\n        /* \"#utility.yul\":9433:9552   */\n    tag_318:\n        /* \"#utility.yul\":9591:9592   */\n      0x00\n        /* \"#utility.yul\":9616:9669   */\n      tag_320\n        /* \"#utility.yul\":9661:9668   */\n      dup5\n        /* \"#utility.yul\":9652:9658   */\n      dup3\n        /* \"#utility.yul\":9641:9650   */\n      dup6\n        /* \"#utility.yul\":9637:9659   */\n      add\n        /* \"#utility.yul\":9616:9669   */\n      tag_192\n      jump\t// in\n    tag_320:\n        /* \"#utility.yul\":9606:9669   */\n      swap2\n      pop\n        /* \"#utility.yul\":9562:9679   */\n      pop\n        /* \"#utility.yul\":9357:9686   */\n      swap3\n      swap2\n      pop\n      pop\n      jump\t// out\n        /* \"#utility.yul\":9692:10024   */\n    tag_68:\n        /* \"#utility.yul\":9813:9817   */\n      0x00\n        /* \"#utility.yul\":9851:9853   */\n      0x40\n        /* \"#utility.yul\":9840:9849   */\n      dup3\n        /* \"#utility.yul\":9836:9854   */\n      add\n        /* \"#utility.yul\":9828:9854   */\n      swap1\n      pop\n        /* \"#utility.yul\":9864:9935   */\n      tag_322\n        /* \"#utility.yul\":9932:9933   */\n      0x00\n        /* \"#utility.yul\":9921:9930   */\n      dup4\n        /* \"#utility.yul\":9917:9934   */\n      add\n        /* \"#utility.yul\":9908:9914   */\n      dup6\n        /* \"#utility.yul\":9864:9935   */\n      tag_179\n      jump\t// in\n    tag_322:\n        /* \"#utility.yul\":9945:10017   */\n      tag_323\n        /* \"#utility.yul\":10013:10015   */\n      0x20\n        /* \"#utility.yul\":10002:10011   */\n      dup4\n        /* \"#utility.yul\":9998:10016   */\n      add\n        /* \"#utility.yul\":9989:9995   */\n      dup5\n        /* \"#utility.yul\":9945:10017   */\n      tag_190\n      jump\t// in\n    tag_323:\n        /* \"#utility.yul\":9692:10024   */\n      swap4\n      swap3\n      pop\n      pop\n      pop\n      jump\t// out\n        /* \"#utility.yul\":10030:10120   */\n    tag_193:\n        /* \"#utility.yul\":10064:10071   */\n      0x00\n        /* \"#utility.yul\":10107:10112   */\n      dup2\n        /* \"#utility.yul\":10100:10113   */\n      iszero\n        /* \"#utility.yul\":10093:10114   */\n      iszero\n        /* \"#utility.yul\":10082:10114   */\n      swap1\n      pop\n        /* \"#utility.yul\":10030:10120   */\n      swap2\n      swap1\n      pop\n      jump\t// out\n        /* \"#utility.yul\":10126:10242   */\n    tag_194:\n        /* \"#utility.yul\":10196:10217   */\n      tag_326\n        /* \"#utility.yul\":10211:10216   */\n      dup2\n        /* \"#utility.yul\":10196:10217   */\n      tag_193\n      jump\t// in\n    tag_326:\n        /* \"#utility.yul\":10189:10194   */\n      dup2\n        /* \"#utility.yul\":10186:10218   */\n      eq\n        /* \"#utility.yul\":10176:10236   */\n      tag_327\n      jumpi\n        /* \"#utility.yul\":10232:10233   */\n      0x00\n        /* \"#utility.yul\":10229:10230   */\n      dup1\n        /* \"#utility.yul\":10222:10234   */\n      revert\n        /* \"#utility.yul\":10176:10236   */\n    tag_327:\n        /* \"#utility.yul\":10126:10242   */\n      pop\n      jump\t// out\n        /* \"#utility.yul\":10248:10385   */\n    tag_195:\n        /* \"#utility.yul\":10302:10307   */\n      0x00\n        /* \"#utility.yul\":10333:10339   */\n      dup2\n        /* \"#utility.yul\":10327:10340   */\n      mload\n        /* \"#utility.yul\":10318:10340   */\n      swap1\n      pop\n        /* \"#utility.yul\":10349:10379   */\n      tag_329\n        /* \"#utility.yul\":10373:10378   */\n      dup2\n        /* \"#utility.yul\":10349:10379   */\n      tag_194\n      jump\t// in\n    tag_329:\n        /* \"#utility.yul\":10248:10385   */\n      swap3\n      swap2\n      pop\n      pop\n      jump\t// out\n        /* \"#utility.yul\":10391:10736   */\n    tag_72:\n        /* \"#utility.yul\":10458:10464   */\n      0x00\n        /* \"#utility.yul\":10507:10509   */\n      0x20\n        /* \"#utility.yul\":10495:10504   */\n      dup3\n        /* \"#utility.yul\":10486:10493   */\n      dup5\n        /* \"#utility.yul\":10482:10505   */\n      sub\n        /* \"#utility.yul\":10478:10510   */\n      slt\n        /* \"#utility.yul\":10475:10594   */\n      iszero\n      tag_331\n      jumpi\n        /* \"#utility.yul\":10513:10592   */\n      tag_332\n      tag_162\n      jump\t// in\n    tag_332:\n        /* \"#utility.yul\":10475:10594   */\n    tag_331:\n        /* \"#utility.yul\":10633:10634   */\n      0x00\n        /* \"#utility.yul\":10658:10719   */\n      tag_333\n        /* \"#utility.yul\":10711:10718   */\n      dup5\n        /* \"#utility.yul\":10702:10708   */\n      dup3\n        /* \"#utility.yul\":10691:10700   */\n      dup6\n        /* \"#utility.yul\":10687:10709   */\n      add\n        /* \"#utility.yul\":10658:10719   */\n      tag_195\n      jump\t// in\n    tag_333:\n        /* \"#utility.yul\":10648:10719   */\n      swap2\n      pop\n        /* \"#utility.yul\":10604:10729   */\n      pop\n        /* \"#utility.yul\":10391:10736   */\n      swap3\n      swap2\n      pop\n      pop\n      jump\t// out\n        /* \"#utility.yul\":10742:10922   */\n    tag_101:\n        /* \"#utility.yul\":10790:10867   */\n      0x4e487b7100000000000000000000000000000000000000000000000000000000\n        /* \"#utility.yul\":10787:10788   */\n      0x00\n        /* \"#utility.yul\":10780:10868   */\n      mstore\n        /* \"#utility.yul\":10887:10891   */\n      0x32\n        /* \"#utility.yul\":10884:10885   */\n      0x04\n        /* \"#utility.yul\":10877:10892   */\n      mstore\n        /* \"#utility.yul\":10911:10915   */\n      0x24\n        /* \"#utility.yul\":10908:10909   */\n      0x00\n        /* \"#utility.yul\":10901:10916   */\n      revert\n        /* \"#utility.yul\":10928:11068   */\n    tag_196:\n        /* \"#utility.yul\":10977:10986   */\n      0x00\n        /* \"#utility.yul\":11010:11062   */\n      tag_336\n        /* \"#utility.yul\":11028:11061   */\n      tag_337\n        /* \"#utility.yul\":11037:11060   */\n      tag_338\n        /* \"#utility.yul\":11054:11059   */\n      dup5\n        /* \"#utility.yul\":11037:11060   */\n      tag_167\n      jump\t// in\n    tag_338:\n        /* \"#utility.yul\":11028:11061   */\n      tag_156\n      jump\t// in\n    tag_337:\n        /* \"#utility.yul\":11010:11062   */\n      tag_164\n      jump\t// in\n    tag_336:\n        /* \"#utility.yul\":10997:11062   */\n      swap1\n      pop\n        /* \"#utility.yul\":10928:11068   */\n      swap2\n      swap1\n      pop\n      jump\t// out\n        /* \"#utility.yul\":11074:11203   */\n    tag_197:\n        /* \"#utility.yul\":11160:11196   */\n      tag_340\n        /* \"#utility.yul\":11190:11195   */\n      dup2\n        /* \"#utility.yul\":11160:11196   */\n      tag_196\n      jump\t// in\n    tag_340:\n        /* \"#utility.yul\":11155:11158   */\n      dup3\n        /* \"#utility.yul\":11148:11197   */\n      mstore\n        /* \"#utility.yul\":11074:11203   */\n      pop\n      pop\n      jump\t// out\n        /* \"#utility.yul\":11209:11539   */\n    tag_104:\n        /* \"#utility.yul\":11329:11333   */\n      0x00\n        /* \"#utility.yul\":11367:11369   */\n      0x40\n        /* \"#utility.yul\":11356:11365   */\n      dup3\n        /* \"#utility.yul\":11352:11370   */\n      add\n        /* \"#utility.yul\":11344:11370   */\n      swap1\n      pop\n        /* \"#utility.yul\":11380:11451   */\n      tag_342\n        /* \"#utility.yul\":11448:11449   */\n      0x00\n        /* \"#utility.yul\":11437:11446   */\n      dup4\n        /* \"#utility.yul\":11433:11450   */\n      add\n        /* \"#utility.yul\":11424:11430   */\n      dup6\n        /* \"#utility.yul\":11380:11451   */\n      tag_179\n      jump\t// in\n    tag_342:\n        /* \"#utility.yul\":11461:11532   */\n      tag_343\n        /* \"#utility.yul\":11528:11530   */\n      0x20\n        /* \"#utility.yul\":11517:11526   */\n      dup4\n        /* \"#utility.yul\":11513:11531   */\n      add\n        /* \"#utility.yul\":11504:11510   */\n      dup5\n        /* \"#utility.yul\":11461:11532   */\n      tag_197\n      jump\t// in\n    tag_343:\n        /* \"#utility.yul\":11209:11539   */\n      swap4\n      swap3\n      pop\n      pop\n      pop\n      jump\t// out\n        /* \"#utility.yul\":11545:11688   */\n    tag_198:\n        /* \"#utility.yul\":11602:11607   */\n      0x00\n        /* \"#utility.yul\":11633:11639   */\n      dup2\n        /* \"#utility.yul\":11627:11640   */\n      mload\n        /* \"#utility.yul\":11618:11640   */\n      swap1\n      pop\n        /* \"#utility.yul\":11649:11682   */\n      tag_345\n        /* \"#utility.yul\":11676:11681   */\n      dup2\n        /* \"#utility.yul\":11649:11682   */\n      tag_165\n      jump\t// in\n    tag_345:\n        /* \"#utility.yul\":11545:11688   */\n      swap3\n      swap2\n      pop\n      pop\n      jump\t// out\n        /* \"#utility.yul\":11694:12045   */\n    tag_108:\n        /* \"#utility.yul\":11764:11770   */\n      0x00\n        /* \"#utility.yul\":11813:11815   */\n      0x20\n        /* \"#utility.yul\":11801:11810   */\n      dup3\n        /* \"#utility.yul\":11792:11799   */\n      dup5\n        /* \"#utility.yul\":11788:11811   */\n      sub\n        /* \"#utility.yul\":11784:11816   */\n      slt\n        /* \"#utility.yul\":11781:11900   */\n      iszero\n      tag_347\n      jumpi\n        /* \"#utility.yul\":11819:11898   */\n      tag_348\n      tag_162\n      jump\t// in\n    tag_348:\n        /* \"#utility.yul\":11781:11900   */\n    tag_347:\n        /* \"#utility.yul\":11939:11940   */\n      0x00\n        /* \"#utility.yul\":11964:12028   */\n      tag_349\n        /* \"#utility.yul\":12020:12027   */\n      dup5\n        /* \"#utility.yul\":12011:12017   */\n      dup3\n        /* \"#utility.yul\":12000:12009   */\n      dup6\n        /* \"#utility.yul\":11996:12018   */\n      add\n        /* \"#utility.yul\":11964:12028   */\n      tag_198\n      jump\t// in\n    tag_349:\n        /* \"#utility.yul\":11954:12028   */\n      swap2\n      pop\n        /* \"#utility.yul\":11910:12038   */\n      pop\n        /* \"#utility.yul\":11694:12045   */\n      swap3\n      swap2\n      pop\n      pop\n      jump\t// out\n        /* \"#utility.yul\":12051:12165   */\n    tag_199:\n        /* \"#utility.yul\":12118:12124   */\n      0x00\n        /* \"#utility.yul\":12152:12157   */\n      dup2\n        /* \"#utility.yul\":12146:12158   */\n      mload\n        /* \"#utility.yul\":12136:12158   */\n      swap1\n      pop\n        /* \"#utility.yul\":12051:12165   */\n      swap2\n      swap1\n      pop\n      jump\t// out\n        /* \"#utility.yul\":12171:12355   */\n    tag_200:\n        /* \"#utility.yul\":12270:12281   */\n      0x00\n        /* \"#utility.yul\":12304:12310   */\n      dup3\n        /* \"#utility.yul\":12299:12302   */\n      dup3\n        /* \"#utility.yul\":12292:12311   */\n      mstore\n        /* \"#utility.yul\":12344:12348   */\n      0x20\n        /* \"#utility.yul\":12339:12342   */\n      dup3\n        /* \"#utility.yul\":12335:12349   */\n      add\n        /* \"#utility.yul\":12320:12349   */\n      swap1\n      pop\n        /* \"#utility.yul\":12171:12355   */\n      swap3\n      swap2\n      pop\n      pop\n      jump\t// out\n        /* \"#utility.yul\":12361:12493   */\n    tag_201:\n        /* \"#utility.yul\":12428:12432   */\n      0x00\n        /* \"#utility.yul\":12451:12454   */\n      dup2\n        /* \"#utility.yul\":12443:12454   */\n      swap1\n      pop\n        /* \"#utility.yul\":12481:12485   */\n      0x20\n        /* \"#utility.yul\":12476:12479   */\n      dup3\n        /* \"#utility.yul\":12472:12486   */\n      add\n        /* \"#utility.yul\":12464:12486   */\n      swap1\n      pop\n        /* \"#utility.yul\":12361:12493   */\n      swap2\n      swap1\n      pop\n      jump\t// out\n        /* \"#utility.yul\":12499:12607   */\n    tag_202:\n        /* \"#utility.yul\":12576:12600   */\n      tag_354\n        /* \"#utility.yul\":12594:12599   */\n      dup2\n        /* \"#utility.yul\":12576:12600   */\n      tag_164\n      jump\t// in\n    tag_354:\n        /* \"#utility.yul\":12571:12574   */\n      dup3\n        /* \"#utility.yul\":12564:12601   */\n      mstore\n        /* \"#utility.yul\":12499:12607   */\n      pop\n      pop\n      jump\t// out\n        /* \"#utility.yul\":12613:12792   */\n    tag_203:\n        /* \"#utility.yul\":12682:12692   */\n      0x00\n        /* \"#utility.yul\":12703:12749   */\n      tag_356\n        /* \"#utility.yul\":12745:12748   */\n      dup4\n        /* \"#utility.yul\":12737:12743   */\n      dup4\n        /* \"#utility.yul\":12703:12749   */\n      tag_202\n      jump\t// in\n    tag_356:\n        /* \"#utility.yul\":12781:12785   */\n      0x20\n        /* \"#utility.yul\":12776:12779   */\n      dup4\n        /* \"#utility.yul\":12772:12786   */\n      add\n        /* \"#utility.yul\":12758:12786   */\n      swap1\n      pop\n        /* \"#utility.yul\":12613:12792   */\n      swap3\n      swap2\n      pop\n      pop\n      jump\t// out\n        /* \"#utility.yul\":12798:12911   */\n    tag_204:\n        /* \"#utility.yul\":12868:12872   */\n      0x00\n        /* \"#utility.yul\":12900:12904   */\n      0x20\n        /* \"#utility.yul\":12895:12898   */\n      dup3\n        /* \"#utility.yul\":12891:12905   */\n      add\n        /* \"#utility.yul\":12883:12905   */\n      swap1\n      pop\n        /* \"#utility.yul\":12798:12911   */\n      swap2\n      swap1\n      pop\n      jump\t// out\n        /* \"#utility.yul\":12947:13679   */\n    tag_205:\n        /* \"#utility.yul\":13066:13069   */\n      0x00\n        /* \"#utility.yul\":13095:13149   */\n      tag_359\n        /* \"#utility.yul\":13143:13148   */\n      dup3\n        /* \"#utility.yul\":13095:13149   */\n      tag_199\n      jump\t// in\n    tag_359:\n        /* \"#utility.yul\":13165:13251   */\n      tag_360\n        /* \"#utility.yul\":13244:13250   */\n      dup2\n        /* \"#utility.yul\":13239:13242   */\n      dup6\n        /* \"#utility.yul\":13165:13251   */\n      tag_200\n      jump\t// in\n    tag_360:\n        /* \"#utility.yul\":13158:13251   */\n      swap4\n      pop\n        /* \"#utility.yul\":13275:13331   */\n      tag_361\n        /* \"#utility.yul\":13325:13330   */\n      dup4\n        /* \"#utility.yul\":13275:13331   */\n      tag_201\n      jump\t// in\n    tag_361:\n        /* \"#utility.yul\":13354:13361   */\n      dup1\n        /* \"#utility.yul\":13385:13386   */\n      0x00\n        /* \"#utility.yul\":13370:13654   */\n    tag_362:\n        /* \"#utility.yul\":13395:13401   */\n      dup4\n        /* \"#utility.yul\":13392:13393   */\n      dup2\n        /* \"#utility.yul\":13389:13402   */\n      lt\n        /* \"#utility.yul\":13370:13654   */\n      iszero\n      tag_364\n      jumpi\n        /* \"#utility.yul\":13471:13477   */\n      dup2\n        /* \"#utility.yul\":13465:13478   */\n      mload\n        /* \"#utility.yul\":13498:13561   */\n      tag_365\n        /* \"#utility.yul\":13557:13560   */\n      dup9\n        /* \"#utility.yul\":13542:13555   */\n      dup3\n        /* \"#utility.yul\":13498:13561   */\n      tag_203\n      jump\t// in\n    tag_365:\n        /* \"#utility.yul\":13491:13561   */\n      swap8\n      pop\n        /* \"#utility.yul\":13584:13644   */\n      tag_366\n        /* \"#utility.yul\":13637:13643   */\n      dup4\n        /* \"#utility.yul\":13584:13644   */\n      tag_204\n      jump\t// in\n    tag_366:\n        /* \"#utility.yul\":13574:13644   */\n      swap3\n      pop\n        /* \"#utility.yul\":13430:13654   */\n      pop\n        /* \"#utility.yul\":13417:13418   */\n      0x01\n        /* \"#utility.yul\":13414:13415   */\n      dup2\n        /* \"#utility.yul\":13410:13419   */\n      add\n        /* \"#utility.yul\":13405:13419   */\n      swap1\n      pop\n        /* \"#utility.yul\":13370:13654   */\n      jump(tag_362)\n    tag_364:\n        /* \"#utility.yul\":13374:13388   */\n      pop\n        /* \"#utility.yul\":13670:13673   */\n      dup6\n        /* \"#utility.yul\":13663:13673   */\n      swap4\n      pop\n        /* \"#utility.yul\":13071:13679   */\n      pop\n      pop\n      pop\n        /* \"#utility.yul\":12947:13679   */\n      swap3\n      swap2\n      pop\n      pop\n      jump\t// out\n        /* \"#utility.yul\":13685:14429   */\n    tag_134:\n        /* \"#utility.yul\":13934:13938   */\n      0x00\n        /* \"#utility.yul\":13972:13974   */\n      0x60\n        /* \"#utility.yul\":13961:13970   */\n      dup3\n        /* \"#utility.yul\":13957:13975   */\n      add\n        /* \"#utility.yul\":13949:13975   */\n      swap1\n      pop\n        /* \"#utility.yul\":13985:14056   */\n      tag_368\n        /* \"#utility.yul\":14053:14054   */\n      0x00\n        /* \"#utility.yul\":14042:14051   */\n      dup4\n        /* \"#utility.yul\":14038:14055   */\n      add\n        /* \"#utility.yul\":14029:14035   */\n      dup7\n        /* \"#utility.yul\":13985:14056   */\n      tag_179\n      jump\t// in\n    tag_368:\n        /* \"#utility.yul\":14103:14112   */\n      dup2\n        /* \"#utility.yul\":14097:14101   */\n      dup2\n        /* \"#utility.yul\":14093:14113   */\n      sub\n        /* \"#utility.yul\":14088:14090   */\n      0x20\n        /* \"#utility.yul\":14077:14086   */\n      dup4\n        /* \"#utility.yul\":14073:14091   */\n      add\n        /* \"#utility.yul\":14066:14114   */\n      mstore\n        /* \"#utility.yul\":14131:14239   */\n      tag_369\n        /* \"#utility.yul\":14234:14238   */\n      dup2\n        /* \"#utility.yul\":14225:14231   */\n      dup6\n        /* \"#utility.yul\":14131:14239   */\n      tag_205\n      jump\t// in\n    tag_369:\n        /* \"#utility.yul\":14123:14239   */\n      swap1\n      pop\n        /* \"#utility.yul\":14286:14295   */\n      dup2\n        /* \"#utility.yul\":14280:14284   */\n      dup2\n        /* \"#utility.yul\":14276:14296   */\n      sub\n        /* \"#utility.yul\":14271:14273   */\n      0x40\n        /* \"#utility.yul\":14260:14269   */\n      dup4\n        /* \"#utility.yul\":14256:14274   */\n      add\n        /* \"#utility.yul\":14249:14297   */\n      mstore\n        /* \"#utility.yul\":14314:14422   */\n      tag_370\n        /* \"#utility.yul\":14417:14421   */\n      dup2\n        /* \"#utility.yul\":14408:14414   */\n      dup5\n        /* \"#utility.yul\":14314:14422   */\n      tag_205\n      jump\t// in\n    tag_370:\n        /* \"#utility.yul\":14306:14422   */\n      swap1\n      pop\n        /* \"#utility.yul\":13685:14429   */\n      swap5\n      swap4\n      pop\n      pop\n      pop\n      pop\n      jump\t// out\n\n    auxdata: 0xa264697066735822122093c8db5a370f729d359b51d08c76d18db6a2270258bcdb84bd7149149747604564736f6c63430008170033\n}\n",
				"bytecode": {
					"linkReferences": {},
					"object": "60806040523480156200001157600080fd5b50604051620018723803806200187283398181016040528101906200003791906200052d565b83600073ffffffffffffffffffffffffffffffffffffffff168173ffffffffffffffffffffffffffffffffffffffff1603620000ad5760006040517f1e4fbdf7000000000000000000000000000000000000000000000000000000008152600401620000a49190620005cf565b60405180910390fd5b620000be816200016460201b60201c565b5082600160006101000a81548173ffffffffffffffffffffffffffffffffffffffff021916908373ffffffffffffffffffffffffffffffffffffffff16021790555081600260006101000a81548173ffffffffffffffffffffffffffffffffffffffff021916908373ffffffffffffffffffffffffffffffffffffffff16021790555080600390805190602001906200015992919062000228565b5050505050620005ec565b60008060009054906101000a900473ffffffffffffffffffffffffffffffffffffffff169050816000806101000a81548173ffffffffffffffffffffffffffffffffffffffff021916908373ffffffffffffffffffffffffffffffffffffffff1602179055508173ffffffffffffffffffffffffffffffffffffffff168173ffffffffffffffffffffffffffffffffffffffff167f8be0079c531659141344cd1fd0a4f28419497f9722a3daafe3b4186f6b6457e060405160405180910390a35050565b82805482825590600052602060002090600701600890048101928215620002cc5791602002820160005b838211156200029857835183826101000a81548163ffffffff021916908363ffffffff160217905550926020019260040160208160030104928301926001030262000252565b8015620002ca5782816101000a81549063ffffffff021916905560040160208160030104928301926001030262000298565b505b509050620002db9190620002df565b5090565b5b80821115620002fa576000816000905550600101620002e0565b5090565b6000604051905090565b600080fd5b600080fd5b600073ffffffffffffffffffffffffffffffffffffffff82169050919050565b60006200033f8262000312565b9050919050565b620003518162000332565b81146200035d57600080fd5b50565b600081519050620003718162000346565b92915050565b600080fd5b6000601f19601f8301169050919050565b7f4e487b7100000000000000000000000000000000000000000000000000000000600052604160045260246000fd5b620003c7826200037c565b810181811067ffffffffffffffff82111715620003e957620003e86200038d565b5b80604052505050565b6000620003fe620002fe565b90506200040c8282620003bc565b919050565b600067ffffffffffffffff8211156200042f576200042e6200038d565b5b602082029050602081019050919050565b600080fd5b600063ffffffff82169050919050565b620004608162000445565b81146200046c57600080fd5b50565b600081519050620004808162000455565b92915050565b60006200049d620004978462000411565b620003f2565b90508083825260208201905060208402830185811115620004c357620004c262000440565b5b835b81811015620004f05780620004db88826200046f565b845260208401935050602081019050620004c5565b5050509392505050565b600082601f83011262000512576200051162000377565b5b81516200052484826020860162000486565b91505092915050565b600080600080608085870312156200054a576200054962000308565b5b60006200055a8782880162000360565b94505060206200056d8782880162000360565b9350506040620005808782880162000360565b925050606085015167ffffffffffffffff811115620005a457620005a36200030d565b5b620005b287828801620004fa565b91505092959194509250565b620005c98162000332565b82525050565b6000602082019050620005e66000830184620005be565b92915050565b61127680620005fc6000396000f3fe608060405234801561001057600080fd5b506004361061009e5760003560e01c8063715018a611610066578063715018a6146101375780638da5cb5b14610141578063ad26432e1461015f578063caa648b41461017b578063f2fde38b146101995761009e565b806309a31d50146100a35780631dd5605d146100c15780633013ce29146100f15780634cbe52741461010f5780634e71d92d1461012d575b600080fd5b6100ab6101b5565b6040516100b89190610b6f565b60405180910390f35b6100db60048036038101906100d69190610bd4565b6101db565b6040516100e89190610c20565b60405180910390f35b6100f9610215565b6040516101069190610c5c565b60405180910390f35b61011761023b565b6040516101249190610d35565b60405180910390f35b6101356102bf565b005b61013f61044d565b005b610149610461565b6040516101569190610d78565b60405180910390f35b61017960048036038101906101749190610f18565b61048a565b005b6101836104ac565b6040516101909190610f70565b60405180910390f35b6101b360048036038101906101ae9190610fb7565b6104bb565b005b600260009054906101000a900473ffffffffffffffffffffffffffffffffffffffff1681565b600381815481106101eb57600080fd5b9060005260206000209060089182820401919006600402915054906101000a900463ffffffff1681565b600160009054906101000a900473ffffffffffffffffffffffffffffffffffffffff1681565b606060038054806020026020016040519081016040528092919081815260200182805480156102b557602002820191906000526020600020906000905b82829054906101000a900463ffffffff1663ffffffff16815260200190600401906020826003010492830192600103820291508084116102785790505b5050505050905090565b60003390506102cd81610541565b610303576040517f7aa5b94c00000000000000000000000000000000000000000000000000000000815260040160405180910390fd5b600061030d610655565b03610344576040517f6e6681f600000000000000000000000000000000000000000000000000000000815260040160405180910390fd5b61034d816106f8565b600160009054906101000a900473ffffffffffffffffffffffffffffffffffffffff1673ffffffffffffffffffffffffffffffffffffffff1663a9059cbb82610394610655565b6040518363ffffffff1660e01b81526004016103b1929190610fe4565b6020604051808303816000875af11580156103d0573d6000803e3d6000fd5b505050506040513d601f19601f820116820180604052508101906103f49190611045565b508073ffffffffffffffffffffffffffffffffffffffff167f16f67fd92ffb20fb68612d68e9725fe41944a7be57a193cb98fa735dd6f5d948610435610655565b6040516104429190610f70565b60405180910390a250565b6104556108d0565b61045f6000610957565b565b60008060009054906101000a900473ffffffffffffffffffffffffffffffffffffffff16905090565b6104926108d0565b80600390805190602001906104a8929190610a23565b5050565b60006104b6610655565b905090565b6104c36108d0565b600073ffffffffffffffffffffffffffffffffffffffff168173ffffffffffffffffffffffffffffffffffffffff16036105355760006040517f1e4fbdf700000000000000000000000000000000000000000000000000000000815260040161052c9190610d78565b60405180910390fd5b61053e81610957565b50565b600080600090505b60038054905081101561064a576000600260009054906101000a900473ffffffffffffffffffffffffffffffffffffffff1673ffffffffffffffffffffffffffffffffffffffff1662fdd58e85600385815481106105aa576105a9611072565b5b90600052602060002090600891828204019190066004029054906101000a900463ffffffff166040518363ffffffff1660e01b81526004016105ed9291906110d2565b602060405180830381865afa15801561060a573d6000803e3d6000fd5b505050506040513d601f19601f8201168201806040525081019061062e9190611110565b0361063d576000915050610650565b8080600101915050610549565b50600190505b919050565b6000600160009054906101000a900473ffffffffffffffffffffffffffffffffffffffff1673ffffffffffffffffffffffffffffffffffffffff166370a08231306040518263ffffffff1660e01b81526004016106b29190610d78565b602060405180830381865afa1580156106cf573d6000803e3d6000fd5b505050506040513d601f19601f820116820180604052508101906106f39190611110565b905090565b600060038054905067ffffffffffffffff81111561071957610718610da9565b5b6040519080825280602002602001820160405280156107475781602001602082028036833780820191505090505b509050600060038054905067ffffffffffffffff81111561076b5761076a610da9565b5b6040519080825280602002602001820160405280156107995781602001602082028036833780820191505090505b50905060005b60038054905081101561083957600381815481106107c0576107bf611072565b5b90600052602060002090600891828204019190066004029054906101000a900463ffffffff1663ffffffff168382815181106107ff576107fe611072565b5b60200260200101818152505060018282815181106108205761081f611072565b5b602002602001018181525050808060010191505061079f565b50600260009054906101000a900473ffffffffffffffffffffffffffffffffffffffff1673ffffffffffffffffffffffffffffffffffffffff16636b20c4548484846040518463ffffffff1660e01b8152600401610899939291906111fb565b600060405180830381600087803b1580156108b357600080fd5b505af11580156108c7573d6000803e3d6000fd5b50505050505050565b6108d8610a1b565b73ffffffffffffffffffffffffffffffffffffffff166108f6610461565b73ffffffffffffffffffffffffffffffffffffffff161461095557610919610a1b565b6040517f118cdaa700000000000000000000000000000000000000000000000000000000815260040161094c9190610d78565b60405180910390fd5b565b60008060009054906101000a900473ffffffffffffffffffffffffffffffffffffffff169050816000806101000a81548173ffffffffffffffffffffffffffffffffffffffff021916908373ffffffffffffffffffffffffffffffffffffffff1602179055508173ffffffffffffffffffffffffffffffffffffffff168173ffffffffffffffffffffffffffffffffffffffff167f8be0079c531659141344cd1fd0a4f28419497f9722a3daafe3b4186f6b6457e060405160405180910390a35050565b600033905090565b82805482825590600052602060002090600701600890048101928215610ac25791602002820160005b83821115610a9057835183826101000a81548163ffffffff021916908363ffffffff1602179055509260200192600401602081600301049283019260010302610a4c565b8015610ac05782816101000a81549063ffffffff0219169055600401602081600301049283019260010302610a90565b505b509050610acf9190610ad3565b5090565b5b80821115610aec576000816000905550600101610ad4565b5090565b600073ffffffffffffffffffffffffffffffffffffffff82169050919050565b6000819050919050565b6000610b35610b30610b2b84610af0565b610b10565b610af0565b9050919050565b6000610b4782610b1a565b9050919050565b6000610b5982610b3c565b9050919050565b610b6981610b4e565b82525050565b6000602082019050610b846000830184610b60565b92915050565b6000604051905090565b600080fd5b600080fd5b6000819050919050565b610bb181610b9e565b8114610bbc57600080fd5b50565b600081359050610bce81610ba8565b92915050565b600060208284031215610bea57610be9610b94565b5b6000610bf884828501610bbf565b91505092915050565b600063ffffffff82169050919050565b610c1a81610c01565b82525050565b6000602082019050610c356000830184610c11565b92915050565b6000610c4682610b3c565b9050919050565b610c5681610c3b565b82525050565b6000602082019050610c716000830184610c4d565b92915050565b600081519050919050565b600082825260208201905092915050565b6000819050602082019050919050565b610cac81610c01565b82525050565b6000610cbe8383610ca3565b60208301905092915050565b6000602082019050919050565b6000610ce282610c77565b610cec8185610c82565b9350610cf783610c93565b8060005b83811015610d28578151610d0f8882610cb2565b9750610d1a83610cca565b925050600181019050610cfb565b5085935050505092915050565b60006020820190508181036000830152610d4f8184610cd7565b905092915050565b6000610d6282610af0565b9050919050565b610d7281610d57565b82525050565b6000602082019050610d8d6000830184610d69565b92915050565b600080fd5b6000601f19601f8301169050919050565b7f4e487b7100000000000000000000000000000000000000000000000000000000600052604160045260246000fd5b610de182610d98565b810181811067ffffffffffffffff82111715610e0057610dff610da9565b5b80604052505050565b6000610e13610b8a565b9050610e1f8282610dd8565b919050565b600067ffffffffffffffff821115610e3f57610e3e610da9565b5b602082029050602081019050919050565b600080fd5b610e5e81610c01565b8114610e6957600080fd5b50565b600081359050610e7b81610e55565b92915050565b6000610e94610e8f84610e24565b610e09565b90508083825260208201905060208402830185811115610eb757610eb6610e50565b5b835b81811015610ee05780610ecc8882610e6c565b845260208401935050602081019050610eb9565b5050509392505050565b600082601f830112610eff57610efe610d93565b5b8135610f0f848260208601610e81565b91505092915050565b600060208284031215610f2e57610f2d610b94565b5b600082013567ffffffffffffffff811115610f4c57610f4b610b99565b5b610f5884828501610eea565b91505092915050565b610f6a81610b9e565b82525050565b6000602082019050610f856000830184610f61565b92915050565b610f9481610d57565b8114610f9f57600080fd5b50565b600081359050610fb181610f8b565b92915050565b600060208284031215610fcd57610fcc610b94565b5b6000610fdb84828501610fa2565b91505092915050565b6000604082019050610ff96000830185610d69565b6110066020830184610f61565b9392505050565b60008115159050919050565b6110228161100d565b811461102d57600080fd5b50565b60008151905061103f81611019565b92915050565b60006020828403121561105b5761105a610b94565b5b600061106984828501611030565b91505092915050565b7f4e487b7100000000000000000000000000000000000000000000000000000000600052603260045260246000fd5b60006110bc6110b76110b284610c01565b610b10565b610b9e565b9050919050565b6110cc816110a1565b82525050565b60006040820190506110e76000830185610d69565b6110f460208301846110c3565b9392505050565b60008151905061110a81610ba8565b92915050565b60006020828403121561112657611125610b94565b5b6000611134848285016110fb565b91505092915050565b600081519050919050565b600082825260208201905092915050565b6000819050602082019050919050565b61117281610b9e565b82525050565b60006111848383611169565b60208301905092915050565b6000602082019050919050565b60006111a88261113d565b6111b28185611148565b93506111bd83611159565b8060005b838110156111ee5781516111d58882611178565b97506111e083611190565b9250506001810190506111c1565b5085935050505092915050565b60006060820190506112106000830186610d69565b8181036020830152611222818561119d565b90508181036040830152611236818461119d565b905094935050505056fea264697066735822122093c8db5a370f729d359b51d08c76d18db6a2270258bcdb84bd7149149747604564736f6c63430008170033",
					"opcodes": "PUSH1 0x80 PUSH1 0x40 MSTORE CALLVALUE DUP1 ISZERO PUSH3 0x11 JUMPI PUSH1 0x0 DUP1 REVERT JUMPDEST POP PUSH1 0x40 MLOAD PUSH3 0x1872 CODESIZE SUB DUP1 PUSH3 0x1872 DUP4 CODECOPY DUP2 DUP2 ADD PUSH1 0x40 MSTORE DUP2 ADD SWAP1 PUSH3 0x37 SWAP2 SWAP1 PUSH3 0x52D JUMP JUMPDEST DUP4 PUSH1 0x0 PUSH20 0xFFFFFFFFFFFFFFFFFFFFFFFFFFFFFFFFFFFFFFFF AND DUP2 PUSH20 0xFFFFFFFFFFFFFFFFFFFFFFFFFFFFFFFFFFFFFFFF AND SUB PUSH3 0xAD JUMPI PUSH1 0x0 PUSH1 0x40 MLOAD PUSH32 0x1E4FBDF700000000000000000000000000000000000000000000000000000000 DUP2 MSTORE PUSH1 0x4 ADD PUSH3 0xA4 SWAP2 SWAP1 PUSH3 0x5CF JUMP JUMPDEST PUSH1 0x40 MLOAD DUP1 SWAP2 SUB SWAP1 REVERT JUMPDEST PUSH3 0xBE DUP2 PUSH3 0x164 PUSH1 0x20 SHL PUSH1 0x20 SHR JUMP JUMPDEST POP DUP3 PUSH1 0x1 PUSH1 0x0 PUSH2 0x100 EXP DUP2 SLOAD DUP2 PUSH20 0xFFFFFFFFFFFFFFFFFFFFFFFFFFFFFFFFFFFFFFFF MUL NOT AND SWAP1 DUP4 PUSH20 0xFFFFFFFFFFFFFFFFFFFFFFFFFFFFFFFFFFFFFFFF AND MUL OR SWAP1 SSTORE POP DUP2 PUSH1 0x2 PUSH1 0x0 PUSH2 0x100 EXP DUP2 SLOAD DUP2 PUSH20 0xFFFFFFFFFFFFFFFFFFFFFFFFFFFFFFFFFFFFFFFF MUL NOT AND SWAP1 DUP4 PUSH20 0xFFFFFFFFFFFFFFFFFFFFFFFFFFFFFFFFFFFFFFFF AND MUL OR SWAP1 SSTORE POP DUP1 PUSH1 0x3 SWAP1 DUP1 MLOAD SWAP1 PUSH1 0x20 ADD SWAP1 PUSH3 0x159 SWAP3 SWAP2 SWAP1 PUSH3 0x228 JUMP JUMPDEST POP POP POP POP POP PUSH3 0x5EC JUMP JUMPDEST PUSH1 0x0 DUP1 PUSH1 0x0 SWAP1 SLOAD SWAP1 PUSH2 0x100 EXP SWAP1 DIV PUSH20 0xFFFFFFFFFFFFFFFFFFFFFFFFFFFFFFFFFFFFFFFF AND SWAP1 POP DUP2 PUSH1 0x0 DUP1 PUSH2 0x100 EXP DUP2 SLOAD DUP2 PUSH20 0xFFFFFFFFFFFFFFFFFFFFFFFFFFFFFFFFFFFFFFFF MUL NOT AND SWAP1 DUP4 PUSH20 0xFFFFFFFFFFFFFFFFFFFFFFFFFFFFFFFFFFFFFFFF AND MUL OR SWAP1 SSTORE POP DUP2 PUSH20 0xFFFFFFFFFFFFFFFFFFFFFFFFFFFFFFFFFFFFFFFF AND DUP2 PUSH20 0xFFFFFFFFFFFFFFFFFFFFFFFFFFFFFFFFFFFFFFFF AND PUSH32 0x8BE0079C531659141344CD1FD0A4F28419497F9722A3DAAFE3B4186F6B6457E0 PUSH1 0x40 MLOAD PUSH1 0x40 MLOAD DUP1 SWAP2 SUB SWAP1 LOG3 POP POP JUMP JUMPDEST DUP3 DUP1 SLOAD DUP3 DUP3 SSTORE SWAP1 PUSH1 0x0 MSTORE PUSH1 0x20 PUSH1 0x0 KECCAK256 SWAP1 PUSH1 0x7 ADD PUSH1 0x8 SWAP1 DIV DUP2 ADD SWAP3 DUP3 ISZERO PUSH3 0x2CC JUMPI SWAP2 PUSH1 0x20 MUL DUP3 ADD PUSH1 0x0 JUMPDEST DUP4 DUP3 GT ISZERO PUSH3 0x298 JUMPI DUP4 MLOAD DUP4 DUP3 PUSH2 0x100 EXP DUP2 SLOAD DUP2 PUSH4 0xFFFFFFFF MUL NOT AND SWAP1 DUP4 PUSH4 0xFFFFFFFF AND MUL OR SWAP1 SSTORE POP SWAP3 PUSH1 0x20 ADD SWAP3 PUSH1 0x4 ADD PUSH1 0x20 DUP2 PUSH1 0x3 ADD DIV SWAP3 DUP4 ADD SWAP3 PUSH1 0x1 SUB MUL PUSH3 0x252 JUMP JUMPDEST DUP1 ISZERO PUSH3 0x2CA JUMPI DUP3 DUP2 PUSH2 0x100 EXP DUP2 SLOAD SWAP1 PUSH4 0xFFFFFFFF MUL NOT AND SWAP1 SSTORE PUSH1 0x4 ADD PUSH1 0x20 DUP2 PUSH1 0x3 ADD DIV SWAP3 DUP4 ADD SWAP3 PUSH1 0x1 SUB MUL PUSH3 0x298 JUMP JUMPDEST POP JUMPDEST POP SWAP1 POP PUSH3 0x2DB SWAP2 SWAP1 PUSH3 0x2DF JUMP JUMPDEST POP SWAP1 JUMP JUMPDEST JUMPDEST DUP1 DUP3 GT ISZERO PUSH3 0x2FA JUMPI PUSH1 0x0 DUP2 PUSH1 0x0 SWAP1 SSTORE POP PUSH1 0x1 ADD PUSH3 0x2E0 JUMP JUMPDEST POP SWAP1 JUMP JUMPDEST PUSH1 0x0 PUSH1 0x40 MLOAD SWAP1 POP SWAP1 JUMP JUMPDEST PUSH1 0x0 DUP1 REVERT JUMPDEST PUSH1 0x0 DUP1 REVERT JUMPDEST PUSH1 0x0 PUSH20 0xFFFFFFFFFFFFFFFFFFFFFFFFFFFFFFFFFFFFFFFF DUP3 AND SWAP1 POP SWAP2 SWAP1 POP JUMP JUMPDEST PUSH1 0x0 PUSH3 0x33F DUP3 PUSH3 0x312 JUMP JUMPDEST SWAP1 POP SWAP2 SWAP1 POP JUMP JUMPDEST PUSH3 0x351 DUP2 PUSH3 0x332 JUMP JUMPDEST DUP2 EQ PUSH3 0x35D JUMPI PUSH1 0x0 DUP1 REVERT JUMPDEST POP JUMP JUMPDEST PUSH1 0x0 DUP2 MLOAD SWAP1 POP PUSH3 0x371 DUP2 PUSH3 0x346 JUMP JUMPDEST SWAP3 SWAP2 POP POP JUMP JUMPDEST PUSH1 0x0 DUP1 REVERT JUMPDEST PUSH1 0x0 PUSH1 0x1F NOT PUSH1 0x1F DUP4 ADD AND SWAP1 POP SWAP2 SWAP1 POP JUMP JUMPDEST PUSH32 0x4E487B7100000000000000000000000000000000000000000000000000000000 PUSH1 0x0 MSTORE PUSH1 0x41 PUSH1 0x4 MSTORE PUSH1 0x24 PUSH1 0x0 REVERT JUMPDEST PUSH3 0x3C7 DUP3 PUSH3 0x37C JUMP JUMPDEST DUP2 ADD DUP2 DUP2 LT PUSH8 0xFFFFFFFFFFFFFFFF DUP3 GT OR ISZERO PUSH3 0x3E9 JUMPI PUSH3 0x3E8 PUSH3 0x38D JUMP JUMPDEST JUMPDEST DUP1 PUSH1 0x40 MSTORE POP POP POP JUMP JUMPDEST PUSH1 0x0 PUSH3 0x3FE PUSH3 0x2FE JUMP JUMPDEST SWAP1 POP PUSH3 0x40C DUP3 DUP3 PUSH3 0x3BC JUMP JUMPDEST SWAP2 SWAP1 POP JUMP JUMPDEST PUSH1 0x0 PUSH8 0xFFFFFFFFFFFFFFFF DUP3 GT ISZERO PUSH3 0x42F JUMPI PUSH3 0x42E PUSH3 0x38D JUMP JUMPDEST JUMPDEST PUSH1 0x20 DUP3 MUL SWAP1 POP PUSH1 0x20 DUP2 ADD SWAP1 POP SWAP2 SWAP1 POP JUMP JUMPDEST PUSH1 0x0 DUP1 REVERT JUMPDEST PUSH1 0x0 PUSH4 0xFFFFFFFF DUP3 AND SWAP1 POP SWAP2 SWAP1 POP JUMP JUMPDEST PUSH3 0x460 DUP2 PUSH3 0x445 JUMP JUMPDEST DUP2 EQ PUSH3 0x46C JUMPI PUSH1 0x0 DUP1 REVERT JUMPDEST POP JUMP JUMPDEST PUSH1 0x0 DUP2 MLOAD SWAP1 POP PUSH3 0x480 DUP2 PUSH3 0x455 JUMP JUMPDEST SWAP3 SWAP2 POP POP JUMP JUMPDEST PUSH1 0x0 PUSH3 0x49D PUSH3 0x497 DUP5 PUSH3 0x411 JUMP JUMPDEST PUSH3 0x3F2 JUMP JUMPDEST SWAP1 POP DUP1 DUP4 DUP3 MSTORE PUSH1 0x20 DUP3 ADD SWAP1 POP PUSH1 0x20 DUP5 MUL DUP4 ADD DUP6 DUP2 GT ISZERO PUSH3 0x4C3 JUMPI PUSH3 0x4C2 PUSH3 0x440 JUMP JUMPDEST JUMPDEST DUP4 JUMPDEST DUP2 DUP2 LT ISZERO PUSH3 0x4F0 JUMPI DUP1 PUSH3 0x4DB DUP9 DUP3 PUSH3 0x46F JUMP JUMPDEST DUP5 MSTORE PUSH1 0x20 DUP5 ADD SWAP4 POP POP PUSH1 0x20 DUP2 ADD SWAP1 POP PUSH3 0x4C5 JUMP JUMPDEST POP POP POP SWAP4 SWAP3 POP POP POP JUMP JUMPDEST PUSH1 0x0 DUP3 PUSH1 0x1F DUP4 ADD SLT PUSH3 0x512 JUMPI PUSH3 0x511 PUSH3 0x377 JUMP JUMPDEST JUMPDEST DUP2 MLOAD PUSH3 0x524 DUP5 DUP3 PUSH1 0x20 DUP7 ADD PUSH3 0x486 JUMP JUMPDEST SWAP2 POP POP SWAP3 SWAP2 POP POP JUMP JUMPDEST PUSH1 0x0 DUP1 PUSH1 0x0 DUP1 PUSH1 0x80 DUP6 DUP8 SUB SLT ISZERO PUSH3 0x54A JUMPI PUSH3 0x549 PUSH3 0x308 JUMP JUMPDEST JUMPDEST PUSH1 0x0 PUSH3 0x55A DUP8 DUP3 DUP9 ADD PUSH3 0x360 JUMP JUMPDEST SWAP5 POP POP PUSH1 0x20 PUSH3 0x56D DUP8 DUP3 DUP9 ADD PUSH3 0x360 JUMP JUMPDEST SWAP4 POP POP PUSH1 0x40 PUSH3 0x580 DUP8 DUP3 DUP9 ADD PUSH3 0x360 JUMP JUMPDEST SWAP3 POP POP PUSH1 0x60 DUP6 ADD MLOAD PUSH8 0xFFFFFFFFFFFFFFFF DUP2 GT ISZERO PUSH3 0x5A4 JUMPI PUSH3 0x5A3 PUSH3 0x30D JUMP JUMPDEST JUMPDEST PUSH3 0x5B2 DUP8 DUP3 DUP9 ADD PUSH3 0x4FA JUMP JUMPDEST SWAP2 POP POP SWAP3 SWAP6 SWAP2 SWAP5 POP SWAP3 POP JUMP JUMPDEST PUSH3 0x5C9 DUP2 PUSH3 0x332 JUMP JUMPDEST DUP3 MSTORE POP POP JUMP JUMPDEST PUSH1 0x0 PUSH1 0x20 DUP3 ADD SWAP1 POP PUSH3 0x5E6 PUSH1 0x0 DUP4 ADD DUP5 PUSH3 0x5BE JUMP JUMPDEST SWAP3 SWAP2 POP POP JUMP JUMPDEST PUSH2 0x1276 DUP1 PUSH3 0x5FC PUSH1 0x0 CODECOPY PUSH1 0x0 RETURN INVALID PUSH1 0x80 PUSH1 0x40 MSTORE CALLVALUE DUP1 ISZERO PUSH2 0x10 JUMPI PUSH1 0x0 DUP1 REVERT JUMPDEST POP PUSH1 0x4 CALLDATASIZE LT PUSH2 0x9E JUMPI PUSH1 0x0 CALLDATALOAD PUSH1 0xE0 SHR DUP1 PUSH4 0x715018A6 GT PUSH2 0x66 JUMPI DUP1 PUSH4 0x715018A6 EQ PUSH2 0x137 JUMPI DUP1 PUSH4 0x8DA5CB5B EQ PUSH2 0x141 JUMPI DUP1 PUSH4 0xAD26432E EQ PUSH2 0x15F JUMPI DUP1 PUSH4 0xCAA648B4 EQ PUSH2 0x17B JUMPI DUP1 PUSH4 0xF2FDE38B EQ PUSH2 0x199 JUMPI PUSH2 0x9E JUMP JUMPDEST DUP1 PUSH4 0x9A31D50 EQ PUSH2 0xA3 JUMPI DUP1 PUSH4 0x1DD5605D EQ PUSH2 0xC1 JUMPI DUP1 PUSH4 0x3013CE29 EQ PUSH2 0xF1 JUMPI DUP1 PUSH4 0x4CBE5274 EQ PUSH2 0x10F JUMPI DUP1 PUSH4 0x4E71D92D EQ PUSH2 0x12D JUMPI JUMPDEST PUSH1 0x0 DUP1 REVERT JUMPDEST PUSH2 0xAB PUSH2 0x1B5 JUMP JUMPDEST PUSH1 0x40 MLOAD PUSH2 0xB8 SWAP2 SWAP1 PUSH2 0xB6F JUMP JUMPDEST PUSH1 0x40 MLOAD DUP1 SWAP2 SUB SWAP1 RETURN JUMPDEST PUSH2 0xDB PUSH1 0x4 DUP1 CALLDATASIZE SUB DUP2 ADD SWAP1 PUSH2 0xD6 SWAP2 SWAP1 PUSH2 0xBD4 JUMP JUMPDEST PUSH2 0x1DB JUMP JUMPDEST PUSH1 0x40 MLOAD PUSH2 0xE8 SWAP2 SWAP1 PUSH2 0xC20 JUMP JUMPDEST PUSH1 0x40 MLOAD DUP1 SWAP2 SUB SWAP1 RETURN JUMPDEST PUSH2 0xF9 PUSH2 0x215 JUMP JUMPDEST PUSH1 0x40 MLOAD PUSH2 0x106 SWAP2 SWAP1 PUSH2 0xC5C JUMP JUMPDEST PUSH1 0x40 MLOAD DUP1 SWAP2 SUB SWAP1 RETURN JUMPDEST PUSH2 0x117 PUSH2 0x23B JUMP JUMPDEST PUSH1 0x40 MLOAD PUSH2 0x124 SWAP2 SWAP1 PUSH2 0xD35 JUMP JUMPDEST PUSH1 0x40 MLOAD DUP1 SWAP2 SUB SWAP1 RETURN JUMPDEST PUSH2 0x135 PUSH2 0x2BF JUMP JUMPDEST STOP JUMPDEST PUSH2 0x13F PUSH2 0x44D JUMP JUMPDEST STOP JUMPDEST PUSH2 0x149 PUSH2 0x461 JUMP JUMPDEST PUSH1 0x40 MLOAD PUSH2 0x156 SWAP2 SWAP1 PUSH2 0xD78 JUMP JUMPDEST PUSH1 0x40 MLOAD DUP1 SWAP2 SUB SWAP1 RETURN JUMPDEST PUSH2 0x179 PUSH1 0x4 DUP1 CALLDATASIZE SUB DUP2 ADD SWAP1 PUSH2 0x174 SWAP2 SWAP1 PUSH2 0xF18 JUMP JUMPDEST PUSH2 0x48A JUMP JUMPDEST STOP JUMPDEST PUSH2 0x183 PUSH2 0x4AC JUMP JUMPDEST PUSH1 0x40 MLOAD PUSH2 0x190 SWAP2 SWAP1 PUSH2 0xF70 JUMP JUMPDEST PUSH1 0x40 MLOAD DUP1 SWAP2 SUB SWAP1 RETURN JUMPDEST PUSH2 0x1B3 PUSH1 0x4 DUP1 CALLDATASIZE SUB DUP2 ADD SWAP1 PUSH2 0x1AE SWAP2 SWAP1 PUSH2 0xFB7 JUMP JUMPDEST PUSH2 0x4BB JUMP JUMPDEST STOP JUMPDEST PUSH1 0x2 PUSH1 0x0 SWAP1 SLOAD SWAP1 PUSH2 0x100 EXP SWAP1 DIV PUSH20 0xFFFFFFFFFFFFFFFFFFFFFFFFFFFFFFFFFFFFFFFF AND DUP2 JUMP JUMPDEST PUSH1 0x3 DUP2 DUP2 SLOAD DUP2 LT PUSH2 0x1EB JUMPI PUSH1 0x0 DUP1 REVERT JUMPDEST SWAP1 PUSH1 0x0 MSTORE PUSH1 0x20 PUSH1 0x0 KECCAK256 SWAP1 PUSH1 0x8 SWAP2 DUP3 DUP3 DIV ADD SWAP2 SWAP1 MOD PUSH1 0x4 MUL SWAP2 POP SLOAD SWAP1 PUSH2 0x100 EXP SWAP1 DIV PUSH4 0xFFFFFFFF AND DUP2 JUMP JUMPDEST PUSH1 0x1 PUSH1 0x0 SWAP1 SLOAD SWAP1 PUSH2 0x100 EXP SWAP1 DIV PUSH20 0xFFFFFFFFFFFFFFFFFFFFFFFFFFFFFFFFFFFFFFFF AND DUP2 JUMP JUMPDEST PUSH1 0x60 PUSH1 0x3 DUP1 SLOAD DUP1 PUSH1 0x20 MUL PUSH1 0x20 ADD PUSH1 0x40 MLOAD SWAP1 DUP2 ADD PUSH1 0x40 MSTORE DUP1 SWAP3 SWAP2 SWAP1 DUP2 DUP2 MSTORE PUSH1 0x20 ADD DUP3 DUP1 SLOAD DUP1 ISZERO PUSH2 0x2B5 JUMPI PUSH1 0x20 MUL DUP3 ADD SWAP2 SWAP1 PUSH1 0x0 MSTORE PUSH1 0x20 PUSH1 0x0 KECCAK256 SWAP1 PUSH1 0x0 SWAP1 JUMPDEST DUP3 DUP3 SWAP1 SLOAD SWAP1 PUSH2 0x100 EXP SWAP1 DIV PUSH4 0xFFFFFFFF AND PUSH4 0xFFFFFFFF AND DUP2 MSTORE PUSH1 0x20 ADD SWAP1 PUSH1 0x4 ADD SWAP1 PUSH1 0x20 DUP3 PUSH1 0x3 ADD DIV SWAP3 DUP4 ADD SWAP3 PUSH1 0x1 SUB DUP3 MUL SWAP2 POP DUP1 DUP5 GT PUSH2 0x278 JUMPI SWAP1 POP JUMPDEST POP POP POP POP POP SWAP1 POP SWAP1 JUMP JUMPDEST PUSH1 0x0 CALLER SWAP1 POP PUSH2 0x2CD DUP2 PUSH2 0x541 JUMP JUMPDEST PUSH2 0x303 JUMPI PUSH1 0x40 MLOAD PUSH32 0x7AA5B94C00000000000000000000000000000000000000000000000000000000 DUP2 MSTORE PUSH1 0x4 ADD PUSH1 0x40 MLOAD DUP1 SWAP2 SUB SWAP1 REVERT JUMPDEST PUSH1 0x0 PUSH2 0x30D PUSH2 0x655 JUMP JUMPDEST SUB PUSH2 0x344 JUMPI PUSH1 0x40 MLOAD PUSH32 0x6E6681F600000000000000000000000000000000000000000000000000000000 DUP2 MSTORE PUSH1 0x4 ADD PUSH1 0x40 MLOAD DUP1 SWAP2 SUB SWAP1 REVERT JUMPDEST PUSH2 0x34D DUP2 PUSH2 0x6F8 JUMP JUMPDEST PUSH1 0x1 PUSH1 0x0 SWAP1 SLOAD SWAP1 PUSH2 0x100 EXP SWAP1 DIV PUSH20 0xFFFFFFFFFFFFFFFFFFFFFFFFFFFFFFFFFFFFFFFF AND PUSH20 0xFFFFFFFFFFFFFFFFFFFFFFFFFFFFFFFFFFFFFFFF AND PUSH4 0xA9059CBB DUP3 PUSH2 0x394 PUSH2 0x655 JUMP JUMPDEST PUSH1 0x40 MLOAD DUP4 PUSH4 0xFFFFFFFF AND PUSH1 0xE0 SHL DUP2 MSTORE PUSH1 0x4 ADD PUSH2 0x3B1 SWAP3 SWAP2 SWAP1 PUSH2 0xFE4 JUMP JUMPDEST PUSH1 0x20 PUSH1 0x40 MLOAD DUP1 DUP4 SUB DUP2 PUSH1 0x0 DUP8 GAS CALL ISZERO DUP1 ISZERO PUSH2 0x3D0 JUMPI RETURNDATASIZE PUSH1 0x0 DUP1 RETURNDATACOPY RETURNDATASIZE PUSH1 0x0 REVERT JUMPDEST POP POP POP POP PUSH1 0x40 MLOAD RETURNDATASIZE PUSH1 0x1F NOT PUSH1 0x1F DUP3 ADD AND DUP3 ADD DUP1 PUSH1 0x40 MSTORE POP DUP2 ADD SWAP1 PUSH2 0x3F4 SWAP2 SWAP1 PUSH2 0x1045 JUMP JUMPDEST POP DUP1 PUSH20 0xFFFFFFFFFFFFFFFFFFFFFFFFFFFFFFFFFFFFFFFF AND PUSH32 0x16F67FD92FFB20FB68612D68E9725FE41944A7BE57A193CB98FA735DD6F5D948 PUSH2 0x435 PUSH2 0x655 JUMP JUMPDEST PUSH1 0x40 MLOAD PUSH2 0x442 SWAP2 SWAP1 PUSH2 0xF70 JUMP JUMPDEST PUSH1 0x40 MLOAD DUP1 SWAP2 SUB SWAP1 LOG2 POP JUMP JUMPDEST PUSH2 0x455 PUSH2 0x8D0 JUMP JUMPDEST PUSH2 0x45F PUSH1 0x0 PUSH2 0x957 JUMP JUMPDEST JUMP JUMPDEST PUSH1 0x0 DUP1 PUSH1 0x0 SWAP1 SLOAD SWAP1 PUSH2 0x100 EXP SWAP1 DIV PUSH20 0xFFFFFFFFFFFFFFFFFFFFFFFFFFFFFFFFFFFFFFFF AND SWAP1 POP SWAP1 JUMP JUMPDEST PUSH2 0x492 PUSH2 0x8D0 JUMP JUMPDEST DUP1 PUSH1 0x3 SWAP1 DUP1 MLOAD SWAP1 PUSH1 0x20 ADD SWAP1 PUSH2 0x4A8 SWAP3 SWAP2 SWAP1 PUSH2 0xA23 JUMP JUMPDEST POP POP JUMP JUMPDEST PUSH1 0x0 PUSH2 0x4B6 PUSH2 0x655 JUMP JUMPDEST SWAP1 POP SWAP1 JUMP JUMPDEST PUSH2 0x4C3 PUSH2 0x8D0 JUMP JUMPDEST PUSH1 0x0 PUSH20 0xFFFFFFFFFFFFFFFFFFFFFFFFFFFFFFFFFFFFFFFF AND DUP2 PUSH20 0xFFFFFFFFFFFFFFFFFFFFFFFFFFFFFFFFFFFFFFFF AND SUB PUSH2 0x535 JUMPI PUSH1 0x0 PUSH1 0x40 MLOAD PUSH32 0x1E4FBDF700000000000000000000000000000000000000000000000000000000 DUP2 MSTORE PUSH1 0x4 ADD PUSH2 0x52C SWAP2 SWAP1 PUSH2 0xD78 JUMP JUMPDEST PUSH1 0x40 MLOAD DUP1 SWAP2 SUB SWAP1 REVERT JUMPDEST PUSH2 0x53E DUP2 PUSH2 0x957 JUMP JUMPDEST POP JUMP JUMPDEST PUSH1 0x0 DUP1 PUSH1 0x0 SWAP1 POP JUMPDEST PUSH1 0x3 DUP1 SLOAD SWAP1 POP DUP2 LT ISZERO PUSH2 0x64A JUMPI PUSH1 0x0 PUSH1 0x2 PUSH1 0x0 SWAP1 SLOAD SWAP1 PUSH2 0x100 EXP SWAP1 DIV PUSH20 0xFFFFFFFFFFFFFFFFFFFFFFFFFFFFFFFFFFFFFFFF AND PUSH20 0xFFFFFFFFFFFFFFFFFFFFFFFFFFFFFFFFFFFFFFFF AND PUSH3 0xFDD58E DUP6 PUSH1 0x3 DUP6 DUP2 SLOAD DUP2 LT PUSH2 0x5AA JUMPI PUSH2 0x5A9 PUSH2 0x1072 JUMP JUMPDEST JUMPDEST SWAP1 PUSH1 0x0 MSTORE PUSH1 0x20 PUSH1 0x0 KECCAK256 SWAP1 PUSH1 0x8 SWAP2 DUP3 DUP3 DIV ADD SWAP2 SWAP1 MOD PUSH1 0x4 MUL SWAP1 SLOAD SWAP1 PUSH2 0x100 EXP SWAP1 DIV PUSH4 0xFFFFFFFF AND PUSH1 0x40 MLOAD DUP4 PUSH4 0xFFFFFFFF AND PUSH1 0xE0 SHL DUP2 MSTORE PUSH1 0x4 ADD PUSH2 0x5ED SWAP3 SWAP2 SWAP1 PUSH2 0x10D2 JUMP JUMPDEST PUSH1 0x20 PUSH1 0x40 MLOAD DUP1 DUP4 SUB DUP2 DUP7 GAS STATICCALL ISZERO DUP1 ISZERO PUSH2 0x60A JUMPI RETURNDATASIZE PUSH1 0x0 DUP1 RETURNDATACOPY RETURNDATASIZE PUSH1 0x0 REVERT JUMPDEST POP POP POP POP PUSH1 0x40 MLOAD RETURNDATASIZE PUSH1 0x1F NOT PUSH1 0x1F DUP3 ADD AND DUP3 ADD DUP1 PUSH1 0x40 MSTORE POP DUP2 ADD SWAP1 PUSH2 0x62E SWAP2 SWAP1 PUSH2 0x1110 JUMP JUMPDEST SUB PUSH2 0x63D JUMPI PUSH1 0x0 SWAP2 POP POP PUSH2 0x650 JUMP JUMPDEST DUP1 DUP1 PUSH1 0x1 ADD SWAP2 POP POP PUSH2 0x549 JUMP JUMPDEST POP PUSH1 0x1 SWAP1 POP JUMPDEST SWAP2 SWAP1 POP JUMP JUMPDEST PUSH1 0x0 PUSH1 0x1 PUSH1 0x0 SWAP1 SLOAD SWAP1 PUSH2 0x100 EXP SWAP1 DIV PUSH20 0xFFFFFFFFFFFFFFFFFFFFFFFFFFFFFFFFFFFFFFFF AND PUSH20 0xFFFFFFFFFFFFFFFFFFFFFFFFFFFFFFFFFFFFFFFF AND PUSH4 0x70A08231 ADDRESS PUSH1 0x40 MLOAD DUP3 PUSH4 0xFFFFFFFF AND PUSH1 0xE0 SHL DUP2 MSTORE PUSH1 0x4 ADD PUSH2 0x6B2 SWAP2 SWAP1 PUSH2 0xD78 JUMP JUMPDEST PUSH1 0x20 PUSH1 0x40 MLOAD DUP1 DUP4 SUB DUP2 DUP7 GAS STATICCALL ISZERO DUP1 ISZERO PUSH2 0x6CF JUMPI RETURNDATASIZE PUSH1 0x0 DUP1 RETURNDATACOPY RETURNDATASIZE PUSH1 0x0 REVERT JUMPDEST POP POP POP POP PUSH1 0x40 MLOAD RETURNDATASIZE PUSH1 0x1F NOT PUSH1 0x1F DUP3 ADD AND DUP3 ADD DUP1 PUSH1 0x40 MSTORE POP DUP2 ADD SWAP1 PUSH2 0x6F3 SWAP2 SWAP1 PUSH2 0x1110 JUMP JUMPDEST SWAP1 POP SWAP1 JUMP JUMPDEST PUSH1 0x0 PUSH1 0x3 DUP1 SLOAD SWAP1 POP PUSH8 0xFFFFFFFFFFFFFFFF DUP2 GT ISZERO PUSH2 0x719 JUMPI PUSH2 0x718 PUSH2 0xDA9 JUMP JUMPDEST JUMPDEST PUSH1 0x40 MLOAD SWAP1 DUP1 DUP3 MSTORE DUP1 PUSH1 0x20 MUL PUSH1 0x20 ADD DUP3 ADD PUSH1 0x40 MSTORE DUP1 ISZERO PUSH2 0x747 JUMPI DUP2 PUSH1 0x20 ADD PUSH1 0x20 DUP3 MUL DUP1 CALLDATASIZE DUP4 CALLDATACOPY DUP1 DUP3 ADD SWAP2 POP POP SWAP1 POP JUMPDEST POP SWAP1 POP PUSH1 0x0 PUSH1 0x3 DUP1 SLOAD SWAP1 POP PUSH8 0xFFFFFFFFFFFFFFFF DUP2 GT ISZERO PUSH2 0x76B JUMPI PUSH2 0x76A PUSH2 0xDA9 JUMP JUMPDEST JUMPDEST PUSH1 0x40 MLOAD SWAP1 DUP1 DUP3 MSTORE DUP1 PUSH1 0x20 MUL PUSH1 0x20 ADD DUP3 ADD PUSH1 0x40 MSTORE DUP1 ISZERO PUSH2 0x799 JUMPI DUP2 PUSH1 0x20 ADD PUSH1 0x20 DUP3 MUL DUP1 CALLDATASIZE DUP4 CALLDATACOPY DUP1 DUP3 ADD SWAP2 POP POP SWAP1 POP JUMPDEST POP SWAP1 POP PUSH1 0x0 JUMPDEST PUSH1 0x3 DUP1 SLOAD SWAP1 POP DUP2 LT ISZERO PUSH2 0x839 JUMPI PUSH1 0x3 DUP2 DUP2 SLOAD DUP2 LT PUSH2 0x7C0 JUMPI PUSH2 0x7BF PUSH2 0x1072 JUMP JUMPDEST JUMPDEST SWAP1 PUSH1 0x0 MSTORE PUSH1 0x20 PUSH1 0x0 KECCAK256 SWAP1 PUSH1 0x8 SWAP2 DUP3 DUP3 DIV ADD SWAP2 SWAP1 MOD PUSH1 0x4 MUL SWAP1 SLOAD SWAP1 PUSH2 0x100 EXP SWAP1 DIV PUSH4 0xFFFFFFFF AND PUSH4 0xFFFFFFFF AND DUP4 DUP3 DUP2 MLOAD DUP2 LT PUSH2 0x7FF JUMPI PUSH2 0x7FE PUSH2 0x1072 JUMP JUMPDEST JUMPDEST PUSH1 0x20 MUL PUSH1 0x20 ADD ADD DUP2 DUP2 MSTORE POP POP PUSH1 0x1 DUP3 DUP3 DUP2 MLOAD DUP2 LT PUSH2 0x820 JUMPI PUSH2 0x81F PUSH2 0x1072 JUMP JUMPDEST JUMPDEST PUSH1 0x20 MUL PUSH1 0x20 ADD ADD DUP2 DUP2 MSTORE POP POP DUP1 DUP1 PUSH1 0x1 ADD SWAP2 POP POP PUSH2 0x79F JUMP JUMPDEST POP PUSH1 0x2 PUSH1 0x0 SWAP1 SLOAD SWAP1 PUSH2 0x100 EXP SWAP1 DIV PUSH20 0xFFFFFFFFFFFFFFFFFFFFFFFFFFFFFFFFFFFFFFFF AND PUSH20 0xFFFFFFFFFFFFFFFFFFFFFFFFFFFFFFFFFFFFFFFF AND PUSH4 0x6B20C454 DUP5 DUP5 DUP5 PUSH1 0x40 MLOAD DUP5 PUSH4 0xFFFFFFFF AND PUSH1 0xE0 SHL DUP2 MSTORE PUSH1 0x4 ADD PUSH2 0x899 SWAP4 SWAP3 SWAP2 SWAP1 PUSH2 0x11FB JUMP JUMPDEST PUSH1 0x0 PUSH1 0x40 MLOAD DUP1 DUP4 SUB DUP2 PUSH1 0x0 DUP8 DUP1 EXTCODESIZE ISZERO DUP1 ISZERO PUSH2 0x8B3 JUMPI PUSH1 0x0 DUP1 REVERT JUMPDEST POP GAS CALL ISZERO DUP1 ISZERO PUSH2 0x8C7 JUMPI RETURNDATASIZE PUSH1 0x0 DUP1 RETURNDATACOPY RETURNDATASIZE PUSH1 0x0 REVERT JUMPDEST POP POP POP POP POP POP POP JUMP JUMPDEST PUSH2 0x8D8 PUSH2 0xA1B JUMP JUMPDEST PUSH20 0xFFFFFFFFFFFFFFFFFFFFFFFFFFFFFFFFFFFFFFFF AND PUSH2 0x8F6 PUSH2 0x461 JUMP JUMPDEST PUSH20 0xFFFFFFFFFFFFFFFFFFFFFFFFFFFFFFFFFFFFFFFF AND EQ PUSH2 0x955 JUMPI PUSH2 0x919 PUSH2 0xA1B JUMP JUMPDEST PUSH1 0x40 MLOAD PUSH32 0x118CDAA700000000000000000000000000000000000000000000000000000000 DUP2 MSTORE PUSH1 0x4 ADD PUSH2 0x94C SWAP2 SWAP1 PUSH2 0xD78 JUMP JUMPDEST PUSH1 0x40 MLOAD DUP1 SWAP2 SUB SWAP1 REVERT JUMPDEST JUMP JUMPDEST PUSH1 0x0 DUP1 PUSH1 0x0 SWAP1 SLOAD SWAP1 PUSH2 0x100 EXP SWAP1 DIV PUSH20 0xFFFFFFFFFFFFFFFFFFFFFFFFFFFFFFFFFFFFFFFF AND SWAP1 POP DUP2 PUSH1 0x0 DUP1 PUSH2 0x100 EXP DUP2 SLOAD DUP2 PUSH20 0xFFFFFFFFFFFFFFFFFFFFFFFFFFFFFFFFFFFFFFFF MUL NOT AND SWAP1 DUP4 PUSH20 0xFFFFFFFFFFFFFFFFFFFFFFFFFFFFFFFFFFFFFFFF AND MUL OR SWAP1 SSTORE POP DUP2 PUSH20 0xFFFFFFFFFFFFFFFFFFFFFFFFFFFFFFFFFFFFFFFF AND DUP2 PUSH20 0xFFFFFFFFFFFFFFFFFFFFFFFFFFFFFFFFFFFFFFFF AND PUSH32 0x8BE0079C531659141344CD1FD0A4F28419497F9722A3DAAFE3B4186F6B6457E0 PUSH1 0x40 MLOAD PUSH1 0x40 MLOAD DUP1 SWAP2 SUB SWAP1 LOG3 POP POP JUMP JUMPDEST PUSH1 0x0 CALLER SWAP1 POP SWAP1 JUMP JUMPDEST DUP3 DUP1 SLOAD DUP3 DUP3 SSTORE SWAP1 PUSH1 0x0 MSTORE PUSH1 0x20 PUSH1 0x0 KECCAK256 SWAP1 PUSH1 0x7 ADD PUSH1 0x8 SWAP1 DIV DUP2 ADD SWAP3 DUP3 ISZERO PUSH2 0xAC2 JUMPI SWAP2 PUSH1 0x20 MUL DUP3 ADD PUSH1 0x0 JUMPDEST DUP4 DUP3 GT ISZERO PUSH2 0xA90 JUMPI DUP4 MLOAD DUP4 DUP3 PUSH2 0x100 EXP DUP2 SLOAD DUP2 PUSH4 0xFFFFFFFF MUL NOT AND SWAP1 DUP4 PUSH4 0xFFFFFFFF AND MUL OR SWAP1 SSTORE POP SWAP3 PUSH1 0x20 ADD SWAP3 PUSH1 0x4 ADD PUSH1 0x20 DUP2 PUSH1 0x3 ADD DIV SWAP3 DUP4 ADD SWAP3 PUSH1 0x1 SUB MUL PUSH2 0xA4C JUMP JUMPDEST DUP1 ISZERO PUSH2 0xAC0 JUMPI DUP3 DUP2 PUSH2 0x100 EXP DUP2 SLOAD SWAP1 PUSH4 0xFFFFFFFF MUL NOT AND SWAP1 SSTORE PUSH1 0x4 ADD PUSH1 0x20 DUP2 PUSH1 0x3 ADD DIV SWAP3 DUP4 ADD SWAP3 PUSH1 0x1 SUB MUL PUSH2 0xA90 JUMP JUMPDEST POP JUMPDEST POP SWAP1 POP PUSH2 0xACF SWAP2 SWAP1 PUSH2 0xAD3 JUMP JUMPDEST POP SWAP1 JUMP JUMPDEST JUMPDEST DUP1 DUP3 GT ISZERO PUSH2 0xAEC JUMPI PUSH1 0x0 DUP2 PUSH1 0x0 SWAP1 SSTORE POP PUSH1 0x1 ADD PUSH2 0xAD4 JUMP JUMPDEST POP SWAP1 JUMP JUMPDEST PUSH1 0x0 PUSH20 0xFFFFFFFFFFFFFFFFFFFFFFFFFFFFFFFFFFFFFFFF DUP3 AND SWAP1 POP SWAP2 SWAP1 POP JUMP JUMPDEST PUSH1 0x0 DUP2 SWAP1 POP SWAP2 SWAP1 POP JUMP JUMPDEST PUSH1 0x0 PUSH2 0xB35 PUSH2 0xB30 PUSH2 0xB2B DUP5 PUSH2 0xAF0 JUMP JUMPDEST PUSH2 0xB10 JUMP JUMPDEST PUSH2 0xAF0 JUMP JUMPDEST SWAP1 POP SWAP2 SWAP1 POP JUMP JUMPDEST PUSH1 0x0 PUSH2 0xB47 DUP3 PUSH2 0xB1A JUMP JUMPDEST SWAP1 POP SWAP2 SWAP1 POP JUMP JUMPDEST PUSH1 0x0 PUSH2 0xB59 DUP3 PUSH2 0xB3C JUMP JUMPDEST SWAP1 POP SWAP2 SWAP1 POP JUMP JUMPDEST PUSH2 0xB69 DUP2 PUSH2 0xB4E JUMP JUMPDEST DUP3 MSTORE POP POP JUMP JUMPDEST PUSH1 0x0 PUSH1 0x20 DUP3 ADD SWAP1 POP PUSH2 0xB84 PUSH1 0x0 DUP4 ADD DUP5 PUSH2 0xB60 JUMP JUMPDEST SWAP3 SWAP2 POP POP JUMP JUMPDEST PUSH1 0x0 PUSH1 0x40 MLOAD SWAP1 POP SWAP1 JUMP JUMPDEST PUSH1 0x0 DUP1 REVERT JUMPDEST PUSH1 0x0 DUP1 REVERT JUMPDEST PUSH1 0x0 DUP2 SWAP1 POP SWAP2 SWAP1 POP JUMP JUMPDEST PUSH2 0xBB1 DUP2 PUSH2 0xB9E JUMP JUMPDEST DUP2 EQ PUSH2 0xBBC JUMPI PUSH1 0x0 DUP1 REVERT JUMPDEST POP JUMP JUMPDEST PUSH1 0x0 DUP2 CALLDATALOAD SWAP1 POP PUSH2 0xBCE DUP2 PUSH2 0xBA8 JUMP JUMPDEST SWAP3 SWAP2 POP POP JUMP JUMPDEST PUSH1 0x0 PUSH1 0x20 DUP3 DUP5 SUB SLT ISZERO PUSH2 0xBEA JUMPI PUSH2 0xBE9 PUSH2 0xB94 JUMP JUMPDEST JUMPDEST PUSH1 0x0 PUSH2 0xBF8 DUP5 DUP3 DUP6 ADD PUSH2 0xBBF JUMP JUMPDEST SWAP2 POP POP SWAP3 SWAP2 POP POP JUMP JUMPDEST PUSH1 0x0 PUSH4 0xFFFFFFFF DUP3 AND SWAP1 POP SWAP2 SWAP1 POP JUMP JUMPDEST PUSH2 0xC1A DUP2 PUSH2 0xC01 JUMP JUMPDEST DUP3 MSTORE POP POP JUMP JUMPDEST PUSH1 0x0 PUSH1 0x20 DUP3 ADD SWAP1 POP PUSH2 0xC35 PUSH1 0x0 DUP4 ADD DUP5 PUSH2 0xC11 JUMP JUMPDEST SWAP3 SWAP2 POP POP JUMP JUMPDEST PUSH1 0x0 PUSH2 0xC46 DUP3 PUSH2 0xB3C JUMP JUMPDEST SWAP1 POP SWAP2 SWAP1 POP JUMP JUMPDEST PUSH2 0xC56 DUP2 PUSH2 0xC3B JUMP JUMPDEST DUP3 MSTORE POP POP JUMP JUMPDEST PUSH1 0x0 PUSH1 0x20 DUP3 ADD SWAP1 POP PUSH2 0xC71 PUSH1 0x0 DUP4 ADD DUP5 PUSH2 0xC4D JUMP JUMPDEST SWAP3 SWAP2 POP POP JUMP JUMPDEST PUSH1 0x0 DUP2 MLOAD SWAP1 POP SWAP2 SWAP1 POP JUMP JUMPDEST PUSH1 0x0 DUP3 DUP3 MSTORE PUSH1 0x20 DUP3 ADD SWAP1 POP SWAP3 SWAP2 POP POP JUMP JUMPDEST PUSH1 0x0 DUP2 SWAP1 POP PUSH1 0x20 DUP3 ADD SWAP1 POP SWAP2 SWAP1 POP JUMP JUMPDEST PUSH2 0xCAC DUP2 PUSH2 0xC01 JUMP JUMPDEST DUP3 MSTORE POP POP JUMP JUMPDEST PUSH1 0x0 PUSH2 0xCBE DUP4 DUP4 PUSH2 0xCA3 JUMP JUMPDEST PUSH1 0x20 DUP4 ADD SWAP1 POP SWAP3 SWAP2 POP POP JUMP JUMPDEST PUSH1 0x0 PUSH1 0x20 DUP3 ADD SWAP1 POP SWAP2 SWAP1 POP JUMP JUMPDEST PUSH1 0x0 PUSH2 0xCE2 DUP3 PUSH2 0xC77 JUMP JUMPDEST PUSH2 0xCEC DUP2 DUP6 PUSH2 0xC82 JUMP JUMPDEST SWAP4 POP PUSH2 0xCF7 DUP4 PUSH2 0xC93 JUMP JUMPDEST DUP1 PUSH1 0x0 JUMPDEST DUP4 DUP2 LT ISZERO PUSH2 0xD28 JUMPI DUP2 MLOAD PUSH2 0xD0F DUP9 DUP3 PUSH2 0xCB2 JUMP JUMPDEST SWAP8 POP PUSH2 0xD1A DUP4 PUSH2 0xCCA JUMP JUMPDEST SWAP3 POP POP PUSH1 0x1 DUP2 ADD SWAP1 POP PUSH2 0xCFB JUMP JUMPDEST POP DUP6 SWAP4 POP POP POP POP SWAP3 SWAP2 POP POP JUMP JUMPDEST PUSH1 0x0 PUSH1 0x20 DUP3 ADD SWAP1 POP DUP2 DUP2 SUB PUSH1 0x0 DUP4 ADD MSTORE PUSH2 0xD4F DUP2 DUP5 PUSH2 0xCD7 JUMP JUMPDEST SWAP1 POP SWAP3 SWAP2 POP POP JUMP JUMPDEST PUSH1 0x0 PUSH2 0xD62 DUP3 PUSH2 0xAF0 JUMP JUMPDEST SWAP1 POP SWAP2 SWAP1 POP JUMP JUMPDEST PUSH2 0xD72 DUP2 PUSH2 0xD57 JUMP JUMPDEST DUP3 MSTORE POP POP JUMP JUMPDEST PUSH1 0x0 PUSH1 0x20 DUP3 ADD SWAP1 POP PUSH2 0xD8D PUSH1 0x0 DUP4 ADD DUP5 PUSH2 0xD69 JUMP JUMPDEST SWAP3 SWAP2 POP POP JUMP JUMPDEST PUSH1 0x0 DUP1 REVERT JUMPDEST PUSH1 0x0 PUSH1 0x1F NOT PUSH1 0x1F DUP4 ADD AND SWAP1 POP SWAP2 SWAP1 POP JUMP JUMPDEST PUSH32 0x4E487B7100000000000000000000000000000000000000000000000000000000 PUSH1 0x0 MSTORE PUSH1 0x41 PUSH1 0x4 MSTORE PUSH1 0x24 PUSH1 0x0 REVERT JUMPDEST PUSH2 0xDE1 DUP3 PUSH2 0xD98 JUMP JUMPDEST DUP2 ADD DUP2 DUP2 LT PUSH8 0xFFFFFFFFFFFFFFFF DUP3 GT OR ISZERO PUSH2 0xE00 JUMPI PUSH2 0xDFF PUSH2 0xDA9 JUMP JUMPDEST JUMPDEST DUP1 PUSH1 0x40 MSTORE POP POP POP JUMP JUMPDEST PUSH1 0x0 PUSH2 0xE13 PUSH2 0xB8A JUMP JUMPDEST SWAP1 POP PUSH2 0xE1F DUP3 DUP3 PUSH2 0xDD8 JUMP JUMPDEST SWAP2 SWAP1 POP JUMP JUMPDEST PUSH1 0x0 PUSH8 0xFFFFFFFFFFFFFFFF DUP3 GT ISZERO PUSH2 0xE3F JUMPI PUSH2 0xE3E PUSH2 0xDA9 JUMP JUMPDEST JUMPDEST PUSH1 0x20 DUP3 MUL SWAP1 POP PUSH1 0x20 DUP2 ADD SWAP1 POP SWAP2 SWAP1 POP JUMP JUMPDEST PUSH1 0x0 DUP1 REVERT JUMPDEST PUSH2 0xE5E DUP2 PUSH2 0xC01 JUMP JUMPDEST DUP2 EQ PUSH2 0xE69 JUMPI PUSH1 0x0 DUP1 REVERT JUMPDEST POP JUMP JUMPDEST PUSH1 0x0 DUP2 CALLDATALOAD SWAP1 POP PUSH2 0xE7B DUP2 PUSH2 0xE55 JUMP JUMPDEST SWAP3 SWAP2 POP POP JUMP JUMPDEST PUSH1 0x0 PUSH2 0xE94 PUSH2 0xE8F DUP5 PUSH2 0xE24 JUMP JUMPDEST PUSH2 0xE09 JUMP JUMPDEST SWAP1 POP DUP1 DUP4 DUP3 MSTORE PUSH1 0x20 DUP3 ADD SWAP1 POP PUSH1 0x20 DUP5 MUL DUP4 ADD DUP6 DUP2 GT ISZERO PUSH2 0xEB7 JUMPI PUSH2 0xEB6 PUSH2 0xE50 JUMP JUMPDEST JUMPDEST DUP4 JUMPDEST DUP2 DUP2 LT ISZERO PUSH2 0xEE0 JUMPI DUP1 PUSH2 0xECC DUP9 DUP3 PUSH2 0xE6C JUMP JUMPDEST DUP5 MSTORE PUSH1 0x20 DUP5 ADD SWAP4 POP POP PUSH1 0x20 DUP2 ADD SWAP1 POP PUSH2 0xEB9 JUMP JUMPDEST POP POP POP SWAP4 SWAP3 POP POP POP JUMP JUMPDEST PUSH1 0x0 DUP3 PUSH1 0x1F DUP4 ADD SLT PUSH2 0xEFF JUMPI PUSH2 0xEFE PUSH2 0xD93 JUMP JUMPDEST JUMPDEST DUP2 CALLDATALOAD PUSH2 0xF0F DUP5 DUP3 PUSH1 0x20 DUP7 ADD PUSH2 0xE81 JUMP JUMPDEST SWAP2 POP POP SWAP3 SWAP2 POP POP JUMP JUMPDEST PUSH1 0x0 PUSH1 0x20 DUP3 DUP5 SUB SLT ISZERO PUSH2 0xF2E JUMPI PUSH2 0xF2D PUSH2 0xB94 JUMP JUMPDEST JUMPDEST PUSH1 0x0 DUP3 ADD CALLDATALOAD PUSH8 0xFFFFFFFFFFFFFFFF DUP2 GT ISZERO PUSH2 0xF4C JUMPI PUSH2 0xF4B PUSH2 0xB99 JUMP JUMPDEST JUMPDEST PUSH2 0xF58 DUP5 DUP3 DUP6 ADD PUSH2 0xEEA JUMP JUMPDEST SWAP2 POP POP SWAP3 SWAP2 POP POP JUMP JUMPDEST PUSH2 0xF6A DUP2 PUSH2 0xB9E JUMP JUMPDEST DUP3 MSTORE POP POP JUMP JUMPDEST PUSH1 0x0 PUSH1 0x20 DUP3 ADD SWAP1 POP PUSH2 0xF85 PUSH1 0x0 DUP4 ADD DUP5 PUSH2 0xF61 JUMP JUMPDEST SWAP3 SWAP2 POP POP JUMP JUMPDEST PUSH2 0xF94 DUP2 PUSH2 0xD57 JUMP JUMPDEST DUP2 EQ PUSH2 0xF9F JUMPI PUSH1 0x0 DUP1 REVERT JUMPDEST POP JUMP JUMPDEST PUSH1 0x0 DUP2 CALLDATALOAD SWAP1 POP PUSH2 0xFB1 DUP2 PUSH2 0xF8B JUMP JUMPDEST SWAP3 SWAP2 POP POP JUMP JUMPDEST PUSH1 0x0 PUSH1 0x20 DUP3 DUP5 SUB SLT ISZERO PUSH2 0xFCD JUMPI PUSH2 0xFCC PUSH2 0xB94 JUMP JUMPDEST JUMPDEST PUSH1 0x0 PUSH2 0xFDB DUP5 DUP3 DUP6 ADD PUSH2 0xFA2 JUMP JUMPDEST SWAP2 POP POP SWAP3 SWAP2 POP POP JUMP JUMPDEST PUSH1 0x0 PUSH1 0x40 DUP3 ADD SWAP1 POP PUSH2 0xFF9 PUSH1 0x0 DUP4 ADD DUP6 PUSH2 0xD69 JUMP JUMPDEST PUSH2 0x1006 PUSH1 0x20 DUP4 ADD DUP5 PUSH2 0xF61 JUMP JUMPDEST SWAP4 SWAP3 POP POP POP JUMP JUMPDEST PUSH1 0x0 DUP2 ISZERO ISZERO SWAP1 POP SWAP2 SWAP1 POP JUMP JUMPDEST PUSH2 0x1022 DUP2 PUSH2 0x100D JUMP JUMPDEST DUP2 EQ PUSH2 0x102D JUMPI PUSH1 0x0 DUP1 REVERT JUMPDEST POP JUMP JUMPDEST PUSH1 0x0 DUP2 MLOAD SWAP1 POP PUSH2 0x103F DUP2 PUSH2 0x1019 JUMP JUMPDEST SWAP3 SWAP2 POP POP JUMP JUMPDEST PUSH1 0x0 PUSH1 0x20 DUP3 DUP5 SUB SLT ISZERO PUSH2 0x105B JUMPI PUSH2 0x105A PUSH2 0xB94 JUMP JUMPDEST JUMPDEST PUSH1 0x0 PUSH2 0x1069 DUP5 DUP3 DUP6 ADD PUSH2 0x1030 JUMP JUMPDEST SWAP2 POP POP SWAP3 SWAP2 POP POP JUMP JUMPDEST PUSH32 0x4E487B7100000000000000000000000000000000000000000000000000000000 PUSH1 0x0 MSTORE PUSH1 0x32 PUSH1 0x4 MSTORE PUSH1 0x24 PUSH1 0x0 REVERT JUMPDEST PUSH1 0x0 PUSH2 0x10BC PUSH2 0x10B7 PUSH2 0x10B2 DUP5 PUSH2 0xC01 JUMP JUMPDEST PUSH2 0xB10 JUMP JUMPDEST PUSH2 0xB9E JUMP JUMPDEST SWAP1 POP SWAP2 SWAP1 POP JUMP JUMPDEST PUSH2 0x10CC DUP2 PUSH2 0x10A1 JUMP JUMPDEST DUP3 MSTORE POP POP JUMP JUMPDEST PUSH1 0x0 PUSH1 0x40 DUP3 ADD SWAP1 POP PUSH2 0x10E7 PUSH1 0x0 DUP4 ADD DUP6 PUSH2 0xD69 JUMP JUMPDEST PUSH2 0x10F4 PUSH1 0x20 DUP4 ADD DUP5 PUSH2 0x10C3 JUMP JUMPDEST SWAP4 SWAP3 POP POP POP JUMP JUMPDEST PUSH1 0x0 DUP2 MLOAD SWAP1 POP PUSH2 0x110A DUP2 PUSH2 0xBA8 JUMP JUMPDEST SWAP3 SWAP2 POP POP JUMP JUMPDEST PUSH1 0x0 PUSH1 0x20 DUP3 DUP5 SUB SLT ISZERO PUSH2 0x1126 JUMPI PUSH2 0x1125 PUSH2 0xB94 JUMP JUMPDEST JUMPDEST PUSH1 0x0 PUSH2 0x1134 DUP5 DUP3 DUP6 ADD PUSH2 0x10FB JUMP JUMPDEST SWAP2 POP POP SWAP3 SWAP2 POP POP JUMP JUMPDEST PUSH1 0x0 DUP2 MLOAD SWAP1 POP SWAP2 SWAP1 POP JUMP JUMPDEST PUSH1 0x0 DUP3 DUP3 MSTORE PUSH1 0x20 DUP3 ADD SWAP1 POP SWAP3 SWAP2 POP POP JUMP JUMPDEST PUSH1 0x0 DUP2 SWAP1 POP PUSH1 0x20 DUP3 ADD SWAP1 POP SWAP2 SWAP1 POP JUMP JUMPDEST PUSH2 0x1172 DUP2 PUSH2 0xB9E JUMP JUMPDEST DUP3 MSTORE POP POP JUMP JUMPDEST PUSH1 0x0 PUSH2 0x1184 DUP4 DUP4 PUSH2 0x1169 JUMP JUMPDEST PUSH1 0x20 DUP4 ADD SWAP1 POP SWAP3 SWAP2 POP POP JUMP JUMPDEST PUSH1 0x0 PUSH1 0x20 DUP3 ADD SWAP1 POP SWAP2 SWAP1 POP JUMP JUMPDEST PUSH1 0x0 PUSH2 0x11A8 DUP3 PUSH2 0x113D JUMP JUMPDEST PUSH2 0x11B2 DUP2 DUP6 PUSH2 0x1148 JUMP JUMPDEST SWAP4 POP PUSH2 0x11BD DUP4 PUSH2 0x1159 JUMP JUMPDEST DUP1 PUSH1 0x0 JUMPDEST DUP4 DUP2 LT ISZERO PUSH2 0x11EE JUMPI DUP2 MLOAD PUSH2 0x11D5 DUP9 DUP3 PUSH2 0x1178 JUMP JUMPDEST SWAP8 POP PUSH2 0x11E0 DUP4 PUSH2 0x1190 JUMP JUMPDEST SWAP3 POP POP PUSH1 0x1 DUP2 ADD SWAP1 POP PUSH2 0x11C1 JUMP JUMPDEST POP DUP6 SWAP4 POP POP POP POP SWAP3 SWAP2 POP POP JUMP JUMPDEST PUSH1 0x0 PUSH1 0x60 DUP3 ADD SWAP1 POP PUSH2 0x1210 PUSH1 0x0 DUP4 ADD DUP7 PUSH2 0xD69 JUMP JUMPDEST DUP2 DUP2 SUB PUSH1 0x20 DUP4 ADD MSTORE PUSH2 0x1222 DUP2 DUP6 PUSH2 0x119D JUMP JUMPDEST SWAP1 POP DUP2 DUP2 SUB PUSH1 0x40 DUP4 ADD MSTORE PUSH2 0x1236 DUP2 DUP5 PUSH2 0x119D JUMP JUMPDEST SWAP1 POP SWAP5 SWAP4 POP POP POP POP JUMP INVALID LOG2 PUSH5 0x6970667358 0x22 SLT KECCAK256 SWAP4 0xC8 0xDB GAS CALLDATACOPY 0xF PUSH19 0x9D359B51D08C76D18DB6A2270258BCDB84BD71 0x49 EQ SWAP8 SELFBALANCE PUSH1 0x45 PUSH5 0x736F6C6343 STOP ADDMOD OR STOP CALLER "
				},
				"gasEstimates": {
					"creation": {
						"codeDepositCost": "945200",
						"executionCost": "infinite",
						"totalCost": "infinite"
					},
					"external": {
						"claim()": "infinite",
						"collectedCardsID(uint256)": "6572",
						"getCollectedCardsID()": "infinite",
						"getTotalValue()": "infinite",
						"myNFT()": "infinite",
						"owner()": "2544",
						"paymentToken()": "infinite",
						"renounceOwnership()": "infinite",
						"setCollectedCardsID(uint32[])": "infinite",
						"transferOwnership(address)": "infinite"
					},
					"internal": {
						"_burn(address)": "infinite",
						"_checkCollectedCards(address)": "infinite",
						"_getTotalValue()": "infinite"
					}
				},
				"methodIdentifiers": {
					"claim()": "4e71d92d",
					"collectedCardsID(uint256)": "1dd5605d",
					"getCollectedCardsID()": "4cbe5274",
					"getTotalValue()": "caa648b4",
					"myNFT()": "09a31d50",
					"owner()": "8da5cb5b",
					"paymentToken()": "3013ce29",
					"renounceOwnership()": "715018a6",
					"setCollectedCardsID(uint32[])": "ad26432e",
					"transferOwnership(address)": "f2fde38b"
				}
			},
			"storageLayout": {
				"storage": [
					{
						"astId": 8,
						"contract": "contracts/periphery/Jackpot.sol:Jackpot",
						"label": "_owner",
						"offset": 0,
						"slot": "0",
						"type": "t_address"
					},
					{
						"astId": 1064,
						"contract": "contracts/periphery/Jackpot.sol:Jackpot",
						"label": "paymentToken",
						"offset": 0,
						"slot": "1",
						"type": "t_contract(ERC20)799"
					},
					{
						"astId": 1067,
						"contract": "contracts/periphery/Jackpot.sol:Jackpot",
						"label": "myNFT",
						"offset": 0,
						"slot": "2",
						"type": "t_contract(IMyNFT)1048"
					},
					{
						"astId": 1070,
						"contract": "contracts/periphery/Jackpot.sol:Jackpot",
						"label": "collectedCardsID",
						"offset": 0,
						"slot": "3",
						"type": "t_array(t_uint32)dyn_storage"
					}
				],
				"types": {
					"t_address": {
						"encoding": "inplace",
						"label": "address",
						"numberOfBytes": "20"
					},
					"t_array(t_uint32)dyn_storage": {
						"base": "t_uint32",
						"encoding": "dynamic_array",
						"label": "uint32[]",
						"numberOfBytes": "32"
					},
					"t_contract(ERC20)799": {
						"encoding": "inplace",
						"label": "contract ERC20",
						"numberOfBytes": "20"
					},
					"t_contract(IMyNFT)1048": {
						"encoding": "inplace",
						"label": "contract IMyNFT",
						"numberOfBytes": "20"
					},
					"t_uint32": {
						"encoding": "inplace",
						"label": "uint32",
						"numberOfBytes": "4"
					}
				}
			},
			"userdoc": {
				"kind": "user",
				"methods": {
					"claim()": {
						"notice": "Try to claim the value from this jackpot if the sender has the right to claim"
					},
					"getCollectedCardsID()": {
						"notice": "Get the cards ID which needed to be collected to claim the jackpot"
					},
					"getTotalValue()": {
						"notice": "Return the tatol value of the jackpot"
					},
					"setCollectedCardsID(uint32[])": {
						"notice": "Set the cards ID which needed to be collected to claim the jackpotOnly the admin role can call this function"
					}
				},
				"version": 1
			}
		}
	}
}