{
	"contracts/periphery/Fomo3d.sol": {
		"Fomo3d": {
			"abi": [
				{
					"inputs": [
						{
							"internalType": "address",
							"name": "_basePaymentToken",
							"type": "address"
						},
						{
							"internalType": "address",
							"name": "_register",
							"type": "address"
						},
						{
							"internalType": "uint256",
							"name": "_price",
							"type": "uint256"
						}
					],
					"stateMutability": "nonpayable",
					"type": "constructor"
				},
				{
					"inputs": [],
					"name": "InsufficientAllowance",
					"type": "error"
				},
				{
					"inputs": [],
					"name": "InsufficientBalance",
					"type": "error"
				},
				{
					"inputs": [],
					"name": "InvalidAddress",
					"type": "error"
				},
				{
					"inputs": [],
					"name": "InvalidAmount",
					"type": "error"
				},
				{
					"inputs": [],
					"name": "InvalidValue",
					"type": "error"
				},
				{
					"anonymous": false,
					"inputs": [
						{
							"indexed": true,
							"internalType": "address",
							"name": "user",
							"type": "address"
						},
						{
							"indexed": false,
							"internalType": "uint256",
							"name": "value",
							"type": "uint256"
						}
					],
					"name": "Fomo3dClaim",
					"type": "event"
				},
				{
					"anonymous": false,
					"inputs": [
						{
							"indexed": true,
							"internalType": "address",
							"name": "user",
							"type": "address"
						},
						{
							"indexed": false,
							"internalType": "uint256",
							"name": "value",
							"type": "uint256"
						},
						{
							"indexed": false,
							"internalType": "uint256",
							"name": "amount",
							"type": "uint256"
						}
					],
					"name": "Fomo3dDeposit",
					"type": "event"
				},
				{
					"inputs": [
						{
							"internalType": "address",
							"name": "",
							"type": "address"
						}
					],
					"name": "amount",
					"outputs": [
						{
							"internalType": "uint256",
							"name": "",
							"type": "uint256"
						}
					],
					"stateMutability": "view",
					"type": "function"
				},
				{
					"inputs": [],
					"name": "claim",
					"outputs": [],
					"stateMutability": "nonpayable",
					"type": "function"
				},
				{
					"inputs": [
						{
							"internalType": "address",
							"name": "",
							"type": "address"
						}
					],
					"name": "claimed",
					"outputs": [
						{
							"internalType": "uint256",
							"name": "",
							"type": "uint256"
						}
					],
					"stateMutability": "view",
					"type": "function"
				},
				{
					"inputs": [],
					"name": "decimal",
					"outputs": [
						{
							"internalType": "uint32",
							"name": "",
							"type": "uint32"
						}
					],
					"stateMutability": "view",
					"type": "function"
				},
				{
					"inputs": [
						{
							"internalType": "address",
							"name": "_user",
							"type": "address"
						},
						{
							"internalType": "uint256",
							"name": "_value",
							"type": "uint256"
						},
						{
							"internalType": "uint256",
							"name": "_amount",
							"type": "uint256"
						}
					],
					"name": "deposit",
					"outputs": [],
					"stateMutability": "nonpayable",
					"type": "function"
				},
				{
					"inputs": [
						{
							"internalType": "address",
							"name": "_user",
							"type": "address"
						}
					],
					"name": "getClaimed",
					"outputs": [
						{
							"internalType": "uint256",
							"name": "value",
							"type": "uint256"
						}
					],
					"stateMutability": "view",
					"type": "function"
				},
				{
					"inputs": [],
					"name": "getCurrentHistoryNonce",
					"outputs": [
						{
							"internalType": "uint32",
							"name": "nonce",
							"type": "uint32"
						}
					],
					"stateMutability": "view",
					"type": "function"
				},
				{
					"inputs": [
						{
							"internalType": "uint32",
							"name": "_nonce",
							"type": "uint32"
						}
					],
					"name": "getHistory",
					"outputs": [
						{
							"components": [
								{
									"internalType": "address",
									"name": "user",
									"type": "address"
								},
								{
									"internalType": "uint256",
									"name": "value",
									"type": "uint256"
								},
								{
									"internalType": "uint256",
									"name": "amount",
									"type": "uint256"
								}
							],
							"internalType": "struct IFomo3d.HistoryInfo",
							"name": "",
							"type": "tuple"
						}
					],
					"stateMutability": "view",
					"type": "function"
				},
				{
					"inputs": [
						{
							"internalType": "address",
							"name": "_user",
							"type": "address"
						},
						{
							"internalType": "uint256",
							"name": "_amount",
							"type": "uint256"
						}
					],
					"name": "getPredict",
					"outputs": [
						{
							"internalType": "uint256",
							"name": "value",
							"type": "uint256"
						}
					],
					"stateMutability": "view",
					"type": "function"
				},
				{
					"inputs": [
						{
							"internalType": "address",
							"name": "_user",
							"type": "address"
						}
					],
					"name": "getTotalProfit",
					"outputs": [
						{
							"internalType": "uint256",
							"name": "value",
							"type": "uint256"
						}
					],
					"stateMutability": "view",
					"type": "function"
				},
				{
					"inputs": [
						{
							"internalType": "address",
							"name": "_user",
							"type": "address"
						}
					],
					"name": "getUnclaim",
					"outputs": [
						{
							"internalType": "uint256",
							"name": "value",
							"type": "uint256"
						}
					],
					"stateMutability": "view",
					"type": "function"
				},
				{
					"inputs": [
						{
							"internalType": "uint32",
							"name": "",
							"type": "uint32"
						}
					],
					"name": "historyInfo",
					"outputs": [
						{
							"internalType": "address",
							"name": "user",
							"type": "address"
						},
						{
							"internalType": "uint256",
							"name": "value",
							"type": "uint256"
						},
						{
							"internalType": "uint256",
							"name": "amount",
							"type": "uint256"
						}
					],
					"stateMutability": "view",
					"type": "function"
				},
				{
					"inputs": [],
					"name": "historyNonce",
					"outputs": [
						{
							"internalType": "uint32",
							"name": "",
							"type": "uint32"
						}
					],
					"stateMutability": "view",
					"type": "function"
				},
				{
					"inputs": [
						{
							"internalType": "address",
							"name": "",
							"type": "address"
						}
					],
					"name": "mask",
					"outputs": [
						{
							"internalType": "uint256",
							"name": "",
							"type": "uint256"
						}
					],
					"stateMutability": "view",
					"type": "function"
				},
				{
					"inputs": [],
					"name": "paymentToken",
					"outputs": [
						{
							"internalType": "contract ERC20",
							"name": "",
							"type": "address"
						}
					],
					"stateMutability": "view",
					"type": "function"
				},
				{
					"inputs": [],
					"name": "price",
					"outputs": [
						{
							"internalType": "uint256",
							"name": "",
							"type": "uint256"
						}
					],
					"stateMutability": "view",
					"type": "function"
				},
				{
					"inputs": [],
					"name": "register",
					"outputs": [
						{
							"internalType": "contract Register",
							"name": "",
							"type": "address"
						}
					],
					"stateMutability": "view",
					"type": "function"
				},
				{
					"inputs": [],
					"name": "totalAmount",
					"outputs": [
						{
							"internalType": "uint256",
							"name": "",
							"type": "uint256"
						}
					],
					"stateMutability": "view",
					"type": "function"
				},
				{
					"inputs": [],
					"name": "totalValue",
					"outputs": [
						{
							"internalType": "uint256",
							"name": "",
							"type": "uint256"
						}
					],
					"stateMutability": "view",
					"type": "function"
				},
				{
					"inputs": [
						{
							"internalType": "address",
							"name": "",
							"type": "address"
						}
					],
					"name": "unclaim",
					"outputs": [
						{
							"internalType": "uint256",
							"name": "",
							"type": "uint256"
						}
					],
					"stateMutability": "view",
					"type": "function"
				},
				{
					"inputs": [],
					"name": "valuePerAmount",
					"outputs": [
						{
							"internalType": "uint256",
							"name": "",
							"type": "uint256"
						}
					],
					"stateMutability": "view",
					"type": "function"
				}
			],
			"devdoc": {
				"author": "SeekersAlliance",
				"kind": "dev",
				"methods": {
					"deposit(address,uint256,uint256)": {
						"params": {
							"_amount": "The amount of the deposit",
							"_user": "The user address",
							"_value": "The value of the deposit"
						}
					},
					"getHistory(uint32)": {
						"params": {
							"_nonce": "The nonce of the history"
						}
					},
					"getPredict(address,uint256)": {
						"params": {
							"_amount": "The amount of user put more here",
							"_user": "The user address"
						}
					},
					"getUnclaim(address)": {
						"params": {
							"_user": "The user address"
						}
					}
				},
				"version": 1
			},
			"evm": {
				"assembly": "    /* \"contracts/periphery/Fomo3d.sol\":262:3801  contract Fomo3d is IFomo3d{... */\n  mstore(0x40, 0x80)\n    /* \"contracts/periphery/Fomo3d.sol\":814:1206  constructor(... */\n  callvalue\n  dup1\n  iszero\n  tag_1\n  jumpi\n  0x00\n  dup1\n  revert\ntag_1:\n  pop\n  mload(0x40)\n  sub(codesize, bytecodeSize)\n  dup1\n  bytecodeSize\n  dup4\n  codecopy\n  dup2\n  dup2\n  add\n  0x40\n  mstore\n  dup2\n  add\n  swap1\n  tag_2\n  swap2\n  swap1\n  tag_3\n  jump\t// in\ntag_2:\n    /* \"contracts/periphery/Fomo3d.sol\":953:970  _basePaymentToken */\n  dup3\n    /* \"contracts/periphery/Fomo3d.sol\":932:944  paymentToken */\n  0x00\n  dup1\n    /* \"contracts/periphery/Fomo3d.sol\":932:971  paymentToken = ERC20(_basePaymentToken) */\n  0x0100\n  exp\n  dup2\n  sload\n  dup2\n  0xffffffffffffffffffffffffffffffffffffffff\n  mul\n  not\n  and\n  swap1\n  dup4\n  0xffffffffffffffffffffffffffffffffffffffff\n  and\n  mul\n  or\n  swap1\n  sstore\n  pop\n    /* \"contracts/periphery/Fomo3d.sol\":992:1004  paymentToken */\n  0x00\n  dup1\n  sload\n  swap1\n  0x0100\n  exp\n  swap1\n  div\n  0xffffffffffffffffffffffffffffffffffffffff\n  and\n    /* \"contracts/periphery/Fomo3d.sol\":992:1013  paymentToken.decimals */\n  0xffffffffffffffffffffffffffffffffffffffff\n  and\n  0x313ce567\n    /* \"contracts/periphery/Fomo3d.sol\":992:1015  paymentToken.decimals() */\n  mload(0x40)\n  dup2\n  0xffffffff\n  and\n  0xe0\n  shl\n  dup2\n  mstore\n  0x04\n  add\n  0x20\n  mload(0x40)\n  dup1\n  dup4\n  sub\n  dup2\n  dup7\n  gas\n  staticcall\n  iszero\n  dup1\n  iszero\n  tag_7\n  jumpi\n  returndatasize\n  0x00\n  dup1\n  returndatacopy\n  revert(0x00, returndatasize)\ntag_7:\n  pop\n  pop\n  pop\n  pop\n  mload(0x40)\n  returndatasize\n  not(0x1f)\n  0x1f\n  dup3\n  add\n  and\n  dup3\n  add\n  dup1\n  0x40\n  mstore\n  pop\n  dup2\n  add\n  swap1\n  tag_8\n  swap2\n  swap1\n  tag_9\n  jump\t// in\ntag_8:\n    /* \"contracts/periphery/Fomo3d.sol\":982:1015  decimal = paymentToken.decimals() */\n  0xff\n  and\n    /* \"contracts/periphery/Fomo3d.sol\":982:989  decimal */\n  0x0b\n  0x00\n    /* \"contracts/periphery/Fomo3d.sol\":982:1015  decimal = paymentToken.decimals() */\n  0x0100\n  exp\n  dup2\n  sload\n  dup2\n  0xffffffff\n  mul\n  not\n  and\n  swap1\n  dup4\n  0xffffffff\n  and\n  mul\n  or\n  swap1\n  sstore\n  pop\n    /* \"contracts/periphery/Fomo3d.sol\":1041:1042  0 */\n  0x00\n    /* \"contracts/periphery/Fomo3d.sol\":1026:1038  historyNonce */\n  0x07\n  0x00\n    /* \"contracts/periphery/Fomo3d.sol\":1026:1042  historyNonce = 0 */\n  0x0100\n  exp\n  dup2\n  sload\n  dup2\n  0xffffffff\n  mul\n  not\n  and\n  swap1\n  dup4\n  0xffffffff\n  and\n  mul\n  or\n  swap1\n  sstore\n  pop\n    /* \"contracts/periphery/Fomo3d.sol\":1151:1157  _price */\n  dup1\n    /* \"contracts/periphery/Fomo3d.sol\":1143:1148  price */\n  0x0c\n    /* \"contracts/periphery/Fomo3d.sol\":1143:1157  price = _price */\n  dup2\n  swap1\n  sstore\n  pop\n    /* \"contracts/periphery/Fomo3d.sol\":1188:1197  _register */\n  dup2\n    /* \"contracts/periphery/Fomo3d.sol\":1168:1176  register */\n  0x01\n  0x00\n    /* \"contracts/periphery/Fomo3d.sol\":1168:1198  register = Register(_register) */\n  0x0100\n  exp\n  dup2\n  sload\n  dup2\n  0xffffffffffffffffffffffffffffffffffffffff\n  mul\n  not\n  and\n  swap1\n  dup4\n  0xffffffffffffffffffffffffffffffffffffffff\n  and\n  mul\n  or\n  swap1\n  sstore\n  pop\n    /* \"contracts/periphery/Fomo3d.sol\":814:1206  constructor(... */\n  pop\n  pop\n  pop\n    /* \"contracts/periphery/Fomo3d.sol\":262:3801  contract Fomo3d is IFomo3d{... */\n  jump(tag_10)\n    /* \"#utility.yul\":88:205   */\ntag_12:\n    /* \"#utility.yul\":197:198   */\n  0x00\n    /* \"#utility.yul\":194:195   */\n  dup1\n    /* \"#utility.yul\":187:199   */\n  revert\n    /* \"#utility.yul\":334:460   */\ntag_14:\n    /* \"#utility.yul\":371:378   */\n  0x00\n    /* \"#utility.yul\":411:453   */\n  0xffffffffffffffffffffffffffffffffffffffff\n    /* \"#utility.yul\":404:409   */\n  dup3\n    /* \"#utility.yul\":400:454   */\n  and\n    /* \"#utility.yul\":389:454   */\n  swap1\n  pop\n    /* \"#utility.yul\":334:460   */\n  swap2\n  swap1\n  pop\n  jump\t// out\n    /* \"#utility.yul\":466:562   */\ntag_15:\n    /* \"#utility.yul\":503:510   */\n  0x00\n    /* \"#utility.yul\":532:556   */\n  tag_30\n    /* \"#utility.yul\":550:555   */\n  dup3\n    /* \"#utility.yul\":532:556   */\n  tag_14\n  jump\t// in\ntag_30:\n    /* \"#utility.yul\":521:556   */\n  swap1\n  pop\n    /* \"#utility.yul\":466:562   */\n  swap2\n  swap1\n  pop\n  jump\t// out\n    /* \"#utility.yul\":568:690   */\ntag_16:\n    /* \"#utility.yul\":641:665   */\n  tag_32\n    /* \"#utility.yul\":659:664   */\n  dup2\n    /* \"#utility.yul\":641:665   */\n  tag_15\n  jump\t// in\ntag_32:\n    /* \"#utility.yul\":634:639   */\n  dup2\n    /* \"#utility.yul\":631:666   */\n  eq\n    /* \"#utility.yul\":621:684   */\n  tag_33\n  jumpi\n    /* \"#utility.yul\":680:681   */\n  0x00\n    /* \"#utility.yul\":677:678   */\n  dup1\n    /* \"#utility.yul\":670:682   */\n  revert\n    /* \"#utility.yul\":621:684   */\ntag_33:\n    /* \"#utility.yul\":568:690   */\n  pop\n  jump\t// out\n    /* \"#utility.yul\":696:839   */\ntag_17:\n    /* \"#utility.yul\":753:758   */\n  0x00\n    /* \"#utility.yul\":784:790   */\n  dup2\n    /* \"#utility.yul\":778:791   */\n  mload\n    /* \"#utility.yul\":769:791   */\n  swap1\n  pop\n    /* \"#utility.yul\":800:833   */\n  tag_35\n    /* \"#utility.yul\":827:832   */\n  dup2\n    /* \"#utility.yul\":800:833   */\n  tag_16\n  jump\t// in\ntag_35:\n    /* \"#utility.yul\":696:839   */\n  swap3\n  swap2\n  pop\n  pop\n  jump\t// out\n    /* \"#utility.yul\":845:922   */\ntag_18:\n    /* \"#utility.yul\":882:889   */\n  0x00\n    /* \"#utility.yul\":911:916   */\n  dup2\n    /* \"#utility.yul\":900:916   */\n  swap1\n  pop\n    /* \"#utility.yul\":845:922   */\n  swap2\n  swap1\n  pop\n  jump\t// out\n    /* \"#utility.yul\":928:1050   */\ntag_19:\n    /* \"#utility.yul\":1001:1025   */\n  tag_38\n    /* \"#utility.yul\":1019:1024   */\n  dup2\n    /* \"#utility.yul\":1001:1025   */\n  tag_18\n  jump\t// in\ntag_38:\n    /* \"#utility.yul\":994:999   */\n  dup2\n    /* \"#utility.yul\":991:1026   */\n  eq\n    /* \"#utility.yul\":981:1044   */\n  tag_39\n  jumpi\n    /* \"#utility.yul\":1040:1041   */\n  0x00\n    /* \"#utility.yul\":1037:1038   */\n  dup1\n    /* \"#utility.yul\":1030:1042   */\n  revert\n    /* \"#utility.yul\":981:1044   */\ntag_39:\n    /* \"#utility.yul\":928:1050   */\n  pop\n  jump\t// out\n    /* \"#utility.yul\":1056:1199   */\ntag_20:\n    /* \"#utility.yul\":1113:1118   */\n  0x00\n    /* \"#utility.yul\":1144:1150   */\n  dup2\n    /* \"#utility.yul\":1138:1151   */\n  mload\n    /* \"#utility.yul\":1129:1151   */\n  swap1\n  pop\n    /* \"#utility.yul\":1160:1193   */\n  tag_41\n    /* \"#utility.yul\":1187:1192   */\n  dup2\n    /* \"#utility.yul\":1160:1193   */\n  tag_19\n  jump\t// in\ntag_41:\n    /* \"#utility.yul\":1056:1199   */\n  swap3\n  swap2\n  pop\n  pop\n  jump\t// out\n    /* \"#utility.yul\":1205:1868   */\ntag_3:\n    /* \"#utility.yul\":1293:1299   */\n  0x00\n    /* \"#utility.yul\":1301:1307   */\n  dup1\n    /* \"#utility.yul\":1309:1315   */\n  0x00\n    /* \"#utility.yul\":1358:1360   */\n  0x60\n    /* \"#utility.yul\":1346:1355   */\n  dup5\n    /* \"#utility.yul\":1337:1344   */\n  dup7\n    /* \"#utility.yul\":1333:1356   */\n  sub\n    /* \"#utility.yul\":1329:1361   */\n  slt\n    /* \"#utility.yul\":1326:1445   */\n  iszero\n  tag_43\n  jumpi\n    /* \"#utility.yul\":1364:1443   */\n  tag_44\n  tag_12\n  jump\t// in\ntag_44:\n    /* \"#utility.yul\":1326:1445   */\ntag_43:\n    /* \"#utility.yul\":1484:1485   */\n  0x00\n    /* \"#utility.yul\":1509:1573   */\n  tag_45\n    /* \"#utility.yul\":1565:1572   */\n  dup7\n    /* \"#utility.yul\":1556:1562   */\n  dup3\n    /* \"#utility.yul\":1545:1554   */\n  dup8\n    /* \"#utility.yul\":1541:1563   */\n  add\n    /* \"#utility.yul\":1509:1573   */\n  tag_17\n  jump\t// in\ntag_45:\n    /* \"#utility.yul\":1499:1573   */\n  swap4\n  pop\n    /* \"#utility.yul\":1455:1583   */\n  pop\n    /* \"#utility.yul\":1622:1624   */\n  0x20\n    /* \"#utility.yul\":1648:1712   */\n  tag_46\n    /* \"#utility.yul\":1704:1711   */\n  dup7\n    /* \"#utility.yul\":1695:1701   */\n  dup3\n    /* \"#utility.yul\":1684:1693   */\n  dup8\n    /* \"#utility.yul\":1680:1702   */\n  add\n    /* \"#utility.yul\":1648:1712   */\n  tag_17\n  jump\t// in\ntag_46:\n    /* \"#utility.yul\":1638:1712   */\n  swap3\n  pop\n    /* \"#utility.yul\":1593:1722   */\n  pop\n    /* \"#utility.yul\":1761:1763   */\n  0x40\n    /* \"#utility.yul\":1787:1851   */\n  tag_47\n    /* \"#utility.yul\":1843:1850   */\n  dup7\n    /* \"#utility.yul\":1834:1840   */\n  dup3\n    /* \"#utility.yul\":1823:1832   */\n  dup8\n    /* \"#utility.yul\":1819:1841   */\n  add\n    /* \"#utility.yul\":1787:1851   */\n  tag_20\n  jump\t// in\ntag_47:\n    /* \"#utility.yul\":1777:1851   */\n  swap2\n  pop\n    /* \"#utility.yul\":1732:1861   */\n  pop\n    /* \"#utility.yul\":1205:1868   */\n  swap3\n  pop\n  swap3\n  pop\n  swap3\n  jump\t// out\n    /* \"#utility.yul\":1874:1960   */\ntag_21:\n    /* \"#utility.yul\":1909:1916   */\n  0x00\n    /* \"#utility.yul\":1949:1953   */\n  0xff\n    /* \"#utility.yul\":1942:1947   */\n  dup3\n    /* \"#utility.yul\":1938:1954   */\n  and\n    /* \"#utility.yul\":1927:1954   */\n  swap1\n  pop\n    /* \"#utility.yul\":1874:1960   */\n  swap2\n  swap1\n  pop\n  jump\t// out\n    /* \"#utility.yul\":1966:2084   */\ntag_22:\n    /* \"#utility.yul\":2037:2059   */\n  tag_50\n    /* \"#utility.yul\":2053:2058   */\n  dup2\n    /* \"#utility.yul\":2037:2059   */\n  tag_21\n  jump\t// in\ntag_50:\n    /* \"#utility.yul\":2030:2035   */\n  dup2\n    /* \"#utility.yul\":2027:2060   */\n  eq\n    /* \"#utility.yul\":2017:2078   */\n  tag_51\n  jumpi\n    /* \"#utility.yul\":2074:2075   */\n  0x00\n    /* \"#utility.yul\":2071:2072   */\n  dup1\n    /* \"#utility.yul\":2064:2076   */\n  revert\n    /* \"#utility.yul\":2017:2078   */\ntag_51:\n    /* \"#utility.yul\":1966:2084   */\n  pop\n  jump\t// out\n    /* \"#utility.yul\":2090:2229   */\ntag_23:\n    /* \"#utility.yul\":2145:2150   */\n  0x00\n    /* \"#utility.yul\":2176:2182   */\n  dup2\n    /* \"#utility.yul\":2170:2183   */\n  mload\n    /* \"#utility.yul\":2161:2183   */\n  swap1\n  pop\n    /* \"#utility.yul\":2192:2223   */\n  tag_53\n    /* \"#utility.yul\":2217:2222   */\n  dup2\n    /* \"#utility.yul\":2192:2223   */\n  tag_22\n  jump\t// in\ntag_53:\n    /* \"#utility.yul\":2090:2229   */\n  swap3\n  swap2\n  pop\n  pop\n  jump\t// out\n    /* \"#utility.yul\":2235:2582   */\ntag_9:\n    /* \"#utility.yul\":2303:2309   */\n  0x00\n    /* \"#utility.yul\":2352:2354   */\n  0x20\n    /* \"#utility.yul\":2340:2349   */\n  dup3\n    /* \"#utility.yul\":2331:2338   */\n  dup5\n    /* \"#utility.yul\":2327:2350   */\n  sub\n    /* \"#utility.yul\":2323:2355   */\n  slt\n    /* \"#utility.yul\":2320:2439   */\n  iszero\n  tag_55\n  jumpi\n    /* \"#utility.yul\":2358:2437   */\n  tag_56\n  tag_12\n  jump\t// in\ntag_56:\n    /* \"#utility.yul\":2320:2439   */\ntag_55:\n    /* \"#utility.yul\":2478:2479   */\n  0x00\n    /* \"#utility.yul\":2503:2565   */\n  tag_57\n    /* \"#utility.yul\":2557:2564   */\n  dup5\n    /* \"#utility.yul\":2548:2554   */\n  dup3\n    /* \"#utility.yul\":2537:2546   */\n  dup6\n    /* \"#utility.yul\":2533:2555   */\n  add\n    /* \"#utility.yul\":2503:2565   */\n  tag_23\n  jump\t// in\ntag_57:\n    /* \"#utility.yul\":2493:2565   */\n  swap2\n  pop\n    /* \"#utility.yul\":2449:2575   */\n  pop\n    /* \"#utility.yul\":2235:2582   */\n  swap3\n  swap2\n  pop\n  pop\n  jump\t// out\n    /* \"contracts/periphery/Fomo3d.sol\":262:3801  contract Fomo3d is IFomo3d{... */\ntag_10:\n  dataSize(sub_0)\n  dup1\n  dataOffset(sub_0)\n  0x00\n  codecopy\n  0x00\n  return\nstop\n\nsub_0: assembly {\n        /* \"contracts/periphery/Fomo3d.sol\":262:3801  contract Fomo3d is IFomo3d{... */\n      mstore(0x40, 0x80)\n      callvalue\n      dup1\n      iszero\n      tag_1\n      jumpi\n      0x00\n      dup1\n      revert\n    tag_1:\n      pop\n      jumpi(tag_2, lt(calldatasize, 0x04))\n      shr(0xe0, calldataload(0x00))\n      dup1\n      0x76809ce3\n      gt\n      tag_24\n      jumpi\n      dup1\n      0xc884ef83\n      gt\n      tag_25\n      jumpi\n      dup1\n      0xc884ef83\n      eq\n      tag_18\n      jumpi\n      dup1\n      0xcdf033f3\n      eq\n      tag_19\n      jumpi\n      dup1\n      0xd4c3eea0\n      eq\n      tag_20\n      jumpi\n      dup1\n      0xeb46260e\n      eq\n      tag_21\n      jumpi\n      dup1\n      0xeeda71d5\n      eq\n      tag_22\n      jumpi\n      dup1\n      0xf54f0a8d\n      eq\n      tag_23\n      jumpi\n      jump(tag_2)\n    tag_25:\n      dup1\n      0x76809ce3\n      eq\n      tag_13\n      jumpi\n      dup1\n      0x7a19a488\n      eq\n      tag_14\n      jumpi\n      dup1\n      0x8233fbcb\n      eq\n      tag_15\n      jumpi\n      dup1\n      0xa035b1fe\n      eq\n      tag_16\n      jumpi\n      dup1\n      0xb9f0bf66\n      eq\n      tag_17\n      jumpi\n      jump(tag_2)\n    tag_24:\n      dup1\n      0x1aa3a008\n      gt\n      tag_26\n      jumpi\n      dup1\n      0x1aa3a008\n      eq\n      tag_8\n      jumpi\n      dup1\n      0x3013ce29\n      eq\n      tag_9\n      jumpi\n      dup1\n      0x480a4262\n      eq\n      tag_10\n      jumpi\n      dup1\n      0x4e71d92d\n      eq\n      tag_11\n      jumpi\n      dup1\n      0x6d1c6041\n      eq\n      tag_12\n      jumpi\n      jump(tag_2)\n    tag_26:\n      dup1\n      0x07040e91\n      eq\n      tag_3\n      jumpi\n      dup1\n      0x0efe6a8b\n      eq\n      tag_4\n      jumpi\n      dup1\n      0x1161e582\n      eq\n      tag_5\n      jumpi\n      dup1\n      0x13da0777\n      eq\n      tag_6\n      jumpi\n      dup1\n      0x1a39d8ef\n      eq\n      tag_7\n      jumpi\n    tag_2:\n      0x00\n      dup1\n      revert\n        /* \"contracts/periphery/Fomo3d.sol\":3465:3587  function getHistory(uint32 _nonce) external view returns (HistoryInfo memory){... */\n    tag_3:\n      tag_27\n      0x04\n      dup1\n      calldatasize\n      sub\n      dup2\n      add\n      swap1\n      tag_28\n      swap2\n      swap1\n      tag_29\n      jump\t// in\n    tag_28:\n      tag_30\n      jump\t// in\n    tag_27:\n      mload(0x40)\n      tag_31\n      swap2\n      swap1\n      tag_32\n      jump\t// in\n    tag_31:\n      mload(0x40)\n      dup1\n      swap2\n      sub\n      swap1\n      return\n        /* \"contracts/periphery/Fomo3d.sol\":1242:2018  function deposit(address _user, uint256 _value, uint256 _amount) external override{... */\n    tag_4:\n      tag_33\n      0x04\n      dup1\n      calldatasize\n      sub\n      dup2\n      add\n      swap1\n      tag_34\n      swap2\n      swap1\n      tag_35\n      jump\t// in\n    tag_34:\n      tag_36\n      jump\t// in\n    tag_33:\n      stop\n        /* \"contracts/periphery/Fomo3d.sol\":458:501  mapping (address => uint256) public unclaim */\n    tag_5:\n      tag_37\n      0x04\n      dup1\n      calldatasize\n      sub\n      dup2\n      add\n      swap1\n      tag_38\n      swap2\n      swap1\n      tag_39\n      jump\t// in\n    tag_38:\n      tag_40\n      jump\t// in\n    tag_37:\n      mload(0x40)\n      tag_41\n      swap2\n      swap1\n      tag_42\n      jump\t// in\n    tag_41:\n      mload(0x40)\n      dup1\n      swap2\n      sub\n      swap1\n      return\n        /* \"contracts/periphery/Fomo3d.sol\":2392:2779  function getPredict(address _user, uint256 _amount) external view returns (uint256 value){... */\n    tag_6:\n      tag_43\n      0x04\n      dup1\n      calldatasize\n      sub\n      dup2\n      add\n      swap1\n      tag_44\n      swap2\n      swap1\n      tag_45\n      jump\t// in\n    tag_44:\n      tag_46\n      jump\t// in\n    tag_43:\n      mload(0x40)\n      tag_47\n      swap2\n      swap1\n      tag_42\n      jump\t// in\n    tag_47:\n      mload(0x40)\n      dup1\n      swap2\n      sub\n      swap1\n      return\n        /* \"contracts/periphery/Fomo3d.sol\":650:676  uint256 public totalAmount */\n    tag_7:\n      tag_48\n      tag_49\n      jump\t// in\n    tag_48:\n      mload(0x40)\n      tag_50\n      swap2\n      swap1\n      tag_42\n      jump\t// in\n    tag_50:\n      mload(0x40)\n      dup1\n      swap2\n      sub\n      swap1\n      return\n        /* \"contracts/periphery/Fomo3d.sol\":329:353  Register public register */\n    tag_8:\n      tag_51\n      tag_52\n      jump\t// in\n    tag_51:\n      mload(0x40)\n      tag_53\n      swap2\n      swap1\n      tag_54\n      jump\t// in\n    tag_53:\n      mload(0x40)\n      dup1\n      swap2\n      sub\n      swap1\n      return\n        /* \"contracts/periphery/Fomo3d.sol\":297:322  ERC20 public paymentToken */\n    tag_9:\n      tag_55\n      tag_56\n      jump\t// in\n    tag_55:\n      mload(0x40)\n      tag_57\n      swap2\n      swap1\n      tag_58\n      jump\t// in\n    tag_57:\n      mload(0x40)\n      dup1\n      swap2\n      sub\n      swap1\n      return\n        /* \"contracts/periphery/Fomo3d.sol\":2813:2929  function getUnclaim(address _user) external view returns (uint256 value){... */\n    tag_10:\n      tag_59\n      0x04\n      dup1\n      calldatasize\n      sub\n      dup2\n      add\n      swap1\n      tag_60\n      swap2\n      swap1\n      tag_39\n      jump\t// in\n    tag_60:\n      tag_61\n      jump\t// in\n    tag_59:\n      mload(0x40)\n      tag_62\n      swap2\n      swap1\n      tag_42\n      jump\t// in\n    tag_62:\n      mload(0x40)\n      dup1\n      swap2\n      sub\n      swap1\n      return\n        /* \"contracts/periphery/Fomo3d.sol\":2058:2356  function claim() external{... */\n    tag_11:\n      tag_63\n      tag_64\n      jump\t// in\n    tag_63:\n      stop\n        /* \"contracts/periphery/Fomo3d.sol\":3280:3431  function getCurrentHistoryNonce() external view returns (uint32 nonce){... */\n    tag_12:\n      tag_65\n      tag_66\n      jump\t// in\n    tag_65:\n      mload(0x40)\n      tag_67\n      swap2\n      swap1\n      tag_68\n      jump\t// in\n    tag_67:\n      mload(0x40)\n      dup1\n      swap2\n      sub\n      swap1\n      return\n        /* \"contracts/periphery/Fomo3d.sol\":751:772  uint32 public decimal */\n    tag_13:\n      tag_69\n      tag_70\n      jump\t// in\n    tag_69:\n      mload(0x40)\n      tag_71\n      swap2\n      swap1\n      tag_68\n      jump\t// in\n    tag_71:\n      mload(0x40)\n      dup1\n      swap2\n      sub\n      swap1\n      return\n        /* \"contracts/periphery/Fomo3d.sol\":715:744  uint256 public valuePerAmount */\n    tag_14:\n      tag_72\n      tag_73\n      jump\t// in\n    tag_72:\n      mload(0x40)\n      tag_74\n      swap2\n      swap1\n      tag_42\n      jump\t// in\n    tag_74:\n      mload(0x40)\n      dup1\n      swap2\n      sub\n      swap1\n      return\n        /* \"contracts/periphery/Fomo3d.sol\":3109:3246  function getTotalProfit(address _user) external view returns (uint256 value){... */\n    tag_15:\n      tag_75\n      0x04\n      dup1\n      calldatasize\n      sub\n      dup2\n      add\n      swap1\n      tag_76\n      swap2\n      swap1\n      tag_39\n      jump\t// in\n    tag_76:\n      tag_77\n      jump\t// in\n    tag_75:\n      mload(0x40)\n      tag_78\n      swap2\n      swap1\n      tag_42\n      jump\t// in\n    tag_78:\n      mload(0x40)\n      dup1\n      swap2\n      sub\n      swap1\n      return\n        /* \"contracts/periphery/Fomo3d.sol\":779:799  uint256 public price */\n    tag_16:\n      tag_79\n      tag_80\n      jump\t// in\n    tag_79:\n      mload(0x40)\n      tag_81\n      swap2\n      swap1\n      tag_42\n      jump\t// in\n    tag_81:\n      mload(0x40)\n      dup1\n      swap2\n      sub\n      swap1\n      return\n        /* \"contracts/periphery/Fomo3d.sol\":362:404  mapping (address => uint256) public amount */\n    tag_17:\n      tag_82\n      0x04\n      dup1\n      calldatasize\n      sub\n      dup2\n      add\n      swap1\n      tag_83\n      swap2\n      swap1\n      tag_39\n      jump\t// in\n    tag_83:\n      tag_84\n      jump\t// in\n    tag_82:\n      mload(0x40)\n      tag_85\n      swap2\n      swap1\n      tag_42\n      jump\t// in\n    tag_85:\n      mload(0x40)\n      dup1\n      swap2\n      sub\n      swap1\n      return\n        /* \"contracts/periphery/Fomo3d.sol\":508:551  mapping (address => uint256) public claimed */\n    tag_18:\n      tag_86\n      0x04\n      dup1\n      calldatasize\n      sub\n      dup2\n      add\n      swap1\n      tag_87\n      swap2\n      swap1\n      tag_39\n      jump\t// in\n    tag_87:\n      tag_88\n      jump\t// in\n    tag_86:\n      mload(0x40)\n      tag_89\n      swap2\n      swap1\n      tag_42\n      jump\t// in\n    tag_89:\n      mload(0x40)\n      dup1\n      swap2\n      sub\n      swap1\n      return\n        /* \"contracts/periphery/Fomo3d.sol\":617:643  uint32 public historyNonce */\n    tag_19:\n      tag_90\n      tag_91\n      jump\t// in\n    tag_90:\n      mload(0x40)\n      tag_92\n      swap2\n      swap1\n      tag_68\n      jump\t// in\n    tag_92:\n      mload(0x40)\n      dup1\n      swap2\n      sub\n      swap1\n      return\n        /* \"contracts/periphery/Fomo3d.sol\":683:708  uint256 public totalValue */\n    tag_20:\n      tag_93\n      tag_94\n      jump\t// in\n    tag_93:\n      mload(0x40)\n      tag_95\n      swap2\n      swap1\n      tag_42\n      jump\t// in\n    tag_95:\n      mload(0x40)\n      dup1\n      swap2\n      sub\n      swap1\n      return\n        /* \"contracts/periphery/Fomo3d.sol\":2963:3075  function getClaimed(address _user) external view returns (uint256 value){... */\n    tag_21:\n      tag_96\n      0x04\n      dup1\n      calldatasize\n      sub\n      dup2\n      add\n      swap1\n      tag_97\n      swap2\n      swap1\n      tag_39\n      jump\t// in\n    tag_97:\n      tag_98\n      jump\t// in\n    tag_96:\n      mload(0x40)\n      tag_99\n      swap2\n      swap1\n      tag_42\n      jump\t// in\n    tag_99:\n      mload(0x40)\n      dup1\n      swap2\n      sub\n      swap1\n      return\n        /* \"contracts/periphery/Fomo3d.sol\":411:451  mapping (address => uint256) public mask */\n    tag_22:\n      tag_100\n      0x04\n      dup1\n      calldatasize\n      sub\n      dup2\n      add\n      swap1\n      tag_101\n      swap2\n      swap1\n      tag_39\n      jump\t// in\n    tag_101:\n      tag_102\n      jump\t// in\n    tag_100:\n      mload(0x40)\n      tag_103\n      swap2\n      swap1\n      tag_42\n      jump\t// in\n    tag_103:\n      mload(0x40)\n      dup1\n      swap2\n      sub\n      swap1\n      return\n        /* \"contracts/periphery/Fomo3d.sol\":558:608  mapping (uint32 => HistoryInfo) public historyInfo */\n    tag_23:\n      tag_104\n      0x04\n      dup1\n      calldatasize\n      sub\n      dup2\n      add\n      swap1\n      tag_105\n      swap2\n      swap1\n      tag_29\n      jump\t// in\n    tag_105:\n      tag_106\n      jump\t// in\n    tag_104:\n      mload(0x40)\n      tag_107\n      swap4\n      swap3\n      swap2\n      swap1\n      tag_108\n      jump\t// in\n    tag_107:\n      mload(0x40)\n      dup1\n      swap2\n      sub\n      swap1\n      return\n        /* \"contracts/periphery/Fomo3d.sol\":3465:3587  function getHistory(uint32 _nonce) external view returns (HistoryInfo memory){... */\n    tag_30:\n        /* \"contracts/periphery/Fomo3d.sol\":3523:3541  HistoryInfo memory */\n      tag_109\n      tag_110\n      jump\t// in\n    tag_109:\n        /* \"contracts/periphery/Fomo3d.sol\":3560:3571  historyInfo */\n      0x06\n        /* \"contracts/periphery/Fomo3d.sol\":3560:3579  historyInfo[_nonce] */\n      0x00\n        /* \"contracts/periphery/Fomo3d.sol\":3572:3578  _nonce */\n      dup4\n        /* \"contracts/periphery/Fomo3d.sol\":3560:3579  historyInfo[_nonce] */\n      0xffffffff\n      and\n      0xffffffff\n      and\n      dup2\n      mstore\n      0x20\n      add\n      swap1\n      dup2\n      mstore\n      0x20\n      add\n      0x00\n      keccak256\n        /* \"contracts/periphery/Fomo3d.sol\":3553:3579  return historyInfo[_nonce] */\n      mload(0x40)\n      dup1\n      0x60\n      add\n      0x40\n      mstore\n      swap1\n      dup2\n      0x00\n      dup3\n      add\n      0x00\n      swap1\n      sload\n      swap1\n      0x0100\n      exp\n      swap1\n      div\n      0xffffffffffffffffffffffffffffffffffffffff\n      and\n      0xffffffffffffffffffffffffffffffffffffffff\n      and\n      0xffffffffffffffffffffffffffffffffffffffff\n      and\n      dup2\n      mstore\n      0x20\n      add\n      0x01\n      dup3\n      add\n      sload\n      dup2\n      mstore\n      0x20\n      add\n      0x02\n      dup3\n      add\n      sload\n      dup2\n      mstore\n      pop\n      pop\n      swap1\n      pop\n        /* \"contracts/periphery/Fomo3d.sol\":3465:3587  function getHistory(uint32 _nonce) external view returns (HistoryInfo memory){... */\n      swap2\n      swap1\n      pop\n      jump\t// out\n        /* \"contracts/periphery/Fomo3d.sol\":1242:2018  function deposit(address _user, uint256 _value, uint256 _amount) external override{... */\n    tag_36:\n        /* \"contracts/periphery/Fomo3d.sol\":1335:1343  register */\n      0x01\n      0x00\n      swap1\n      sload\n      swap1\n      0x0100\n      exp\n      swap1\n      div\n      0xffffffffffffffffffffffffffffffffffffffff\n      and\n        /* \"contracts/periphery/Fomo3d.sol\":1335:1353  register.checkRole */\n      0xffffffffffffffffffffffffffffffffffffffff\n      and\n      0x12d9a6ad\n        /* \"contracts/periphery/Fomo3d.sol\":1354:1362  register */\n      0x01\n      0x00\n      swap1\n      sload\n      swap1\n      0x0100\n      exp\n      swap1\n      div\n      0xffffffffffffffffffffffffffffffffffffffff\n      and\n        /* \"contracts/periphery/Fomo3d.sol\":1354:1369  register.MARKET */\n      0xffffffffffffffffffffffffffffffffffffffff\n      and\n      0xf46f16c2\n        /* \"contracts/periphery/Fomo3d.sol\":1354:1371  register.MARKET() */\n      mload(0x40)\n      dup2\n      0xffffffff\n      and\n      0xe0\n      shl\n      dup2\n      mstore\n      0x04\n      add\n      0x20\n      mload(0x40)\n      dup1\n      dup4\n      sub\n      dup2\n      dup7\n      gas\n      staticcall\n      iszero\n      dup1\n      iszero\n      tag_114\n      jumpi\n      returndatasize\n      0x00\n      dup1\n      returndatacopy\n      revert(0x00, returndatasize)\n    tag_114:\n      pop\n      pop\n      pop\n      pop\n      mload(0x40)\n      returndatasize\n      not(0x1f)\n      0x1f\n      dup3\n      add\n      and\n      dup3\n      add\n      dup1\n      0x40\n      mstore\n      pop\n      dup2\n      add\n      swap1\n      tag_115\n      swap2\n      swap1\n      tag_116\n      jump\t// in\n    tag_115:\n        /* \"contracts/periphery/Fomo3d.sol\":1373:1383  msg.sender */\n      caller\n        /* \"contracts/periphery/Fomo3d.sol\":1335:1384  register.checkRole(register.MARKET(), msg.sender) */\n      mload(0x40)\n      dup4\n      0xffffffff\n      and\n      0xe0\n      shl\n      dup2\n      mstore\n      0x04\n      add\n      tag_117\n      swap3\n      swap2\n      swap1\n      tag_118\n      jump\t// in\n    tag_117:\n      0x00\n      mload(0x40)\n      dup1\n      dup4\n      sub\n      dup2\n      dup7\n      dup1\n      extcodesize\n      iszero\n      dup1\n      iszero\n      tag_119\n      jumpi\n      0x00\n      dup1\n      revert\n    tag_119:\n      pop\n      gas\n      staticcall\n      iszero\n      dup1\n      iszero\n      tag_121\n      jumpi\n      returndatasize\n      0x00\n      dup1\n      returndatacopy\n      revert(0x00, returndatasize)\n    tag_121:\n      pop\n      pop\n      pop\n      pop\n        /* \"contracts/periphery/Fomo3d.sol\":1415:1416  0 */\n      0x00\n        /* \"contracts/periphery/Fomo3d.sol\":1398:1417  _user == address(0) */\n      0xffffffffffffffffffffffffffffffffffffffff\n      and\n        /* \"contracts/periphery/Fomo3d.sol\":1398:1403  _user */\n      dup4\n        /* \"contracts/periphery/Fomo3d.sol\":1398:1417  _user == address(0) */\n      0xffffffffffffffffffffffffffffffffffffffff\n      and\n      sub\n        /* \"contracts/periphery/Fomo3d.sol\":1395:1442  if(_user == address(0)) revert InvalidAddress() */\n      tag_122\n      jumpi\n        /* \"contracts/periphery/Fomo3d.sol\":1426:1442  InvalidAddress() */\n      mload(0x40)\n      0xe6c4247b00000000000000000000000000000000000000000000000000000000\n      dup2\n      mstore\n      0x04\n      add\n      mload(0x40)\n      dup1\n      swap2\n      sub\n      swap1\n      revert\n        /* \"contracts/periphery/Fomo3d.sol\":1395:1442  if(_user == address(0)) revert InvalidAddress() */\n    tag_122:\n        /* \"contracts/periphery/Fomo3d.sol\":1466:1467  0 */\n      0x00\n        /* \"contracts/periphery/Fomo3d.sol\":1456:1462  _value */\n      dup3\n        /* \"contracts/periphery/Fomo3d.sol\":1456:1467  _value == 0 */\n      sub\n        /* \"contracts/periphery/Fomo3d.sol\":1453:1490  if(_value == 0) revert InvalidValue() */\n      tag_123\n      jumpi\n        /* \"contracts/periphery/Fomo3d.sol\":1476:1490  InvalidValue() */\n      mload(0x40)\n      0xaa7feadc00000000000000000000000000000000000000000000000000000000\n      dup2\n      mstore\n      0x04\n      add\n      mload(0x40)\n      dup1\n      swap2\n      sub\n      swap1\n      revert\n        /* \"contracts/periphery/Fomo3d.sol\":1453:1490  if(_value == 0) revert InvalidValue() */\n    tag_123:\n        /* \"contracts/periphery/Fomo3d.sol\":1515:1516  0 */\n      0x00\n        /* \"contracts/periphery/Fomo3d.sol\":1504:1511  _amount */\n      dup2\n        /* \"contracts/periphery/Fomo3d.sol\":1504:1516  _amount == 0 */\n      sub\n        /* \"contracts/periphery/Fomo3d.sol\":1501:1540  if(_amount == 0) revert InvalidAmount() */\n      tag_124\n      jumpi\n        /* \"contracts/periphery/Fomo3d.sol\":1525:1540  InvalidAmount() */\n      mload(0x40)\n      0x2c5211c600000000000000000000000000000000000000000000000000000000\n      dup2\n      mstore\n      0x04\n      add\n      mload(0x40)\n      dup1\n      swap2\n      sub\n      swap1\n      revert\n        /* \"contracts/periphery/Fomo3d.sol\":1501:1540  if(_amount == 0) revert InvalidAmount() */\n    tag_124:\n        /* \"contracts/periphery/Fomo3d.sol\":1631:1638  decimal */\n      0x0b\n      0x00\n      swap1\n      sload\n      swap1\n      0x0100\n      exp\n      swap1\n      div\n      0xffffffff\n      and\n        /* \"contracts/periphery/Fomo3d.sol\":1627:1629  10 */\n      0x0a\n        /* \"contracts/periphery/Fomo3d.sol\":1627:1638  10**decimal */\n      tag_125\n      swap2\n      swap1\n      tag_126\n      jump\t// in\n    tag_125:\n        /* \"contracts/periphery/Fomo3d.sol\":1612:1616  mask */\n      0x03\n        /* \"contracts/periphery/Fomo3d.sol\":1612:1623  mask[_user] */\n      0x00\n        /* \"contracts/periphery/Fomo3d.sol\":1617:1622  _user */\n      dup6\n        /* \"contracts/periphery/Fomo3d.sol\":1612:1623  mask[_user] */\n      0xffffffffffffffffffffffffffffffffffffffff\n      and\n      0xffffffffffffffffffffffffffffffffffffffff\n      and\n      dup2\n      mstore\n      0x20\n      add\n      swap1\n      dup2\n      mstore\n      0x20\n      add\n      0x00\n      keccak256\n      sload\n        /* \"contracts/periphery/Fomo3d.sol\":1597:1611  valuePerAmount */\n      sload(0x0a)\n        /* \"contracts/periphery/Fomo3d.sol\":1597:1623  valuePerAmount-mask[_user] */\n      tag_127\n      swap2\n      swap1\n      tag_128\n      jump\t// in\n    tag_127:\n        /* \"contracts/periphery/Fomo3d.sol\":1580:1586  amount */\n      0x02\n        /* \"contracts/periphery/Fomo3d.sol\":1580:1593  amount[_user] */\n      0x00\n        /* \"contracts/periphery/Fomo3d.sol\":1587:1592  _user */\n      dup7\n        /* \"contracts/periphery/Fomo3d.sol\":1580:1593  amount[_user] */\n      0xffffffffffffffffffffffffffffffffffffffff\n      and\n      0xffffffffffffffffffffffffffffffffffffffff\n      and\n      dup2\n      mstore\n      0x20\n      add\n      swap1\n      dup2\n      mstore\n      0x20\n      add\n      0x00\n      keccak256\n      sload\n        /* \"contracts/periphery/Fomo3d.sol\":1580:1624  amount[_user] * (valuePerAmount-mask[_user]) */\n      tag_129\n      swap2\n      swap1\n      tag_130\n      jump\t// in\n    tag_129:\n        /* \"contracts/periphery/Fomo3d.sol\":1579:1639  (amount[_user] * (valuePerAmount-mask[_user]))/(10**decimal) */\n      tag_131\n      swap2\n      swap1\n      tag_132\n      jump\t// in\n    tag_131:\n        /* \"contracts/periphery/Fomo3d.sol\":1561:1568  unclaim */\n      0x04\n        /* \"contracts/periphery/Fomo3d.sol\":1561:1575  unclaim[_user] */\n      0x00\n        /* \"contracts/periphery/Fomo3d.sol\":1569:1574  _user */\n      dup6\n        /* \"contracts/periphery/Fomo3d.sol\":1561:1575  unclaim[_user] */\n      0xffffffffffffffffffffffffffffffffffffffff\n      and\n      0xffffffffffffffffffffffffffffffffffffffff\n      and\n      dup2\n      mstore\n      0x20\n      add\n      swap1\n      dup2\n      mstore\n      0x20\n      add\n      0x00\n      keccak256\n      0x00\n        /* \"contracts/periphery/Fomo3d.sol\":1561:1639  unclaim[_user] += (amount[_user] * (valuePerAmount-mask[_user]))/(10**decimal) */\n      dup3\n      dup3\n      sload\n      tag_133\n      swap2\n      swap1\n      tag_134\n      jump\t// in\n    tag_133:\n      swap3\n      pop\n      pop\n      dup2\n      swap1\n      sstore\n      pop\n        /* \"contracts/periphery/Fomo3d.sol\":1664:1670  _value */\n      dup2\n        /* \"contracts/periphery/Fomo3d.sol\":1650:1660  totalValue */\n      0x09\n      0x00\n        /* \"contracts/periphery/Fomo3d.sol\":1650:1670  totalValue += _value */\n      dup3\n      dup3\n      sload\n      tag_135\n      swap2\n      swap1\n      tag_134\n      jump\t// in\n    tag_135:\n      swap3\n      pop\n      pop\n      dup2\n      swap1\n      sstore\n      pop\n        /* \"contracts/periphery/Fomo3d.sol\":1695:1709  valuePerAmount */\n      sload(0x0a)\n        /* \"contracts/periphery/Fomo3d.sol\":1681:1685  mask */\n      0x03\n        /* \"contracts/periphery/Fomo3d.sol\":1681:1692  mask[_user] */\n      0x00\n        /* \"contracts/periphery/Fomo3d.sol\":1686:1691  _user */\n      dup6\n        /* \"contracts/periphery/Fomo3d.sol\":1681:1692  mask[_user] */\n      0xffffffffffffffffffffffffffffffffffffffff\n      and\n      0xffffffffffffffffffffffffffffffffffffffff\n      and\n      dup2\n      mstore\n      0x20\n      add\n      swap1\n      dup2\n      mstore\n      0x20\n      add\n      0x00\n      keccak256\n        /* \"contracts/periphery/Fomo3d.sol\":1681:1709  mask[_user] = valuePerAmount */\n      dup2\n      swap1\n      sstore\n      pop\n        /* \"contracts/periphery/Fomo3d.sol\":1737:1744  _amount */\n      dup1\n        /* \"contracts/periphery/Fomo3d.sol\":1720:1726  amount */\n      0x02\n        /* \"contracts/periphery/Fomo3d.sol\":1720:1733  amount[_user] */\n      0x00\n        /* \"contracts/periphery/Fomo3d.sol\":1727:1732  _user */\n      dup6\n        /* \"contracts/periphery/Fomo3d.sol\":1720:1733  amount[_user] */\n      0xffffffffffffffffffffffffffffffffffffffff\n      and\n      0xffffffffffffffffffffffffffffffffffffffff\n      and\n      dup2\n      mstore\n      0x20\n      add\n      swap1\n      dup2\n      mstore\n      0x20\n      add\n      0x00\n      keccak256\n      0x00\n        /* \"contracts/periphery/Fomo3d.sol\":1720:1744  amount[_user] += _amount */\n      dup3\n      dup3\n      sload\n      tag_136\n      swap2\n      swap1\n      tag_134\n      jump\t// in\n    tag_136:\n      swap3\n      pop\n      pop\n      dup2\n      swap1\n      sstore\n      pop\n        /* \"contracts/periphery/Fomo3d.sol\":1770:1777  _amount */\n      dup1\n        /* \"contracts/periphery/Fomo3d.sol\":1755:1766  totalAmount */\n      0x08\n      0x00\n        /* \"contracts/periphery/Fomo3d.sol\":1755:1777  totalAmount += _amount */\n      dup3\n      dup3\n      sload\n      tag_137\n      swap2\n      swap1\n      tag_134\n      jump\t// in\n    tag_137:\n      swap3\n      pop\n      pop\n      dup2\n      swap1\n      sstore\n      pop\n        /* \"contracts/periphery/Fomo3d.sol\":1828:1839  totalAmount */\n      sload(0x08)\n        /* \"contracts/periphery/Fomo3d.sol\":1819:1826  decimal */\n      0x0b\n      0x00\n      swap1\n      sload\n      swap1\n      0x0100\n      exp\n      swap1\n      div\n      0xffffffff\n      and\n        /* \"contracts/periphery/Fomo3d.sol\":1815:1817  10 */\n      0x0a\n        /* \"contracts/periphery/Fomo3d.sol\":1815:1826  10**decimal */\n      tag_138\n      swap2\n      swap1\n      tag_126\n      jump\t// in\n    tag_138:\n        /* \"contracts/periphery/Fomo3d.sol\":1807:1813  _value */\n      dup4\n        /* \"contracts/periphery/Fomo3d.sol\":1807:1827  _value*(10**decimal) */\n      tag_139\n      swap2\n      swap1\n      tag_130\n      jump\t// in\n    tag_139:\n        /* \"contracts/periphery/Fomo3d.sol\":1807:1839  _value*(10**decimal)/totalAmount */\n      tag_140\n      swap2\n      swap1\n      tag_132\n      jump\t// in\n    tag_140:\n        /* \"contracts/periphery/Fomo3d.sol\":1788:1802  valuePerAmount */\n      0x0a\n      0x00\n        /* \"contracts/periphery/Fomo3d.sol\":1788:1840  valuePerAmount += (_value*(10**decimal)/totalAmount) */\n      dup3\n      dup3\n      sload\n      tag_141\n      swap2\n      swap1\n      tag_134\n      jump\t// in\n    tag_141:\n      swap3\n      pop\n      pop\n      dup2\n      swap1\n      sstore\n      pop\n        /* \"contracts/periphery/Fomo3d.sol\":1879:1932  HistoryInfo(_user, uint256(_value), uint256(_amount)) */\n      mload(0x40)\n      dup1\n      0x60\n      add\n      0x40\n      mstore\n      dup1\n        /* \"contracts/periphery/Fomo3d.sol\":1891:1896  _user */\n      dup5\n        /* \"contracts/periphery/Fomo3d.sol\":1879:1932  HistoryInfo(_user, uint256(_value), uint256(_amount)) */\n      0xffffffffffffffffffffffffffffffffffffffff\n      and\n      dup2\n      mstore\n      0x20\n      add\n        /* \"contracts/periphery/Fomo3d.sol\":1906:1912  _value */\n      dup4\n        /* \"contracts/periphery/Fomo3d.sol\":1879:1932  HistoryInfo(_user, uint256(_value), uint256(_amount)) */\n      dup2\n      mstore\n      0x20\n      add\n        /* \"contracts/periphery/Fomo3d.sol\":1923:1930  _amount */\n      dup3\n        /* \"contracts/periphery/Fomo3d.sol\":1879:1932  HistoryInfo(_user, uint256(_value), uint256(_amount)) */\n      dup2\n      mstore\n      pop\n        /* \"contracts/periphery/Fomo3d.sol\":1851:1862  historyInfo */\n      0x06\n        /* \"contracts/periphery/Fomo3d.sol\":1851:1876  historyInfo[historyNonce] */\n      0x00\n        /* \"contracts/periphery/Fomo3d.sol\":1863:1875  historyNonce */\n      0x07\n      0x00\n      swap1\n      sload\n      swap1\n      0x0100\n      exp\n      swap1\n      div\n      0xffffffff\n      and\n        /* \"contracts/periphery/Fomo3d.sol\":1851:1876  historyInfo[historyNonce] */\n      0xffffffff\n      and\n      0xffffffff\n      and\n      dup2\n      mstore\n      0x20\n      add\n      swap1\n      dup2\n      mstore\n      0x20\n      add\n      0x00\n      keccak256\n        /* \"contracts/periphery/Fomo3d.sol\":1851:1932  historyInfo[historyNonce] = HistoryInfo(_user, uint256(_value), uint256(_amount)) */\n      0x00\n      dup3\n      add\n      mload\n      dup2\n      0x00\n      add\n      exp(0x0100, 0x00)\n      dup2\n      sload\n      dup2\n      0xffffffffffffffffffffffffffffffffffffffff\n      mul\n      not\n      and\n      swap1\n      dup4\n      0xffffffffffffffffffffffffffffffffffffffff\n      and\n      mul\n      or\n      swap1\n      sstore\n      pop\n      0x20\n      dup3\n      add\n      mload\n      dup2\n      0x01\n      add\n      sstore\n      0x40\n      dup3\n      add\n      mload\n      dup2\n      0x02\n      add\n      sstore\n      swap1\n      pop\n      pop\n        /* \"contracts/periphery/Fomo3d.sol\":1943:1955  historyNonce */\n      0x07\n      0x00\n        /* \"contracts/periphery/Fomo3d.sol\":1943:1957  historyNonce++ */\n      dup2\n      dup2\n      swap1\n      sload\n      swap1\n      0x0100\n      exp\n      swap1\n      div\n      0xffffffff\n      and\n      dup1\n      swap3\n      swap2\n      swap1\n      tag_142\n      swap1\n      tag_143\n      jump\t// in\n    tag_142:\n      swap2\n      swap1\n      0x0100\n      exp\n      dup2\n      sload\n      dup2\n      0xffffffff\n      mul\n      not\n      and\n      swap1\n      dup4\n      0xffffffff\n      and\n      mul\n      or\n      swap1\n      sstore\n      pop\n      pop\n        /* \"contracts/periphery/Fomo3d.sol\":1987:1992  _user */\n      dup3\n        /* \"contracts/periphery/Fomo3d.sol\":1973:2010  Fomo3dDeposit(_user, _value, _amount) */\n      0xffffffffffffffffffffffffffffffffffffffff\n      and\n      0x0f0d29b5d4cebe99e2c93ffec39876a8b37c77ba767270f4f489daede43aea4e\n        /* \"contracts/periphery/Fomo3d.sol\":1994:2000  _value */\n      dup4\n        /* \"contracts/periphery/Fomo3d.sol\":2002:2009  _amount */\n      dup4\n        /* \"contracts/periphery/Fomo3d.sol\":1973:2010  Fomo3dDeposit(_user, _value, _amount) */\n      mload(0x40)\n      tag_144\n      swap3\n      swap2\n      swap1\n      tag_145\n      jump\t// in\n    tag_144:\n      mload(0x40)\n      dup1\n      swap2\n      sub\n      swap1\n      log2\n        /* \"contracts/periphery/Fomo3d.sol\":1242:2018  function deposit(address _user, uint256 _value, uint256 _amount) external override{... */\n      pop\n      pop\n      pop\n      jump\t// out\n        /* \"contracts/periphery/Fomo3d.sol\":458:501  mapping (address => uint256) public unclaim */\n    tag_40:\n      mstore(0x20, 0x04)\n      dup1\n      0x00\n      mstore\n      keccak256(0x00, 0x40)\n      0x00\n      swap2\n      pop\n      swap1\n      pop\n      sload\n      dup2\n      jump\t// out\n        /* \"contracts/periphery/Fomo3d.sol\":2392:2779  function getPredict(address _user, uint256 _amount) external view returns (uint256 value){... */\n    tag_46:\n        /* \"contracts/periphery/Fomo3d.sol\":2467:2480  uint256 value */\n      0x00\n        /* \"contracts/periphery/Fomo3d.sol\":2512:2513  0 */\n      dup1\n        /* \"contracts/periphery/Fomo3d.sol\":2495:2514  _user == address(0) */\n      0xffffffffffffffffffffffffffffffffffffffff\n      and\n        /* \"contracts/periphery/Fomo3d.sol\":2495:2500  _user */\n      dup4\n        /* \"contracts/periphery/Fomo3d.sol\":2495:2514  _user == address(0) */\n      0xffffffffffffffffffffffffffffffffffffffff\n      and\n      sub\n        /* \"contracts/periphery/Fomo3d.sol\":2492:2539  if(_user == address(0)) revert InvalidAddress() */\n      tag_147\n      jumpi\n        /* \"contracts/periphery/Fomo3d.sol\":2523:2539  InvalidAddress() */\n      mload(0x40)\n      0xe6c4247b00000000000000000000000000000000000000000000000000000000\n      dup2\n      mstore\n      0x04\n      add\n      mload(0x40)\n      dup1\n      swap2\n      sub\n      swap1\n      revert\n        /* \"contracts/periphery/Fomo3d.sol\":2492:2539  if(_user == address(0)) revert InvalidAddress() */\n    tag_147:\n        /* \"contracts/periphery/Fomo3d.sol\":2550:2568  uint256 userAmount */\n      0x00\n        /* \"contracts/periphery/Fomo3d.sol\":2587:2594  _amount */\n      dup3\n        /* \"contracts/periphery/Fomo3d.sol\":2571:2577  amount */\n      0x02\n        /* \"contracts/periphery/Fomo3d.sol\":2571:2584  amount[_user] */\n      0x00\n        /* \"contracts/periphery/Fomo3d.sol\":2578:2583  _user */\n      dup7\n        /* \"contracts/periphery/Fomo3d.sol\":2571:2584  amount[_user] */\n      0xffffffffffffffffffffffffffffffffffffffff\n      and\n      0xffffffffffffffffffffffffffffffffffffffff\n      and\n      dup2\n      mstore\n      0x20\n      add\n      swap1\n      dup2\n      mstore\n      0x20\n      add\n      0x00\n      keccak256\n      sload\n        /* \"contracts/periphery/Fomo3d.sol\":2571:2594  amount[_user] + _amount */\n      tag_148\n      swap2\n      swap1\n      tag_134\n      jump\t// in\n    tag_148:\n        /* \"contracts/periphery/Fomo3d.sol\":2550:2594  uint256 userAmount = amount[_user] + _amount */\n      swap1\n      pop\n        /* \"contracts/periphery/Fomo3d.sol\":2631:2632  0 */\n      0x00\n        /* \"contracts/periphery/Fomo3d.sol\":2620:2627  _amount */\n      dup4\n        /* \"contracts/periphery/Fomo3d.sol\":2608:2619  totalAmount */\n      sload(0x08)\n        /* \"contracts/periphery/Fomo3d.sol\":2608:2627  totalAmount+_amount */\n      tag_149\n      swap2\n      swap1\n      tag_134\n      jump\t// in\n    tag_149:\n        /* \"contracts/periphery/Fomo3d.sol\":2608:2632  totalAmount+_amount == 0 */\n      sub\n        /* \"contracts/periphery/Fomo3d.sol\":2605:2642  if(totalAmount+_amount == 0) return 0 */\n      tag_150\n      jumpi\n        /* \"contracts/periphery/Fomo3d.sol\":2641:2642  0 */\n      0x00\n        /* \"contracts/periphery/Fomo3d.sol\":2634:2642  return 0 */\n      swap2\n      pop\n      pop\n      jump(tag_146)\n        /* \"contracts/periphery/Fomo3d.sol\":2605:2642  if(totalAmount+_amount == 0) return 0 */\n    tag_150:\n        /* \"contracts/periphery/Fomo3d.sol\":2653:2666  uint256 ratio */\n      0x00\n        /* \"contracts/periphery/Fomo3d.sol\":2709:2716  _amount */\n      dup4\n        /* \"contracts/periphery/Fomo3d.sol\":2697:2708  totalAmount */\n      sload(0x08)\n        /* \"contracts/periphery/Fomo3d.sol\":2697:2716  totalAmount+_amount */\n      tag_151\n      swap2\n      swap1\n      tag_134\n      jump\t// in\n    tag_151:\n        /* \"contracts/periphery/Fomo3d.sol\":2686:2693  decimal */\n      0x0b\n      0x00\n      swap1\n      sload\n      swap1\n      0x0100\n      exp\n      swap1\n      div\n      0xffffffff\n      and\n        /* \"contracts/periphery/Fomo3d.sol\":2682:2684  10 */\n      0x0a\n        /* \"contracts/periphery/Fomo3d.sol\":2682:2693  10**decimal */\n      tag_152\n      swap2\n      swap1\n      tag_126\n      jump\t// in\n    tag_152:\n        /* \"contracts/periphery/Fomo3d.sol\":2670:2680  userAmount */\n      dup4\n        /* \"contracts/periphery/Fomo3d.sol\":2670:2694  userAmount*(10**decimal) */\n      tag_153\n      swap2\n      swap1\n      tag_130\n      jump\t// in\n    tag_153:\n        /* \"contracts/periphery/Fomo3d.sol\":2669:2717  (userAmount*(10**decimal))/(totalAmount+_amount) */\n      tag_154\n      swap2\n      swap1\n      tag_132\n      jump\t// in\n    tag_154:\n        /* \"contracts/periphery/Fomo3d.sol\":2653:2717  uint256 ratio = (userAmount*(10**decimal))/(totalAmount+_amount) */\n      swap1\n      pop\n        /* \"contracts/periphery/Fomo3d.sol\":2763:2770  decimal */\n      0x0b\n      0x00\n      swap1\n      sload\n      swap1\n      0x0100\n      exp\n      swap1\n      div\n      0xffffffff\n      and\n        /* \"contracts/periphery/Fomo3d.sol\":2759:2761  10 */\n      0x0a\n        /* \"contracts/periphery/Fomo3d.sol\":2759:2770  10**decimal */\n      tag_155\n      swap2\n      swap1\n      tag_126\n      jump\t// in\n    tag_155:\n        /* \"contracts/periphery/Fomo3d.sol\":2752:2754  10 */\n      0x0a\n        /* \"contracts/periphery/Fomo3d.sol\":2746:2751  price */\n      sload(0x0c)\n        /* \"contracts/periphery/Fomo3d.sol\":2746:2754  price/10 */\n      tag_156\n      swap2\n      swap1\n      tag_132\n      jump\t// in\n    tag_156:\n        /* \"contracts/periphery/Fomo3d.sol\":2737:2742  ratio */\n      dup3\n        /* \"contracts/periphery/Fomo3d.sol\":2737:2755  ratio * (price/10) */\n      tag_157\n      swap2\n      swap1\n      tag_130\n      jump\t// in\n    tag_157:\n        /* \"contracts/periphery/Fomo3d.sol\":2736:2771  (ratio * (price/10))/ (10**decimal) */\n      tag_158\n      swap2\n      swap1\n      tag_132\n      jump\t// in\n    tag_158:\n        /* \"contracts/periphery/Fomo3d.sol\":2728:2771  return  (ratio * (price/10))/ (10**decimal) */\n      swap3\n      pop\n      pop\n      pop\n        /* \"contracts/periphery/Fomo3d.sol\":2392:2779  function getPredict(address _user, uint256 _amount) external view returns (uint256 value){... */\n    tag_146:\n      swap3\n      swap2\n      pop\n      pop\n      jump\t// out\n        /* \"contracts/periphery/Fomo3d.sol\":650:676  uint256 public totalAmount */\n    tag_49:\n      sload(0x08)\n      dup2\n      jump\t// out\n        /* \"contracts/periphery/Fomo3d.sol\":329:353  Register public register */\n    tag_52:\n      0x01\n      0x00\n      swap1\n      sload\n      swap1\n      0x0100\n      exp\n      swap1\n      div\n      0xffffffffffffffffffffffffffffffffffffffff\n      and\n      dup2\n      jump\t// out\n        /* \"contracts/periphery/Fomo3d.sol\":297:322  ERC20 public paymentToken */\n    tag_56:\n      0x00\n      dup1\n      sload\n      swap1\n      0x0100\n      exp\n      swap1\n      div\n      0xffffffffffffffffffffffffffffffffffffffff\n      and\n      dup2\n      jump\t// out\n        /* \"contracts/periphery/Fomo3d.sol\":2813:2929  function getUnclaim(address _user) external view returns (uint256 value){... */\n    tag_61:\n        /* \"contracts/periphery/Fomo3d.sol\":2871:2884  uint256 value */\n      0x00\n        /* \"contracts/periphery/Fomo3d.sol\":2903:2921  _getUnclaim(_user) */\n      tag_160\n        /* \"contracts/periphery/Fomo3d.sol\":2915:2920  _user */\n      dup3\n        /* \"contracts/periphery/Fomo3d.sol\":2903:2914  _getUnclaim */\n      tag_161\n        /* \"contracts/periphery/Fomo3d.sol\":2903:2921  _getUnclaim(_user) */\n      jump\t// in\n    tag_160:\n        /* \"contracts/periphery/Fomo3d.sol\":2896:2921  return _getUnclaim(_user) */\n      swap1\n      pop\n        /* \"contracts/periphery/Fomo3d.sol\":2813:2929  function getUnclaim(address _user) external view returns (uint256 value){... */\n      swap2\n      swap1\n      pop\n      jump\t// out\n        /* \"contracts/periphery/Fomo3d.sol\":2058:2356  function claim() external{... */\n    tag_64:\n        /* \"contracts/periphery/Fomo3d.sol\":2094:2107  address _user */\n      0x00\n        /* \"contracts/periphery/Fomo3d.sol\":2110:2120  msg.sender */\n      caller\n        /* \"contracts/periphery/Fomo3d.sol\":2094:2120  address _user = msg.sender */\n      swap1\n      pop\n        /* \"contracts/periphery/Fomo3d.sol\":2151:2152  0 */\n      0x00\n        /* \"contracts/periphery/Fomo3d.sol\":2134:2153  _user == address(0) */\n      0xffffffffffffffffffffffffffffffffffffffff\n      and\n        /* \"contracts/periphery/Fomo3d.sol\":2134:2139  _user */\n      dup2\n        /* \"contracts/periphery/Fomo3d.sol\":2134:2153  _user == address(0) */\n      0xffffffffffffffffffffffffffffffffffffffff\n      and\n      sub\n        /* \"contracts/periphery/Fomo3d.sol\":2131:2178  if(_user == address(0)) revert InvalidAddress() */\n      tag_163\n      jumpi\n        /* \"contracts/periphery/Fomo3d.sol\":2162:2178  InvalidAddress() */\n      mload(0x40)\n      0xe6c4247b00000000000000000000000000000000000000000000000000000000\n      dup2\n      mstore\n      0x04\n      add\n      mload(0x40)\n      dup1\n      swap2\n      sub\n      swap1\n      revert\n        /* \"contracts/periphery/Fomo3d.sol\":2131:2178  if(_user == address(0)) revert InvalidAddress() */\n    tag_163:\n        /* \"contracts/periphery/Fomo3d.sol\":2189:2203  uint256 _value */\n      0x00\n        /* \"contracts/periphery/Fomo3d.sol\":2206:2224  _getUnclaim(_user) */\n      tag_164\n        /* \"contracts/periphery/Fomo3d.sol\":2218:2223  _user */\n      dup3\n        /* \"contracts/periphery/Fomo3d.sol\":2206:2217  _getUnclaim */\n      tag_161\n        /* \"contracts/periphery/Fomo3d.sol\":2206:2224  _getUnclaim(_user) */\n      jump\t// in\n    tag_164:\n        /* \"contracts/periphery/Fomo3d.sol\":2189:2224  uint256 _value = _getUnclaim(_user) */\n      swap1\n      pop\n        /* \"contracts/periphery/Fomo3d.sol\":2235:2247  paymentToken */\n      0x00\n      dup1\n      sload\n      swap1\n      0x0100\n      exp\n      swap1\n      div\n      0xffffffffffffffffffffffffffffffffffffffff\n      and\n        /* \"contracts/periphery/Fomo3d.sol\":2235:2256  paymentToken.transfer */\n      0xffffffffffffffffffffffffffffffffffffffff\n      and\n      0xa9059cbb\n        /* \"contracts/periphery/Fomo3d.sol\":2257:2262  _user */\n      dup4\n        /* \"contracts/periphery/Fomo3d.sol\":2264:2270  _value */\n      dup4\n        /* \"contracts/periphery/Fomo3d.sol\":2235:2271  paymentToken.transfer(_user, _value) */\n      mload(0x40)\n      dup4\n      0xffffffff\n      and\n      0xe0\n      shl\n      dup2\n      mstore\n      0x04\n      add\n      tag_165\n      swap3\n      swap2\n      swap1\n      tag_166\n      jump\t// in\n    tag_165:\n      0x20\n      mload(0x40)\n      dup1\n      dup4\n      sub\n      dup2\n      0x00\n      dup8\n      gas\n      call\n      iszero\n      dup1\n      iszero\n      tag_168\n      jumpi\n      returndatasize\n      0x00\n      dup1\n      returndatacopy\n      revert(0x00, returndatasize)\n    tag_168:\n      pop\n      pop\n      pop\n      pop\n      mload(0x40)\n      returndatasize\n      not(0x1f)\n      0x1f\n      dup3\n      add\n      and\n      dup3\n      add\n      dup1\n      0x40\n      mstore\n      pop\n      dup2\n      add\n      swap1\n      tag_169\n      swap2\n      swap1\n      tag_170\n      jump\t// in\n    tag_169:\n      pop\n        /* \"contracts/periphery/Fomo3d.sol\":2300:2306  _value */\n      dup1\n        /* \"contracts/periphery/Fomo3d.sol\":2282:2289  claimed */\n      0x05\n        /* \"contracts/periphery/Fomo3d.sol\":2282:2296  claimed[_user] */\n      0x00\n        /* \"contracts/periphery/Fomo3d.sol\":2290:2295  _user */\n      dup5\n        /* \"contracts/periphery/Fomo3d.sol\":2282:2296  claimed[_user] */\n      0xffffffffffffffffffffffffffffffffffffffff\n      and\n      0xffffffffffffffffffffffffffffffffffffffff\n      and\n      dup2\n      mstore\n      0x20\n      add\n      swap1\n      dup2\n      mstore\n      0x20\n      add\n      0x00\n      keccak256\n      0x00\n        /* \"contracts/periphery/Fomo3d.sol\":2282:2306  claimed[_user] += _value */\n      dup3\n      dup3\n      sload\n      tag_171\n      swap2\n      swap1\n      tag_134\n      jump\t// in\n    tag_171:\n      swap3\n      pop\n      pop\n      dup2\n      swap1\n      sstore\n      pop\n        /* \"contracts/periphery/Fomo3d.sol\":2334:2339  _user */\n      dup2\n        /* \"contracts/periphery/Fomo3d.sol\":2322:2348  Fomo3dClaim(_user, _value) */\n      0xffffffffffffffffffffffffffffffffffffffff\n      and\n      0x3488c34059d2e654b3b166b5ec4ee17bbd37297b906d39c704104a7dc2459b31\n        /* \"contracts/periphery/Fomo3d.sol\":2341:2347  _value */\n      dup3\n        /* \"contracts/periphery/Fomo3d.sol\":2322:2348  Fomo3dClaim(_user, _value) */\n      mload(0x40)\n      tag_172\n      swap2\n      swap1\n      tag_42\n      jump\t// in\n    tag_172:\n      mload(0x40)\n      dup1\n      swap2\n      sub\n      swap1\n      log2\n        /* \"contracts/periphery/Fomo3d.sol\":2083:2356  {... */\n      pop\n      pop\n        /* \"contracts/periphery/Fomo3d.sol\":2058:2356  function claim() external{... */\n      jump\t// out\n        /* \"contracts/periphery/Fomo3d.sol\":3280:3431  function getCurrentHistoryNonce() external view returns (uint32 nonce){... */\n    tag_66:\n        /* \"contracts/periphery/Fomo3d.sol\":3337:3349  uint32 nonce */\n      0x00\n        /* \"contracts/periphery/Fomo3d.sol\":3380:3381  0 */\n      dup1\n        /* \"contracts/periphery/Fomo3d.sol\":3364:3376  historyNonce */\n      0x07\n      0x00\n      swap1\n      sload\n      swap1\n      0x0100\n      exp\n      swap1\n      div\n      0xffffffff\n      and\n        /* \"contracts/periphery/Fomo3d.sol\":3364:3381  historyNonce == 0 */\n      0xffffffff\n      and\n      sub\n        /* \"contracts/periphery/Fomo3d.sol\":3361:3391  if(historyNonce == 0) return 0 */\n      tag_174\n      jumpi\n        /* \"contracts/periphery/Fomo3d.sol\":3390:3391  0 */\n      0x00\n        /* \"contracts/periphery/Fomo3d.sol\":3383:3391  return 0 */\n      swap1\n      pop\n      jump(tag_173)\n        /* \"contracts/periphery/Fomo3d.sol\":3361:3391  if(historyNonce == 0) return 0 */\n    tag_174:\n        /* \"contracts/periphery/Fomo3d.sol\":3422:3423  1 */\n      0x01\n        /* \"contracts/periphery/Fomo3d.sol\":3409:3421  historyNonce */\n      0x07\n      0x00\n      swap1\n      sload\n      swap1\n      0x0100\n      exp\n      swap1\n      div\n      0xffffffff\n      and\n        /* \"contracts/periphery/Fomo3d.sol\":3409:3423  historyNonce-1 */\n      tag_175\n      swap2\n      swap1\n      tag_176\n      jump\t// in\n    tag_175:\n        /* \"contracts/periphery/Fomo3d.sol\":3402:3423  return historyNonce-1 */\n      swap1\n      pop\n        /* \"contracts/periphery/Fomo3d.sol\":3280:3431  function getCurrentHistoryNonce() external view returns (uint32 nonce){... */\n    tag_173:\n      swap1\n      jump\t// out\n        /* \"contracts/periphery/Fomo3d.sol\":751:772  uint32 public decimal */\n    tag_70:\n      0x0b\n      0x00\n      swap1\n      sload\n      swap1\n      0x0100\n      exp\n      swap1\n      div\n      0xffffffff\n      and\n      dup2\n      jump\t// out\n        /* \"contracts/periphery/Fomo3d.sol\":715:744  uint256 public valuePerAmount */\n    tag_73:\n      sload(0x0a)\n      dup2\n      jump\t// out\n        /* \"contracts/periphery/Fomo3d.sol\":3109:3246  function getTotalProfit(address _user) external view returns (uint256 value){... */\n    tag_77:\n        /* \"contracts/periphery/Fomo3d.sol\":3171:3184  uint256 value */\n      0x00\n        /* \"contracts/periphery/Fomo3d.sol\":3220:3238  _getUnclaim(_user) */\n      tag_178\n        /* \"contracts/periphery/Fomo3d.sol\":3232:3237  _user */\n      dup3\n        /* \"contracts/periphery/Fomo3d.sol\":3220:3231  _getUnclaim */\n      tag_161\n        /* \"contracts/periphery/Fomo3d.sol\":3220:3238  _getUnclaim(_user) */\n      jump\t// in\n    tag_178:\n        /* \"contracts/periphery/Fomo3d.sol\":3203:3210  claimed */\n      0x05\n        /* \"contracts/periphery/Fomo3d.sol\":3203:3217  claimed[_user] */\n      0x00\n        /* \"contracts/periphery/Fomo3d.sol\":3211:3216  _user */\n      dup5\n        /* \"contracts/periphery/Fomo3d.sol\":3203:3217  claimed[_user] */\n      0xffffffffffffffffffffffffffffffffffffffff\n      and\n      0xffffffffffffffffffffffffffffffffffffffff\n      and\n      dup2\n      mstore\n      0x20\n      add\n      swap1\n      dup2\n      mstore\n      0x20\n      add\n      0x00\n      keccak256\n      sload\n        /* \"contracts/periphery/Fomo3d.sol\":3203:3238  claimed[_user] + _getUnclaim(_user) */\n      tag_179\n      swap2\n      swap1\n      tag_134\n      jump\t// in\n    tag_179:\n        /* \"contracts/periphery/Fomo3d.sol\":3196:3238  return claimed[_user] + _getUnclaim(_user) */\n      swap1\n      pop\n        /* \"contracts/periphery/Fomo3d.sol\":3109:3246  function getTotalProfit(address _user) external view returns (uint256 value){... */\n      swap2\n      swap1\n      pop\n      jump\t// out\n        /* \"contracts/periphery/Fomo3d.sol\":779:799  uint256 public price */\n    tag_80:\n      sload(0x0c)\n      dup2\n      jump\t// out\n        /* \"contracts/periphery/Fomo3d.sol\":362:404  mapping (address => uint256) public amount */\n    tag_84:\n      mstore(0x20, 0x02)\n      dup1\n      0x00\n      mstore\n      keccak256(0x00, 0x40)\n      0x00\n      swap2\n      pop\n      swap1\n      pop\n      sload\n      dup2\n      jump\t// out\n        /* \"contracts/periphery/Fomo3d.sol\":508:551  mapping (address => uint256) public claimed */\n    tag_88:\n      mstore(0x20, 0x05)\n      dup1\n      0x00\n      mstore\n      keccak256(0x00, 0x40)\n      0x00\n      swap2\n      pop\n      swap1\n      pop\n      sload\n      dup2\n      jump\t// out\n        /* \"contracts/periphery/Fomo3d.sol\":617:643  uint32 public historyNonce */\n    tag_91:\n      0x07\n      0x00\n      swap1\n      sload\n      swap1\n      0x0100\n      exp\n      swap1\n      div\n      0xffffffff\n      and\n      dup2\n      jump\t// out\n        /* \"contracts/periphery/Fomo3d.sol\":683:708  uint256 public totalValue */\n    tag_94:\n      sload(0x09)\n      dup2\n      jump\t// out\n        /* \"contracts/periphery/Fomo3d.sol\":2963:3075  function getClaimed(address _user) external view returns (uint256 value){... */\n    tag_98:\n        /* \"contracts/periphery/Fomo3d.sol\":3021:3034  uint256 value */\n      0x00\n        /* \"contracts/periphery/Fomo3d.sol\":3053:3060  claimed */\n      0x05\n        /* \"contracts/periphery/Fomo3d.sol\":3053:3067  claimed[_user] */\n      0x00\n        /* \"contracts/periphery/Fomo3d.sol\":3061:3066  _user */\n      dup4\n        /* \"contracts/periphery/Fomo3d.sol\":3053:3067  claimed[_user] */\n      0xffffffffffffffffffffffffffffffffffffffff\n      and\n      0xffffffffffffffffffffffffffffffffffffffff\n      and\n      dup2\n      mstore\n      0x20\n      add\n      swap1\n      dup2\n      mstore\n      0x20\n      add\n      0x00\n      keccak256\n      sload\n        /* \"contracts/periphery/Fomo3d.sol\":3046:3067  return claimed[_user] */\n      swap1\n      pop\n        /* \"contracts/periphery/Fomo3d.sol\":2963:3075  function getClaimed(address _user) external view returns (uint256 value){... */\n      swap2\n      swap1\n      pop\n      jump\t// out\n        /* \"contracts/periphery/Fomo3d.sol\":411:451  mapping (address => uint256) public mask */\n    tag_102:\n      mstore(0x20, 0x03)\n      dup1\n      0x00\n      mstore\n      keccak256(0x00, 0x40)\n      0x00\n      swap2\n      pop\n      swap1\n      pop\n      sload\n      dup2\n      jump\t// out\n        /* \"contracts/periphery/Fomo3d.sol\":558:608  mapping (uint32 => HistoryInfo) public historyInfo */\n    tag_106:\n      mstore(0x20, 0x06)\n      dup1\n      0x00\n      mstore\n      keccak256(0x00, 0x40)\n      0x00\n      swap2\n      pop\n      swap1\n      pop\n      dup1\n      0x00\n      add\n      0x00\n      swap1\n      sload\n      swap1\n      0x0100\n      exp\n      swap1\n      div\n      0xffffffffffffffffffffffffffffffffffffffff\n      and\n      swap1\n      dup1\n      0x01\n      add\n      sload\n      swap1\n      dup1\n      0x02\n      add\n      sload\n      swap1\n      pop\n      dup4\n      jump\t// out\n        /* \"contracts/periphery/Fomo3d.sol\":3603:3796  function _getUnclaim(address _user) internal view returns (uint256 value){... */\n    tag_161:\n        /* \"contracts/periphery/Fomo3d.sol\":3662:3675  uint256 value */\n      0x00\n        /* \"contracts/periphery/Fomo3d.sol\":3774:3781  claimed */\n      0x05\n        /* \"contracts/periphery/Fomo3d.sol\":3774:3788  claimed[_user] */\n      0x00\n        /* \"contracts/periphery/Fomo3d.sol\":3782:3787  _user */\n      dup4\n        /* \"contracts/periphery/Fomo3d.sol\":3774:3788  claimed[_user] */\n      0xffffffffffffffffffffffffffffffffffffffff\n      and\n      0xffffffffffffffffffffffffffffffffffffffff\n      and\n      dup2\n      mstore\n      0x20\n      add\n      swap1\n      dup2\n      mstore\n      0x20\n      add\n      0x00\n      keccak256\n      sload\n        /* \"contracts/periphery/Fomo3d.sol\":3763:3770  decimal */\n      0x0b\n      0x00\n      swap1\n      sload\n      swap1\n      0x0100\n      exp\n      swap1\n      div\n      0xffffffff\n      and\n        /* \"contracts/periphery/Fomo3d.sol\":3759:3761  10 */\n      0x0a\n        /* \"contracts/periphery/Fomo3d.sol\":3759:3770  10**decimal */\n      tag_182\n      swap2\n      swap1\n      tag_126\n      jump\t// in\n    tag_182:\n        /* \"contracts/periphery/Fomo3d.sol\":3744:3748  mask */\n      0x03\n        /* \"contracts/periphery/Fomo3d.sol\":3744:3755  mask[_user] */\n      0x00\n        /* \"contracts/periphery/Fomo3d.sol\":3749:3754  _user */\n      dup6\n        /* \"contracts/periphery/Fomo3d.sol\":3744:3755  mask[_user] */\n      0xffffffffffffffffffffffffffffffffffffffff\n      and\n      0xffffffffffffffffffffffffffffffffffffffff\n      and\n      dup2\n      mstore\n      0x20\n      add\n      swap1\n      dup2\n      mstore\n      0x20\n      add\n      0x00\n      keccak256\n      sload\n        /* \"contracts/periphery/Fomo3d.sol\":3729:3743  valuePerAmount */\n      sload(0x0a)\n        /* \"contracts/periphery/Fomo3d.sol\":3729:3755  valuePerAmount-mask[_user] */\n      tag_183\n      swap2\n      swap1\n      tag_128\n      jump\t// in\n    tag_183:\n        /* \"contracts/periphery/Fomo3d.sol\":3712:3718  amount */\n      0x02\n        /* \"contracts/periphery/Fomo3d.sol\":3712:3725  amount[_user] */\n      0x00\n        /* \"contracts/periphery/Fomo3d.sol\":3719:3724  _user */\n      dup7\n        /* \"contracts/periphery/Fomo3d.sol\":3712:3725  amount[_user] */\n      0xffffffffffffffffffffffffffffffffffffffff\n      and\n      0xffffffffffffffffffffffffffffffffffffffff\n      and\n      dup2\n      mstore\n      0x20\n      add\n      swap1\n      dup2\n      mstore\n      0x20\n      add\n      0x00\n      keccak256\n      sload\n        /* \"contracts/periphery/Fomo3d.sol\":3712:3756  amount[_user] * (valuePerAmount-mask[_user]) */\n      tag_184\n      swap2\n      swap1\n      tag_130\n      jump\t// in\n    tag_184:\n        /* \"contracts/periphery/Fomo3d.sol\":3711:3771  (amount[_user] * (valuePerAmount-mask[_user]))/(10**decimal) */\n      tag_185\n      swap2\n      swap1\n      tag_132\n      jump\t// in\n    tag_185:\n        /* \"contracts/periphery/Fomo3d.sol\":3694:3701  unclaim */\n      0x04\n        /* \"contracts/periphery/Fomo3d.sol\":3694:3708  unclaim[_user] */\n      0x00\n        /* \"contracts/periphery/Fomo3d.sol\":3702:3707  _user */\n      dup6\n        /* \"contracts/periphery/Fomo3d.sol\":3694:3708  unclaim[_user] */\n      0xffffffffffffffffffffffffffffffffffffffff\n      and\n      0xffffffffffffffffffffffffffffffffffffffff\n      and\n      dup2\n      mstore\n      0x20\n      add\n      swap1\n      dup2\n      mstore\n      0x20\n      add\n      0x00\n      keccak256\n      sload\n        /* \"contracts/periphery/Fomo3d.sol\":3694:3771  unclaim[_user] + (amount[_user] * (valuePerAmount-mask[_user]))/(10**decimal) */\n      tag_186\n      swap2\n      swap1\n      tag_134\n      jump\t// in\n    tag_186:\n        /* \"contracts/periphery/Fomo3d.sol\":3694:3788  unclaim[_user] + (amount[_user] * (valuePerAmount-mask[_user]))/(10**decimal) - claimed[_user] */\n      tag_187\n      swap2\n      swap1\n      tag_128\n      jump\t// in\n    tag_187:\n        /* \"contracts/periphery/Fomo3d.sol\":3687:3788  return unclaim[_user] + (amount[_user] * (valuePerAmount-mask[_user]))/(10**decimal) - claimed[_user] */\n      swap1\n      pop\n        /* \"contracts/periphery/Fomo3d.sol\":3603:3796  function _getUnclaim(address _user) internal view returns (uint256 value){... */\n      swap2\n      swap1\n      pop\n      jump\t// out\n    tag_110:\n      mload(0x40)\n      dup1\n      0x60\n      add\n      0x40\n      mstore\n      dup1\n      and(0xffffffffffffffffffffffffffffffffffffffff, 0x00)\n      dup2\n      mstore\n      0x20\n      add\n      0x00\n      dup2\n      mstore\n      0x20\n      add\n      0x00\n      dup2\n      mstore\n      pop\n      swap1\n      jump\t// out\n        /* \"#utility.yul\":88:205   */\n    tag_189:\n        /* \"#utility.yul\":197:198   */\n      0x00\n        /* \"#utility.yul\":194:195   */\n      dup1\n        /* \"#utility.yul\":187:199   */\n      revert\n        /* \"#utility.yul\":334:427   */\n    tag_191:\n        /* \"#utility.yul\":370:377   */\n      0x00\n        /* \"#utility.yul\":410:420   */\n      0xffffffff\n        /* \"#utility.yul\":403:408   */\n      dup3\n        /* \"#utility.yul\":399:421   */\n      and\n        /* \"#utility.yul\":388:421   */\n      swap1\n      pop\n        /* \"#utility.yul\":334:427   */\n      swap2\n      swap1\n      pop\n      jump\t// out\n        /* \"#utility.yul\":433:553   */\n    tag_192:\n        /* \"#utility.yul\":505:528   */\n      tag_232\n        /* \"#utility.yul\":522:527   */\n      dup2\n        /* \"#utility.yul\":505:528   */\n      tag_191\n      jump\t// in\n    tag_232:\n        /* \"#utility.yul\":498:503   */\n      dup2\n        /* \"#utility.yul\":495:529   */\n      eq\n        /* \"#utility.yul\":485:547   */\n      tag_233\n      jumpi\n        /* \"#utility.yul\":543:544   */\n      0x00\n        /* \"#utility.yul\":540:541   */\n      dup1\n        /* \"#utility.yul\":533:545   */\n      revert\n        /* \"#utility.yul\":485:547   */\n    tag_233:\n        /* \"#utility.yul\":433:553   */\n      pop\n      jump\t// out\n        /* \"#utility.yul\":559:696   */\n    tag_193:\n        /* \"#utility.yul\":604:609   */\n      0x00\n        /* \"#utility.yul\":642:648   */\n      dup2\n        /* \"#utility.yul\":629:649   */\n      calldataload\n        /* \"#utility.yul\":620:649   */\n      swap1\n      pop\n        /* \"#utility.yul\":658:690   */\n      tag_235\n        /* \"#utility.yul\":684:689   */\n      dup2\n        /* \"#utility.yul\":658:690   */\n      tag_192\n      jump\t// in\n    tag_235:\n        /* \"#utility.yul\":559:696   */\n      swap3\n      swap2\n      pop\n      pop\n      jump\t// out\n        /* \"#utility.yul\":702:1029   */\n    tag_29:\n        /* \"#utility.yul\":760:766   */\n      0x00\n        /* \"#utility.yul\":809:811   */\n      0x20\n        /* \"#utility.yul\":797:806   */\n      dup3\n        /* \"#utility.yul\":788:795   */\n      dup5\n        /* \"#utility.yul\":784:807   */\n      sub\n        /* \"#utility.yul\":780:812   */\n      slt\n        /* \"#utility.yul\":777:896   */\n      iszero\n      tag_237\n      jumpi\n        /* \"#utility.yul\":815:894   */\n      tag_238\n      tag_189\n      jump\t// in\n    tag_238:\n        /* \"#utility.yul\":777:896   */\n    tag_237:\n        /* \"#utility.yul\":935:936   */\n      0x00\n        /* \"#utility.yul\":960:1012   */\n      tag_239\n        /* \"#utility.yul\":1004:1011   */\n      dup5\n        /* \"#utility.yul\":995:1001   */\n      dup3\n        /* \"#utility.yul\":984:993   */\n      dup6\n        /* \"#utility.yul\":980:1002   */\n      add\n        /* \"#utility.yul\":960:1012   */\n      tag_193\n      jump\t// in\n    tag_239:\n        /* \"#utility.yul\":950:1012   */\n      swap2\n      pop\n        /* \"#utility.yul\":906:1022   */\n      pop\n        /* \"#utility.yul\":702:1029   */\n      swap3\n      swap2\n      pop\n      pop\n      jump\t// out\n        /* \"#utility.yul\":1035:1161   */\n    tag_194:\n        /* \"#utility.yul\":1072:1079   */\n      0x00\n        /* \"#utility.yul\":1112:1154   */\n      0xffffffffffffffffffffffffffffffffffffffff\n        /* \"#utility.yul\":1105:1110   */\n      dup3\n        /* \"#utility.yul\":1101:1155   */\n      and\n        /* \"#utility.yul\":1090:1155   */\n      swap1\n      pop\n        /* \"#utility.yul\":1035:1161   */\n      swap2\n      swap1\n      pop\n      jump\t// out\n        /* \"#utility.yul\":1167:1263   */\n    tag_195:\n        /* \"#utility.yul\":1204:1211   */\n      0x00\n        /* \"#utility.yul\":1233:1257   */\n      tag_242\n        /* \"#utility.yul\":1251:1256   */\n      dup3\n        /* \"#utility.yul\":1233:1257   */\n      tag_194\n      jump\t// in\n    tag_242:\n        /* \"#utility.yul\":1222:1257   */\n      swap1\n      pop\n        /* \"#utility.yul\":1167:1263   */\n      swap2\n      swap1\n      pop\n      jump\t// out\n        /* \"#utility.yul\":1269:1377   */\n    tag_196:\n        /* \"#utility.yul\":1346:1370   */\n      tag_244\n        /* \"#utility.yul\":1364:1369   */\n      dup2\n        /* \"#utility.yul\":1346:1370   */\n      tag_195\n      jump\t// in\n    tag_244:\n        /* \"#utility.yul\":1341:1344   */\n      dup3\n        /* \"#utility.yul\":1334:1371   */\n      mstore\n        /* \"#utility.yul\":1269:1377   */\n      pop\n      pop\n      jump\t// out\n        /* \"#utility.yul\":1383:1460   */\n    tag_197:\n        /* \"#utility.yul\":1420:1427   */\n      0x00\n        /* \"#utility.yul\":1449:1454   */\n      dup2\n        /* \"#utility.yul\":1438:1454   */\n      swap1\n      pop\n        /* \"#utility.yul\":1383:1460   */\n      swap2\n      swap1\n      pop\n      jump\t// out\n        /* \"#utility.yul\":1466:1574   */\n    tag_198:\n        /* \"#utility.yul\":1543:1567   */\n      tag_247\n        /* \"#utility.yul\":1561:1566   */\n      dup2\n        /* \"#utility.yul\":1543:1567   */\n      tag_197\n      jump\t// in\n    tag_247:\n        /* \"#utility.yul\":1538:1541   */\n      dup3\n        /* \"#utility.yul\":1531:1568   */\n      mstore\n        /* \"#utility.yul\":1466:1574   */\n      pop\n      pop\n      jump\t// out\n        /* \"#utility.yul\":1644:2336   */\n    tag_199:\n        /* \"#utility.yul\":1799:1803   */\n      0x60\n        /* \"#utility.yul\":1794:1797   */\n      dup3\n        /* \"#utility.yul\":1790:1804   */\n      add\n        /* \"#utility.yul\":1886:1890   */\n      0x00\n        /* \"#utility.yul\":1879:1884   */\n      dup3\n        /* \"#utility.yul\":1875:1891   */\n      add\n        /* \"#utility.yul\":1869:1892   */\n      mload\n        /* \"#utility.yul\":1905:1968   */\n      tag_249\n        /* \"#utility.yul\":1962:1966   */\n      0x00\n        /* \"#utility.yul\":1957:1960   */\n      dup6\n        /* \"#utility.yul\":1953:1967   */\n      add\n        /* \"#utility.yul\":1939:1951   */\n      dup3\n        /* \"#utility.yul\":1905:1968   */\n      tag_196\n      jump\t// in\n    tag_249:\n        /* \"#utility.yul\":1814:1978   */\n      pop\n        /* \"#utility.yul\":2061:2065   */\n      0x20\n        /* \"#utility.yul\":2054:2059   */\n      dup3\n        /* \"#utility.yul\":2050:2066   */\n      add\n        /* \"#utility.yul\":2044:2067   */\n      mload\n        /* \"#utility.yul\":2080:2143   */\n      tag_250\n        /* \"#utility.yul\":2137:2141   */\n      0x20\n        /* \"#utility.yul\":2132:2135   */\n      dup6\n        /* \"#utility.yul\":2128:2142   */\n      add\n        /* \"#utility.yul\":2114:2126   */\n      dup3\n        /* \"#utility.yul\":2080:2143   */\n      tag_198\n      jump\t// in\n    tag_250:\n        /* \"#utility.yul\":1988:2153   */\n      pop\n        /* \"#utility.yul\":2237:2241   */\n      0x40\n        /* \"#utility.yul\":2230:2235   */\n      dup3\n        /* \"#utility.yul\":2226:2242   */\n      add\n        /* \"#utility.yul\":2220:2243   */\n      mload\n        /* \"#utility.yul\":2256:2319   */\n      tag_251\n        /* \"#utility.yul\":2313:2317   */\n      0x40\n        /* \"#utility.yul\":2308:2311   */\n      dup6\n        /* \"#utility.yul\":2304:2318   */\n      add\n        /* \"#utility.yul\":2290:2302   */\n      dup3\n        /* \"#utility.yul\":2256:2319   */\n      tag_198\n      jump\t// in\n    tag_251:\n        /* \"#utility.yul\":2163:2329   */\n      pop\n        /* \"#utility.yul\":1768:2336   */\n      pop\n        /* \"#utility.yul\":1644:2336   */\n      pop\n      pop\n      jump\t// out\n        /* \"#utility.yul\":2342:2680   */\n    tag_32:\n        /* \"#utility.yul\":2493:2497   */\n      0x00\n        /* \"#utility.yul\":2531:2533   */\n      0x60\n        /* \"#utility.yul\":2520:2529   */\n      dup3\n        /* \"#utility.yul\":2516:2534   */\n      add\n        /* \"#utility.yul\":2508:2534   */\n      swap1\n      pop\n        /* \"#utility.yul\":2544:2673   */\n      tag_253\n        /* \"#utility.yul\":2670:2671   */\n      0x00\n        /* \"#utility.yul\":2659:2668   */\n      dup4\n        /* \"#utility.yul\":2655:2672   */\n      add\n        /* \"#utility.yul\":2646:2652   */\n      dup5\n        /* \"#utility.yul\":2544:2673   */\n      tag_199\n      jump\t// in\n    tag_253:\n        /* \"#utility.yul\":2342:2680   */\n      swap3\n      swap2\n      pop\n      pop\n      jump\t// out\n        /* \"#utility.yul\":2686:2808   */\n    tag_200:\n        /* \"#utility.yul\":2759:2783   */\n      tag_255\n        /* \"#utility.yul\":2777:2782   */\n      dup2\n        /* \"#utility.yul\":2759:2783   */\n      tag_195\n      jump\t// in\n    tag_255:\n        /* \"#utility.yul\":2752:2757   */\n      dup2\n        /* \"#utility.yul\":2749:2784   */\n      eq\n        /* \"#utility.yul\":2739:2802   */\n      tag_256\n      jumpi\n        /* \"#utility.yul\":2798:2799   */\n      0x00\n        /* \"#utility.yul\":2795:2796   */\n      dup1\n        /* \"#utility.yul\":2788:2800   */\n      revert\n        /* \"#utility.yul\":2739:2802   */\n    tag_256:\n        /* \"#utility.yul\":2686:2808   */\n      pop\n      jump\t// out\n        /* \"#utility.yul\":2814:2953   */\n    tag_201:\n        /* \"#utility.yul\":2860:2865   */\n      0x00\n        /* \"#utility.yul\":2898:2904   */\n      dup2\n        /* \"#utility.yul\":2885:2905   */\n      calldataload\n        /* \"#utility.yul\":2876:2905   */\n      swap1\n      pop\n        /* \"#utility.yul\":2914:2947   */\n      tag_258\n        /* \"#utility.yul\":2941:2946   */\n      dup2\n        /* \"#utility.yul\":2914:2947   */\n      tag_200\n      jump\t// in\n    tag_258:\n        /* \"#utility.yul\":2814:2953   */\n      swap3\n      swap2\n      pop\n      pop\n      jump\t// out\n        /* \"#utility.yul\":2959:3081   */\n    tag_202:\n        /* \"#utility.yul\":3032:3056   */\n      tag_260\n        /* \"#utility.yul\":3050:3055   */\n      dup2\n        /* \"#utility.yul\":3032:3056   */\n      tag_197\n      jump\t// in\n    tag_260:\n        /* \"#utility.yul\":3025:3030   */\n      dup2\n        /* \"#utility.yul\":3022:3057   */\n      eq\n        /* \"#utility.yul\":3012:3075   */\n      tag_261\n      jumpi\n        /* \"#utility.yul\":3071:3072   */\n      0x00\n        /* \"#utility.yul\":3068:3069   */\n      dup1\n        /* \"#utility.yul\":3061:3073   */\n      revert\n        /* \"#utility.yul\":3012:3075   */\n    tag_261:\n        /* \"#utility.yul\":2959:3081   */\n      pop\n      jump\t// out\n        /* \"#utility.yul\":3087:3226   */\n    tag_203:\n        /* \"#utility.yul\":3133:3138   */\n      0x00\n        /* \"#utility.yul\":3171:3177   */\n      dup2\n        /* \"#utility.yul\":3158:3178   */\n      calldataload\n        /* \"#utility.yul\":3149:3178   */\n      swap1\n      pop\n        /* \"#utility.yul\":3187:3220   */\n      tag_263\n        /* \"#utility.yul\":3214:3219   */\n      dup2\n        /* \"#utility.yul\":3187:3220   */\n      tag_202\n      jump\t// in\n    tag_263:\n        /* \"#utility.yul\":3087:3226   */\n      swap3\n      swap2\n      pop\n      pop\n      jump\t// out\n        /* \"#utility.yul\":3232:3851   */\n    tag_35:\n        /* \"#utility.yul\":3309:3315   */\n      0x00\n        /* \"#utility.yul\":3317:3323   */\n      dup1\n        /* \"#utility.yul\":3325:3331   */\n      0x00\n        /* \"#utility.yul\":3374:3376   */\n      0x60\n        /* \"#utility.yul\":3362:3371   */\n      dup5\n        /* \"#utility.yul\":3353:3360   */\n      dup7\n        /* \"#utility.yul\":3349:3372   */\n      sub\n        /* \"#utility.yul\":3345:3377   */\n      slt\n        /* \"#utility.yul\":3342:3461   */\n      iszero\n      tag_265\n      jumpi\n        /* \"#utility.yul\":3380:3459   */\n      tag_266\n      tag_189\n      jump\t// in\n    tag_266:\n        /* \"#utility.yul\":3342:3461   */\n    tag_265:\n        /* \"#utility.yul\":3500:3501   */\n      0x00\n        /* \"#utility.yul\":3525:3578   */\n      tag_267\n        /* \"#utility.yul\":3570:3577   */\n      dup7\n        /* \"#utility.yul\":3561:3567   */\n      dup3\n        /* \"#utility.yul\":3550:3559   */\n      dup8\n        /* \"#utility.yul\":3546:3568   */\n      add\n        /* \"#utility.yul\":3525:3578   */\n      tag_201\n      jump\t// in\n    tag_267:\n        /* \"#utility.yul\":3515:3578   */\n      swap4\n      pop\n        /* \"#utility.yul\":3471:3588   */\n      pop\n        /* \"#utility.yul\":3627:3629   */\n      0x20\n        /* \"#utility.yul\":3653:3706   */\n      tag_268\n        /* \"#utility.yul\":3698:3705   */\n      dup7\n        /* \"#utility.yul\":3689:3695   */\n      dup3\n        /* \"#utility.yul\":3678:3687   */\n      dup8\n        /* \"#utility.yul\":3674:3696   */\n      add\n        /* \"#utility.yul\":3653:3706   */\n      tag_203\n      jump\t// in\n    tag_268:\n        /* \"#utility.yul\":3643:3706   */\n      swap3\n      pop\n        /* \"#utility.yul\":3598:3716   */\n      pop\n        /* \"#utility.yul\":3755:3757   */\n      0x40\n        /* \"#utility.yul\":3781:3834   */\n      tag_269\n        /* \"#utility.yul\":3826:3833   */\n      dup7\n        /* \"#utility.yul\":3817:3823   */\n      dup3\n        /* \"#utility.yul\":3806:3815   */\n      dup8\n        /* \"#utility.yul\":3802:3824   */\n      add\n        /* \"#utility.yul\":3781:3834   */\n      tag_203\n      jump\t// in\n    tag_269:\n        /* \"#utility.yul\":3771:3834   */\n      swap2\n      pop\n        /* \"#utility.yul\":3726:3844   */\n      pop\n        /* \"#utility.yul\":3232:3851   */\n      swap3\n      pop\n      swap3\n      pop\n      swap3\n      jump\t// out\n        /* \"#utility.yul\":3857:4186   */\n    tag_39:\n        /* \"#utility.yul\":3916:3922   */\n      0x00\n        /* \"#utility.yul\":3965:3967   */\n      0x20\n        /* \"#utility.yul\":3953:3962   */\n      dup3\n        /* \"#utility.yul\":3944:3951   */\n      dup5\n        /* \"#utility.yul\":3940:3963   */\n      sub\n        /* \"#utility.yul\":3936:3968   */\n      slt\n        /* \"#utility.yul\":3933:4052   */\n      iszero\n      tag_271\n      jumpi\n        /* \"#utility.yul\":3971:4050   */\n      tag_272\n      tag_189\n      jump\t// in\n    tag_272:\n        /* \"#utility.yul\":3933:4052   */\n    tag_271:\n        /* \"#utility.yul\":4091:4092   */\n      0x00\n        /* \"#utility.yul\":4116:4169   */\n      tag_273\n        /* \"#utility.yul\":4161:4168   */\n      dup5\n        /* \"#utility.yul\":4152:4158   */\n      dup3\n        /* \"#utility.yul\":4141:4150   */\n      dup6\n        /* \"#utility.yul\":4137:4159   */\n      add\n        /* \"#utility.yul\":4116:4169   */\n      tag_201\n      jump\t// in\n    tag_273:\n        /* \"#utility.yul\":4106:4169   */\n      swap2\n      pop\n        /* \"#utility.yul\":4062:4179   */\n      pop\n        /* \"#utility.yul\":3857:4186   */\n      swap3\n      swap2\n      pop\n      pop\n      jump\t// out\n        /* \"#utility.yul\":4192:4310   */\n    tag_204:\n        /* \"#utility.yul\":4279:4303   */\n      tag_275\n        /* \"#utility.yul\":4297:4302   */\n      dup2\n        /* \"#utility.yul\":4279:4303   */\n      tag_197\n      jump\t// in\n    tag_275:\n        /* \"#utility.yul\":4274:4277   */\n      dup3\n        /* \"#utility.yul\":4267:4304   */\n      mstore\n        /* \"#utility.yul\":4192:4310   */\n      pop\n      pop\n      jump\t// out\n        /* \"#utility.yul\":4316:4538   */\n    tag_42:\n        /* \"#utility.yul\":4409:4413   */\n      0x00\n        /* \"#utility.yul\":4447:4449   */\n      0x20\n        /* \"#utility.yul\":4436:4445   */\n      dup3\n        /* \"#utility.yul\":4432:4450   */\n      add\n        /* \"#utility.yul\":4424:4450   */\n      swap1\n      pop\n        /* \"#utility.yul\":4460:4531   */\n      tag_277\n        /* \"#utility.yul\":4528:4529   */\n      0x00\n        /* \"#utility.yul\":4517:4526   */\n      dup4\n        /* \"#utility.yul\":4513:4530   */\n      add\n        /* \"#utility.yul\":4504:4510   */\n      dup5\n        /* \"#utility.yul\":4460:4531   */\n      tag_204\n      jump\t// in\n    tag_277:\n        /* \"#utility.yul\":4316:4538   */\n      swap3\n      swap2\n      pop\n      pop\n      jump\t// out\n        /* \"#utility.yul\":4544:5018   */\n    tag_45:\n        /* \"#utility.yul\":4612:4618   */\n      0x00\n        /* \"#utility.yul\":4620:4626   */\n      dup1\n        /* \"#utility.yul\":4669:4671   */\n      0x40\n        /* \"#utility.yul\":4657:4666   */\n      dup4\n        /* \"#utility.yul\":4648:4655   */\n      dup6\n        /* \"#utility.yul\":4644:4667   */\n      sub\n        /* \"#utility.yul\":4640:4672   */\n      slt\n        /* \"#utility.yul\":4637:4756   */\n      iszero\n      tag_279\n      jumpi\n        /* \"#utility.yul\":4675:4754   */\n      tag_280\n      tag_189\n      jump\t// in\n    tag_280:\n        /* \"#utility.yul\":4637:4756   */\n    tag_279:\n        /* \"#utility.yul\":4795:4796   */\n      0x00\n        /* \"#utility.yul\":4820:4873   */\n      tag_281\n        /* \"#utility.yul\":4865:4872   */\n      dup6\n        /* \"#utility.yul\":4856:4862   */\n      dup3\n        /* \"#utility.yul\":4845:4854   */\n      dup7\n        /* \"#utility.yul\":4841:4863   */\n      add\n        /* \"#utility.yul\":4820:4873   */\n      tag_201\n      jump\t// in\n    tag_281:\n        /* \"#utility.yul\":4810:4873   */\n      swap3\n      pop\n        /* \"#utility.yul\":4766:4883   */\n      pop\n        /* \"#utility.yul\":4922:4924   */\n      0x20\n        /* \"#utility.yul\":4948:5001   */\n      tag_282\n        /* \"#utility.yul\":4993:5000   */\n      dup6\n        /* \"#utility.yul\":4984:4990   */\n      dup3\n        /* \"#utility.yul\":4973:4982   */\n      dup7\n        /* \"#utility.yul\":4969:4991   */\n      add\n        /* \"#utility.yul\":4948:5001   */\n      tag_203\n      jump\t// in\n    tag_282:\n        /* \"#utility.yul\":4938:5001   */\n      swap2\n      pop\n        /* \"#utility.yul\":4893:5011   */\n      pop\n        /* \"#utility.yul\":4544:5018   */\n      swap3\n      pop\n      swap3\n      swap1\n      pop\n      jump\t// out\n        /* \"#utility.yul\":5024:5084   */\n    tag_205:\n        /* \"#utility.yul\":5052:5055   */\n      0x00\n        /* \"#utility.yul\":5073:5078   */\n      dup2\n        /* \"#utility.yul\":5066:5078   */\n      swap1\n      pop\n        /* \"#utility.yul\":5024:5084   */\n      swap2\n      swap1\n      pop\n      jump\t// out\n        /* \"#utility.yul\":5090:5232   */\n    tag_206:\n        /* \"#utility.yul\":5140:5149   */\n      0x00\n        /* \"#utility.yul\":5173:5226   */\n      tag_285\n        /* \"#utility.yul\":5191:5225   */\n      tag_286\n        /* \"#utility.yul\":5200:5224   */\n      tag_287\n        /* \"#utility.yul\":5218:5223   */\n      dup5\n        /* \"#utility.yul\":5200:5224   */\n      tag_194\n      jump\t// in\n    tag_287:\n        /* \"#utility.yul\":5191:5225   */\n      tag_205\n      jump\t// in\n    tag_286:\n        /* \"#utility.yul\":5173:5226   */\n      tag_194\n      jump\t// in\n    tag_285:\n        /* \"#utility.yul\":5160:5226   */\n      swap1\n      pop\n        /* \"#utility.yul\":5090:5232   */\n      swap2\n      swap1\n      pop\n      jump\t// out\n        /* \"#utility.yul\":5238:5364   */\n    tag_207:\n        /* \"#utility.yul\":5288:5297   */\n      0x00\n        /* \"#utility.yul\":5321:5358   */\n      tag_289\n        /* \"#utility.yul\":5352:5357   */\n      dup3\n        /* \"#utility.yul\":5321:5358   */\n      tag_206\n      jump\t// in\n    tag_289:\n        /* \"#utility.yul\":5308:5358   */\n      swap1\n      pop\n        /* \"#utility.yul\":5238:5364   */\n      swap2\n      swap1\n      pop\n      jump\t// out\n        /* \"#utility.yul\":5370:5513   */\n    tag_208:\n        /* \"#utility.yul\":5437:5446   */\n      0x00\n        /* \"#utility.yul\":5470:5507   */\n      tag_291\n        /* \"#utility.yul\":5501:5506   */\n      dup3\n        /* \"#utility.yul\":5470:5507   */\n      tag_207\n      jump\t// in\n    tag_291:\n        /* \"#utility.yul\":5457:5507   */\n      swap1\n      pop\n        /* \"#utility.yul\":5370:5513   */\n      swap2\n      swap1\n      pop\n      jump\t// out\n        /* \"#utility.yul\":5519:5684   */\n    tag_209:\n        /* \"#utility.yul\":5623:5677   */\n      tag_293\n        /* \"#utility.yul\":5671:5676   */\n      dup2\n        /* \"#utility.yul\":5623:5677   */\n      tag_208\n      jump\t// in\n    tag_293:\n        /* \"#utility.yul\":5618:5621   */\n      dup3\n        /* \"#utility.yul\":5611:5678   */\n      mstore\n        /* \"#utility.yul\":5519:5684   */\n      pop\n      pop\n      jump\t// out\n        /* \"#utility.yul\":5690:5946   */\n    tag_54:\n        /* \"#utility.yul\":5800:5804   */\n      0x00\n        /* \"#utility.yul\":5838:5840   */\n      0x20\n        /* \"#utility.yul\":5827:5836   */\n      dup3\n        /* \"#utility.yul\":5823:5841   */\n      add\n        /* \"#utility.yul\":5815:5841   */\n      swap1\n      pop\n        /* \"#utility.yul\":5851:5939   */\n      tag_295\n        /* \"#utility.yul\":5936:5937   */\n      0x00\n        /* \"#utility.yul\":5925:5934   */\n      dup4\n        /* \"#utility.yul\":5921:5938   */\n      add\n        /* \"#utility.yul\":5912:5918   */\n      dup5\n        /* \"#utility.yul\":5851:5939   */\n      tag_209\n      jump\t// in\n    tag_295:\n        /* \"#utility.yul\":5690:5946   */\n      swap3\n      swap2\n      pop\n      pop\n      jump\t// out\n        /* \"#utility.yul\":5952:6092   */\n    tag_210:\n        /* \"#utility.yul\":6016:6025   */\n      0x00\n        /* \"#utility.yul\":6049:6086   */\n      tag_297\n        /* \"#utility.yul\":6080:6085   */\n      dup3\n        /* \"#utility.yul\":6049:6086   */\n      tag_207\n      jump\t// in\n    tag_297:\n        /* \"#utility.yul\":6036:6086   */\n      swap1\n      pop\n        /* \"#utility.yul\":5952:6092   */\n      swap2\n      swap1\n      pop\n      jump\t// out\n        /* \"#utility.yul\":6098:6257   */\n    tag_211:\n        /* \"#utility.yul\":6199:6250   */\n      tag_299\n        /* \"#utility.yul\":6244:6249   */\n      dup2\n        /* \"#utility.yul\":6199:6250   */\n      tag_210\n      jump\t// in\n    tag_299:\n        /* \"#utility.yul\":6194:6197   */\n      dup3\n        /* \"#utility.yul\":6187:6251   */\n      mstore\n        /* \"#utility.yul\":6098:6257   */\n      pop\n      pop\n      jump\t// out\n        /* \"#utility.yul\":6263:6513   */\n    tag_58:\n        /* \"#utility.yul\":6370:6374   */\n      0x00\n        /* \"#utility.yul\":6408:6410   */\n      0x20\n        /* \"#utility.yul\":6397:6406   */\n      dup3\n        /* \"#utility.yul\":6393:6411   */\n      add\n        /* \"#utility.yul\":6385:6411   */\n      swap1\n      pop\n        /* \"#utility.yul\":6421:6506   */\n      tag_301\n        /* \"#utility.yul\":6503:6504   */\n      0x00\n        /* \"#utility.yul\":6492:6501   */\n      dup4\n        /* \"#utility.yul\":6488:6505   */\n      add\n        /* \"#utility.yul\":6479:6485   */\n      dup5\n        /* \"#utility.yul\":6421:6506   */\n      tag_211\n      jump\t// in\n    tag_301:\n        /* \"#utility.yul\":6263:6513   */\n      swap3\n      swap2\n      pop\n      pop\n      jump\t// out\n        /* \"#utility.yul\":6519:6634   */\n    tag_212:\n        /* \"#utility.yul\":6604:6627   */\n      tag_303\n        /* \"#utility.yul\":6621:6626   */\n      dup2\n        /* \"#utility.yul\":6604:6627   */\n      tag_191\n      jump\t// in\n    tag_303:\n        /* \"#utility.yul\":6599:6602   */\n      dup3\n        /* \"#utility.yul\":6592:6628   */\n      mstore\n        /* \"#utility.yul\":6519:6634   */\n      pop\n      pop\n      jump\t// out\n        /* \"#utility.yul\":6640:6858   */\n    tag_68:\n        /* \"#utility.yul\":6731:6735   */\n      0x00\n        /* \"#utility.yul\":6769:6771   */\n      0x20\n        /* \"#utility.yul\":6758:6767   */\n      dup3\n        /* \"#utility.yul\":6754:6772   */\n      add\n        /* \"#utility.yul\":6746:6772   */\n      swap1\n      pop\n        /* \"#utility.yul\":6782:6851   */\n      tag_305\n        /* \"#utility.yul\":6848:6849   */\n      0x00\n        /* \"#utility.yul\":6837:6846   */\n      dup4\n        /* \"#utility.yul\":6833:6850   */\n      add\n        /* \"#utility.yul\":6824:6830   */\n      dup5\n        /* \"#utility.yul\":6782:6851   */\n      tag_212\n      jump\t// in\n    tag_305:\n        /* \"#utility.yul\":6640:6858   */\n      swap3\n      swap2\n      pop\n      pop\n      jump\t// out\n        /* \"#utility.yul\":6864:6982   */\n    tag_213:\n        /* \"#utility.yul\":6951:6975   */\n      tag_307\n        /* \"#utility.yul\":6969:6974   */\n      dup2\n        /* \"#utility.yul\":6951:6975   */\n      tag_195\n      jump\t// in\n    tag_307:\n        /* \"#utility.yul\":6946:6949   */\n      dup3\n        /* \"#utility.yul\":6939:6976   */\n      mstore\n        /* \"#utility.yul\":6864:6982   */\n      pop\n      pop\n      jump\t// out\n        /* \"#utility.yul\":6988:7430   */\n    tag_108:\n        /* \"#utility.yul\":7137:7141   */\n      0x00\n        /* \"#utility.yul\":7175:7177   */\n      0x60\n        /* \"#utility.yul\":7164:7173   */\n      dup3\n        /* \"#utility.yul\":7160:7178   */\n      add\n        /* \"#utility.yul\":7152:7178   */\n      swap1\n      pop\n        /* \"#utility.yul\":7188:7259   */\n      tag_309\n        /* \"#utility.yul\":7256:7257   */\n      0x00\n        /* \"#utility.yul\":7245:7254   */\n      dup4\n        /* \"#utility.yul\":7241:7258   */\n      add\n        /* \"#utility.yul\":7232:7238   */\n      dup7\n        /* \"#utility.yul\":7188:7259   */\n      tag_213\n      jump\t// in\n    tag_309:\n        /* \"#utility.yul\":7269:7341   */\n      tag_310\n        /* \"#utility.yul\":7337:7339   */\n      0x20\n        /* \"#utility.yul\":7326:7335   */\n      dup4\n        /* \"#utility.yul\":7322:7340   */\n      add\n        /* \"#utility.yul\":7313:7319   */\n      dup6\n        /* \"#utility.yul\":7269:7341   */\n      tag_204\n      jump\t// in\n    tag_310:\n        /* \"#utility.yul\":7351:7423   */\n      tag_311\n        /* \"#utility.yul\":7419:7421   */\n      0x40\n        /* \"#utility.yul\":7408:7417   */\n      dup4\n        /* \"#utility.yul\":7404:7422   */\n      add\n        /* \"#utility.yul\":7395:7401   */\n      dup5\n        /* \"#utility.yul\":7351:7423   */\n      tag_204\n      jump\t// in\n    tag_311:\n        /* \"#utility.yul\":6988:7430   */\n      swap5\n      swap4\n      pop\n      pop\n      pop\n      pop\n      jump\t// out\n        /* \"#utility.yul\":7436:7513   */\n    tag_214:\n        /* \"#utility.yul\":7473:7480   */\n      0x00\n        /* \"#utility.yul\":7502:7507   */\n      dup2\n        /* \"#utility.yul\":7491:7507   */\n      swap1\n      pop\n        /* \"#utility.yul\":7436:7513   */\n      swap2\n      swap1\n      pop\n      jump\t// out\n        /* \"#utility.yul\":7519:7641   */\n    tag_215:\n        /* \"#utility.yul\":7592:7616   */\n      tag_314\n        /* \"#utility.yul\":7610:7615   */\n      dup2\n        /* \"#utility.yul\":7592:7616   */\n      tag_214\n      jump\t// in\n    tag_314:\n        /* \"#utility.yul\":7585:7590   */\n      dup2\n        /* \"#utility.yul\":7582:7617   */\n      eq\n        /* \"#utility.yul\":7572:7635   */\n      tag_315\n      jumpi\n        /* \"#utility.yul\":7631:7632   */\n      0x00\n        /* \"#utility.yul\":7628:7629   */\n      dup1\n        /* \"#utility.yul\":7621:7633   */\n      revert\n        /* \"#utility.yul\":7572:7635   */\n    tag_315:\n        /* \"#utility.yul\":7519:7641   */\n      pop\n      jump\t// out\n        /* \"#utility.yul\":7647:7790   */\n    tag_216:\n        /* \"#utility.yul\":7704:7709   */\n      0x00\n        /* \"#utility.yul\":7735:7741   */\n      dup2\n        /* \"#utility.yul\":7729:7742   */\n      mload\n        /* \"#utility.yul\":7720:7742   */\n      swap1\n      pop\n        /* \"#utility.yul\":7751:7784   */\n      tag_317\n        /* \"#utility.yul\":7778:7783   */\n      dup2\n        /* \"#utility.yul\":7751:7784   */\n      tag_215\n      jump\t// in\n    tag_317:\n        /* \"#utility.yul\":7647:7790   */\n      swap3\n      swap2\n      pop\n      pop\n      jump\t// out\n        /* \"#utility.yul\":7796:8147   */\n    tag_116:\n        /* \"#utility.yul\":7866:7872   */\n      0x00\n        /* \"#utility.yul\":7915:7917   */\n      0x20\n        /* \"#utility.yul\":7903:7912   */\n      dup3\n        /* \"#utility.yul\":7894:7901   */\n      dup5\n        /* \"#utility.yul\":7890:7913   */\n      sub\n        /* \"#utility.yul\":7886:7918   */\n      slt\n        /* \"#utility.yul\":7883:8002   */\n      iszero\n      tag_319\n      jumpi\n        /* \"#utility.yul\":7921:8000   */\n      tag_320\n      tag_189\n      jump\t// in\n    tag_320:\n        /* \"#utility.yul\":7883:8002   */\n    tag_319:\n        /* \"#utility.yul\":8041:8042   */\n      0x00\n        /* \"#utility.yul\":8066:8130   */\n      tag_321\n        /* \"#utility.yul\":8122:8129   */\n      dup5\n        /* \"#utility.yul\":8113:8119   */\n      dup3\n        /* \"#utility.yul\":8102:8111   */\n      dup6\n        /* \"#utility.yul\":8098:8120   */\n      add\n        /* \"#utility.yul\":8066:8130   */\n      tag_216\n      jump\t// in\n    tag_321:\n        /* \"#utility.yul\":8056:8130   */\n      swap2\n      pop\n        /* \"#utility.yul\":8012:8140   */\n      pop\n        /* \"#utility.yul\":7796:8147   */\n      swap3\n      swap2\n      pop\n      pop\n      jump\t// out\n        /* \"#utility.yul\":8153:8271   */\n    tag_217:\n        /* \"#utility.yul\":8240:8264   */\n      tag_323\n        /* \"#utility.yul\":8258:8263   */\n      dup2\n        /* \"#utility.yul\":8240:8264   */\n      tag_214\n      jump\t// in\n    tag_323:\n        /* \"#utility.yul\":8235:8238   */\n      dup3\n        /* \"#utility.yul\":8228:8265   */\n      mstore\n        /* \"#utility.yul\":8153:8271   */\n      pop\n      pop\n      jump\t// out\n        /* \"#utility.yul\":8277:8609   */\n    tag_118:\n        /* \"#utility.yul\":8398:8402   */\n      0x00\n        /* \"#utility.yul\":8436:8438   */\n      0x40\n        /* \"#utility.yul\":8425:8434   */\n      dup3\n        /* \"#utility.yul\":8421:8439   */\n      add\n        /* \"#utility.yul\":8413:8439   */\n      swap1\n      pop\n        /* \"#utility.yul\":8449:8520   */\n      tag_325\n        /* \"#utility.yul\":8517:8518   */\n      0x00\n        /* \"#utility.yul\":8506:8515   */\n      dup4\n        /* \"#utility.yul\":8502:8519   */\n      add\n        /* \"#utility.yul\":8493:8499   */\n      dup6\n        /* \"#utility.yul\":8449:8520   */\n      tag_217\n      jump\t// in\n    tag_325:\n        /* \"#utility.yul\":8530:8602   */\n      tag_326\n        /* \"#utility.yul\":8598:8600   */\n      0x20\n        /* \"#utility.yul\":8587:8596   */\n      dup4\n        /* \"#utility.yul\":8583:8601   */\n      add\n        /* \"#utility.yul\":8574:8580   */\n      dup5\n        /* \"#utility.yul\":8530:8602   */\n      tag_213\n      jump\t// in\n    tag_326:\n        /* \"#utility.yul\":8277:8609   */\n      swap4\n      swap3\n      pop\n      pop\n      pop\n      jump\t// out\n        /* \"#utility.yul\":8615:8795   */\n    tag_218:\n        /* \"#utility.yul\":8663:8740   */\n      0x4e487b7100000000000000000000000000000000000000000000000000000000\n        /* \"#utility.yul\":8660:8661   */\n      0x00\n        /* \"#utility.yul\":8653:8741   */\n      mstore\n        /* \"#utility.yul\":8760:8764   */\n      0x11\n        /* \"#utility.yul\":8757:8758   */\n      0x04\n        /* \"#utility.yul\":8750:8765   */\n      mstore\n        /* \"#utility.yul\":8784:8788   */\n      0x24\n        /* \"#utility.yul\":8781:8782   */\n      0x00\n        /* \"#utility.yul\":8774:8789   */\n      revert\n        /* \"#utility.yul\":8801:8903   */\n    tag_219:\n        /* \"#utility.yul\":8843:8851   */\n      0x00\n        /* \"#utility.yul\":8890:8895   */\n      dup2\n        /* \"#utility.yul\":8887:8888   */\n      0x01\n        /* \"#utility.yul\":8883:8896   */\n      shr\n        /* \"#utility.yul\":8862:8896   */\n      swap1\n      pop\n        /* \"#utility.yul\":8801:8903   */\n      swap2\n      swap1\n      pop\n      jump\t// out\n        /* \"#utility.yul\":8909:9757   */\n    tag_220:\n        /* \"#utility.yul\":8970:8975   */\n      0x00\n        /* \"#utility.yul\":8977:8981   */\n      dup1\n        /* \"#utility.yul\":9001:9007   */\n      dup3\n        /* \"#utility.yul\":8992:9007   */\n      swap2\n      pop\n        /* \"#utility.yul\":9025:9030   */\n      dup4\n        /* \"#utility.yul\":9016:9030   */\n      swap1\n      pop\n        /* \"#utility.yul\":9039:9751   */\n    tag_330:\n        /* \"#utility.yul\":9060:9061   */\n      0x01\n        /* \"#utility.yul\":9050:9058   */\n      dup6\n        /* \"#utility.yul\":9047:9062   */\n      gt\n        /* \"#utility.yul\":9039:9751   */\n      iszero\n      tag_332\n      jumpi\n        /* \"#utility.yul\":9155:9159   */\n      dup1\n        /* \"#utility.yul\":9150:9153   */\n      dup7\n        /* \"#utility.yul\":9146:9160   */\n      div\n        /* \"#utility.yul\":9140:9144   */\n      dup2\n        /* \"#utility.yul\":9137:9161   */\n      gt\n        /* \"#utility.yul\":9134:9184   */\n      iszero\n      tag_333\n      jumpi\n        /* \"#utility.yul\":9164:9182   */\n      tag_334\n      tag_218\n      jump\t// in\n    tag_334:\n        /* \"#utility.yul\":9134:9184   */\n    tag_333:\n        /* \"#utility.yul\":9214:9215   */\n      0x01\n        /* \"#utility.yul\":9204:9212   */\n      dup6\n        /* \"#utility.yul\":9200:9216   */\n      and\n        /* \"#utility.yul\":9197:9648   */\n      iszero\n      tag_335\n      jumpi\n        /* \"#utility.yul\":9629:9633   */\n      dup1\n        /* \"#utility.yul\":9622:9627   */\n      dup3\n        /* \"#utility.yul\":9618:9634   */\n      mul\n        /* \"#utility.yul\":9609:9634   */\n      swap2\n      pop\n        /* \"#utility.yul\":9197:9648   */\n    tag_335:\n        /* \"#utility.yul\":9679:9683   */\n      dup1\n        /* \"#utility.yul\":9673:9677   */\n      dup2\n        /* \"#utility.yul\":9669:9684   */\n      mul\n        /* \"#utility.yul\":9661:9684   */\n      swap1\n      pop\n        /* \"#utility.yul\":9709:9741   */\n      tag_336\n        /* \"#utility.yul\":9732:9740   */\n      dup6\n        /* \"#utility.yul\":9709:9741   */\n      tag_219\n      jump\t// in\n    tag_336:\n        /* \"#utility.yul\":9697:9741   */\n      swap5\n      pop\n        /* \"#utility.yul\":9039:9751   */\n      jump(tag_330)\n    tag_332:\n        /* \"#utility.yul\":8909:9757   */\n      swap5\n      pop\n      swap5\n      swap3\n      pop\n      pop\n      pop\n      jump\t// out\n        /* \"#utility.yul\":9763:10836   */\n    tag_221:\n        /* \"#utility.yul\":9817:9822   */\n      0x00\n        /* \"#utility.yul\":10008:10016   */\n      dup3\n        /* \"#utility.yul\":9998:10038   */\n      tag_338\n      jumpi\n        /* \"#utility.yul\":10029:10030   */\n      0x01\n        /* \"#utility.yul\":10020:10030   */\n      swap1\n      pop\n        /* \"#utility.yul\":10031:10036   */\n      jump(tag_337)\n        /* \"#utility.yul\":9998:10038   */\n    tag_338:\n        /* \"#utility.yul\":10057:10061   */\n      dup2\n        /* \"#utility.yul\":10047:10083   */\n      tag_339\n      jumpi\n        /* \"#utility.yul\":10074:10075   */\n      0x00\n        /* \"#utility.yul\":10065:10075   */\n      swap1\n      pop\n        /* \"#utility.yul\":10076:10081   */\n      jump(tag_337)\n        /* \"#utility.yul\":10047:10083   */\n    tag_339:\n        /* \"#utility.yul\":10143:10147   */\n      dup2\n        /* \"#utility.yul\":10191:10192   */\n      0x01\n        /* \"#utility.yul\":10186:10213   */\n      dup2\n      eq\n      tag_341\n      jumpi\n        /* \"#utility.yul\":10227:10228   */\n      0x02\n        /* \"#utility.yul\":10222:10413   */\n      dup2\n      eq\n      tag_342\n      jumpi\n        /* \"#utility.yul\":10136:10413   */\n      jump(tag_340)\n        /* \"#utility.yul\":10186:10213   */\n    tag_341:\n        /* \"#utility.yul\":10204:10205   */\n      0x01\n        /* \"#utility.yul\":10195:10205   */\n      swap2\n      pop\n        /* \"#utility.yul\":10206:10211   */\n      pop\n      jump(tag_337)\n        /* \"#utility.yul\":10222:10413   */\n    tag_342:\n        /* \"#utility.yul\":10267:10270   */\n      0xff\n        /* \"#utility.yul\":10257:10265   */\n      dup5\n        /* \"#utility.yul\":10254:10271   */\n      gt\n        /* \"#utility.yul\":10251:10294   */\n      iszero\n      tag_343\n      jumpi\n        /* \"#utility.yul\":10274:10292   */\n      tag_344\n      tag_218\n      jump\t// in\n    tag_344:\n        /* \"#utility.yul\":10251:10294   */\n    tag_343:\n        /* \"#utility.yul\":10323:10331   */\n      dup4\n        /* \"#utility.yul\":10320:10321   */\n      0x02\n        /* \"#utility.yul\":10316:10332   */\n      exp\n        /* \"#utility.yul\":10307:10332   */\n      swap2\n      pop\n        /* \"#utility.yul\":10358:10361   */\n      dup5\n        /* \"#utility.yul\":10351:10356   */\n      dup3\n        /* \"#utility.yul\":10348:10362   */\n      gt\n        /* \"#utility.yul\":10345:10385   */\n      iszero\n      tag_345\n      jumpi\n        /* \"#utility.yul\":10365:10383   */\n      tag_346\n      tag_218\n      jump\t// in\n    tag_346:\n        /* \"#utility.yul\":10345:10385   */\n    tag_345:\n        /* \"#utility.yul\":10398:10403   */\n      pop\n      jump(tag_337)\n        /* \"#utility.yul\":10136:10413   */\n    tag_340:\n      pop\n        /* \"#utility.yul\":10522:10524   */\n      0x20\n        /* \"#utility.yul\":10512:10520   */\n      dup4\n        /* \"#utility.yul\":10509:10525   */\n      lt\n        /* \"#utility.yul\":10503:10506   */\n      0x0133\n        /* \"#utility.yul\":10497:10501   */\n      dup4\n        /* \"#utility.yul\":10494:10507   */\n      lt\n        /* \"#utility.yul\":10490:10526   */\n      and\n        /* \"#utility.yul\":10472:10474   */\n      0x4e\n        /* \"#utility.yul\":10462:10470   */\n      dup5\n        /* \"#utility.yul\":10459:10475   */\n      lt\n        /* \"#utility.yul\":10454:10456   */\n      0x0b\n        /* \"#utility.yul\":10448:10452   */\n      dup5\n        /* \"#utility.yul\":10445:10457   */\n      lt\n        /* \"#utility.yul\":10441:10476   */\n      and\n        /* \"#utility.yul\":10425:10536   */\n      or\n        /* \"#utility.yul\":10422:10668   */\n      iszero\n      tag_347\n      jumpi\n        /* \"#utility.yul\":10578:10586   */\n      dup3\n        /* \"#utility.yul\":10572:10576   */\n      dup3\n        /* \"#utility.yul\":10568:10587   */\n      exp\n        /* \"#utility.yul\":10559:10587   */\n      swap1\n      pop\n        /* \"#utility.yul\":10613:10616   */\n      dup4\n        /* \"#utility.yul\":10606:10611   */\n      dup2\n        /* \"#utility.yul\":10603:10617   */\n      gt\n        /* \"#utility.yul\":10600:10640   */\n      iszero\n      tag_348\n      jumpi\n        /* \"#utility.yul\":10620:10638   */\n      tag_349\n      tag_218\n      jump\t// in\n    tag_349:\n        /* \"#utility.yul\":10600:10640   */\n    tag_348:\n        /* \"#utility.yul\":10653:10658   */\n      jump(tag_337)\n        /* \"#utility.yul\":10422:10668   */\n    tag_347:\n        /* \"#utility.yul\":10693:10735   */\n      tag_350\n        /* \"#utility.yul\":10731:10734   */\n      dup5\n        /* \"#utility.yul\":10721:10729   */\n      dup5\n        /* \"#utility.yul\":10715:10719   */\n      dup5\n        /* \"#utility.yul\":10712:10713   */\n      0x01\n        /* \"#utility.yul\":10693:10735   */\n      tag_220\n      jump\t// in\n    tag_350:\n        /* \"#utility.yul\":10678:10735   */\n      swap3\n      pop\n      swap1\n      pop\n        /* \"#utility.yul\":10767:10771   */\n      dup2\n        /* \"#utility.yul\":10762:10765   */\n      dup5\n        /* \"#utility.yul\":10758:10772   */\n      div\n        /* \"#utility.yul\":10751:10756   */\n      dup2\n        /* \"#utility.yul\":10748:10773   */\n      gt\n        /* \"#utility.yul\":10745:10796   */\n      iszero\n      tag_351\n      jumpi\n        /* \"#utility.yul\":10776:10794   */\n      tag_352\n      tag_218\n      jump\t// in\n    tag_352:\n        /* \"#utility.yul\":10745:10796   */\n    tag_351:\n        /* \"#utility.yul\":10825:10829   */\n      dup2\n        /* \"#utility.yul\":10818:10823   */\n      dup2\n        /* \"#utility.yul\":10814:10830   */\n      mul\n        /* \"#utility.yul\":10805:10830   */\n      swap1\n      pop\n        /* \"#utility.yul\":9763:10836   */\n    tag_337:\n      swap4\n      swap3\n      pop\n      pop\n      pop\n      jump\t// out\n        /* \"#utility.yul\":10842:11125   */\n    tag_126:\n        /* \"#utility.yul\":10901:10906   */\n      0x00\n        /* \"#utility.yul\":10925:10948   */\n      tag_354\n        /* \"#utility.yul\":10943:10947   */\n      dup3\n        /* \"#utility.yul\":10925:10948   */\n      tag_197\n      jump\t// in\n    tag_354:\n        /* \"#utility.yul\":10917:10948   */\n      swap2\n      pop\n        /* \"#utility.yul\":10969:10995   */\n      tag_355\n        /* \"#utility.yul\":10986:10994   */\n      dup4\n        /* \"#utility.yul\":10969:10995   */\n      tag_191\n      jump\t// in\n    tag_355:\n        /* \"#utility.yul\":10957:10995   */\n      swap3\n      pop\n        /* \"#utility.yul\":11014:11118   */\n      tag_356\n        /* \"#utility.yul\":11051:11117   */\n      0xffffffffffffffffffffffffffffffffffffffffffffffffffffffffffffffff\n        /* \"#utility.yul\":11041:11049   */\n      dup5\n        /* \"#utility.yul\":11035:11039   */\n      dup5\n        /* \"#utility.yul\":11014:11118   */\n      tag_221\n      jump\t// in\n    tag_356:\n        /* \"#utility.yul\":11005:11118   */\n      swap1\n      pop\n        /* \"#utility.yul\":10842:11125   */\n      swap3\n      swap2\n      pop\n      pop\n      jump\t// out\n        /* \"#utility.yul\":11131:11325   */\n    tag_128:\n        /* \"#utility.yul\":11171:11175   */\n      0x00\n        /* \"#utility.yul\":11191:11211   */\n      tag_358\n        /* \"#utility.yul\":11209:11210   */\n      dup3\n        /* \"#utility.yul\":11191:11211   */\n      tag_197\n      jump\t// in\n    tag_358:\n        /* \"#utility.yul\":11186:11211   */\n      swap2\n      pop\n        /* \"#utility.yul\":11225:11245   */\n      tag_359\n        /* \"#utility.yul\":11243:11244   */\n      dup4\n        /* \"#utility.yul\":11225:11245   */\n      tag_197\n      jump\t// in\n    tag_359:\n        /* \"#utility.yul\":11220:11245   */\n      swap3\n      pop\n        /* \"#utility.yul\":11269:11270   */\n      dup3\n        /* \"#utility.yul\":11266:11267   */\n      dup3\n        /* \"#utility.yul\":11262:11271   */\n      sub\n        /* \"#utility.yul\":11254:11271   */\n      swap1\n      pop\n        /* \"#utility.yul\":11293:11294   */\n      dup2\n        /* \"#utility.yul\":11287:11291   */\n      dup2\n        /* \"#utility.yul\":11284:11295   */\n      gt\n        /* \"#utility.yul\":11281:11318   */\n      iszero\n      tag_360\n      jumpi\n        /* \"#utility.yul\":11298:11316   */\n      tag_361\n      tag_218\n      jump\t// in\n    tag_361:\n        /* \"#utility.yul\":11281:11318   */\n    tag_360:\n        /* \"#utility.yul\":11131:11325   */\n      swap3\n      swap2\n      pop\n      pop\n      jump\t// out\n        /* \"#utility.yul\":11331:11741   */\n    tag_130:\n        /* \"#utility.yul\":11371:11378   */\n      0x00\n        /* \"#utility.yul\":11394:11414   */\n      tag_363\n        /* \"#utility.yul\":11412:11413   */\n      dup3\n        /* \"#utility.yul\":11394:11414   */\n      tag_197\n      jump\t// in\n    tag_363:\n        /* \"#utility.yul\":11389:11414   */\n      swap2\n      pop\n        /* \"#utility.yul\":11428:11448   */\n      tag_364\n        /* \"#utility.yul\":11446:11447   */\n      dup4\n        /* \"#utility.yul\":11428:11448   */\n      tag_197\n      jump\t// in\n    tag_364:\n        /* \"#utility.yul\":11423:11448   */\n      swap3\n      pop\n        /* \"#utility.yul\":11483:11484   */\n      dup3\n        /* \"#utility.yul\":11480:11481   */\n      dup3\n        /* \"#utility.yul\":11476:11485   */\n      mul\n        /* \"#utility.yul\":11505:11535   */\n      tag_365\n        /* \"#utility.yul\":11523:11534   */\n      dup2\n        /* \"#utility.yul\":11505:11535   */\n      tag_197\n      jump\t// in\n    tag_365:\n        /* \"#utility.yul\":11494:11535   */\n      swap2\n      pop\n        /* \"#utility.yul\":11684:11685   */\n      dup3\n        /* \"#utility.yul\":11675:11682   */\n      dup3\n        /* \"#utility.yul\":11671:11686   */\n      div\n        /* \"#utility.yul\":11668:11669   */\n      dup5\n        /* \"#utility.yul\":11665:11687   */\n      eq\n        /* \"#utility.yul\":11645:11646   */\n      dup4\n        /* \"#utility.yul\":11638:11647   */\n      iszero\n        /* \"#utility.yul\":11618:11701   */\n      or\n        /* \"#utility.yul\":11595:11734   */\n      tag_366\n      jumpi\n        /* \"#utility.yul\":11714:11732   */\n      tag_367\n      tag_218\n      jump\t// in\n    tag_367:\n        /* \"#utility.yul\":11595:11734   */\n    tag_366:\n        /* \"#utility.yul\":11379:11741   */\n      pop\n        /* \"#utility.yul\":11331:11741   */\n      swap3\n      swap2\n      pop\n      pop\n      jump\t// out\n        /* \"#utility.yul\":11747:11927   */\n    tag_222:\n        /* \"#utility.yul\":11795:11872   */\n      0x4e487b7100000000000000000000000000000000000000000000000000000000\n        /* \"#utility.yul\":11792:11793   */\n      0x00\n        /* \"#utility.yul\":11785:11873   */\n      mstore\n        /* \"#utility.yul\":11892:11896   */\n      0x12\n        /* \"#utility.yul\":11889:11890   */\n      0x04\n        /* \"#utility.yul\":11882:11897   */\n      mstore\n        /* \"#utility.yul\":11916:11920   */\n      0x24\n        /* \"#utility.yul\":11913:11914   */\n      0x00\n        /* \"#utility.yul\":11906:11921   */\n      revert\n        /* \"#utility.yul\":11933:12118   */\n    tag_132:\n        /* \"#utility.yul\":11973:11974   */\n      0x00\n        /* \"#utility.yul\":11990:12010   */\n      tag_370\n        /* \"#utility.yul\":12008:12009   */\n      dup3\n        /* \"#utility.yul\":11990:12010   */\n      tag_197\n      jump\t// in\n    tag_370:\n        /* \"#utility.yul\":11985:12010   */\n      swap2\n      pop\n        /* \"#utility.yul\":12024:12044   */\n      tag_371\n        /* \"#utility.yul\":12042:12043   */\n      dup4\n        /* \"#utility.yul\":12024:12044   */\n      tag_197\n      jump\t// in\n    tag_371:\n        /* \"#utility.yul\":12019:12044   */\n      swap3\n      pop\n        /* \"#utility.yul\":12063:12064   */\n      dup3\n        /* \"#utility.yul\":12053:12088   */\n      tag_372\n      jumpi\n        /* \"#utility.yul\":12068:12086   */\n      tag_373\n      tag_222\n      jump\t// in\n    tag_373:\n        /* \"#utility.yul\":12053:12088   */\n    tag_372:\n        /* \"#utility.yul\":12110:12111   */\n      dup3\n        /* \"#utility.yul\":12107:12108   */\n      dup3\n        /* \"#utility.yul\":12103:12112   */\n      div\n        /* \"#utility.yul\":12098:12112   */\n      swap1\n      pop\n        /* \"#utility.yul\":11933:12118   */\n      swap3\n      swap2\n      pop\n      pop\n      jump\t// out\n        /* \"#utility.yul\":12124:12315   */\n    tag_134:\n        /* \"#utility.yul\":12164:12167   */\n      0x00\n        /* \"#utility.yul\":12183:12203   */\n      tag_375\n        /* \"#utility.yul\":12201:12202   */\n      dup3\n        /* \"#utility.yul\":12183:12203   */\n      tag_197\n      jump\t// in\n    tag_375:\n        /* \"#utility.yul\":12178:12203   */\n      swap2\n      pop\n        /* \"#utility.yul\":12217:12237   */\n      tag_376\n        /* \"#utility.yul\":12235:12236   */\n      dup4\n        /* \"#utility.yul\":12217:12237   */\n      tag_197\n      jump\t// in\n    tag_376:\n        /* \"#utility.yul\":12212:12237   */\n      swap3\n      pop\n        /* \"#utility.yul\":12260:12261   */\n      dup3\n        /* \"#utility.yul\":12257:12258   */\n      dup3\n        /* \"#utility.yul\":12253:12262   */\n      add\n        /* \"#utility.yul\":12246:12262   */\n      swap1\n      pop\n        /* \"#utility.yul\":12281:12284   */\n      dup1\n        /* \"#utility.yul\":12278:12279   */\n      dup3\n        /* \"#utility.yul\":12275:12285   */\n      gt\n        /* \"#utility.yul\":12272:12308   */\n      iszero\n      tag_377\n      jumpi\n        /* \"#utility.yul\":12288:12306   */\n      tag_378\n      tag_218\n      jump\t// in\n    tag_378:\n        /* \"#utility.yul\":12272:12308   */\n    tag_377:\n        /* \"#utility.yul\":12124:12315   */\n      swap3\n      swap2\n      pop\n      pop\n      jump\t// out\n        /* \"#utility.yul\":12321:12496   */\n    tag_143:\n        /* \"#utility.yul\":12359:12362   */\n      0x00\n        /* \"#utility.yul\":12382:12405   */\n      tag_380\n        /* \"#utility.yul\":12399:12404   */\n      dup3\n        /* \"#utility.yul\":12382:12405   */\n      tag_191\n      jump\t// in\n    tag_380:\n        /* \"#utility.yul\":12373:12405   */\n      swap2\n      pop\n        /* \"#utility.yul\":12427:12437   */\n      0xffffffff\n        /* \"#utility.yul\":12420:12425   */\n      dup3\n        /* \"#utility.yul\":12417:12438   */\n      sub\n        /* \"#utility.yul\":12414:12461   */\n      tag_381\n      jumpi\n        /* \"#utility.yul\":12441:12459   */\n      tag_382\n      tag_218\n      jump\t// in\n    tag_382:\n        /* \"#utility.yul\":12414:12461   */\n    tag_381:\n        /* \"#utility.yul\":12488:12489   */\n      0x01\n        /* \"#utility.yul\":12481:12486   */\n      dup3\n        /* \"#utility.yul\":12477:12490   */\n      add\n        /* \"#utility.yul\":12470:12490   */\n      swap1\n      pop\n        /* \"#utility.yul\":12321:12496   */\n      swap2\n      swap1\n      pop\n      jump\t// out\n        /* \"#utility.yul\":12502:12834   */\n    tag_145:\n        /* \"#utility.yul\":12623:12627   */\n      0x00\n        /* \"#utility.yul\":12661:12663   */\n      0x40\n        /* \"#utility.yul\":12650:12659   */\n      dup3\n        /* \"#utility.yul\":12646:12664   */\n      add\n        /* \"#utility.yul\":12638:12664   */\n      swap1\n      pop\n        /* \"#utility.yul\":12674:12745   */\n      tag_384\n        /* \"#utility.yul\":12742:12743   */\n      0x00\n        /* \"#utility.yul\":12731:12740   */\n      dup4\n        /* \"#utility.yul\":12727:12744   */\n      add\n        /* \"#utility.yul\":12718:12724   */\n      dup6\n        /* \"#utility.yul\":12674:12745   */\n      tag_204\n      jump\t// in\n    tag_384:\n        /* \"#utility.yul\":12755:12827   */\n      tag_385\n        /* \"#utility.yul\":12823:12825   */\n      0x20\n        /* \"#utility.yul\":12812:12821   */\n      dup4\n        /* \"#utility.yul\":12808:12826   */\n      add\n        /* \"#utility.yul\":12799:12805   */\n      dup5\n        /* \"#utility.yul\":12755:12827   */\n      tag_204\n      jump\t// in\n    tag_385:\n        /* \"#utility.yul\":12502:12834   */\n      swap4\n      swap3\n      pop\n      pop\n      pop\n      jump\t// out\n        /* \"#utility.yul\":12840:13172   */\n    tag_166:\n        /* \"#utility.yul\":12961:12965   */\n      0x00\n        /* \"#utility.yul\":12999:13001   */\n      0x40\n        /* \"#utility.yul\":12988:12997   */\n      dup3\n        /* \"#utility.yul\":12984:13002   */\n      add\n        /* \"#utility.yul\":12976:13002   */\n      swap1\n      pop\n        /* \"#utility.yul\":13012:13083   */\n      tag_387\n        /* \"#utility.yul\":13080:13081   */\n      0x00\n        /* \"#utility.yul\":13069:13078   */\n      dup4\n        /* \"#utility.yul\":13065:13082   */\n      add\n        /* \"#utility.yul\":13056:13062   */\n      dup6\n        /* \"#utility.yul\":13012:13083   */\n      tag_213\n      jump\t// in\n    tag_387:\n        /* \"#utility.yul\":13093:13165   */\n      tag_388\n        /* \"#utility.yul\":13161:13163   */\n      0x20\n        /* \"#utility.yul\":13150:13159   */\n      dup4\n        /* \"#utility.yul\":13146:13164   */\n      add\n        /* \"#utility.yul\":13137:13143   */\n      dup5\n        /* \"#utility.yul\":13093:13165   */\n      tag_204\n      jump\t// in\n    tag_388:\n        /* \"#utility.yul\":12840:13172   */\n      swap4\n      swap3\n      pop\n      pop\n      pop\n      jump\t// out\n        /* \"#utility.yul\":13178:13268   */\n    tag_223:\n        /* \"#utility.yul\":13212:13219   */\n      0x00\n        /* \"#utility.yul\":13255:13260   */\n      dup2\n        /* \"#utility.yul\":13248:13261   */\n      iszero\n        /* \"#utility.yul\":13241:13262   */\n      iszero\n        /* \"#utility.yul\":13230:13262   */\n      swap1\n      pop\n        /* \"#utility.yul\":13178:13268   */\n      swap2\n      swap1\n      pop\n      jump\t// out\n        /* \"#utility.yul\":13274:13390   */\n    tag_224:\n        /* \"#utility.yul\":13344:13365   */\n      tag_391\n        /* \"#utility.yul\":13359:13364   */\n      dup2\n        /* \"#utility.yul\":13344:13365   */\n      tag_223\n      jump\t// in\n    tag_391:\n        /* \"#utility.yul\":13337:13342   */\n      dup2\n        /* \"#utility.yul\":13334:13366   */\n      eq\n        /* \"#utility.yul\":13324:13384   */\n      tag_392\n      jumpi\n        /* \"#utility.yul\":13380:13381   */\n      0x00\n        /* \"#utility.yul\":13377:13378   */\n      dup1\n        /* \"#utility.yul\":13370:13382   */\n      revert\n        /* \"#utility.yul\":13324:13384   */\n    tag_392:\n        /* \"#utility.yul\":13274:13390   */\n      pop\n      jump\t// out\n        /* \"#utility.yul\":13396:13533   */\n    tag_225:\n        /* \"#utility.yul\":13450:13455   */\n      0x00\n        /* \"#utility.yul\":13481:13487   */\n      dup2\n        /* \"#utility.yul\":13475:13488   */\n      mload\n        /* \"#utility.yul\":13466:13488   */\n      swap1\n      pop\n        /* \"#utility.yul\":13497:13527   */\n      tag_394\n        /* \"#utility.yul\":13521:13526   */\n      dup2\n        /* \"#utility.yul\":13497:13527   */\n      tag_224\n      jump\t// in\n    tag_394:\n        /* \"#utility.yul\":13396:13533   */\n      swap3\n      swap2\n      pop\n      pop\n      jump\t// out\n        /* \"#utility.yul\":13539:13884   */\n    tag_170:\n        /* \"#utility.yul\":13606:13612   */\n      0x00\n        /* \"#utility.yul\":13655:13657   */\n      0x20\n        /* \"#utility.yul\":13643:13652   */\n      dup3\n        /* \"#utility.yul\":13634:13641   */\n      dup5\n        /* \"#utility.yul\":13630:13653   */\n      sub\n        /* \"#utility.yul\":13626:13658   */\n      slt\n        /* \"#utility.yul\":13623:13742   */\n      iszero\n      tag_396\n      jumpi\n        /* \"#utility.yul\":13661:13740   */\n      tag_397\n      tag_189\n      jump\t// in\n    tag_397:\n        /* \"#utility.yul\":13623:13742   */\n    tag_396:\n        /* \"#utility.yul\":13781:13782   */\n      0x00\n        /* \"#utility.yul\":13806:13867   */\n      tag_398\n        /* \"#utility.yul\":13859:13866   */\n      dup5\n        /* \"#utility.yul\":13850:13856   */\n      dup3\n        /* \"#utility.yul\":13839:13848   */\n      dup6\n        /* \"#utility.yul\":13835:13857   */\n      add\n        /* \"#utility.yul\":13806:13867   */\n      tag_225\n      jump\t// in\n    tag_398:\n        /* \"#utility.yul\":13796:13867   */\n      swap2\n      pop\n        /* \"#utility.yul\":13752:13877   */\n      pop\n        /* \"#utility.yul\":13539:13884   */\n      swap3\n      swap2\n      pop\n      pop\n      jump\t// out\n        /* \"#utility.yul\":13890:14090   */\n    tag_176:\n        /* \"#utility.yul\":13929:13933   */\n      0x00\n        /* \"#utility.yul\":13949:13968   */\n      tag_400\n        /* \"#utility.yul\":13966:13967   */\n      dup3\n        /* \"#utility.yul\":13949:13968   */\n      tag_191\n      jump\t// in\n    tag_400:\n        /* \"#utility.yul\":13944:13968   */\n      swap2\n      pop\n        /* \"#utility.yul\":13982:14001   */\n      tag_401\n        /* \"#utility.yul\":13999:14000   */\n      dup4\n        /* \"#utility.yul\":13982:14001   */\n      tag_191\n      jump\t// in\n    tag_401:\n        /* \"#utility.yul\":13977:14001   */\n      swap3\n      pop\n        /* \"#utility.yul\":14025:14026   */\n      dup3\n        /* \"#utility.yul\":14022:14023   */\n      dup3\n        /* \"#utility.yul\":14018:14027   */\n      sub\n        /* \"#utility.yul\":14010:14027   */\n      swap1\n      pop\n        /* \"#utility.yul\":14049:14059   */\n      0xffffffff\n        /* \"#utility.yul\":14043:14047   */\n      dup2\n        /* \"#utility.yul\":14040:14060   */\n      gt\n        /* \"#utility.yul\":14037:14083   */\n      iszero\n      tag_402\n      jumpi\n        /* \"#utility.yul\":14063:14081   */\n      tag_403\n      tag_218\n      jump\t// in\n    tag_403:\n        /* \"#utility.yul\":14037:14083   */\n    tag_402:\n        /* \"#utility.yul\":13890:14090   */\n      swap3\n      swap2\n      pop\n      pop\n      jump\t// out\n\n    auxdata: 0xa26469706673582212207fb1966a061af7742c301f3b24919015738ddaf405c3bf0d2714cca34143f55164736f6c63430008170033\n}\n",
				"bytecode": {
					"linkReferences": {},
					"object": "608060405234801562000010575f80fd5b5060405162001bf338038062001bf3833981810160405281019062000036919062000233565b825f806101000a81548173ffffffffffffffffffffffffffffffffffffffff021916908373ffffffffffffffffffffffffffffffffffffffff1602179055505f8054906101000a900473ffffffffffffffffffffffffffffffffffffffff1673ffffffffffffffffffffffffffffffffffffffff1663313ce5676040518163ffffffff1660e01b8152600401602060405180830381865afa158015620000de573d5f803e3d5ffd5b505050506040513d601f19601f82011682018060405250810190620001049190620002c7565b60ff16600b5f6101000a81548163ffffffff021916908363ffffffff1602179055505f60075f6101000a81548163ffffffff021916908363ffffffff16021790555080600c819055508160015f6101000a81548173ffffffffffffffffffffffffffffffffffffffff021916908373ffffffffffffffffffffffffffffffffffffffff160217905550505050620002f7565b5f80fd5b5f73ffffffffffffffffffffffffffffffffffffffff82169050919050565b5f620001c5826200019a565b9050919050565b620001d781620001b9565b8114620001e2575f80fd5b50565b5f81519050620001f581620001cc565b92915050565b5f819050919050565b6200020f81620001fb565b81146200021a575f80fd5b50565b5f815190506200022d8162000204565b92915050565b5f805f606084860312156200024d576200024c62000196565b5b5f6200025c86828701620001e5565b93505060206200026f86828701620001e5565b925050604062000282868287016200021d565b9150509250925092565b5f60ff82169050919050565b620002a3816200028c565b8114620002ae575f80fd5b50565b5f81519050620002c18162000298565b92915050565b5f60208284031215620002df57620002de62000196565b5b5f620002ee84828501620002b1565b91505092915050565b6118ee80620003055f395ff3fe608060405234801561000f575f80fd5b5060043610610135575f3560e01c806376809ce3116100b6578063c884ef831161007a578063c884ef8314610351578063cdf033f314610381578063d4c3eea01461039f578063eb46260e146103bd578063eeda71d5146103ed578063f54f0a8d1461041d57610135565b806376809ce3146102975780637a19a488146102b55780638233fbcb146102d3578063a035b1fe14610303578063b9f0bf661461032157610135565b80631aa3a008116100fd5780631aa3a008146102035780633013ce2914610221578063480a42621461023f5780634e71d92d1461026f5780636d1c60411461027957610135565b806307040e91146101395780630efe6a8b146101695780631161e5821461018557806313da0777146101b55780631a39d8ef146101e5575b5f80fd5b610153600480360381019061014e9190611141565b61044f565b6040516101609190611203565b60405180910390f35b610183600480360381019061017e9190611270565b6104ee565b005b61019f600480360381019061019a91906112c0565b610a4a565b6040516101ac91906112fa565b60405180910390f35b6101cf60048036038101906101ca9190611313565b610a5f565b6040516101dc91906112fa565b60405180910390f35b6101ed610bbf565b6040516101fa91906112fa565b60405180910390f35b61020b610bc5565b60405161021891906113ac565b60405180910390f35b610229610bea565b60405161023691906113e5565b60405180910390f35b610259600480360381019061025491906112c0565b610c0d565b60405161026691906112fa565b60405180910390f35b610277610c1e565b005b610281610dd3565b60405161028e919061140d565b60405180910390f35b61029f610e1e565b6040516102ac919061140d565b60405180910390f35b6102bd610e33565b6040516102ca91906112fa565b60405180910390f35b6102ed60048036038101906102e891906112c0565b610e39565b6040516102fa91906112fa565b60405180910390f35b61030b610e92565b60405161031891906112fa565b60405180910390f35b61033b600480360381019061033691906112c0565b610e98565b60405161034891906112fa565b60405180910390f35b61036b600480360381019061036691906112c0565b610ead565b60405161037891906112fa565b60405180910390f35b610389610ec2565b604051610396919061140d565b60405180910390f35b6103a7610ed7565b6040516103b491906112fa565b60405180910390f35b6103d760048036038101906103d291906112c0565b610edd565b6040516103e491906112fa565b60405180910390f35b610407600480360381019061040291906112c0565b610f23565b60405161041491906112fa565b60405180910390f35b61043760048036038101906104329190611141565b610f38565b60405161044693929190611435565b60405180910390f35b6104576110d0565b60065f8363ffffffff1663ffffffff1681526020019081526020015f206040518060600160405290815f82015f9054906101000a900473ffffffffffffffffffffffffffffffffffffffff1673ffffffffffffffffffffffffffffffffffffffff1673ffffffffffffffffffffffffffffffffffffffff168152602001600182015481526020016002820154815250509050919050565b60015f9054906101000a900473ffffffffffffffffffffffffffffffffffffffff1673ffffffffffffffffffffffffffffffffffffffff166312d9a6ad60015f9054906101000a900473ffffffffffffffffffffffffffffffffffffffff1673ffffffffffffffffffffffffffffffffffffffff1663f46f16c26040518163ffffffff1660e01b8152600401602060405180830381865afa158015610595573d5f803e3d5ffd5b505050506040513d601f19601f820116820180604052508101906105b9919061149d565b336040518363ffffffff1660e01b81526004016105d79291906114d7565b5f6040518083038186803b1580156105ed575f80fd5b505afa1580156105ff573d5f803e3d5ffd5b505050505f73ffffffffffffffffffffffffffffffffffffffff168373ffffffffffffffffffffffffffffffffffffffff1603610668576040517fe6c4247b00000000000000000000000000000000000000000000000000000000815260040160405180910390fd5b5f82036106a1576040517faa7feadc00000000000000000000000000000000000000000000000000000000815260040160405180910390fd5b5f81036106da576040517f2c5211c600000000000000000000000000000000000000000000000000000000815260040160405180910390fd5b600b5f9054906101000a900463ffffffff16600a6106f8919061165a565b60035f8573ffffffffffffffffffffffffffffffffffffffff1673ffffffffffffffffffffffffffffffffffffffff1681526020019081526020015f2054600a5461074391906116a4565b60025f8673ffffffffffffffffffffffffffffffffffffffff1673ffffffffffffffffffffffffffffffffffffffff1681526020019081526020015f205461078b91906116d7565b6107959190611745565b60045f8573ffffffffffffffffffffffffffffffffffffffff1673ffffffffffffffffffffffffffffffffffffffff1681526020019081526020015f205f8282546107e09190611775565b925050819055508160095f8282546107f89190611775565b92505081905550600a5460035f8573ffffffffffffffffffffffffffffffffffffffff1673ffffffffffffffffffffffffffffffffffffffff1681526020019081526020015f20819055508060025f8573ffffffffffffffffffffffffffffffffffffffff1673ffffffffffffffffffffffffffffffffffffffff1681526020019081526020015f205f82825461088f9190611775565b925050819055508060085f8282546108a79190611775565b92505081905550600854600b5f9054906101000a900463ffffffff16600a6108cf919061165a565b836108da91906116d7565b6108e49190611745565b600a5f8282546108f49190611775565b9250508190555060405180606001604052808473ffffffffffffffffffffffffffffffffffffffff1681526020018381526020018281525060065f60075f9054906101000a900463ffffffff1663ffffffff1663ffffffff1681526020019081526020015f205f820151815f015f6101000a81548173ffffffffffffffffffffffffffffffffffffffff021916908373ffffffffffffffffffffffffffffffffffffffff160217905550602082015181600101556040820151816002015590505060075f81819054906101000a900463ffffffff16809291906109d6906117a8565b91906101000a81548163ffffffff021916908363ffffffff160217905550508273ffffffffffffffffffffffffffffffffffffffff167f0f0d29b5d4cebe99e2c93ffec39876a8b37c77ba767270f4f489daede43aea4e8383604051610a3d9291906117d3565b60405180910390a2505050565b6004602052805f5260405f205f915090505481565b5f8073ffffffffffffffffffffffffffffffffffffffff168373ffffffffffffffffffffffffffffffffffffffff1603610ac5576040517fe6c4247b00000000000000000000000000000000000000000000000000000000815260040160405180910390fd5b5f8260025f8673ffffffffffffffffffffffffffffffffffffffff1673ffffffffffffffffffffffffffffffffffffffff1681526020019081526020015f2054610b0f9190611775565b90505f83600854610b209190611775565b03610b2e575f915050610bb9565b5f83600854610b3d9190611775565b600b5f9054906101000a900463ffffffff16600a610b5b919061165a565b83610b6691906116d7565b610b709190611745565b9050600b5f9054906101000a900463ffffffff16600a610b90919061165a565b600a600c54610b9f9190611745565b82610baa91906116d7565b610bb49190611745565b925050505b92915050565b60085481565b60015f9054906101000a900473ffffffffffffffffffffffffffffffffffffffff1681565b5f8054906101000a900473ffffffffffffffffffffffffffffffffffffffff1681565b5f610c1782610f7d565b9050919050565b5f3390505f73ffffffffffffffffffffffffffffffffffffffff168173ffffffffffffffffffffffffffffffffffffffff1603610c87576040517fe6c4247b00000000000000000000000000000000000000000000000000000000815260040160405180910390fd5b5f610c9182610f7d565b90505f8054906101000a900473ffffffffffffffffffffffffffffffffffffffff1673ffffffffffffffffffffffffffffffffffffffff1663a9059cbb83836040518363ffffffff1660e01b8152600401610ced9291906117fa565b6020604051808303815f875af1158015610d09573d5f803e3d5ffd5b505050506040513d601f19601f82011682018060405250810190610d2d9190611856565b508060055f8473ffffffffffffffffffffffffffffffffffffffff1673ffffffffffffffffffffffffffffffffffffffff1681526020019081526020015f205f828254610d7a9190611775565b925050819055508173ffffffffffffffffffffffffffffffffffffffff167f3488c34059d2e654b3b166b5ec4ee17bbd37297b906d39c704104a7dc2459b3182604051610dc791906112fa565b60405180910390a25050565b5f8060075f9054906101000a900463ffffffff1663ffffffff1603610dfa575f9050610e1b565b600160075f9054906101000a900463ffffffff16610e189190611881565b90505b90565b600b5f9054906101000a900463ffffffff1681565b600a5481565b5f610e4382610f7d565b60055f8473ffffffffffffffffffffffffffffffffffffffff1673ffffffffffffffffffffffffffffffffffffffff1681526020019081526020015f2054610e8b9190611775565b9050919050565b600c5481565b6002602052805f5260405f205f915090505481565b6005602052805f5260405f205f915090505481565b60075f9054906101000a900463ffffffff1681565b60095481565b5f60055f8373ffffffffffffffffffffffffffffffffffffffff1673ffffffffffffffffffffffffffffffffffffffff1681526020019081526020015f20549050919050565b6003602052805f5260405f205f915090505481565b6006602052805f5260405f205f91509050805f015f9054906101000a900473ffffffffffffffffffffffffffffffffffffffff16908060010154908060020154905083565b5f60055f8373ffffffffffffffffffffffffffffffffffffffff1673ffffffffffffffffffffffffffffffffffffffff1681526020019081526020015f2054600b5f9054906101000a900463ffffffff16600a610fda919061165a565b60035f8573ffffffffffffffffffffffffffffffffffffffff1673ffffffffffffffffffffffffffffffffffffffff1681526020019081526020015f2054600a5461102591906116a4565b60025f8673ffffffffffffffffffffffffffffffffffffffff1673ffffffffffffffffffffffffffffffffffffffff1681526020019081526020015f205461106d91906116d7565b6110779190611745565b60045f8573ffffffffffffffffffffffffffffffffffffffff1673ffffffffffffffffffffffffffffffffffffffff1681526020019081526020015f20546110bf9190611775565b6110c991906116a4565b9050919050565b60405180606001604052805f73ffffffffffffffffffffffffffffffffffffffff1681526020015f81526020015f81525090565b5f80fd5b5f63ffffffff82169050919050565b61112081611108565b811461112a575f80fd5b50565b5f8135905061113b81611117565b92915050565b5f6020828403121561115657611155611104565b5b5f6111638482850161112d565b91505092915050565b5f73ffffffffffffffffffffffffffffffffffffffff82169050919050565b5f6111958261116c565b9050919050565b6111a58161118b565b82525050565b5f819050919050565b6111bd816111ab565b82525050565b606082015f8201516111d75f85018261119c565b5060208201516111ea60208501826111b4565b5060408201516111fd60408501826111b4565b50505050565b5f6060820190506112165f8301846111c3565b92915050565b6112258161118b565b811461122f575f80fd5b50565b5f813590506112408161121c565b92915050565b61124f816111ab565b8114611259575f80fd5b50565b5f8135905061126a81611246565b92915050565b5f805f6060848603121561128757611286611104565b5b5f61129486828701611232565b93505060206112a58682870161125c565b92505060406112b68682870161125c565b9150509250925092565b5f602082840312156112d5576112d4611104565b5b5f6112e284828501611232565b91505092915050565b6112f4816111ab565b82525050565b5f60208201905061130d5f8301846112eb565b92915050565b5f806040838503121561132957611328611104565b5b5f61133685828601611232565b92505060206113478582860161125c565b9150509250929050565b5f819050919050565b5f61137461136f61136a8461116c565b611351565b61116c565b9050919050565b5f6113858261135a565b9050919050565b5f6113968261137b565b9050919050565b6113a68161138c565b82525050565b5f6020820190506113bf5f83018461139d565b92915050565b5f6113cf8261137b565b9050919050565b6113df816113c5565b82525050565b5f6020820190506113f85f8301846113d6565b92915050565b61140781611108565b82525050565b5f6020820190506114205f8301846113fe565b92915050565b61142f8161118b565b82525050565b5f6060820190506114485f830186611426565b61145560208301856112eb565b61146260408301846112eb565b949350505050565b5f819050919050565b61147c8161146a565b8114611486575f80fd5b50565b5f8151905061149781611473565b92915050565b5f602082840312156114b2576114b1611104565b5b5f6114bf84828501611489565b91505092915050565b6114d18161146a565b82525050565b5f6040820190506114ea5f8301856114c8565b6114f76020830184611426565b9392505050565b7f4e487b71000000000000000000000000000000000000000000000000000000005f52601160045260245ffd5b5f8160011c9050919050565b5f808291508390505b60018511156115805780860481111561155c5761155b6114fe565b5b600185161561156b5780820291505b80810290506115798561152b565b9450611540565b94509492505050565b5f826115985760019050611653565b816115a5575f9050611653565b81600181146115bb57600281146115c5576115f4565b6001915050611653565b60ff8411156115d7576115d66114fe565b5b8360020a9150848211156115ee576115ed6114fe565b5b50611653565b5060208310610133831016604e8410600b84101617156116295782820a905083811115611624576116236114fe565b5b611653565b6116368484846001611537565b9250905081840481111561164d5761164c6114fe565b5b81810290505b9392505050565b5f611664826111ab565b915061166f83611108565b925061169c7fffffffffffffffffffffffffffffffffffffffffffffffffffffffffffffffff8484611589565b905092915050565b5f6116ae826111ab565b91506116b9836111ab565b92508282039050818111156116d1576116d06114fe565b5b92915050565b5f6116e1826111ab565b91506116ec836111ab565b92508282026116fa816111ab565b91508282048414831517611711576117106114fe565b5b5092915050565b7f4e487b71000000000000000000000000000000000000000000000000000000005f52601260045260245ffd5b5f61174f826111ab565b915061175a836111ab565b92508261176a57611769611718565b5b828204905092915050565b5f61177f826111ab565b915061178a836111ab565b92508282019050808211156117a2576117a16114fe565b5b92915050565b5f6117b282611108565b915063ffffffff82036117c8576117c76114fe565b5b600182019050919050565b5f6040820190506117e65f8301856112eb565b6117f360208301846112eb565b9392505050565b5f60408201905061180d5f830185611426565b61181a60208301846112eb565b9392505050565b5f8115159050919050565b61183581611821565b811461183f575f80fd5b50565b5f815190506118508161182c565b92915050565b5f6020828403121561186b5761186a611104565b5b5f61187884828501611842565b91505092915050565b5f61188b82611108565b915061189683611108565b9250828203905063ffffffff8111156118b2576118b16114fe565b5b9291505056fea26469706673582212207fb1966a061af7742c301f3b24919015738ddaf405c3bf0d2714cca34143f55164736f6c63430008170033",
					"opcodes": "PUSH1 0x80 PUSH1 0x40 MSTORE CALLVALUE DUP1 ISZERO PUSH3 0x10 JUMPI PUSH0 DUP1 REVERT JUMPDEST POP PUSH1 0x40 MLOAD PUSH3 0x1BF3 CODESIZE SUB DUP1 PUSH3 0x1BF3 DUP4 CODECOPY DUP2 DUP2 ADD PUSH1 0x40 MSTORE DUP2 ADD SWAP1 PUSH3 0x36 SWAP2 SWAP1 PUSH3 0x233 JUMP JUMPDEST DUP3 PUSH0 DUP1 PUSH2 0x100 EXP DUP2 SLOAD DUP2 PUSH20 0xFFFFFFFFFFFFFFFFFFFFFFFFFFFFFFFFFFFFFFFF MUL NOT AND SWAP1 DUP4 PUSH20 0xFFFFFFFFFFFFFFFFFFFFFFFFFFFFFFFFFFFFFFFF AND MUL OR SWAP1 SSTORE POP PUSH0 DUP1 SLOAD SWAP1 PUSH2 0x100 EXP SWAP1 DIV PUSH20 0xFFFFFFFFFFFFFFFFFFFFFFFFFFFFFFFFFFFFFFFF AND PUSH20 0xFFFFFFFFFFFFFFFFFFFFFFFFFFFFFFFFFFFFFFFF AND PUSH4 0x313CE567 PUSH1 0x40 MLOAD DUP2 PUSH4 0xFFFFFFFF AND PUSH1 0xE0 SHL DUP2 MSTORE PUSH1 0x4 ADD PUSH1 0x20 PUSH1 0x40 MLOAD DUP1 DUP4 SUB DUP2 DUP7 GAS STATICCALL ISZERO DUP1 ISZERO PUSH3 0xDE JUMPI RETURNDATASIZE PUSH0 DUP1 RETURNDATACOPY RETURNDATASIZE PUSH0 REVERT JUMPDEST POP POP POP POP PUSH1 0x40 MLOAD RETURNDATASIZE PUSH1 0x1F NOT PUSH1 0x1F DUP3 ADD AND DUP3 ADD DUP1 PUSH1 0x40 MSTORE POP DUP2 ADD SWAP1 PUSH3 0x104 SWAP2 SWAP1 PUSH3 0x2C7 JUMP JUMPDEST PUSH1 0xFF AND PUSH1 0xB PUSH0 PUSH2 0x100 EXP DUP2 SLOAD DUP2 PUSH4 0xFFFFFFFF MUL NOT AND SWAP1 DUP4 PUSH4 0xFFFFFFFF AND MUL OR SWAP1 SSTORE POP PUSH0 PUSH1 0x7 PUSH0 PUSH2 0x100 EXP DUP2 SLOAD DUP2 PUSH4 0xFFFFFFFF MUL NOT AND SWAP1 DUP4 PUSH4 0xFFFFFFFF AND MUL OR SWAP1 SSTORE POP DUP1 PUSH1 0xC DUP2 SWAP1 SSTORE POP DUP2 PUSH1 0x1 PUSH0 PUSH2 0x100 EXP DUP2 SLOAD DUP2 PUSH20 0xFFFFFFFFFFFFFFFFFFFFFFFFFFFFFFFFFFFFFFFF MUL NOT AND SWAP1 DUP4 PUSH20 0xFFFFFFFFFFFFFFFFFFFFFFFFFFFFFFFFFFFFFFFF AND MUL OR SWAP1 SSTORE POP POP POP POP PUSH3 0x2F7 JUMP JUMPDEST PUSH0 DUP1 REVERT JUMPDEST PUSH0 PUSH20 0xFFFFFFFFFFFFFFFFFFFFFFFFFFFFFFFFFFFFFFFF DUP3 AND SWAP1 POP SWAP2 SWAP1 POP JUMP JUMPDEST PUSH0 PUSH3 0x1C5 DUP3 PUSH3 0x19A JUMP JUMPDEST SWAP1 POP SWAP2 SWAP1 POP JUMP JUMPDEST PUSH3 0x1D7 DUP2 PUSH3 0x1B9 JUMP JUMPDEST DUP2 EQ PUSH3 0x1E2 JUMPI PUSH0 DUP1 REVERT JUMPDEST POP JUMP JUMPDEST PUSH0 DUP2 MLOAD SWAP1 POP PUSH3 0x1F5 DUP2 PUSH3 0x1CC JUMP JUMPDEST SWAP3 SWAP2 POP POP JUMP JUMPDEST PUSH0 DUP2 SWAP1 POP SWAP2 SWAP1 POP JUMP JUMPDEST PUSH3 0x20F DUP2 PUSH3 0x1FB JUMP JUMPDEST DUP2 EQ PUSH3 0x21A JUMPI PUSH0 DUP1 REVERT JUMPDEST POP JUMP JUMPDEST PUSH0 DUP2 MLOAD SWAP1 POP PUSH3 0x22D DUP2 PUSH3 0x204 JUMP JUMPDEST SWAP3 SWAP2 POP POP JUMP JUMPDEST PUSH0 DUP1 PUSH0 PUSH1 0x60 DUP5 DUP7 SUB SLT ISZERO PUSH3 0x24D JUMPI PUSH3 0x24C PUSH3 0x196 JUMP JUMPDEST JUMPDEST PUSH0 PUSH3 0x25C DUP7 DUP3 DUP8 ADD PUSH3 0x1E5 JUMP JUMPDEST SWAP4 POP POP PUSH1 0x20 PUSH3 0x26F DUP7 DUP3 DUP8 ADD PUSH3 0x1E5 JUMP JUMPDEST SWAP3 POP POP PUSH1 0x40 PUSH3 0x282 DUP7 DUP3 DUP8 ADD PUSH3 0x21D JUMP JUMPDEST SWAP2 POP POP SWAP3 POP SWAP3 POP SWAP3 JUMP JUMPDEST PUSH0 PUSH1 0xFF DUP3 AND SWAP1 POP SWAP2 SWAP1 POP JUMP JUMPDEST PUSH3 0x2A3 DUP2 PUSH3 0x28C JUMP JUMPDEST DUP2 EQ PUSH3 0x2AE JUMPI PUSH0 DUP1 REVERT JUMPDEST POP JUMP JUMPDEST PUSH0 DUP2 MLOAD SWAP1 POP PUSH3 0x2C1 DUP2 PUSH3 0x298 JUMP JUMPDEST SWAP3 SWAP2 POP POP JUMP JUMPDEST PUSH0 PUSH1 0x20 DUP3 DUP5 SUB SLT ISZERO PUSH3 0x2DF JUMPI PUSH3 0x2DE PUSH3 0x196 JUMP JUMPDEST JUMPDEST PUSH0 PUSH3 0x2EE DUP5 DUP3 DUP6 ADD PUSH3 0x2B1 JUMP JUMPDEST SWAP2 POP POP SWAP3 SWAP2 POP POP JUMP JUMPDEST PUSH2 0x18EE DUP1 PUSH3 0x305 PUSH0 CODECOPY PUSH0 RETURN INVALID PUSH1 0x80 PUSH1 0x40 MSTORE CALLVALUE DUP1 ISZERO PUSH2 0xF JUMPI PUSH0 DUP1 REVERT JUMPDEST POP PUSH1 0x4 CALLDATASIZE LT PUSH2 0x135 JUMPI PUSH0 CALLDATALOAD PUSH1 0xE0 SHR DUP1 PUSH4 0x76809CE3 GT PUSH2 0xB6 JUMPI DUP1 PUSH4 0xC884EF83 GT PUSH2 0x7A JUMPI DUP1 PUSH4 0xC884EF83 EQ PUSH2 0x351 JUMPI DUP1 PUSH4 0xCDF033F3 EQ PUSH2 0x381 JUMPI DUP1 PUSH4 0xD4C3EEA0 EQ PUSH2 0x39F JUMPI DUP1 PUSH4 0xEB46260E EQ PUSH2 0x3BD JUMPI DUP1 PUSH4 0xEEDA71D5 EQ PUSH2 0x3ED JUMPI DUP1 PUSH4 0xF54F0A8D EQ PUSH2 0x41D JUMPI PUSH2 0x135 JUMP JUMPDEST DUP1 PUSH4 0x76809CE3 EQ PUSH2 0x297 JUMPI DUP1 PUSH4 0x7A19A488 EQ PUSH2 0x2B5 JUMPI DUP1 PUSH4 0x8233FBCB EQ PUSH2 0x2D3 JUMPI DUP1 PUSH4 0xA035B1FE EQ PUSH2 0x303 JUMPI DUP1 PUSH4 0xB9F0BF66 EQ PUSH2 0x321 JUMPI PUSH2 0x135 JUMP JUMPDEST DUP1 PUSH4 0x1AA3A008 GT PUSH2 0xFD JUMPI DUP1 PUSH4 0x1AA3A008 EQ PUSH2 0x203 JUMPI DUP1 PUSH4 0x3013CE29 EQ PUSH2 0x221 JUMPI DUP1 PUSH4 0x480A4262 EQ PUSH2 0x23F JUMPI DUP1 PUSH4 0x4E71D92D EQ PUSH2 0x26F JUMPI DUP1 PUSH4 0x6D1C6041 EQ PUSH2 0x279 JUMPI PUSH2 0x135 JUMP JUMPDEST DUP1 PUSH4 0x7040E91 EQ PUSH2 0x139 JUMPI DUP1 PUSH4 0xEFE6A8B EQ PUSH2 0x169 JUMPI DUP1 PUSH4 0x1161E582 EQ PUSH2 0x185 JUMPI DUP1 PUSH4 0x13DA0777 EQ PUSH2 0x1B5 JUMPI DUP1 PUSH4 0x1A39D8EF EQ PUSH2 0x1E5 JUMPI JUMPDEST PUSH0 DUP1 REVERT JUMPDEST PUSH2 0x153 PUSH1 0x4 DUP1 CALLDATASIZE SUB DUP2 ADD SWAP1 PUSH2 0x14E SWAP2 SWAP1 PUSH2 0x1141 JUMP JUMPDEST PUSH2 0x44F JUMP JUMPDEST PUSH1 0x40 MLOAD PUSH2 0x160 SWAP2 SWAP1 PUSH2 0x1203 JUMP JUMPDEST PUSH1 0x40 MLOAD DUP1 SWAP2 SUB SWAP1 RETURN JUMPDEST PUSH2 0x183 PUSH1 0x4 DUP1 CALLDATASIZE SUB DUP2 ADD SWAP1 PUSH2 0x17E SWAP2 SWAP1 PUSH2 0x1270 JUMP JUMPDEST PUSH2 0x4EE JUMP JUMPDEST STOP JUMPDEST PUSH2 0x19F PUSH1 0x4 DUP1 CALLDATASIZE SUB DUP2 ADD SWAP1 PUSH2 0x19A SWAP2 SWAP1 PUSH2 0x12C0 JUMP JUMPDEST PUSH2 0xA4A JUMP JUMPDEST PUSH1 0x40 MLOAD PUSH2 0x1AC SWAP2 SWAP1 PUSH2 0x12FA JUMP JUMPDEST PUSH1 0x40 MLOAD DUP1 SWAP2 SUB SWAP1 RETURN JUMPDEST PUSH2 0x1CF PUSH1 0x4 DUP1 CALLDATASIZE SUB DUP2 ADD SWAP1 PUSH2 0x1CA SWAP2 SWAP1 PUSH2 0x1313 JUMP JUMPDEST PUSH2 0xA5F JUMP JUMPDEST PUSH1 0x40 MLOAD PUSH2 0x1DC SWAP2 SWAP1 PUSH2 0x12FA JUMP JUMPDEST PUSH1 0x40 MLOAD DUP1 SWAP2 SUB SWAP1 RETURN JUMPDEST PUSH2 0x1ED PUSH2 0xBBF JUMP JUMPDEST PUSH1 0x40 MLOAD PUSH2 0x1FA SWAP2 SWAP1 PUSH2 0x12FA JUMP JUMPDEST PUSH1 0x40 MLOAD DUP1 SWAP2 SUB SWAP1 RETURN JUMPDEST PUSH2 0x20B PUSH2 0xBC5 JUMP JUMPDEST PUSH1 0x40 MLOAD PUSH2 0x218 SWAP2 SWAP1 PUSH2 0x13AC JUMP JUMPDEST PUSH1 0x40 MLOAD DUP1 SWAP2 SUB SWAP1 RETURN JUMPDEST PUSH2 0x229 PUSH2 0xBEA JUMP JUMPDEST PUSH1 0x40 MLOAD PUSH2 0x236 SWAP2 SWAP1 PUSH2 0x13E5 JUMP JUMPDEST PUSH1 0x40 MLOAD DUP1 SWAP2 SUB SWAP1 RETURN JUMPDEST PUSH2 0x259 PUSH1 0x4 DUP1 CALLDATASIZE SUB DUP2 ADD SWAP1 PUSH2 0x254 SWAP2 SWAP1 PUSH2 0x12C0 JUMP JUMPDEST PUSH2 0xC0D JUMP JUMPDEST PUSH1 0x40 MLOAD PUSH2 0x266 SWAP2 SWAP1 PUSH2 0x12FA JUMP JUMPDEST PUSH1 0x40 MLOAD DUP1 SWAP2 SUB SWAP1 RETURN JUMPDEST PUSH2 0x277 PUSH2 0xC1E JUMP JUMPDEST STOP JUMPDEST PUSH2 0x281 PUSH2 0xDD3 JUMP JUMPDEST PUSH1 0x40 MLOAD PUSH2 0x28E SWAP2 SWAP1 PUSH2 0x140D JUMP JUMPDEST PUSH1 0x40 MLOAD DUP1 SWAP2 SUB SWAP1 RETURN JUMPDEST PUSH2 0x29F PUSH2 0xE1E JUMP JUMPDEST PUSH1 0x40 MLOAD PUSH2 0x2AC SWAP2 SWAP1 PUSH2 0x140D JUMP JUMPDEST PUSH1 0x40 MLOAD DUP1 SWAP2 SUB SWAP1 RETURN JUMPDEST PUSH2 0x2BD PUSH2 0xE33 JUMP JUMPDEST PUSH1 0x40 MLOAD PUSH2 0x2CA SWAP2 SWAP1 PUSH2 0x12FA JUMP JUMPDEST PUSH1 0x40 MLOAD DUP1 SWAP2 SUB SWAP1 RETURN JUMPDEST PUSH2 0x2ED PUSH1 0x4 DUP1 CALLDATASIZE SUB DUP2 ADD SWAP1 PUSH2 0x2E8 SWAP2 SWAP1 PUSH2 0x12C0 JUMP JUMPDEST PUSH2 0xE39 JUMP JUMPDEST PUSH1 0x40 MLOAD PUSH2 0x2FA SWAP2 SWAP1 PUSH2 0x12FA JUMP JUMPDEST PUSH1 0x40 MLOAD DUP1 SWAP2 SUB SWAP1 RETURN JUMPDEST PUSH2 0x30B PUSH2 0xE92 JUMP JUMPDEST PUSH1 0x40 MLOAD PUSH2 0x318 SWAP2 SWAP1 PUSH2 0x12FA JUMP JUMPDEST PUSH1 0x40 MLOAD DUP1 SWAP2 SUB SWAP1 RETURN JUMPDEST PUSH2 0x33B PUSH1 0x4 DUP1 CALLDATASIZE SUB DUP2 ADD SWAP1 PUSH2 0x336 SWAP2 SWAP1 PUSH2 0x12C0 JUMP JUMPDEST PUSH2 0xE98 JUMP JUMPDEST PUSH1 0x40 MLOAD PUSH2 0x348 SWAP2 SWAP1 PUSH2 0x12FA JUMP JUMPDEST PUSH1 0x40 MLOAD DUP1 SWAP2 SUB SWAP1 RETURN JUMPDEST PUSH2 0x36B PUSH1 0x4 DUP1 CALLDATASIZE SUB DUP2 ADD SWAP1 PUSH2 0x366 SWAP2 SWAP1 PUSH2 0x12C0 JUMP JUMPDEST PUSH2 0xEAD JUMP JUMPDEST PUSH1 0x40 MLOAD PUSH2 0x378 SWAP2 SWAP1 PUSH2 0x12FA JUMP JUMPDEST PUSH1 0x40 MLOAD DUP1 SWAP2 SUB SWAP1 RETURN JUMPDEST PUSH2 0x389 PUSH2 0xEC2 JUMP JUMPDEST PUSH1 0x40 MLOAD PUSH2 0x396 SWAP2 SWAP1 PUSH2 0x140D JUMP JUMPDEST PUSH1 0x40 MLOAD DUP1 SWAP2 SUB SWAP1 RETURN JUMPDEST PUSH2 0x3A7 PUSH2 0xED7 JUMP JUMPDEST PUSH1 0x40 MLOAD PUSH2 0x3B4 SWAP2 SWAP1 PUSH2 0x12FA JUMP JUMPDEST PUSH1 0x40 MLOAD DUP1 SWAP2 SUB SWAP1 RETURN JUMPDEST PUSH2 0x3D7 PUSH1 0x4 DUP1 CALLDATASIZE SUB DUP2 ADD SWAP1 PUSH2 0x3D2 SWAP2 SWAP1 PUSH2 0x12C0 JUMP JUMPDEST PUSH2 0xEDD JUMP JUMPDEST PUSH1 0x40 MLOAD PUSH2 0x3E4 SWAP2 SWAP1 PUSH2 0x12FA JUMP JUMPDEST PUSH1 0x40 MLOAD DUP1 SWAP2 SUB SWAP1 RETURN JUMPDEST PUSH2 0x407 PUSH1 0x4 DUP1 CALLDATASIZE SUB DUP2 ADD SWAP1 PUSH2 0x402 SWAP2 SWAP1 PUSH2 0x12C0 JUMP JUMPDEST PUSH2 0xF23 JUMP JUMPDEST PUSH1 0x40 MLOAD PUSH2 0x414 SWAP2 SWAP1 PUSH2 0x12FA JUMP JUMPDEST PUSH1 0x40 MLOAD DUP1 SWAP2 SUB SWAP1 RETURN JUMPDEST PUSH2 0x437 PUSH1 0x4 DUP1 CALLDATASIZE SUB DUP2 ADD SWAP1 PUSH2 0x432 SWAP2 SWAP1 PUSH2 0x1141 JUMP JUMPDEST PUSH2 0xF38 JUMP JUMPDEST PUSH1 0x40 MLOAD PUSH2 0x446 SWAP4 SWAP3 SWAP2 SWAP1 PUSH2 0x1435 JUMP JUMPDEST PUSH1 0x40 MLOAD DUP1 SWAP2 SUB SWAP1 RETURN JUMPDEST PUSH2 0x457 PUSH2 0x10D0 JUMP JUMPDEST PUSH1 0x6 PUSH0 DUP4 PUSH4 0xFFFFFFFF AND PUSH4 0xFFFFFFFF AND DUP2 MSTORE PUSH1 0x20 ADD SWAP1 DUP2 MSTORE PUSH1 0x20 ADD PUSH0 KECCAK256 PUSH1 0x40 MLOAD DUP1 PUSH1 0x60 ADD PUSH1 0x40 MSTORE SWAP1 DUP2 PUSH0 DUP3 ADD PUSH0 SWAP1 SLOAD SWAP1 PUSH2 0x100 EXP SWAP1 DIV PUSH20 0xFFFFFFFFFFFFFFFFFFFFFFFFFFFFFFFFFFFFFFFF AND PUSH20 0xFFFFFFFFFFFFFFFFFFFFFFFFFFFFFFFFFFFFFFFF AND PUSH20 0xFFFFFFFFFFFFFFFFFFFFFFFFFFFFFFFFFFFFFFFF AND DUP2 MSTORE PUSH1 0x20 ADD PUSH1 0x1 DUP3 ADD SLOAD DUP2 MSTORE PUSH1 0x20 ADD PUSH1 0x2 DUP3 ADD SLOAD DUP2 MSTORE POP POP SWAP1 POP SWAP2 SWAP1 POP JUMP JUMPDEST PUSH1 0x1 PUSH0 SWAP1 SLOAD SWAP1 PUSH2 0x100 EXP SWAP1 DIV PUSH20 0xFFFFFFFFFFFFFFFFFFFFFFFFFFFFFFFFFFFFFFFF AND PUSH20 0xFFFFFFFFFFFFFFFFFFFFFFFFFFFFFFFFFFFFFFFF AND PUSH4 0x12D9A6AD PUSH1 0x1 PUSH0 SWAP1 SLOAD SWAP1 PUSH2 0x100 EXP SWAP1 DIV PUSH20 0xFFFFFFFFFFFFFFFFFFFFFFFFFFFFFFFFFFFFFFFF AND PUSH20 0xFFFFFFFFFFFFFFFFFFFFFFFFFFFFFFFFFFFFFFFF AND PUSH4 0xF46F16C2 PUSH1 0x40 MLOAD DUP2 PUSH4 0xFFFFFFFF AND PUSH1 0xE0 SHL DUP2 MSTORE PUSH1 0x4 ADD PUSH1 0x20 PUSH1 0x40 MLOAD DUP1 DUP4 SUB DUP2 DUP7 GAS STATICCALL ISZERO DUP1 ISZERO PUSH2 0x595 JUMPI RETURNDATASIZE PUSH0 DUP1 RETURNDATACOPY RETURNDATASIZE PUSH0 REVERT JUMPDEST POP POP POP POP PUSH1 0x40 MLOAD RETURNDATASIZE PUSH1 0x1F NOT PUSH1 0x1F DUP3 ADD AND DUP3 ADD DUP1 PUSH1 0x40 MSTORE POP DUP2 ADD SWAP1 PUSH2 0x5B9 SWAP2 SWAP1 PUSH2 0x149D JUMP JUMPDEST CALLER PUSH1 0x40 MLOAD DUP4 PUSH4 0xFFFFFFFF AND PUSH1 0xE0 SHL DUP2 MSTORE PUSH1 0x4 ADD PUSH2 0x5D7 SWAP3 SWAP2 SWAP1 PUSH2 0x14D7 JUMP JUMPDEST PUSH0 PUSH1 0x40 MLOAD DUP1 DUP4 SUB DUP2 DUP7 DUP1 EXTCODESIZE ISZERO DUP1 ISZERO PUSH2 0x5ED JUMPI PUSH0 DUP1 REVERT JUMPDEST POP GAS STATICCALL ISZERO DUP1 ISZERO PUSH2 0x5FF JUMPI RETURNDATASIZE PUSH0 DUP1 RETURNDATACOPY RETURNDATASIZE PUSH0 REVERT JUMPDEST POP POP POP POP PUSH0 PUSH20 0xFFFFFFFFFFFFFFFFFFFFFFFFFFFFFFFFFFFFFFFF AND DUP4 PUSH20 0xFFFFFFFFFFFFFFFFFFFFFFFFFFFFFFFFFFFFFFFF AND SUB PUSH2 0x668 JUMPI PUSH1 0x40 MLOAD PUSH32 0xE6C4247B00000000000000000000000000000000000000000000000000000000 DUP2 MSTORE PUSH1 0x4 ADD PUSH1 0x40 MLOAD DUP1 SWAP2 SUB SWAP1 REVERT JUMPDEST PUSH0 DUP3 SUB PUSH2 0x6A1 JUMPI PUSH1 0x40 MLOAD PUSH32 0xAA7FEADC00000000000000000000000000000000000000000000000000000000 DUP2 MSTORE PUSH1 0x4 ADD PUSH1 0x40 MLOAD DUP1 SWAP2 SUB SWAP1 REVERT JUMPDEST PUSH0 DUP2 SUB PUSH2 0x6DA JUMPI PUSH1 0x40 MLOAD PUSH32 0x2C5211C600000000000000000000000000000000000000000000000000000000 DUP2 MSTORE PUSH1 0x4 ADD PUSH1 0x40 MLOAD DUP1 SWAP2 SUB SWAP1 REVERT JUMPDEST PUSH1 0xB PUSH0 SWAP1 SLOAD SWAP1 PUSH2 0x100 EXP SWAP1 DIV PUSH4 0xFFFFFFFF AND PUSH1 0xA PUSH2 0x6F8 SWAP2 SWAP1 PUSH2 0x165A JUMP JUMPDEST PUSH1 0x3 PUSH0 DUP6 PUSH20 0xFFFFFFFFFFFFFFFFFFFFFFFFFFFFFFFFFFFFFFFF AND PUSH20 0xFFFFFFFFFFFFFFFFFFFFFFFFFFFFFFFFFFFFFFFF AND DUP2 MSTORE PUSH1 0x20 ADD SWAP1 DUP2 MSTORE PUSH1 0x20 ADD PUSH0 KECCAK256 SLOAD PUSH1 0xA SLOAD PUSH2 0x743 SWAP2 SWAP1 PUSH2 0x16A4 JUMP JUMPDEST PUSH1 0x2 PUSH0 DUP7 PUSH20 0xFFFFFFFFFFFFFFFFFFFFFFFFFFFFFFFFFFFFFFFF AND PUSH20 0xFFFFFFFFFFFFFFFFFFFFFFFFFFFFFFFFFFFFFFFF AND DUP2 MSTORE PUSH1 0x20 ADD SWAP1 DUP2 MSTORE PUSH1 0x20 ADD PUSH0 KECCAK256 SLOAD PUSH2 0x78B SWAP2 SWAP1 PUSH2 0x16D7 JUMP JUMPDEST PUSH2 0x795 SWAP2 SWAP1 PUSH2 0x1745 JUMP JUMPDEST PUSH1 0x4 PUSH0 DUP6 PUSH20 0xFFFFFFFFFFFFFFFFFFFFFFFFFFFFFFFFFFFFFFFF AND PUSH20 0xFFFFFFFFFFFFFFFFFFFFFFFFFFFFFFFFFFFFFFFF AND DUP2 MSTORE PUSH1 0x20 ADD SWAP1 DUP2 MSTORE PUSH1 0x20 ADD PUSH0 KECCAK256 PUSH0 DUP3 DUP3 SLOAD PUSH2 0x7E0 SWAP2 SWAP1 PUSH2 0x1775 JUMP JUMPDEST SWAP3 POP POP DUP2 SWAP1 SSTORE POP DUP2 PUSH1 0x9 PUSH0 DUP3 DUP3 SLOAD PUSH2 0x7F8 SWAP2 SWAP1 PUSH2 0x1775 JUMP JUMPDEST SWAP3 POP POP DUP2 SWAP1 SSTORE POP PUSH1 0xA SLOAD PUSH1 0x3 PUSH0 DUP6 PUSH20 0xFFFFFFFFFFFFFFFFFFFFFFFFFFFFFFFFFFFFFFFF AND PUSH20 0xFFFFFFFFFFFFFFFFFFFFFFFFFFFFFFFFFFFFFFFF AND DUP2 MSTORE PUSH1 0x20 ADD SWAP1 DUP2 MSTORE PUSH1 0x20 ADD PUSH0 KECCAK256 DUP2 SWAP1 SSTORE POP DUP1 PUSH1 0x2 PUSH0 DUP6 PUSH20 0xFFFFFFFFFFFFFFFFFFFFFFFFFFFFFFFFFFFFFFFF AND PUSH20 0xFFFFFFFFFFFFFFFFFFFFFFFFFFFFFFFFFFFFFFFF AND DUP2 MSTORE PUSH1 0x20 ADD SWAP1 DUP2 MSTORE PUSH1 0x20 ADD PUSH0 KECCAK256 PUSH0 DUP3 DUP3 SLOAD PUSH2 0x88F SWAP2 SWAP1 PUSH2 0x1775 JUMP JUMPDEST SWAP3 POP POP DUP2 SWAP1 SSTORE POP DUP1 PUSH1 0x8 PUSH0 DUP3 DUP3 SLOAD PUSH2 0x8A7 SWAP2 SWAP1 PUSH2 0x1775 JUMP JUMPDEST SWAP3 POP POP DUP2 SWAP1 SSTORE POP PUSH1 0x8 SLOAD PUSH1 0xB PUSH0 SWAP1 SLOAD SWAP1 PUSH2 0x100 EXP SWAP1 DIV PUSH4 0xFFFFFFFF AND PUSH1 0xA PUSH2 0x8CF SWAP2 SWAP1 PUSH2 0x165A JUMP JUMPDEST DUP4 PUSH2 0x8DA SWAP2 SWAP1 PUSH2 0x16D7 JUMP JUMPDEST PUSH2 0x8E4 SWAP2 SWAP1 PUSH2 0x1745 JUMP JUMPDEST PUSH1 0xA PUSH0 DUP3 DUP3 SLOAD PUSH2 0x8F4 SWAP2 SWAP1 PUSH2 0x1775 JUMP JUMPDEST SWAP3 POP POP DUP2 SWAP1 SSTORE POP PUSH1 0x40 MLOAD DUP1 PUSH1 0x60 ADD PUSH1 0x40 MSTORE DUP1 DUP5 PUSH20 0xFFFFFFFFFFFFFFFFFFFFFFFFFFFFFFFFFFFFFFFF AND DUP2 MSTORE PUSH1 0x20 ADD DUP4 DUP2 MSTORE PUSH1 0x20 ADD DUP3 DUP2 MSTORE POP PUSH1 0x6 PUSH0 PUSH1 0x7 PUSH0 SWAP1 SLOAD SWAP1 PUSH2 0x100 EXP SWAP1 DIV PUSH4 0xFFFFFFFF AND PUSH4 0xFFFFFFFF AND PUSH4 0xFFFFFFFF AND DUP2 MSTORE PUSH1 0x20 ADD SWAP1 DUP2 MSTORE PUSH1 0x20 ADD PUSH0 KECCAK256 PUSH0 DUP3 ADD MLOAD DUP2 PUSH0 ADD PUSH0 PUSH2 0x100 EXP DUP2 SLOAD DUP2 PUSH20 0xFFFFFFFFFFFFFFFFFFFFFFFFFFFFFFFFFFFFFFFF MUL NOT AND SWAP1 DUP4 PUSH20 0xFFFFFFFFFFFFFFFFFFFFFFFFFFFFFFFFFFFFFFFF AND MUL OR SWAP1 SSTORE POP PUSH1 0x20 DUP3 ADD MLOAD DUP2 PUSH1 0x1 ADD SSTORE PUSH1 0x40 DUP3 ADD MLOAD DUP2 PUSH1 0x2 ADD SSTORE SWAP1 POP POP PUSH1 0x7 PUSH0 DUP2 DUP2 SWAP1 SLOAD SWAP1 PUSH2 0x100 EXP SWAP1 DIV PUSH4 0xFFFFFFFF AND DUP1 SWAP3 SWAP2 SWAP1 PUSH2 0x9D6 SWAP1 PUSH2 0x17A8 JUMP JUMPDEST SWAP2 SWAP1 PUSH2 0x100 EXP DUP2 SLOAD DUP2 PUSH4 0xFFFFFFFF MUL NOT AND SWAP1 DUP4 PUSH4 0xFFFFFFFF AND MUL OR SWAP1 SSTORE POP POP DUP3 PUSH20 0xFFFFFFFFFFFFFFFFFFFFFFFFFFFFFFFFFFFFFFFF AND PUSH32 0xF0D29B5D4CEBE99E2C93FFEC39876A8B37C77BA767270F4F489DAEDE43AEA4E DUP4 DUP4 PUSH1 0x40 MLOAD PUSH2 0xA3D SWAP3 SWAP2 SWAP1 PUSH2 0x17D3 JUMP JUMPDEST PUSH1 0x40 MLOAD DUP1 SWAP2 SUB SWAP1 LOG2 POP POP POP JUMP JUMPDEST PUSH1 0x4 PUSH1 0x20 MSTORE DUP1 PUSH0 MSTORE PUSH1 0x40 PUSH0 KECCAK256 PUSH0 SWAP2 POP SWAP1 POP SLOAD DUP2 JUMP JUMPDEST PUSH0 DUP1 PUSH20 0xFFFFFFFFFFFFFFFFFFFFFFFFFFFFFFFFFFFFFFFF AND DUP4 PUSH20 0xFFFFFFFFFFFFFFFFFFFFFFFFFFFFFFFFFFFFFFFF AND SUB PUSH2 0xAC5 JUMPI PUSH1 0x40 MLOAD PUSH32 0xE6C4247B00000000000000000000000000000000000000000000000000000000 DUP2 MSTORE PUSH1 0x4 ADD PUSH1 0x40 MLOAD DUP1 SWAP2 SUB SWAP1 REVERT JUMPDEST PUSH0 DUP3 PUSH1 0x2 PUSH0 DUP7 PUSH20 0xFFFFFFFFFFFFFFFFFFFFFFFFFFFFFFFFFFFFFFFF AND PUSH20 0xFFFFFFFFFFFFFFFFFFFFFFFFFFFFFFFFFFFFFFFF AND DUP2 MSTORE PUSH1 0x20 ADD SWAP1 DUP2 MSTORE PUSH1 0x20 ADD PUSH0 KECCAK256 SLOAD PUSH2 0xB0F SWAP2 SWAP1 PUSH2 0x1775 JUMP JUMPDEST SWAP1 POP PUSH0 DUP4 PUSH1 0x8 SLOAD PUSH2 0xB20 SWAP2 SWAP1 PUSH2 0x1775 JUMP JUMPDEST SUB PUSH2 0xB2E JUMPI PUSH0 SWAP2 POP POP PUSH2 0xBB9 JUMP JUMPDEST PUSH0 DUP4 PUSH1 0x8 SLOAD PUSH2 0xB3D SWAP2 SWAP1 PUSH2 0x1775 JUMP JUMPDEST PUSH1 0xB PUSH0 SWAP1 SLOAD SWAP1 PUSH2 0x100 EXP SWAP1 DIV PUSH4 0xFFFFFFFF AND PUSH1 0xA PUSH2 0xB5B SWAP2 SWAP1 PUSH2 0x165A JUMP JUMPDEST DUP4 PUSH2 0xB66 SWAP2 SWAP1 PUSH2 0x16D7 JUMP JUMPDEST PUSH2 0xB70 SWAP2 SWAP1 PUSH2 0x1745 JUMP JUMPDEST SWAP1 POP PUSH1 0xB PUSH0 SWAP1 SLOAD SWAP1 PUSH2 0x100 EXP SWAP1 DIV PUSH4 0xFFFFFFFF AND PUSH1 0xA PUSH2 0xB90 SWAP2 SWAP1 PUSH2 0x165A JUMP JUMPDEST PUSH1 0xA PUSH1 0xC SLOAD PUSH2 0xB9F SWAP2 SWAP1 PUSH2 0x1745 JUMP JUMPDEST DUP3 PUSH2 0xBAA SWAP2 SWAP1 PUSH2 0x16D7 JUMP JUMPDEST PUSH2 0xBB4 SWAP2 SWAP1 PUSH2 0x1745 JUMP JUMPDEST SWAP3 POP POP POP JUMPDEST SWAP3 SWAP2 POP POP JUMP JUMPDEST PUSH1 0x8 SLOAD DUP2 JUMP JUMPDEST PUSH1 0x1 PUSH0 SWAP1 SLOAD SWAP1 PUSH2 0x100 EXP SWAP1 DIV PUSH20 0xFFFFFFFFFFFFFFFFFFFFFFFFFFFFFFFFFFFFFFFF AND DUP2 JUMP JUMPDEST PUSH0 DUP1 SLOAD SWAP1 PUSH2 0x100 EXP SWAP1 DIV PUSH20 0xFFFFFFFFFFFFFFFFFFFFFFFFFFFFFFFFFFFFFFFF AND DUP2 JUMP JUMPDEST PUSH0 PUSH2 0xC17 DUP3 PUSH2 0xF7D JUMP JUMPDEST SWAP1 POP SWAP2 SWAP1 POP JUMP JUMPDEST PUSH0 CALLER SWAP1 POP PUSH0 PUSH20 0xFFFFFFFFFFFFFFFFFFFFFFFFFFFFFFFFFFFFFFFF AND DUP2 PUSH20 0xFFFFFFFFFFFFFFFFFFFFFFFFFFFFFFFFFFFFFFFF AND SUB PUSH2 0xC87 JUMPI PUSH1 0x40 MLOAD PUSH32 0xE6C4247B00000000000000000000000000000000000000000000000000000000 DUP2 MSTORE PUSH1 0x4 ADD PUSH1 0x40 MLOAD DUP1 SWAP2 SUB SWAP1 REVERT JUMPDEST PUSH0 PUSH2 0xC91 DUP3 PUSH2 0xF7D JUMP JUMPDEST SWAP1 POP PUSH0 DUP1 SLOAD SWAP1 PUSH2 0x100 EXP SWAP1 DIV PUSH20 0xFFFFFFFFFFFFFFFFFFFFFFFFFFFFFFFFFFFFFFFF AND PUSH20 0xFFFFFFFFFFFFFFFFFFFFFFFFFFFFFFFFFFFFFFFF AND PUSH4 0xA9059CBB DUP4 DUP4 PUSH1 0x40 MLOAD DUP4 PUSH4 0xFFFFFFFF AND PUSH1 0xE0 SHL DUP2 MSTORE PUSH1 0x4 ADD PUSH2 0xCED SWAP3 SWAP2 SWAP1 PUSH2 0x17FA JUMP JUMPDEST PUSH1 0x20 PUSH1 0x40 MLOAD DUP1 DUP4 SUB DUP2 PUSH0 DUP8 GAS CALL ISZERO DUP1 ISZERO PUSH2 0xD09 JUMPI RETURNDATASIZE PUSH0 DUP1 RETURNDATACOPY RETURNDATASIZE PUSH0 REVERT JUMPDEST POP POP POP POP PUSH1 0x40 MLOAD RETURNDATASIZE PUSH1 0x1F NOT PUSH1 0x1F DUP3 ADD AND DUP3 ADD DUP1 PUSH1 0x40 MSTORE POP DUP2 ADD SWAP1 PUSH2 0xD2D SWAP2 SWAP1 PUSH2 0x1856 JUMP JUMPDEST POP DUP1 PUSH1 0x5 PUSH0 DUP5 PUSH20 0xFFFFFFFFFFFFFFFFFFFFFFFFFFFFFFFFFFFFFFFF AND PUSH20 0xFFFFFFFFFFFFFFFFFFFFFFFFFFFFFFFFFFFFFFFF AND DUP2 MSTORE PUSH1 0x20 ADD SWAP1 DUP2 MSTORE PUSH1 0x20 ADD PUSH0 KECCAK256 PUSH0 DUP3 DUP3 SLOAD PUSH2 0xD7A SWAP2 SWAP1 PUSH2 0x1775 JUMP JUMPDEST SWAP3 POP POP DUP2 SWAP1 SSTORE POP DUP2 PUSH20 0xFFFFFFFFFFFFFFFFFFFFFFFFFFFFFFFFFFFFFFFF AND PUSH32 0x3488C34059D2E654B3B166B5EC4EE17BBD37297B906D39C704104A7DC2459B31 DUP3 PUSH1 0x40 MLOAD PUSH2 0xDC7 SWAP2 SWAP1 PUSH2 0x12FA JUMP JUMPDEST PUSH1 0x40 MLOAD DUP1 SWAP2 SUB SWAP1 LOG2 POP POP JUMP JUMPDEST PUSH0 DUP1 PUSH1 0x7 PUSH0 SWAP1 SLOAD SWAP1 PUSH2 0x100 EXP SWAP1 DIV PUSH4 0xFFFFFFFF AND PUSH4 0xFFFFFFFF AND SUB PUSH2 0xDFA JUMPI PUSH0 SWAP1 POP PUSH2 0xE1B JUMP JUMPDEST PUSH1 0x1 PUSH1 0x7 PUSH0 SWAP1 SLOAD SWAP1 PUSH2 0x100 EXP SWAP1 DIV PUSH4 0xFFFFFFFF AND PUSH2 0xE18 SWAP2 SWAP1 PUSH2 0x1881 JUMP JUMPDEST SWAP1 POP JUMPDEST SWAP1 JUMP JUMPDEST PUSH1 0xB PUSH0 SWAP1 SLOAD SWAP1 PUSH2 0x100 EXP SWAP1 DIV PUSH4 0xFFFFFFFF AND DUP2 JUMP JUMPDEST PUSH1 0xA SLOAD DUP2 JUMP JUMPDEST PUSH0 PUSH2 0xE43 DUP3 PUSH2 0xF7D JUMP JUMPDEST PUSH1 0x5 PUSH0 DUP5 PUSH20 0xFFFFFFFFFFFFFFFFFFFFFFFFFFFFFFFFFFFFFFFF AND PUSH20 0xFFFFFFFFFFFFFFFFFFFFFFFFFFFFFFFFFFFFFFFF AND DUP2 MSTORE PUSH1 0x20 ADD SWAP1 DUP2 MSTORE PUSH1 0x20 ADD PUSH0 KECCAK256 SLOAD PUSH2 0xE8B SWAP2 SWAP1 PUSH2 0x1775 JUMP JUMPDEST SWAP1 POP SWAP2 SWAP1 POP JUMP JUMPDEST PUSH1 0xC SLOAD DUP2 JUMP JUMPDEST PUSH1 0x2 PUSH1 0x20 MSTORE DUP1 PUSH0 MSTORE PUSH1 0x40 PUSH0 KECCAK256 PUSH0 SWAP2 POP SWAP1 POP SLOAD DUP2 JUMP JUMPDEST PUSH1 0x5 PUSH1 0x20 MSTORE DUP1 PUSH0 MSTORE PUSH1 0x40 PUSH0 KECCAK256 PUSH0 SWAP2 POP SWAP1 POP SLOAD DUP2 JUMP JUMPDEST PUSH1 0x7 PUSH0 SWAP1 SLOAD SWAP1 PUSH2 0x100 EXP SWAP1 DIV PUSH4 0xFFFFFFFF AND DUP2 JUMP JUMPDEST PUSH1 0x9 SLOAD DUP2 JUMP JUMPDEST PUSH0 PUSH1 0x5 PUSH0 DUP4 PUSH20 0xFFFFFFFFFFFFFFFFFFFFFFFFFFFFFFFFFFFFFFFF AND PUSH20 0xFFFFFFFFFFFFFFFFFFFFFFFFFFFFFFFFFFFFFFFF AND DUP2 MSTORE PUSH1 0x20 ADD SWAP1 DUP2 MSTORE PUSH1 0x20 ADD PUSH0 KECCAK256 SLOAD SWAP1 POP SWAP2 SWAP1 POP JUMP JUMPDEST PUSH1 0x3 PUSH1 0x20 MSTORE DUP1 PUSH0 MSTORE PUSH1 0x40 PUSH0 KECCAK256 PUSH0 SWAP2 POP SWAP1 POP SLOAD DUP2 JUMP JUMPDEST PUSH1 0x6 PUSH1 0x20 MSTORE DUP1 PUSH0 MSTORE PUSH1 0x40 PUSH0 KECCAK256 PUSH0 SWAP2 POP SWAP1 POP DUP1 PUSH0 ADD PUSH0 SWAP1 SLOAD SWAP1 PUSH2 0x100 EXP SWAP1 DIV PUSH20 0xFFFFFFFFFFFFFFFFFFFFFFFFFFFFFFFFFFFFFFFF AND SWAP1 DUP1 PUSH1 0x1 ADD SLOAD SWAP1 DUP1 PUSH1 0x2 ADD SLOAD SWAP1 POP DUP4 JUMP JUMPDEST PUSH0 PUSH1 0x5 PUSH0 DUP4 PUSH20 0xFFFFFFFFFFFFFFFFFFFFFFFFFFFFFFFFFFFFFFFF AND PUSH20 0xFFFFFFFFFFFFFFFFFFFFFFFFFFFFFFFFFFFFFFFF AND DUP2 MSTORE PUSH1 0x20 ADD SWAP1 DUP2 MSTORE PUSH1 0x20 ADD PUSH0 KECCAK256 SLOAD PUSH1 0xB PUSH0 SWAP1 SLOAD SWAP1 PUSH2 0x100 EXP SWAP1 DIV PUSH4 0xFFFFFFFF AND PUSH1 0xA PUSH2 0xFDA SWAP2 SWAP1 PUSH2 0x165A JUMP JUMPDEST PUSH1 0x3 PUSH0 DUP6 PUSH20 0xFFFFFFFFFFFFFFFFFFFFFFFFFFFFFFFFFFFFFFFF AND PUSH20 0xFFFFFFFFFFFFFFFFFFFFFFFFFFFFFFFFFFFFFFFF AND DUP2 MSTORE PUSH1 0x20 ADD SWAP1 DUP2 MSTORE PUSH1 0x20 ADD PUSH0 KECCAK256 SLOAD PUSH1 0xA SLOAD PUSH2 0x1025 SWAP2 SWAP1 PUSH2 0x16A4 JUMP JUMPDEST PUSH1 0x2 PUSH0 DUP7 PUSH20 0xFFFFFFFFFFFFFFFFFFFFFFFFFFFFFFFFFFFFFFFF AND PUSH20 0xFFFFFFFFFFFFFFFFFFFFFFFFFFFFFFFFFFFFFFFF AND DUP2 MSTORE PUSH1 0x20 ADD SWAP1 DUP2 MSTORE PUSH1 0x20 ADD PUSH0 KECCAK256 SLOAD PUSH2 0x106D SWAP2 SWAP1 PUSH2 0x16D7 JUMP JUMPDEST PUSH2 0x1077 SWAP2 SWAP1 PUSH2 0x1745 JUMP JUMPDEST PUSH1 0x4 PUSH0 DUP6 PUSH20 0xFFFFFFFFFFFFFFFFFFFFFFFFFFFFFFFFFFFFFFFF AND PUSH20 0xFFFFFFFFFFFFFFFFFFFFFFFFFFFFFFFFFFFFFFFF AND DUP2 MSTORE PUSH1 0x20 ADD SWAP1 DUP2 MSTORE PUSH1 0x20 ADD PUSH0 KECCAK256 SLOAD PUSH2 0x10BF SWAP2 SWAP1 PUSH2 0x1775 JUMP JUMPDEST PUSH2 0x10C9 SWAP2 SWAP1 PUSH2 0x16A4 JUMP JUMPDEST SWAP1 POP SWAP2 SWAP1 POP JUMP JUMPDEST PUSH1 0x40 MLOAD DUP1 PUSH1 0x60 ADD PUSH1 0x40 MSTORE DUP1 PUSH0 PUSH20 0xFFFFFFFFFFFFFFFFFFFFFFFFFFFFFFFFFFFFFFFF AND DUP2 MSTORE PUSH1 0x20 ADD PUSH0 DUP2 MSTORE PUSH1 0x20 ADD PUSH0 DUP2 MSTORE POP SWAP1 JUMP JUMPDEST PUSH0 DUP1 REVERT JUMPDEST PUSH0 PUSH4 0xFFFFFFFF DUP3 AND SWAP1 POP SWAP2 SWAP1 POP JUMP JUMPDEST PUSH2 0x1120 DUP2 PUSH2 0x1108 JUMP JUMPDEST DUP2 EQ PUSH2 0x112A JUMPI PUSH0 DUP1 REVERT JUMPDEST POP JUMP JUMPDEST PUSH0 DUP2 CALLDATALOAD SWAP1 POP PUSH2 0x113B DUP2 PUSH2 0x1117 JUMP JUMPDEST SWAP3 SWAP2 POP POP JUMP JUMPDEST PUSH0 PUSH1 0x20 DUP3 DUP5 SUB SLT ISZERO PUSH2 0x1156 JUMPI PUSH2 0x1155 PUSH2 0x1104 JUMP JUMPDEST JUMPDEST PUSH0 PUSH2 0x1163 DUP5 DUP3 DUP6 ADD PUSH2 0x112D JUMP JUMPDEST SWAP2 POP POP SWAP3 SWAP2 POP POP JUMP JUMPDEST PUSH0 PUSH20 0xFFFFFFFFFFFFFFFFFFFFFFFFFFFFFFFFFFFFFFFF DUP3 AND SWAP1 POP SWAP2 SWAP1 POP JUMP JUMPDEST PUSH0 PUSH2 0x1195 DUP3 PUSH2 0x116C JUMP JUMPDEST SWAP1 POP SWAP2 SWAP1 POP JUMP JUMPDEST PUSH2 0x11A5 DUP2 PUSH2 0x118B JUMP JUMPDEST DUP3 MSTORE POP POP JUMP JUMPDEST PUSH0 DUP2 SWAP1 POP SWAP2 SWAP1 POP JUMP JUMPDEST PUSH2 0x11BD DUP2 PUSH2 0x11AB JUMP JUMPDEST DUP3 MSTORE POP POP JUMP JUMPDEST PUSH1 0x60 DUP3 ADD PUSH0 DUP3 ADD MLOAD PUSH2 0x11D7 PUSH0 DUP6 ADD DUP3 PUSH2 0x119C JUMP JUMPDEST POP PUSH1 0x20 DUP3 ADD MLOAD PUSH2 0x11EA PUSH1 0x20 DUP6 ADD DUP3 PUSH2 0x11B4 JUMP JUMPDEST POP PUSH1 0x40 DUP3 ADD MLOAD PUSH2 0x11FD PUSH1 0x40 DUP6 ADD DUP3 PUSH2 0x11B4 JUMP JUMPDEST POP POP POP POP JUMP JUMPDEST PUSH0 PUSH1 0x60 DUP3 ADD SWAP1 POP PUSH2 0x1216 PUSH0 DUP4 ADD DUP5 PUSH2 0x11C3 JUMP JUMPDEST SWAP3 SWAP2 POP POP JUMP JUMPDEST PUSH2 0x1225 DUP2 PUSH2 0x118B JUMP JUMPDEST DUP2 EQ PUSH2 0x122F JUMPI PUSH0 DUP1 REVERT JUMPDEST POP JUMP JUMPDEST PUSH0 DUP2 CALLDATALOAD SWAP1 POP PUSH2 0x1240 DUP2 PUSH2 0x121C JUMP JUMPDEST SWAP3 SWAP2 POP POP JUMP JUMPDEST PUSH2 0x124F DUP2 PUSH2 0x11AB JUMP JUMPDEST DUP2 EQ PUSH2 0x1259 JUMPI PUSH0 DUP1 REVERT JUMPDEST POP JUMP JUMPDEST PUSH0 DUP2 CALLDATALOAD SWAP1 POP PUSH2 0x126A DUP2 PUSH2 0x1246 JUMP JUMPDEST SWAP3 SWAP2 POP POP JUMP JUMPDEST PUSH0 DUP1 PUSH0 PUSH1 0x60 DUP5 DUP7 SUB SLT ISZERO PUSH2 0x1287 JUMPI PUSH2 0x1286 PUSH2 0x1104 JUMP JUMPDEST JUMPDEST PUSH0 PUSH2 0x1294 DUP7 DUP3 DUP8 ADD PUSH2 0x1232 JUMP JUMPDEST SWAP4 POP POP PUSH1 0x20 PUSH2 0x12A5 DUP7 DUP3 DUP8 ADD PUSH2 0x125C JUMP JUMPDEST SWAP3 POP POP PUSH1 0x40 PUSH2 0x12B6 DUP7 DUP3 DUP8 ADD PUSH2 0x125C JUMP JUMPDEST SWAP2 POP POP SWAP3 POP SWAP3 POP SWAP3 JUMP JUMPDEST PUSH0 PUSH1 0x20 DUP3 DUP5 SUB SLT ISZERO PUSH2 0x12D5 JUMPI PUSH2 0x12D4 PUSH2 0x1104 JUMP JUMPDEST JUMPDEST PUSH0 PUSH2 0x12E2 DUP5 DUP3 DUP6 ADD PUSH2 0x1232 JUMP JUMPDEST SWAP2 POP POP SWAP3 SWAP2 POP POP JUMP JUMPDEST PUSH2 0x12F4 DUP2 PUSH2 0x11AB JUMP JUMPDEST DUP3 MSTORE POP POP JUMP JUMPDEST PUSH0 PUSH1 0x20 DUP3 ADD SWAP1 POP PUSH2 0x130D PUSH0 DUP4 ADD DUP5 PUSH2 0x12EB JUMP JUMPDEST SWAP3 SWAP2 POP POP JUMP JUMPDEST PUSH0 DUP1 PUSH1 0x40 DUP4 DUP6 SUB SLT ISZERO PUSH2 0x1329 JUMPI PUSH2 0x1328 PUSH2 0x1104 JUMP JUMPDEST JUMPDEST PUSH0 PUSH2 0x1336 DUP6 DUP3 DUP7 ADD PUSH2 0x1232 JUMP JUMPDEST SWAP3 POP POP PUSH1 0x20 PUSH2 0x1347 DUP6 DUP3 DUP7 ADD PUSH2 0x125C JUMP JUMPDEST SWAP2 POP POP SWAP3 POP SWAP3 SWAP1 POP JUMP JUMPDEST PUSH0 DUP2 SWAP1 POP SWAP2 SWAP1 POP JUMP JUMPDEST PUSH0 PUSH2 0x1374 PUSH2 0x136F PUSH2 0x136A DUP5 PUSH2 0x116C JUMP JUMPDEST PUSH2 0x1351 JUMP JUMPDEST PUSH2 0x116C JUMP JUMPDEST SWAP1 POP SWAP2 SWAP1 POP JUMP JUMPDEST PUSH0 PUSH2 0x1385 DUP3 PUSH2 0x135A JUMP JUMPDEST SWAP1 POP SWAP2 SWAP1 POP JUMP JUMPDEST PUSH0 PUSH2 0x1396 DUP3 PUSH2 0x137B JUMP JUMPDEST SWAP1 POP SWAP2 SWAP1 POP JUMP JUMPDEST PUSH2 0x13A6 DUP2 PUSH2 0x138C JUMP JUMPDEST DUP3 MSTORE POP POP JUMP JUMPDEST PUSH0 PUSH1 0x20 DUP3 ADD SWAP1 POP PUSH2 0x13BF PUSH0 DUP4 ADD DUP5 PUSH2 0x139D JUMP JUMPDEST SWAP3 SWAP2 POP POP JUMP JUMPDEST PUSH0 PUSH2 0x13CF DUP3 PUSH2 0x137B JUMP JUMPDEST SWAP1 POP SWAP2 SWAP1 POP JUMP JUMPDEST PUSH2 0x13DF DUP2 PUSH2 0x13C5 JUMP JUMPDEST DUP3 MSTORE POP POP JUMP JUMPDEST PUSH0 PUSH1 0x20 DUP3 ADD SWAP1 POP PUSH2 0x13F8 PUSH0 DUP4 ADD DUP5 PUSH2 0x13D6 JUMP JUMPDEST SWAP3 SWAP2 POP POP JUMP JUMPDEST PUSH2 0x1407 DUP2 PUSH2 0x1108 JUMP JUMPDEST DUP3 MSTORE POP POP JUMP JUMPDEST PUSH0 PUSH1 0x20 DUP3 ADD SWAP1 POP PUSH2 0x1420 PUSH0 DUP4 ADD DUP5 PUSH2 0x13FE JUMP JUMPDEST SWAP3 SWAP2 POP POP JUMP JUMPDEST PUSH2 0x142F DUP2 PUSH2 0x118B JUMP JUMPDEST DUP3 MSTORE POP POP JUMP JUMPDEST PUSH0 PUSH1 0x60 DUP3 ADD SWAP1 POP PUSH2 0x1448 PUSH0 DUP4 ADD DUP7 PUSH2 0x1426 JUMP JUMPDEST PUSH2 0x1455 PUSH1 0x20 DUP4 ADD DUP6 PUSH2 0x12EB JUMP JUMPDEST PUSH2 0x1462 PUSH1 0x40 DUP4 ADD DUP5 PUSH2 0x12EB JUMP JUMPDEST SWAP5 SWAP4 POP POP POP POP JUMP JUMPDEST PUSH0 DUP2 SWAP1 POP SWAP2 SWAP1 POP JUMP JUMPDEST PUSH2 0x147C DUP2 PUSH2 0x146A JUMP JUMPDEST DUP2 EQ PUSH2 0x1486 JUMPI PUSH0 DUP1 REVERT JUMPDEST POP JUMP JUMPDEST PUSH0 DUP2 MLOAD SWAP1 POP PUSH2 0x1497 DUP2 PUSH2 0x1473 JUMP JUMPDEST SWAP3 SWAP2 POP POP JUMP JUMPDEST PUSH0 PUSH1 0x20 DUP3 DUP5 SUB SLT ISZERO PUSH2 0x14B2 JUMPI PUSH2 0x14B1 PUSH2 0x1104 JUMP JUMPDEST JUMPDEST PUSH0 PUSH2 0x14BF DUP5 DUP3 DUP6 ADD PUSH2 0x1489 JUMP JUMPDEST SWAP2 POP POP SWAP3 SWAP2 POP POP JUMP JUMPDEST PUSH2 0x14D1 DUP2 PUSH2 0x146A JUMP JUMPDEST DUP3 MSTORE POP POP JUMP JUMPDEST PUSH0 PUSH1 0x40 DUP3 ADD SWAP1 POP PUSH2 0x14EA PUSH0 DUP4 ADD DUP6 PUSH2 0x14C8 JUMP JUMPDEST PUSH2 0x14F7 PUSH1 0x20 DUP4 ADD DUP5 PUSH2 0x1426 JUMP JUMPDEST SWAP4 SWAP3 POP POP POP JUMP JUMPDEST PUSH32 0x4E487B7100000000000000000000000000000000000000000000000000000000 PUSH0 MSTORE PUSH1 0x11 PUSH1 0x4 MSTORE PUSH1 0x24 PUSH0 REVERT JUMPDEST PUSH0 DUP2 PUSH1 0x1 SHR SWAP1 POP SWAP2 SWAP1 POP JUMP JUMPDEST PUSH0 DUP1 DUP3 SWAP2 POP DUP4 SWAP1 POP JUMPDEST PUSH1 0x1 DUP6 GT ISZERO PUSH2 0x1580 JUMPI DUP1 DUP7 DIV DUP2 GT ISZERO PUSH2 0x155C JUMPI PUSH2 0x155B PUSH2 0x14FE JUMP JUMPDEST JUMPDEST PUSH1 0x1 DUP6 AND ISZERO PUSH2 0x156B JUMPI DUP1 DUP3 MUL SWAP2 POP JUMPDEST DUP1 DUP2 MUL SWAP1 POP PUSH2 0x1579 DUP6 PUSH2 0x152B JUMP JUMPDEST SWAP5 POP PUSH2 0x1540 JUMP JUMPDEST SWAP5 POP SWAP5 SWAP3 POP POP POP JUMP JUMPDEST PUSH0 DUP3 PUSH2 0x1598 JUMPI PUSH1 0x1 SWAP1 POP PUSH2 0x1653 JUMP JUMPDEST DUP2 PUSH2 0x15A5 JUMPI PUSH0 SWAP1 POP PUSH2 0x1653 JUMP JUMPDEST DUP2 PUSH1 0x1 DUP2 EQ PUSH2 0x15BB JUMPI PUSH1 0x2 DUP2 EQ PUSH2 0x15C5 JUMPI PUSH2 0x15F4 JUMP JUMPDEST PUSH1 0x1 SWAP2 POP POP PUSH2 0x1653 JUMP JUMPDEST PUSH1 0xFF DUP5 GT ISZERO PUSH2 0x15D7 JUMPI PUSH2 0x15D6 PUSH2 0x14FE JUMP JUMPDEST JUMPDEST DUP4 PUSH1 0x2 EXP SWAP2 POP DUP5 DUP3 GT ISZERO PUSH2 0x15EE JUMPI PUSH2 0x15ED PUSH2 0x14FE JUMP JUMPDEST JUMPDEST POP PUSH2 0x1653 JUMP JUMPDEST POP PUSH1 0x20 DUP4 LT PUSH2 0x133 DUP4 LT AND PUSH1 0x4E DUP5 LT PUSH1 0xB DUP5 LT AND OR ISZERO PUSH2 0x1629 JUMPI DUP3 DUP3 EXP SWAP1 POP DUP4 DUP2 GT ISZERO PUSH2 0x1624 JUMPI PUSH2 0x1623 PUSH2 0x14FE JUMP JUMPDEST JUMPDEST PUSH2 0x1653 JUMP JUMPDEST PUSH2 0x1636 DUP5 DUP5 DUP5 PUSH1 0x1 PUSH2 0x1537 JUMP JUMPDEST SWAP3 POP SWAP1 POP DUP2 DUP5 DIV DUP2 GT ISZERO PUSH2 0x164D JUMPI PUSH2 0x164C PUSH2 0x14FE JUMP JUMPDEST JUMPDEST DUP2 DUP2 MUL SWAP1 POP JUMPDEST SWAP4 SWAP3 POP POP POP JUMP JUMPDEST PUSH0 PUSH2 0x1664 DUP3 PUSH2 0x11AB JUMP JUMPDEST SWAP2 POP PUSH2 0x166F DUP4 PUSH2 0x1108 JUMP JUMPDEST SWAP3 POP PUSH2 0x169C PUSH32 0xFFFFFFFFFFFFFFFFFFFFFFFFFFFFFFFFFFFFFFFFFFFFFFFFFFFFFFFFFFFFFFFF DUP5 DUP5 PUSH2 0x1589 JUMP JUMPDEST SWAP1 POP SWAP3 SWAP2 POP POP JUMP JUMPDEST PUSH0 PUSH2 0x16AE DUP3 PUSH2 0x11AB JUMP JUMPDEST SWAP2 POP PUSH2 0x16B9 DUP4 PUSH2 0x11AB JUMP JUMPDEST SWAP3 POP DUP3 DUP3 SUB SWAP1 POP DUP2 DUP2 GT ISZERO PUSH2 0x16D1 JUMPI PUSH2 0x16D0 PUSH2 0x14FE JUMP JUMPDEST JUMPDEST SWAP3 SWAP2 POP POP JUMP JUMPDEST PUSH0 PUSH2 0x16E1 DUP3 PUSH2 0x11AB JUMP JUMPDEST SWAP2 POP PUSH2 0x16EC DUP4 PUSH2 0x11AB JUMP JUMPDEST SWAP3 POP DUP3 DUP3 MUL PUSH2 0x16FA DUP2 PUSH2 0x11AB JUMP JUMPDEST SWAP2 POP DUP3 DUP3 DIV DUP5 EQ DUP4 ISZERO OR PUSH2 0x1711 JUMPI PUSH2 0x1710 PUSH2 0x14FE JUMP JUMPDEST JUMPDEST POP SWAP3 SWAP2 POP POP JUMP JUMPDEST PUSH32 0x4E487B7100000000000000000000000000000000000000000000000000000000 PUSH0 MSTORE PUSH1 0x12 PUSH1 0x4 MSTORE PUSH1 0x24 PUSH0 REVERT JUMPDEST PUSH0 PUSH2 0x174F DUP3 PUSH2 0x11AB JUMP JUMPDEST SWAP2 POP PUSH2 0x175A DUP4 PUSH2 0x11AB JUMP JUMPDEST SWAP3 POP DUP3 PUSH2 0x176A JUMPI PUSH2 0x1769 PUSH2 0x1718 JUMP JUMPDEST JUMPDEST DUP3 DUP3 DIV SWAP1 POP SWAP3 SWAP2 POP POP JUMP JUMPDEST PUSH0 PUSH2 0x177F DUP3 PUSH2 0x11AB JUMP JUMPDEST SWAP2 POP PUSH2 0x178A DUP4 PUSH2 0x11AB JUMP JUMPDEST SWAP3 POP DUP3 DUP3 ADD SWAP1 POP DUP1 DUP3 GT ISZERO PUSH2 0x17A2 JUMPI PUSH2 0x17A1 PUSH2 0x14FE JUMP JUMPDEST JUMPDEST SWAP3 SWAP2 POP POP JUMP JUMPDEST PUSH0 PUSH2 0x17B2 DUP3 PUSH2 0x1108 JUMP JUMPDEST SWAP2 POP PUSH4 0xFFFFFFFF DUP3 SUB PUSH2 0x17C8 JUMPI PUSH2 0x17C7 PUSH2 0x14FE JUMP JUMPDEST JUMPDEST PUSH1 0x1 DUP3 ADD SWAP1 POP SWAP2 SWAP1 POP JUMP JUMPDEST PUSH0 PUSH1 0x40 DUP3 ADD SWAP1 POP PUSH2 0x17E6 PUSH0 DUP4 ADD DUP6 PUSH2 0x12EB JUMP JUMPDEST PUSH2 0x17F3 PUSH1 0x20 DUP4 ADD DUP5 PUSH2 0x12EB JUMP JUMPDEST SWAP4 SWAP3 POP POP POP JUMP JUMPDEST PUSH0 PUSH1 0x40 DUP3 ADD SWAP1 POP PUSH2 0x180D PUSH0 DUP4 ADD DUP6 PUSH2 0x1426 JUMP JUMPDEST PUSH2 0x181A PUSH1 0x20 DUP4 ADD DUP5 PUSH2 0x12EB JUMP JUMPDEST SWAP4 SWAP3 POP POP POP JUMP JUMPDEST PUSH0 DUP2 ISZERO ISZERO SWAP1 POP SWAP2 SWAP1 POP JUMP JUMPDEST PUSH2 0x1835 DUP2 PUSH2 0x1821 JUMP JUMPDEST DUP2 EQ PUSH2 0x183F JUMPI PUSH0 DUP1 REVERT JUMPDEST POP JUMP JUMPDEST PUSH0 DUP2 MLOAD SWAP1 POP PUSH2 0x1850 DUP2 PUSH2 0x182C JUMP JUMPDEST SWAP3 SWAP2 POP POP JUMP JUMPDEST PUSH0 PUSH1 0x20 DUP3 DUP5 SUB SLT ISZERO PUSH2 0x186B JUMPI PUSH2 0x186A PUSH2 0x1104 JUMP JUMPDEST JUMPDEST PUSH0 PUSH2 0x1878 DUP5 DUP3 DUP6 ADD PUSH2 0x1842 JUMP JUMPDEST SWAP2 POP POP SWAP3 SWAP2 POP POP JUMP JUMPDEST PUSH0 PUSH2 0x188B DUP3 PUSH2 0x1108 JUMP JUMPDEST SWAP2 POP PUSH2 0x1896 DUP4 PUSH2 0x1108 JUMP JUMPDEST SWAP3 POP DUP3 DUP3 SUB SWAP1 POP PUSH4 0xFFFFFFFF DUP2 GT ISZERO PUSH2 0x18B2 JUMPI PUSH2 0x18B1 PUSH2 0x14FE JUMP JUMPDEST JUMPDEST SWAP3 SWAP2 POP POP JUMP INVALID LOG2 PUSH5 0x6970667358 0x22 SLT KECCAK256 PUSH32 0xB1966A061AF7742C301F3B24919015738DDAF405C3BF0D2714CCA34143F55164 PUSH20 0x6F6C634300081700330000000000000000000000 "
				},
				"gasEstimates": {
					"creation": {
						"codeDepositCost": "1276400",
						"executionCost": "infinite",
						"totalCost": "infinite"
					},
					"external": {
						"amount(address)": "2913",
						"claim()": "infinite",
						"claimed(address)": "2824",
						"decimal()": "2489",
						"deposit(address,uint256,uint256)": "infinite",
						"getClaimed(address)": "2917",
						"getCurrentHistoryNonce()": "infinite",
						"getHistory(uint32)": "infinite",
						"getPredict(address,uint256)": "infinite",
						"getTotalProfit(address)": "infinite",
						"getUnclaim(address)": "infinite",
						"historyInfo(uint32)": "infinite",
						"historyNonce()": "2510",
						"mask(address)": "2912",
						"paymentToken()": "infinite",
						"price()": "2514",
						"register()": "infinite",
						"totalAmount()": "2537",
						"totalValue()": "2491",
						"unclaim(address)": "2870",
						"valuePerAmount()": "2470"
					},
					"internal": {
						"_getUnclaim(address)": "infinite"
					}
				},
				"methodIdentifiers": {
					"amount(address)": "b9f0bf66",
					"claim()": "4e71d92d",
					"claimed(address)": "c884ef83",
					"decimal()": "76809ce3",
					"deposit(address,uint256,uint256)": "0efe6a8b",
					"getClaimed(address)": "eb46260e",
					"getCurrentHistoryNonce()": "6d1c6041",
					"getHistory(uint32)": "07040e91",
					"getPredict(address,uint256)": "13da0777",
					"getTotalProfit(address)": "8233fbcb",
					"getUnclaim(address)": "480a4262",
					"historyInfo(uint32)": "f54f0a8d",
					"historyNonce()": "cdf033f3",
					"mask(address)": "eeda71d5",
					"paymentToken()": "3013ce29",
					"price()": "a035b1fe",
					"register()": "1aa3a008",
					"totalAmount()": "1a39d8ef",
					"totalValue()": "d4c3eea0",
					"unclaim(address)": "1161e582",
					"valuePerAmount()": "7a19a488"
				}
			},
			"storageLayout": {
				"storage": [
					{
						"astId": 1308,
						"contract": "contracts/periphery/Fomo3d.sol:Fomo3d",
						"label": "paymentToken",
						"offset": 0,
						"slot": "0",
						"type": "t_contract(ERC20)1030"
					},
					{
						"astId": 1311,
						"contract": "contracts/periphery/Fomo3d.sol:Fomo3d",
						"label": "register",
						"offset": 0,
						"slot": "1",
						"type": "t_contract(Register)1828"
					},
					{
						"astId": 1315,
						"contract": "contracts/periphery/Fomo3d.sol:Fomo3d",
						"label": "amount",
						"offset": 0,
						"slot": "2",
						"type": "t_mapping(t_address,t_uint256)"
					},
					{
						"astId": 1319,
						"contract": "contracts/periphery/Fomo3d.sol:Fomo3d",
						"label": "mask",
						"offset": 0,
						"slot": "3",
						"type": "t_mapping(t_address,t_uint256)"
					},
					{
						"astId": 1323,
						"contract": "contracts/periphery/Fomo3d.sol:Fomo3d",
						"label": "unclaim",
						"offset": 0,
						"slot": "4",
						"type": "t_mapping(t_address,t_uint256)"
					},
					{
						"astId": 1327,
						"contract": "contracts/periphery/Fomo3d.sol:Fomo3d",
						"label": "claimed",
						"offset": 0,
						"slot": "5",
						"type": "t_mapping(t_address,t_uint256)"
					},
					{
						"astId": 1332,
						"contract": "contracts/periphery/Fomo3d.sol:Fomo3d",
						"label": "historyInfo",
						"offset": 0,
						"slot": "6",
						"type": "t_mapping(t_uint32,t_struct(HistoryInfo)1234_storage)"
					},
					{
						"astId": 1334,
						"contract": "contracts/periphery/Fomo3d.sol:Fomo3d",
						"label": "historyNonce",
						"offset": 0,
						"slot": "7",
						"type": "t_uint32"
					},
					{
						"astId": 1336,
						"contract": "contracts/periphery/Fomo3d.sol:Fomo3d",
						"label": "totalAmount",
						"offset": 0,
						"slot": "8",
						"type": "t_uint256"
					},
					{
						"astId": 1338,
						"contract": "contracts/periphery/Fomo3d.sol:Fomo3d",
						"label": "totalValue",
						"offset": 0,
						"slot": "9",
						"type": "t_uint256"
					},
					{
						"astId": 1340,
						"contract": "contracts/periphery/Fomo3d.sol:Fomo3d",
						"label": "valuePerAmount",
						"offset": 0,
						"slot": "10",
						"type": "t_uint256"
					},
					{
						"astId": 1342,
						"contract": "contracts/periphery/Fomo3d.sol:Fomo3d",
						"label": "decimal",
						"offset": 0,
						"slot": "11",
						"type": "t_uint32"
					},
					{
						"astId": 1344,
						"contract": "contracts/periphery/Fomo3d.sol:Fomo3d",
						"label": "price",
						"offset": 0,
						"slot": "12",
						"type": "t_uint256"
					}
				],
				"types": {
					"t_address": {
						"encoding": "inplace",
						"label": "address",
						"numberOfBytes": "20"
					},
					"t_contract(ERC20)1030": {
						"encoding": "inplace",
						"label": "contract ERC20",
						"numberOfBytes": "20"
					},
					"t_contract(Register)1828": {
						"encoding": "inplace",
						"label": "contract Register",
						"numberOfBytes": "20"
					},
					"t_mapping(t_address,t_uint256)": {
						"encoding": "mapping",
						"key": "t_address",
						"label": "mapping(address => uint256)",
						"numberOfBytes": "32",
						"value": "t_uint256"
					},
					"t_mapping(t_uint32,t_struct(HistoryInfo)1234_storage)": {
						"encoding": "mapping",
						"key": "t_uint32",
						"label": "mapping(uint32 => struct IFomo3d.HistoryInfo)",
						"numberOfBytes": "32",
						"value": "t_struct(HistoryInfo)1234_storage"
					},
					"t_struct(HistoryInfo)1234_storage": {
						"encoding": "inplace",
						"label": "struct IFomo3d.HistoryInfo",
						"members": [
							{
								"astId": 1229,
								"contract": "contracts/periphery/Fomo3d.sol:Fomo3d",
								"label": "user",
								"offset": 0,
								"slot": "0",
								"type": "t_address"
							},
							{
								"astId": 1231,
								"contract": "contracts/periphery/Fomo3d.sol:Fomo3d",
								"label": "value",
								"offset": 0,
								"slot": "1",
								"type": "t_uint256"
							},
							{
								"astId": 1233,
								"contract": "contracts/periphery/Fomo3d.sol:Fomo3d",
								"label": "amount",
								"offset": 0,
								"slot": "2",
								"type": "t_uint256"
							}
						],
						"numberOfBytes": "96"
					},
					"t_uint256": {
						"encoding": "inplace",
						"label": "uint256",
						"numberOfBytes": "32"
					},
					"t_uint32": {
						"encoding": "inplace",
						"label": "uint32",
						"numberOfBytes": "4"
					}
				}
			},
			"userdoc": {
				"kind": "user",
				"methods": {
					"claim()": {
						"notice": "Withdraw all the value from the unclaim part"
					},
					"deposit(address,uint256,uint256)": {
						"notice": "Deposit from the userOnly the admin role can call this function"
					},
					"getCurrentHistoryNonce()": {
						"notice": "get history current nonce. (The nonce of the last history)"
					},
					"getHistory(uint32)": {
						"notice": "get history info with nonce"
					},
					"getPredict(address,uint256)": {
						"notice": "Return how much the user can get when he put more amount here"
					},
					"getUnclaim(address)": {
						"notice": "get user info"
					}
				},
				"version": 1
			}
		}
	}
}