{
	"contracts/periphery/Fomo3d_flattened.sol": {
		"Register": {
			"abi": [
				{
					"inputs": [
						{
							"internalType": "address",
							"name": "_initialAdmin",
							"type": "address"
						}
					],
					"stateMutability": "nonpayable",
					"type": "constructor"
				},
				{
					"inputs": [],
					"name": "AccessControlBadConfirmation",
					"type": "error"
				},
				{
					"inputs": [
						{
							"internalType": "address",
							"name": "account",
							"type": "address"
						},
						{
							"internalType": "bytes32",
							"name": "neededRole",
							"type": "bytes32"
						}
					],
					"name": "AccessControlUnauthorizedAccount",
					"type": "error"
				},
				{
					"anonymous": false,
					"inputs": [
						{
							"indexed": true,
							"internalType": "bytes32",
							"name": "role",
							"type": "bytes32"
						},
						{
							"indexed": true,
							"internalType": "bytes32",
							"name": "previousAdminRole",
							"type": "bytes32"
						},
						{
							"indexed": true,
							"internalType": "bytes32",
							"name": "newAdminRole",
							"type": "bytes32"
						}
					],
					"name": "RoleAdminChanged",
					"type": "event"
				},
				{
					"anonymous": false,
					"inputs": [
						{
							"indexed": true,
							"internalType": "bytes32",
							"name": "role",
							"type": "bytes32"
						},
						{
							"indexed": true,
							"internalType": "address",
							"name": "account",
							"type": "address"
						},
						{
							"indexed": true,
							"internalType": "address",
							"name": "sender",
							"type": "address"
						}
					],
					"name": "RoleGranted",
					"type": "event"
				},
				{
					"anonymous": false,
					"inputs": [
						{
							"indexed": true,
							"internalType": "bytes32",
							"name": "role",
							"type": "bytes32"
						},
						{
							"indexed": true,
							"internalType": "address",
							"name": "account",
							"type": "address"
						},
						{
							"indexed": true,
							"internalType": "address",
							"name": "sender",
							"type": "address"
						}
					],
					"name": "RoleRevoked",
					"type": "event"
				},
				{
					"inputs": [],
					"name": "DEFAULT_ADMIN_ROLE",
					"outputs": [
						{
							"internalType": "bytes32",
							"name": "",
							"type": "bytes32"
						}
					],
					"stateMutability": "view",
					"type": "function"
				},
				{
					"inputs": [],
					"name": "DRAW",
					"outputs": [
						{
							"internalType": "bytes32",
							"name": "",
							"type": "bytes32"
						}
					],
					"stateMutability": "view",
					"type": "function"
				},
				{
					"inputs": [],
					"name": "FOMO3D",
					"outputs": [
						{
							"internalType": "bytes32",
							"name": "",
							"type": "bytes32"
						}
					],
					"stateMutability": "view",
					"type": "function"
				},
				{
					"inputs": [],
					"name": "JACKPOT",
					"outputs": [
						{
							"internalType": "bytes32",
							"name": "",
							"type": "bytes32"
						}
					],
					"stateMutability": "view",
					"type": "function"
				},
				{
					"inputs": [],
					"name": "MARKET",
					"outputs": [
						{
							"internalType": "bytes32",
							"name": "",
							"type": "bytes32"
						}
					],
					"stateMutability": "view",
					"type": "function"
				},
				{
					"inputs": [],
					"name": "PRIZE_ITEMS",
					"outputs": [
						{
							"internalType": "bytes32",
							"name": "",
							"type": "bytes32"
						}
					],
					"stateMutability": "view",
					"type": "function"
				},
				{
					"inputs": [],
					"name": "REFERRAL",
					"outputs": [
						{
							"internalType": "bytes32",
							"name": "",
							"type": "bytes32"
						}
					],
					"stateMutability": "view",
					"type": "function"
				},
				{
					"inputs": [],
					"name": "TOKEN",
					"outputs": [
						{
							"internalType": "bytes32",
							"name": "",
							"type": "bytes32"
						}
					],
					"stateMutability": "view",
					"type": "function"
				},
				{
					"inputs": [],
					"name": "VRF",
					"outputs": [
						{
							"internalType": "bytes32",
							"name": "",
							"type": "bytes32"
						}
					],
					"stateMutability": "view",
					"type": "function"
				},
				{
					"inputs": [
						{
							"internalType": "bytes32",
							"name": "_role",
							"type": "bytes32"
						},
						{
							"internalType": "address",
							"name": "_account",
							"type": "address"
						}
					],
					"name": "checkRole",
					"outputs": [],
					"stateMutability": "view",
					"type": "function"
				},
				{
					"inputs": [
						{
							"internalType": "bytes32",
							"name": "",
							"type": "bytes32"
						}
					],
					"name": "currentContract",
					"outputs": [
						{
							"internalType": "address",
							"name": "",
							"type": "address"
						}
					],
					"stateMutability": "view",
					"type": "function"
				},
				{
					"inputs": [
						{
							"internalType": "bytes32",
							"name": "_role",
							"type": "bytes32"
						}
					],
					"name": "getContract",
					"outputs": [
						{
							"internalType": "address",
							"name": "",
							"type": "address"
						}
					],
					"stateMutability": "view",
					"type": "function"
				},
				{
					"inputs": [
						{
							"internalType": "bytes32",
							"name": "role",
							"type": "bytes32"
						}
					],
					"name": "getRoleAdmin",
					"outputs": [
						{
							"internalType": "bytes32",
							"name": "",
							"type": "bytes32"
						}
					],
					"stateMutability": "view",
					"type": "function"
				},
				{
					"inputs": [
						{
							"internalType": "bytes32",
							"name": "role",
							"type": "bytes32"
						},
						{
							"internalType": "address",
							"name": "account",
							"type": "address"
						}
					],
					"name": "grantRole",
					"outputs": [],
					"stateMutability": "nonpayable",
					"type": "function"
				},
				{
					"inputs": [
						{
							"internalType": "bytes32",
							"name": "role",
							"type": "bytes32"
						},
						{
							"internalType": "address",
							"name": "account",
							"type": "address"
						}
					],
					"name": "hasRole",
					"outputs": [
						{
							"internalType": "bool",
							"name": "",
							"type": "bool"
						}
					],
					"stateMutability": "view",
					"type": "function"
				},
				{
					"inputs": [
						{
							"internalType": "bytes32",
							"name": "role",
							"type": "bytes32"
						},
						{
							"internalType": "address",
							"name": "callerConfirmation",
							"type": "address"
						}
					],
					"name": "renounceRole",
					"outputs": [],
					"stateMutability": "nonpayable",
					"type": "function"
				},
				{
					"inputs": [
						{
							"internalType": "bytes32",
							"name": "role",
							"type": "bytes32"
						},
						{
							"internalType": "address",
							"name": "account",
							"type": "address"
						}
					],
					"name": "revokeRole",
					"outputs": [],
					"stateMutability": "nonpayable",
					"type": "function"
				},
				{
					"inputs": [
						{
							"internalType": "bytes4",
							"name": "interfaceId",
							"type": "bytes4"
						}
					],
					"name": "supportsInterface",
					"outputs": [
						{
							"internalType": "bool",
							"name": "",
							"type": "bool"
						}
					],
					"stateMutability": "view",
					"type": "function"
				}
			],
			"devdoc": {
				"errors": {
					"AccessControlBadConfirmation()": [
						{
							"details": "The caller of a function is not the expected one. NOTE: Don't confuse with {AccessControlUnauthorizedAccount}."
						}
					],
					"AccessControlUnauthorizedAccount(address,bytes32)": [
						{
							"details": "The `account` is missing a role."
						}
					]
				},
				"events": {
					"RoleAdminChanged(bytes32,bytes32,bytes32)": {
						"details": "Emitted when `newAdminRole` is set as ``role``'s admin role, replacing `previousAdminRole` `DEFAULT_ADMIN_ROLE` is the starting admin for all roles, despite {RoleAdminChanged} not being emitted signaling this."
					},
					"RoleGranted(bytes32,address,address)": {
						"details": "Emitted when `account` is granted `role`. `sender` is the account that originated the contract call, an admin role bearer except when using {AccessControl-_setupRole}."
					},
					"RoleRevoked(bytes32,address,address)": {
						"details": "Emitted when `account` is revoked `role`. `sender` is the account that originated the contract call:   - if using `revokeRole`, it is the admin role bearer   - if using `renounceRole`, it is the role bearer (i.e. `account`)"
					}
				},
				"kind": "dev",
				"methods": {
					"getRoleAdmin(bytes32)": {
						"details": "Returns the admin role that controls `role`. See {grantRole} and {revokeRole}. To change a role's admin, use {_setRoleAdmin}."
					},
					"grantRole(bytes32,address)": {
						"details": "Grants `role` to `account`. If `account` had not been already granted `role`, emits a {RoleGranted} event. Requirements: - the caller must have ``role``'s admin role. May emit a {RoleGranted} event."
					},
					"hasRole(bytes32,address)": {
						"details": "Returns `true` if `account` has been granted `role`."
					},
					"renounceRole(bytes32,address)": {
						"details": "Revokes `role` from the calling account. Roles are often managed via {grantRole} and {revokeRole}: this function's purpose is to provide a mechanism for accounts to lose their privileges if they are compromised (such as when a trusted device is misplaced). If the calling account had been revoked `role`, emits a {RoleRevoked} event. Requirements: - the caller must be `callerConfirmation`. May emit a {RoleRevoked} event."
					},
					"revokeRole(bytes32,address)": {
						"details": "Revokes `role` from `account`. If `account` had been granted `role`, emits a {RoleRevoked} event. Requirements: - the caller must have ``role``'s admin role. May emit a {RoleRevoked} event."
					},
					"supportsInterface(bytes4)": {
						"details": "See {IERC165-supportsInterface}."
					}
				},
				"version": 1
			},
			"evm": {
				"assembly": "    /* \"contracts/periphery/Fomo3d_flattened.sol\":21593:22732  contract Register is AccessControl{... */\n  mstore(0x40, 0x80)\n    /* \"contracts/periphery/Fomo3d_flattened.sol\":22173:22270  constructor(address _initialAdmin) {... */\n  callvalue\n  dup1\n  iszero\n  tag_1\n  jumpi\n  0x00\n  dup1\n  revert\ntag_1:\n  pop\n  mload(0x40)\n  sub(codesize, bytecodeSize)\n  dup1\n  bytecodeSize\n  dup4\n  codecopy\n  dup2\n  dup2\n  add\n  0x40\n  mstore\n  dup2\n  add\n  swap1\n  tag_2\n  swap2\n  swap1\n  tag_3\n  jump\t// in\ntag_2:\n    /* \"contracts/periphery/Fomo3d_flattened.sol\":22218:22263  _grantRole(DEFAULT_ADMIN_ROLE, _initialAdmin) */\n  tag_6\n    /* \"contracts/periphery/Fomo3d_flattened.sol\":16702:16706  0x00 */\n  0x00\n    /* \"contracts/periphery/Fomo3d_flattened.sol\":22229:22247  DEFAULT_ADMIN_ROLE */\n  dup1\n  shl\n    /* \"contracts/periphery/Fomo3d_flattened.sol\":22249:22262  _initialAdmin */\n  dup3\n    /* \"contracts/periphery/Fomo3d_flattened.sol\":22218:22228  _grantRole */\n  shl(0x20, tag_7)\n    /* \"contracts/periphery/Fomo3d_flattened.sol\":22218:22263  _grantRole(DEFAULT_ADMIN_ROLE, _initialAdmin) */\n  0x20\n  shr\n  jump\t// in\ntag_6:\n  pop\n    /* \"contracts/periphery/Fomo3d_flattened.sol\":22173:22270  constructor(address _initialAdmin) {... */\n  pop\n    /* \"contracts/periphery/Fomo3d_flattened.sol\":21593:22732  contract Register is AccessControl{... */\n  jump(tag_8)\n    /* \"contracts/periphery/Fomo3d_flattened.sol\":20649:20965  function _grantRole(bytes32 role, address account) internal virtual returns (bool) {... */\ntag_7:\n    /* \"contracts/periphery/Fomo3d_flattened.sol\":20726:20730  bool */\n  0x00\n    /* \"contracts/periphery/Fomo3d_flattened.sol\":20747:20769  hasRole(role, account) */\n  tag_10\n    /* \"contracts/periphery/Fomo3d_flattened.sol\":20755:20759  role */\n  dup4\n    /* \"contracts/periphery/Fomo3d_flattened.sol\":20761:20768  account */\n  dup4\n    /* \"contracts/periphery/Fomo3d_flattened.sol\":20747:20754  hasRole */\n  shl(0x20, tag_11)\n    /* \"contracts/periphery/Fomo3d_flattened.sol\":20747:20769  hasRole(role, account) */\n  0x20\n  shr\n  jump\t// in\ntag_10:\n    /* \"contracts/periphery/Fomo3d_flattened.sol\":20742:20959  if (!hasRole(role, account)) {... */\n  tag_12\n  jumpi\n    /* \"contracts/periphery/Fomo3d_flattened.sol\":20817:20821  true */\n  0x01\n    /* \"contracts/periphery/Fomo3d_flattened.sol\":20785:20791  _roles */\n  0x00\n    /* \"contracts/periphery/Fomo3d_flattened.sol\":20785:20797  _roles[role] */\n  dup1\n    /* \"contracts/periphery/Fomo3d_flattened.sol\":20792:20796  role */\n  dup6\n    /* \"contracts/periphery/Fomo3d_flattened.sol\":20785:20797  _roles[role] */\n  dup2\n  mstore\n  0x20\n  add\n  swap1\n  dup2\n  mstore\n  0x20\n  add\n  0x00\n  keccak256\n    /* \"contracts/periphery/Fomo3d_flattened.sol\":20785:20805  _roles[role].hasRole */\n  0x00\n  add\n    /* \"contracts/periphery/Fomo3d_flattened.sol\":20785:20814  _roles[role].hasRole[account] */\n  0x00\n    /* \"contracts/periphery/Fomo3d_flattened.sol\":20806:20813  account */\n  dup5\n    /* \"contracts/periphery/Fomo3d_flattened.sol\":20785:20814  _roles[role].hasRole[account] */\n  0xffffffffffffffffffffffffffffffffffffffff\n  and\n  0xffffffffffffffffffffffffffffffffffffffff\n  and\n  dup2\n  mstore\n  0x20\n  add\n  swap1\n  dup2\n  mstore\n  0x20\n  add\n  0x00\n  keccak256\n  0x00\n    /* \"contracts/periphery/Fomo3d_flattened.sol\":20785:20821  _roles[role].hasRole[account] = true */\n  0x0100\n  exp\n  dup2\n  sload\n  dup2\n  0xff\n  mul\n  not\n  and\n  swap1\n  dup4\n  iszero\n  iszero\n  mul\n  or\n  swap1\n  sstore\n  pop\n    /* \"contracts/periphery/Fomo3d_flattened.sol\":20867:20879  _msgSender() */\n  tag_13\n    /* \"contracts/periphery/Fomo3d_flattened.sol\":20867:20877  _msgSender */\n  shl(0x20, tag_14)\n    /* \"contracts/periphery/Fomo3d_flattened.sol\":20867:20879  _msgSender() */\n  0x20\n  shr\n  jump\t// in\ntag_13:\n    /* \"contracts/periphery/Fomo3d_flattened.sol\":20840:20880  RoleGranted(role, account, _msgSender()) */\n  0xffffffffffffffffffffffffffffffffffffffff\n  and\n    /* \"contracts/periphery/Fomo3d_flattened.sol\":20858:20865  account */\n  dup3\n    /* \"contracts/periphery/Fomo3d_flattened.sol\":20840:20880  RoleGranted(role, account, _msgSender()) */\n  0xffffffffffffffffffffffffffffffffffffffff\n  and\n    /* \"contracts/periphery/Fomo3d_flattened.sol\":20852:20856  role */\n  dup5\n    /* \"contracts/periphery/Fomo3d_flattened.sol\":20840:20880  RoleGranted(role, account, _msgSender()) */\n  0x2f8788117e7eff1d82e926ec794901d17c78024a50270940304540a733656f0d\n  mload(0x40)\n  mload(0x40)\n  dup1\n  swap2\n  sub\n  swap1\n  log4\n    /* \"contracts/periphery/Fomo3d_flattened.sol\":20901:20905  true */\n  0x01\n    /* \"contracts/periphery/Fomo3d_flattened.sol\":20894:20905  return true */\n  swap1\n  pop\n  jump(tag_9)\n    /* \"contracts/periphery/Fomo3d_flattened.sol\":20742:20959  if (!hasRole(role, account)) {... */\ntag_12:\n    /* \"contracts/periphery/Fomo3d_flattened.sol\":20943:20948  false */\n  0x00\n    /* \"contracts/periphery/Fomo3d_flattened.sol\":20936:20948  return false */\n  swap1\n  pop\n    /* \"contracts/periphery/Fomo3d_flattened.sol\":20649:20965  function _grantRole(bytes32 role, address account) internal virtual returns (bool) {... */\ntag_9:\n  swap3\n  swap2\n  pop\n  pop\n  jump\t// out\n    /* \"contracts/periphery/Fomo3d_flattened.sol\":17324:17460  function hasRole(bytes32 role, address account) public view virtual returns (bool) {... */\ntag_11:\n    /* \"contracts/periphery/Fomo3d_flattened.sol\":17401:17405  bool */\n  0x00\n    /* \"contracts/periphery/Fomo3d_flattened.sol\":17424:17430  _roles */\n  dup1\n    /* \"contracts/periphery/Fomo3d_flattened.sol\":17424:17436  _roles[role] */\n  0x00\n    /* \"contracts/periphery/Fomo3d_flattened.sol\":17431:17435  role */\n  dup5\n    /* \"contracts/periphery/Fomo3d_flattened.sol\":17424:17436  _roles[role] */\n  dup2\n  mstore\n  0x20\n  add\n  swap1\n  dup2\n  mstore\n  0x20\n  add\n  0x00\n  keccak256\n    /* \"contracts/periphery/Fomo3d_flattened.sol\":17424:17444  _roles[role].hasRole */\n  0x00\n  add\n    /* \"contracts/periphery/Fomo3d_flattened.sol\":17424:17453  _roles[role].hasRole[account] */\n  0x00\n    /* \"contracts/periphery/Fomo3d_flattened.sol\":17445:17452  account */\n  dup4\n    /* \"contracts/periphery/Fomo3d_flattened.sol\":17424:17453  _roles[role].hasRole[account] */\n  0xffffffffffffffffffffffffffffffffffffffff\n  and\n  0xffffffffffffffffffffffffffffffffffffffff\n  and\n  dup2\n  mstore\n  0x20\n  add\n  swap1\n  dup2\n  mstore\n  0x20\n  add\n  0x00\n  keccak256\n  0x00\n  swap1\n  sload\n  swap1\n  0x0100\n  exp\n  swap1\n  div\n  0xff\n  and\n    /* \"contracts/periphery/Fomo3d_flattened.sol\":17417:17453  return _roles[role].hasRole[account] */\n  swap1\n  pop\n    /* \"contracts/periphery/Fomo3d_flattened.sol\":17324:17460  function hasRole(bytes32 role, address account) public view virtual returns (bool) {... */\n  swap3\n  swap2\n  pop\n  pop\n  jump\t// out\n    /* \"contracts/periphery/Fomo3d_flattened.sol\":14289:14385  function _msgSender() internal view virtual returns (address) {... */\ntag_14:\n    /* \"contracts/periphery/Fomo3d_flattened.sol\":14342:14349  address */\n  0x00\n    /* \"contracts/periphery/Fomo3d_flattened.sol\":14368:14378  msg.sender */\n  caller\n    /* \"contracts/periphery/Fomo3d_flattened.sol\":14361:14378  return msg.sender */\n  swap1\n  pop\n    /* \"contracts/periphery/Fomo3d_flattened.sol\":14289:14385  function _msgSender() internal view virtual returns (address) {... */\n  swap1\n  jump\t// out\n    /* \"#utility.yul\":88:205   */\ntag_19:\n    /* \"#utility.yul\":197:198   */\n  0x00\n    /* \"#utility.yul\":194:195   */\n  dup1\n    /* \"#utility.yul\":187:199   */\n  revert\n    /* \"#utility.yul\":334:460   */\ntag_21:\n    /* \"#utility.yul\":371:378   */\n  0x00\n    /* \"#utility.yul\":411:453   */\n  0xffffffffffffffffffffffffffffffffffffffff\n    /* \"#utility.yul\":404:409   */\n  dup3\n    /* \"#utility.yul\":400:454   */\n  and\n    /* \"#utility.yul\":389:454   */\n  swap1\n  pop\n    /* \"#utility.yul\":334:460   */\n  swap2\n  swap1\n  pop\n  jump\t// out\n    /* \"#utility.yul\":466:562   */\ntag_22:\n    /* \"#utility.yul\":503:510   */\n  0x00\n    /* \"#utility.yul\":532:556   */\n  tag_31\n    /* \"#utility.yul\":550:555   */\n  dup3\n    /* \"#utility.yul\":532:556   */\n  tag_21\n  jump\t// in\ntag_31:\n    /* \"#utility.yul\":521:556   */\n  swap1\n  pop\n    /* \"#utility.yul\":466:562   */\n  swap2\n  swap1\n  pop\n  jump\t// out\n    /* \"#utility.yul\":568:690   */\ntag_23:\n    /* \"#utility.yul\":641:665   */\n  tag_33\n    /* \"#utility.yul\":659:664   */\n  dup2\n    /* \"#utility.yul\":641:665   */\n  tag_22\n  jump\t// in\ntag_33:\n    /* \"#utility.yul\":634:639   */\n  dup2\n    /* \"#utility.yul\":631:666   */\n  eq\n    /* \"#utility.yul\":621:684   */\n  tag_34\n  jumpi\n    /* \"#utility.yul\":680:681   */\n  0x00\n    /* \"#utility.yul\":677:678   */\n  dup1\n    /* \"#utility.yul\":670:682   */\n  revert\n    /* \"#utility.yul\":621:684   */\ntag_34:\n    /* \"#utility.yul\":568:690   */\n  pop\n  jump\t// out\n    /* \"#utility.yul\":696:839   */\ntag_24:\n    /* \"#utility.yul\":753:758   */\n  0x00\n    /* \"#utility.yul\":784:790   */\n  dup2\n    /* \"#utility.yul\":778:791   */\n  mload\n    /* \"#utility.yul\":769:791   */\n  swap1\n  pop\n    /* \"#utility.yul\":800:833   */\n  tag_36\n    /* \"#utility.yul\":827:832   */\n  dup2\n    /* \"#utility.yul\":800:833   */\n  tag_23\n  jump\t// in\ntag_36:\n    /* \"#utility.yul\":696:839   */\n  swap3\n  swap2\n  pop\n  pop\n  jump\t// out\n    /* \"#utility.yul\":845:1196   */\ntag_3:\n    /* \"#utility.yul\":915:921   */\n  0x00\n    /* \"#utility.yul\":964:966   */\n  0x20\n    /* \"#utility.yul\":952:961   */\n  dup3\n    /* \"#utility.yul\":943:950   */\n  dup5\n    /* \"#utility.yul\":939:962   */\n  sub\n    /* \"#utility.yul\":935:967   */\n  slt\n    /* \"#utility.yul\":932:1051   */\n  iszero\n  tag_38\n  jumpi\n    /* \"#utility.yul\":970:1049   */\n  tag_39\n  tag_19\n  jump\t// in\ntag_39:\n    /* \"#utility.yul\":932:1051   */\ntag_38:\n    /* \"#utility.yul\":1090:1091   */\n  0x00\n    /* \"#utility.yul\":1115:1179   */\n  tag_40\n    /* \"#utility.yul\":1171:1178   */\n  dup5\n    /* \"#utility.yul\":1162:1168   */\n  dup3\n    /* \"#utility.yul\":1151:1160   */\n  dup6\n    /* \"#utility.yul\":1147:1169   */\n  add\n    /* \"#utility.yul\":1115:1179   */\n  tag_24\n  jump\t// in\ntag_40:\n    /* \"#utility.yul\":1105:1179   */\n  swap2\n  pop\n    /* \"#utility.yul\":1061:1189   */\n  pop\n    /* \"#utility.yul\":845:1196   */\n  swap3\n  swap2\n  pop\n  pop\n  jump\t// out\n    /* \"contracts/periphery/Fomo3d_flattened.sol\":21593:22732  contract Register is AccessControl{... */\ntag_8:\n  dataSize(sub_0)\n  dup1\n  dataOffset(sub_0)\n  0x00\n  codecopy\n  0x00\n  return\nstop\n\nsub_0: assembly {\n        /* \"contracts/periphery/Fomo3d_flattened.sol\":21593:22732  contract Register is AccessControl{... */\n      mstore(0x40, 0x80)\n      callvalue\n      dup1\n      iszero\n      tag_1\n      jumpi\n      0x00\n      dup1\n      revert\n    tag_1:\n      pop\n      jumpi(tag_2, lt(calldatasize, 0x04))\n      shr(0xe0, calldataload(0x00))\n      dup1\n      0x74d16f5c\n      gt\n      tag_21\n      jumpi\n      dup1\n      0xa217fddf\n      gt\n      tag_22\n      jumpi\n      dup1\n      0xa217fddf\n      eq\n      tag_16\n      jumpi\n      dup1\n      0xc63568c7\n      eq\n      tag_17\n      jumpi\n      dup1\n      0xd547741f\n      eq\n      tag_18\n      jumpi\n      dup1\n      0xe16c7d98\n      eq\n      tag_19\n      jumpi\n      dup1\n      0xf46f16c2\n      eq\n      tag_20\n      jumpi\n      jump(tag_2)\n    tag_22:\n      dup1\n      0x74d16f5c\n      eq\n      tag_12\n      jumpi\n      dup1\n      0x82bfefc8\n      eq\n      tag_13\n      jumpi\n      dup1\n      0x91d14854\n      eq\n      tag_14\n      jumpi\n      dup1\n      0xa126285b\n      eq\n      tag_15\n      jumpi\n      jump(tag_2)\n    tag_21:\n      dup1\n      0x2f2ff15d\n      gt\n      tag_23\n      jumpi\n      dup1\n      0x2f2ff15d\n      eq\n      tag_7\n      jumpi\n      dup1\n      0x36568abe\n      eq\n      tag_8\n      jumpi\n      dup1\n      0x43c5cd74\n      eq\n      tag_9\n      jumpi\n      dup1\n      0x4e2164c9\n      eq\n      tag_10\n      jumpi\n      dup1\n      0x619d36ef\n      eq\n      tag_11\n      jumpi\n      jump(tag_2)\n    tag_23:\n      dup1\n      0x01ffc9a7\n      eq\n      tag_3\n      jumpi\n      dup1\n      0x12d9a6ad\n      eq\n      tag_4\n      jumpi\n      dup1\n      0x20987a7e\n      eq\n      tag_5\n      jumpi\n      dup1\n      0x248a9ca3\n      eq\n      tag_6\n      jumpi\n    tag_2:\n      0x00\n      dup1\n      revert\n        /* \"contracts/periphery/Fomo3d_flattened.sol\":17035:17237  function supportsInterface(bytes4 interfaceId) public view virtual override returns (bool) {... */\n    tag_3:\n      tag_24\n      0x04\n      dup1\n      calldatasize\n      sub\n      dup2\n      add\n      swap1\n      tag_25\n      swap2\n      swap1\n      tag_26\n      jump\t// in\n    tag_25:\n      tag_27\n      jump\t// in\n    tag_24:\n      mload(0x40)\n      tag_28\n      swap2\n      swap1\n      tag_29\n      jump\t// in\n    tag_28:\n      mload(0x40)\n      dup1\n      swap2\n      sub\n      swap1\n      return\n        /* \"contracts/periphery/Fomo3d_flattened.sol\":22463:22603  function checkRole(bytes32 _role, address _account) public view {... */\n    tag_4:\n      tag_30\n      0x04\n      dup1\n      calldatasize\n      sub\n      dup2\n      add\n      swap1\n      tag_31\n      swap2\n      swap1\n      tag_32\n      jump\t// in\n    tag_31:\n      tag_33\n      jump\t// in\n    tag_30:\n      stop\n        /* \"contracts/periphery/Fomo3d_flattened.sol\":21822:21884  bytes32 public constant PRIZE_ITEMS = keccak256(\"PRIZE_ITEMS\") */\n    tag_5:\n      tag_34\n      tag_35\n      jump\t// in\n    tag_34:\n      mload(0x40)\n      tag_36\n      swap2\n      swap1\n      tag_37\n      jump\t// in\n    tag_36:\n      mload(0x40)\n      dup1\n      swap2\n      sub\n      swap1\n      return\n        /* \"contracts/periphery/Fomo3d_flattened.sol\":18280:18400  function getRoleAdmin(bytes32 role) public view virtual returns (bytes32) {... */\n    tag_6:\n      tag_38\n      0x04\n      dup1\n      calldatasize\n      sub\n      dup2\n      add\n      swap1\n      tag_39\n      swap2\n      swap1\n      tag_40\n      jump\t// in\n    tag_39:\n      tag_41\n      jump\t// in\n    tag_38:\n      mload(0x40)\n      tag_42\n      swap2\n      swap1\n      tag_37\n      jump\t// in\n    tag_42:\n      mload(0x40)\n      dup1\n      swap2\n      sub\n      swap1\n      return\n        /* \"contracts/periphery/Fomo3d_flattened.sol\":22276:22453  function grantRole(bytes32 role, address account) public override onlyRole(getRoleAdmin(role)){... */\n    tag_7:\n      tag_43\n      0x04\n      dup1\n      calldatasize\n      sub\n      dup2\n      add\n      swap1\n      tag_44\n      swap2\n      swap1\n      tag_32\n      jump\t// in\n    tag_44:\n      tag_45\n      jump\t// in\n    tag_43:\n      stop\n        /* \"contracts/periphery/Fomo3d_flattened.sol\":19798:20043  function renounceRole(bytes32 role, address callerConfirmation) public virtual {... */\n    tag_8:\n      tag_46\n      0x04\n      dup1\n      calldatasize\n      sub\n      dup2\n      add\n      swap1\n      tag_47\n      swap2\n      swap1\n      tag_32\n      jump\t// in\n    tag_47:\n      tag_48\n      jump\t// in\n    tag_46:\n      stop\n        /* \"contracts/periphery/Fomo3d_flattened.sol\":21704:21758  bytes32 public constant JACKPOT = keccak256(\"JACKPOT\") */\n    tag_9:\n      tag_49\n      tag_50\n      jump\t// in\n    tag_49:\n      mload(0x40)\n      tag_51\n      swap2\n      swap1\n      tag_37\n      jump\t// in\n    tag_51:\n      mload(0x40)\n      dup1\n      swap2\n      sub\n      swap1\n      return\n        /* \"contracts/periphery/Fomo3d_flattened.sol\":21646:21698  bytes32 public constant FOMO3D = keccak256(\"FOMO3D\") */\n    tag_10:\n      tag_52\n      tag_53\n      jump\t// in\n    tag_52:\n      mload(0x40)\n      tag_54\n      swap2\n      swap1\n      tag_37\n      jump\t// in\n    tag_54:\n      mload(0x40)\n      dup1\n      swap2\n      sub\n      swap1\n      return\n        /* \"contracts/periphery/Fomo3d_flattened.sol\":22060:22108  bytes32 public constant DRAW = keccak256(\"DRAW\") */\n    tag_11:\n      tag_55\n      tag_56\n      jump\t// in\n    tag_55:\n      mload(0x40)\n      tag_57\n      swap2\n      swap1\n      tag_37\n      jump\t// in\n    tag_57:\n      mload(0x40)\n      dup1\n      swap2\n      sub\n      swap1\n      return\n        /* \"contracts/periphery/Fomo3d_flattened.sol\":22115:22166  mapping (bytes32 => address) public currentContract */\n    tag_12:\n      tag_58\n      0x04\n      dup1\n      calldatasize\n      sub\n      dup2\n      add\n      swap1\n      tag_59\n      swap2\n      swap1\n      tag_40\n      jump\t// in\n    tag_59:\n      tag_60\n      jump\t// in\n    tag_58:\n      mload(0x40)\n      tag_61\n      swap2\n      swap1\n      tag_62\n      jump\t// in\n    tag_61:\n      mload(0x40)\n      dup1\n      swap2\n      sub\n      swap1\n      return\n        /* \"contracts/periphery/Fomo3d_flattened.sol\":22004:22054  bytes32 public constant TOKEN = keccak256(\"TOKEN\") */\n    tag_13:\n      tag_63\n      tag_64\n      jump\t// in\n    tag_63:\n      mload(0x40)\n      tag_65\n      swap2\n      swap1\n      tag_37\n      jump\t// in\n    tag_65:\n      mload(0x40)\n      dup1\n      swap2\n      sub\n      swap1\n      return\n        /* \"contracts/periphery/Fomo3d_flattened.sol\":17324:17460  function hasRole(bytes32 role, address account) public view virtual returns (bool) {... */\n    tag_14:\n      tag_66\n      0x04\n      dup1\n      calldatasize\n      sub\n      dup2\n      add\n      swap1\n      tag_67\n      swap2\n      swap1\n      tag_32\n      jump\t// in\n    tag_67:\n      tag_68\n      jump\t// in\n    tag_66:\n      mload(0x40)\n      tag_69\n      swap2\n      swap1\n      tag_29\n      jump\t// in\n    tag_69:\n      mload(0x40)\n      dup1\n      swap2\n      sub\n      swap1\n      return\n        /* \"contracts/periphery/Fomo3d_flattened.sol\":21952:21998  bytes32 public constant VRF = keccak256(\"VRF\") */\n    tag_15:\n      tag_70\n      tag_71\n      jump\t// in\n    tag_70:\n      mload(0x40)\n      tag_72\n      swap2\n      swap1\n      tag_37\n      jump\t// in\n    tag_72:\n      mload(0x40)\n      dup1\n      swap2\n      sub\n      swap1\n      return\n        /* \"contracts/periphery/Fomo3d_flattened.sol\":16657:16706  bytes32 public constant DEFAULT_ADMIN_ROLE = 0x00 */\n    tag_16:\n      tag_73\n      tag_74\n      jump\t// in\n    tag_73:\n      mload(0x40)\n      tag_75\n      swap2\n      swap1\n      tag_37\n      jump\t// in\n    tag_75:\n      mload(0x40)\n      dup1\n      swap2\n      sub\n      swap1\n      return\n        /* \"contracts/periphery/Fomo3d_flattened.sol\":21890:21946  bytes32 public constant REFERRAL = keccak256(\"REFERRAL\") */\n    tag_17:\n      tag_76\n      tag_77\n      jump\t// in\n    tag_76:\n      mload(0x40)\n      tag_78\n      swap2\n      swap1\n      tag_37\n      jump\t// in\n    tag_78:\n      mload(0x40)\n      dup1\n      swap2\n      sub\n      swap1\n      return\n        /* \"contracts/periphery/Fomo3d_flattened.sol\":19112:19250  function revokeRole(bytes32 role, address account) public virtual onlyRole(getRoleAdmin(role)) {... */\n    tag_18:\n      tag_79\n      0x04\n      dup1\n      calldatasize\n      sub\n      dup2\n      add\n      swap1\n      tag_80\n      swap2\n      swap1\n      tag_32\n      jump\t// in\n    tag_80:\n      tag_81\n      jump\t// in\n    tag_79:\n      stop\n        /* \"contracts/periphery/Fomo3d_flattened.sol\":22608:22719  function getContract(bytes32 _role) public view returns (address){... */\n    tag_19:\n      tag_82\n      0x04\n      dup1\n      calldatasize\n      sub\n      dup2\n      add\n      swap1\n      tag_83\n      swap2\n      swap1\n      tag_40\n      jump\t// in\n    tag_83:\n      tag_84\n      jump\t// in\n    tag_82:\n      mload(0x40)\n      tag_85\n      swap2\n      swap1\n      tag_62\n      jump\t// in\n    tag_85:\n      mload(0x40)\n      dup1\n      swap2\n      sub\n      swap1\n      return\n        /* \"contracts/periphery/Fomo3d_flattened.sol\":21764:21816  bytes32 public constant MARKET = keccak256(\"MARKET\") */\n    tag_20:\n      tag_86\n      tag_87\n      jump\t// in\n    tag_86:\n      mload(0x40)\n      tag_88\n      swap2\n      swap1\n      tag_37\n      jump\t// in\n    tag_88:\n      mload(0x40)\n      dup1\n      swap2\n      sub\n      swap1\n      return\n        /* \"contracts/periphery/Fomo3d_flattened.sol\":17035:17237  function supportsInterface(bytes4 interfaceId) public view virtual override returns (bool) {... */\n    tag_27:\n        /* \"contracts/periphery/Fomo3d_flattened.sol\":17120:17124  bool */\n      0x00\n        /* \"contracts/periphery/Fomo3d_flattened.sol\":17158:17190  type(IAccessControl).interfaceId */\n      0x7965db0b00000000000000000000000000000000000000000000000000000000\n        /* \"contracts/periphery/Fomo3d_flattened.sol\":17143:17190  interfaceId == type(IAccessControl).interfaceId */\n      not(0xffffffffffffffffffffffffffffffffffffffffffffffffffffffff)\n      and\n        /* \"contracts/periphery/Fomo3d_flattened.sol\":17143:17154  interfaceId */\n      dup3\n        /* \"contracts/periphery/Fomo3d_flattened.sol\":17143:17190  interfaceId == type(IAccessControl).interfaceId */\n      not(0xffffffffffffffffffffffffffffffffffffffffffffffffffffffff)\n      and\n      eq\n        /* \"contracts/periphery/Fomo3d_flattened.sol\":17143:17230  interfaceId == type(IAccessControl).interfaceId || super.supportsInterface(interfaceId) */\n      dup1\n      tag_90\n      jumpi\n      pop\n        /* \"contracts/periphery/Fomo3d_flattened.sol\":17194:17230  super.supportsInterface(interfaceId) */\n      tag_91\n        /* \"contracts/periphery/Fomo3d_flattened.sol\":17218:17229  interfaceId */\n      dup3\n        /* \"contracts/periphery/Fomo3d_flattened.sol\":17194:17217  super.supportsInterface */\n      tag_92\n        /* \"contracts/periphery/Fomo3d_flattened.sol\":17194:17230  super.supportsInterface(interfaceId) */\n      jump\t// in\n    tag_91:\n        /* \"contracts/periphery/Fomo3d_flattened.sol\":17143:17230  interfaceId == type(IAccessControl).interfaceId || super.supportsInterface(interfaceId) */\n    tag_90:\n        /* \"contracts/periphery/Fomo3d_flattened.sol\":17136:17230  return interfaceId == type(IAccessControl).interfaceId || super.supportsInterface(interfaceId) */\n      swap1\n      pop\n        /* \"contracts/periphery/Fomo3d_flattened.sol\":17035:17237  function supportsInterface(bytes4 interfaceId) public view virtual override returns (bool) {... */\n      swap2\n      swap1\n      pop\n      jump\t// out\n        /* \"contracts/periphery/Fomo3d_flattened.sol\":22463:22603  function checkRole(bytes32 _role, address _account) public view {... */\n    tag_33:\n        /* \"contracts/periphery/Fomo3d_flattened.sol\":22545:22569  hasRole(_role, _account) */\n      tag_94\n        /* \"contracts/periphery/Fomo3d_flattened.sol\":22553:22558  _role */\n      dup3\n        /* \"contracts/periphery/Fomo3d_flattened.sol\":22560:22568  _account */\n      dup3\n        /* \"contracts/periphery/Fomo3d_flattened.sol\":22545:22552  hasRole */\n      tag_68\n        /* \"contracts/periphery/Fomo3d_flattened.sol\":22545:22569  hasRole(_role, _account) */\n      jump\t// in\n    tag_94:\n        /* \"contracts/periphery/Fomo3d_flattened.sol\":22537:22596  require(hasRole(_role, _account), \"Register: INVALID_ROLE\") */\n      tag_95\n      jumpi\n      mload(0x40)\n      0x08c379a000000000000000000000000000000000000000000000000000000000\n      dup2\n      mstore\n      0x04\n      add\n      tag_96\n      swap1\n      tag_97\n      jump\t// in\n    tag_96:\n      mload(0x40)\n      dup1\n      swap2\n      sub\n      swap1\n      revert\n    tag_95:\n        /* \"contracts/periphery/Fomo3d_flattened.sol\":22463:22603  function checkRole(bytes32 _role, address _account) public view {... */\n      pop\n      pop\n      jump\t// out\n        /* \"contracts/periphery/Fomo3d_flattened.sol\":21822:21884  bytes32 public constant PRIZE_ITEMS = keccak256(\"PRIZE_ITEMS\") */\n    tag_35:\n        /* \"contracts/periphery/Fomo3d_flattened.sol\":21860:21884  keccak256(\"PRIZE_ITEMS\") */\n      0xdc56da5a1587a4cd75ea240b3d5cd7c4a0eaac792d95a49979f1c23a0cf8895f\n        /* \"contracts/periphery/Fomo3d_flattened.sol\":21822:21884  bytes32 public constant PRIZE_ITEMS = keccak256(\"PRIZE_ITEMS\") */\n      dup2\n      jump\t// out\n        /* \"contracts/periphery/Fomo3d_flattened.sol\":18280:18400  function getRoleAdmin(bytes32 role) public view virtual returns (bytes32) {... */\n    tag_41:\n        /* \"contracts/periphery/Fomo3d_flattened.sol\":18345:18352  bytes32 */\n      0x00\n        /* \"contracts/periphery/Fomo3d_flattened.sol\":18371:18377  _roles */\n      dup1\n        /* \"contracts/periphery/Fomo3d_flattened.sol\":18371:18383  _roles[role] */\n      0x00\n        /* \"contracts/periphery/Fomo3d_flattened.sol\":18378:18382  role */\n      dup4\n        /* \"contracts/periphery/Fomo3d_flattened.sol\":18371:18383  _roles[role] */\n      dup2\n      mstore\n      0x20\n      add\n      swap1\n      dup2\n      mstore\n      0x20\n      add\n      0x00\n      keccak256\n        /* \"contracts/periphery/Fomo3d_flattened.sol\":18371:18393  _roles[role].adminRole */\n      0x01\n      add\n      sload\n        /* \"contracts/periphery/Fomo3d_flattened.sol\":18364:18393  return _roles[role].adminRole */\n      swap1\n      pop\n        /* \"contracts/periphery/Fomo3d_flattened.sol\":18280:18400  function getRoleAdmin(bytes32 role) public view virtual returns (bytes32) {... */\n      swap2\n      swap1\n      pop\n      jump\t// out\n        /* \"contracts/periphery/Fomo3d_flattened.sol\":22276:22453  function grantRole(bytes32 role, address account) public override onlyRole(getRoleAdmin(role)){... */\n    tag_45:\n        /* \"contracts/periphery/Fomo3d_flattened.sol\":22351:22369  getRoleAdmin(role) */\n      tag_99\n        /* \"contracts/periphery/Fomo3d_flattened.sol\":22364:22368  role */\n      dup3\n        /* \"contracts/periphery/Fomo3d_flattened.sol\":22351:22363  getRoleAdmin */\n      tag_41\n        /* \"contracts/periphery/Fomo3d_flattened.sol\":22351:22369  getRoleAdmin(role) */\n      jump\t// in\n    tag_99:\n        /* \"contracts/periphery/Fomo3d_flattened.sol\":16934:16950  _checkRole(role) */\n      tag_101\n        /* \"contracts/periphery/Fomo3d_flattened.sol\":16945:16949  role */\n      dup2\n        /* \"contracts/periphery/Fomo3d_flattened.sol\":16934:16944  _checkRole */\n      tag_102\n        /* \"contracts/periphery/Fomo3d_flattened.sol\":16934:16950  _checkRole(role) */\n      jump\t// in\n    tag_101:\n        /* \"contracts/periphery/Fomo3d_flattened.sol\":22380:22405  _grantRole(role, account) */\n      tag_104\n        /* \"contracts/periphery/Fomo3d_flattened.sol\":22391:22395  role */\n      dup4\n        /* \"contracts/periphery/Fomo3d_flattened.sol\":22397:22404  account */\n      dup4\n        /* \"contracts/periphery/Fomo3d_flattened.sol\":22380:22390  _grantRole */\n      tag_105\n        /* \"contracts/periphery/Fomo3d_flattened.sol\":22380:22405  _grantRole(role, account) */\n      jump\t// in\n    tag_104:\n      pop\n        /* \"contracts/periphery/Fomo3d_flattened.sol\":22439:22446  account */\n      dup2\n        /* \"contracts/periphery/Fomo3d_flattened.sol\":22415:22430  currentContract */\n      0x01\n        /* \"contracts/periphery/Fomo3d_flattened.sol\":22415:22436  currentContract[role] */\n      0x00\n        /* \"contracts/periphery/Fomo3d_flattened.sol\":22431:22435  role */\n      dup6\n        /* \"contracts/periphery/Fomo3d_flattened.sol\":22415:22436  currentContract[role] */\n      dup2\n      mstore\n      0x20\n      add\n      swap1\n      dup2\n      mstore\n      0x20\n      add\n      0x00\n      keccak256\n      0x00\n        /* \"contracts/periphery/Fomo3d_flattened.sol\":22415:22446  currentContract[role] = account */\n      0x0100\n      exp\n      dup2\n      sload\n      dup2\n      0xffffffffffffffffffffffffffffffffffffffff\n      mul\n      not\n      and\n      swap1\n      dup4\n      0xffffffffffffffffffffffffffffffffffffffff\n      and\n      mul\n      or\n      swap1\n      sstore\n      pop\n        /* \"contracts/periphery/Fomo3d_flattened.sol\":22276:22453  function grantRole(bytes32 role, address account) public override onlyRole(getRoleAdmin(role)){... */\n      pop\n      pop\n      pop\n      jump\t// out\n        /* \"contracts/periphery/Fomo3d_flattened.sol\":19798:20043  function renounceRole(bytes32 role, address callerConfirmation) public virtual {... */\n    tag_48:\n        /* \"contracts/periphery/Fomo3d_flattened.sol\":19913:19925  _msgSender() */\n      tag_107\n        /* \"contracts/periphery/Fomo3d_flattened.sol\":19913:19923  _msgSender */\n      tag_108\n        /* \"contracts/periphery/Fomo3d_flattened.sol\":19913:19925  _msgSender() */\n      jump\t// in\n    tag_107:\n        /* \"contracts/periphery/Fomo3d_flattened.sol\":19891:19925  callerConfirmation != _msgSender() */\n      0xffffffffffffffffffffffffffffffffffffffff\n      and\n        /* \"contracts/periphery/Fomo3d_flattened.sol\":19891:19909  callerConfirmation */\n      dup2\n        /* \"contracts/periphery/Fomo3d_flattened.sol\":19891:19925  callerConfirmation != _msgSender() */\n      0xffffffffffffffffffffffffffffffffffffffff\n      and\n      eq\n        /* \"contracts/periphery/Fomo3d_flattened.sol\":19887:19989  if (callerConfirmation != _msgSender()) {... */\n      tag_109\n      jumpi\n        /* \"contracts/periphery/Fomo3d_flattened.sol\":19948:19978  AccessControlBadConfirmation() */\n      mload(0x40)\n      0x6697b23200000000000000000000000000000000000000000000000000000000\n      dup2\n      mstore\n      0x04\n      add\n      mload(0x40)\n      dup1\n      swap2\n      sub\n      swap1\n      revert\n        /* \"contracts/periphery/Fomo3d_flattened.sol\":19887:19989  if (callerConfirmation != _msgSender()) {... */\n    tag_109:\n        /* \"contracts/periphery/Fomo3d_flattened.sol\":19999:20036  _revokeRole(role, callerConfirmation) */\n      tag_110\n        /* \"contracts/periphery/Fomo3d_flattened.sol\":20011:20015  role */\n      dup3\n        /* \"contracts/periphery/Fomo3d_flattened.sol\":20017:20035  callerConfirmation */\n      dup3\n        /* \"contracts/periphery/Fomo3d_flattened.sol\":19999:20010  _revokeRole */\n      tag_111\n        /* \"contracts/periphery/Fomo3d_flattened.sol\":19999:20036  _revokeRole(role, callerConfirmation) */\n      jump\t// in\n    tag_110:\n      pop\n        /* \"contracts/periphery/Fomo3d_flattened.sol\":19798:20043  function renounceRole(bytes32 role, address callerConfirmation) public virtual {... */\n      pop\n      pop\n      jump\t// out\n        /* \"contracts/periphery/Fomo3d_flattened.sol\":21704:21758  bytes32 public constant JACKPOT = keccak256(\"JACKPOT\") */\n    tag_50:\n        /* \"contracts/periphery/Fomo3d_flattened.sol\":21738:21758  keccak256(\"JACKPOT\") */\n      0xf45223fc822e0a02a042bb2eec36a76af2a028cc55539c3a40ab438d1089e1c0\n        /* \"contracts/periphery/Fomo3d_flattened.sol\":21704:21758  bytes32 public constant JACKPOT = keccak256(\"JACKPOT\") */\n      dup2\n      jump\t// out\n        /* \"contracts/periphery/Fomo3d_flattened.sol\":21646:21698  bytes32 public constant FOMO3D = keccak256(\"FOMO3D\") */\n    tag_53:\n        /* \"contracts/periphery/Fomo3d_flattened.sol\":21679:21698  keccak256(\"FOMO3D\") */\n      0x64b1d43f4e53241bce58c6f9670f08a22934a523acf2a5359fa7c904ff98bd97\n        /* \"contracts/periphery/Fomo3d_flattened.sol\":21646:21698  bytes32 public constant FOMO3D = keccak256(\"FOMO3D\") */\n      dup2\n      jump\t// out\n        /* \"contracts/periphery/Fomo3d_flattened.sol\":22060:22108  bytes32 public constant DRAW = keccak256(\"DRAW\") */\n    tag_56:\n        /* \"contracts/periphery/Fomo3d_flattened.sol\":22091:22108  keccak256(\"DRAW\") */\n      0x1cf54708aaa392dbeba88d1a07e69feaba67586acd469366b89b52bf44132258\n        /* \"contracts/periphery/Fomo3d_flattened.sol\":22060:22108  bytes32 public constant DRAW = keccak256(\"DRAW\") */\n      dup2\n      jump\t// out\n        /* \"contracts/periphery/Fomo3d_flattened.sol\":22115:22166  mapping (bytes32 => address) public currentContract */\n    tag_60:\n      mstore(0x20, 0x01)\n      dup1\n      0x00\n      mstore\n      keccak256(0x00, 0x40)\n      0x00\n      swap2\n      pop\n      sload\n      swap1\n      0x0100\n      exp\n      swap1\n      div\n      0xffffffffffffffffffffffffffffffffffffffff\n      and\n      dup2\n      jump\t// out\n        /* \"contracts/periphery/Fomo3d_flattened.sol\":22004:22054  bytes32 public constant TOKEN = keccak256(\"TOKEN\") */\n    tag_64:\n        /* \"contracts/periphery/Fomo3d_flattened.sol\":22036:22054  keccak256(\"TOKEN\") */\n      0x96706879d29c248edfb2a2563a8a9d571c49634c0f82013e6f5a7cde739d35d4\n        /* \"contracts/periphery/Fomo3d_flattened.sol\":22004:22054  bytes32 public constant TOKEN = keccak256(\"TOKEN\") */\n      dup2\n      jump\t// out\n        /* \"contracts/periphery/Fomo3d_flattened.sol\":17324:17460  function hasRole(bytes32 role, address account) public view virtual returns (bool) {... */\n    tag_68:\n        /* \"contracts/periphery/Fomo3d_flattened.sol\":17401:17405  bool */\n      0x00\n        /* \"contracts/periphery/Fomo3d_flattened.sol\":17424:17430  _roles */\n      dup1\n        /* \"contracts/periphery/Fomo3d_flattened.sol\":17424:17436  _roles[role] */\n      0x00\n        /* \"contracts/periphery/Fomo3d_flattened.sol\":17431:17435  role */\n      dup5\n        /* \"contracts/periphery/Fomo3d_flattened.sol\":17424:17436  _roles[role] */\n      dup2\n      mstore\n      0x20\n      add\n      swap1\n      dup2\n      mstore\n      0x20\n      add\n      0x00\n      keccak256\n        /* \"contracts/periphery/Fomo3d_flattened.sol\":17424:17444  _roles[role].hasRole */\n      0x00\n      add\n        /* \"contracts/periphery/Fomo3d_flattened.sol\":17424:17453  _roles[role].hasRole[account] */\n      0x00\n        /* \"contracts/periphery/Fomo3d_flattened.sol\":17445:17452  account */\n      dup4\n        /* \"contracts/periphery/Fomo3d_flattened.sol\":17424:17453  _roles[role].hasRole[account] */\n      0xffffffffffffffffffffffffffffffffffffffff\n      and\n      0xffffffffffffffffffffffffffffffffffffffff\n      and\n      dup2\n      mstore\n      0x20\n      add\n      swap1\n      dup2\n      mstore\n      0x20\n      add\n      0x00\n      keccak256\n      0x00\n      swap1\n      sload\n      swap1\n      0x0100\n      exp\n      swap1\n      div\n      0xff\n      and\n        /* \"contracts/periphery/Fomo3d_flattened.sol\":17417:17453  return _roles[role].hasRole[account] */\n      swap1\n      pop\n        /* \"contracts/periphery/Fomo3d_flattened.sol\":17324:17460  function hasRole(bytes32 role, address account) public view virtual returns (bool) {... */\n      swap3\n      swap2\n      pop\n      pop\n      jump\t// out\n        /* \"contracts/periphery/Fomo3d_flattened.sol\":21952:21998  bytes32 public constant VRF = keccak256(\"VRF\") */\n    tag_71:\n        /* \"contracts/periphery/Fomo3d_flattened.sol\":21982:21998  keccak256(\"VRF\") */\n      0xcd0c49d5c8438d0944f64e0d3825bed3b606f318474213a77860c93bca5ed999\n        /* \"contracts/periphery/Fomo3d_flattened.sol\":21952:21998  bytes32 public constant VRF = keccak256(\"VRF\") */\n      dup2\n      jump\t// out\n        /* \"contracts/periphery/Fomo3d_flattened.sol\":16657:16706  bytes32 public constant DEFAULT_ADMIN_ROLE = 0x00 */\n    tag_74:\n        /* \"contracts/periphery/Fomo3d_flattened.sol\":16702:16706  0x00 */\n      0x00\n        /* \"contracts/periphery/Fomo3d_flattened.sol\":16657:16706  bytes32 public constant DEFAULT_ADMIN_ROLE = 0x00 */\n      dup1\n      shl\n      dup2\n      jump\t// out\n        /* \"contracts/periphery/Fomo3d_flattened.sol\":21890:21946  bytes32 public constant REFERRAL = keccak256(\"REFERRAL\") */\n    tag_77:\n        /* \"contracts/periphery/Fomo3d_flattened.sol\":21925:21946  keccak256(\"REFERRAL\") */\n      0x4af58918e2c6f17f8b6da7260d8669fa63150ffd279395662a723476f776f76a\n        /* \"contracts/periphery/Fomo3d_flattened.sol\":21890:21946  bytes32 public constant REFERRAL = keccak256(\"REFERRAL\") */\n      dup2\n      jump\t// out\n        /* \"contracts/periphery/Fomo3d_flattened.sol\":19112:19250  function revokeRole(bytes32 role, address account) public virtual onlyRole(getRoleAdmin(role)) {... */\n    tag_81:\n        /* \"contracts/periphery/Fomo3d_flattened.sol\":19187:19205  getRoleAdmin(role) */\n      tag_113\n        /* \"contracts/periphery/Fomo3d_flattened.sol\":19200:19204  role */\n      dup3\n        /* \"contracts/periphery/Fomo3d_flattened.sol\":19187:19199  getRoleAdmin */\n      tag_41\n        /* \"contracts/periphery/Fomo3d_flattened.sol\":19187:19205  getRoleAdmin(role) */\n      jump\t// in\n    tag_113:\n        /* \"contracts/periphery/Fomo3d_flattened.sol\":16934:16950  _checkRole(role) */\n      tag_115\n        /* \"contracts/periphery/Fomo3d_flattened.sol\":16945:16949  role */\n      dup2\n        /* \"contracts/periphery/Fomo3d_flattened.sol\":16934:16944  _checkRole */\n      tag_102\n        /* \"contracts/periphery/Fomo3d_flattened.sol\":16934:16950  _checkRole(role) */\n      jump\t// in\n    tag_115:\n        /* \"contracts/periphery/Fomo3d_flattened.sol\":19217:19243  _revokeRole(role, account) */\n      tag_117\n        /* \"contracts/periphery/Fomo3d_flattened.sol\":19229:19233  role */\n      dup4\n        /* \"contracts/periphery/Fomo3d_flattened.sol\":19235:19242  account */\n      dup4\n        /* \"contracts/periphery/Fomo3d_flattened.sol\":19217:19228  _revokeRole */\n      tag_111\n        /* \"contracts/periphery/Fomo3d_flattened.sol\":19217:19243  _revokeRole(role, account) */\n      jump\t// in\n    tag_117:\n      pop\n        /* \"contracts/periphery/Fomo3d_flattened.sol\":19112:19250  function revokeRole(bytes32 role, address account) public virtual onlyRole(getRoleAdmin(role)) {... */\n      pop\n      pop\n      pop\n      jump\t// out\n        /* \"contracts/periphery/Fomo3d_flattened.sol\":22608:22719  function getContract(bytes32 _role) public view returns (address){... */\n    tag_84:\n        /* \"contracts/periphery/Fomo3d_flattened.sol\":22665:22672  address */\n      0x00\n        /* \"contracts/periphery/Fomo3d_flattened.sol\":22690:22705  currentContract */\n      0x01\n        /* \"contracts/periphery/Fomo3d_flattened.sol\":22690:22712  currentContract[_role] */\n      0x00\n        /* \"contracts/periphery/Fomo3d_flattened.sol\":22706:22711  _role */\n      dup4\n        /* \"contracts/periphery/Fomo3d_flattened.sol\":22690:22712  currentContract[_role] */\n      dup2\n      mstore\n      0x20\n      add\n      swap1\n      dup2\n      mstore\n      0x20\n      add\n      0x00\n      keccak256\n      0x00\n      swap1\n      sload\n      swap1\n      0x0100\n      exp\n      swap1\n      div\n      0xffffffffffffffffffffffffffffffffffffffff\n      and\n        /* \"contracts/periphery/Fomo3d_flattened.sol\":22683:22712  return currentContract[_role] */\n      swap1\n      pop\n        /* \"contracts/periphery/Fomo3d_flattened.sol\":22608:22719  function getContract(bytes32 _role) public view returns (address){... */\n      swap2\n      swap1\n      pop\n      jump\t// out\n        /* \"contracts/periphery/Fomo3d_flattened.sol\":21764:21816  bytes32 public constant MARKET = keccak256(\"MARKET\") */\n    tag_87:\n        /* \"contracts/periphery/Fomo3d_flattened.sol\":21797:21816  keccak256(\"MARKET\") */\n      0x23acc66832ff38a7ce3c1caf89922410f4374ba8fd897ffa98f088747997bc6d\n        /* \"contracts/periphery/Fomo3d_flattened.sol\":21764:21816  bytes32 public constant MARKET = keccak256(\"MARKET\") */\n      dup2\n      jump\t// out\n        /* \"contracts/periphery/Fomo3d_flattened.sol\":1663:1809  function supportsInterface(bytes4 interfaceId) public view virtual returns (bool) {... */\n    tag_92:\n        /* \"contracts/periphery/Fomo3d_flattened.sol\":1739:1743  bool */\n      0x00\n        /* \"contracts/periphery/Fomo3d_flattened.sol\":1777:1802  type(IERC165).interfaceId */\n      0x01ffc9a700000000000000000000000000000000000000000000000000000000\n        /* \"contracts/periphery/Fomo3d_flattened.sol\":1762:1802  interfaceId == type(IERC165).interfaceId */\n      not(0xffffffffffffffffffffffffffffffffffffffffffffffffffffffff)\n      and\n        /* \"contracts/periphery/Fomo3d_flattened.sol\":1762:1773  interfaceId */\n      dup3\n        /* \"contracts/periphery/Fomo3d_flattened.sol\":1762:1802  interfaceId == type(IERC165).interfaceId */\n      not(0xffffffffffffffffffffffffffffffffffffffffffffffffffffffff)\n      and\n      eq\n        /* \"contracts/periphery/Fomo3d_flattened.sol\":1755:1802  return interfaceId == type(IERC165).interfaceId */\n      swap1\n      pop\n        /* \"contracts/periphery/Fomo3d_flattened.sol\":1663:1809  function supportsInterface(bytes4 interfaceId) public view virtual returns (bool) {... */\n      swap2\n      swap1\n      pop\n      jump\t// out\n        /* \"contracts/periphery/Fomo3d_flattened.sol\":17669:17772  function _checkRole(bytes32 role) internal view virtual {... */\n    tag_102:\n        /* \"contracts/periphery/Fomo3d_flattened.sol\":17735:17765  _checkRole(role, _msgSender()) */\n      tag_121\n        /* \"contracts/periphery/Fomo3d_flattened.sol\":17746:17750  role */\n      dup2\n        /* \"contracts/periphery/Fomo3d_flattened.sol\":17752:17764  _msgSender() */\n      tag_122\n        /* \"contracts/periphery/Fomo3d_flattened.sol\":17752:17762  _msgSender */\n      tag_108\n        /* \"contracts/periphery/Fomo3d_flattened.sol\":17752:17764  _msgSender() */\n      jump\t// in\n    tag_122:\n        /* \"contracts/periphery/Fomo3d_flattened.sol\":17735:17745  _checkRole */\n      tag_123\n        /* \"contracts/periphery/Fomo3d_flattened.sol\":17735:17765  _checkRole(role, _msgSender()) */\n      jump\t// in\n    tag_121:\n        /* \"contracts/periphery/Fomo3d_flattened.sol\":17669:17772  function _checkRole(bytes32 role) internal view virtual {... */\n      pop\n      jump\t// out\n        /* \"contracts/periphery/Fomo3d_flattened.sol\":20649:20965  function _grantRole(bytes32 role, address account) internal virtual returns (bool) {... */\n    tag_105:\n        /* \"contracts/periphery/Fomo3d_flattened.sol\":20726:20730  bool */\n      0x00\n        /* \"contracts/periphery/Fomo3d_flattened.sol\":20747:20769  hasRole(role, account) */\n      tag_125\n        /* \"contracts/periphery/Fomo3d_flattened.sol\":20755:20759  role */\n      dup4\n        /* \"contracts/periphery/Fomo3d_flattened.sol\":20761:20768  account */\n      dup4\n        /* \"contracts/periphery/Fomo3d_flattened.sol\":20747:20754  hasRole */\n      tag_68\n        /* \"contracts/periphery/Fomo3d_flattened.sol\":20747:20769  hasRole(role, account) */\n      jump\t// in\n    tag_125:\n        /* \"contracts/periphery/Fomo3d_flattened.sol\":20742:20959  if (!hasRole(role, account)) {... */\n      tag_126\n      jumpi\n        /* \"contracts/periphery/Fomo3d_flattened.sol\":20817:20821  true */\n      0x01\n        /* \"contracts/periphery/Fomo3d_flattened.sol\":20785:20791  _roles */\n      0x00\n        /* \"contracts/periphery/Fomo3d_flattened.sol\":20785:20797  _roles[role] */\n      dup1\n        /* \"contracts/periphery/Fomo3d_flattened.sol\":20792:20796  role */\n      dup6\n        /* \"contracts/periphery/Fomo3d_flattened.sol\":20785:20797  _roles[role] */\n      dup2\n      mstore\n      0x20\n      add\n      swap1\n      dup2\n      mstore\n      0x20\n      add\n      0x00\n      keccak256\n        /* \"contracts/periphery/Fomo3d_flattened.sol\":20785:20805  _roles[role].hasRole */\n      0x00\n      add\n        /* \"contracts/periphery/Fomo3d_flattened.sol\":20785:20814  _roles[role].hasRole[account] */\n      0x00\n        /* \"contracts/periphery/Fomo3d_flattened.sol\":20806:20813  account */\n      dup5\n        /* \"contracts/periphery/Fomo3d_flattened.sol\":20785:20814  _roles[role].hasRole[account] */\n      0xffffffffffffffffffffffffffffffffffffffff\n      and\n      0xffffffffffffffffffffffffffffffffffffffff\n      and\n      dup2\n      mstore\n      0x20\n      add\n      swap1\n      dup2\n      mstore\n      0x20\n      add\n      0x00\n      keccak256\n      0x00\n        /* \"contracts/periphery/Fomo3d_flattened.sol\":20785:20821  _roles[role].hasRole[account] = true */\n      0x0100\n      exp\n      dup2\n      sload\n      dup2\n      0xff\n      mul\n      not\n      and\n      swap1\n      dup4\n      iszero\n      iszero\n      mul\n      or\n      swap1\n      sstore\n      pop\n        /* \"contracts/periphery/Fomo3d_flattened.sol\":20867:20879  _msgSender() */\n      tag_127\n        /* \"contracts/periphery/Fomo3d_flattened.sol\":20867:20877  _msgSender */\n      tag_108\n        /* \"contracts/periphery/Fomo3d_flattened.sol\":20867:20879  _msgSender() */\n      jump\t// in\n    tag_127:\n        /* \"contracts/periphery/Fomo3d_flattened.sol\":20840:20880  RoleGranted(role, account, _msgSender()) */\n      0xffffffffffffffffffffffffffffffffffffffff\n      and\n        /* \"contracts/periphery/Fomo3d_flattened.sol\":20858:20865  account */\n      dup3\n        /* \"contracts/periphery/Fomo3d_flattened.sol\":20840:20880  RoleGranted(role, account, _msgSender()) */\n      0xffffffffffffffffffffffffffffffffffffffff\n      and\n        /* \"contracts/periphery/Fomo3d_flattened.sol\":20852:20856  role */\n      dup5\n        /* \"contracts/periphery/Fomo3d_flattened.sol\":20840:20880  RoleGranted(role, account, _msgSender()) */\n      0x2f8788117e7eff1d82e926ec794901d17c78024a50270940304540a733656f0d\n      mload(0x40)\n      mload(0x40)\n      dup1\n      swap2\n      sub\n      swap1\n      log4\n        /* \"contracts/periphery/Fomo3d_flattened.sol\":20901:20905  true */\n      0x01\n        /* \"contracts/periphery/Fomo3d_flattened.sol\":20894:20905  return true */\n      swap1\n      pop\n      jump(tag_124)\n        /* \"contracts/periphery/Fomo3d_flattened.sol\":20742:20959  if (!hasRole(role, account)) {... */\n    tag_126:\n        /* \"contracts/periphery/Fomo3d_flattened.sol\":20943:20948  false */\n      0x00\n        /* \"contracts/periphery/Fomo3d_flattened.sol\":20936:20948  return false */\n      swap1\n      pop\n        /* \"contracts/periphery/Fomo3d_flattened.sol\":20649:20965  function _grantRole(bytes32 role, address account) internal virtual returns (bool) {... */\n    tag_124:\n      swap3\n      swap2\n      pop\n      pop\n      jump\t// out\n        /* \"contracts/periphery/Fomo3d_flattened.sol\":14289:14385  function _msgSender() internal view virtual returns (address) {... */\n    tag_108:\n        /* \"contracts/periphery/Fomo3d_flattened.sol\":14342:14349  address */\n      0x00\n        /* \"contracts/periphery/Fomo3d_flattened.sol\":14368:14378  msg.sender */\n      caller\n        /* \"contracts/periphery/Fomo3d_flattened.sol\":14361:14378  return msg.sender */\n      swap1\n      pop\n        /* \"contracts/periphery/Fomo3d_flattened.sol\":14289:14385  function _msgSender() internal view virtual returns (address) {... */\n      swap1\n      jump\t// out\n        /* \"contracts/periphery/Fomo3d_flattened.sol\":21200:21517  function _revokeRole(bytes32 role, address account) internal virtual returns (bool) {... */\n    tag_111:\n        /* \"contracts/periphery/Fomo3d_flattened.sol\":21278:21282  bool */\n      0x00\n        /* \"contracts/periphery/Fomo3d_flattened.sol\":21298:21320  hasRole(role, account) */\n      tag_131\n        /* \"contracts/periphery/Fomo3d_flattened.sol\":21306:21310  role */\n      dup4\n        /* \"contracts/periphery/Fomo3d_flattened.sol\":21312:21319  account */\n      dup4\n        /* \"contracts/periphery/Fomo3d_flattened.sol\":21298:21305  hasRole */\n      tag_68\n        /* \"contracts/periphery/Fomo3d_flattened.sol\":21298:21320  hasRole(role, account) */\n      jump\t// in\n    tag_131:\n        /* \"contracts/periphery/Fomo3d_flattened.sol\":21294:21511  if (hasRole(role, account)) {... */\n      iszero\n      tag_132\n      jumpi\n        /* \"contracts/periphery/Fomo3d_flattened.sol\":21368:21373  false */\n      0x00\n        /* \"contracts/periphery/Fomo3d_flattened.sol\":21336:21342  _roles */\n      dup1\n        /* \"contracts/periphery/Fomo3d_flattened.sol\":21336:21348  _roles[role] */\n      0x00\n        /* \"contracts/periphery/Fomo3d_flattened.sol\":21343:21347  role */\n      dup6\n        /* \"contracts/periphery/Fomo3d_flattened.sol\":21336:21348  _roles[role] */\n      dup2\n      mstore\n      0x20\n      add\n      swap1\n      dup2\n      mstore\n      0x20\n      add\n      0x00\n      keccak256\n        /* \"contracts/periphery/Fomo3d_flattened.sol\":21336:21356  _roles[role].hasRole */\n      0x00\n      add\n        /* \"contracts/periphery/Fomo3d_flattened.sol\":21336:21365  _roles[role].hasRole[account] */\n      0x00\n        /* \"contracts/periphery/Fomo3d_flattened.sol\":21357:21364  account */\n      dup5\n        /* \"contracts/periphery/Fomo3d_flattened.sol\":21336:21365  _roles[role].hasRole[account] */\n      0xffffffffffffffffffffffffffffffffffffffff\n      and\n      0xffffffffffffffffffffffffffffffffffffffff\n      and\n      dup2\n      mstore\n      0x20\n      add\n      swap1\n      dup2\n      mstore\n      0x20\n      add\n      0x00\n      keccak256\n      0x00\n        /* \"contracts/periphery/Fomo3d_flattened.sol\":21336:21373  _roles[role].hasRole[account] = false */\n      0x0100\n      exp\n      dup2\n      sload\n      dup2\n      0xff\n      mul\n      not\n      and\n      swap1\n      dup4\n      iszero\n      iszero\n      mul\n      or\n      swap1\n      sstore\n      pop\n        /* \"contracts/periphery/Fomo3d_flattened.sol\":21419:21431  _msgSender() */\n      tag_133\n        /* \"contracts/periphery/Fomo3d_flattened.sol\":21419:21429  _msgSender */\n      tag_108\n        /* \"contracts/periphery/Fomo3d_flattened.sol\":21419:21431  _msgSender() */\n      jump\t// in\n    tag_133:\n        /* \"contracts/periphery/Fomo3d_flattened.sol\":21392:21432  RoleRevoked(role, account, _msgSender()) */\n      0xffffffffffffffffffffffffffffffffffffffff\n      and\n        /* \"contracts/periphery/Fomo3d_flattened.sol\":21410:21417  account */\n      dup3\n        /* \"contracts/periphery/Fomo3d_flattened.sol\":21392:21432  RoleRevoked(role, account, _msgSender()) */\n      0xffffffffffffffffffffffffffffffffffffffff\n      and\n        /* \"contracts/periphery/Fomo3d_flattened.sol\":21404:21408  role */\n      dup5\n        /* \"contracts/periphery/Fomo3d_flattened.sol\":21392:21432  RoleRevoked(role, account, _msgSender()) */\n      0xf6391f5c32d9c69d2a47ea670b442974b53935d1edc7fd64eb21e047a839171b\n      mload(0x40)\n      mload(0x40)\n      dup1\n      swap2\n      sub\n      swap1\n      log4\n        /* \"contracts/periphery/Fomo3d_flattened.sol\":21453:21457  true */\n      0x01\n        /* \"contracts/periphery/Fomo3d_flattened.sol\":21446:21457  return true */\n      swap1\n      pop\n      jump(tag_130)\n        /* \"contracts/periphery/Fomo3d_flattened.sol\":21294:21511  if (hasRole(role, account)) {... */\n    tag_132:\n        /* \"contracts/periphery/Fomo3d_flattened.sol\":21495:21500  false */\n      0x00\n        /* \"contracts/periphery/Fomo3d_flattened.sol\":21488:21500  return false */\n      swap1\n      pop\n        /* \"contracts/periphery/Fomo3d_flattened.sol\":21200:21517  function _revokeRole(bytes32 role, address account) internal virtual returns (bool) {... */\n    tag_130:\n      swap3\n      swap2\n      pop\n      pop\n      jump\t// out\n        /* \"contracts/periphery/Fomo3d_flattened.sol\":17902:18099  function _checkRole(bytes32 role, address account) internal view virtual {... */\n    tag_123:\n        /* \"contracts/periphery/Fomo3d_flattened.sol\":17990:18012  hasRole(role, account) */\n      tag_136\n        /* \"contracts/periphery/Fomo3d_flattened.sol\":17998:18002  role */\n      dup3\n        /* \"contracts/periphery/Fomo3d_flattened.sol\":18004:18011  account */\n      dup3\n        /* \"contracts/periphery/Fomo3d_flattened.sol\":17990:17997  hasRole */\n      tag_68\n        /* \"contracts/periphery/Fomo3d_flattened.sol\":17990:18012  hasRole(role, account) */\n      jump\t// in\n    tag_136:\n        /* \"contracts/periphery/Fomo3d_flattened.sol\":17985:18093  if (!hasRole(role, account)) {... */\n      tag_137\n      jumpi\n        /* \"contracts/periphery/Fomo3d_flattened.sol\":18068:18075  account */\n      dup1\n        /* \"contracts/periphery/Fomo3d_flattened.sol\":18077:18081  role */\n      dup3\n        /* \"contracts/periphery/Fomo3d_flattened.sol\":18035:18082  AccessControlUnauthorizedAccount(account, role) */\n      mload(0x40)\n      0xe2517d3f00000000000000000000000000000000000000000000000000000000\n      dup2\n      mstore\n      0x04\n      add\n      tag_138\n      swap3\n      swap2\n      swap1\n      tag_139\n      jump\t// in\n    tag_138:\n      mload(0x40)\n      dup1\n      swap2\n      sub\n      swap1\n      revert\n        /* \"contracts/periphery/Fomo3d_flattened.sol\":17985:18093  if (!hasRole(role, account)) {... */\n    tag_137:\n        /* \"contracts/periphery/Fomo3d_flattened.sol\":17902:18099  function _checkRole(bytes32 role, address account) internal view virtual {... */\n      pop\n      pop\n      jump\t// out\n        /* \"#utility.yul\":88:205   */\n    tag_141:\n        /* \"#utility.yul\":197:198   */\n      0x00\n        /* \"#utility.yul\":194:195   */\n      dup1\n        /* \"#utility.yul\":187:199   */\n      revert\n        /* \"#utility.yul\":334:483   */\n    tag_143:\n        /* \"#utility.yul\":370:377   */\n      0x00\n        /* \"#utility.yul\":410:476   */\n      0xffffffff00000000000000000000000000000000000000000000000000000000\n        /* \"#utility.yul\":403:408   */\n      dup3\n        /* \"#utility.yul\":399:477   */\n      and\n        /* \"#utility.yul\":388:477   */\n      swap1\n      pop\n        /* \"#utility.yul\":334:483   */\n      swap2\n      swap1\n      pop\n      jump\t// out\n        /* \"#utility.yul\":489:609   */\n    tag_144:\n        /* \"#utility.yul\":561:584   */\n      tag_166\n        /* \"#utility.yul\":578:583   */\n      dup2\n        /* \"#utility.yul\":561:584   */\n      tag_143\n      jump\t// in\n    tag_166:\n        /* \"#utility.yul\":554:559   */\n      dup2\n        /* \"#utility.yul\":551:585   */\n      eq\n        /* \"#utility.yul\":541:603   */\n      tag_167\n      jumpi\n        /* \"#utility.yul\":599:600   */\n      0x00\n        /* \"#utility.yul\":596:597   */\n      dup1\n        /* \"#utility.yul\":589:601   */\n      revert\n        /* \"#utility.yul\":541:603   */\n    tag_167:\n        /* \"#utility.yul\":489:609   */\n      pop\n      jump\t// out\n        /* \"#utility.yul\":615:752   */\n    tag_145:\n        /* \"#utility.yul\":660:665   */\n      0x00\n        /* \"#utility.yul\":698:704   */\n      dup2\n        /* \"#utility.yul\":685:705   */\n      calldataload\n        /* \"#utility.yul\":676:705   */\n      swap1\n      pop\n        /* \"#utility.yul\":714:746   */\n      tag_169\n        /* \"#utility.yul\":740:745   */\n      dup2\n        /* \"#utility.yul\":714:746   */\n      tag_144\n      jump\t// in\n    tag_169:\n        /* \"#utility.yul\":615:752   */\n      swap3\n      swap2\n      pop\n      pop\n      jump\t// out\n        /* \"#utility.yul\":758:1085   */\n    tag_26:\n        /* \"#utility.yul\":816:822   */\n      0x00\n        /* \"#utility.yul\":865:867   */\n      0x20\n        /* \"#utility.yul\":853:862   */\n      dup3\n        /* \"#utility.yul\":844:851   */\n      dup5\n        /* \"#utility.yul\":840:863   */\n      sub\n        /* \"#utility.yul\":836:868   */\n      slt\n        /* \"#utility.yul\":833:952   */\n      iszero\n      tag_171\n      jumpi\n        /* \"#utility.yul\":871:950   */\n      tag_172\n      tag_141\n      jump\t// in\n    tag_172:\n        /* \"#utility.yul\":833:952   */\n    tag_171:\n        /* \"#utility.yul\":991:992   */\n      0x00\n        /* \"#utility.yul\":1016:1068   */\n      tag_173\n        /* \"#utility.yul\":1060:1067   */\n      dup5\n        /* \"#utility.yul\":1051:1057   */\n      dup3\n        /* \"#utility.yul\":1040:1049   */\n      dup6\n        /* \"#utility.yul\":1036:1058   */\n      add\n        /* \"#utility.yul\":1016:1068   */\n      tag_145\n      jump\t// in\n    tag_173:\n        /* \"#utility.yul\":1006:1068   */\n      swap2\n      pop\n        /* \"#utility.yul\":962:1078   */\n      pop\n        /* \"#utility.yul\":758:1085   */\n      swap3\n      swap2\n      pop\n      pop\n      jump\t// out\n        /* \"#utility.yul\":1091:1181   */\n    tag_146:\n        /* \"#utility.yul\":1125:1132   */\n      0x00\n        /* \"#utility.yul\":1168:1173   */\n      dup2\n        /* \"#utility.yul\":1161:1174   */\n      iszero\n        /* \"#utility.yul\":1154:1175   */\n      iszero\n        /* \"#utility.yul\":1143:1175   */\n      swap1\n      pop\n        /* \"#utility.yul\":1091:1181   */\n      swap2\n      swap1\n      pop\n      jump\t// out\n        /* \"#utility.yul\":1187:1296   */\n    tag_147:\n        /* \"#utility.yul\":1268:1289   */\n      tag_176\n        /* \"#utility.yul\":1283:1288   */\n      dup2\n        /* \"#utility.yul\":1268:1289   */\n      tag_146\n      jump\t// in\n    tag_176:\n        /* \"#utility.yul\":1263:1266   */\n      dup3\n        /* \"#utility.yul\":1256:1290   */\n      mstore\n        /* \"#utility.yul\":1187:1296   */\n      pop\n      pop\n      jump\t// out\n        /* \"#utility.yul\":1302:1512   */\n    tag_29:\n        /* \"#utility.yul\":1389:1393   */\n      0x00\n        /* \"#utility.yul\":1427:1429   */\n      0x20\n        /* \"#utility.yul\":1416:1425   */\n      dup3\n        /* \"#utility.yul\":1412:1430   */\n      add\n        /* \"#utility.yul\":1404:1430   */\n      swap1\n      pop\n        /* \"#utility.yul\":1440:1505   */\n      tag_178\n        /* \"#utility.yul\":1502:1503   */\n      0x00\n        /* \"#utility.yul\":1491:1500   */\n      dup4\n        /* \"#utility.yul\":1487:1504   */\n      add\n        /* \"#utility.yul\":1478:1484   */\n      dup5\n        /* \"#utility.yul\":1440:1505   */\n      tag_147\n      jump\t// in\n    tag_178:\n        /* \"#utility.yul\":1302:1512   */\n      swap3\n      swap2\n      pop\n      pop\n      jump\t// out\n        /* \"#utility.yul\":1518:1595   */\n    tag_148:\n        /* \"#utility.yul\":1555:1562   */\n      0x00\n        /* \"#utility.yul\":1584:1589   */\n      dup2\n        /* \"#utility.yul\":1573:1589   */\n      swap1\n      pop\n        /* \"#utility.yul\":1518:1595   */\n      swap2\n      swap1\n      pop\n      jump\t// out\n        /* \"#utility.yul\":1601:1723   */\n    tag_149:\n        /* \"#utility.yul\":1674:1698   */\n      tag_181\n        /* \"#utility.yul\":1692:1697   */\n      dup2\n        /* \"#utility.yul\":1674:1698   */\n      tag_148\n      jump\t// in\n    tag_181:\n        /* \"#utility.yul\":1667:1672   */\n      dup2\n        /* \"#utility.yul\":1664:1699   */\n      eq\n        /* \"#utility.yul\":1654:1717   */\n      tag_182\n      jumpi\n        /* \"#utility.yul\":1713:1714   */\n      0x00\n        /* \"#utility.yul\":1710:1711   */\n      dup1\n        /* \"#utility.yul\":1703:1715   */\n      revert\n        /* \"#utility.yul\":1654:1717   */\n    tag_182:\n        /* \"#utility.yul\":1601:1723   */\n      pop\n      jump\t// out\n        /* \"#utility.yul\":1729:1868   */\n    tag_150:\n        /* \"#utility.yul\":1775:1780   */\n      0x00\n        /* \"#utility.yul\":1813:1819   */\n      dup2\n        /* \"#utility.yul\":1800:1820   */\n      calldataload\n        /* \"#utility.yul\":1791:1820   */\n      swap1\n      pop\n        /* \"#utility.yul\":1829:1862   */\n      tag_184\n        /* \"#utility.yul\":1856:1861   */\n      dup2\n        /* \"#utility.yul\":1829:1862   */\n      tag_149\n      jump\t// in\n    tag_184:\n        /* \"#utility.yul\":1729:1868   */\n      swap3\n      swap2\n      pop\n      pop\n      jump\t// out\n        /* \"#utility.yul\":1874:2000   */\n    tag_151:\n        /* \"#utility.yul\":1911:1918   */\n      0x00\n        /* \"#utility.yul\":1951:1993   */\n      0xffffffffffffffffffffffffffffffffffffffff\n        /* \"#utility.yul\":1944:1949   */\n      dup3\n        /* \"#utility.yul\":1940:1994   */\n      and\n        /* \"#utility.yul\":1929:1994   */\n      swap1\n      pop\n        /* \"#utility.yul\":1874:2000   */\n      swap2\n      swap1\n      pop\n      jump\t// out\n        /* \"#utility.yul\":2006:2102   */\n    tag_152:\n        /* \"#utility.yul\":2043:2050   */\n      0x00\n        /* \"#utility.yul\":2072:2096   */\n      tag_187\n        /* \"#utility.yul\":2090:2095   */\n      dup3\n        /* \"#utility.yul\":2072:2096   */\n      tag_151\n      jump\t// in\n    tag_187:\n        /* \"#utility.yul\":2061:2096   */\n      swap1\n      pop\n        /* \"#utility.yul\":2006:2102   */\n      swap2\n      swap1\n      pop\n      jump\t// out\n        /* \"#utility.yul\":2108:2230   */\n    tag_153:\n        /* \"#utility.yul\":2181:2205   */\n      tag_189\n        /* \"#utility.yul\":2199:2204   */\n      dup2\n        /* \"#utility.yul\":2181:2205   */\n      tag_152\n      jump\t// in\n    tag_189:\n        /* \"#utility.yul\":2174:2179   */\n      dup2\n        /* \"#utility.yul\":2171:2206   */\n      eq\n        /* \"#utility.yul\":2161:2224   */\n      tag_190\n      jumpi\n        /* \"#utility.yul\":2220:2221   */\n      0x00\n        /* \"#utility.yul\":2217:2218   */\n      dup1\n        /* \"#utility.yul\":2210:2222   */\n      revert\n        /* \"#utility.yul\":2161:2224   */\n    tag_190:\n        /* \"#utility.yul\":2108:2230   */\n      pop\n      jump\t// out\n        /* \"#utility.yul\":2236:2375   */\n    tag_154:\n        /* \"#utility.yul\":2282:2287   */\n      0x00\n        /* \"#utility.yul\":2320:2326   */\n      dup2\n        /* \"#utility.yul\":2307:2327   */\n      calldataload\n        /* \"#utility.yul\":2298:2327   */\n      swap1\n      pop\n        /* \"#utility.yul\":2336:2369   */\n      tag_192\n        /* \"#utility.yul\":2363:2368   */\n      dup2\n        /* \"#utility.yul\":2336:2369   */\n      tag_153\n      jump\t// in\n    tag_192:\n        /* \"#utility.yul\":2236:2375   */\n      swap3\n      swap2\n      pop\n      pop\n      jump\t// out\n        /* \"#utility.yul\":2381:2855   */\n    tag_32:\n        /* \"#utility.yul\":2449:2455   */\n      0x00\n        /* \"#utility.yul\":2457:2463   */\n      dup1\n        /* \"#utility.yul\":2506:2508   */\n      0x40\n        /* \"#utility.yul\":2494:2503   */\n      dup4\n        /* \"#utility.yul\":2485:2492   */\n      dup6\n        /* \"#utility.yul\":2481:2504   */\n      sub\n        /* \"#utility.yul\":2477:2509   */\n      slt\n        /* \"#utility.yul\":2474:2593   */\n      iszero\n      tag_194\n      jumpi\n        /* \"#utility.yul\":2512:2591   */\n      tag_195\n      tag_141\n      jump\t// in\n    tag_195:\n        /* \"#utility.yul\":2474:2593   */\n    tag_194:\n        /* \"#utility.yul\":2632:2633   */\n      0x00\n        /* \"#utility.yul\":2657:2710   */\n      tag_196\n        /* \"#utility.yul\":2702:2709   */\n      dup6\n        /* \"#utility.yul\":2693:2699   */\n      dup3\n        /* \"#utility.yul\":2682:2691   */\n      dup7\n        /* \"#utility.yul\":2678:2700   */\n      add\n        /* \"#utility.yul\":2657:2710   */\n      tag_150\n      jump\t// in\n    tag_196:\n        /* \"#utility.yul\":2647:2710   */\n      swap3\n      pop\n        /* \"#utility.yul\":2603:2720   */\n      pop\n        /* \"#utility.yul\":2759:2761   */\n      0x20\n        /* \"#utility.yul\":2785:2838   */\n      tag_197\n        /* \"#utility.yul\":2830:2837   */\n      dup6\n        /* \"#utility.yul\":2821:2827   */\n      dup3\n        /* \"#utility.yul\":2810:2819   */\n      dup7\n        /* \"#utility.yul\":2806:2828   */\n      add\n        /* \"#utility.yul\":2785:2838   */\n      tag_154\n      jump\t// in\n    tag_197:\n        /* \"#utility.yul\":2775:2838   */\n      swap2\n      pop\n        /* \"#utility.yul\":2730:2848   */\n      pop\n        /* \"#utility.yul\":2381:2855   */\n      swap3\n      pop\n      swap3\n      swap1\n      pop\n      jump\t// out\n        /* \"#utility.yul\":2861:2979   */\n    tag_155:\n        /* \"#utility.yul\":2948:2972   */\n      tag_199\n        /* \"#utility.yul\":2966:2971   */\n      dup2\n        /* \"#utility.yul\":2948:2972   */\n      tag_148\n      jump\t// in\n    tag_199:\n        /* \"#utility.yul\":2943:2946   */\n      dup3\n        /* \"#utility.yul\":2936:2973   */\n      mstore\n        /* \"#utility.yul\":2861:2979   */\n      pop\n      pop\n      jump\t// out\n        /* \"#utility.yul\":2985:3207   */\n    tag_37:\n        /* \"#utility.yul\":3078:3082   */\n      0x00\n        /* \"#utility.yul\":3116:3118   */\n      0x20\n        /* \"#utility.yul\":3105:3114   */\n      dup3\n        /* \"#utility.yul\":3101:3119   */\n      add\n        /* \"#utility.yul\":3093:3119   */\n      swap1\n      pop\n        /* \"#utility.yul\":3129:3200   */\n      tag_201\n        /* \"#utility.yul\":3197:3198   */\n      0x00\n        /* \"#utility.yul\":3186:3195   */\n      dup4\n        /* \"#utility.yul\":3182:3199   */\n      add\n        /* \"#utility.yul\":3173:3179   */\n      dup5\n        /* \"#utility.yul\":3129:3200   */\n      tag_155\n      jump\t// in\n    tag_201:\n        /* \"#utility.yul\":2985:3207   */\n      swap3\n      swap2\n      pop\n      pop\n      jump\t// out\n        /* \"#utility.yul\":3213:3542   */\n    tag_40:\n        /* \"#utility.yul\":3272:3278   */\n      0x00\n        /* \"#utility.yul\":3321:3323   */\n      0x20\n        /* \"#utility.yul\":3309:3318   */\n      dup3\n        /* \"#utility.yul\":3300:3307   */\n      dup5\n        /* \"#utility.yul\":3296:3319   */\n      sub\n        /* \"#utility.yul\":3292:3324   */\n      slt\n        /* \"#utility.yul\":3289:3408   */\n      iszero\n      tag_203\n      jumpi\n        /* \"#utility.yul\":3327:3406   */\n      tag_204\n      tag_141\n      jump\t// in\n    tag_204:\n        /* \"#utility.yul\":3289:3408   */\n    tag_203:\n        /* \"#utility.yul\":3447:3448   */\n      0x00\n        /* \"#utility.yul\":3472:3525   */\n      tag_205\n        /* \"#utility.yul\":3517:3524   */\n      dup5\n        /* \"#utility.yul\":3508:3514   */\n      dup3\n        /* \"#utility.yul\":3497:3506   */\n      dup6\n        /* \"#utility.yul\":3493:3515   */\n      add\n        /* \"#utility.yul\":3472:3525   */\n      tag_150\n      jump\t// in\n    tag_205:\n        /* \"#utility.yul\":3462:3525   */\n      swap2\n      pop\n        /* \"#utility.yul\":3418:3535   */\n      pop\n        /* \"#utility.yul\":3213:3542   */\n      swap3\n      swap2\n      pop\n      pop\n      jump\t// out\n        /* \"#utility.yul\":3548:3666   */\n    tag_156:\n        /* \"#utility.yul\":3635:3659   */\n      tag_207\n        /* \"#utility.yul\":3653:3658   */\n      dup2\n        /* \"#utility.yul\":3635:3659   */\n      tag_152\n      jump\t// in\n    tag_207:\n        /* \"#utility.yul\":3630:3633   */\n      dup3\n        /* \"#utility.yul\":3623:3660   */\n      mstore\n        /* \"#utility.yul\":3548:3666   */\n      pop\n      pop\n      jump\t// out\n        /* \"#utility.yul\":3672:3894   */\n    tag_62:\n        /* \"#utility.yul\":3765:3769   */\n      0x00\n        /* \"#utility.yul\":3803:3805   */\n      0x20\n        /* \"#utility.yul\":3792:3801   */\n      dup3\n        /* \"#utility.yul\":3788:3806   */\n      add\n        /* \"#utility.yul\":3780:3806   */\n      swap1\n      pop\n        /* \"#utility.yul\":3816:3887   */\n      tag_209\n        /* \"#utility.yul\":3884:3885   */\n      0x00\n        /* \"#utility.yul\":3873:3882   */\n      dup4\n        /* \"#utility.yul\":3869:3886   */\n      add\n        /* \"#utility.yul\":3860:3866   */\n      dup5\n        /* \"#utility.yul\":3816:3887   */\n      tag_156\n      jump\t// in\n    tag_209:\n        /* \"#utility.yul\":3672:3894   */\n      swap3\n      swap2\n      pop\n      pop\n      jump\t// out\n        /* \"#utility.yul\":3900:4069   */\n    tag_157:\n        /* \"#utility.yul\":3984:3995   */\n      0x00\n        /* \"#utility.yul\":4018:4024   */\n      dup3\n        /* \"#utility.yul\":4013:4016   */\n      dup3\n        /* \"#utility.yul\":4006:4025   */\n      mstore\n        /* \"#utility.yul\":4058:4062   */\n      0x20\n        /* \"#utility.yul\":4053:4056   */\n      dup3\n        /* \"#utility.yul\":4049:4063   */\n      add\n        /* \"#utility.yul\":4034:4063   */\n      swap1\n      pop\n        /* \"#utility.yul\":3900:4069   */\n      swap3\n      swap2\n      pop\n      pop\n      jump\t// out\n        /* \"#utility.yul\":4075:4247   */\n    tag_158:\n        /* \"#utility.yul\":4215:4239   */\n      0x52656769737465723a20494e56414c49445f524f4c4500000000000000000000\n        /* \"#utility.yul\":4211:4212   */\n      0x00\n        /* \"#utility.yul\":4203:4209   */\n      dup3\n        /* \"#utility.yul\":4199:4213   */\n      add\n        /* \"#utility.yul\":4192:4240   */\n      mstore\n        /* \"#utility.yul\":4075:4247   */\n      pop\n      jump\t// out\n        /* \"#utility.yul\":4253:4619   */\n    tag_159:\n        /* \"#utility.yul\":4395:4398   */\n      0x00\n        /* \"#utility.yul\":4416:4483   */\n      tag_213\n        /* \"#utility.yul\":4480:4482   */\n      0x16\n        /* \"#utility.yul\":4475:4478   */\n      dup4\n        /* \"#utility.yul\":4416:4483   */\n      tag_157\n      jump\t// in\n    tag_213:\n        /* \"#utility.yul\":4409:4483   */\n      swap2\n      pop\n        /* \"#utility.yul\":4492:4585   */\n      tag_214\n        /* \"#utility.yul\":4581:4584   */\n      dup3\n        /* \"#utility.yul\":4492:4585   */\n      tag_158\n      jump\t// in\n    tag_214:\n        /* \"#utility.yul\":4610:4612   */\n      0x20\n        /* \"#utility.yul\":4605:4608   */\n      dup3\n        /* \"#utility.yul\":4601:4613   */\n      add\n        /* \"#utility.yul\":4594:4613   */\n      swap1\n      pop\n        /* \"#utility.yul\":4253:4619   */\n      swap2\n      swap1\n      pop\n      jump\t// out\n        /* \"#utility.yul\":4625:5044   */\n    tag_97:\n        /* \"#utility.yul\":4791:4795   */\n      0x00\n        /* \"#utility.yul\":4829:4831   */\n      0x20\n        /* \"#utility.yul\":4818:4827   */\n      dup3\n        /* \"#utility.yul\":4814:4832   */\n      add\n        /* \"#utility.yul\":4806:4832   */\n      swap1\n      pop\n        /* \"#utility.yul\":4878:4887   */\n      dup2\n        /* \"#utility.yul\":4872:4876   */\n      dup2\n        /* \"#utility.yul\":4868:4888   */\n      sub\n        /* \"#utility.yul\":4864:4865   */\n      0x00\n        /* \"#utility.yul\":4853:4862   */\n      dup4\n        /* \"#utility.yul\":4849:4866   */\n      add\n        /* \"#utility.yul\":4842:4889   */\n      mstore\n        /* \"#utility.yul\":4906:5037   */\n      tag_216\n        /* \"#utility.yul\":5032:5036   */\n      dup2\n        /* \"#utility.yul\":4906:5037   */\n      tag_159\n      jump\t// in\n    tag_216:\n        /* \"#utility.yul\":4898:5037   */\n      swap1\n      pop\n        /* \"#utility.yul\":4625:5044   */\n      swap2\n      swap1\n      pop\n      jump\t// out\n        /* \"#utility.yul\":5050:5382   */\n    tag_139:\n        /* \"#utility.yul\":5171:5175   */\n      0x00\n        /* \"#utility.yul\":5209:5211   */\n      0x40\n        /* \"#utility.yul\":5198:5207   */\n      dup3\n        /* \"#utility.yul\":5194:5212   */\n      add\n        /* \"#utility.yul\":5186:5212   */\n      swap1\n      pop\n        /* \"#utility.yul\":5222:5293   */\n      tag_218\n        /* \"#utility.yul\":5290:5291   */\n      0x00\n        /* \"#utility.yul\":5279:5288   */\n      dup4\n        /* \"#utility.yul\":5275:5292   */\n      add\n        /* \"#utility.yul\":5266:5272   */\n      dup6\n        /* \"#utility.yul\":5222:5293   */\n      tag_156\n      jump\t// in\n    tag_218:\n        /* \"#utility.yul\":5303:5375   */\n      tag_219\n        /* \"#utility.yul\":5371:5373   */\n      0x20\n        /* \"#utility.yul\":5360:5369   */\n      dup4\n        /* \"#utility.yul\":5356:5374   */\n      add\n        /* \"#utility.yul\":5347:5353   */\n      dup5\n        /* \"#utility.yul\":5303:5375   */\n      tag_155\n      jump\t// in\n    tag_219:\n        /* \"#utility.yul\":5050:5382   */\n      swap4\n      swap3\n      pop\n      pop\n      pop\n      jump\t// out\n\n    auxdata: 0xa2646970667358221220b9f11bcc2e5b42f34437d398879253af332aadfafd9bf69f289e1c1dc852a99b64736f6c63430008170033\n}\n",
				"bytecode": {
					"linkReferences": {},
					"object": "608060405234801562000010575f80fd5b5060405162000f3b38038062000f3b83398181016040528101906200003691906200021c565b6200004a5f801b826200005260201b60201c565b50506200024c565b5f6200006583836200014d60201b60201c565b620001435760015f808581526020019081526020015f205f015f8473ffffffffffffffffffffffffffffffffffffffff1673ffffffffffffffffffffffffffffffffffffffff1681526020019081526020015f205f6101000a81548160ff021916908315150217905550620000df620001b060201b60201c565b73ffffffffffffffffffffffffffffffffffffffff168273ffffffffffffffffffffffffffffffffffffffff16847f2f8788117e7eff1d82e926ec794901d17c78024a50270940304540a733656f0d60405160405180910390a46001905062000147565b5f90505b92915050565b5f805f8481526020019081526020015f205f015f8373ffffffffffffffffffffffffffffffffffffffff1673ffffffffffffffffffffffffffffffffffffffff1681526020019081526020015f205f9054906101000a900460ff16905092915050565b5f33905090565b5f80fd5b5f73ffffffffffffffffffffffffffffffffffffffff82169050919050565b5f620001e682620001bb565b9050919050565b620001f881620001da565b811462000203575f80fd5b50565b5f815190506200021681620001ed565b92915050565b5f60208284031215620002345762000233620001b7565b5b5f620002438482850162000206565b91505092915050565b610ce1806200025a5f395ff3fe608060405234801561000f575f80fd5b5060043610610114575f3560e01c806374d16f5c116100a0578063a217fddf1161006f578063a217fddf146102e0578063c63568c7146102fe578063d547741f1461031c578063e16c7d9814610338578063f46f16c21461036857610114565b806374d16f5c1461024457806382bfefc81461027457806391d1485414610292578063a126285b146102c257610114565b80632f2ff15d116100e75780632f2ff15d146101b257806336568abe146101ce57806343c5cd74146101ea5780634e2164c914610208578063619d36ef1461022657610114565b806301ffc9a71461011857806312d9a6ad1461014857806320987a7e14610164578063248a9ca314610182575b5f80fd5b610132600480360381019061012d9190610a68565b610386565b60405161013f9190610aad565b60405180910390f35b610162600480360381019061015d9190610b53565b6103ff565b005b61016c61044c565b6040516101799190610ba0565b60405180910390f35b61019c60048036038101906101979190610bb9565b610470565b6040516101a99190610ba0565b60405180910390f35b6101cc60048036038101906101c79190610b53565b61048c565b005b6101e860048036038101906101e39190610b53565b6104fd565b005b6101f2610578565b6040516101ff9190610ba0565b60405180910390f35b61021061059c565b60405161021d9190610ba0565b60405180910390f35b61022e6105c0565b60405161023b9190610ba0565b60405180910390f35b61025e60048036038101906102599190610bb9565b6105e4565b60405161026b9190610bf3565b60405180910390f35b61027c610614565b6040516102899190610ba0565b60405180910390f35b6102ac60048036038101906102a79190610b53565b610638565b6040516102b99190610aad565b60405180910390f35b6102ca61069b565b6040516102d79190610ba0565b60405180910390f35b6102e86106bf565b6040516102f59190610ba0565b60405180910390f35b6103066106c5565b6040516103139190610ba0565b60405180910390f35b61033660048036038101906103319190610b53565b6106e9565b005b610352600480360381019061034d9190610bb9565b61070b565b60405161035f9190610bf3565b60405180910390f35b610370610744565b60405161037d9190610ba0565b60405180910390f35b5f7f7965db0b000000000000000000000000000000000000000000000000000000007bffffffffffffffffffffffffffffffffffffffffffffffffffffffff1916827bffffffffffffffffffffffffffffffffffffffffffffffffffffffff191614806103f857506103f782610768565b5b9050919050565b6104098282610638565b610448576040517f08c379a000000000000000000000000000000000000000000000000000000000815260040161043f90610c66565b60405180910390fd5b5050565b7fdc56da5a1587a4cd75ea240b3d5cd7c4a0eaac792d95a49979f1c23a0cf8895f81565b5f805f8381526020019081526020015f20600101549050919050565b61049582610470565b61049e816107d1565b6104a883836107e5565b508160015f8581526020019081526020015f205f6101000a81548173ffffffffffffffffffffffffffffffffffffffff021916908373ffffffffffffffffffffffffffffffffffffffff160217905550505050565b6105056108ce565b73ffffffffffffffffffffffffffffffffffffffff168173ffffffffffffffffffffffffffffffffffffffff1614610569576040517f6697b23200000000000000000000000000000000000000000000000000000000815260040160405180910390fd5b61057382826108d5565b505050565b7ff45223fc822e0a02a042bb2eec36a76af2a028cc55539c3a40ab438d1089e1c081565b7f64b1d43f4e53241bce58c6f9670f08a22934a523acf2a5359fa7c904ff98bd9781565b7f1cf54708aaa392dbeba88d1a07e69feaba67586acd469366b89b52bf4413225881565b6001602052805f5260405f205f915054906101000a900473ffffffffffffffffffffffffffffffffffffffff1681565b7f96706879d29c248edfb2a2563a8a9d571c49634c0f82013e6f5a7cde739d35d481565b5f805f8481526020019081526020015f205f015f8373ffffffffffffffffffffffffffffffffffffffff1673ffffffffffffffffffffffffffffffffffffffff1681526020019081526020015f205f9054906101000a900460ff16905092915050565b7fcd0c49d5c8438d0944f64e0d3825bed3b606f318474213a77860c93bca5ed99981565b5f801b81565b7f4af58918e2c6f17f8b6da7260d8669fa63150ffd279395662a723476f776f76a81565b6106f282610470565b6106fb816107d1565b61070583836108d5565b50505050565b5f60015f8381526020019081526020015f205f9054906101000a900473ffffffffffffffffffffffffffffffffffffffff169050919050565b7f23acc66832ff38a7ce3c1caf89922410f4374ba8fd897ffa98f088747997bc6d81565b5f7f01ffc9a7000000000000000000000000000000000000000000000000000000007bffffffffffffffffffffffffffffffffffffffffffffffffffffffff1916827bffffffffffffffffffffffffffffffffffffffffffffffffffffffff1916149050919050565b6107e2816107dd6108ce565b6109be565b50565b5f6107f08383610638565b6108c45760015f808581526020019081526020015f205f015f8473ffffffffffffffffffffffffffffffffffffffff1673ffffffffffffffffffffffffffffffffffffffff1681526020019081526020015f205f6101000a81548160ff0219169083151502179055506108616108ce565b73ffffffffffffffffffffffffffffffffffffffff168273ffffffffffffffffffffffffffffffffffffffff16847f2f8788117e7eff1d82e926ec794901d17c78024a50270940304540a733656f0d60405160405180910390a4600190506108c8565b5f90505b92915050565b5f33905090565b5f6108e08383610638565b156109b4575f805f8581526020019081526020015f205f015f8473ffffffffffffffffffffffffffffffffffffffff1673ffffffffffffffffffffffffffffffffffffffff1681526020019081526020015f205f6101000a81548160ff0219169083151502179055506109516108ce565b73ffffffffffffffffffffffffffffffffffffffff168273ffffffffffffffffffffffffffffffffffffffff16847ff6391f5c32d9c69d2a47ea670b442974b53935d1edc7fd64eb21e047a839171b60405160405180910390a4600190506109b8565b5f90505b92915050565b6109c88282610638565b610a0b5780826040517fe2517d3f000000000000000000000000000000000000000000000000000000008152600401610a02929190610c84565b60405180910390fd5b5050565b5f80fd5b5f7fffffffff0000000000000000000000000000000000000000000000000000000082169050919050565b610a4781610a13565b8114610a51575f80fd5b50565b5f81359050610a6281610a3e565b92915050565b5f60208284031215610a7d57610a7c610a0f565b5b5f610a8a84828501610a54565b91505092915050565b5f8115159050919050565b610aa781610a93565b82525050565b5f602082019050610ac05f830184610a9e565b92915050565b5f819050919050565b610ad881610ac6565b8114610ae2575f80fd5b50565b5f81359050610af381610acf565b92915050565b5f73ffffffffffffffffffffffffffffffffffffffff82169050919050565b5f610b2282610af9565b9050919050565b610b3281610b18565b8114610b3c575f80fd5b50565b5f81359050610b4d81610b29565b92915050565b5f8060408385031215610b6957610b68610a0f565b5b5f610b7685828601610ae5565b9250506020610b8785828601610b3f565b9150509250929050565b610b9a81610ac6565b82525050565b5f602082019050610bb35f830184610b91565b92915050565b5f60208284031215610bce57610bcd610a0f565b5b5f610bdb84828501610ae5565b91505092915050565b610bed81610b18565b82525050565b5f602082019050610c065f830184610be4565b92915050565b5f82825260208201905092915050565b7f52656769737465723a20494e56414c49445f524f4c45000000000000000000005f82015250565b5f610c50601683610c0c565b9150610c5b82610c1c565b602082019050919050565b5f6020820190508181035f830152610c7d81610c44565b9050919050565b5f604082019050610c975f830185610be4565b610ca46020830184610b91565b939250505056fea2646970667358221220b9f11bcc2e5b42f34437d398879253af332aadfafd9bf69f289e1c1dc852a99b64736f6c63430008170033",
					"opcodes": "PUSH1 0x80 PUSH1 0x40 MSTORE CALLVALUE DUP1 ISZERO PUSH3 0x10 JUMPI PUSH0 DUP1 REVERT JUMPDEST POP PUSH1 0x40 MLOAD PUSH3 0xF3B CODESIZE SUB DUP1 PUSH3 0xF3B DUP4 CODECOPY DUP2 DUP2 ADD PUSH1 0x40 MSTORE DUP2 ADD SWAP1 PUSH3 0x36 SWAP2 SWAP1 PUSH3 0x21C JUMP JUMPDEST PUSH3 0x4A PUSH0 DUP1 SHL DUP3 PUSH3 0x52 PUSH1 0x20 SHL PUSH1 0x20 SHR JUMP JUMPDEST POP POP PUSH3 0x24C JUMP JUMPDEST PUSH0 PUSH3 0x65 DUP4 DUP4 PUSH3 0x14D PUSH1 0x20 SHL PUSH1 0x20 SHR JUMP JUMPDEST PUSH3 0x143 JUMPI PUSH1 0x1 PUSH0 DUP1 DUP6 DUP2 MSTORE PUSH1 0x20 ADD SWAP1 DUP2 MSTORE PUSH1 0x20 ADD PUSH0 KECCAK256 PUSH0 ADD PUSH0 DUP5 PUSH20 0xFFFFFFFFFFFFFFFFFFFFFFFFFFFFFFFFFFFFFFFF AND PUSH20 0xFFFFFFFFFFFFFFFFFFFFFFFFFFFFFFFFFFFFFFFF AND DUP2 MSTORE PUSH1 0x20 ADD SWAP1 DUP2 MSTORE PUSH1 0x20 ADD PUSH0 KECCAK256 PUSH0 PUSH2 0x100 EXP DUP2 SLOAD DUP2 PUSH1 0xFF MUL NOT AND SWAP1 DUP4 ISZERO ISZERO MUL OR SWAP1 SSTORE POP PUSH3 0xDF PUSH3 0x1B0 PUSH1 0x20 SHL PUSH1 0x20 SHR JUMP JUMPDEST PUSH20 0xFFFFFFFFFFFFFFFFFFFFFFFFFFFFFFFFFFFFFFFF AND DUP3 PUSH20 0xFFFFFFFFFFFFFFFFFFFFFFFFFFFFFFFFFFFFFFFF AND DUP5 PUSH32 0x2F8788117E7EFF1D82E926EC794901D17C78024A50270940304540A733656F0D PUSH1 0x40 MLOAD PUSH1 0x40 MLOAD DUP1 SWAP2 SUB SWAP1 LOG4 PUSH1 0x1 SWAP1 POP PUSH3 0x147 JUMP JUMPDEST PUSH0 SWAP1 POP JUMPDEST SWAP3 SWAP2 POP POP JUMP JUMPDEST PUSH0 DUP1 PUSH0 DUP5 DUP2 MSTORE PUSH1 0x20 ADD SWAP1 DUP2 MSTORE PUSH1 0x20 ADD PUSH0 KECCAK256 PUSH0 ADD PUSH0 DUP4 PUSH20 0xFFFFFFFFFFFFFFFFFFFFFFFFFFFFFFFFFFFFFFFF AND PUSH20 0xFFFFFFFFFFFFFFFFFFFFFFFFFFFFFFFFFFFFFFFF AND DUP2 MSTORE PUSH1 0x20 ADD SWAP1 DUP2 MSTORE PUSH1 0x20 ADD PUSH0 KECCAK256 PUSH0 SWAP1 SLOAD SWAP1 PUSH2 0x100 EXP SWAP1 DIV PUSH1 0xFF AND SWAP1 POP SWAP3 SWAP2 POP POP JUMP JUMPDEST PUSH0 CALLER SWAP1 POP SWAP1 JUMP JUMPDEST PUSH0 DUP1 REVERT JUMPDEST PUSH0 PUSH20 0xFFFFFFFFFFFFFFFFFFFFFFFFFFFFFFFFFFFFFFFF DUP3 AND SWAP1 POP SWAP2 SWAP1 POP JUMP JUMPDEST PUSH0 PUSH3 0x1E6 DUP3 PUSH3 0x1BB JUMP JUMPDEST SWAP1 POP SWAP2 SWAP1 POP JUMP JUMPDEST PUSH3 0x1F8 DUP2 PUSH3 0x1DA JUMP JUMPDEST DUP2 EQ PUSH3 0x203 JUMPI PUSH0 DUP1 REVERT JUMPDEST POP JUMP JUMPDEST PUSH0 DUP2 MLOAD SWAP1 POP PUSH3 0x216 DUP2 PUSH3 0x1ED JUMP JUMPDEST SWAP3 SWAP2 POP POP JUMP JUMPDEST PUSH0 PUSH1 0x20 DUP3 DUP5 SUB SLT ISZERO PUSH3 0x234 JUMPI PUSH3 0x233 PUSH3 0x1B7 JUMP JUMPDEST JUMPDEST PUSH0 PUSH3 0x243 DUP5 DUP3 DUP6 ADD PUSH3 0x206 JUMP JUMPDEST SWAP2 POP POP SWAP3 SWAP2 POP POP JUMP JUMPDEST PUSH2 0xCE1 DUP1 PUSH3 0x25A PUSH0 CODECOPY PUSH0 RETURN INVALID PUSH1 0x80 PUSH1 0x40 MSTORE CALLVALUE DUP1 ISZERO PUSH2 0xF JUMPI PUSH0 DUP1 REVERT JUMPDEST POP PUSH1 0x4 CALLDATASIZE LT PUSH2 0x114 JUMPI PUSH0 CALLDATALOAD PUSH1 0xE0 SHR DUP1 PUSH4 0x74D16F5C GT PUSH2 0xA0 JUMPI DUP1 PUSH4 0xA217FDDF GT PUSH2 0x6F JUMPI DUP1 PUSH4 0xA217FDDF EQ PUSH2 0x2E0 JUMPI DUP1 PUSH4 0xC63568C7 EQ PUSH2 0x2FE JUMPI DUP1 PUSH4 0xD547741F EQ PUSH2 0x31C JUMPI DUP1 PUSH4 0xE16C7D98 EQ PUSH2 0x338 JUMPI DUP1 PUSH4 0xF46F16C2 EQ PUSH2 0x368 JUMPI PUSH2 0x114 JUMP JUMPDEST DUP1 PUSH4 0x74D16F5C EQ PUSH2 0x244 JUMPI DUP1 PUSH4 0x82BFEFC8 EQ PUSH2 0x274 JUMPI DUP1 PUSH4 0x91D14854 EQ PUSH2 0x292 JUMPI DUP1 PUSH4 0xA126285B EQ PUSH2 0x2C2 JUMPI PUSH2 0x114 JUMP JUMPDEST DUP1 PUSH4 0x2F2FF15D GT PUSH2 0xE7 JUMPI DUP1 PUSH4 0x2F2FF15D EQ PUSH2 0x1B2 JUMPI DUP1 PUSH4 0x36568ABE EQ PUSH2 0x1CE JUMPI DUP1 PUSH4 0x43C5CD74 EQ PUSH2 0x1EA JUMPI DUP1 PUSH4 0x4E2164C9 EQ PUSH2 0x208 JUMPI DUP1 PUSH4 0x619D36EF EQ PUSH2 0x226 JUMPI PUSH2 0x114 JUMP JUMPDEST DUP1 PUSH4 0x1FFC9A7 EQ PUSH2 0x118 JUMPI DUP1 PUSH4 0x12D9A6AD EQ PUSH2 0x148 JUMPI DUP1 PUSH4 0x20987A7E EQ PUSH2 0x164 JUMPI DUP1 PUSH4 0x248A9CA3 EQ PUSH2 0x182 JUMPI JUMPDEST PUSH0 DUP1 REVERT JUMPDEST PUSH2 0x132 PUSH1 0x4 DUP1 CALLDATASIZE SUB DUP2 ADD SWAP1 PUSH2 0x12D SWAP2 SWAP1 PUSH2 0xA68 JUMP JUMPDEST PUSH2 0x386 JUMP JUMPDEST PUSH1 0x40 MLOAD PUSH2 0x13F SWAP2 SWAP1 PUSH2 0xAAD JUMP JUMPDEST PUSH1 0x40 MLOAD DUP1 SWAP2 SUB SWAP1 RETURN JUMPDEST PUSH2 0x162 PUSH1 0x4 DUP1 CALLDATASIZE SUB DUP2 ADD SWAP1 PUSH2 0x15D SWAP2 SWAP1 PUSH2 0xB53 JUMP JUMPDEST PUSH2 0x3FF JUMP JUMPDEST STOP JUMPDEST PUSH2 0x16C PUSH2 0x44C JUMP JUMPDEST PUSH1 0x40 MLOAD PUSH2 0x179 SWAP2 SWAP1 PUSH2 0xBA0 JUMP JUMPDEST PUSH1 0x40 MLOAD DUP1 SWAP2 SUB SWAP1 RETURN JUMPDEST PUSH2 0x19C PUSH1 0x4 DUP1 CALLDATASIZE SUB DUP2 ADD SWAP1 PUSH2 0x197 SWAP2 SWAP1 PUSH2 0xBB9 JUMP JUMPDEST PUSH2 0x470 JUMP JUMPDEST PUSH1 0x40 MLOAD PUSH2 0x1A9 SWAP2 SWAP1 PUSH2 0xBA0 JUMP JUMPDEST PUSH1 0x40 MLOAD DUP1 SWAP2 SUB SWAP1 RETURN JUMPDEST PUSH2 0x1CC PUSH1 0x4 DUP1 CALLDATASIZE SUB DUP2 ADD SWAP1 PUSH2 0x1C7 SWAP2 SWAP1 PUSH2 0xB53 JUMP JUMPDEST PUSH2 0x48C JUMP JUMPDEST STOP JUMPDEST PUSH2 0x1E8 PUSH1 0x4 DUP1 CALLDATASIZE SUB DUP2 ADD SWAP1 PUSH2 0x1E3 SWAP2 SWAP1 PUSH2 0xB53 JUMP JUMPDEST PUSH2 0x4FD JUMP JUMPDEST STOP JUMPDEST PUSH2 0x1F2 PUSH2 0x578 JUMP JUMPDEST PUSH1 0x40 MLOAD PUSH2 0x1FF SWAP2 SWAP1 PUSH2 0xBA0 JUMP JUMPDEST PUSH1 0x40 MLOAD DUP1 SWAP2 SUB SWAP1 RETURN JUMPDEST PUSH2 0x210 PUSH2 0x59C JUMP JUMPDEST PUSH1 0x40 MLOAD PUSH2 0x21D SWAP2 SWAP1 PUSH2 0xBA0 JUMP JUMPDEST PUSH1 0x40 MLOAD DUP1 SWAP2 SUB SWAP1 RETURN JUMPDEST PUSH2 0x22E PUSH2 0x5C0 JUMP JUMPDEST PUSH1 0x40 MLOAD PUSH2 0x23B SWAP2 SWAP1 PUSH2 0xBA0 JUMP JUMPDEST PUSH1 0x40 MLOAD DUP1 SWAP2 SUB SWAP1 RETURN JUMPDEST PUSH2 0x25E PUSH1 0x4 DUP1 CALLDATASIZE SUB DUP2 ADD SWAP1 PUSH2 0x259 SWAP2 SWAP1 PUSH2 0xBB9 JUMP JUMPDEST PUSH2 0x5E4 JUMP JUMPDEST PUSH1 0x40 MLOAD PUSH2 0x26B SWAP2 SWAP1 PUSH2 0xBF3 JUMP JUMPDEST PUSH1 0x40 MLOAD DUP1 SWAP2 SUB SWAP1 RETURN JUMPDEST PUSH2 0x27C PUSH2 0x614 JUMP JUMPDEST PUSH1 0x40 MLOAD PUSH2 0x289 SWAP2 SWAP1 PUSH2 0xBA0 JUMP JUMPDEST PUSH1 0x40 MLOAD DUP1 SWAP2 SUB SWAP1 RETURN JUMPDEST PUSH2 0x2AC PUSH1 0x4 DUP1 CALLDATASIZE SUB DUP2 ADD SWAP1 PUSH2 0x2A7 SWAP2 SWAP1 PUSH2 0xB53 JUMP JUMPDEST PUSH2 0x638 JUMP JUMPDEST PUSH1 0x40 MLOAD PUSH2 0x2B9 SWAP2 SWAP1 PUSH2 0xAAD JUMP JUMPDEST PUSH1 0x40 MLOAD DUP1 SWAP2 SUB SWAP1 RETURN JUMPDEST PUSH2 0x2CA PUSH2 0x69B JUMP JUMPDEST PUSH1 0x40 MLOAD PUSH2 0x2D7 SWAP2 SWAP1 PUSH2 0xBA0 JUMP JUMPDEST PUSH1 0x40 MLOAD DUP1 SWAP2 SUB SWAP1 RETURN JUMPDEST PUSH2 0x2E8 PUSH2 0x6BF JUMP JUMPDEST PUSH1 0x40 MLOAD PUSH2 0x2F5 SWAP2 SWAP1 PUSH2 0xBA0 JUMP JUMPDEST PUSH1 0x40 MLOAD DUP1 SWAP2 SUB SWAP1 RETURN JUMPDEST PUSH2 0x306 PUSH2 0x6C5 JUMP JUMPDEST PUSH1 0x40 MLOAD PUSH2 0x313 SWAP2 SWAP1 PUSH2 0xBA0 JUMP JUMPDEST PUSH1 0x40 MLOAD DUP1 SWAP2 SUB SWAP1 RETURN JUMPDEST PUSH2 0x336 PUSH1 0x4 DUP1 CALLDATASIZE SUB DUP2 ADD SWAP1 PUSH2 0x331 SWAP2 SWAP1 PUSH2 0xB53 JUMP JUMPDEST PUSH2 0x6E9 JUMP JUMPDEST STOP JUMPDEST PUSH2 0x352 PUSH1 0x4 DUP1 CALLDATASIZE SUB DUP2 ADD SWAP1 PUSH2 0x34D SWAP2 SWAP1 PUSH2 0xBB9 JUMP JUMPDEST PUSH2 0x70B JUMP JUMPDEST PUSH1 0x40 MLOAD PUSH2 0x35F SWAP2 SWAP1 PUSH2 0xBF3 JUMP JUMPDEST PUSH1 0x40 MLOAD DUP1 SWAP2 SUB SWAP1 RETURN JUMPDEST PUSH2 0x370 PUSH2 0x744 JUMP JUMPDEST PUSH1 0x40 MLOAD PUSH2 0x37D SWAP2 SWAP1 PUSH2 0xBA0 JUMP JUMPDEST PUSH1 0x40 MLOAD DUP1 SWAP2 SUB SWAP1 RETURN JUMPDEST PUSH0 PUSH32 0x7965DB0B00000000000000000000000000000000000000000000000000000000 PUSH28 0xFFFFFFFFFFFFFFFFFFFFFFFFFFFFFFFFFFFFFFFFFFFFFFFFFFFFFFFF NOT AND DUP3 PUSH28 0xFFFFFFFFFFFFFFFFFFFFFFFFFFFFFFFFFFFFFFFFFFFFFFFFFFFFFFFF NOT AND EQ DUP1 PUSH2 0x3F8 JUMPI POP PUSH2 0x3F7 DUP3 PUSH2 0x768 JUMP JUMPDEST JUMPDEST SWAP1 POP SWAP2 SWAP1 POP JUMP JUMPDEST PUSH2 0x409 DUP3 DUP3 PUSH2 0x638 JUMP JUMPDEST PUSH2 0x448 JUMPI PUSH1 0x40 MLOAD PUSH32 0x8C379A000000000000000000000000000000000000000000000000000000000 DUP2 MSTORE PUSH1 0x4 ADD PUSH2 0x43F SWAP1 PUSH2 0xC66 JUMP JUMPDEST PUSH1 0x40 MLOAD DUP1 SWAP2 SUB SWAP1 REVERT JUMPDEST POP POP JUMP JUMPDEST PUSH32 0xDC56DA5A1587A4CD75EA240B3D5CD7C4A0EAAC792D95A49979F1C23A0CF8895F DUP2 JUMP JUMPDEST PUSH0 DUP1 PUSH0 DUP4 DUP2 MSTORE PUSH1 0x20 ADD SWAP1 DUP2 MSTORE PUSH1 0x20 ADD PUSH0 KECCAK256 PUSH1 0x1 ADD SLOAD SWAP1 POP SWAP2 SWAP1 POP JUMP JUMPDEST PUSH2 0x495 DUP3 PUSH2 0x470 JUMP JUMPDEST PUSH2 0x49E DUP2 PUSH2 0x7D1 JUMP JUMPDEST PUSH2 0x4A8 DUP4 DUP4 PUSH2 0x7E5 JUMP JUMPDEST POP DUP2 PUSH1 0x1 PUSH0 DUP6 DUP2 MSTORE PUSH1 0x20 ADD SWAP1 DUP2 MSTORE PUSH1 0x20 ADD PUSH0 KECCAK256 PUSH0 PUSH2 0x100 EXP DUP2 SLOAD DUP2 PUSH20 0xFFFFFFFFFFFFFFFFFFFFFFFFFFFFFFFFFFFFFFFF MUL NOT AND SWAP1 DUP4 PUSH20 0xFFFFFFFFFFFFFFFFFFFFFFFFFFFFFFFFFFFFFFFF AND MUL OR SWAP1 SSTORE POP POP POP POP JUMP JUMPDEST PUSH2 0x505 PUSH2 0x8CE JUMP JUMPDEST PUSH20 0xFFFFFFFFFFFFFFFFFFFFFFFFFFFFFFFFFFFFFFFF AND DUP2 PUSH20 0xFFFFFFFFFFFFFFFFFFFFFFFFFFFFFFFFFFFFFFFF AND EQ PUSH2 0x569 JUMPI PUSH1 0x40 MLOAD PUSH32 0x6697B23200000000000000000000000000000000000000000000000000000000 DUP2 MSTORE PUSH1 0x4 ADD PUSH1 0x40 MLOAD DUP1 SWAP2 SUB SWAP1 REVERT JUMPDEST PUSH2 0x573 DUP3 DUP3 PUSH2 0x8D5 JUMP JUMPDEST POP POP POP JUMP JUMPDEST PUSH32 0xF45223FC822E0A02A042BB2EEC36A76AF2A028CC55539C3A40AB438D1089E1C0 DUP2 JUMP JUMPDEST PUSH32 0x64B1D43F4E53241BCE58C6F9670F08A22934A523ACF2A5359FA7C904FF98BD97 DUP2 JUMP JUMPDEST PUSH32 0x1CF54708AAA392DBEBA88D1A07E69FEABA67586ACD469366B89B52BF44132258 DUP2 JUMP JUMPDEST PUSH1 0x1 PUSH1 0x20 MSTORE DUP1 PUSH0 MSTORE PUSH1 0x40 PUSH0 KECCAK256 PUSH0 SWAP2 POP SLOAD SWAP1 PUSH2 0x100 EXP SWAP1 DIV PUSH20 0xFFFFFFFFFFFFFFFFFFFFFFFFFFFFFFFFFFFFFFFF AND DUP2 JUMP JUMPDEST PUSH32 0x96706879D29C248EDFB2A2563A8A9D571C49634C0F82013E6F5A7CDE739D35D4 DUP2 JUMP JUMPDEST PUSH0 DUP1 PUSH0 DUP5 DUP2 MSTORE PUSH1 0x20 ADD SWAP1 DUP2 MSTORE PUSH1 0x20 ADD PUSH0 KECCAK256 PUSH0 ADD PUSH0 DUP4 PUSH20 0xFFFFFFFFFFFFFFFFFFFFFFFFFFFFFFFFFFFFFFFF AND PUSH20 0xFFFFFFFFFFFFFFFFFFFFFFFFFFFFFFFFFFFFFFFF AND DUP2 MSTORE PUSH1 0x20 ADD SWAP1 DUP2 MSTORE PUSH1 0x20 ADD PUSH0 KECCAK256 PUSH0 SWAP1 SLOAD SWAP1 PUSH2 0x100 EXP SWAP1 DIV PUSH1 0xFF AND SWAP1 POP SWAP3 SWAP2 POP POP JUMP JUMPDEST PUSH32 0xCD0C49D5C8438D0944F64E0D3825BED3B606F318474213A77860C93BCA5ED999 DUP2 JUMP JUMPDEST PUSH0 DUP1 SHL DUP2 JUMP JUMPDEST PUSH32 0x4AF58918E2C6F17F8B6DA7260D8669FA63150FFD279395662A723476F776F76A DUP2 JUMP JUMPDEST PUSH2 0x6F2 DUP3 PUSH2 0x470 JUMP JUMPDEST PUSH2 0x6FB DUP2 PUSH2 0x7D1 JUMP JUMPDEST PUSH2 0x705 DUP4 DUP4 PUSH2 0x8D5 JUMP JUMPDEST POP POP POP POP JUMP JUMPDEST PUSH0 PUSH1 0x1 PUSH0 DUP4 DUP2 MSTORE PUSH1 0x20 ADD SWAP1 DUP2 MSTORE PUSH1 0x20 ADD PUSH0 KECCAK256 PUSH0 SWAP1 SLOAD SWAP1 PUSH2 0x100 EXP SWAP1 DIV PUSH20 0xFFFFFFFFFFFFFFFFFFFFFFFFFFFFFFFFFFFFFFFF AND SWAP1 POP SWAP2 SWAP1 POP JUMP JUMPDEST PUSH32 0x23ACC66832FF38A7CE3C1CAF89922410F4374BA8FD897FFA98F088747997BC6D DUP2 JUMP JUMPDEST PUSH0 PUSH32 0x1FFC9A700000000000000000000000000000000000000000000000000000000 PUSH28 0xFFFFFFFFFFFFFFFFFFFFFFFFFFFFFFFFFFFFFFFFFFFFFFFFFFFFFFFF NOT AND DUP3 PUSH28 0xFFFFFFFFFFFFFFFFFFFFFFFFFFFFFFFFFFFFFFFFFFFFFFFFFFFFFFFF NOT AND EQ SWAP1 POP SWAP2 SWAP1 POP JUMP JUMPDEST PUSH2 0x7E2 DUP2 PUSH2 0x7DD PUSH2 0x8CE JUMP JUMPDEST PUSH2 0x9BE JUMP JUMPDEST POP JUMP JUMPDEST PUSH0 PUSH2 0x7F0 DUP4 DUP4 PUSH2 0x638 JUMP JUMPDEST PUSH2 0x8C4 JUMPI PUSH1 0x1 PUSH0 DUP1 DUP6 DUP2 MSTORE PUSH1 0x20 ADD SWAP1 DUP2 MSTORE PUSH1 0x20 ADD PUSH0 KECCAK256 PUSH0 ADD PUSH0 DUP5 PUSH20 0xFFFFFFFFFFFFFFFFFFFFFFFFFFFFFFFFFFFFFFFF AND PUSH20 0xFFFFFFFFFFFFFFFFFFFFFFFFFFFFFFFFFFFFFFFF AND DUP2 MSTORE PUSH1 0x20 ADD SWAP1 DUP2 MSTORE PUSH1 0x20 ADD PUSH0 KECCAK256 PUSH0 PUSH2 0x100 EXP DUP2 SLOAD DUP2 PUSH1 0xFF MUL NOT AND SWAP1 DUP4 ISZERO ISZERO MUL OR SWAP1 SSTORE POP PUSH2 0x861 PUSH2 0x8CE JUMP JUMPDEST PUSH20 0xFFFFFFFFFFFFFFFFFFFFFFFFFFFFFFFFFFFFFFFF AND DUP3 PUSH20 0xFFFFFFFFFFFFFFFFFFFFFFFFFFFFFFFFFFFFFFFF AND DUP5 PUSH32 0x2F8788117E7EFF1D82E926EC794901D17C78024A50270940304540A733656F0D PUSH1 0x40 MLOAD PUSH1 0x40 MLOAD DUP1 SWAP2 SUB SWAP1 LOG4 PUSH1 0x1 SWAP1 POP PUSH2 0x8C8 JUMP JUMPDEST PUSH0 SWAP1 POP JUMPDEST SWAP3 SWAP2 POP POP JUMP JUMPDEST PUSH0 CALLER SWAP1 POP SWAP1 JUMP JUMPDEST PUSH0 PUSH2 0x8E0 DUP4 DUP4 PUSH2 0x638 JUMP JUMPDEST ISZERO PUSH2 0x9B4 JUMPI PUSH0 DUP1 PUSH0 DUP6 DUP2 MSTORE PUSH1 0x20 ADD SWAP1 DUP2 MSTORE PUSH1 0x20 ADD PUSH0 KECCAK256 PUSH0 ADD PUSH0 DUP5 PUSH20 0xFFFFFFFFFFFFFFFFFFFFFFFFFFFFFFFFFFFFFFFF AND PUSH20 0xFFFFFFFFFFFFFFFFFFFFFFFFFFFFFFFFFFFFFFFF AND DUP2 MSTORE PUSH1 0x20 ADD SWAP1 DUP2 MSTORE PUSH1 0x20 ADD PUSH0 KECCAK256 PUSH0 PUSH2 0x100 EXP DUP2 SLOAD DUP2 PUSH1 0xFF MUL NOT AND SWAP1 DUP4 ISZERO ISZERO MUL OR SWAP1 SSTORE POP PUSH2 0x951 PUSH2 0x8CE JUMP JUMPDEST PUSH20 0xFFFFFFFFFFFFFFFFFFFFFFFFFFFFFFFFFFFFFFFF AND DUP3 PUSH20 0xFFFFFFFFFFFFFFFFFFFFFFFFFFFFFFFFFFFFFFFF AND DUP5 PUSH32 0xF6391F5C32D9C69D2A47EA670B442974B53935D1EDC7FD64EB21E047A839171B PUSH1 0x40 MLOAD PUSH1 0x40 MLOAD DUP1 SWAP2 SUB SWAP1 LOG4 PUSH1 0x1 SWAP1 POP PUSH2 0x9B8 JUMP JUMPDEST PUSH0 SWAP1 POP JUMPDEST SWAP3 SWAP2 POP POP JUMP JUMPDEST PUSH2 0x9C8 DUP3 DUP3 PUSH2 0x638 JUMP JUMPDEST PUSH2 0xA0B JUMPI DUP1 DUP3 PUSH1 0x40 MLOAD PUSH32 0xE2517D3F00000000000000000000000000000000000000000000000000000000 DUP2 MSTORE PUSH1 0x4 ADD PUSH2 0xA02 SWAP3 SWAP2 SWAP1 PUSH2 0xC84 JUMP JUMPDEST PUSH1 0x40 MLOAD DUP1 SWAP2 SUB SWAP1 REVERT JUMPDEST POP POP JUMP JUMPDEST PUSH0 DUP1 REVERT JUMPDEST PUSH0 PUSH32 0xFFFFFFFF00000000000000000000000000000000000000000000000000000000 DUP3 AND SWAP1 POP SWAP2 SWAP1 POP JUMP JUMPDEST PUSH2 0xA47 DUP2 PUSH2 0xA13 JUMP JUMPDEST DUP2 EQ PUSH2 0xA51 JUMPI PUSH0 DUP1 REVERT JUMPDEST POP JUMP JUMPDEST PUSH0 DUP2 CALLDATALOAD SWAP1 POP PUSH2 0xA62 DUP2 PUSH2 0xA3E JUMP JUMPDEST SWAP3 SWAP2 POP POP JUMP JUMPDEST PUSH0 PUSH1 0x20 DUP3 DUP5 SUB SLT ISZERO PUSH2 0xA7D JUMPI PUSH2 0xA7C PUSH2 0xA0F JUMP JUMPDEST JUMPDEST PUSH0 PUSH2 0xA8A DUP5 DUP3 DUP6 ADD PUSH2 0xA54 JUMP JUMPDEST SWAP2 POP POP SWAP3 SWAP2 POP POP JUMP JUMPDEST PUSH0 DUP2 ISZERO ISZERO SWAP1 POP SWAP2 SWAP1 POP JUMP JUMPDEST PUSH2 0xAA7 DUP2 PUSH2 0xA93 JUMP JUMPDEST DUP3 MSTORE POP POP JUMP JUMPDEST PUSH0 PUSH1 0x20 DUP3 ADD SWAP1 POP PUSH2 0xAC0 PUSH0 DUP4 ADD DUP5 PUSH2 0xA9E JUMP JUMPDEST SWAP3 SWAP2 POP POP JUMP JUMPDEST PUSH0 DUP2 SWAP1 POP SWAP2 SWAP1 POP JUMP JUMPDEST PUSH2 0xAD8 DUP2 PUSH2 0xAC6 JUMP JUMPDEST DUP2 EQ PUSH2 0xAE2 JUMPI PUSH0 DUP1 REVERT JUMPDEST POP JUMP JUMPDEST PUSH0 DUP2 CALLDATALOAD SWAP1 POP PUSH2 0xAF3 DUP2 PUSH2 0xACF JUMP JUMPDEST SWAP3 SWAP2 POP POP JUMP JUMPDEST PUSH0 PUSH20 0xFFFFFFFFFFFFFFFFFFFFFFFFFFFFFFFFFFFFFFFF DUP3 AND SWAP1 POP SWAP2 SWAP1 POP JUMP JUMPDEST PUSH0 PUSH2 0xB22 DUP3 PUSH2 0xAF9 JUMP JUMPDEST SWAP1 POP SWAP2 SWAP1 POP JUMP JUMPDEST PUSH2 0xB32 DUP2 PUSH2 0xB18 JUMP JUMPDEST DUP2 EQ PUSH2 0xB3C JUMPI PUSH0 DUP1 REVERT JUMPDEST POP JUMP JUMPDEST PUSH0 DUP2 CALLDATALOAD SWAP1 POP PUSH2 0xB4D DUP2 PUSH2 0xB29 JUMP JUMPDEST SWAP3 SWAP2 POP POP JUMP JUMPDEST PUSH0 DUP1 PUSH1 0x40 DUP4 DUP6 SUB SLT ISZERO PUSH2 0xB69 JUMPI PUSH2 0xB68 PUSH2 0xA0F JUMP JUMPDEST JUMPDEST PUSH0 PUSH2 0xB76 DUP6 DUP3 DUP7 ADD PUSH2 0xAE5 JUMP JUMPDEST SWAP3 POP POP PUSH1 0x20 PUSH2 0xB87 DUP6 DUP3 DUP7 ADD PUSH2 0xB3F JUMP JUMPDEST SWAP2 POP POP SWAP3 POP SWAP3 SWAP1 POP JUMP JUMPDEST PUSH2 0xB9A DUP2 PUSH2 0xAC6 JUMP JUMPDEST DUP3 MSTORE POP POP JUMP JUMPDEST PUSH0 PUSH1 0x20 DUP3 ADD SWAP1 POP PUSH2 0xBB3 PUSH0 DUP4 ADD DUP5 PUSH2 0xB91 JUMP JUMPDEST SWAP3 SWAP2 POP POP JUMP JUMPDEST PUSH0 PUSH1 0x20 DUP3 DUP5 SUB SLT ISZERO PUSH2 0xBCE JUMPI PUSH2 0xBCD PUSH2 0xA0F JUMP JUMPDEST JUMPDEST PUSH0 PUSH2 0xBDB DUP5 DUP3 DUP6 ADD PUSH2 0xAE5 JUMP JUMPDEST SWAP2 POP POP SWAP3 SWAP2 POP POP JUMP JUMPDEST PUSH2 0xBED DUP2 PUSH2 0xB18 JUMP JUMPDEST DUP3 MSTORE POP POP JUMP JUMPDEST PUSH0 PUSH1 0x20 DUP3 ADD SWAP1 POP PUSH2 0xC06 PUSH0 DUP4 ADD DUP5 PUSH2 0xBE4 JUMP JUMPDEST SWAP3 SWAP2 POP POP JUMP JUMPDEST PUSH0 DUP3 DUP3 MSTORE PUSH1 0x20 DUP3 ADD SWAP1 POP SWAP3 SWAP2 POP POP JUMP JUMPDEST PUSH32 0x52656769737465723A20494E56414C49445F524F4C4500000000000000000000 PUSH0 DUP3 ADD MSTORE POP JUMP JUMPDEST PUSH0 PUSH2 0xC50 PUSH1 0x16 DUP4 PUSH2 0xC0C JUMP JUMPDEST SWAP2 POP PUSH2 0xC5B DUP3 PUSH2 0xC1C JUMP JUMPDEST PUSH1 0x20 DUP3 ADD SWAP1 POP SWAP2 SWAP1 POP JUMP JUMPDEST PUSH0 PUSH1 0x20 DUP3 ADD SWAP1 POP DUP2 DUP2 SUB PUSH0 DUP4 ADD MSTORE PUSH2 0xC7D DUP2 PUSH2 0xC44 JUMP JUMPDEST SWAP1 POP SWAP2 SWAP1 POP JUMP JUMPDEST PUSH0 PUSH1 0x40 DUP3 ADD SWAP1 POP PUSH2 0xC97 PUSH0 DUP4 ADD DUP6 PUSH2 0xBE4 JUMP JUMPDEST PUSH2 0xCA4 PUSH1 0x20 DUP4 ADD DUP5 PUSH2 0xB91 JUMP JUMPDEST SWAP4 SWAP3 POP POP POP JUMP INVALID LOG2 PUSH5 0x6970667358 0x22 SLT KECCAK256 0xB9 CALL SHL 0xCC 0x2E JUMPDEST TIMESTAMP RETURN PREVRANDAO CALLDATACOPY 0xD3 SWAP9 DUP8 SWAP3 MSTORE8 0xAF CALLER 0x2A 0xAD STATICCALL REVERT SWAP12 0xF6 SWAP16 0x28 SWAP15 SHR SAR 0xC8 MSTORE 0xA9 SWAP12 PUSH5 0x736F6C6343 STOP ADDMOD OR STOP CALLER "
				},
				"gasEstimates": {
					"creation": {
						"codeDepositCost": "659400",
						"executionCost": "infinite",
						"totalCost": "infinite"
					},
					"external": {
						"DEFAULT_ADMIN_ROLE()": "352",
						"DRAW()": "436",
						"FOMO3D()": "414",
						"JACKPOT()": "392",
						"MARKET()": "435",
						"PRIZE_ITEMS()": "393",
						"REFERRAL()": "369",
						"TOKEN()": "370",
						"VRF()": "414",
						"checkRole(bytes32,address)": "3314",
						"currentContract(bytes32)": "2850",
						"getContract(bytes32)": "2940",
						"getRoleAdmin(bytes32)": "infinite",
						"grantRole(bytes32,address)": "infinite",
						"hasRole(bytes32,address)": "3189",
						"renounceRole(bytes32,address)": "infinite",
						"revokeRole(bytes32,address)": "infinite",
						"supportsInterface(bytes4)": "741"
					}
				},
				"methodIdentifiers": {
					"DEFAULT_ADMIN_ROLE()": "a217fddf",
					"DRAW()": "619d36ef",
					"FOMO3D()": "4e2164c9",
					"JACKPOT()": "43c5cd74",
					"MARKET()": "f46f16c2",
					"PRIZE_ITEMS()": "20987a7e",
					"REFERRAL()": "c63568c7",
					"TOKEN()": "82bfefc8",
					"VRF()": "a126285b",
					"checkRole(bytes32,address)": "12d9a6ad",
					"currentContract(bytes32)": "74d16f5c",
					"getContract(bytes32)": "e16c7d98",
					"getRoleAdmin(bytes32)": "248a9ca3",
					"grantRole(bytes32,address)": "2f2ff15d",
					"hasRole(bytes32,address)": "91d14854",
					"renounceRole(bytes32,address)": "36568abe",
					"revokeRole(bytes32,address)": "d547741f",
					"supportsInterface(bytes4)": "01ffc9a7"
				}
			},
			"storageLayout": {
				"storage": [
					{
						"astId": 394,
						"contract": "contracts/periphery/Fomo3d_flattened.sol:Register",
						"label": "_roles",
						"offset": 0,
						"slot": "0",
						"type": "t_mapping(t_bytes32,t_struct(RoleData)389_storage)"
					},
					{
						"astId": 710,
						"contract": "contracts/periphery/Fomo3d_flattened.sol:Register",
						"label": "currentContract",
						"offset": 0,
						"slot": "1",
						"type": "t_mapping(t_bytes32,t_address)"
					}
				],
				"types": {
					"t_address": {
						"encoding": "inplace",
						"label": "address",
						"numberOfBytes": "20"
					},
					"t_bool": {
						"encoding": "inplace",
						"label": "bool",
						"numberOfBytes": "1"
					},
					"t_bytes32": {
						"encoding": "inplace",
						"label": "bytes32",
						"numberOfBytes": "32"
					},
					"t_mapping(t_address,t_bool)": {
						"encoding": "mapping",
						"key": "t_address",
						"label": "mapping(address => bool)",
						"numberOfBytes": "32",
						"value": "t_bool"
					},
					"t_mapping(t_bytes32,t_address)": {
						"encoding": "mapping",
						"key": "t_bytes32",
						"label": "mapping(bytes32 => address)",
						"numberOfBytes": "32",
						"value": "t_address"
					},
					"t_mapping(t_bytes32,t_struct(RoleData)389_storage)": {
						"encoding": "mapping",
						"key": "t_bytes32",
						"label": "mapping(bytes32 => struct AccessControl.RoleData)",
						"numberOfBytes": "32",
						"value": "t_struct(RoleData)389_storage"
					},
					"t_struct(RoleData)389_storage": {
						"encoding": "inplace",
						"label": "struct AccessControl.RoleData",
						"members": [
							{
								"astId": 386,
								"contract": "contracts/periphery/Fomo3d_flattened.sol:Register",
								"label": "hasRole",
								"offset": 0,
								"slot": "0",
								"type": "t_mapping(t_address,t_bool)"
							},
							{
								"astId": 388,
								"contract": "contracts/periphery/Fomo3d_flattened.sol:Register",
								"label": "adminRole",
								"offset": 0,
								"slot": "1",
								"type": "t_bytes32"
							}
						],
						"numberOfBytes": "64"
					}
				}
			},
			"userdoc": {
				"kind": "user",
				"methods": {},
				"version": 1
			}
		}
	}
}