{
	"contracts/periphery/Fomo3d_flattened.sol": {
		"Fomo3d": {
			"abi": [
				{
					"inputs": [
						{
							"internalType": "address",
							"name": "_basePaymentToken",
							"type": "address"
						},
						{
							"internalType": "address",
							"name": "_register",
							"type": "address"
						},
						{
							"internalType": "uint256",
							"name": "_price",
							"type": "uint256"
						}
					],
					"stateMutability": "nonpayable",
					"type": "constructor"
				},
				{
					"inputs": [],
					"name": "InsufficientAllowance",
					"type": "error"
				},
				{
					"inputs": [],
					"name": "InsufficientBalance",
					"type": "error"
				},
				{
					"inputs": [],
					"name": "InvalidAddress",
					"type": "error"
				},
				{
					"inputs": [],
					"name": "InvalidAmount",
					"type": "error"
				},
				{
					"inputs": [],
					"name": "InvalidValue",
					"type": "error"
				},
				{
					"anonymous": false,
					"inputs": [
						{
							"indexed": true,
							"internalType": "address",
							"name": "user",
							"type": "address"
						},
						{
							"indexed": false,
							"internalType": "uint256",
							"name": "value",
							"type": "uint256"
						}
					],
					"name": "Fomo3dClaim",
					"type": "event"
				},
				{
					"anonymous": false,
					"inputs": [
						{
							"indexed": true,
							"internalType": "address",
							"name": "user",
							"type": "address"
						},
						{
							"indexed": false,
							"internalType": "uint256",
							"name": "value",
							"type": "uint256"
						},
						{
							"indexed": false,
							"internalType": "uint256",
							"name": "amount",
							"type": "uint256"
						}
					],
					"name": "Fomo3dDeposit",
					"type": "event"
				},
				{
					"inputs": [
						{
							"internalType": "address",
							"name": "",
							"type": "address"
						}
					],
					"name": "amount",
					"outputs": [
						{
							"internalType": "uint256",
							"name": "",
							"type": "uint256"
						}
					],
					"stateMutability": "view",
					"type": "function"
				},
				{
					"inputs": [],
					"name": "claim",
					"outputs": [],
					"stateMutability": "nonpayable",
					"type": "function"
				},
				{
					"inputs": [
						{
							"internalType": "address",
							"name": "",
							"type": "address"
						}
					],
					"name": "claimed",
					"outputs": [
						{
							"internalType": "uint256",
							"name": "",
							"type": "uint256"
						}
					],
					"stateMutability": "view",
					"type": "function"
				},
				{
					"inputs": [],
					"name": "decimal",
					"outputs": [
						{
							"internalType": "uint32",
							"name": "",
							"type": "uint32"
						}
					],
					"stateMutability": "view",
					"type": "function"
				},
				{
					"inputs": [
						{
							"internalType": "address",
							"name": "_user",
							"type": "address"
						},
						{
							"internalType": "uint256",
							"name": "_value",
							"type": "uint256"
						},
						{
							"internalType": "uint256",
							"name": "_amount",
							"type": "uint256"
						}
					],
					"name": "deposit",
					"outputs": [],
					"stateMutability": "nonpayable",
					"type": "function"
				},
				{
					"inputs": [
						{
							"internalType": "address",
							"name": "_user",
							"type": "address"
						}
					],
					"name": "getClaimed",
					"outputs": [
						{
							"internalType": "uint256",
							"name": "value",
							"type": "uint256"
						}
					],
					"stateMutability": "view",
					"type": "function"
				},
				{
					"inputs": [],
					"name": "getCurrentHistoryNonce",
					"outputs": [
						{
							"internalType": "uint32",
							"name": "nonce",
							"type": "uint32"
						}
					],
					"stateMutability": "view",
					"type": "function"
				},
				{
					"inputs": [
						{
							"internalType": "uint32",
							"name": "_nonce",
							"type": "uint32"
						}
					],
					"name": "getHistory",
					"outputs": [
						{
							"components": [
								{
									"internalType": "address",
									"name": "user",
									"type": "address"
								},
								{
									"internalType": "uint256",
									"name": "value",
									"type": "uint256"
								},
								{
									"internalType": "uint256",
									"name": "amount",
									"type": "uint256"
								}
							],
							"internalType": "struct IFomo3d.HistoryInfo",
							"name": "",
							"type": "tuple"
						}
					],
					"stateMutability": "view",
					"type": "function"
				},
				{
					"inputs": [
						{
							"internalType": "address",
							"name": "_user",
							"type": "address"
						},
						{
							"internalType": "uint256",
							"name": "_amount",
							"type": "uint256"
						}
					],
					"name": "getPredict",
					"outputs": [
						{
							"internalType": "uint256",
							"name": "value",
							"type": "uint256"
						}
					],
					"stateMutability": "view",
					"type": "function"
				},
				{
					"inputs": [
						{
							"internalType": "address",
							"name": "_user",
							"type": "address"
						}
					],
					"name": "getTotalProfit",
					"outputs": [
						{
							"internalType": "uint256",
							"name": "value",
							"type": "uint256"
						}
					],
					"stateMutability": "view",
					"type": "function"
				},
				{
					"inputs": [
						{
							"internalType": "address",
							"name": "_user",
							"type": "address"
						}
					],
					"name": "getUnclaim",
					"outputs": [
						{
							"internalType": "uint256",
							"name": "value",
							"type": "uint256"
						}
					],
					"stateMutability": "view",
					"type": "function"
				},
				{
					"inputs": [
						{
							"internalType": "uint32",
							"name": "",
							"type": "uint32"
						}
					],
					"name": "historyInfo",
					"outputs": [
						{
							"internalType": "address",
							"name": "user",
							"type": "address"
						},
						{
							"internalType": "uint256",
							"name": "value",
							"type": "uint256"
						},
						{
							"internalType": "uint256",
							"name": "amount",
							"type": "uint256"
						}
					],
					"stateMutability": "view",
					"type": "function"
				},
				{
					"inputs": [],
					"name": "historyNonce",
					"outputs": [
						{
							"internalType": "uint32",
							"name": "",
							"type": "uint32"
						}
					],
					"stateMutability": "view",
					"type": "function"
				},
				{
					"inputs": [
						{
							"internalType": "address",
							"name": "",
							"type": "address"
						}
					],
					"name": "mask",
					"outputs": [
						{
							"internalType": "uint256",
							"name": "",
							"type": "uint256"
						}
					],
					"stateMutability": "view",
					"type": "function"
				},
				{
					"inputs": [],
					"name": "paymentToken",
					"outputs": [
						{
							"internalType": "contract ERC20",
							"name": "",
							"type": "address"
						}
					],
					"stateMutability": "view",
					"type": "function"
				},
				{
					"inputs": [],
					"name": "price",
					"outputs": [
						{
							"internalType": "uint256",
							"name": "",
							"type": "uint256"
						}
					],
					"stateMutability": "view",
					"type": "function"
				},
				{
					"inputs": [],
					"name": "register",
					"outputs": [
						{
							"internalType": "contract Register",
							"name": "",
							"type": "address"
						}
					],
					"stateMutability": "view",
					"type": "function"
				},
				{
					"inputs": [],
					"name": "totalAmount",
					"outputs": [
						{
							"internalType": "uint256",
							"name": "",
							"type": "uint256"
						}
					],
					"stateMutability": "view",
					"type": "function"
				},
				{
					"inputs": [],
					"name": "totalValue",
					"outputs": [
						{
							"internalType": "uint256",
							"name": "",
							"type": "uint256"
						}
					],
					"stateMutability": "view",
					"type": "function"
				},
				{
					"inputs": [
						{
							"internalType": "address",
							"name": "",
							"type": "address"
						}
					],
					"name": "unclaim",
					"outputs": [
						{
							"internalType": "uint256",
							"name": "",
							"type": "uint256"
						}
					],
					"stateMutability": "view",
					"type": "function"
				},
				{
					"inputs": [],
					"name": "valuePerAmount",
					"outputs": [
						{
							"internalType": "uint256",
							"name": "",
							"type": "uint256"
						}
					],
					"stateMutability": "view",
					"type": "function"
				}
			],
			"devdoc": {
				"author": "SeekersAlliance",
				"kind": "dev",
				"methods": {
					"deposit(address,uint256,uint256)": {
						"params": {
							"_amount": "The amount of the deposit",
							"_user": "The user address",
							"_value": "The value of the deposit"
						}
					},
					"getHistory(uint32)": {
						"params": {
							"_nonce": "The nonce of the history"
						}
					},
					"getPredict(address,uint256)": {
						"params": {
							"_amount": "The amount of user put more here",
							"_user": "The user address"
						}
					},
					"getUnclaim(address)": {
						"params": {
							"_user": "The user address"
						}
					}
				},
				"version": 1
			},
			"evm": {
				"assembly": "    /* \"contracts/periphery/Fomo3d_flattened.sol\":37317:40758  contract Fomo3d is IFomo3d{... */\n  mstore(0x40, 0x80)\n    /* \"contracts/periphery/Fomo3d_flattened.sol\":37850:38231  constructor(... */\n  callvalue\n  dup1\n  iszero\n  tag_1\n  jumpi\n  0x00\n  dup1\n  revert\ntag_1:\n  pop\n  mload(0x40)\n  sub(codesize, bytecodeSize)\n  dup1\n  bytecodeSize\n  dup4\n  codecopy\n  dup2\n  dup2\n  add\n  0x40\n  mstore\n  dup2\n  add\n  swap1\n  tag_2\n  swap2\n  swap1\n  tag_3\n  jump\t// in\ntag_2:\n    /* \"contracts/periphery/Fomo3d_flattened.sol\":37984:38001  _basePaymentToken */\n  dup3\n    /* \"contracts/periphery/Fomo3d_flattened.sol\":37963:37975  paymentToken */\n  0x00\n  dup1\n    /* \"contracts/periphery/Fomo3d_flattened.sol\":37963:38002  paymentToken = ERC20(_basePaymentToken) */\n  0x0100\n  exp\n  dup2\n  sload\n  dup2\n  0xffffffffffffffffffffffffffffffffffffffff\n  mul\n  not\n  and\n  swap1\n  dup4\n  0xffffffffffffffffffffffffffffffffffffffff\n  and\n  mul\n  or\n  swap1\n  sstore\n  pop\n    /* \"contracts/periphery/Fomo3d_flattened.sol\":38022:38034  paymentToken */\n  0x00\n  dup1\n  sload\n  swap1\n  0x0100\n  exp\n  swap1\n  div\n  0xffffffffffffffffffffffffffffffffffffffff\n  and\n    /* \"contracts/periphery/Fomo3d_flattened.sol\":38022:38043  paymentToken.decimals */\n  0xffffffffffffffffffffffffffffffffffffffff\n  and\n  0x313ce567\n    /* \"contracts/periphery/Fomo3d_flattened.sol\":38022:38045  paymentToken.decimals() */\n  mload(0x40)\n  dup2\n  0xffffffff\n  and\n  0xe0\n  shl\n  dup2\n  mstore\n  0x04\n  add\n  0x20\n  mload(0x40)\n  dup1\n  dup4\n  sub\n  dup2\n  dup7\n  gas\n  staticcall\n  iszero\n  dup1\n  iszero\n  tag_7\n  jumpi\n  returndatasize\n  0x00\n  dup1\n  returndatacopy\n  revert(0x00, returndatasize)\ntag_7:\n  pop\n  pop\n  pop\n  pop\n  mload(0x40)\n  returndatasize\n  not(0x1f)\n  0x1f\n  dup3\n  add\n  and\n  dup3\n  add\n  dup1\n  0x40\n  mstore\n  pop\n  dup2\n  add\n  swap1\n  tag_8\n  swap2\n  swap1\n  tag_9\n  jump\t// in\ntag_8:\n    /* \"contracts/periphery/Fomo3d_flattened.sol\":38012:38045  decimal = paymentToken.decimals() */\n  0xff\n  and\n    /* \"contracts/periphery/Fomo3d_flattened.sol\":38012:38019  decimal */\n  0x0b\n  0x00\n    /* \"contracts/periphery/Fomo3d_flattened.sol\":38012:38045  decimal = paymentToken.decimals() */\n  0x0100\n  exp\n  dup2\n  sload\n  dup2\n  0xffffffff\n  mul\n  not\n  and\n  swap1\n  dup4\n  0xffffffff\n  and\n  mul\n  or\n  swap1\n  sstore\n  pop\n    /* \"contracts/periphery/Fomo3d_flattened.sol\":38070:38071  0 */\n  0x00\n    /* \"contracts/periphery/Fomo3d_flattened.sol\":38055:38067  historyNonce */\n  0x07\n  0x00\n    /* \"contracts/periphery/Fomo3d_flattened.sol\":38055:38071  historyNonce = 0 */\n  0x0100\n  exp\n  dup2\n  sload\n  dup2\n  0xffffffff\n  mul\n  not\n  and\n  swap1\n  dup4\n  0xffffffff\n  and\n  mul\n  or\n  swap1\n  sstore\n  pop\n    /* \"contracts/periphery/Fomo3d_flattened.sol\":38178:38184  _price */\n  dup1\n    /* \"contracts/periphery/Fomo3d_flattened.sol\":38170:38175  price */\n  0x0c\n    /* \"contracts/periphery/Fomo3d_flattened.sol\":38170:38184  price = _price */\n  dup2\n  swap1\n  sstore\n  pop\n    /* \"contracts/periphery/Fomo3d_flattened.sol\":38214:38223  _register */\n  dup2\n    /* \"contracts/periphery/Fomo3d_flattened.sol\":38194:38202  register */\n  0x01\n  0x00\n    /* \"contracts/periphery/Fomo3d_flattened.sol\":38194:38224  register = Register(_register) */\n  0x0100\n  exp\n  dup2\n  sload\n  dup2\n  0xffffffffffffffffffffffffffffffffffffffff\n  mul\n  not\n  and\n  swap1\n  dup4\n  0xffffffffffffffffffffffffffffffffffffffff\n  and\n  mul\n  or\n  swap1\n  sstore\n  pop\n    /* \"contracts/periphery/Fomo3d_flattened.sol\":37850:38231  constructor(... */\n  pop\n  pop\n  pop\n    /* \"contracts/periphery/Fomo3d_flattened.sol\":37317:40758  contract Fomo3d is IFomo3d{... */\n  jump(tag_10)\n    /* \"#utility.yul\":88:205   */\ntag_12:\n    /* \"#utility.yul\":197:198   */\n  0x00\n    /* \"#utility.yul\":194:195   */\n  dup1\n    /* \"#utility.yul\":187:199   */\n  revert\n    /* \"#utility.yul\":334:460   */\ntag_14:\n    /* \"#utility.yul\":371:378   */\n  0x00\n    /* \"#utility.yul\":411:453   */\n  0xffffffffffffffffffffffffffffffffffffffff\n    /* \"#utility.yul\":404:409   */\n  dup3\n    /* \"#utility.yul\":400:454   */\n  and\n    /* \"#utility.yul\":389:454   */\n  swap1\n  pop\n    /* \"#utility.yul\":334:460   */\n  swap2\n  swap1\n  pop\n  jump\t// out\n    /* \"#utility.yul\":466:562   */\ntag_15:\n    /* \"#utility.yul\":503:510   */\n  0x00\n    /* \"#utility.yul\":532:556   */\n  tag_30\n    /* \"#utility.yul\":550:555   */\n  dup3\n    /* \"#utility.yul\":532:556   */\n  tag_14\n  jump\t// in\ntag_30:\n    /* \"#utility.yul\":521:556   */\n  swap1\n  pop\n    /* \"#utility.yul\":466:562   */\n  swap2\n  swap1\n  pop\n  jump\t// out\n    /* \"#utility.yul\":568:690   */\ntag_16:\n    /* \"#utility.yul\":641:665   */\n  tag_32\n    /* \"#utility.yul\":659:664   */\n  dup2\n    /* \"#utility.yul\":641:665   */\n  tag_15\n  jump\t// in\ntag_32:\n    /* \"#utility.yul\":634:639   */\n  dup2\n    /* \"#utility.yul\":631:666   */\n  eq\n    /* \"#utility.yul\":621:684   */\n  tag_33\n  jumpi\n    /* \"#utility.yul\":680:681   */\n  0x00\n    /* \"#utility.yul\":677:678   */\n  dup1\n    /* \"#utility.yul\":670:682   */\n  revert\n    /* \"#utility.yul\":621:684   */\ntag_33:\n    /* \"#utility.yul\":568:690   */\n  pop\n  jump\t// out\n    /* \"#utility.yul\":696:839   */\ntag_17:\n    /* \"#utility.yul\":753:758   */\n  0x00\n    /* \"#utility.yul\":784:790   */\n  dup2\n    /* \"#utility.yul\":778:791   */\n  mload\n    /* \"#utility.yul\":769:791   */\n  swap1\n  pop\n    /* \"#utility.yul\":800:833   */\n  tag_35\n    /* \"#utility.yul\":827:832   */\n  dup2\n    /* \"#utility.yul\":800:833   */\n  tag_16\n  jump\t// in\ntag_35:\n    /* \"#utility.yul\":696:839   */\n  swap3\n  swap2\n  pop\n  pop\n  jump\t// out\n    /* \"#utility.yul\":845:922   */\ntag_18:\n    /* \"#utility.yul\":882:889   */\n  0x00\n    /* \"#utility.yul\":911:916   */\n  dup2\n    /* \"#utility.yul\":900:916   */\n  swap1\n  pop\n    /* \"#utility.yul\":845:922   */\n  swap2\n  swap1\n  pop\n  jump\t// out\n    /* \"#utility.yul\":928:1050   */\ntag_19:\n    /* \"#utility.yul\":1001:1025   */\n  tag_38\n    /* \"#utility.yul\":1019:1024   */\n  dup2\n    /* \"#utility.yul\":1001:1025   */\n  tag_18\n  jump\t// in\ntag_38:\n    /* \"#utility.yul\":994:999   */\n  dup2\n    /* \"#utility.yul\":991:1026   */\n  eq\n    /* \"#utility.yul\":981:1044   */\n  tag_39\n  jumpi\n    /* \"#utility.yul\":1040:1041   */\n  0x00\n    /* \"#utility.yul\":1037:1038   */\n  dup1\n    /* \"#utility.yul\":1030:1042   */\n  revert\n    /* \"#utility.yul\":981:1044   */\ntag_39:\n    /* \"#utility.yul\":928:1050   */\n  pop\n  jump\t// out\n    /* \"#utility.yul\":1056:1199   */\ntag_20:\n    /* \"#utility.yul\":1113:1118   */\n  0x00\n    /* \"#utility.yul\":1144:1150   */\n  dup2\n    /* \"#utility.yul\":1138:1151   */\n  mload\n    /* \"#utility.yul\":1129:1151   */\n  swap1\n  pop\n    /* \"#utility.yul\":1160:1193   */\n  tag_41\n    /* \"#utility.yul\":1187:1192   */\n  dup2\n    /* \"#utility.yul\":1160:1193   */\n  tag_19\n  jump\t// in\ntag_41:\n    /* \"#utility.yul\":1056:1199   */\n  swap3\n  swap2\n  pop\n  pop\n  jump\t// out\n    /* \"#utility.yul\":1205:1868   */\ntag_3:\n    /* \"#utility.yul\":1293:1299   */\n  0x00\n    /* \"#utility.yul\":1301:1307   */\n  dup1\n    /* \"#utility.yul\":1309:1315   */\n  0x00\n    /* \"#utility.yul\":1358:1360   */\n  0x60\n    /* \"#utility.yul\":1346:1355   */\n  dup5\n    /* \"#utility.yul\":1337:1344   */\n  dup7\n    /* \"#utility.yul\":1333:1356   */\n  sub\n    /* \"#utility.yul\":1329:1361   */\n  slt\n    /* \"#utility.yul\":1326:1445   */\n  iszero\n  tag_43\n  jumpi\n    /* \"#utility.yul\":1364:1443   */\n  tag_44\n  tag_12\n  jump\t// in\ntag_44:\n    /* \"#utility.yul\":1326:1445   */\ntag_43:\n    /* \"#utility.yul\":1484:1485   */\n  0x00\n    /* \"#utility.yul\":1509:1573   */\n  tag_45\n    /* \"#utility.yul\":1565:1572   */\n  dup7\n    /* \"#utility.yul\":1556:1562   */\n  dup3\n    /* \"#utility.yul\":1545:1554   */\n  dup8\n    /* \"#utility.yul\":1541:1563   */\n  add\n    /* \"#utility.yul\":1509:1573   */\n  tag_17\n  jump\t// in\ntag_45:\n    /* \"#utility.yul\":1499:1573   */\n  swap4\n  pop\n    /* \"#utility.yul\":1455:1583   */\n  pop\n    /* \"#utility.yul\":1622:1624   */\n  0x20\n    /* \"#utility.yul\":1648:1712   */\n  tag_46\n    /* \"#utility.yul\":1704:1711   */\n  dup7\n    /* \"#utility.yul\":1695:1701   */\n  dup3\n    /* \"#utility.yul\":1684:1693   */\n  dup8\n    /* \"#utility.yul\":1680:1702   */\n  add\n    /* \"#utility.yul\":1648:1712   */\n  tag_17\n  jump\t// in\ntag_46:\n    /* \"#utility.yul\":1638:1712   */\n  swap3\n  pop\n    /* \"#utility.yul\":1593:1722   */\n  pop\n    /* \"#utility.yul\":1761:1763   */\n  0x40\n    /* \"#utility.yul\":1787:1851   */\n  tag_47\n    /* \"#utility.yul\":1843:1850   */\n  dup7\n    /* \"#utility.yul\":1834:1840   */\n  dup3\n    /* \"#utility.yul\":1823:1832   */\n  dup8\n    /* \"#utility.yul\":1819:1841   */\n  add\n    /* \"#utility.yul\":1787:1851   */\n  tag_20\n  jump\t// in\ntag_47:\n    /* \"#utility.yul\":1777:1851   */\n  swap2\n  pop\n    /* \"#utility.yul\":1732:1861   */\n  pop\n    /* \"#utility.yul\":1205:1868   */\n  swap3\n  pop\n  swap3\n  pop\n  swap3\n  jump\t// out\n    /* \"#utility.yul\":1874:1960   */\ntag_21:\n    /* \"#utility.yul\":1909:1916   */\n  0x00\n    /* \"#utility.yul\":1949:1953   */\n  0xff\n    /* \"#utility.yul\":1942:1947   */\n  dup3\n    /* \"#utility.yul\":1938:1954   */\n  and\n    /* \"#utility.yul\":1927:1954   */\n  swap1\n  pop\n    /* \"#utility.yul\":1874:1960   */\n  swap2\n  swap1\n  pop\n  jump\t// out\n    /* \"#utility.yul\":1966:2084   */\ntag_22:\n    /* \"#utility.yul\":2037:2059   */\n  tag_50\n    /* \"#utility.yul\":2053:2058   */\n  dup2\n    /* \"#utility.yul\":2037:2059   */\n  tag_21\n  jump\t// in\ntag_50:\n    /* \"#utility.yul\":2030:2035   */\n  dup2\n    /* \"#utility.yul\":2027:2060   */\n  eq\n    /* \"#utility.yul\":2017:2078   */\n  tag_51\n  jumpi\n    /* \"#utility.yul\":2074:2075   */\n  0x00\n    /* \"#utility.yul\":2071:2072   */\n  dup1\n    /* \"#utility.yul\":2064:2076   */\n  revert\n    /* \"#utility.yul\":2017:2078   */\ntag_51:\n    /* \"#utility.yul\":1966:2084   */\n  pop\n  jump\t// out\n    /* \"#utility.yul\":2090:2229   */\ntag_23:\n    /* \"#utility.yul\":2145:2150   */\n  0x00\n    /* \"#utility.yul\":2176:2182   */\n  dup2\n    /* \"#utility.yul\":2170:2183   */\n  mload\n    /* \"#utility.yul\":2161:2183   */\n  swap1\n  pop\n    /* \"#utility.yul\":2192:2223   */\n  tag_53\n    /* \"#utility.yul\":2217:2222   */\n  dup2\n    /* \"#utility.yul\":2192:2223   */\n  tag_22\n  jump\t// in\ntag_53:\n    /* \"#utility.yul\":2090:2229   */\n  swap3\n  swap2\n  pop\n  pop\n  jump\t// out\n    /* \"#utility.yul\":2235:2582   */\ntag_9:\n    /* \"#utility.yul\":2303:2309   */\n  0x00\n    /* \"#utility.yul\":2352:2354   */\n  0x20\n    /* \"#utility.yul\":2340:2349   */\n  dup3\n    /* \"#utility.yul\":2331:2338   */\n  dup5\n    /* \"#utility.yul\":2327:2350   */\n  sub\n    /* \"#utility.yul\":2323:2355   */\n  slt\n    /* \"#utility.yul\":2320:2439   */\n  iszero\n  tag_55\n  jumpi\n    /* \"#utility.yul\":2358:2437   */\n  tag_56\n  tag_12\n  jump\t// in\ntag_56:\n    /* \"#utility.yul\":2320:2439   */\ntag_55:\n    /* \"#utility.yul\":2478:2479   */\n  0x00\n    /* \"#utility.yul\":2503:2565   */\n  tag_57\n    /* \"#utility.yul\":2557:2564   */\n  dup5\n    /* \"#utility.yul\":2548:2554   */\n  dup3\n    /* \"#utility.yul\":2537:2546   */\n  dup6\n    /* \"#utility.yul\":2533:2555   */\n  add\n    /* \"#utility.yul\":2503:2565   */\n  tag_23\n  jump\t// in\ntag_57:\n    /* \"#utility.yul\":2493:2565   */\n  swap2\n  pop\n    /* \"#utility.yul\":2449:2575   */\n  pop\n    /* \"#utility.yul\":2235:2582   */\n  swap3\n  swap2\n  pop\n  pop\n  jump\t// out\n    /* \"contracts/periphery/Fomo3d_flattened.sol\":37317:40758  contract Fomo3d is IFomo3d{... */\ntag_10:\n  dataSize(sub_0)\n  dup1\n  dataOffset(sub_0)\n  0x00\n  codecopy\n  0x00\n  return\nstop\n\nsub_0: assembly {\n        /* \"contracts/periphery/Fomo3d_flattened.sol\":37317:40758  contract Fomo3d is IFomo3d{... */\n      mstore(0x40, 0x80)\n      callvalue\n      dup1\n      iszero\n      tag_1\n      jumpi\n      0x00\n      dup1\n      revert\n    tag_1:\n      pop\n      jumpi(tag_2, lt(calldatasize, 0x04))\n      shr(0xe0, calldataload(0x00))\n      dup1\n      0x76809ce3\n      gt\n      tag_24\n      jumpi\n      dup1\n      0xc884ef83\n      gt\n      tag_25\n      jumpi\n      dup1\n      0xc884ef83\n      eq\n      tag_18\n      jumpi\n      dup1\n      0xcdf033f3\n      eq\n      tag_19\n      jumpi\n      dup1\n      0xd4c3eea0\n      eq\n      tag_20\n      jumpi\n      dup1\n      0xeb46260e\n      eq\n      tag_21\n      jumpi\n      dup1\n      0xeeda71d5\n      eq\n      tag_22\n      jumpi\n      dup1\n      0xf54f0a8d\n      eq\n      tag_23\n      jumpi\n      jump(tag_2)\n    tag_25:\n      dup1\n      0x76809ce3\n      eq\n      tag_13\n      jumpi\n      dup1\n      0x7a19a488\n      eq\n      tag_14\n      jumpi\n      dup1\n      0x8233fbcb\n      eq\n      tag_15\n      jumpi\n      dup1\n      0xa035b1fe\n      eq\n      tag_16\n      jumpi\n      dup1\n      0xb9f0bf66\n      eq\n      tag_17\n      jumpi\n      jump(tag_2)\n    tag_24:\n      dup1\n      0x1aa3a008\n      gt\n      tag_26\n      jumpi\n      dup1\n      0x1aa3a008\n      eq\n      tag_8\n      jumpi\n      dup1\n      0x3013ce29\n      eq\n      tag_9\n      jumpi\n      dup1\n      0x480a4262\n      eq\n      tag_10\n      jumpi\n      dup1\n      0x4e71d92d\n      eq\n      tag_11\n      jumpi\n      dup1\n      0x6d1c6041\n      eq\n      tag_12\n      jumpi\n      jump(tag_2)\n    tag_26:\n      dup1\n      0x07040e91\n      eq\n      tag_3\n      jumpi\n      dup1\n      0x0efe6a8b\n      eq\n      tag_4\n      jumpi\n      dup1\n      0x1161e582\n      eq\n      tag_5\n      jumpi\n      dup1\n      0x13da0777\n      eq\n      tag_6\n      jumpi\n      dup1\n      0x1a39d8ef\n      eq\n      tag_7\n      jumpi\n    tag_2:\n      0x00\n      dup1\n      revert\n        /* \"contracts/periphery/Fomo3d_flattened.sol\":40434:40554  function getHistory(uint32 _nonce) external view returns (HistoryInfo memory){... */\n    tag_3:\n      tag_27\n      0x04\n      dup1\n      calldatasize\n      sub\n      dup2\n      add\n      swap1\n      tag_28\n      swap2\n      swap1\n      tag_29\n      jump\t// in\n    tag_28:\n      tag_30\n      jump\t// in\n    tag_27:\n      mload(0x40)\n      tag_31\n      swap2\n      swap1\n      tag_32\n      jump\t// in\n    tag_31:\n      mload(0x40)\n      dup1\n      swap2\n      sub\n      swap1\n      return\n        /* \"contracts/periphery/Fomo3d_flattened.sol\":38264:39025  function deposit(address _user, uint256 _value, uint256 _amount) external override{... */\n    tag_4:\n      tag_33\n      0x04\n      dup1\n      calldatasize\n      sub\n      dup2\n      add\n      swap1\n      tag_34\n      swap2\n      swap1\n      tag_35\n      jump\t// in\n    tag_34:\n      tag_36\n      jump\t// in\n    tag_33:\n      stop\n        /* \"contracts/periphery/Fomo3d_flattened.sol\":37506:37549  mapping (address => uint256) public unclaim */\n    tag_5:\n      tag_37\n      0x04\n      dup1\n      calldatasize\n      sub\n      dup2\n      add\n      swap1\n      tag_38\n      swap2\n      swap1\n      tag_39\n      jump\t// in\n    tag_38:\n      tag_40\n      jump\t// in\n    tag_37:\n      mload(0x40)\n      tag_41\n      swap2\n      swap1\n      tag_42\n      jump\t// in\n    tag_41:\n      mload(0x40)\n      dup1\n      swap2\n      sub\n      swap1\n      return\n        /* \"contracts/periphery/Fomo3d_flattened.sol\":39386:39767  function getPredict(address _user, uint256 _amount) external view returns (uint256 value){... */\n    tag_6:\n      tag_43\n      0x04\n      dup1\n      calldatasize\n      sub\n      dup2\n      add\n      swap1\n      tag_44\n      swap2\n      swap1\n      tag_45\n      jump\t// in\n    tag_44:\n      tag_46\n      jump\t// in\n    tag_43:\n      mload(0x40)\n      tag_47\n      swap2\n      swap1\n      tag_42\n      jump\t// in\n    tag_47:\n      mload(0x40)\n      dup1\n      swap2\n      sub\n      swap1\n      return\n        /* \"contracts/periphery/Fomo3d_flattened.sol\":37693:37719  uint256 public totalAmount */\n    tag_7:\n      tag_48\n      tag_49\n      jump\t// in\n    tag_48:\n      mload(0x40)\n      tag_50\n      swap2\n      swap1\n      tag_42\n      jump\t// in\n    tag_50:\n      mload(0x40)\n      dup1\n      swap2\n      sub\n      swap1\n      return\n        /* \"contracts/periphery/Fomo3d_flattened.sol\":37381:37405  Register public register */\n    tag_8:\n      tag_51\n      tag_52\n      jump\t// in\n    tag_51:\n      mload(0x40)\n      tag_53\n      swap2\n      swap1\n      tag_54\n      jump\t// in\n    tag_53:\n      mload(0x40)\n      dup1\n      swap2\n      sub\n      swap1\n      return\n        /* \"contracts/periphery/Fomo3d_flattened.sol\":37350:37375  ERC20 public paymentToken */\n    tag_9:\n      tag_55\n      tag_56\n      jump\t// in\n    tag_55:\n      mload(0x40)\n      tag_57\n      swap2\n      swap1\n      tag_58\n      jump\t// in\n    tag_57:\n      mload(0x40)\n      dup1\n      swap2\n      sub\n      swap1\n      return\n        /* \"contracts/periphery/Fomo3d_flattened.sol\":39799:39913  function getUnclaim(address _user) external view returns (uint256 value){... */\n    tag_10:\n      tag_59\n      0x04\n      dup1\n      calldatasize\n      sub\n      dup2\n      add\n      swap1\n      tag_60\n      swap2\n      swap1\n      tag_39\n      jump\t// in\n    tag_60:\n      tag_61\n      jump\t// in\n    tag_59:\n      mload(0x40)\n      tag_62\n      swap2\n      swap1\n      tag_42\n      jump\t// in\n    tag_62:\n      mload(0x40)\n      dup1\n      swap2\n      sub\n      swap1\n      return\n        /* \"contracts/periphery/Fomo3d_flattened.sol\":39062:39353  function claim() external{... */\n    tag_11:\n      tag_63\n      tag_64\n      jump\t// in\n    tag_63:\n      stop\n        /* \"contracts/periphery/Fomo3d_flattened.sol\":40254:40402  function getCurrentHistoryNonce() external view returns (uint32 nonce){... */\n    tag_12:\n      tag_65\n      tag_66\n      jump\t// in\n    tag_65:\n      mload(0x40)\n      tag_67\n      swap2\n      swap1\n      tag_68\n      jump\t// in\n    tag_67:\n      mload(0x40)\n      dup1\n      swap2\n      sub\n      swap1\n      return\n        /* \"contracts/periphery/Fomo3d_flattened.sol\":37791:37812  uint32 public decimal */\n    tag_13:\n      tag_69\n      tag_70\n      jump\t// in\n    tag_69:\n      mload(0x40)\n      tag_71\n      swap2\n      swap1\n      tag_68\n      jump\t// in\n    tag_71:\n      mload(0x40)\n      dup1\n      swap2\n      sub\n      swap1\n      return\n        /* \"contracts/periphery/Fomo3d_flattened.sol\":37756:37785  uint256 public valuePerAmount */\n    tag_14:\n      tag_72\n      tag_73\n      jump\t// in\n    tag_72:\n      mload(0x40)\n      tag_74\n      swap2\n      swap1\n      tag_42\n      jump\t// in\n    tag_74:\n      mload(0x40)\n      dup1\n      swap2\n      sub\n      swap1\n      return\n        /* \"contracts/periphery/Fomo3d_flattened.sol\":40087:40222  function getTotalProfit(address _user) external view returns (uint256 value){... */\n    tag_15:\n      tag_75\n      0x04\n      dup1\n      calldatasize\n      sub\n      dup2\n      add\n      swap1\n      tag_76\n      swap2\n      swap1\n      tag_39\n      jump\t// in\n    tag_76:\n      tag_77\n      jump\t// in\n    tag_75:\n      mload(0x40)\n      tag_78\n      swap2\n      swap1\n      tag_42\n      jump\t// in\n    tag_78:\n      mload(0x40)\n      dup1\n      swap2\n      sub\n      swap1\n      return\n        /* \"contracts/periphery/Fomo3d_flattened.sol\":37818:37838  uint256 public price */\n    tag_16:\n      tag_79\n      tag_80\n      jump\t// in\n    tag_79:\n      mload(0x40)\n      tag_81\n      swap2\n      swap1\n      tag_42\n      jump\t// in\n    tag_81:\n      mload(0x40)\n      dup1\n      swap2\n      sub\n      swap1\n      return\n        /* \"contracts/periphery/Fomo3d_flattened.sol\":37412:37454  mapping (address => uint256) public amount */\n    tag_17:\n      tag_82\n      0x04\n      dup1\n      calldatasize\n      sub\n      dup2\n      add\n      swap1\n      tag_83\n      swap2\n      swap1\n      tag_39\n      jump\t// in\n    tag_83:\n      tag_84\n      jump\t// in\n    tag_82:\n      mload(0x40)\n      tag_85\n      swap2\n      swap1\n      tag_42\n      jump\t// in\n    tag_85:\n      mload(0x40)\n      dup1\n      swap2\n      sub\n      swap1\n      return\n        /* \"contracts/periphery/Fomo3d_flattened.sol\":37555:37598  mapping (address => uint256) public claimed */\n    tag_18:\n      tag_86\n      0x04\n      dup1\n      calldatasize\n      sub\n      dup2\n      add\n      swap1\n      tag_87\n      swap2\n      swap1\n      tag_39\n      jump\t// in\n    tag_87:\n      tag_88\n      jump\t// in\n    tag_86:\n      mload(0x40)\n      tag_89\n      swap2\n      swap1\n      tag_42\n      jump\t// in\n    tag_89:\n      mload(0x40)\n      dup1\n      swap2\n      sub\n      swap1\n      return\n        /* \"contracts/periphery/Fomo3d_flattened.sol\":37661:37687  uint32 public historyNonce */\n    tag_19:\n      tag_90\n      tag_91\n      jump\t// in\n    tag_90:\n      mload(0x40)\n      tag_92\n      swap2\n      swap1\n      tag_68\n      jump\t// in\n    tag_92:\n      mload(0x40)\n      dup1\n      swap2\n      sub\n      swap1\n      return\n        /* \"contracts/periphery/Fomo3d_flattened.sol\":37725:37750  uint256 public totalValue */\n    tag_20:\n      tag_93\n      tag_94\n      jump\t// in\n    tag_93:\n      mload(0x40)\n      tag_95\n      swap2\n      swap1\n      tag_42\n      jump\t// in\n    tag_95:\n      mload(0x40)\n      dup1\n      swap2\n      sub\n      swap1\n      return\n        /* \"contracts/periphery/Fomo3d_flattened.sol\":39945:40055  function getClaimed(address _user) external view returns (uint256 value){... */\n    tag_21:\n      tag_96\n      0x04\n      dup1\n      calldatasize\n      sub\n      dup2\n      add\n      swap1\n      tag_97\n      swap2\n      swap1\n      tag_39\n      jump\t// in\n    tag_97:\n      tag_98\n      jump\t// in\n    tag_96:\n      mload(0x40)\n      tag_99\n      swap2\n      swap1\n      tag_42\n      jump\t// in\n    tag_99:\n      mload(0x40)\n      dup1\n      swap2\n      sub\n      swap1\n      return\n        /* \"contracts/periphery/Fomo3d_flattened.sol\":37460:37500  mapping (address => uint256) public mask */\n    tag_22:\n      tag_100\n      0x04\n      dup1\n      calldatasize\n      sub\n      dup2\n      add\n      swap1\n      tag_101\n      swap2\n      swap1\n      tag_39\n      jump\t// in\n    tag_101:\n      tag_102\n      jump\t// in\n    tag_100:\n      mload(0x40)\n      tag_103\n      swap2\n      swap1\n      tag_42\n      jump\t// in\n    tag_103:\n      mload(0x40)\n      dup1\n      swap2\n      sub\n      swap1\n      return\n        /* \"contracts/periphery/Fomo3d_flattened.sol\":37604:37654  mapping (uint32 => HistoryInfo) public historyInfo */\n    tag_23:\n      tag_104\n      0x04\n      dup1\n      calldatasize\n      sub\n      dup2\n      add\n      swap1\n      tag_105\n      swap2\n      swap1\n      tag_29\n      jump\t// in\n    tag_105:\n      tag_106\n      jump\t// in\n    tag_104:\n      mload(0x40)\n      tag_107\n      swap4\n      swap3\n      swap2\n      swap1\n      tag_108\n      jump\t// in\n    tag_107:\n      mload(0x40)\n      dup1\n      swap2\n      sub\n      swap1\n      return\n        /* \"contracts/periphery/Fomo3d_flattened.sol\":40434:40554  function getHistory(uint32 _nonce) external view returns (HistoryInfo memory){... */\n    tag_30:\n        /* \"contracts/periphery/Fomo3d_flattened.sol\":40492:40510  HistoryInfo memory */\n      tag_109\n      tag_110\n      jump\t// in\n    tag_109:\n        /* \"contracts/periphery/Fomo3d_flattened.sol\":40528:40539  historyInfo */\n      0x06\n        /* \"contracts/periphery/Fomo3d_flattened.sol\":40528:40547  historyInfo[_nonce] */\n      0x00\n        /* \"contracts/periphery/Fomo3d_flattened.sol\":40540:40546  _nonce */\n      dup4\n        /* \"contracts/periphery/Fomo3d_flattened.sol\":40528:40547  historyInfo[_nonce] */\n      0xffffffff\n      and\n      0xffffffff\n      and\n      dup2\n      mstore\n      0x20\n      add\n      swap1\n      dup2\n      mstore\n      0x20\n      add\n      0x00\n      keccak256\n        /* \"contracts/periphery/Fomo3d_flattened.sol\":40521:40547  return historyInfo[_nonce] */\n      mload(0x40)\n      dup1\n      0x60\n      add\n      0x40\n      mstore\n      swap1\n      dup2\n      0x00\n      dup3\n      add\n      0x00\n      swap1\n      sload\n      swap1\n      0x0100\n      exp\n      swap1\n      div\n      0xffffffffffffffffffffffffffffffffffffffff\n      and\n      0xffffffffffffffffffffffffffffffffffffffff\n      and\n      0xffffffffffffffffffffffffffffffffffffffff\n      and\n      dup2\n      mstore\n      0x20\n      add\n      0x01\n      dup3\n      add\n      sload\n      dup2\n      mstore\n      0x20\n      add\n      0x02\n      dup3\n      add\n      sload\n      dup2\n      mstore\n      pop\n      pop\n      swap1\n      pop\n        /* \"contracts/periphery/Fomo3d_flattened.sol\":40434:40554  function getHistory(uint32 _nonce) external view returns (HistoryInfo memory){... */\n      swap2\n      swap1\n      pop\n      jump\t// out\n        /* \"contracts/periphery/Fomo3d_flattened.sol\":38264:39025  function deposit(address _user, uint256 _value, uint256 _amount) external override{... */\n    tag_36:\n        /* \"contracts/periphery/Fomo3d_flattened.sol\":38356:38364  register */\n      0x01\n      0x00\n      swap1\n      sload\n      swap1\n      0x0100\n      exp\n      swap1\n      div\n      0xffffffffffffffffffffffffffffffffffffffff\n      and\n        /* \"contracts/periphery/Fomo3d_flattened.sol\":38356:38374  register.checkRole */\n      0xffffffffffffffffffffffffffffffffffffffff\n      and\n      0x12d9a6ad\n        /* \"contracts/periphery/Fomo3d_flattened.sol\":38375:38383  register */\n      0x01\n      0x00\n      swap1\n      sload\n      swap1\n      0x0100\n      exp\n      swap1\n      div\n      0xffffffffffffffffffffffffffffffffffffffff\n      and\n        /* \"contracts/periphery/Fomo3d_flattened.sol\":38375:38390  register.MARKET */\n      0xffffffffffffffffffffffffffffffffffffffff\n      and\n      0xf46f16c2\n        /* \"contracts/periphery/Fomo3d_flattened.sol\":38375:38392  register.MARKET() */\n      mload(0x40)\n      dup2\n      0xffffffff\n      and\n      0xe0\n      shl\n      dup2\n      mstore\n      0x04\n      add\n      0x20\n      mload(0x40)\n      dup1\n      dup4\n      sub\n      dup2\n      dup7\n      gas\n      staticcall\n      iszero\n      dup1\n      iszero\n      tag_114\n      jumpi\n      returndatasize\n      0x00\n      dup1\n      returndatacopy\n      revert(0x00, returndatasize)\n    tag_114:\n      pop\n      pop\n      pop\n      pop\n      mload(0x40)\n      returndatasize\n      not(0x1f)\n      0x1f\n      dup3\n      add\n      and\n      dup3\n      add\n      dup1\n      0x40\n      mstore\n      pop\n      dup2\n      add\n      swap1\n      tag_115\n      swap2\n      swap1\n      tag_116\n      jump\t// in\n    tag_115:\n        /* \"contracts/periphery/Fomo3d_flattened.sol\":38394:38404  msg.sender */\n      caller\n        /* \"contracts/periphery/Fomo3d_flattened.sol\":38356:38405  register.checkRole(register.MARKET(), msg.sender) */\n      mload(0x40)\n      dup4\n      0xffffffff\n      and\n      0xe0\n      shl\n      dup2\n      mstore\n      0x04\n      add\n      tag_117\n      swap3\n      swap2\n      swap1\n      tag_118\n      jump\t// in\n    tag_117:\n      0x00\n      mload(0x40)\n      dup1\n      dup4\n      sub\n      dup2\n      dup7\n      dup1\n      extcodesize\n      iszero\n      dup1\n      iszero\n      tag_119\n      jumpi\n      0x00\n      dup1\n      revert\n    tag_119:\n      pop\n      gas\n      staticcall\n      iszero\n      dup1\n      iszero\n      tag_121\n      jumpi\n      returndatasize\n      0x00\n      dup1\n      returndatacopy\n      revert(0x00, returndatasize)\n    tag_121:\n      pop\n      pop\n      pop\n      pop\n        /* \"contracts/periphery/Fomo3d_flattened.sol\":38435:38436  0 */\n      0x00\n        /* \"contracts/periphery/Fomo3d_flattened.sol\":38418:38437  _user == address(0) */\n      0xffffffffffffffffffffffffffffffffffffffff\n      and\n        /* \"contracts/periphery/Fomo3d_flattened.sol\":38418:38423  _user */\n      dup4\n        /* \"contracts/periphery/Fomo3d_flattened.sol\":38418:38437  _user == address(0) */\n      0xffffffffffffffffffffffffffffffffffffffff\n      and\n      sub\n        /* \"contracts/periphery/Fomo3d_flattened.sol\":38415:38462  if(_user == address(0)) revert InvalidAddress() */\n      tag_122\n      jumpi\n        /* \"contracts/periphery/Fomo3d_flattened.sol\":38446:38462  InvalidAddress() */\n      mload(0x40)\n      0xe6c4247b00000000000000000000000000000000000000000000000000000000\n      dup2\n      mstore\n      0x04\n      add\n      mload(0x40)\n      dup1\n      swap2\n      sub\n      swap1\n      revert\n        /* \"contracts/periphery/Fomo3d_flattened.sol\":38415:38462  if(_user == address(0)) revert InvalidAddress() */\n    tag_122:\n        /* \"contracts/periphery/Fomo3d_flattened.sol\":38485:38486  0 */\n      0x00\n        /* \"contracts/periphery/Fomo3d_flattened.sol\":38475:38481  _value */\n      dup3\n        /* \"contracts/periphery/Fomo3d_flattened.sol\":38475:38486  _value == 0 */\n      sub\n        /* \"contracts/periphery/Fomo3d_flattened.sol\":38472:38509  if(_value == 0) revert InvalidValue() */\n      tag_123\n      jumpi\n        /* \"contracts/periphery/Fomo3d_flattened.sol\":38495:38509  InvalidValue() */\n      mload(0x40)\n      0xaa7feadc00000000000000000000000000000000000000000000000000000000\n      dup2\n      mstore\n      0x04\n      add\n      mload(0x40)\n      dup1\n      swap2\n      sub\n      swap1\n      revert\n        /* \"contracts/periphery/Fomo3d_flattened.sol\":38472:38509  if(_value == 0) revert InvalidValue() */\n    tag_123:\n        /* \"contracts/periphery/Fomo3d_flattened.sol\":38533:38534  0 */\n      0x00\n        /* \"contracts/periphery/Fomo3d_flattened.sol\":38522:38529  _amount */\n      dup2\n        /* \"contracts/periphery/Fomo3d_flattened.sol\":38522:38534  _amount == 0 */\n      sub\n        /* \"contracts/periphery/Fomo3d_flattened.sol\":38519:38558  if(_amount == 0) revert InvalidAmount() */\n      tag_124\n      jumpi\n        /* \"contracts/periphery/Fomo3d_flattened.sol\":38543:38558  InvalidAmount() */\n      mload(0x40)\n      0x2c5211c600000000000000000000000000000000000000000000000000000000\n      dup2\n      mstore\n      0x04\n      add\n      mload(0x40)\n      dup1\n      swap2\n      sub\n      swap1\n      revert\n        /* \"contracts/periphery/Fomo3d_flattened.sol\":38519:38558  if(_amount == 0) revert InvalidAmount() */\n    tag_124:\n        /* \"contracts/periphery/Fomo3d_flattened.sol\":38647:38654  decimal */\n      0x0b\n      0x00\n      swap1\n      sload\n      swap1\n      0x0100\n      exp\n      swap1\n      div\n      0xffffffff\n      and\n        /* \"contracts/periphery/Fomo3d_flattened.sol\":38643:38645  10 */\n      0x0a\n        /* \"contracts/periphery/Fomo3d_flattened.sol\":38643:38654  10**decimal */\n      tag_125\n      swap2\n      swap1\n      tag_126\n      jump\t// in\n    tag_125:\n        /* \"contracts/periphery/Fomo3d_flattened.sol\":38628:38632  mask */\n      0x03\n        /* \"contracts/periphery/Fomo3d_flattened.sol\":38628:38639  mask[_user] */\n      0x00\n        /* \"contracts/periphery/Fomo3d_flattened.sol\":38633:38638  _user */\n      dup6\n        /* \"contracts/periphery/Fomo3d_flattened.sol\":38628:38639  mask[_user] */\n      0xffffffffffffffffffffffffffffffffffffffff\n      and\n      0xffffffffffffffffffffffffffffffffffffffff\n      and\n      dup2\n      mstore\n      0x20\n      add\n      swap1\n      dup2\n      mstore\n      0x20\n      add\n      0x00\n      keccak256\n      sload\n        /* \"contracts/periphery/Fomo3d_flattened.sol\":38613:38627  valuePerAmount */\n      sload(0x0a)\n        /* \"contracts/periphery/Fomo3d_flattened.sol\":38613:38639  valuePerAmount-mask[_user] */\n      tag_127\n      swap2\n      swap1\n      tag_128\n      jump\t// in\n    tag_127:\n        /* \"contracts/periphery/Fomo3d_flattened.sol\":38596:38602  amount */\n      0x02\n        /* \"contracts/periphery/Fomo3d_flattened.sol\":38596:38609  amount[_user] */\n      0x00\n        /* \"contracts/periphery/Fomo3d_flattened.sol\":38603:38608  _user */\n      dup7\n        /* \"contracts/periphery/Fomo3d_flattened.sol\":38596:38609  amount[_user] */\n      0xffffffffffffffffffffffffffffffffffffffff\n      and\n      0xffffffffffffffffffffffffffffffffffffffff\n      and\n      dup2\n      mstore\n      0x20\n      add\n      swap1\n      dup2\n      mstore\n      0x20\n      add\n      0x00\n      keccak256\n      sload\n        /* \"contracts/periphery/Fomo3d_flattened.sol\":38596:38640  amount[_user] * (valuePerAmount-mask[_user]) */\n      tag_129\n      swap2\n      swap1\n      tag_130\n      jump\t// in\n    tag_129:\n        /* \"contracts/periphery/Fomo3d_flattened.sol\":38595:38655  (amount[_user] * (valuePerAmount-mask[_user]))/(10**decimal) */\n      tag_131\n      swap2\n      swap1\n      tag_132\n      jump\t// in\n    tag_131:\n        /* \"contracts/periphery/Fomo3d_flattened.sol\":38577:38584  unclaim */\n      0x04\n        /* \"contracts/periphery/Fomo3d_flattened.sol\":38577:38591  unclaim[_user] */\n      0x00\n        /* \"contracts/periphery/Fomo3d_flattened.sol\":38585:38590  _user */\n      dup6\n        /* \"contracts/periphery/Fomo3d_flattened.sol\":38577:38591  unclaim[_user] */\n      0xffffffffffffffffffffffffffffffffffffffff\n      and\n      0xffffffffffffffffffffffffffffffffffffffff\n      and\n      dup2\n      mstore\n      0x20\n      add\n      swap1\n      dup2\n      mstore\n      0x20\n      add\n      0x00\n      keccak256\n      0x00\n        /* \"contracts/periphery/Fomo3d_flattened.sol\":38577:38655  unclaim[_user] += (amount[_user] * (valuePerAmount-mask[_user]))/(10**decimal) */\n      dup3\n      dup3\n      sload\n      tag_133\n      swap2\n      swap1\n      tag_134\n      jump\t// in\n    tag_133:\n      swap3\n      pop\n      pop\n      dup2\n      swap1\n      sstore\n      pop\n        /* \"contracts/periphery/Fomo3d_flattened.sol\":38679:38685  _value */\n      dup2\n        /* \"contracts/periphery/Fomo3d_flattened.sol\":38665:38675  totalValue */\n      0x09\n      0x00\n        /* \"contracts/periphery/Fomo3d_flattened.sol\":38665:38685  totalValue += _value */\n      dup3\n      dup3\n      sload\n      tag_135\n      swap2\n      swap1\n      tag_134\n      jump\t// in\n    tag_135:\n      swap3\n      pop\n      pop\n      dup2\n      swap1\n      sstore\n      pop\n        /* \"contracts/periphery/Fomo3d_flattened.sol\":38709:38723  valuePerAmount */\n      sload(0x0a)\n        /* \"contracts/periphery/Fomo3d_flattened.sol\":38695:38699  mask */\n      0x03\n        /* \"contracts/periphery/Fomo3d_flattened.sol\":38695:38706  mask[_user] */\n      0x00\n        /* \"contracts/periphery/Fomo3d_flattened.sol\":38700:38705  _user */\n      dup6\n        /* \"contracts/periphery/Fomo3d_flattened.sol\":38695:38706  mask[_user] */\n      0xffffffffffffffffffffffffffffffffffffffff\n      and\n      0xffffffffffffffffffffffffffffffffffffffff\n      and\n      dup2\n      mstore\n      0x20\n      add\n      swap1\n      dup2\n      mstore\n      0x20\n      add\n      0x00\n      keccak256\n        /* \"contracts/periphery/Fomo3d_flattened.sol\":38695:38723  mask[_user] = valuePerAmount */\n      dup2\n      swap1\n      sstore\n      pop\n        /* \"contracts/periphery/Fomo3d_flattened.sol\":38750:38757  _amount */\n      dup1\n        /* \"contracts/periphery/Fomo3d_flattened.sol\":38733:38739  amount */\n      0x02\n        /* \"contracts/periphery/Fomo3d_flattened.sol\":38733:38746  amount[_user] */\n      0x00\n        /* \"contracts/periphery/Fomo3d_flattened.sol\":38740:38745  _user */\n      dup6\n        /* \"contracts/periphery/Fomo3d_flattened.sol\":38733:38746  amount[_user] */\n      0xffffffffffffffffffffffffffffffffffffffff\n      and\n      0xffffffffffffffffffffffffffffffffffffffff\n      and\n      dup2\n      mstore\n      0x20\n      add\n      swap1\n      dup2\n      mstore\n      0x20\n      add\n      0x00\n      keccak256\n      0x00\n        /* \"contracts/periphery/Fomo3d_flattened.sol\":38733:38757  amount[_user] += _amount */\n      dup3\n      dup3\n      sload\n      tag_136\n      swap2\n      swap1\n      tag_134\n      jump\t// in\n    tag_136:\n      swap3\n      pop\n      pop\n      dup2\n      swap1\n      sstore\n      pop\n        /* \"contracts/periphery/Fomo3d_flattened.sol\":38782:38789  _amount */\n      dup1\n        /* \"contracts/periphery/Fomo3d_flattened.sol\":38767:38778  totalAmount */\n      0x08\n      0x00\n        /* \"contracts/periphery/Fomo3d_flattened.sol\":38767:38789  totalAmount += _amount */\n      dup3\n      dup3\n      sload\n      tag_137\n      swap2\n      swap1\n      tag_134\n      jump\t// in\n    tag_137:\n      swap3\n      pop\n      pop\n      dup2\n      swap1\n      sstore\n      pop\n        /* \"contracts/periphery/Fomo3d_flattened.sol\":38839:38850  totalAmount */\n      sload(0x08)\n        /* \"contracts/periphery/Fomo3d_flattened.sol\":38830:38837  decimal */\n      0x0b\n      0x00\n      swap1\n      sload\n      swap1\n      0x0100\n      exp\n      swap1\n      div\n      0xffffffff\n      and\n        /* \"contracts/periphery/Fomo3d_flattened.sol\":38826:38828  10 */\n      0x0a\n        /* \"contracts/periphery/Fomo3d_flattened.sol\":38826:38837  10**decimal */\n      tag_138\n      swap2\n      swap1\n      tag_126\n      jump\t// in\n    tag_138:\n        /* \"contracts/periphery/Fomo3d_flattened.sol\":38818:38824  _value */\n      dup4\n        /* \"contracts/periphery/Fomo3d_flattened.sol\":38818:38838  _value*(10**decimal) */\n      tag_139\n      swap2\n      swap1\n      tag_130\n      jump\t// in\n    tag_139:\n        /* \"contracts/periphery/Fomo3d_flattened.sol\":38818:38850  _value*(10**decimal)/totalAmount */\n      tag_140\n      swap2\n      swap1\n      tag_132\n      jump\t// in\n    tag_140:\n        /* \"contracts/periphery/Fomo3d_flattened.sol\":38799:38813  valuePerAmount */\n      0x0a\n      0x00\n        /* \"contracts/periphery/Fomo3d_flattened.sol\":38799:38851  valuePerAmount += (_value*(10**decimal)/totalAmount) */\n      dup3\n      dup3\n      sload\n      tag_141\n      swap2\n      swap1\n      tag_134\n      jump\t// in\n    tag_141:\n      swap3\n      pop\n      pop\n      dup2\n      swap1\n      sstore\n      pop\n        /* \"contracts/periphery/Fomo3d_flattened.sol\":38889:38942  HistoryInfo(_user, uint256(_value), uint256(_amount)) */\n      mload(0x40)\n      dup1\n      0x60\n      add\n      0x40\n      mstore\n      dup1\n        /* \"contracts/periphery/Fomo3d_flattened.sol\":38901:38906  _user */\n      dup5\n        /* \"contracts/periphery/Fomo3d_flattened.sol\":38889:38942  HistoryInfo(_user, uint256(_value), uint256(_amount)) */\n      0xffffffffffffffffffffffffffffffffffffffff\n      and\n      dup2\n      mstore\n      0x20\n      add\n        /* \"contracts/periphery/Fomo3d_flattened.sol\":38916:38922  _value */\n      dup4\n        /* \"contracts/periphery/Fomo3d_flattened.sol\":38889:38942  HistoryInfo(_user, uint256(_value), uint256(_amount)) */\n      dup2\n      mstore\n      0x20\n      add\n        /* \"contracts/periphery/Fomo3d_flattened.sol\":38933:38940  _amount */\n      dup3\n        /* \"contracts/periphery/Fomo3d_flattened.sol\":38889:38942  HistoryInfo(_user, uint256(_value), uint256(_amount)) */\n      dup2\n      mstore\n      pop\n        /* \"contracts/periphery/Fomo3d_flattened.sol\":38861:38872  historyInfo */\n      0x06\n        /* \"contracts/periphery/Fomo3d_flattened.sol\":38861:38886  historyInfo[historyNonce] */\n      0x00\n        /* \"contracts/periphery/Fomo3d_flattened.sol\":38873:38885  historyNonce */\n      0x07\n      0x00\n      swap1\n      sload\n      swap1\n      0x0100\n      exp\n      swap1\n      div\n      0xffffffff\n      and\n        /* \"contracts/periphery/Fomo3d_flattened.sol\":38861:38886  historyInfo[historyNonce] */\n      0xffffffff\n      and\n      0xffffffff\n      and\n      dup2\n      mstore\n      0x20\n      add\n      swap1\n      dup2\n      mstore\n      0x20\n      add\n      0x00\n      keccak256\n        /* \"contracts/periphery/Fomo3d_flattened.sol\":38861:38942  historyInfo[historyNonce] = HistoryInfo(_user, uint256(_value), uint256(_amount)) */\n      0x00\n      dup3\n      add\n      mload\n      dup2\n      0x00\n      add\n      exp(0x0100, 0x00)\n      dup2\n      sload\n      dup2\n      0xffffffffffffffffffffffffffffffffffffffff\n      mul\n      not\n      and\n      swap1\n      dup4\n      0xffffffffffffffffffffffffffffffffffffffff\n      and\n      mul\n      or\n      swap1\n      sstore\n      pop\n      0x20\n      dup3\n      add\n      mload\n      dup2\n      0x01\n      add\n      sstore\n      0x40\n      dup3\n      add\n      mload\n      dup2\n      0x02\n      add\n      sstore\n      swap1\n      pop\n      pop\n        /* \"contracts/periphery/Fomo3d_flattened.sol\":38952:38964  historyNonce */\n      0x07\n      0x00\n        /* \"contracts/periphery/Fomo3d_flattened.sol\":38952:38966  historyNonce++ */\n      dup2\n      dup2\n      swap1\n      sload\n      swap1\n      0x0100\n      exp\n      swap1\n      div\n      0xffffffff\n      and\n      dup1\n      swap3\n      swap2\n      swap1\n      tag_142\n      swap1\n      tag_143\n      jump\t// in\n    tag_142:\n      swap2\n      swap1\n      0x0100\n      exp\n      dup2\n      sload\n      dup2\n      0xffffffff\n      mul\n      not\n      and\n      swap1\n      dup4\n      0xffffffff\n      and\n      mul\n      or\n      swap1\n      sstore\n      pop\n      pop\n        /* \"contracts/periphery/Fomo3d_flattened.sol\":38995:39000  _user */\n      dup3\n        /* \"contracts/periphery/Fomo3d_flattened.sol\":38981:39018  Fomo3dDeposit(_user, _value, _amount) */\n      0xffffffffffffffffffffffffffffffffffffffff\n      and\n      0x0f0d29b5d4cebe99e2c93ffec39876a8b37c77ba767270f4f489daede43aea4e\n        /* \"contracts/periphery/Fomo3d_flattened.sol\":39002:39008  _value */\n      dup4\n        /* \"contracts/periphery/Fomo3d_flattened.sol\":39010:39017  _amount */\n      dup4\n        /* \"contracts/periphery/Fomo3d_flattened.sol\":38981:39018  Fomo3dDeposit(_user, _value, _amount) */\n      mload(0x40)\n      tag_144\n      swap3\n      swap2\n      swap1\n      tag_145\n      jump\t// in\n    tag_144:\n      mload(0x40)\n      dup1\n      swap2\n      sub\n      swap1\n      log2\n        /* \"contracts/periphery/Fomo3d_flattened.sol\":38264:39025  function deposit(address _user, uint256 _value, uint256 _amount) external override{... */\n      pop\n      pop\n      pop\n      jump\t// out\n        /* \"contracts/periphery/Fomo3d_flattened.sol\":37506:37549  mapping (address => uint256) public unclaim */\n    tag_40:\n      mstore(0x20, 0x04)\n      dup1\n      0x00\n      mstore\n      keccak256(0x00, 0x40)\n      0x00\n      swap2\n      pop\n      swap1\n      pop\n      sload\n      dup2\n      jump\t// out\n        /* \"contracts/periphery/Fomo3d_flattened.sol\":39386:39767  function getPredict(address _user, uint256 _amount) external view returns (uint256 value){... */\n    tag_46:\n        /* \"contracts/periphery/Fomo3d_flattened.sol\":39461:39474  uint256 value */\n      0x00\n        /* \"contracts/periphery/Fomo3d_flattened.sol\":39505:39506  0 */\n      dup1\n        /* \"contracts/periphery/Fomo3d_flattened.sol\":39488:39507  _user == address(0) */\n      0xffffffffffffffffffffffffffffffffffffffff\n      and\n        /* \"contracts/periphery/Fomo3d_flattened.sol\":39488:39493  _user */\n      dup4\n        /* \"contracts/periphery/Fomo3d_flattened.sol\":39488:39507  _user == address(0) */\n      0xffffffffffffffffffffffffffffffffffffffff\n      and\n      sub\n        /* \"contracts/periphery/Fomo3d_flattened.sol\":39485:39532  if(_user == address(0)) revert InvalidAddress() */\n      tag_147\n      jumpi\n        /* \"contracts/periphery/Fomo3d_flattened.sol\":39516:39532  InvalidAddress() */\n      mload(0x40)\n      0xe6c4247b00000000000000000000000000000000000000000000000000000000\n      dup2\n      mstore\n      0x04\n      add\n      mload(0x40)\n      dup1\n      swap2\n      sub\n      swap1\n      revert\n        /* \"contracts/periphery/Fomo3d_flattened.sol\":39485:39532  if(_user == address(0)) revert InvalidAddress() */\n    tag_147:\n        /* \"contracts/periphery/Fomo3d_flattened.sol\":39542:39560  uint256 userAmount */\n      0x00\n        /* \"contracts/periphery/Fomo3d_flattened.sol\":39579:39586  _amount */\n      dup3\n        /* \"contracts/periphery/Fomo3d_flattened.sol\":39563:39569  amount */\n      0x02\n        /* \"contracts/periphery/Fomo3d_flattened.sol\":39563:39576  amount[_user] */\n      0x00\n        /* \"contracts/periphery/Fomo3d_flattened.sol\":39570:39575  _user */\n      dup7\n        /* \"contracts/periphery/Fomo3d_flattened.sol\":39563:39576  amount[_user] */\n      0xffffffffffffffffffffffffffffffffffffffff\n      and\n      0xffffffffffffffffffffffffffffffffffffffff\n      and\n      dup2\n      mstore\n      0x20\n      add\n      swap1\n      dup2\n      mstore\n      0x20\n      add\n      0x00\n      keccak256\n      sload\n        /* \"contracts/periphery/Fomo3d_flattened.sol\":39563:39586  amount[_user] + _amount */\n      tag_148\n      swap2\n      swap1\n      tag_134\n      jump\t// in\n    tag_148:\n        /* \"contracts/periphery/Fomo3d_flattened.sol\":39542:39586  uint256 userAmount = amount[_user] + _amount */\n      swap1\n      pop\n        /* \"contracts/periphery/Fomo3d_flattened.sol\":39622:39623  0 */\n      0x00\n        /* \"contracts/periphery/Fomo3d_flattened.sol\":39611:39618  _amount */\n      dup4\n        /* \"contracts/periphery/Fomo3d_flattened.sol\":39599:39610  totalAmount */\n      sload(0x08)\n        /* \"contracts/periphery/Fomo3d_flattened.sol\":39599:39618  totalAmount+_amount */\n      tag_149\n      swap2\n      swap1\n      tag_134\n      jump\t// in\n    tag_149:\n        /* \"contracts/periphery/Fomo3d_flattened.sol\":39599:39623  totalAmount+_amount == 0 */\n      sub\n        /* \"contracts/periphery/Fomo3d_flattened.sol\":39596:39633  if(totalAmount+_amount == 0) return 0 */\n      tag_150\n      jumpi\n        /* \"contracts/periphery/Fomo3d_flattened.sol\":39632:39633  0 */\n      0x00\n        /* \"contracts/periphery/Fomo3d_flattened.sol\":39625:39633  return 0 */\n      swap2\n      pop\n      pop\n      jump(tag_146)\n        /* \"contracts/periphery/Fomo3d_flattened.sol\":39596:39633  if(totalAmount+_amount == 0) return 0 */\n    tag_150:\n        /* \"contracts/periphery/Fomo3d_flattened.sol\":39643:39656  uint256 ratio */\n      0x00\n        /* \"contracts/periphery/Fomo3d_flattened.sol\":39699:39706  _amount */\n      dup4\n        /* \"contracts/periphery/Fomo3d_flattened.sol\":39687:39698  totalAmount */\n      sload(0x08)\n        /* \"contracts/periphery/Fomo3d_flattened.sol\":39687:39706  totalAmount+_amount */\n      tag_151\n      swap2\n      swap1\n      tag_134\n      jump\t// in\n    tag_151:\n        /* \"contracts/periphery/Fomo3d_flattened.sol\":39676:39683  decimal */\n      0x0b\n      0x00\n      swap1\n      sload\n      swap1\n      0x0100\n      exp\n      swap1\n      div\n      0xffffffff\n      and\n        /* \"contracts/periphery/Fomo3d_flattened.sol\":39672:39674  10 */\n      0x0a\n        /* \"contracts/periphery/Fomo3d_flattened.sol\":39672:39683  10**decimal */\n      tag_152\n      swap2\n      swap1\n      tag_126\n      jump\t// in\n    tag_152:\n        /* \"contracts/periphery/Fomo3d_flattened.sol\":39660:39670  userAmount */\n      dup4\n        /* \"contracts/periphery/Fomo3d_flattened.sol\":39660:39684  userAmount*(10**decimal) */\n      tag_153\n      swap2\n      swap1\n      tag_130\n      jump\t// in\n    tag_153:\n        /* \"contracts/periphery/Fomo3d_flattened.sol\":39659:39707  (userAmount*(10**decimal))/(totalAmount+_amount) */\n      tag_154\n      swap2\n      swap1\n      tag_132\n      jump\t// in\n    tag_154:\n        /* \"contracts/periphery/Fomo3d_flattened.sol\":39643:39707  uint256 ratio = (userAmount*(10**decimal))/(totalAmount+_amount) */\n      swap1\n      pop\n        /* \"contracts/periphery/Fomo3d_flattened.sol\":39752:39759  decimal */\n      0x0b\n      0x00\n      swap1\n      sload\n      swap1\n      0x0100\n      exp\n      swap1\n      div\n      0xffffffff\n      and\n        /* \"contracts/periphery/Fomo3d_flattened.sol\":39748:39750  10 */\n      0x0a\n        /* \"contracts/periphery/Fomo3d_flattened.sol\":39748:39759  10**decimal */\n      tag_155\n      swap2\n      swap1\n      tag_126\n      jump\t// in\n    tag_155:\n        /* \"contracts/periphery/Fomo3d_flattened.sol\":39741:39743  10 */\n      0x0a\n        /* \"contracts/periphery/Fomo3d_flattened.sol\":39735:39740  price */\n      sload(0x0c)\n        /* \"contracts/periphery/Fomo3d_flattened.sol\":39735:39743  price/10 */\n      tag_156\n      swap2\n      swap1\n      tag_132\n      jump\t// in\n    tag_156:\n        /* \"contracts/periphery/Fomo3d_flattened.sol\":39726:39731  ratio */\n      dup3\n        /* \"contracts/periphery/Fomo3d_flattened.sol\":39726:39744  ratio * (price/10) */\n      tag_157\n      swap2\n      swap1\n      tag_130\n      jump\t// in\n    tag_157:\n        /* \"contracts/periphery/Fomo3d_flattened.sol\":39725:39760  (ratio * (price/10))/ (10**decimal) */\n      tag_158\n      swap2\n      swap1\n      tag_132\n      jump\t// in\n    tag_158:\n        /* \"contracts/periphery/Fomo3d_flattened.sol\":39717:39760  return  (ratio * (price/10))/ (10**decimal) */\n      swap3\n      pop\n      pop\n      pop\n        /* \"contracts/periphery/Fomo3d_flattened.sol\":39386:39767  function getPredict(address _user, uint256 _amount) external view returns (uint256 value){... */\n    tag_146:\n      swap3\n      swap2\n      pop\n      pop\n      jump\t// out\n        /* \"contracts/periphery/Fomo3d_flattened.sol\":37693:37719  uint256 public totalAmount */\n    tag_49:\n      sload(0x08)\n      dup2\n      jump\t// out\n        /* \"contracts/periphery/Fomo3d_flattened.sol\":37381:37405  Register public register */\n    tag_52:\n      0x01\n      0x00\n      swap1\n      sload\n      swap1\n      0x0100\n      exp\n      swap1\n      div\n      0xffffffffffffffffffffffffffffffffffffffff\n      and\n      dup2\n      jump\t// out\n        /* \"contracts/periphery/Fomo3d_flattened.sol\":37350:37375  ERC20 public paymentToken */\n    tag_56:\n      0x00\n      dup1\n      sload\n      swap1\n      0x0100\n      exp\n      swap1\n      div\n      0xffffffffffffffffffffffffffffffffffffffff\n      and\n      dup2\n      jump\t// out\n        /* \"contracts/periphery/Fomo3d_flattened.sol\":39799:39913  function getUnclaim(address _user) external view returns (uint256 value){... */\n    tag_61:\n        /* \"contracts/periphery/Fomo3d_flattened.sol\":39857:39870  uint256 value */\n      0x00\n        /* \"contracts/periphery/Fomo3d_flattened.sol\":39888:39906  _getUnclaim(_user) */\n      tag_160\n        /* \"contracts/periphery/Fomo3d_flattened.sol\":39900:39905  _user */\n      dup3\n        /* \"contracts/periphery/Fomo3d_flattened.sol\":39888:39899  _getUnclaim */\n      tag_161\n        /* \"contracts/periphery/Fomo3d_flattened.sol\":39888:39906  _getUnclaim(_user) */\n      jump\t// in\n    tag_160:\n        /* \"contracts/periphery/Fomo3d_flattened.sol\":39881:39906  return _getUnclaim(_user) */\n      swap1\n      pop\n        /* \"contracts/periphery/Fomo3d_flattened.sol\":39799:39913  function getUnclaim(address _user) external view returns (uint256 value){... */\n      swap2\n      swap1\n      pop\n      jump\t// out\n        /* \"contracts/periphery/Fomo3d_flattened.sol\":39062:39353  function claim() external{... */\n    tag_64:\n        /* \"contracts/periphery/Fomo3d_flattened.sol\":39097:39110  address _user */\n      0x00\n        /* \"contracts/periphery/Fomo3d_flattened.sol\":39113:39123  msg.sender */\n      caller\n        /* \"contracts/periphery/Fomo3d_flattened.sol\":39097:39123  address _user = msg.sender */\n      swap1\n      pop\n        /* \"contracts/periphery/Fomo3d_flattened.sol\":39153:39154  0 */\n      0x00\n        /* \"contracts/periphery/Fomo3d_flattened.sol\":39136:39155  _user == address(0) */\n      0xffffffffffffffffffffffffffffffffffffffff\n      and\n        /* \"contracts/periphery/Fomo3d_flattened.sol\":39136:39141  _user */\n      dup2\n        /* \"contracts/periphery/Fomo3d_flattened.sol\":39136:39155  _user == address(0) */\n      0xffffffffffffffffffffffffffffffffffffffff\n      and\n      sub\n        /* \"contracts/periphery/Fomo3d_flattened.sol\":39133:39180  if(_user == address(0)) revert InvalidAddress() */\n      tag_163\n      jumpi\n        /* \"contracts/periphery/Fomo3d_flattened.sol\":39164:39180  InvalidAddress() */\n      mload(0x40)\n      0xe6c4247b00000000000000000000000000000000000000000000000000000000\n      dup2\n      mstore\n      0x04\n      add\n      mload(0x40)\n      dup1\n      swap2\n      sub\n      swap1\n      revert\n        /* \"contracts/periphery/Fomo3d_flattened.sol\":39133:39180  if(_user == address(0)) revert InvalidAddress() */\n    tag_163:\n        /* \"contracts/periphery/Fomo3d_flattened.sol\":39190:39204  uint256 _value */\n      0x00\n        /* \"contracts/periphery/Fomo3d_flattened.sol\":39207:39225  _getUnclaim(_user) */\n      tag_164\n        /* \"contracts/periphery/Fomo3d_flattened.sol\":39219:39224  _user */\n      dup3\n        /* \"contracts/periphery/Fomo3d_flattened.sol\":39207:39218  _getUnclaim */\n      tag_161\n        /* \"contracts/periphery/Fomo3d_flattened.sol\":39207:39225  _getUnclaim(_user) */\n      jump\t// in\n    tag_164:\n        /* \"contracts/periphery/Fomo3d_flattened.sol\":39190:39225  uint256 _value = _getUnclaim(_user) */\n      swap1\n      pop\n        /* \"contracts/periphery/Fomo3d_flattened.sol\":39235:39247  paymentToken */\n      0x00\n      dup1\n      sload\n      swap1\n      0x0100\n      exp\n      swap1\n      div\n      0xffffffffffffffffffffffffffffffffffffffff\n      and\n        /* \"contracts/periphery/Fomo3d_flattened.sol\":39235:39256  paymentToken.transfer */\n      0xffffffffffffffffffffffffffffffffffffffff\n      and\n      0xa9059cbb\n        /* \"contracts/periphery/Fomo3d_flattened.sol\":39257:39262  _user */\n      dup4\n        /* \"contracts/periphery/Fomo3d_flattened.sol\":39264:39270  _value */\n      dup4\n        /* \"contracts/periphery/Fomo3d_flattened.sol\":39235:39271  paymentToken.transfer(_user, _value) */\n      mload(0x40)\n      dup4\n      0xffffffff\n      and\n      0xe0\n      shl\n      dup2\n      mstore\n      0x04\n      add\n      tag_165\n      swap3\n      swap2\n      swap1\n      tag_166\n      jump\t// in\n    tag_165:\n      0x20\n      mload(0x40)\n      dup1\n      dup4\n      sub\n      dup2\n      0x00\n      dup8\n      gas\n      call\n      iszero\n      dup1\n      iszero\n      tag_168\n      jumpi\n      returndatasize\n      0x00\n      dup1\n      returndatacopy\n      revert(0x00, returndatasize)\n    tag_168:\n      pop\n      pop\n      pop\n      pop\n      mload(0x40)\n      returndatasize\n      not(0x1f)\n      0x1f\n      dup3\n      add\n      and\n      dup3\n      add\n      dup1\n      0x40\n      mstore\n      pop\n      dup2\n      add\n      swap1\n      tag_169\n      swap2\n      swap1\n      tag_170\n      jump\t// in\n    tag_169:\n      pop\n        /* \"contracts/periphery/Fomo3d_flattened.sol\":39299:39305  _value */\n      dup1\n        /* \"contracts/periphery/Fomo3d_flattened.sol\":39281:39288  claimed */\n      0x05\n        /* \"contracts/periphery/Fomo3d_flattened.sol\":39281:39295  claimed[_user] */\n      0x00\n        /* \"contracts/periphery/Fomo3d_flattened.sol\":39289:39294  _user */\n      dup5\n        /* \"contracts/periphery/Fomo3d_flattened.sol\":39281:39295  claimed[_user] */\n      0xffffffffffffffffffffffffffffffffffffffff\n      and\n      0xffffffffffffffffffffffffffffffffffffffff\n      and\n      dup2\n      mstore\n      0x20\n      add\n      swap1\n      dup2\n      mstore\n      0x20\n      add\n      0x00\n      keccak256\n      0x00\n        /* \"contracts/periphery/Fomo3d_flattened.sol\":39281:39305  claimed[_user] += _value */\n      dup3\n      dup3\n      sload\n      tag_171\n      swap2\n      swap1\n      tag_134\n      jump\t// in\n    tag_171:\n      swap3\n      pop\n      pop\n      dup2\n      swap1\n      sstore\n      pop\n        /* \"contracts/periphery/Fomo3d_flattened.sol\":39332:39337  _user */\n      dup2\n        /* \"contracts/periphery/Fomo3d_flattened.sol\":39320:39346  Fomo3dClaim(_user, _value) */\n      0xffffffffffffffffffffffffffffffffffffffff\n      and\n      0x3488c34059d2e654b3b166b5ec4ee17bbd37297b906d39c704104a7dc2459b31\n        /* \"contracts/periphery/Fomo3d_flattened.sol\":39339:39345  _value */\n      dup3\n        /* \"contracts/periphery/Fomo3d_flattened.sol\":39320:39346  Fomo3dClaim(_user, _value) */\n      mload(0x40)\n      tag_172\n      swap2\n      swap1\n      tag_42\n      jump\t// in\n    tag_172:\n      mload(0x40)\n      dup1\n      swap2\n      sub\n      swap1\n      log2\n        /* \"contracts/periphery/Fomo3d_flattened.sol\":39087:39353  {... */\n      pop\n      pop\n        /* \"contracts/periphery/Fomo3d_flattened.sol\":39062:39353  function claim() external{... */\n      jump\t// out\n        /* \"contracts/periphery/Fomo3d_flattened.sol\":40254:40402  function getCurrentHistoryNonce() external view returns (uint32 nonce){... */\n    tag_66:\n        /* \"contracts/periphery/Fomo3d_flattened.sol\":40311:40323  uint32 nonce */\n      0x00\n        /* \"contracts/periphery/Fomo3d_flattened.sol\":40353:40354  0 */\n      dup1\n        /* \"contracts/periphery/Fomo3d_flattened.sol\":40337:40349  historyNonce */\n      0x07\n      0x00\n      swap1\n      sload\n      swap1\n      0x0100\n      exp\n      swap1\n      div\n      0xffffffff\n      and\n        /* \"contracts/periphery/Fomo3d_flattened.sol\":40337:40354  historyNonce == 0 */\n      0xffffffff\n      and\n      sub\n        /* \"contracts/periphery/Fomo3d_flattened.sol\":40334:40364  if(historyNonce == 0) return 0 */\n      tag_174\n      jumpi\n        /* \"contracts/periphery/Fomo3d_flattened.sol\":40363:40364  0 */\n      0x00\n        /* \"contracts/periphery/Fomo3d_flattened.sol\":40356:40364  return 0 */\n      swap1\n      pop\n      jump(tag_173)\n        /* \"contracts/periphery/Fomo3d_flattened.sol\":40334:40364  if(historyNonce == 0) return 0 */\n    tag_174:\n        /* \"contracts/periphery/Fomo3d_flattened.sol\":40394:40395  1 */\n      0x01\n        /* \"contracts/periphery/Fomo3d_flattened.sol\":40381:40393  historyNonce */\n      0x07\n      0x00\n      swap1\n      sload\n      swap1\n      0x0100\n      exp\n      swap1\n      div\n      0xffffffff\n      and\n        /* \"contracts/periphery/Fomo3d_flattened.sol\":40381:40395  historyNonce-1 */\n      tag_175\n      swap2\n      swap1\n      tag_176\n      jump\t// in\n    tag_175:\n        /* \"contracts/periphery/Fomo3d_flattened.sol\":40374:40395  return historyNonce-1 */\n      swap1\n      pop\n        /* \"contracts/periphery/Fomo3d_flattened.sol\":40254:40402  function getCurrentHistoryNonce() external view returns (uint32 nonce){... */\n    tag_173:\n      swap1\n      jump\t// out\n        /* \"contracts/periphery/Fomo3d_flattened.sol\":37791:37812  uint32 public decimal */\n    tag_70:\n      0x0b\n      0x00\n      swap1\n      sload\n      swap1\n      0x0100\n      exp\n      swap1\n      div\n      0xffffffff\n      and\n      dup2\n      jump\t// out\n        /* \"contracts/periphery/Fomo3d_flattened.sol\":37756:37785  uint256 public valuePerAmount */\n    tag_73:\n      sload(0x0a)\n      dup2\n      jump\t// out\n        /* \"contracts/periphery/Fomo3d_flattened.sol\":40087:40222  function getTotalProfit(address _user) external view returns (uint256 value){... */\n    tag_77:\n        /* \"contracts/periphery/Fomo3d_flattened.sol\":40149:40162  uint256 value */\n      0x00\n        /* \"contracts/periphery/Fomo3d_flattened.sol\":40197:40215  _getUnclaim(_user) */\n      tag_178\n        /* \"contracts/periphery/Fomo3d_flattened.sol\":40209:40214  _user */\n      dup3\n        /* \"contracts/periphery/Fomo3d_flattened.sol\":40197:40208  _getUnclaim */\n      tag_161\n        /* \"contracts/periphery/Fomo3d_flattened.sol\":40197:40215  _getUnclaim(_user) */\n      jump\t// in\n    tag_178:\n        /* \"contracts/periphery/Fomo3d_flattened.sol\":40180:40187  claimed */\n      0x05\n        /* \"contracts/periphery/Fomo3d_flattened.sol\":40180:40194  claimed[_user] */\n      0x00\n        /* \"contracts/periphery/Fomo3d_flattened.sol\":40188:40193  _user */\n      dup5\n        /* \"contracts/periphery/Fomo3d_flattened.sol\":40180:40194  claimed[_user] */\n      0xffffffffffffffffffffffffffffffffffffffff\n      and\n      0xffffffffffffffffffffffffffffffffffffffff\n      and\n      dup2\n      mstore\n      0x20\n      add\n      swap1\n      dup2\n      mstore\n      0x20\n      add\n      0x00\n      keccak256\n      sload\n        /* \"contracts/periphery/Fomo3d_flattened.sol\":40180:40215  claimed[_user] + _getUnclaim(_user) */\n      tag_179\n      swap2\n      swap1\n      tag_134\n      jump\t// in\n    tag_179:\n        /* \"contracts/periphery/Fomo3d_flattened.sol\":40173:40215  return claimed[_user] + _getUnclaim(_user) */\n      swap1\n      pop\n        /* \"contracts/periphery/Fomo3d_flattened.sol\":40087:40222  function getTotalProfit(address _user) external view returns (uint256 value){... */\n      swap2\n      swap1\n      pop\n      jump\t// out\n        /* \"contracts/periphery/Fomo3d_flattened.sol\":37818:37838  uint256 public price */\n    tag_80:\n      sload(0x0c)\n      dup2\n      jump\t// out\n        /* \"contracts/periphery/Fomo3d_flattened.sol\":37412:37454  mapping (address => uint256) public amount */\n    tag_84:\n      mstore(0x20, 0x02)\n      dup1\n      0x00\n      mstore\n      keccak256(0x00, 0x40)\n      0x00\n      swap2\n      pop\n      swap1\n      pop\n      sload\n      dup2\n      jump\t// out\n        /* \"contracts/periphery/Fomo3d_flattened.sol\":37555:37598  mapping (address => uint256) public claimed */\n    tag_88:\n      mstore(0x20, 0x05)\n      dup1\n      0x00\n      mstore\n      keccak256(0x00, 0x40)\n      0x00\n      swap2\n      pop\n      swap1\n      pop\n      sload\n      dup2\n      jump\t// out\n        /* \"contracts/periphery/Fomo3d_flattened.sol\":37661:37687  uint32 public historyNonce */\n    tag_91:\n      0x07\n      0x00\n      swap1\n      sload\n      swap1\n      0x0100\n      exp\n      swap1\n      div\n      0xffffffff\n      and\n      dup2\n      jump\t// out\n        /* \"contracts/periphery/Fomo3d_flattened.sol\":37725:37750  uint256 public totalValue */\n    tag_94:\n      sload(0x09)\n      dup2\n      jump\t// out\n        /* \"contracts/periphery/Fomo3d_flattened.sol\":39945:40055  function getClaimed(address _user) external view returns (uint256 value){... */\n    tag_98:\n        /* \"contracts/periphery/Fomo3d_flattened.sol\":40003:40016  uint256 value */\n      0x00\n        /* \"contracts/periphery/Fomo3d_flattened.sol\":40034:40041  claimed */\n      0x05\n        /* \"contracts/periphery/Fomo3d_flattened.sol\":40034:40048  claimed[_user] */\n      0x00\n        /* \"contracts/periphery/Fomo3d_flattened.sol\":40042:40047  _user */\n      dup4\n        /* \"contracts/periphery/Fomo3d_flattened.sol\":40034:40048  claimed[_user] */\n      0xffffffffffffffffffffffffffffffffffffffff\n      and\n      0xffffffffffffffffffffffffffffffffffffffff\n      and\n      dup2\n      mstore\n      0x20\n      add\n      swap1\n      dup2\n      mstore\n      0x20\n      add\n      0x00\n      keccak256\n      sload\n        /* \"contracts/periphery/Fomo3d_flattened.sol\":40027:40048  return claimed[_user] */\n      swap1\n      pop\n        /* \"contracts/periphery/Fomo3d_flattened.sol\":39945:40055  function getClaimed(address _user) external view returns (uint256 value){... */\n      swap2\n      swap1\n      pop\n      jump\t// out\n        /* \"contracts/periphery/Fomo3d_flattened.sol\":37460:37500  mapping (address => uint256) public mask */\n    tag_102:\n      mstore(0x20, 0x03)\n      dup1\n      0x00\n      mstore\n      keccak256(0x00, 0x40)\n      0x00\n      swap2\n      pop\n      swap1\n      pop\n      sload\n      dup2\n      jump\t// out\n        /* \"contracts/periphery/Fomo3d_flattened.sol\":37604:37654  mapping (uint32 => HistoryInfo) public historyInfo */\n    tag_106:\n      mstore(0x20, 0x06)\n      dup1\n      0x00\n      mstore\n      keccak256(0x00, 0x40)\n      0x00\n      swap2\n      pop\n      swap1\n      pop\n      dup1\n      0x00\n      add\n      0x00\n      swap1\n      sload\n      swap1\n      0x0100\n      exp\n      swap1\n      div\n      0xffffffffffffffffffffffffffffffffffffffff\n      and\n      swap1\n      dup1\n      0x01\n      add\n      sload\n      swap1\n      dup1\n      0x02\n      add\n      sload\n      swap1\n      pop\n      dup4\n      jump\t// out\n        /* \"contracts/periphery/Fomo3d_flattened.sol\":40564:40755  function _getUnclaim(address _user) internal view returns (uint256 value){... */\n    tag_161:\n        /* \"contracts/periphery/Fomo3d_flattened.sol\":40623:40636  uint256 value */\n      0x00\n        /* \"contracts/periphery/Fomo3d_flattened.sol\":40734:40741  claimed */\n      0x05\n        /* \"contracts/periphery/Fomo3d_flattened.sol\":40734:40748  claimed[_user] */\n      0x00\n        /* \"contracts/periphery/Fomo3d_flattened.sol\":40742:40747  _user */\n      dup4\n        /* \"contracts/periphery/Fomo3d_flattened.sol\":40734:40748  claimed[_user] */\n      0xffffffffffffffffffffffffffffffffffffffff\n      and\n      0xffffffffffffffffffffffffffffffffffffffff\n      and\n      dup2\n      mstore\n      0x20\n      add\n      swap1\n      dup2\n      mstore\n      0x20\n      add\n      0x00\n      keccak256\n      sload\n        /* \"contracts/periphery/Fomo3d_flattened.sol\":40723:40730  decimal */\n      0x0b\n      0x00\n      swap1\n      sload\n      swap1\n      0x0100\n      exp\n      swap1\n      div\n      0xffffffff\n      and\n        /* \"contracts/periphery/Fomo3d_flattened.sol\":40719:40721  10 */\n      0x0a\n        /* \"contracts/periphery/Fomo3d_flattened.sol\":40719:40730  10**decimal */\n      tag_182\n      swap2\n      swap1\n      tag_126\n      jump\t// in\n    tag_182:\n        /* \"contracts/periphery/Fomo3d_flattened.sol\":40704:40708  mask */\n      0x03\n        /* \"contracts/periphery/Fomo3d_flattened.sol\":40704:40715  mask[_user] */\n      0x00\n        /* \"contracts/periphery/Fomo3d_flattened.sol\":40709:40714  _user */\n      dup6\n        /* \"contracts/periphery/Fomo3d_flattened.sol\":40704:40715  mask[_user] */\n      0xffffffffffffffffffffffffffffffffffffffff\n      and\n      0xffffffffffffffffffffffffffffffffffffffff\n      and\n      dup2\n      mstore\n      0x20\n      add\n      swap1\n      dup2\n      mstore\n      0x20\n      add\n      0x00\n      keccak256\n      sload\n        /* \"contracts/periphery/Fomo3d_flattened.sol\":40689:40703  valuePerAmount */\n      sload(0x0a)\n        /* \"contracts/periphery/Fomo3d_flattened.sol\":40689:40715  valuePerAmount-mask[_user] */\n      tag_183\n      swap2\n      swap1\n      tag_128\n      jump\t// in\n    tag_183:\n        /* \"contracts/periphery/Fomo3d_flattened.sol\":40672:40678  amount */\n      0x02\n        /* \"contracts/periphery/Fomo3d_flattened.sol\":40672:40685  amount[_user] */\n      0x00\n        /* \"contracts/periphery/Fomo3d_flattened.sol\":40679:40684  _user */\n      dup7\n        /* \"contracts/periphery/Fomo3d_flattened.sol\":40672:40685  amount[_user] */\n      0xffffffffffffffffffffffffffffffffffffffff\n      and\n      0xffffffffffffffffffffffffffffffffffffffff\n      and\n      dup2\n      mstore\n      0x20\n      add\n      swap1\n      dup2\n      mstore\n      0x20\n      add\n      0x00\n      keccak256\n      sload\n        /* \"contracts/periphery/Fomo3d_flattened.sol\":40672:40716  amount[_user] * (valuePerAmount-mask[_user]) */\n      tag_184\n      swap2\n      swap1\n      tag_130\n      jump\t// in\n    tag_184:\n        /* \"contracts/periphery/Fomo3d_flattened.sol\":40671:40731  (amount[_user] * (valuePerAmount-mask[_user]))/(10**decimal) */\n      tag_185\n      swap2\n      swap1\n      tag_132\n      jump\t// in\n    tag_185:\n        /* \"contracts/periphery/Fomo3d_flattened.sol\":40654:40661  unclaim */\n      0x04\n        /* \"contracts/periphery/Fomo3d_flattened.sol\":40654:40668  unclaim[_user] */\n      0x00\n        /* \"contracts/periphery/Fomo3d_flattened.sol\":40662:40667  _user */\n      dup6\n        /* \"contracts/periphery/Fomo3d_flattened.sol\":40654:40668  unclaim[_user] */\n      0xffffffffffffffffffffffffffffffffffffffff\n      and\n      0xffffffffffffffffffffffffffffffffffffffff\n      and\n      dup2\n      mstore\n      0x20\n      add\n      swap1\n      dup2\n      mstore\n      0x20\n      add\n      0x00\n      keccak256\n      sload\n        /* \"contracts/periphery/Fomo3d_flattened.sol\":40654:40731  unclaim[_user] + (amount[_user] * (valuePerAmount-mask[_user]))/(10**decimal) */\n      tag_186\n      swap2\n      swap1\n      tag_134\n      jump\t// in\n    tag_186:\n        /* \"contracts/periphery/Fomo3d_flattened.sol\":40654:40748  unclaim[_user] + (amount[_user] * (valuePerAmount-mask[_user]))/(10**decimal) - claimed[_user] */\n      tag_187\n      swap2\n      swap1\n      tag_128\n      jump\t// in\n    tag_187:\n        /* \"contracts/periphery/Fomo3d_flattened.sol\":40647:40748  return unclaim[_user] + (amount[_user] * (valuePerAmount-mask[_user]))/(10**decimal) - claimed[_user] */\n      swap1\n      pop\n        /* \"contracts/periphery/Fomo3d_flattened.sol\":40564:40755  function _getUnclaim(address _user) internal view returns (uint256 value){... */\n      swap2\n      swap1\n      pop\n      jump\t// out\n    tag_110:\n      mload(0x40)\n      dup1\n      0x60\n      add\n      0x40\n      mstore\n      dup1\n      and(0xffffffffffffffffffffffffffffffffffffffff, 0x00)\n      dup2\n      mstore\n      0x20\n      add\n      0x00\n      dup2\n      mstore\n      0x20\n      add\n      0x00\n      dup2\n      mstore\n      pop\n      swap1\n      jump\t// out\n        /* \"#utility.yul\":88:205   */\n    tag_189:\n        /* \"#utility.yul\":197:198   */\n      0x00\n        /* \"#utility.yul\":194:195   */\n      dup1\n        /* \"#utility.yul\":187:199   */\n      revert\n        /* \"#utility.yul\":334:427   */\n    tag_191:\n        /* \"#utility.yul\":370:377   */\n      0x00\n        /* \"#utility.yul\":410:420   */\n      0xffffffff\n        /* \"#utility.yul\":403:408   */\n      dup3\n        /* \"#utility.yul\":399:421   */\n      and\n        /* \"#utility.yul\":388:421   */\n      swap1\n      pop\n        /* \"#utility.yul\":334:427   */\n      swap2\n      swap1\n      pop\n      jump\t// out\n        /* \"#utility.yul\":433:553   */\n    tag_192:\n        /* \"#utility.yul\":505:528   */\n      tag_232\n        /* \"#utility.yul\":522:527   */\n      dup2\n        /* \"#utility.yul\":505:528   */\n      tag_191\n      jump\t// in\n    tag_232:\n        /* \"#utility.yul\":498:503   */\n      dup2\n        /* \"#utility.yul\":495:529   */\n      eq\n        /* \"#utility.yul\":485:547   */\n      tag_233\n      jumpi\n        /* \"#utility.yul\":543:544   */\n      0x00\n        /* \"#utility.yul\":540:541   */\n      dup1\n        /* \"#utility.yul\":533:545   */\n      revert\n        /* \"#utility.yul\":485:547   */\n    tag_233:\n        /* \"#utility.yul\":433:553   */\n      pop\n      jump\t// out\n        /* \"#utility.yul\":559:696   */\n    tag_193:\n        /* \"#utility.yul\":604:609   */\n      0x00\n        /* \"#utility.yul\":642:648   */\n      dup2\n        /* \"#utility.yul\":629:649   */\n      calldataload\n        /* \"#utility.yul\":620:649   */\n      swap1\n      pop\n        /* \"#utility.yul\":658:690   */\n      tag_235\n        /* \"#utility.yul\":684:689   */\n      dup2\n        /* \"#utility.yul\":658:690   */\n      tag_192\n      jump\t// in\n    tag_235:\n        /* \"#utility.yul\":559:696   */\n      swap3\n      swap2\n      pop\n      pop\n      jump\t// out\n        /* \"#utility.yul\":702:1029   */\n    tag_29:\n        /* \"#utility.yul\":760:766   */\n      0x00\n        /* \"#utility.yul\":809:811   */\n      0x20\n        /* \"#utility.yul\":797:806   */\n      dup3\n        /* \"#utility.yul\":788:795   */\n      dup5\n        /* \"#utility.yul\":784:807   */\n      sub\n        /* \"#utility.yul\":780:812   */\n      slt\n        /* \"#utility.yul\":777:896   */\n      iszero\n      tag_237\n      jumpi\n        /* \"#utility.yul\":815:894   */\n      tag_238\n      tag_189\n      jump\t// in\n    tag_238:\n        /* \"#utility.yul\":777:896   */\n    tag_237:\n        /* \"#utility.yul\":935:936   */\n      0x00\n        /* \"#utility.yul\":960:1012   */\n      tag_239\n        /* \"#utility.yul\":1004:1011   */\n      dup5\n        /* \"#utility.yul\":995:1001   */\n      dup3\n        /* \"#utility.yul\":984:993   */\n      dup6\n        /* \"#utility.yul\":980:1002   */\n      add\n        /* \"#utility.yul\":960:1012   */\n      tag_193\n      jump\t// in\n    tag_239:\n        /* \"#utility.yul\":950:1012   */\n      swap2\n      pop\n        /* \"#utility.yul\":906:1022   */\n      pop\n        /* \"#utility.yul\":702:1029   */\n      swap3\n      swap2\n      pop\n      pop\n      jump\t// out\n        /* \"#utility.yul\":1035:1161   */\n    tag_194:\n        /* \"#utility.yul\":1072:1079   */\n      0x00\n        /* \"#utility.yul\":1112:1154   */\n      0xffffffffffffffffffffffffffffffffffffffff\n        /* \"#utility.yul\":1105:1110   */\n      dup3\n        /* \"#utility.yul\":1101:1155   */\n      and\n        /* \"#utility.yul\":1090:1155   */\n      swap1\n      pop\n        /* \"#utility.yul\":1035:1161   */\n      swap2\n      swap1\n      pop\n      jump\t// out\n        /* \"#utility.yul\":1167:1263   */\n    tag_195:\n        /* \"#utility.yul\":1204:1211   */\n      0x00\n        /* \"#utility.yul\":1233:1257   */\n      tag_242\n        /* \"#utility.yul\":1251:1256   */\n      dup3\n        /* \"#utility.yul\":1233:1257   */\n      tag_194\n      jump\t// in\n    tag_242:\n        /* \"#utility.yul\":1222:1257   */\n      swap1\n      pop\n        /* \"#utility.yul\":1167:1263   */\n      swap2\n      swap1\n      pop\n      jump\t// out\n        /* \"#utility.yul\":1269:1377   */\n    tag_196:\n        /* \"#utility.yul\":1346:1370   */\n      tag_244\n        /* \"#utility.yul\":1364:1369   */\n      dup2\n        /* \"#utility.yul\":1346:1370   */\n      tag_195\n      jump\t// in\n    tag_244:\n        /* \"#utility.yul\":1341:1344   */\n      dup3\n        /* \"#utility.yul\":1334:1371   */\n      mstore\n        /* \"#utility.yul\":1269:1377   */\n      pop\n      pop\n      jump\t// out\n        /* \"#utility.yul\":1383:1460   */\n    tag_197:\n        /* \"#utility.yul\":1420:1427   */\n      0x00\n        /* \"#utility.yul\":1449:1454   */\n      dup2\n        /* \"#utility.yul\":1438:1454   */\n      swap1\n      pop\n        /* \"#utility.yul\":1383:1460   */\n      swap2\n      swap1\n      pop\n      jump\t// out\n        /* \"#utility.yul\":1466:1574   */\n    tag_198:\n        /* \"#utility.yul\":1543:1567   */\n      tag_247\n        /* \"#utility.yul\":1561:1566   */\n      dup2\n        /* \"#utility.yul\":1543:1567   */\n      tag_197\n      jump\t// in\n    tag_247:\n        /* \"#utility.yul\":1538:1541   */\n      dup3\n        /* \"#utility.yul\":1531:1568   */\n      mstore\n        /* \"#utility.yul\":1466:1574   */\n      pop\n      pop\n      jump\t// out\n        /* \"#utility.yul\":1644:2334   */\n    tag_199:\n        /* \"#utility.yul\":1797:1801   */\n      0x60\n        /* \"#utility.yul\":1792:1795   */\n      dup3\n        /* \"#utility.yul\":1788:1802   */\n      add\n        /* \"#utility.yul\":1884:1888   */\n      0x00\n        /* \"#utility.yul\":1877:1882   */\n      dup3\n        /* \"#utility.yul\":1873:1889   */\n      add\n        /* \"#utility.yul\":1867:1890   */\n      mload\n        /* \"#utility.yul\":1903:1966   */\n      tag_249\n        /* \"#utility.yul\":1960:1964   */\n      0x00\n        /* \"#utility.yul\":1955:1958   */\n      dup6\n        /* \"#utility.yul\":1951:1965   */\n      add\n        /* \"#utility.yul\":1937:1949   */\n      dup3\n        /* \"#utility.yul\":1903:1966   */\n      tag_196\n      jump\t// in\n    tag_249:\n        /* \"#utility.yul\":1812:1976   */\n      pop\n        /* \"#utility.yul\":2059:2063   */\n      0x20\n        /* \"#utility.yul\":2052:2057   */\n      dup3\n        /* \"#utility.yul\":2048:2064   */\n      add\n        /* \"#utility.yul\":2042:2065   */\n      mload\n        /* \"#utility.yul\":2078:2141   */\n      tag_250\n        /* \"#utility.yul\":2135:2139   */\n      0x20\n        /* \"#utility.yul\":2130:2133   */\n      dup6\n        /* \"#utility.yul\":2126:2140   */\n      add\n        /* \"#utility.yul\":2112:2124   */\n      dup3\n        /* \"#utility.yul\":2078:2141   */\n      tag_198\n      jump\t// in\n    tag_250:\n        /* \"#utility.yul\":1986:2151   */\n      pop\n        /* \"#utility.yul\":2235:2239   */\n      0x40\n        /* \"#utility.yul\":2228:2233   */\n      dup3\n        /* \"#utility.yul\":2224:2240   */\n      add\n        /* \"#utility.yul\":2218:2241   */\n      mload\n        /* \"#utility.yul\":2254:2317   */\n      tag_251\n        /* \"#utility.yul\":2311:2315   */\n      0x40\n        /* \"#utility.yul\":2306:2309   */\n      dup6\n        /* \"#utility.yul\":2302:2316   */\n      add\n        /* \"#utility.yul\":2288:2300   */\n      dup3\n        /* \"#utility.yul\":2254:2317   */\n      tag_198\n      jump\t// in\n    tag_251:\n        /* \"#utility.yul\":2161:2327   */\n      pop\n        /* \"#utility.yul\":1766:2334   */\n      pop\n        /* \"#utility.yul\":1644:2334   */\n      pop\n      pop\n      jump\t// out\n        /* \"#utility.yul\":2340:2674   */\n    tag_32:\n        /* \"#utility.yul\":2489:2493   */\n      0x00\n        /* \"#utility.yul\":2527:2529   */\n      0x60\n        /* \"#utility.yul\":2516:2525   */\n      dup3\n        /* \"#utility.yul\":2512:2530   */\n      add\n        /* \"#utility.yul\":2504:2530   */\n      swap1\n      pop\n        /* \"#utility.yul\":2540:2667   */\n      tag_253\n        /* \"#utility.yul\":2664:2665   */\n      0x00\n        /* \"#utility.yul\":2653:2662   */\n      dup4\n        /* \"#utility.yul\":2649:2666   */\n      add\n        /* \"#utility.yul\":2640:2646   */\n      dup5\n        /* \"#utility.yul\":2540:2667   */\n      tag_199\n      jump\t// in\n    tag_253:\n        /* \"#utility.yul\":2340:2674   */\n      swap3\n      swap2\n      pop\n      pop\n      jump\t// out\n        /* \"#utility.yul\":2680:2802   */\n    tag_200:\n        /* \"#utility.yul\":2753:2777   */\n      tag_255\n        /* \"#utility.yul\":2771:2776   */\n      dup2\n        /* \"#utility.yul\":2753:2777   */\n      tag_195\n      jump\t// in\n    tag_255:\n        /* \"#utility.yul\":2746:2751   */\n      dup2\n        /* \"#utility.yul\":2743:2778   */\n      eq\n        /* \"#utility.yul\":2733:2796   */\n      tag_256\n      jumpi\n        /* \"#utility.yul\":2792:2793   */\n      0x00\n        /* \"#utility.yul\":2789:2790   */\n      dup1\n        /* \"#utility.yul\":2782:2794   */\n      revert\n        /* \"#utility.yul\":2733:2796   */\n    tag_256:\n        /* \"#utility.yul\":2680:2802   */\n      pop\n      jump\t// out\n        /* \"#utility.yul\":2808:2947   */\n    tag_201:\n        /* \"#utility.yul\":2854:2859   */\n      0x00\n        /* \"#utility.yul\":2892:2898   */\n      dup2\n        /* \"#utility.yul\":2879:2899   */\n      calldataload\n        /* \"#utility.yul\":2870:2899   */\n      swap1\n      pop\n        /* \"#utility.yul\":2908:2941   */\n      tag_258\n        /* \"#utility.yul\":2935:2940   */\n      dup2\n        /* \"#utility.yul\":2908:2941   */\n      tag_200\n      jump\t// in\n    tag_258:\n        /* \"#utility.yul\":2808:2947   */\n      swap3\n      swap2\n      pop\n      pop\n      jump\t// out\n        /* \"#utility.yul\":2953:3075   */\n    tag_202:\n        /* \"#utility.yul\":3026:3050   */\n      tag_260\n        /* \"#utility.yul\":3044:3049   */\n      dup2\n        /* \"#utility.yul\":3026:3050   */\n      tag_197\n      jump\t// in\n    tag_260:\n        /* \"#utility.yul\":3019:3024   */\n      dup2\n        /* \"#utility.yul\":3016:3051   */\n      eq\n        /* \"#utility.yul\":3006:3069   */\n      tag_261\n      jumpi\n        /* \"#utility.yul\":3065:3066   */\n      0x00\n        /* \"#utility.yul\":3062:3063   */\n      dup1\n        /* \"#utility.yul\":3055:3067   */\n      revert\n        /* \"#utility.yul\":3006:3069   */\n    tag_261:\n        /* \"#utility.yul\":2953:3075   */\n      pop\n      jump\t// out\n        /* \"#utility.yul\":3081:3220   */\n    tag_203:\n        /* \"#utility.yul\":3127:3132   */\n      0x00\n        /* \"#utility.yul\":3165:3171   */\n      dup2\n        /* \"#utility.yul\":3152:3172   */\n      calldataload\n        /* \"#utility.yul\":3143:3172   */\n      swap1\n      pop\n        /* \"#utility.yul\":3181:3214   */\n      tag_263\n        /* \"#utility.yul\":3208:3213   */\n      dup2\n        /* \"#utility.yul\":3181:3214   */\n      tag_202\n      jump\t// in\n    tag_263:\n        /* \"#utility.yul\":3081:3220   */\n      swap3\n      swap2\n      pop\n      pop\n      jump\t// out\n        /* \"#utility.yul\":3226:3845   */\n    tag_35:\n        /* \"#utility.yul\":3303:3309   */\n      0x00\n        /* \"#utility.yul\":3311:3317   */\n      dup1\n        /* \"#utility.yul\":3319:3325   */\n      0x00\n        /* \"#utility.yul\":3368:3370   */\n      0x60\n        /* \"#utility.yul\":3356:3365   */\n      dup5\n        /* \"#utility.yul\":3347:3354   */\n      dup7\n        /* \"#utility.yul\":3343:3366   */\n      sub\n        /* \"#utility.yul\":3339:3371   */\n      slt\n        /* \"#utility.yul\":3336:3455   */\n      iszero\n      tag_265\n      jumpi\n        /* \"#utility.yul\":3374:3453   */\n      tag_266\n      tag_189\n      jump\t// in\n    tag_266:\n        /* \"#utility.yul\":3336:3455   */\n    tag_265:\n        /* \"#utility.yul\":3494:3495   */\n      0x00\n        /* \"#utility.yul\":3519:3572   */\n      tag_267\n        /* \"#utility.yul\":3564:3571   */\n      dup7\n        /* \"#utility.yul\":3555:3561   */\n      dup3\n        /* \"#utility.yul\":3544:3553   */\n      dup8\n        /* \"#utility.yul\":3540:3562   */\n      add\n        /* \"#utility.yul\":3519:3572   */\n      tag_201\n      jump\t// in\n    tag_267:\n        /* \"#utility.yul\":3509:3572   */\n      swap4\n      pop\n        /* \"#utility.yul\":3465:3582   */\n      pop\n        /* \"#utility.yul\":3621:3623   */\n      0x20\n        /* \"#utility.yul\":3647:3700   */\n      tag_268\n        /* \"#utility.yul\":3692:3699   */\n      dup7\n        /* \"#utility.yul\":3683:3689   */\n      dup3\n        /* \"#utility.yul\":3672:3681   */\n      dup8\n        /* \"#utility.yul\":3668:3690   */\n      add\n        /* \"#utility.yul\":3647:3700   */\n      tag_203\n      jump\t// in\n    tag_268:\n        /* \"#utility.yul\":3637:3700   */\n      swap3\n      pop\n        /* \"#utility.yul\":3592:3710   */\n      pop\n        /* \"#utility.yul\":3749:3751   */\n      0x40\n        /* \"#utility.yul\":3775:3828   */\n      tag_269\n        /* \"#utility.yul\":3820:3827   */\n      dup7\n        /* \"#utility.yul\":3811:3817   */\n      dup3\n        /* \"#utility.yul\":3800:3809   */\n      dup8\n        /* \"#utility.yul\":3796:3818   */\n      add\n        /* \"#utility.yul\":3775:3828   */\n      tag_203\n      jump\t// in\n    tag_269:\n        /* \"#utility.yul\":3765:3828   */\n      swap2\n      pop\n        /* \"#utility.yul\":3720:3838   */\n      pop\n        /* \"#utility.yul\":3226:3845   */\n      swap3\n      pop\n      swap3\n      pop\n      swap3\n      jump\t// out\n        /* \"#utility.yul\":3851:4180   */\n    tag_39:\n        /* \"#utility.yul\":3910:3916   */\n      0x00\n        /* \"#utility.yul\":3959:3961   */\n      0x20\n        /* \"#utility.yul\":3947:3956   */\n      dup3\n        /* \"#utility.yul\":3938:3945   */\n      dup5\n        /* \"#utility.yul\":3934:3957   */\n      sub\n        /* \"#utility.yul\":3930:3962   */\n      slt\n        /* \"#utility.yul\":3927:4046   */\n      iszero\n      tag_271\n      jumpi\n        /* \"#utility.yul\":3965:4044   */\n      tag_272\n      tag_189\n      jump\t// in\n    tag_272:\n        /* \"#utility.yul\":3927:4046   */\n    tag_271:\n        /* \"#utility.yul\":4085:4086   */\n      0x00\n        /* \"#utility.yul\":4110:4163   */\n      tag_273\n        /* \"#utility.yul\":4155:4162   */\n      dup5\n        /* \"#utility.yul\":4146:4152   */\n      dup3\n        /* \"#utility.yul\":4135:4144   */\n      dup6\n        /* \"#utility.yul\":4131:4153   */\n      add\n        /* \"#utility.yul\":4110:4163   */\n      tag_201\n      jump\t// in\n    tag_273:\n        /* \"#utility.yul\":4100:4163   */\n      swap2\n      pop\n        /* \"#utility.yul\":4056:4173   */\n      pop\n        /* \"#utility.yul\":3851:4180   */\n      swap3\n      swap2\n      pop\n      pop\n      jump\t// out\n        /* \"#utility.yul\":4186:4304   */\n    tag_204:\n        /* \"#utility.yul\":4273:4297   */\n      tag_275\n        /* \"#utility.yul\":4291:4296   */\n      dup2\n        /* \"#utility.yul\":4273:4297   */\n      tag_197\n      jump\t// in\n    tag_275:\n        /* \"#utility.yul\":4268:4271   */\n      dup3\n        /* \"#utility.yul\":4261:4298   */\n      mstore\n        /* \"#utility.yul\":4186:4304   */\n      pop\n      pop\n      jump\t// out\n        /* \"#utility.yul\":4310:4532   */\n    tag_42:\n        /* \"#utility.yul\":4403:4407   */\n      0x00\n        /* \"#utility.yul\":4441:4443   */\n      0x20\n        /* \"#utility.yul\":4430:4439   */\n      dup3\n        /* \"#utility.yul\":4426:4444   */\n      add\n        /* \"#utility.yul\":4418:4444   */\n      swap1\n      pop\n        /* \"#utility.yul\":4454:4525   */\n      tag_277\n        /* \"#utility.yul\":4522:4523   */\n      0x00\n        /* \"#utility.yul\":4511:4520   */\n      dup4\n        /* \"#utility.yul\":4507:4524   */\n      add\n        /* \"#utility.yul\":4498:4504   */\n      dup5\n        /* \"#utility.yul\":4454:4525   */\n      tag_204\n      jump\t// in\n    tag_277:\n        /* \"#utility.yul\":4310:4532   */\n      swap3\n      swap2\n      pop\n      pop\n      jump\t// out\n        /* \"#utility.yul\":4538:5012   */\n    tag_45:\n        /* \"#utility.yul\":4606:4612   */\n      0x00\n        /* \"#utility.yul\":4614:4620   */\n      dup1\n        /* \"#utility.yul\":4663:4665   */\n      0x40\n        /* \"#utility.yul\":4651:4660   */\n      dup4\n        /* \"#utility.yul\":4642:4649   */\n      dup6\n        /* \"#utility.yul\":4638:4661   */\n      sub\n        /* \"#utility.yul\":4634:4666   */\n      slt\n        /* \"#utility.yul\":4631:4750   */\n      iszero\n      tag_279\n      jumpi\n        /* \"#utility.yul\":4669:4748   */\n      tag_280\n      tag_189\n      jump\t// in\n    tag_280:\n        /* \"#utility.yul\":4631:4750   */\n    tag_279:\n        /* \"#utility.yul\":4789:4790   */\n      0x00\n        /* \"#utility.yul\":4814:4867   */\n      tag_281\n        /* \"#utility.yul\":4859:4866   */\n      dup6\n        /* \"#utility.yul\":4850:4856   */\n      dup3\n        /* \"#utility.yul\":4839:4848   */\n      dup7\n        /* \"#utility.yul\":4835:4857   */\n      add\n        /* \"#utility.yul\":4814:4867   */\n      tag_201\n      jump\t// in\n    tag_281:\n        /* \"#utility.yul\":4804:4867   */\n      swap3\n      pop\n        /* \"#utility.yul\":4760:4877   */\n      pop\n        /* \"#utility.yul\":4916:4918   */\n      0x20\n        /* \"#utility.yul\":4942:4995   */\n      tag_282\n        /* \"#utility.yul\":4987:4994   */\n      dup6\n        /* \"#utility.yul\":4978:4984   */\n      dup3\n        /* \"#utility.yul\":4967:4976   */\n      dup7\n        /* \"#utility.yul\":4963:4985   */\n      add\n        /* \"#utility.yul\":4942:4995   */\n      tag_203\n      jump\t// in\n    tag_282:\n        /* \"#utility.yul\":4932:4995   */\n      swap2\n      pop\n        /* \"#utility.yul\":4887:5005   */\n      pop\n        /* \"#utility.yul\":4538:5012   */\n      swap3\n      pop\n      swap3\n      swap1\n      pop\n      jump\t// out\n        /* \"#utility.yul\":5018:5078   */\n    tag_205:\n        /* \"#utility.yul\":5046:5049   */\n      0x00\n        /* \"#utility.yul\":5067:5072   */\n      dup2\n        /* \"#utility.yul\":5060:5072   */\n      swap1\n      pop\n        /* \"#utility.yul\":5018:5078   */\n      swap2\n      swap1\n      pop\n      jump\t// out\n        /* \"#utility.yul\":5084:5226   */\n    tag_206:\n        /* \"#utility.yul\":5134:5143   */\n      0x00\n        /* \"#utility.yul\":5167:5220   */\n      tag_285\n        /* \"#utility.yul\":5185:5219   */\n      tag_286\n        /* \"#utility.yul\":5194:5218   */\n      tag_287\n        /* \"#utility.yul\":5212:5217   */\n      dup5\n        /* \"#utility.yul\":5194:5218   */\n      tag_194\n      jump\t// in\n    tag_287:\n        /* \"#utility.yul\":5185:5219   */\n      tag_205\n      jump\t// in\n    tag_286:\n        /* \"#utility.yul\":5167:5220   */\n      tag_194\n      jump\t// in\n    tag_285:\n        /* \"#utility.yul\":5154:5220   */\n      swap1\n      pop\n        /* \"#utility.yul\":5084:5226   */\n      swap2\n      swap1\n      pop\n      jump\t// out\n        /* \"#utility.yul\":5232:5358   */\n    tag_207:\n        /* \"#utility.yul\":5282:5291   */\n      0x00\n        /* \"#utility.yul\":5315:5352   */\n      tag_289\n        /* \"#utility.yul\":5346:5351   */\n      dup3\n        /* \"#utility.yul\":5315:5352   */\n      tag_206\n      jump\t// in\n    tag_289:\n        /* \"#utility.yul\":5302:5352   */\n      swap1\n      pop\n        /* \"#utility.yul\":5232:5358   */\n      swap2\n      swap1\n      pop\n      jump\t// out\n        /* \"#utility.yul\":5364:5506   */\n    tag_208:\n        /* \"#utility.yul\":5430:5439   */\n      0x00\n        /* \"#utility.yul\":5463:5500   */\n      tag_291\n        /* \"#utility.yul\":5494:5499   */\n      dup3\n        /* \"#utility.yul\":5463:5500   */\n      tag_207\n      jump\t// in\n    tag_291:\n        /* \"#utility.yul\":5450:5500   */\n      swap1\n      pop\n        /* \"#utility.yul\":5364:5506   */\n      swap2\n      swap1\n      pop\n      jump\t// out\n        /* \"#utility.yul\":5512:5675   */\n    tag_209:\n        /* \"#utility.yul\":5615:5668   */\n      tag_293\n        /* \"#utility.yul\":5662:5667   */\n      dup2\n        /* \"#utility.yul\":5615:5668   */\n      tag_208\n      jump\t// in\n    tag_293:\n        /* \"#utility.yul\":5610:5613   */\n      dup3\n        /* \"#utility.yul\":5603:5669   */\n      mstore\n        /* \"#utility.yul\":5512:5675   */\n      pop\n      pop\n      jump\t// out\n        /* \"#utility.yul\":5681:5935   */\n    tag_54:\n        /* \"#utility.yul\":5790:5794   */\n      0x00\n        /* \"#utility.yul\":5828:5830   */\n      0x20\n        /* \"#utility.yul\":5817:5826   */\n      dup3\n        /* \"#utility.yul\":5813:5831   */\n      add\n        /* \"#utility.yul\":5805:5831   */\n      swap1\n      pop\n        /* \"#utility.yul\":5841:5928   */\n      tag_295\n        /* \"#utility.yul\":5925:5926   */\n      0x00\n        /* \"#utility.yul\":5914:5923   */\n      dup4\n        /* \"#utility.yul\":5910:5927   */\n      add\n        /* \"#utility.yul\":5901:5907   */\n      dup5\n        /* \"#utility.yul\":5841:5928   */\n      tag_209\n      jump\t// in\n    tag_295:\n        /* \"#utility.yul\":5681:5935   */\n      swap3\n      swap2\n      pop\n      pop\n      jump\t// out\n        /* \"#utility.yul\":5941:6081   */\n    tag_210:\n        /* \"#utility.yul\":6005:6014   */\n      0x00\n        /* \"#utility.yul\":6038:6075   */\n      tag_297\n        /* \"#utility.yul\":6069:6074   */\n      dup3\n        /* \"#utility.yul\":6038:6075   */\n      tag_207\n      jump\t// in\n    tag_297:\n        /* \"#utility.yul\":6025:6075   */\n      swap1\n      pop\n        /* \"#utility.yul\":5941:6081   */\n      swap2\n      swap1\n      pop\n      jump\t// out\n        /* \"#utility.yul\":6087:6246   */\n    tag_211:\n        /* \"#utility.yul\":6188:6239   */\n      tag_299\n        /* \"#utility.yul\":6233:6238   */\n      dup2\n        /* \"#utility.yul\":6188:6239   */\n      tag_210\n      jump\t// in\n    tag_299:\n        /* \"#utility.yul\":6183:6186   */\n      dup3\n        /* \"#utility.yul\":6176:6240   */\n      mstore\n        /* \"#utility.yul\":6087:6246   */\n      pop\n      pop\n      jump\t// out\n        /* \"#utility.yul\":6252:6502   */\n    tag_58:\n        /* \"#utility.yul\":6359:6363   */\n      0x00\n        /* \"#utility.yul\":6397:6399   */\n      0x20\n        /* \"#utility.yul\":6386:6395   */\n      dup3\n        /* \"#utility.yul\":6382:6400   */\n      add\n        /* \"#utility.yul\":6374:6400   */\n      swap1\n      pop\n        /* \"#utility.yul\":6410:6495   */\n      tag_301\n        /* \"#utility.yul\":6492:6493   */\n      0x00\n        /* \"#utility.yul\":6481:6490   */\n      dup4\n        /* \"#utility.yul\":6477:6494   */\n      add\n        /* \"#utility.yul\":6468:6474   */\n      dup5\n        /* \"#utility.yul\":6410:6495   */\n      tag_211\n      jump\t// in\n    tag_301:\n        /* \"#utility.yul\":6252:6502   */\n      swap3\n      swap2\n      pop\n      pop\n      jump\t// out\n        /* \"#utility.yul\":6508:6623   */\n    tag_212:\n        /* \"#utility.yul\":6593:6616   */\n      tag_303\n        /* \"#utility.yul\":6610:6615   */\n      dup2\n        /* \"#utility.yul\":6593:6616   */\n      tag_191\n      jump\t// in\n    tag_303:\n        /* \"#utility.yul\":6588:6591   */\n      dup3\n        /* \"#utility.yul\":6581:6617   */\n      mstore\n        /* \"#utility.yul\":6508:6623   */\n      pop\n      pop\n      jump\t// out\n        /* \"#utility.yul\":6629:6847   */\n    tag_68:\n        /* \"#utility.yul\":6720:6724   */\n      0x00\n        /* \"#utility.yul\":6758:6760   */\n      0x20\n        /* \"#utility.yul\":6747:6756   */\n      dup3\n        /* \"#utility.yul\":6743:6761   */\n      add\n        /* \"#utility.yul\":6735:6761   */\n      swap1\n      pop\n        /* \"#utility.yul\":6771:6840   */\n      tag_305\n        /* \"#utility.yul\":6837:6838   */\n      0x00\n        /* \"#utility.yul\":6826:6835   */\n      dup4\n        /* \"#utility.yul\":6822:6839   */\n      add\n        /* \"#utility.yul\":6813:6819   */\n      dup5\n        /* \"#utility.yul\":6771:6840   */\n      tag_212\n      jump\t// in\n    tag_305:\n        /* \"#utility.yul\":6629:6847   */\n      swap3\n      swap2\n      pop\n      pop\n      jump\t// out\n        /* \"#utility.yul\":6853:6971   */\n    tag_213:\n        /* \"#utility.yul\":6940:6964   */\n      tag_307\n        /* \"#utility.yul\":6958:6963   */\n      dup2\n        /* \"#utility.yul\":6940:6964   */\n      tag_195\n      jump\t// in\n    tag_307:\n        /* \"#utility.yul\":6935:6938   */\n      dup3\n        /* \"#utility.yul\":6928:6965   */\n      mstore\n        /* \"#utility.yul\":6853:6971   */\n      pop\n      pop\n      jump\t// out\n        /* \"#utility.yul\":6977:7419   */\n    tag_108:\n        /* \"#utility.yul\":7126:7130   */\n      0x00\n        /* \"#utility.yul\":7164:7166   */\n      0x60\n        /* \"#utility.yul\":7153:7162   */\n      dup3\n        /* \"#utility.yul\":7149:7167   */\n      add\n        /* \"#utility.yul\":7141:7167   */\n      swap1\n      pop\n        /* \"#utility.yul\":7177:7248   */\n      tag_309\n        /* \"#utility.yul\":7245:7246   */\n      0x00\n        /* \"#utility.yul\":7234:7243   */\n      dup4\n        /* \"#utility.yul\":7230:7247   */\n      add\n        /* \"#utility.yul\":7221:7227   */\n      dup7\n        /* \"#utility.yul\":7177:7248   */\n      tag_213\n      jump\t// in\n    tag_309:\n        /* \"#utility.yul\":7258:7330   */\n      tag_310\n        /* \"#utility.yul\":7326:7328   */\n      0x20\n        /* \"#utility.yul\":7315:7324   */\n      dup4\n        /* \"#utility.yul\":7311:7329   */\n      add\n        /* \"#utility.yul\":7302:7308   */\n      dup6\n        /* \"#utility.yul\":7258:7330   */\n      tag_204\n      jump\t// in\n    tag_310:\n        /* \"#utility.yul\":7340:7412   */\n      tag_311\n        /* \"#utility.yul\":7408:7410   */\n      0x40\n        /* \"#utility.yul\":7397:7406   */\n      dup4\n        /* \"#utility.yul\":7393:7411   */\n      add\n        /* \"#utility.yul\":7384:7390   */\n      dup5\n        /* \"#utility.yul\":7340:7412   */\n      tag_204\n      jump\t// in\n    tag_311:\n        /* \"#utility.yul\":6977:7419   */\n      swap5\n      swap4\n      pop\n      pop\n      pop\n      pop\n      jump\t// out\n        /* \"#utility.yul\":7425:7502   */\n    tag_214:\n        /* \"#utility.yul\":7462:7469   */\n      0x00\n        /* \"#utility.yul\":7491:7496   */\n      dup2\n        /* \"#utility.yul\":7480:7496   */\n      swap1\n      pop\n        /* \"#utility.yul\":7425:7502   */\n      swap2\n      swap1\n      pop\n      jump\t// out\n        /* \"#utility.yul\":7508:7630   */\n    tag_215:\n        /* \"#utility.yul\":7581:7605   */\n      tag_314\n        /* \"#utility.yul\":7599:7604   */\n      dup2\n        /* \"#utility.yul\":7581:7605   */\n      tag_214\n      jump\t// in\n    tag_314:\n        /* \"#utility.yul\":7574:7579   */\n      dup2\n        /* \"#utility.yul\":7571:7606   */\n      eq\n        /* \"#utility.yul\":7561:7624   */\n      tag_315\n      jumpi\n        /* \"#utility.yul\":7620:7621   */\n      0x00\n        /* \"#utility.yul\":7617:7618   */\n      dup1\n        /* \"#utility.yul\":7610:7622   */\n      revert\n        /* \"#utility.yul\":7561:7624   */\n    tag_315:\n        /* \"#utility.yul\":7508:7630   */\n      pop\n      jump\t// out\n        /* \"#utility.yul\":7636:7779   */\n    tag_216:\n        /* \"#utility.yul\":7693:7698   */\n      0x00\n        /* \"#utility.yul\":7724:7730   */\n      dup2\n        /* \"#utility.yul\":7718:7731   */\n      mload\n        /* \"#utility.yul\":7709:7731   */\n      swap1\n      pop\n        /* \"#utility.yul\":7740:7773   */\n      tag_317\n        /* \"#utility.yul\":7767:7772   */\n      dup2\n        /* \"#utility.yul\":7740:7773   */\n      tag_215\n      jump\t// in\n    tag_317:\n        /* \"#utility.yul\":7636:7779   */\n      swap3\n      swap2\n      pop\n      pop\n      jump\t// out\n        /* \"#utility.yul\":7785:8136   */\n    tag_116:\n        /* \"#utility.yul\":7855:7861   */\n      0x00\n        /* \"#utility.yul\":7904:7906   */\n      0x20\n        /* \"#utility.yul\":7892:7901   */\n      dup3\n        /* \"#utility.yul\":7883:7890   */\n      dup5\n        /* \"#utility.yul\":7879:7902   */\n      sub\n        /* \"#utility.yul\":7875:7907   */\n      slt\n        /* \"#utility.yul\":7872:7991   */\n      iszero\n      tag_319\n      jumpi\n        /* \"#utility.yul\":7910:7989   */\n      tag_320\n      tag_189\n      jump\t// in\n    tag_320:\n        /* \"#utility.yul\":7872:7991   */\n    tag_319:\n        /* \"#utility.yul\":8030:8031   */\n      0x00\n        /* \"#utility.yul\":8055:8119   */\n      tag_321\n        /* \"#utility.yul\":8111:8118   */\n      dup5\n        /* \"#utility.yul\":8102:8108   */\n      dup3\n        /* \"#utility.yul\":8091:8100   */\n      dup6\n        /* \"#utility.yul\":8087:8109   */\n      add\n        /* \"#utility.yul\":8055:8119   */\n      tag_216\n      jump\t// in\n    tag_321:\n        /* \"#utility.yul\":8045:8119   */\n      swap2\n      pop\n        /* \"#utility.yul\":8001:8129   */\n      pop\n        /* \"#utility.yul\":7785:8136   */\n      swap3\n      swap2\n      pop\n      pop\n      jump\t// out\n        /* \"#utility.yul\":8142:8260   */\n    tag_217:\n        /* \"#utility.yul\":8229:8253   */\n      tag_323\n        /* \"#utility.yul\":8247:8252   */\n      dup2\n        /* \"#utility.yul\":8229:8253   */\n      tag_214\n      jump\t// in\n    tag_323:\n        /* \"#utility.yul\":8224:8227   */\n      dup3\n        /* \"#utility.yul\":8217:8254   */\n      mstore\n        /* \"#utility.yul\":8142:8260   */\n      pop\n      pop\n      jump\t// out\n        /* \"#utility.yul\":8266:8598   */\n    tag_118:\n        /* \"#utility.yul\":8387:8391   */\n      0x00\n        /* \"#utility.yul\":8425:8427   */\n      0x40\n        /* \"#utility.yul\":8414:8423   */\n      dup3\n        /* \"#utility.yul\":8410:8428   */\n      add\n        /* \"#utility.yul\":8402:8428   */\n      swap1\n      pop\n        /* \"#utility.yul\":8438:8509   */\n      tag_325\n        /* \"#utility.yul\":8506:8507   */\n      0x00\n        /* \"#utility.yul\":8495:8504   */\n      dup4\n        /* \"#utility.yul\":8491:8508   */\n      add\n        /* \"#utility.yul\":8482:8488   */\n      dup6\n        /* \"#utility.yul\":8438:8509   */\n      tag_217\n      jump\t// in\n    tag_325:\n        /* \"#utility.yul\":8519:8591   */\n      tag_326\n        /* \"#utility.yul\":8587:8589   */\n      0x20\n        /* \"#utility.yul\":8576:8585   */\n      dup4\n        /* \"#utility.yul\":8572:8590   */\n      add\n        /* \"#utility.yul\":8563:8569   */\n      dup5\n        /* \"#utility.yul\":8519:8591   */\n      tag_213\n      jump\t// in\n    tag_326:\n        /* \"#utility.yul\":8266:8598   */\n      swap4\n      swap3\n      pop\n      pop\n      pop\n      jump\t// out\n        /* \"#utility.yul\":8604:8784   */\n    tag_218:\n        /* \"#utility.yul\":8652:8729   */\n      0x4e487b7100000000000000000000000000000000000000000000000000000000\n        /* \"#utility.yul\":8649:8650   */\n      0x00\n        /* \"#utility.yul\":8642:8730   */\n      mstore\n        /* \"#utility.yul\":8749:8753   */\n      0x11\n        /* \"#utility.yul\":8746:8747   */\n      0x04\n        /* \"#utility.yul\":8739:8754   */\n      mstore\n        /* \"#utility.yul\":8773:8777   */\n      0x24\n        /* \"#utility.yul\":8770:8771   */\n      0x00\n        /* \"#utility.yul\":8763:8778   */\n      revert\n        /* \"#utility.yul\":8790:8892   */\n    tag_219:\n        /* \"#utility.yul\":8832:8840   */\n      0x00\n        /* \"#utility.yul\":8879:8884   */\n      dup2\n        /* \"#utility.yul\":8876:8877   */\n      0x01\n        /* \"#utility.yul\":8872:8885   */\n      shr\n        /* \"#utility.yul\":8851:8885   */\n      swap1\n      pop\n        /* \"#utility.yul\":8790:8892   */\n      swap2\n      swap1\n      pop\n      jump\t// out\n        /* \"#utility.yul\":8898:9746   */\n    tag_220:\n        /* \"#utility.yul\":8959:8964   */\n      0x00\n        /* \"#utility.yul\":8966:8970   */\n      dup1\n        /* \"#utility.yul\":8990:8996   */\n      dup3\n        /* \"#utility.yul\":8981:8996   */\n      swap2\n      pop\n        /* \"#utility.yul\":9014:9019   */\n      dup4\n        /* \"#utility.yul\":9005:9019   */\n      swap1\n      pop\n        /* \"#utility.yul\":9028:9740   */\n    tag_330:\n        /* \"#utility.yul\":9049:9050   */\n      0x01\n        /* \"#utility.yul\":9039:9047   */\n      dup6\n        /* \"#utility.yul\":9036:9051   */\n      gt\n        /* \"#utility.yul\":9028:9740   */\n      iszero\n      tag_332\n      jumpi\n        /* \"#utility.yul\":9144:9148   */\n      dup1\n        /* \"#utility.yul\":9139:9142   */\n      dup7\n        /* \"#utility.yul\":9135:9149   */\n      div\n        /* \"#utility.yul\":9129:9133   */\n      dup2\n        /* \"#utility.yul\":9126:9150   */\n      gt\n        /* \"#utility.yul\":9123:9173   */\n      iszero\n      tag_333\n      jumpi\n        /* \"#utility.yul\":9153:9171   */\n      tag_334\n      tag_218\n      jump\t// in\n    tag_334:\n        /* \"#utility.yul\":9123:9173   */\n    tag_333:\n        /* \"#utility.yul\":9203:9204   */\n      0x01\n        /* \"#utility.yul\":9193:9201   */\n      dup6\n        /* \"#utility.yul\":9189:9205   */\n      and\n        /* \"#utility.yul\":9186:9637   */\n      iszero\n      tag_335\n      jumpi\n        /* \"#utility.yul\":9618:9622   */\n      dup1\n        /* \"#utility.yul\":9611:9616   */\n      dup3\n        /* \"#utility.yul\":9607:9623   */\n      mul\n        /* \"#utility.yul\":9598:9623   */\n      swap2\n      pop\n        /* \"#utility.yul\":9186:9637   */\n    tag_335:\n        /* \"#utility.yul\":9668:9672   */\n      dup1\n        /* \"#utility.yul\":9662:9666   */\n      dup2\n        /* \"#utility.yul\":9658:9673   */\n      mul\n        /* \"#utility.yul\":9650:9673   */\n      swap1\n      pop\n        /* \"#utility.yul\":9698:9730   */\n      tag_336\n        /* \"#utility.yul\":9721:9729   */\n      dup6\n        /* \"#utility.yul\":9698:9730   */\n      tag_219\n      jump\t// in\n    tag_336:\n        /* \"#utility.yul\":9686:9730   */\n      swap5\n      pop\n        /* \"#utility.yul\":9028:9740   */\n      jump(tag_330)\n    tag_332:\n        /* \"#utility.yul\":8898:9746   */\n      swap5\n      pop\n      swap5\n      swap3\n      pop\n      pop\n      pop\n      jump\t// out\n        /* \"#utility.yul\":9752:10825   */\n    tag_221:\n        /* \"#utility.yul\":9806:9811   */\n      0x00\n        /* \"#utility.yul\":9997:10005   */\n      dup3\n        /* \"#utility.yul\":9987:10027   */\n      tag_338\n      jumpi\n        /* \"#utility.yul\":10018:10019   */\n      0x01\n        /* \"#utility.yul\":10009:10019   */\n      swap1\n      pop\n        /* \"#utility.yul\":10020:10025   */\n      jump(tag_337)\n        /* \"#utility.yul\":9987:10027   */\n    tag_338:\n        /* \"#utility.yul\":10046:10050   */\n      dup2\n        /* \"#utility.yul\":10036:10072   */\n      tag_339\n      jumpi\n        /* \"#utility.yul\":10063:10064   */\n      0x00\n        /* \"#utility.yul\":10054:10064   */\n      swap1\n      pop\n        /* \"#utility.yul\":10065:10070   */\n      jump(tag_337)\n        /* \"#utility.yul\":10036:10072   */\n    tag_339:\n        /* \"#utility.yul\":10132:10136   */\n      dup2\n        /* \"#utility.yul\":10180:10181   */\n      0x01\n        /* \"#utility.yul\":10175:10202   */\n      dup2\n      eq\n      tag_341\n      jumpi\n        /* \"#utility.yul\":10216:10217   */\n      0x02\n        /* \"#utility.yul\":10211:10402   */\n      dup2\n      eq\n      tag_342\n      jumpi\n        /* \"#utility.yul\":10125:10402   */\n      jump(tag_340)\n        /* \"#utility.yul\":10175:10202   */\n    tag_341:\n        /* \"#utility.yul\":10193:10194   */\n      0x01\n        /* \"#utility.yul\":10184:10194   */\n      swap2\n      pop\n        /* \"#utility.yul\":10195:10200   */\n      pop\n      jump(tag_337)\n        /* \"#utility.yul\":10211:10402   */\n    tag_342:\n        /* \"#utility.yul\":10256:10259   */\n      0xff\n        /* \"#utility.yul\":10246:10254   */\n      dup5\n        /* \"#utility.yul\":10243:10260   */\n      gt\n        /* \"#utility.yul\":10240:10283   */\n      iszero\n      tag_343\n      jumpi\n        /* \"#utility.yul\":10263:10281   */\n      tag_344\n      tag_218\n      jump\t// in\n    tag_344:\n        /* \"#utility.yul\":10240:10283   */\n    tag_343:\n        /* \"#utility.yul\":10312:10320   */\n      dup4\n        /* \"#utility.yul\":10309:10310   */\n      0x02\n        /* \"#utility.yul\":10305:10321   */\n      exp\n        /* \"#utility.yul\":10296:10321   */\n      swap2\n      pop\n        /* \"#utility.yul\":10347:10350   */\n      dup5\n        /* \"#utility.yul\":10340:10345   */\n      dup3\n        /* \"#utility.yul\":10337:10351   */\n      gt\n        /* \"#utility.yul\":10334:10374   */\n      iszero\n      tag_345\n      jumpi\n        /* \"#utility.yul\":10354:10372   */\n      tag_346\n      tag_218\n      jump\t// in\n    tag_346:\n        /* \"#utility.yul\":10334:10374   */\n    tag_345:\n        /* \"#utility.yul\":10387:10392   */\n      pop\n      jump(tag_337)\n        /* \"#utility.yul\":10125:10402   */\n    tag_340:\n      pop\n        /* \"#utility.yul\":10511:10513   */\n      0x20\n        /* \"#utility.yul\":10501:10509   */\n      dup4\n        /* \"#utility.yul\":10498:10514   */\n      lt\n        /* \"#utility.yul\":10492:10495   */\n      0x0133\n        /* \"#utility.yul\":10486:10490   */\n      dup4\n        /* \"#utility.yul\":10483:10496   */\n      lt\n        /* \"#utility.yul\":10479:10515   */\n      and\n        /* \"#utility.yul\":10461:10463   */\n      0x4e\n        /* \"#utility.yul\":10451:10459   */\n      dup5\n        /* \"#utility.yul\":10448:10464   */\n      lt\n        /* \"#utility.yul\":10443:10445   */\n      0x0b\n        /* \"#utility.yul\":10437:10441   */\n      dup5\n        /* \"#utility.yul\":10434:10446   */\n      lt\n        /* \"#utility.yul\":10430:10465   */\n      and\n        /* \"#utility.yul\":10414:10525   */\n      or\n        /* \"#utility.yul\":10411:10657   */\n      iszero\n      tag_347\n      jumpi\n        /* \"#utility.yul\":10567:10575   */\n      dup3\n        /* \"#utility.yul\":10561:10565   */\n      dup3\n        /* \"#utility.yul\":10557:10576   */\n      exp\n        /* \"#utility.yul\":10548:10576   */\n      swap1\n      pop\n        /* \"#utility.yul\":10602:10605   */\n      dup4\n        /* \"#utility.yul\":10595:10600   */\n      dup2\n        /* \"#utility.yul\":10592:10606   */\n      gt\n        /* \"#utility.yul\":10589:10629   */\n      iszero\n      tag_348\n      jumpi\n        /* \"#utility.yul\":10609:10627   */\n      tag_349\n      tag_218\n      jump\t// in\n    tag_349:\n        /* \"#utility.yul\":10589:10629   */\n    tag_348:\n        /* \"#utility.yul\":10642:10647   */\n      jump(tag_337)\n        /* \"#utility.yul\":10411:10657   */\n    tag_347:\n        /* \"#utility.yul\":10682:10724   */\n      tag_350\n        /* \"#utility.yul\":10720:10723   */\n      dup5\n        /* \"#utility.yul\":10710:10718   */\n      dup5\n        /* \"#utility.yul\":10704:10708   */\n      dup5\n        /* \"#utility.yul\":10701:10702   */\n      0x01\n        /* \"#utility.yul\":10682:10724   */\n      tag_220\n      jump\t// in\n    tag_350:\n        /* \"#utility.yul\":10667:10724   */\n      swap3\n      pop\n      swap1\n      pop\n        /* \"#utility.yul\":10756:10760   */\n      dup2\n        /* \"#utility.yul\":10751:10754   */\n      dup5\n        /* \"#utility.yul\":10747:10761   */\n      div\n        /* \"#utility.yul\":10740:10745   */\n      dup2\n        /* \"#utility.yul\":10737:10762   */\n      gt\n        /* \"#utility.yul\":10734:10785   */\n      iszero\n      tag_351\n      jumpi\n        /* \"#utility.yul\":10765:10783   */\n      tag_352\n      tag_218\n      jump\t// in\n    tag_352:\n        /* \"#utility.yul\":10734:10785   */\n    tag_351:\n        /* \"#utility.yul\":10814:10818   */\n      dup2\n        /* \"#utility.yul\":10807:10812   */\n      dup2\n        /* \"#utility.yul\":10803:10819   */\n      mul\n        /* \"#utility.yul\":10794:10819   */\n      swap1\n      pop\n        /* \"#utility.yul\":9752:10825   */\n    tag_337:\n      swap4\n      swap3\n      pop\n      pop\n      pop\n      jump\t// out\n        /* \"#utility.yul\":10831:11114   */\n    tag_126:\n        /* \"#utility.yul\":10890:10895   */\n      0x00\n        /* \"#utility.yul\":10914:10937   */\n      tag_354\n        /* \"#utility.yul\":10932:10936   */\n      dup3\n        /* \"#utility.yul\":10914:10937   */\n      tag_197\n      jump\t// in\n    tag_354:\n        /* \"#utility.yul\":10906:10937   */\n      swap2\n      pop\n        /* \"#utility.yul\":10958:10984   */\n      tag_355\n        /* \"#utility.yul\":10975:10983   */\n      dup4\n        /* \"#utility.yul\":10958:10984   */\n      tag_191\n      jump\t// in\n    tag_355:\n        /* \"#utility.yul\":10946:10984   */\n      swap3\n      pop\n        /* \"#utility.yul\":11003:11107   */\n      tag_356\n        /* \"#utility.yul\":11040:11106   */\n      0xffffffffffffffffffffffffffffffffffffffffffffffffffffffffffffffff\n        /* \"#utility.yul\":11030:11038   */\n      dup5\n        /* \"#utility.yul\":11024:11028   */\n      dup5\n        /* \"#utility.yul\":11003:11107   */\n      tag_221\n      jump\t// in\n    tag_356:\n        /* \"#utility.yul\":10994:11107   */\n      swap1\n      pop\n        /* \"#utility.yul\":10831:11114   */\n      swap3\n      swap2\n      pop\n      pop\n      jump\t// out\n        /* \"#utility.yul\":11120:11314   */\n    tag_128:\n        /* \"#utility.yul\":11160:11164   */\n      0x00\n        /* \"#utility.yul\":11180:11200   */\n      tag_358\n        /* \"#utility.yul\":11198:11199   */\n      dup3\n        /* \"#utility.yul\":11180:11200   */\n      tag_197\n      jump\t// in\n    tag_358:\n        /* \"#utility.yul\":11175:11200   */\n      swap2\n      pop\n        /* \"#utility.yul\":11214:11234   */\n      tag_359\n        /* \"#utility.yul\":11232:11233   */\n      dup4\n        /* \"#utility.yul\":11214:11234   */\n      tag_197\n      jump\t// in\n    tag_359:\n        /* \"#utility.yul\":11209:11234   */\n      swap3\n      pop\n        /* \"#utility.yul\":11258:11259   */\n      dup3\n        /* \"#utility.yul\":11255:11256   */\n      dup3\n        /* \"#utility.yul\":11251:11260   */\n      sub\n        /* \"#utility.yul\":11243:11260   */\n      swap1\n      pop\n        /* \"#utility.yul\":11282:11283   */\n      dup2\n        /* \"#utility.yul\":11276:11280   */\n      dup2\n        /* \"#utility.yul\":11273:11284   */\n      gt\n        /* \"#utility.yul\":11270:11307   */\n      iszero\n      tag_360\n      jumpi\n        /* \"#utility.yul\":11287:11305   */\n      tag_361\n      tag_218\n      jump\t// in\n    tag_361:\n        /* \"#utility.yul\":11270:11307   */\n    tag_360:\n        /* \"#utility.yul\":11120:11314   */\n      swap3\n      swap2\n      pop\n      pop\n      jump\t// out\n        /* \"#utility.yul\":11320:11730   */\n    tag_130:\n        /* \"#utility.yul\":11360:11367   */\n      0x00\n        /* \"#utility.yul\":11383:11403   */\n      tag_363\n        /* \"#utility.yul\":11401:11402   */\n      dup3\n        /* \"#utility.yul\":11383:11403   */\n      tag_197\n      jump\t// in\n    tag_363:\n        /* \"#utility.yul\":11378:11403   */\n      swap2\n      pop\n        /* \"#utility.yul\":11417:11437   */\n      tag_364\n        /* \"#utility.yul\":11435:11436   */\n      dup4\n        /* \"#utility.yul\":11417:11437   */\n      tag_197\n      jump\t// in\n    tag_364:\n        /* \"#utility.yul\":11412:11437   */\n      swap3\n      pop\n        /* \"#utility.yul\":11472:11473   */\n      dup3\n        /* \"#utility.yul\":11469:11470   */\n      dup3\n        /* \"#utility.yul\":11465:11474   */\n      mul\n        /* \"#utility.yul\":11494:11524   */\n      tag_365\n        /* \"#utility.yul\":11512:11523   */\n      dup2\n        /* \"#utility.yul\":11494:11524   */\n      tag_197\n      jump\t// in\n    tag_365:\n        /* \"#utility.yul\":11483:11524   */\n      swap2\n      pop\n        /* \"#utility.yul\":11673:11674   */\n      dup3\n        /* \"#utility.yul\":11664:11671   */\n      dup3\n        /* \"#utility.yul\":11660:11675   */\n      div\n        /* \"#utility.yul\":11657:11658   */\n      dup5\n        /* \"#utility.yul\":11654:11676   */\n      eq\n        /* \"#utility.yul\":11634:11635   */\n      dup4\n        /* \"#utility.yul\":11627:11636   */\n      iszero\n        /* \"#utility.yul\":11607:11690   */\n      or\n        /* \"#utility.yul\":11584:11723   */\n      tag_366\n      jumpi\n        /* \"#utility.yul\":11703:11721   */\n      tag_367\n      tag_218\n      jump\t// in\n    tag_367:\n        /* \"#utility.yul\":11584:11723   */\n    tag_366:\n        /* \"#utility.yul\":11368:11730   */\n      pop\n        /* \"#utility.yul\":11320:11730   */\n      swap3\n      swap2\n      pop\n      pop\n      jump\t// out\n        /* \"#utility.yul\":11736:11916   */\n    tag_222:\n        /* \"#utility.yul\":11784:11861   */\n      0x4e487b7100000000000000000000000000000000000000000000000000000000\n        /* \"#utility.yul\":11781:11782   */\n      0x00\n        /* \"#utility.yul\":11774:11862   */\n      mstore\n        /* \"#utility.yul\":11881:11885   */\n      0x12\n        /* \"#utility.yul\":11878:11879   */\n      0x04\n        /* \"#utility.yul\":11871:11886   */\n      mstore\n        /* \"#utility.yul\":11905:11909   */\n      0x24\n        /* \"#utility.yul\":11902:11903   */\n      0x00\n        /* \"#utility.yul\":11895:11910   */\n      revert\n        /* \"#utility.yul\":11922:12107   */\n    tag_132:\n        /* \"#utility.yul\":11962:11963   */\n      0x00\n        /* \"#utility.yul\":11979:11999   */\n      tag_370\n        /* \"#utility.yul\":11997:11998   */\n      dup3\n        /* \"#utility.yul\":11979:11999   */\n      tag_197\n      jump\t// in\n    tag_370:\n        /* \"#utility.yul\":11974:11999   */\n      swap2\n      pop\n        /* \"#utility.yul\":12013:12033   */\n      tag_371\n        /* \"#utility.yul\":12031:12032   */\n      dup4\n        /* \"#utility.yul\":12013:12033   */\n      tag_197\n      jump\t// in\n    tag_371:\n        /* \"#utility.yul\":12008:12033   */\n      swap3\n      pop\n        /* \"#utility.yul\":12052:12053   */\n      dup3\n        /* \"#utility.yul\":12042:12077   */\n      tag_372\n      jumpi\n        /* \"#utility.yul\":12057:12075   */\n      tag_373\n      tag_222\n      jump\t// in\n    tag_373:\n        /* \"#utility.yul\":12042:12077   */\n    tag_372:\n        /* \"#utility.yul\":12099:12100   */\n      dup3\n        /* \"#utility.yul\":12096:12097   */\n      dup3\n        /* \"#utility.yul\":12092:12101   */\n      div\n        /* \"#utility.yul\":12087:12101   */\n      swap1\n      pop\n        /* \"#utility.yul\":11922:12107   */\n      swap3\n      swap2\n      pop\n      pop\n      jump\t// out\n        /* \"#utility.yul\":12113:12304   */\n    tag_134:\n        /* \"#utility.yul\":12153:12156   */\n      0x00\n        /* \"#utility.yul\":12172:12192   */\n      tag_375\n        /* \"#utility.yul\":12190:12191   */\n      dup3\n        /* \"#utility.yul\":12172:12192   */\n      tag_197\n      jump\t// in\n    tag_375:\n        /* \"#utility.yul\":12167:12192   */\n      swap2\n      pop\n        /* \"#utility.yul\":12206:12226   */\n      tag_376\n        /* \"#utility.yul\":12224:12225   */\n      dup4\n        /* \"#utility.yul\":12206:12226   */\n      tag_197\n      jump\t// in\n    tag_376:\n        /* \"#utility.yul\":12201:12226   */\n      swap3\n      pop\n        /* \"#utility.yul\":12249:12250   */\n      dup3\n        /* \"#utility.yul\":12246:12247   */\n      dup3\n        /* \"#utility.yul\":12242:12251   */\n      add\n        /* \"#utility.yul\":12235:12251   */\n      swap1\n      pop\n        /* \"#utility.yul\":12270:12273   */\n      dup1\n        /* \"#utility.yul\":12267:12268   */\n      dup3\n        /* \"#utility.yul\":12264:12274   */\n      gt\n        /* \"#utility.yul\":12261:12297   */\n      iszero\n      tag_377\n      jumpi\n        /* \"#utility.yul\":12277:12295   */\n      tag_378\n      tag_218\n      jump\t// in\n    tag_378:\n        /* \"#utility.yul\":12261:12297   */\n    tag_377:\n        /* \"#utility.yul\":12113:12304   */\n      swap3\n      swap2\n      pop\n      pop\n      jump\t// out\n        /* \"#utility.yul\":12310:12485   */\n    tag_143:\n        /* \"#utility.yul\":12348:12351   */\n      0x00\n        /* \"#utility.yul\":12371:12394   */\n      tag_380\n        /* \"#utility.yul\":12388:12393   */\n      dup3\n        /* \"#utility.yul\":12371:12394   */\n      tag_191\n      jump\t// in\n    tag_380:\n        /* \"#utility.yul\":12362:12394   */\n      swap2\n      pop\n        /* \"#utility.yul\":12416:12426   */\n      0xffffffff\n        /* \"#utility.yul\":12409:12414   */\n      dup3\n        /* \"#utility.yul\":12406:12427   */\n      sub\n        /* \"#utility.yul\":12403:12450   */\n      tag_381\n      jumpi\n        /* \"#utility.yul\":12430:12448   */\n      tag_382\n      tag_218\n      jump\t// in\n    tag_382:\n        /* \"#utility.yul\":12403:12450   */\n    tag_381:\n        /* \"#utility.yul\":12477:12478   */\n      0x01\n        /* \"#utility.yul\":12470:12475   */\n      dup3\n        /* \"#utility.yul\":12466:12479   */\n      add\n        /* \"#utility.yul\":12459:12479   */\n      swap1\n      pop\n        /* \"#utility.yul\":12310:12485   */\n      swap2\n      swap1\n      pop\n      jump\t// out\n        /* \"#utility.yul\":12491:12823   */\n    tag_145:\n        /* \"#utility.yul\":12612:12616   */\n      0x00\n        /* \"#utility.yul\":12650:12652   */\n      0x40\n        /* \"#utility.yul\":12639:12648   */\n      dup3\n        /* \"#utility.yul\":12635:12653   */\n      add\n        /* \"#utility.yul\":12627:12653   */\n      swap1\n      pop\n        /* \"#utility.yul\":12663:12734   */\n      tag_384\n        /* \"#utility.yul\":12731:12732   */\n      0x00\n        /* \"#utility.yul\":12720:12729   */\n      dup4\n        /* \"#utility.yul\":12716:12733   */\n      add\n        /* \"#utility.yul\":12707:12713   */\n      dup6\n        /* \"#utility.yul\":12663:12734   */\n      tag_204\n      jump\t// in\n    tag_384:\n        /* \"#utility.yul\":12744:12816   */\n      tag_385\n        /* \"#utility.yul\":12812:12814   */\n      0x20\n        /* \"#utility.yul\":12801:12810   */\n      dup4\n        /* \"#utility.yul\":12797:12815   */\n      add\n        /* \"#utility.yul\":12788:12794   */\n      dup5\n        /* \"#utility.yul\":12744:12816   */\n      tag_204\n      jump\t// in\n    tag_385:\n        /* \"#utility.yul\":12491:12823   */\n      swap4\n      swap3\n      pop\n      pop\n      pop\n      jump\t// out\n        /* \"#utility.yul\":12829:13161   */\n    tag_166:\n        /* \"#utility.yul\":12950:12954   */\n      0x00\n        /* \"#utility.yul\":12988:12990   */\n      0x40\n        /* \"#utility.yul\":12977:12986   */\n      dup3\n        /* \"#utility.yul\":12973:12991   */\n      add\n        /* \"#utility.yul\":12965:12991   */\n      swap1\n      pop\n        /* \"#utility.yul\":13001:13072   */\n      tag_387\n        /* \"#utility.yul\":13069:13070   */\n      0x00\n        /* \"#utility.yul\":13058:13067   */\n      dup4\n        /* \"#utility.yul\":13054:13071   */\n      add\n        /* \"#utility.yul\":13045:13051   */\n      dup6\n        /* \"#utility.yul\":13001:13072   */\n      tag_213\n      jump\t// in\n    tag_387:\n        /* \"#utility.yul\":13082:13154   */\n      tag_388\n        /* \"#utility.yul\":13150:13152   */\n      0x20\n        /* \"#utility.yul\":13139:13148   */\n      dup4\n        /* \"#utility.yul\":13135:13153   */\n      add\n        /* \"#utility.yul\":13126:13132   */\n      dup5\n        /* \"#utility.yul\":13082:13154   */\n      tag_204\n      jump\t// in\n    tag_388:\n        /* \"#utility.yul\":12829:13161   */\n      swap4\n      swap3\n      pop\n      pop\n      pop\n      jump\t// out\n        /* \"#utility.yul\":13167:13257   */\n    tag_223:\n        /* \"#utility.yul\":13201:13208   */\n      0x00\n        /* \"#utility.yul\":13244:13249   */\n      dup2\n        /* \"#utility.yul\":13237:13250   */\n      iszero\n        /* \"#utility.yul\":13230:13251   */\n      iszero\n        /* \"#utility.yul\":13219:13251   */\n      swap1\n      pop\n        /* \"#utility.yul\":13167:13257   */\n      swap2\n      swap1\n      pop\n      jump\t// out\n        /* \"#utility.yul\":13263:13379   */\n    tag_224:\n        /* \"#utility.yul\":13333:13354   */\n      tag_391\n        /* \"#utility.yul\":13348:13353   */\n      dup2\n        /* \"#utility.yul\":13333:13354   */\n      tag_223\n      jump\t// in\n    tag_391:\n        /* \"#utility.yul\":13326:13331   */\n      dup2\n        /* \"#utility.yul\":13323:13355   */\n      eq\n        /* \"#utility.yul\":13313:13373   */\n      tag_392\n      jumpi\n        /* \"#utility.yul\":13369:13370   */\n      0x00\n        /* \"#utility.yul\":13366:13367   */\n      dup1\n        /* \"#utility.yul\":13359:13371   */\n      revert\n        /* \"#utility.yul\":13313:13373   */\n    tag_392:\n        /* \"#utility.yul\":13263:13379   */\n      pop\n      jump\t// out\n        /* \"#utility.yul\":13385:13522   */\n    tag_225:\n        /* \"#utility.yul\":13439:13444   */\n      0x00\n        /* \"#utility.yul\":13470:13476   */\n      dup2\n        /* \"#utility.yul\":13464:13477   */\n      mload\n        /* \"#utility.yul\":13455:13477   */\n      swap1\n      pop\n        /* \"#utility.yul\":13486:13516   */\n      tag_394\n        /* \"#utility.yul\":13510:13515   */\n      dup2\n        /* \"#utility.yul\":13486:13516   */\n      tag_224\n      jump\t// in\n    tag_394:\n        /* \"#utility.yul\":13385:13522   */\n      swap3\n      swap2\n      pop\n      pop\n      jump\t// out\n        /* \"#utility.yul\":13528:13873   */\n    tag_170:\n        /* \"#utility.yul\":13595:13601   */\n      0x00\n        /* \"#utility.yul\":13644:13646   */\n      0x20\n        /* \"#utility.yul\":13632:13641   */\n      dup3\n        /* \"#utility.yul\":13623:13630   */\n      dup5\n        /* \"#utility.yul\":13619:13642   */\n      sub\n        /* \"#utility.yul\":13615:13647   */\n      slt\n        /* \"#utility.yul\":13612:13731   */\n      iszero\n      tag_396\n      jumpi\n        /* \"#utility.yul\":13650:13729   */\n      tag_397\n      tag_189\n      jump\t// in\n    tag_397:\n        /* \"#utility.yul\":13612:13731   */\n    tag_396:\n        /* \"#utility.yul\":13770:13771   */\n      0x00\n        /* \"#utility.yul\":13795:13856   */\n      tag_398\n        /* \"#utility.yul\":13848:13855   */\n      dup5\n        /* \"#utility.yul\":13839:13845   */\n      dup3\n        /* \"#utility.yul\":13828:13837   */\n      dup6\n        /* \"#utility.yul\":13824:13846   */\n      add\n        /* \"#utility.yul\":13795:13856   */\n      tag_225\n      jump\t// in\n    tag_398:\n        /* \"#utility.yul\":13785:13856   */\n      swap2\n      pop\n        /* \"#utility.yul\":13741:13866   */\n      pop\n        /* \"#utility.yul\":13528:13873   */\n      swap3\n      swap2\n      pop\n      pop\n      jump\t// out\n        /* \"#utility.yul\":13879:14079   */\n    tag_176:\n        /* \"#utility.yul\":13918:13922   */\n      0x00\n        /* \"#utility.yul\":13938:13957   */\n      tag_400\n        /* \"#utility.yul\":13955:13956   */\n      dup3\n        /* \"#utility.yul\":13938:13957   */\n      tag_191\n      jump\t// in\n    tag_400:\n        /* \"#utility.yul\":13933:13957   */\n      swap2\n      pop\n        /* \"#utility.yul\":13971:13990   */\n      tag_401\n        /* \"#utility.yul\":13988:13989   */\n      dup4\n        /* \"#utility.yul\":13971:13990   */\n      tag_191\n      jump\t// in\n    tag_401:\n        /* \"#utility.yul\":13966:13990   */\n      swap3\n      pop\n        /* \"#utility.yul\":14014:14015   */\n      dup3\n        /* \"#utility.yul\":14011:14012   */\n      dup3\n        /* \"#utility.yul\":14007:14016   */\n      sub\n        /* \"#utility.yul\":13999:14016   */\n      swap1\n      pop\n        /* \"#utility.yul\":14038:14048   */\n      0xffffffff\n        /* \"#utility.yul\":14032:14036   */\n      dup2\n        /* \"#utility.yul\":14029:14049   */\n      gt\n        /* \"#utility.yul\":14026:14072   */\n      iszero\n      tag_402\n      jumpi\n        /* \"#utility.yul\":14052:14070   */\n      tag_403\n      tag_218\n      jump\t// in\n    tag_403:\n        /* \"#utility.yul\":14026:14072   */\n    tag_402:\n        /* \"#utility.yul\":13879:14079   */\n      swap3\n      swap2\n      pop\n      pop\n      jump\t// out\n\n    auxdata: 0xa26469706673582212200aa0bb092fda1cb136c30cea76c85ee779b4fd8225b48a493eef573f6fd02b2564736f6c63430008170033\n}\n",
				"bytecode": {
					"linkReferences": {},
					"object": "608060405234801562000010575f80fd5b5060405162001bf338038062001bf3833981810160405281019062000036919062000233565b825f806101000a81548173ffffffffffffffffffffffffffffffffffffffff021916908373ffffffffffffffffffffffffffffffffffffffff1602179055505f8054906101000a900473ffffffffffffffffffffffffffffffffffffffff1673ffffffffffffffffffffffffffffffffffffffff1663313ce5676040518163ffffffff1660e01b8152600401602060405180830381865afa158015620000de573d5f803e3d5ffd5b505050506040513d601f19601f82011682018060405250810190620001049190620002c7565b60ff16600b5f6101000a81548163ffffffff021916908363ffffffff1602179055505f60075f6101000a81548163ffffffff021916908363ffffffff16021790555080600c819055508160015f6101000a81548173ffffffffffffffffffffffffffffffffffffffff021916908373ffffffffffffffffffffffffffffffffffffffff160217905550505050620002f7565b5f80fd5b5f73ffffffffffffffffffffffffffffffffffffffff82169050919050565b5f620001c5826200019a565b9050919050565b620001d781620001b9565b8114620001e2575f80fd5b50565b5f81519050620001f581620001cc565b92915050565b5f819050919050565b6200020f81620001fb565b81146200021a575f80fd5b50565b5f815190506200022d8162000204565b92915050565b5f805f606084860312156200024d576200024c62000196565b5b5f6200025c86828701620001e5565b93505060206200026f86828701620001e5565b925050604062000282868287016200021d565b9150509250925092565b5f60ff82169050919050565b620002a3816200028c565b8114620002ae575f80fd5b50565b5f81519050620002c18162000298565b92915050565b5f60208284031215620002df57620002de62000196565b5b5f620002ee84828501620002b1565b91505092915050565b6118ee80620003055f395ff3fe608060405234801561000f575f80fd5b5060043610610135575f3560e01c806376809ce3116100b6578063c884ef831161007a578063c884ef8314610351578063cdf033f314610381578063d4c3eea01461039f578063eb46260e146103bd578063eeda71d5146103ed578063f54f0a8d1461041d57610135565b806376809ce3146102975780637a19a488146102b55780638233fbcb146102d3578063a035b1fe14610303578063b9f0bf661461032157610135565b80631aa3a008116100fd5780631aa3a008146102035780633013ce2914610221578063480a42621461023f5780634e71d92d1461026f5780636d1c60411461027957610135565b806307040e91146101395780630efe6a8b146101695780631161e5821461018557806313da0777146101b55780631a39d8ef146101e5575b5f80fd5b610153600480360381019061014e9190611141565b61044f565b6040516101609190611203565b60405180910390f35b610183600480360381019061017e9190611270565b6104ee565b005b61019f600480360381019061019a91906112c0565b610a4a565b6040516101ac91906112fa565b60405180910390f35b6101cf60048036038101906101ca9190611313565b610a5f565b6040516101dc91906112fa565b60405180910390f35b6101ed610bbf565b6040516101fa91906112fa565b60405180910390f35b61020b610bc5565b60405161021891906113ac565b60405180910390f35b610229610bea565b60405161023691906113e5565b60405180910390f35b610259600480360381019061025491906112c0565b610c0d565b60405161026691906112fa565b60405180910390f35b610277610c1e565b005b610281610dd3565b60405161028e919061140d565b60405180910390f35b61029f610e1e565b6040516102ac919061140d565b60405180910390f35b6102bd610e33565b6040516102ca91906112fa565b60405180910390f35b6102ed60048036038101906102e891906112c0565b610e39565b6040516102fa91906112fa565b60405180910390f35b61030b610e92565b60405161031891906112fa565b60405180910390f35b61033b600480360381019061033691906112c0565b610e98565b60405161034891906112fa565b60405180910390f35b61036b600480360381019061036691906112c0565b610ead565b60405161037891906112fa565b60405180910390f35b610389610ec2565b604051610396919061140d565b60405180910390f35b6103a7610ed7565b6040516103b491906112fa565b60405180910390f35b6103d760048036038101906103d291906112c0565b610edd565b6040516103e491906112fa565b60405180910390f35b610407600480360381019061040291906112c0565b610f23565b60405161041491906112fa565b60405180910390f35b61043760048036038101906104329190611141565b610f38565b60405161044693929190611435565b60405180910390f35b6104576110d0565b60065f8363ffffffff1663ffffffff1681526020019081526020015f206040518060600160405290815f82015f9054906101000a900473ffffffffffffffffffffffffffffffffffffffff1673ffffffffffffffffffffffffffffffffffffffff1673ffffffffffffffffffffffffffffffffffffffff168152602001600182015481526020016002820154815250509050919050565b60015f9054906101000a900473ffffffffffffffffffffffffffffffffffffffff1673ffffffffffffffffffffffffffffffffffffffff166312d9a6ad60015f9054906101000a900473ffffffffffffffffffffffffffffffffffffffff1673ffffffffffffffffffffffffffffffffffffffff1663f46f16c26040518163ffffffff1660e01b8152600401602060405180830381865afa158015610595573d5f803e3d5ffd5b505050506040513d601f19601f820116820180604052508101906105b9919061149d565b336040518363ffffffff1660e01b81526004016105d79291906114d7565b5f6040518083038186803b1580156105ed575f80fd5b505afa1580156105ff573d5f803e3d5ffd5b505050505f73ffffffffffffffffffffffffffffffffffffffff168373ffffffffffffffffffffffffffffffffffffffff1603610668576040517fe6c4247b00000000000000000000000000000000000000000000000000000000815260040160405180910390fd5b5f82036106a1576040517faa7feadc00000000000000000000000000000000000000000000000000000000815260040160405180910390fd5b5f81036106da576040517f2c5211c600000000000000000000000000000000000000000000000000000000815260040160405180910390fd5b600b5f9054906101000a900463ffffffff16600a6106f8919061165a565b60035f8573ffffffffffffffffffffffffffffffffffffffff1673ffffffffffffffffffffffffffffffffffffffff1681526020019081526020015f2054600a5461074391906116a4565b60025f8673ffffffffffffffffffffffffffffffffffffffff1673ffffffffffffffffffffffffffffffffffffffff1681526020019081526020015f205461078b91906116d7565b6107959190611745565b60045f8573ffffffffffffffffffffffffffffffffffffffff1673ffffffffffffffffffffffffffffffffffffffff1681526020019081526020015f205f8282546107e09190611775565b925050819055508160095f8282546107f89190611775565b92505081905550600a5460035f8573ffffffffffffffffffffffffffffffffffffffff1673ffffffffffffffffffffffffffffffffffffffff1681526020019081526020015f20819055508060025f8573ffffffffffffffffffffffffffffffffffffffff1673ffffffffffffffffffffffffffffffffffffffff1681526020019081526020015f205f82825461088f9190611775565b925050819055508060085f8282546108a79190611775565b92505081905550600854600b5f9054906101000a900463ffffffff16600a6108cf919061165a565b836108da91906116d7565b6108e49190611745565b600a5f8282546108f49190611775565b9250508190555060405180606001604052808473ffffffffffffffffffffffffffffffffffffffff1681526020018381526020018281525060065f60075f9054906101000a900463ffffffff1663ffffffff1663ffffffff1681526020019081526020015f205f820151815f015f6101000a81548173ffffffffffffffffffffffffffffffffffffffff021916908373ffffffffffffffffffffffffffffffffffffffff160217905550602082015181600101556040820151816002015590505060075f81819054906101000a900463ffffffff16809291906109d6906117a8565b91906101000a81548163ffffffff021916908363ffffffff160217905550508273ffffffffffffffffffffffffffffffffffffffff167f0f0d29b5d4cebe99e2c93ffec39876a8b37c77ba767270f4f489daede43aea4e8383604051610a3d9291906117d3565b60405180910390a2505050565b6004602052805f5260405f205f915090505481565b5f8073ffffffffffffffffffffffffffffffffffffffff168373ffffffffffffffffffffffffffffffffffffffff1603610ac5576040517fe6c4247b00000000000000000000000000000000000000000000000000000000815260040160405180910390fd5b5f8260025f8673ffffffffffffffffffffffffffffffffffffffff1673ffffffffffffffffffffffffffffffffffffffff1681526020019081526020015f2054610b0f9190611775565b90505f83600854610b209190611775565b03610b2e575f915050610bb9565b5f83600854610b3d9190611775565b600b5f9054906101000a900463ffffffff16600a610b5b919061165a565b83610b6691906116d7565b610b709190611745565b9050600b5f9054906101000a900463ffffffff16600a610b90919061165a565b600a600c54610b9f9190611745565b82610baa91906116d7565b610bb49190611745565b925050505b92915050565b60085481565b60015f9054906101000a900473ffffffffffffffffffffffffffffffffffffffff1681565b5f8054906101000a900473ffffffffffffffffffffffffffffffffffffffff1681565b5f610c1782610f7d565b9050919050565b5f3390505f73ffffffffffffffffffffffffffffffffffffffff168173ffffffffffffffffffffffffffffffffffffffff1603610c87576040517fe6c4247b00000000000000000000000000000000000000000000000000000000815260040160405180910390fd5b5f610c9182610f7d565b90505f8054906101000a900473ffffffffffffffffffffffffffffffffffffffff1673ffffffffffffffffffffffffffffffffffffffff1663a9059cbb83836040518363ffffffff1660e01b8152600401610ced9291906117fa565b6020604051808303815f875af1158015610d09573d5f803e3d5ffd5b505050506040513d601f19601f82011682018060405250810190610d2d9190611856565b508060055f8473ffffffffffffffffffffffffffffffffffffffff1673ffffffffffffffffffffffffffffffffffffffff1681526020019081526020015f205f828254610d7a9190611775565b925050819055508173ffffffffffffffffffffffffffffffffffffffff167f3488c34059d2e654b3b166b5ec4ee17bbd37297b906d39c704104a7dc2459b3182604051610dc791906112fa565b60405180910390a25050565b5f8060075f9054906101000a900463ffffffff1663ffffffff1603610dfa575f9050610e1b565b600160075f9054906101000a900463ffffffff16610e189190611881565b90505b90565b600b5f9054906101000a900463ffffffff1681565b600a5481565b5f610e4382610f7d565b60055f8473ffffffffffffffffffffffffffffffffffffffff1673ffffffffffffffffffffffffffffffffffffffff1681526020019081526020015f2054610e8b9190611775565b9050919050565b600c5481565b6002602052805f5260405f205f915090505481565b6005602052805f5260405f205f915090505481565b60075f9054906101000a900463ffffffff1681565b60095481565b5f60055f8373ffffffffffffffffffffffffffffffffffffffff1673ffffffffffffffffffffffffffffffffffffffff1681526020019081526020015f20549050919050565b6003602052805f5260405f205f915090505481565b6006602052805f5260405f205f91509050805f015f9054906101000a900473ffffffffffffffffffffffffffffffffffffffff16908060010154908060020154905083565b5f60055f8373ffffffffffffffffffffffffffffffffffffffff1673ffffffffffffffffffffffffffffffffffffffff1681526020019081526020015f2054600b5f9054906101000a900463ffffffff16600a610fda919061165a565b60035f8573ffffffffffffffffffffffffffffffffffffffff1673ffffffffffffffffffffffffffffffffffffffff1681526020019081526020015f2054600a5461102591906116a4565b60025f8673ffffffffffffffffffffffffffffffffffffffff1673ffffffffffffffffffffffffffffffffffffffff1681526020019081526020015f205461106d91906116d7565b6110779190611745565b60045f8573ffffffffffffffffffffffffffffffffffffffff1673ffffffffffffffffffffffffffffffffffffffff1681526020019081526020015f20546110bf9190611775565b6110c991906116a4565b9050919050565b60405180606001604052805f73ffffffffffffffffffffffffffffffffffffffff1681526020015f81526020015f81525090565b5f80fd5b5f63ffffffff82169050919050565b61112081611108565b811461112a575f80fd5b50565b5f8135905061113b81611117565b92915050565b5f6020828403121561115657611155611104565b5b5f6111638482850161112d565b91505092915050565b5f73ffffffffffffffffffffffffffffffffffffffff82169050919050565b5f6111958261116c565b9050919050565b6111a58161118b565b82525050565b5f819050919050565b6111bd816111ab565b82525050565b606082015f8201516111d75f85018261119c565b5060208201516111ea60208501826111b4565b5060408201516111fd60408501826111b4565b50505050565b5f6060820190506112165f8301846111c3565b92915050565b6112258161118b565b811461122f575f80fd5b50565b5f813590506112408161121c565b92915050565b61124f816111ab565b8114611259575f80fd5b50565b5f8135905061126a81611246565b92915050565b5f805f6060848603121561128757611286611104565b5b5f61129486828701611232565b93505060206112a58682870161125c565b92505060406112b68682870161125c565b9150509250925092565b5f602082840312156112d5576112d4611104565b5b5f6112e284828501611232565b91505092915050565b6112f4816111ab565b82525050565b5f60208201905061130d5f8301846112eb565b92915050565b5f806040838503121561132957611328611104565b5b5f61133685828601611232565b92505060206113478582860161125c565b9150509250929050565b5f819050919050565b5f61137461136f61136a8461116c565b611351565b61116c565b9050919050565b5f6113858261135a565b9050919050565b5f6113968261137b565b9050919050565b6113a68161138c565b82525050565b5f6020820190506113bf5f83018461139d565b92915050565b5f6113cf8261137b565b9050919050565b6113df816113c5565b82525050565b5f6020820190506113f85f8301846113d6565b92915050565b61140781611108565b82525050565b5f6020820190506114205f8301846113fe565b92915050565b61142f8161118b565b82525050565b5f6060820190506114485f830186611426565b61145560208301856112eb565b61146260408301846112eb565b949350505050565b5f819050919050565b61147c8161146a565b8114611486575f80fd5b50565b5f8151905061149781611473565b92915050565b5f602082840312156114b2576114b1611104565b5b5f6114bf84828501611489565b91505092915050565b6114d18161146a565b82525050565b5f6040820190506114ea5f8301856114c8565b6114f76020830184611426565b9392505050565b7f4e487b71000000000000000000000000000000000000000000000000000000005f52601160045260245ffd5b5f8160011c9050919050565b5f808291508390505b60018511156115805780860481111561155c5761155b6114fe565b5b600185161561156b5780820291505b80810290506115798561152b565b9450611540565b94509492505050565b5f826115985760019050611653565b816115a5575f9050611653565b81600181146115bb57600281146115c5576115f4565b6001915050611653565b60ff8411156115d7576115d66114fe565b5b8360020a9150848211156115ee576115ed6114fe565b5b50611653565b5060208310610133831016604e8410600b84101617156116295782820a905083811115611624576116236114fe565b5b611653565b6116368484846001611537565b9250905081840481111561164d5761164c6114fe565b5b81810290505b9392505050565b5f611664826111ab565b915061166f83611108565b925061169c7fffffffffffffffffffffffffffffffffffffffffffffffffffffffffffffffff8484611589565b905092915050565b5f6116ae826111ab565b91506116b9836111ab565b92508282039050818111156116d1576116d06114fe565b5b92915050565b5f6116e1826111ab565b91506116ec836111ab565b92508282026116fa816111ab565b91508282048414831517611711576117106114fe565b5b5092915050565b7f4e487b71000000000000000000000000000000000000000000000000000000005f52601260045260245ffd5b5f61174f826111ab565b915061175a836111ab565b92508261176a57611769611718565b5b828204905092915050565b5f61177f826111ab565b915061178a836111ab565b92508282019050808211156117a2576117a16114fe565b5b92915050565b5f6117b282611108565b915063ffffffff82036117c8576117c76114fe565b5b600182019050919050565b5f6040820190506117e65f8301856112eb565b6117f360208301846112eb565b9392505050565b5f60408201905061180d5f830185611426565b61181a60208301846112eb565b9392505050565b5f8115159050919050565b61183581611821565b811461183f575f80fd5b50565b5f815190506118508161182c565b92915050565b5f6020828403121561186b5761186a611104565b5b5f61187884828501611842565b91505092915050565b5f61188b82611108565b915061189683611108565b9250828203905063ffffffff8111156118b2576118b16114fe565b5b9291505056fea26469706673582212200aa0bb092fda1cb136c30cea76c85ee779b4fd8225b48a493eef573f6fd02b2564736f6c63430008170033",
					"opcodes": "PUSH1 0x80 PUSH1 0x40 MSTORE CALLVALUE DUP1 ISZERO PUSH3 0x10 JUMPI PUSH0 DUP1 REVERT JUMPDEST POP PUSH1 0x40 MLOAD PUSH3 0x1BF3 CODESIZE SUB DUP1 PUSH3 0x1BF3 DUP4 CODECOPY DUP2 DUP2 ADD PUSH1 0x40 MSTORE DUP2 ADD SWAP1 PUSH3 0x36 SWAP2 SWAP1 PUSH3 0x233 JUMP JUMPDEST DUP3 PUSH0 DUP1 PUSH2 0x100 EXP DUP2 SLOAD DUP2 PUSH20 0xFFFFFFFFFFFFFFFFFFFFFFFFFFFFFFFFFFFFFFFF MUL NOT AND SWAP1 DUP4 PUSH20 0xFFFFFFFFFFFFFFFFFFFFFFFFFFFFFFFFFFFFFFFF AND MUL OR SWAP1 SSTORE POP PUSH0 DUP1 SLOAD SWAP1 PUSH2 0x100 EXP SWAP1 DIV PUSH20 0xFFFFFFFFFFFFFFFFFFFFFFFFFFFFFFFFFFFFFFFF AND PUSH20 0xFFFFFFFFFFFFFFFFFFFFFFFFFFFFFFFFFFFFFFFF AND PUSH4 0x313CE567 PUSH1 0x40 MLOAD DUP2 PUSH4 0xFFFFFFFF AND PUSH1 0xE0 SHL DUP2 MSTORE PUSH1 0x4 ADD PUSH1 0x20 PUSH1 0x40 MLOAD DUP1 DUP4 SUB DUP2 DUP7 GAS STATICCALL ISZERO DUP1 ISZERO PUSH3 0xDE JUMPI RETURNDATASIZE PUSH0 DUP1 RETURNDATACOPY RETURNDATASIZE PUSH0 REVERT JUMPDEST POP POP POP POP PUSH1 0x40 MLOAD RETURNDATASIZE PUSH1 0x1F NOT PUSH1 0x1F DUP3 ADD AND DUP3 ADD DUP1 PUSH1 0x40 MSTORE POP DUP2 ADD SWAP1 PUSH3 0x104 SWAP2 SWAP1 PUSH3 0x2C7 JUMP JUMPDEST PUSH1 0xFF AND PUSH1 0xB PUSH0 PUSH2 0x100 EXP DUP2 SLOAD DUP2 PUSH4 0xFFFFFFFF MUL NOT AND SWAP1 DUP4 PUSH4 0xFFFFFFFF AND MUL OR SWAP1 SSTORE POP PUSH0 PUSH1 0x7 PUSH0 PUSH2 0x100 EXP DUP2 SLOAD DUP2 PUSH4 0xFFFFFFFF MUL NOT AND SWAP1 DUP4 PUSH4 0xFFFFFFFF AND MUL OR SWAP1 SSTORE POP DUP1 PUSH1 0xC DUP2 SWAP1 SSTORE POP DUP2 PUSH1 0x1 PUSH0 PUSH2 0x100 EXP DUP2 SLOAD DUP2 PUSH20 0xFFFFFFFFFFFFFFFFFFFFFFFFFFFFFFFFFFFFFFFF MUL NOT AND SWAP1 DUP4 PUSH20 0xFFFFFFFFFFFFFFFFFFFFFFFFFFFFFFFFFFFFFFFF AND MUL OR SWAP1 SSTORE POP POP POP POP PUSH3 0x2F7 JUMP JUMPDEST PUSH0 DUP1 REVERT JUMPDEST PUSH0 PUSH20 0xFFFFFFFFFFFFFFFFFFFFFFFFFFFFFFFFFFFFFFFF DUP3 AND SWAP1 POP SWAP2 SWAP1 POP JUMP JUMPDEST PUSH0 PUSH3 0x1C5 DUP3 PUSH3 0x19A JUMP JUMPDEST SWAP1 POP SWAP2 SWAP1 POP JUMP JUMPDEST PUSH3 0x1D7 DUP2 PUSH3 0x1B9 JUMP JUMPDEST DUP2 EQ PUSH3 0x1E2 JUMPI PUSH0 DUP1 REVERT JUMPDEST POP JUMP JUMPDEST PUSH0 DUP2 MLOAD SWAP1 POP PUSH3 0x1F5 DUP2 PUSH3 0x1CC JUMP JUMPDEST SWAP3 SWAP2 POP POP JUMP JUMPDEST PUSH0 DUP2 SWAP1 POP SWAP2 SWAP1 POP JUMP JUMPDEST PUSH3 0x20F DUP2 PUSH3 0x1FB JUMP JUMPDEST DUP2 EQ PUSH3 0x21A JUMPI PUSH0 DUP1 REVERT JUMPDEST POP JUMP JUMPDEST PUSH0 DUP2 MLOAD SWAP1 POP PUSH3 0x22D DUP2 PUSH3 0x204 JUMP JUMPDEST SWAP3 SWAP2 POP POP JUMP JUMPDEST PUSH0 DUP1 PUSH0 PUSH1 0x60 DUP5 DUP7 SUB SLT ISZERO PUSH3 0x24D JUMPI PUSH3 0x24C PUSH3 0x196 JUMP JUMPDEST JUMPDEST PUSH0 PUSH3 0x25C DUP7 DUP3 DUP8 ADD PUSH3 0x1E5 JUMP JUMPDEST SWAP4 POP POP PUSH1 0x20 PUSH3 0x26F DUP7 DUP3 DUP8 ADD PUSH3 0x1E5 JUMP JUMPDEST SWAP3 POP POP PUSH1 0x40 PUSH3 0x282 DUP7 DUP3 DUP8 ADD PUSH3 0x21D JUMP JUMPDEST SWAP2 POP POP SWAP3 POP SWAP3 POP SWAP3 JUMP JUMPDEST PUSH0 PUSH1 0xFF DUP3 AND SWAP1 POP SWAP2 SWAP1 POP JUMP JUMPDEST PUSH3 0x2A3 DUP2 PUSH3 0x28C JUMP JUMPDEST DUP2 EQ PUSH3 0x2AE JUMPI PUSH0 DUP1 REVERT JUMPDEST POP JUMP JUMPDEST PUSH0 DUP2 MLOAD SWAP1 POP PUSH3 0x2C1 DUP2 PUSH3 0x298 JUMP JUMPDEST SWAP3 SWAP2 POP POP JUMP JUMPDEST PUSH0 PUSH1 0x20 DUP3 DUP5 SUB SLT ISZERO PUSH3 0x2DF JUMPI PUSH3 0x2DE PUSH3 0x196 JUMP JUMPDEST JUMPDEST PUSH0 PUSH3 0x2EE DUP5 DUP3 DUP6 ADD PUSH3 0x2B1 JUMP JUMPDEST SWAP2 POP POP SWAP3 SWAP2 POP POP JUMP JUMPDEST PUSH2 0x18EE DUP1 PUSH3 0x305 PUSH0 CODECOPY PUSH0 RETURN INVALID PUSH1 0x80 PUSH1 0x40 MSTORE CALLVALUE DUP1 ISZERO PUSH2 0xF JUMPI PUSH0 DUP1 REVERT JUMPDEST POP PUSH1 0x4 CALLDATASIZE LT PUSH2 0x135 JUMPI PUSH0 CALLDATALOAD PUSH1 0xE0 SHR DUP1 PUSH4 0x76809CE3 GT PUSH2 0xB6 JUMPI DUP1 PUSH4 0xC884EF83 GT PUSH2 0x7A JUMPI DUP1 PUSH4 0xC884EF83 EQ PUSH2 0x351 JUMPI DUP1 PUSH4 0xCDF033F3 EQ PUSH2 0x381 JUMPI DUP1 PUSH4 0xD4C3EEA0 EQ PUSH2 0x39F JUMPI DUP1 PUSH4 0xEB46260E EQ PUSH2 0x3BD JUMPI DUP1 PUSH4 0xEEDA71D5 EQ PUSH2 0x3ED JUMPI DUP1 PUSH4 0xF54F0A8D EQ PUSH2 0x41D JUMPI PUSH2 0x135 JUMP JUMPDEST DUP1 PUSH4 0x76809CE3 EQ PUSH2 0x297 JUMPI DUP1 PUSH4 0x7A19A488 EQ PUSH2 0x2B5 JUMPI DUP1 PUSH4 0x8233FBCB EQ PUSH2 0x2D3 JUMPI DUP1 PUSH4 0xA035B1FE EQ PUSH2 0x303 JUMPI DUP1 PUSH4 0xB9F0BF66 EQ PUSH2 0x321 JUMPI PUSH2 0x135 JUMP JUMPDEST DUP1 PUSH4 0x1AA3A008 GT PUSH2 0xFD JUMPI DUP1 PUSH4 0x1AA3A008 EQ PUSH2 0x203 JUMPI DUP1 PUSH4 0x3013CE29 EQ PUSH2 0x221 JUMPI DUP1 PUSH4 0x480A4262 EQ PUSH2 0x23F JUMPI DUP1 PUSH4 0x4E71D92D EQ PUSH2 0x26F JUMPI DUP1 PUSH4 0x6D1C6041 EQ PUSH2 0x279 JUMPI PUSH2 0x135 JUMP JUMPDEST DUP1 PUSH4 0x7040E91 EQ PUSH2 0x139 JUMPI DUP1 PUSH4 0xEFE6A8B EQ PUSH2 0x169 JUMPI DUP1 PUSH4 0x1161E582 EQ PUSH2 0x185 JUMPI DUP1 PUSH4 0x13DA0777 EQ PUSH2 0x1B5 JUMPI DUP1 PUSH4 0x1A39D8EF EQ PUSH2 0x1E5 JUMPI JUMPDEST PUSH0 DUP1 REVERT JUMPDEST PUSH2 0x153 PUSH1 0x4 DUP1 CALLDATASIZE SUB DUP2 ADD SWAP1 PUSH2 0x14E SWAP2 SWAP1 PUSH2 0x1141 JUMP JUMPDEST PUSH2 0x44F JUMP JUMPDEST PUSH1 0x40 MLOAD PUSH2 0x160 SWAP2 SWAP1 PUSH2 0x1203 JUMP JUMPDEST PUSH1 0x40 MLOAD DUP1 SWAP2 SUB SWAP1 RETURN JUMPDEST PUSH2 0x183 PUSH1 0x4 DUP1 CALLDATASIZE SUB DUP2 ADD SWAP1 PUSH2 0x17E SWAP2 SWAP1 PUSH2 0x1270 JUMP JUMPDEST PUSH2 0x4EE JUMP JUMPDEST STOP JUMPDEST PUSH2 0x19F PUSH1 0x4 DUP1 CALLDATASIZE SUB DUP2 ADD SWAP1 PUSH2 0x19A SWAP2 SWAP1 PUSH2 0x12C0 JUMP JUMPDEST PUSH2 0xA4A JUMP JUMPDEST PUSH1 0x40 MLOAD PUSH2 0x1AC SWAP2 SWAP1 PUSH2 0x12FA JUMP JUMPDEST PUSH1 0x40 MLOAD DUP1 SWAP2 SUB SWAP1 RETURN JUMPDEST PUSH2 0x1CF PUSH1 0x4 DUP1 CALLDATASIZE SUB DUP2 ADD SWAP1 PUSH2 0x1CA SWAP2 SWAP1 PUSH2 0x1313 JUMP JUMPDEST PUSH2 0xA5F JUMP JUMPDEST PUSH1 0x40 MLOAD PUSH2 0x1DC SWAP2 SWAP1 PUSH2 0x12FA JUMP JUMPDEST PUSH1 0x40 MLOAD DUP1 SWAP2 SUB SWAP1 RETURN JUMPDEST PUSH2 0x1ED PUSH2 0xBBF JUMP JUMPDEST PUSH1 0x40 MLOAD PUSH2 0x1FA SWAP2 SWAP1 PUSH2 0x12FA JUMP JUMPDEST PUSH1 0x40 MLOAD DUP1 SWAP2 SUB SWAP1 RETURN JUMPDEST PUSH2 0x20B PUSH2 0xBC5 JUMP JUMPDEST PUSH1 0x40 MLOAD PUSH2 0x218 SWAP2 SWAP1 PUSH2 0x13AC JUMP JUMPDEST PUSH1 0x40 MLOAD DUP1 SWAP2 SUB SWAP1 RETURN JUMPDEST PUSH2 0x229 PUSH2 0xBEA JUMP JUMPDEST PUSH1 0x40 MLOAD PUSH2 0x236 SWAP2 SWAP1 PUSH2 0x13E5 JUMP JUMPDEST PUSH1 0x40 MLOAD DUP1 SWAP2 SUB SWAP1 RETURN JUMPDEST PUSH2 0x259 PUSH1 0x4 DUP1 CALLDATASIZE SUB DUP2 ADD SWAP1 PUSH2 0x254 SWAP2 SWAP1 PUSH2 0x12C0 JUMP JUMPDEST PUSH2 0xC0D JUMP JUMPDEST PUSH1 0x40 MLOAD PUSH2 0x266 SWAP2 SWAP1 PUSH2 0x12FA JUMP JUMPDEST PUSH1 0x40 MLOAD DUP1 SWAP2 SUB SWAP1 RETURN JUMPDEST PUSH2 0x277 PUSH2 0xC1E JUMP JUMPDEST STOP JUMPDEST PUSH2 0x281 PUSH2 0xDD3 JUMP JUMPDEST PUSH1 0x40 MLOAD PUSH2 0x28E SWAP2 SWAP1 PUSH2 0x140D JUMP JUMPDEST PUSH1 0x40 MLOAD DUP1 SWAP2 SUB SWAP1 RETURN JUMPDEST PUSH2 0x29F PUSH2 0xE1E JUMP JUMPDEST PUSH1 0x40 MLOAD PUSH2 0x2AC SWAP2 SWAP1 PUSH2 0x140D JUMP JUMPDEST PUSH1 0x40 MLOAD DUP1 SWAP2 SUB SWAP1 RETURN JUMPDEST PUSH2 0x2BD PUSH2 0xE33 JUMP JUMPDEST PUSH1 0x40 MLOAD PUSH2 0x2CA SWAP2 SWAP1 PUSH2 0x12FA JUMP JUMPDEST PUSH1 0x40 MLOAD DUP1 SWAP2 SUB SWAP1 RETURN JUMPDEST PUSH2 0x2ED PUSH1 0x4 DUP1 CALLDATASIZE SUB DUP2 ADD SWAP1 PUSH2 0x2E8 SWAP2 SWAP1 PUSH2 0x12C0 JUMP JUMPDEST PUSH2 0xE39 JUMP JUMPDEST PUSH1 0x40 MLOAD PUSH2 0x2FA SWAP2 SWAP1 PUSH2 0x12FA JUMP JUMPDEST PUSH1 0x40 MLOAD DUP1 SWAP2 SUB SWAP1 RETURN JUMPDEST PUSH2 0x30B PUSH2 0xE92 JUMP JUMPDEST PUSH1 0x40 MLOAD PUSH2 0x318 SWAP2 SWAP1 PUSH2 0x12FA JUMP JUMPDEST PUSH1 0x40 MLOAD DUP1 SWAP2 SUB SWAP1 RETURN JUMPDEST PUSH2 0x33B PUSH1 0x4 DUP1 CALLDATASIZE SUB DUP2 ADD SWAP1 PUSH2 0x336 SWAP2 SWAP1 PUSH2 0x12C0 JUMP JUMPDEST PUSH2 0xE98 JUMP JUMPDEST PUSH1 0x40 MLOAD PUSH2 0x348 SWAP2 SWAP1 PUSH2 0x12FA JUMP JUMPDEST PUSH1 0x40 MLOAD DUP1 SWAP2 SUB SWAP1 RETURN JUMPDEST PUSH2 0x36B PUSH1 0x4 DUP1 CALLDATASIZE SUB DUP2 ADD SWAP1 PUSH2 0x366 SWAP2 SWAP1 PUSH2 0x12C0 JUMP JUMPDEST PUSH2 0xEAD JUMP JUMPDEST PUSH1 0x40 MLOAD PUSH2 0x378 SWAP2 SWAP1 PUSH2 0x12FA JUMP JUMPDEST PUSH1 0x40 MLOAD DUP1 SWAP2 SUB SWAP1 RETURN JUMPDEST PUSH2 0x389 PUSH2 0xEC2 JUMP JUMPDEST PUSH1 0x40 MLOAD PUSH2 0x396 SWAP2 SWAP1 PUSH2 0x140D JUMP JUMPDEST PUSH1 0x40 MLOAD DUP1 SWAP2 SUB SWAP1 RETURN JUMPDEST PUSH2 0x3A7 PUSH2 0xED7 JUMP JUMPDEST PUSH1 0x40 MLOAD PUSH2 0x3B4 SWAP2 SWAP1 PUSH2 0x12FA JUMP JUMPDEST PUSH1 0x40 MLOAD DUP1 SWAP2 SUB SWAP1 RETURN JUMPDEST PUSH2 0x3D7 PUSH1 0x4 DUP1 CALLDATASIZE SUB DUP2 ADD SWAP1 PUSH2 0x3D2 SWAP2 SWAP1 PUSH2 0x12C0 JUMP JUMPDEST PUSH2 0xEDD JUMP JUMPDEST PUSH1 0x40 MLOAD PUSH2 0x3E4 SWAP2 SWAP1 PUSH2 0x12FA JUMP JUMPDEST PUSH1 0x40 MLOAD DUP1 SWAP2 SUB SWAP1 RETURN JUMPDEST PUSH2 0x407 PUSH1 0x4 DUP1 CALLDATASIZE SUB DUP2 ADD SWAP1 PUSH2 0x402 SWAP2 SWAP1 PUSH2 0x12C0 JUMP JUMPDEST PUSH2 0xF23 JUMP JUMPDEST PUSH1 0x40 MLOAD PUSH2 0x414 SWAP2 SWAP1 PUSH2 0x12FA JUMP JUMPDEST PUSH1 0x40 MLOAD DUP1 SWAP2 SUB SWAP1 RETURN JUMPDEST PUSH2 0x437 PUSH1 0x4 DUP1 CALLDATASIZE SUB DUP2 ADD SWAP1 PUSH2 0x432 SWAP2 SWAP1 PUSH2 0x1141 JUMP JUMPDEST PUSH2 0xF38 JUMP JUMPDEST PUSH1 0x40 MLOAD PUSH2 0x446 SWAP4 SWAP3 SWAP2 SWAP1 PUSH2 0x1435 JUMP JUMPDEST PUSH1 0x40 MLOAD DUP1 SWAP2 SUB SWAP1 RETURN JUMPDEST PUSH2 0x457 PUSH2 0x10D0 JUMP JUMPDEST PUSH1 0x6 PUSH0 DUP4 PUSH4 0xFFFFFFFF AND PUSH4 0xFFFFFFFF AND DUP2 MSTORE PUSH1 0x20 ADD SWAP1 DUP2 MSTORE PUSH1 0x20 ADD PUSH0 KECCAK256 PUSH1 0x40 MLOAD DUP1 PUSH1 0x60 ADD PUSH1 0x40 MSTORE SWAP1 DUP2 PUSH0 DUP3 ADD PUSH0 SWAP1 SLOAD SWAP1 PUSH2 0x100 EXP SWAP1 DIV PUSH20 0xFFFFFFFFFFFFFFFFFFFFFFFFFFFFFFFFFFFFFFFF AND PUSH20 0xFFFFFFFFFFFFFFFFFFFFFFFFFFFFFFFFFFFFFFFF AND PUSH20 0xFFFFFFFFFFFFFFFFFFFFFFFFFFFFFFFFFFFFFFFF AND DUP2 MSTORE PUSH1 0x20 ADD PUSH1 0x1 DUP3 ADD SLOAD DUP2 MSTORE PUSH1 0x20 ADD PUSH1 0x2 DUP3 ADD SLOAD DUP2 MSTORE POP POP SWAP1 POP SWAP2 SWAP1 POP JUMP JUMPDEST PUSH1 0x1 PUSH0 SWAP1 SLOAD SWAP1 PUSH2 0x100 EXP SWAP1 DIV PUSH20 0xFFFFFFFFFFFFFFFFFFFFFFFFFFFFFFFFFFFFFFFF AND PUSH20 0xFFFFFFFFFFFFFFFFFFFFFFFFFFFFFFFFFFFFFFFF AND PUSH4 0x12D9A6AD PUSH1 0x1 PUSH0 SWAP1 SLOAD SWAP1 PUSH2 0x100 EXP SWAP1 DIV PUSH20 0xFFFFFFFFFFFFFFFFFFFFFFFFFFFFFFFFFFFFFFFF AND PUSH20 0xFFFFFFFFFFFFFFFFFFFFFFFFFFFFFFFFFFFFFFFF AND PUSH4 0xF46F16C2 PUSH1 0x40 MLOAD DUP2 PUSH4 0xFFFFFFFF AND PUSH1 0xE0 SHL DUP2 MSTORE PUSH1 0x4 ADD PUSH1 0x20 PUSH1 0x40 MLOAD DUP1 DUP4 SUB DUP2 DUP7 GAS STATICCALL ISZERO DUP1 ISZERO PUSH2 0x595 JUMPI RETURNDATASIZE PUSH0 DUP1 RETURNDATACOPY RETURNDATASIZE PUSH0 REVERT JUMPDEST POP POP POP POP PUSH1 0x40 MLOAD RETURNDATASIZE PUSH1 0x1F NOT PUSH1 0x1F DUP3 ADD AND DUP3 ADD DUP1 PUSH1 0x40 MSTORE POP DUP2 ADD SWAP1 PUSH2 0x5B9 SWAP2 SWAP1 PUSH2 0x149D JUMP JUMPDEST CALLER PUSH1 0x40 MLOAD DUP4 PUSH4 0xFFFFFFFF AND PUSH1 0xE0 SHL DUP2 MSTORE PUSH1 0x4 ADD PUSH2 0x5D7 SWAP3 SWAP2 SWAP1 PUSH2 0x14D7 JUMP JUMPDEST PUSH0 PUSH1 0x40 MLOAD DUP1 DUP4 SUB DUP2 DUP7 DUP1 EXTCODESIZE ISZERO DUP1 ISZERO PUSH2 0x5ED JUMPI PUSH0 DUP1 REVERT JUMPDEST POP GAS STATICCALL ISZERO DUP1 ISZERO PUSH2 0x5FF JUMPI RETURNDATASIZE PUSH0 DUP1 RETURNDATACOPY RETURNDATASIZE PUSH0 REVERT JUMPDEST POP POP POP POP PUSH0 PUSH20 0xFFFFFFFFFFFFFFFFFFFFFFFFFFFFFFFFFFFFFFFF AND DUP4 PUSH20 0xFFFFFFFFFFFFFFFFFFFFFFFFFFFFFFFFFFFFFFFF AND SUB PUSH2 0x668 JUMPI PUSH1 0x40 MLOAD PUSH32 0xE6C4247B00000000000000000000000000000000000000000000000000000000 DUP2 MSTORE PUSH1 0x4 ADD PUSH1 0x40 MLOAD DUP1 SWAP2 SUB SWAP1 REVERT JUMPDEST PUSH0 DUP3 SUB PUSH2 0x6A1 JUMPI PUSH1 0x40 MLOAD PUSH32 0xAA7FEADC00000000000000000000000000000000000000000000000000000000 DUP2 MSTORE PUSH1 0x4 ADD PUSH1 0x40 MLOAD DUP1 SWAP2 SUB SWAP1 REVERT JUMPDEST PUSH0 DUP2 SUB PUSH2 0x6DA JUMPI PUSH1 0x40 MLOAD PUSH32 0x2C5211C600000000000000000000000000000000000000000000000000000000 DUP2 MSTORE PUSH1 0x4 ADD PUSH1 0x40 MLOAD DUP1 SWAP2 SUB SWAP1 REVERT JUMPDEST PUSH1 0xB PUSH0 SWAP1 SLOAD SWAP1 PUSH2 0x100 EXP SWAP1 DIV PUSH4 0xFFFFFFFF AND PUSH1 0xA PUSH2 0x6F8 SWAP2 SWAP1 PUSH2 0x165A JUMP JUMPDEST PUSH1 0x3 PUSH0 DUP6 PUSH20 0xFFFFFFFFFFFFFFFFFFFFFFFFFFFFFFFFFFFFFFFF AND PUSH20 0xFFFFFFFFFFFFFFFFFFFFFFFFFFFFFFFFFFFFFFFF AND DUP2 MSTORE PUSH1 0x20 ADD SWAP1 DUP2 MSTORE PUSH1 0x20 ADD PUSH0 KECCAK256 SLOAD PUSH1 0xA SLOAD PUSH2 0x743 SWAP2 SWAP1 PUSH2 0x16A4 JUMP JUMPDEST PUSH1 0x2 PUSH0 DUP7 PUSH20 0xFFFFFFFFFFFFFFFFFFFFFFFFFFFFFFFFFFFFFFFF AND PUSH20 0xFFFFFFFFFFFFFFFFFFFFFFFFFFFFFFFFFFFFFFFF AND DUP2 MSTORE PUSH1 0x20 ADD SWAP1 DUP2 MSTORE PUSH1 0x20 ADD PUSH0 KECCAK256 SLOAD PUSH2 0x78B SWAP2 SWAP1 PUSH2 0x16D7 JUMP JUMPDEST PUSH2 0x795 SWAP2 SWAP1 PUSH2 0x1745 JUMP JUMPDEST PUSH1 0x4 PUSH0 DUP6 PUSH20 0xFFFFFFFFFFFFFFFFFFFFFFFFFFFFFFFFFFFFFFFF AND PUSH20 0xFFFFFFFFFFFFFFFFFFFFFFFFFFFFFFFFFFFFFFFF AND DUP2 MSTORE PUSH1 0x20 ADD SWAP1 DUP2 MSTORE PUSH1 0x20 ADD PUSH0 KECCAK256 PUSH0 DUP3 DUP3 SLOAD PUSH2 0x7E0 SWAP2 SWAP1 PUSH2 0x1775 JUMP JUMPDEST SWAP3 POP POP DUP2 SWAP1 SSTORE POP DUP2 PUSH1 0x9 PUSH0 DUP3 DUP3 SLOAD PUSH2 0x7F8 SWAP2 SWAP1 PUSH2 0x1775 JUMP JUMPDEST SWAP3 POP POP DUP2 SWAP1 SSTORE POP PUSH1 0xA SLOAD PUSH1 0x3 PUSH0 DUP6 PUSH20 0xFFFFFFFFFFFFFFFFFFFFFFFFFFFFFFFFFFFFFFFF AND PUSH20 0xFFFFFFFFFFFFFFFFFFFFFFFFFFFFFFFFFFFFFFFF AND DUP2 MSTORE PUSH1 0x20 ADD SWAP1 DUP2 MSTORE PUSH1 0x20 ADD PUSH0 KECCAK256 DUP2 SWAP1 SSTORE POP DUP1 PUSH1 0x2 PUSH0 DUP6 PUSH20 0xFFFFFFFFFFFFFFFFFFFFFFFFFFFFFFFFFFFFFFFF AND PUSH20 0xFFFFFFFFFFFFFFFFFFFFFFFFFFFFFFFFFFFFFFFF AND DUP2 MSTORE PUSH1 0x20 ADD SWAP1 DUP2 MSTORE PUSH1 0x20 ADD PUSH0 KECCAK256 PUSH0 DUP3 DUP3 SLOAD PUSH2 0x88F SWAP2 SWAP1 PUSH2 0x1775 JUMP JUMPDEST SWAP3 POP POP DUP2 SWAP1 SSTORE POP DUP1 PUSH1 0x8 PUSH0 DUP3 DUP3 SLOAD PUSH2 0x8A7 SWAP2 SWAP1 PUSH2 0x1775 JUMP JUMPDEST SWAP3 POP POP DUP2 SWAP1 SSTORE POP PUSH1 0x8 SLOAD PUSH1 0xB PUSH0 SWAP1 SLOAD SWAP1 PUSH2 0x100 EXP SWAP1 DIV PUSH4 0xFFFFFFFF AND PUSH1 0xA PUSH2 0x8CF SWAP2 SWAP1 PUSH2 0x165A JUMP JUMPDEST DUP4 PUSH2 0x8DA SWAP2 SWAP1 PUSH2 0x16D7 JUMP JUMPDEST PUSH2 0x8E4 SWAP2 SWAP1 PUSH2 0x1745 JUMP JUMPDEST PUSH1 0xA PUSH0 DUP3 DUP3 SLOAD PUSH2 0x8F4 SWAP2 SWAP1 PUSH2 0x1775 JUMP JUMPDEST SWAP3 POP POP DUP2 SWAP1 SSTORE POP PUSH1 0x40 MLOAD DUP1 PUSH1 0x60 ADD PUSH1 0x40 MSTORE DUP1 DUP5 PUSH20 0xFFFFFFFFFFFFFFFFFFFFFFFFFFFFFFFFFFFFFFFF AND DUP2 MSTORE PUSH1 0x20 ADD DUP4 DUP2 MSTORE PUSH1 0x20 ADD DUP3 DUP2 MSTORE POP PUSH1 0x6 PUSH0 PUSH1 0x7 PUSH0 SWAP1 SLOAD SWAP1 PUSH2 0x100 EXP SWAP1 DIV PUSH4 0xFFFFFFFF AND PUSH4 0xFFFFFFFF AND PUSH4 0xFFFFFFFF AND DUP2 MSTORE PUSH1 0x20 ADD SWAP1 DUP2 MSTORE PUSH1 0x20 ADD PUSH0 KECCAK256 PUSH0 DUP3 ADD MLOAD DUP2 PUSH0 ADD PUSH0 PUSH2 0x100 EXP DUP2 SLOAD DUP2 PUSH20 0xFFFFFFFFFFFFFFFFFFFFFFFFFFFFFFFFFFFFFFFF MUL NOT AND SWAP1 DUP4 PUSH20 0xFFFFFFFFFFFFFFFFFFFFFFFFFFFFFFFFFFFFFFFF AND MUL OR SWAP1 SSTORE POP PUSH1 0x20 DUP3 ADD MLOAD DUP2 PUSH1 0x1 ADD SSTORE PUSH1 0x40 DUP3 ADD MLOAD DUP2 PUSH1 0x2 ADD SSTORE SWAP1 POP POP PUSH1 0x7 PUSH0 DUP2 DUP2 SWAP1 SLOAD SWAP1 PUSH2 0x100 EXP SWAP1 DIV PUSH4 0xFFFFFFFF AND DUP1 SWAP3 SWAP2 SWAP1 PUSH2 0x9D6 SWAP1 PUSH2 0x17A8 JUMP JUMPDEST SWAP2 SWAP1 PUSH2 0x100 EXP DUP2 SLOAD DUP2 PUSH4 0xFFFFFFFF MUL NOT AND SWAP1 DUP4 PUSH4 0xFFFFFFFF AND MUL OR SWAP1 SSTORE POP POP DUP3 PUSH20 0xFFFFFFFFFFFFFFFFFFFFFFFFFFFFFFFFFFFFFFFF AND PUSH32 0xF0D29B5D4CEBE99E2C93FFEC39876A8B37C77BA767270F4F489DAEDE43AEA4E DUP4 DUP4 PUSH1 0x40 MLOAD PUSH2 0xA3D SWAP3 SWAP2 SWAP1 PUSH2 0x17D3 JUMP JUMPDEST PUSH1 0x40 MLOAD DUP1 SWAP2 SUB SWAP1 LOG2 POP POP POP JUMP JUMPDEST PUSH1 0x4 PUSH1 0x20 MSTORE DUP1 PUSH0 MSTORE PUSH1 0x40 PUSH0 KECCAK256 PUSH0 SWAP2 POP SWAP1 POP SLOAD DUP2 JUMP JUMPDEST PUSH0 DUP1 PUSH20 0xFFFFFFFFFFFFFFFFFFFFFFFFFFFFFFFFFFFFFFFF AND DUP4 PUSH20 0xFFFFFFFFFFFFFFFFFFFFFFFFFFFFFFFFFFFFFFFF AND SUB PUSH2 0xAC5 JUMPI PUSH1 0x40 MLOAD PUSH32 0xE6C4247B00000000000000000000000000000000000000000000000000000000 DUP2 MSTORE PUSH1 0x4 ADD PUSH1 0x40 MLOAD DUP1 SWAP2 SUB SWAP1 REVERT JUMPDEST PUSH0 DUP3 PUSH1 0x2 PUSH0 DUP7 PUSH20 0xFFFFFFFFFFFFFFFFFFFFFFFFFFFFFFFFFFFFFFFF AND PUSH20 0xFFFFFFFFFFFFFFFFFFFFFFFFFFFFFFFFFFFFFFFF AND DUP2 MSTORE PUSH1 0x20 ADD SWAP1 DUP2 MSTORE PUSH1 0x20 ADD PUSH0 KECCAK256 SLOAD PUSH2 0xB0F SWAP2 SWAP1 PUSH2 0x1775 JUMP JUMPDEST SWAP1 POP PUSH0 DUP4 PUSH1 0x8 SLOAD PUSH2 0xB20 SWAP2 SWAP1 PUSH2 0x1775 JUMP JUMPDEST SUB PUSH2 0xB2E JUMPI PUSH0 SWAP2 POP POP PUSH2 0xBB9 JUMP JUMPDEST PUSH0 DUP4 PUSH1 0x8 SLOAD PUSH2 0xB3D SWAP2 SWAP1 PUSH2 0x1775 JUMP JUMPDEST PUSH1 0xB PUSH0 SWAP1 SLOAD SWAP1 PUSH2 0x100 EXP SWAP1 DIV PUSH4 0xFFFFFFFF AND PUSH1 0xA PUSH2 0xB5B SWAP2 SWAP1 PUSH2 0x165A JUMP JUMPDEST DUP4 PUSH2 0xB66 SWAP2 SWAP1 PUSH2 0x16D7 JUMP JUMPDEST PUSH2 0xB70 SWAP2 SWAP1 PUSH2 0x1745 JUMP JUMPDEST SWAP1 POP PUSH1 0xB PUSH0 SWAP1 SLOAD SWAP1 PUSH2 0x100 EXP SWAP1 DIV PUSH4 0xFFFFFFFF AND PUSH1 0xA PUSH2 0xB90 SWAP2 SWAP1 PUSH2 0x165A JUMP JUMPDEST PUSH1 0xA PUSH1 0xC SLOAD PUSH2 0xB9F SWAP2 SWAP1 PUSH2 0x1745 JUMP JUMPDEST DUP3 PUSH2 0xBAA SWAP2 SWAP1 PUSH2 0x16D7 JUMP JUMPDEST PUSH2 0xBB4 SWAP2 SWAP1 PUSH2 0x1745 JUMP JUMPDEST SWAP3 POP POP POP JUMPDEST SWAP3 SWAP2 POP POP JUMP JUMPDEST PUSH1 0x8 SLOAD DUP2 JUMP JUMPDEST PUSH1 0x1 PUSH0 SWAP1 SLOAD SWAP1 PUSH2 0x100 EXP SWAP1 DIV PUSH20 0xFFFFFFFFFFFFFFFFFFFFFFFFFFFFFFFFFFFFFFFF AND DUP2 JUMP JUMPDEST PUSH0 DUP1 SLOAD SWAP1 PUSH2 0x100 EXP SWAP1 DIV PUSH20 0xFFFFFFFFFFFFFFFFFFFFFFFFFFFFFFFFFFFFFFFF AND DUP2 JUMP JUMPDEST PUSH0 PUSH2 0xC17 DUP3 PUSH2 0xF7D JUMP JUMPDEST SWAP1 POP SWAP2 SWAP1 POP JUMP JUMPDEST PUSH0 CALLER SWAP1 POP PUSH0 PUSH20 0xFFFFFFFFFFFFFFFFFFFFFFFFFFFFFFFFFFFFFFFF AND DUP2 PUSH20 0xFFFFFFFFFFFFFFFFFFFFFFFFFFFFFFFFFFFFFFFF AND SUB PUSH2 0xC87 JUMPI PUSH1 0x40 MLOAD PUSH32 0xE6C4247B00000000000000000000000000000000000000000000000000000000 DUP2 MSTORE PUSH1 0x4 ADD PUSH1 0x40 MLOAD DUP1 SWAP2 SUB SWAP1 REVERT JUMPDEST PUSH0 PUSH2 0xC91 DUP3 PUSH2 0xF7D JUMP JUMPDEST SWAP1 POP PUSH0 DUP1 SLOAD SWAP1 PUSH2 0x100 EXP SWAP1 DIV PUSH20 0xFFFFFFFFFFFFFFFFFFFFFFFFFFFFFFFFFFFFFFFF AND PUSH20 0xFFFFFFFFFFFFFFFFFFFFFFFFFFFFFFFFFFFFFFFF AND PUSH4 0xA9059CBB DUP4 DUP4 PUSH1 0x40 MLOAD DUP4 PUSH4 0xFFFFFFFF AND PUSH1 0xE0 SHL DUP2 MSTORE PUSH1 0x4 ADD PUSH2 0xCED SWAP3 SWAP2 SWAP1 PUSH2 0x17FA JUMP JUMPDEST PUSH1 0x20 PUSH1 0x40 MLOAD DUP1 DUP4 SUB DUP2 PUSH0 DUP8 GAS CALL ISZERO DUP1 ISZERO PUSH2 0xD09 JUMPI RETURNDATASIZE PUSH0 DUP1 RETURNDATACOPY RETURNDATASIZE PUSH0 REVERT JUMPDEST POP POP POP POP PUSH1 0x40 MLOAD RETURNDATASIZE PUSH1 0x1F NOT PUSH1 0x1F DUP3 ADD AND DUP3 ADD DUP1 PUSH1 0x40 MSTORE POP DUP2 ADD SWAP1 PUSH2 0xD2D SWAP2 SWAP1 PUSH2 0x1856 JUMP JUMPDEST POP DUP1 PUSH1 0x5 PUSH0 DUP5 PUSH20 0xFFFFFFFFFFFFFFFFFFFFFFFFFFFFFFFFFFFFFFFF AND PUSH20 0xFFFFFFFFFFFFFFFFFFFFFFFFFFFFFFFFFFFFFFFF AND DUP2 MSTORE PUSH1 0x20 ADD SWAP1 DUP2 MSTORE PUSH1 0x20 ADD PUSH0 KECCAK256 PUSH0 DUP3 DUP3 SLOAD PUSH2 0xD7A SWAP2 SWAP1 PUSH2 0x1775 JUMP JUMPDEST SWAP3 POP POP DUP2 SWAP1 SSTORE POP DUP2 PUSH20 0xFFFFFFFFFFFFFFFFFFFFFFFFFFFFFFFFFFFFFFFF AND PUSH32 0x3488C34059D2E654B3B166B5EC4EE17BBD37297B906D39C704104A7DC2459B31 DUP3 PUSH1 0x40 MLOAD PUSH2 0xDC7 SWAP2 SWAP1 PUSH2 0x12FA JUMP JUMPDEST PUSH1 0x40 MLOAD DUP1 SWAP2 SUB SWAP1 LOG2 POP POP JUMP JUMPDEST PUSH0 DUP1 PUSH1 0x7 PUSH0 SWAP1 SLOAD SWAP1 PUSH2 0x100 EXP SWAP1 DIV PUSH4 0xFFFFFFFF AND PUSH4 0xFFFFFFFF AND SUB PUSH2 0xDFA JUMPI PUSH0 SWAP1 POP PUSH2 0xE1B JUMP JUMPDEST PUSH1 0x1 PUSH1 0x7 PUSH0 SWAP1 SLOAD SWAP1 PUSH2 0x100 EXP SWAP1 DIV PUSH4 0xFFFFFFFF AND PUSH2 0xE18 SWAP2 SWAP1 PUSH2 0x1881 JUMP JUMPDEST SWAP1 POP JUMPDEST SWAP1 JUMP JUMPDEST PUSH1 0xB PUSH0 SWAP1 SLOAD SWAP1 PUSH2 0x100 EXP SWAP1 DIV PUSH4 0xFFFFFFFF AND DUP2 JUMP JUMPDEST PUSH1 0xA SLOAD DUP2 JUMP JUMPDEST PUSH0 PUSH2 0xE43 DUP3 PUSH2 0xF7D JUMP JUMPDEST PUSH1 0x5 PUSH0 DUP5 PUSH20 0xFFFFFFFFFFFFFFFFFFFFFFFFFFFFFFFFFFFFFFFF AND PUSH20 0xFFFFFFFFFFFFFFFFFFFFFFFFFFFFFFFFFFFFFFFF AND DUP2 MSTORE PUSH1 0x20 ADD SWAP1 DUP2 MSTORE PUSH1 0x20 ADD PUSH0 KECCAK256 SLOAD PUSH2 0xE8B SWAP2 SWAP1 PUSH2 0x1775 JUMP JUMPDEST SWAP1 POP SWAP2 SWAP1 POP JUMP JUMPDEST PUSH1 0xC SLOAD DUP2 JUMP JUMPDEST PUSH1 0x2 PUSH1 0x20 MSTORE DUP1 PUSH0 MSTORE PUSH1 0x40 PUSH0 KECCAK256 PUSH0 SWAP2 POP SWAP1 POP SLOAD DUP2 JUMP JUMPDEST PUSH1 0x5 PUSH1 0x20 MSTORE DUP1 PUSH0 MSTORE PUSH1 0x40 PUSH0 KECCAK256 PUSH0 SWAP2 POP SWAP1 POP SLOAD DUP2 JUMP JUMPDEST PUSH1 0x7 PUSH0 SWAP1 SLOAD SWAP1 PUSH2 0x100 EXP SWAP1 DIV PUSH4 0xFFFFFFFF AND DUP2 JUMP JUMPDEST PUSH1 0x9 SLOAD DUP2 JUMP JUMPDEST PUSH0 PUSH1 0x5 PUSH0 DUP4 PUSH20 0xFFFFFFFFFFFFFFFFFFFFFFFFFFFFFFFFFFFFFFFF AND PUSH20 0xFFFFFFFFFFFFFFFFFFFFFFFFFFFFFFFFFFFFFFFF AND DUP2 MSTORE PUSH1 0x20 ADD SWAP1 DUP2 MSTORE PUSH1 0x20 ADD PUSH0 KECCAK256 SLOAD SWAP1 POP SWAP2 SWAP1 POP JUMP JUMPDEST PUSH1 0x3 PUSH1 0x20 MSTORE DUP1 PUSH0 MSTORE PUSH1 0x40 PUSH0 KECCAK256 PUSH0 SWAP2 POP SWAP1 POP SLOAD DUP2 JUMP JUMPDEST PUSH1 0x6 PUSH1 0x20 MSTORE DUP1 PUSH0 MSTORE PUSH1 0x40 PUSH0 KECCAK256 PUSH0 SWAP2 POP SWAP1 POP DUP1 PUSH0 ADD PUSH0 SWAP1 SLOAD SWAP1 PUSH2 0x100 EXP SWAP1 DIV PUSH20 0xFFFFFFFFFFFFFFFFFFFFFFFFFFFFFFFFFFFFFFFF AND SWAP1 DUP1 PUSH1 0x1 ADD SLOAD SWAP1 DUP1 PUSH1 0x2 ADD SLOAD SWAP1 POP DUP4 JUMP JUMPDEST PUSH0 PUSH1 0x5 PUSH0 DUP4 PUSH20 0xFFFFFFFFFFFFFFFFFFFFFFFFFFFFFFFFFFFFFFFF AND PUSH20 0xFFFFFFFFFFFFFFFFFFFFFFFFFFFFFFFFFFFFFFFF AND DUP2 MSTORE PUSH1 0x20 ADD SWAP1 DUP2 MSTORE PUSH1 0x20 ADD PUSH0 KECCAK256 SLOAD PUSH1 0xB PUSH0 SWAP1 SLOAD SWAP1 PUSH2 0x100 EXP SWAP1 DIV PUSH4 0xFFFFFFFF AND PUSH1 0xA PUSH2 0xFDA SWAP2 SWAP1 PUSH2 0x165A JUMP JUMPDEST PUSH1 0x3 PUSH0 DUP6 PUSH20 0xFFFFFFFFFFFFFFFFFFFFFFFFFFFFFFFFFFFFFFFF AND PUSH20 0xFFFFFFFFFFFFFFFFFFFFFFFFFFFFFFFFFFFFFFFF AND DUP2 MSTORE PUSH1 0x20 ADD SWAP1 DUP2 MSTORE PUSH1 0x20 ADD PUSH0 KECCAK256 SLOAD PUSH1 0xA SLOAD PUSH2 0x1025 SWAP2 SWAP1 PUSH2 0x16A4 JUMP JUMPDEST PUSH1 0x2 PUSH0 DUP7 PUSH20 0xFFFFFFFFFFFFFFFFFFFFFFFFFFFFFFFFFFFFFFFF AND PUSH20 0xFFFFFFFFFFFFFFFFFFFFFFFFFFFFFFFFFFFFFFFF AND DUP2 MSTORE PUSH1 0x20 ADD SWAP1 DUP2 MSTORE PUSH1 0x20 ADD PUSH0 KECCAK256 SLOAD PUSH2 0x106D SWAP2 SWAP1 PUSH2 0x16D7 JUMP JUMPDEST PUSH2 0x1077 SWAP2 SWAP1 PUSH2 0x1745 JUMP JUMPDEST PUSH1 0x4 PUSH0 DUP6 PUSH20 0xFFFFFFFFFFFFFFFFFFFFFFFFFFFFFFFFFFFFFFFF AND PUSH20 0xFFFFFFFFFFFFFFFFFFFFFFFFFFFFFFFFFFFFFFFF AND DUP2 MSTORE PUSH1 0x20 ADD SWAP1 DUP2 MSTORE PUSH1 0x20 ADD PUSH0 KECCAK256 SLOAD PUSH2 0x10BF SWAP2 SWAP1 PUSH2 0x1775 JUMP JUMPDEST PUSH2 0x10C9 SWAP2 SWAP1 PUSH2 0x16A4 JUMP JUMPDEST SWAP1 POP SWAP2 SWAP1 POP JUMP JUMPDEST PUSH1 0x40 MLOAD DUP1 PUSH1 0x60 ADD PUSH1 0x40 MSTORE DUP1 PUSH0 PUSH20 0xFFFFFFFFFFFFFFFFFFFFFFFFFFFFFFFFFFFFFFFF AND DUP2 MSTORE PUSH1 0x20 ADD PUSH0 DUP2 MSTORE PUSH1 0x20 ADD PUSH0 DUP2 MSTORE POP SWAP1 JUMP JUMPDEST PUSH0 DUP1 REVERT JUMPDEST PUSH0 PUSH4 0xFFFFFFFF DUP3 AND SWAP1 POP SWAP2 SWAP1 POP JUMP JUMPDEST PUSH2 0x1120 DUP2 PUSH2 0x1108 JUMP JUMPDEST DUP2 EQ PUSH2 0x112A JUMPI PUSH0 DUP1 REVERT JUMPDEST POP JUMP JUMPDEST PUSH0 DUP2 CALLDATALOAD SWAP1 POP PUSH2 0x113B DUP2 PUSH2 0x1117 JUMP JUMPDEST SWAP3 SWAP2 POP POP JUMP JUMPDEST PUSH0 PUSH1 0x20 DUP3 DUP5 SUB SLT ISZERO PUSH2 0x1156 JUMPI PUSH2 0x1155 PUSH2 0x1104 JUMP JUMPDEST JUMPDEST PUSH0 PUSH2 0x1163 DUP5 DUP3 DUP6 ADD PUSH2 0x112D JUMP JUMPDEST SWAP2 POP POP SWAP3 SWAP2 POP POP JUMP JUMPDEST PUSH0 PUSH20 0xFFFFFFFFFFFFFFFFFFFFFFFFFFFFFFFFFFFFFFFF DUP3 AND SWAP1 POP SWAP2 SWAP1 POP JUMP JUMPDEST PUSH0 PUSH2 0x1195 DUP3 PUSH2 0x116C JUMP JUMPDEST SWAP1 POP SWAP2 SWAP1 POP JUMP JUMPDEST PUSH2 0x11A5 DUP2 PUSH2 0x118B JUMP JUMPDEST DUP3 MSTORE POP POP JUMP JUMPDEST PUSH0 DUP2 SWAP1 POP SWAP2 SWAP1 POP JUMP JUMPDEST PUSH2 0x11BD DUP2 PUSH2 0x11AB JUMP JUMPDEST DUP3 MSTORE POP POP JUMP JUMPDEST PUSH1 0x60 DUP3 ADD PUSH0 DUP3 ADD MLOAD PUSH2 0x11D7 PUSH0 DUP6 ADD DUP3 PUSH2 0x119C JUMP JUMPDEST POP PUSH1 0x20 DUP3 ADD MLOAD PUSH2 0x11EA PUSH1 0x20 DUP6 ADD DUP3 PUSH2 0x11B4 JUMP JUMPDEST POP PUSH1 0x40 DUP3 ADD MLOAD PUSH2 0x11FD PUSH1 0x40 DUP6 ADD DUP3 PUSH2 0x11B4 JUMP JUMPDEST POP POP POP POP JUMP JUMPDEST PUSH0 PUSH1 0x60 DUP3 ADD SWAP1 POP PUSH2 0x1216 PUSH0 DUP4 ADD DUP5 PUSH2 0x11C3 JUMP JUMPDEST SWAP3 SWAP2 POP POP JUMP JUMPDEST PUSH2 0x1225 DUP2 PUSH2 0x118B JUMP JUMPDEST DUP2 EQ PUSH2 0x122F JUMPI PUSH0 DUP1 REVERT JUMPDEST POP JUMP JUMPDEST PUSH0 DUP2 CALLDATALOAD SWAP1 POP PUSH2 0x1240 DUP2 PUSH2 0x121C JUMP JUMPDEST SWAP3 SWAP2 POP POP JUMP JUMPDEST PUSH2 0x124F DUP2 PUSH2 0x11AB JUMP JUMPDEST DUP2 EQ PUSH2 0x1259 JUMPI PUSH0 DUP1 REVERT JUMPDEST POP JUMP JUMPDEST PUSH0 DUP2 CALLDATALOAD SWAP1 POP PUSH2 0x126A DUP2 PUSH2 0x1246 JUMP JUMPDEST SWAP3 SWAP2 POP POP JUMP JUMPDEST PUSH0 DUP1 PUSH0 PUSH1 0x60 DUP5 DUP7 SUB SLT ISZERO PUSH2 0x1287 JUMPI PUSH2 0x1286 PUSH2 0x1104 JUMP JUMPDEST JUMPDEST PUSH0 PUSH2 0x1294 DUP7 DUP3 DUP8 ADD PUSH2 0x1232 JUMP JUMPDEST SWAP4 POP POP PUSH1 0x20 PUSH2 0x12A5 DUP7 DUP3 DUP8 ADD PUSH2 0x125C JUMP JUMPDEST SWAP3 POP POP PUSH1 0x40 PUSH2 0x12B6 DUP7 DUP3 DUP8 ADD PUSH2 0x125C JUMP JUMPDEST SWAP2 POP POP SWAP3 POP SWAP3 POP SWAP3 JUMP JUMPDEST PUSH0 PUSH1 0x20 DUP3 DUP5 SUB SLT ISZERO PUSH2 0x12D5 JUMPI PUSH2 0x12D4 PUSH2 0x1104 JUMP JUMPDEST JUMPDEST PUSH0 PUSH2 0x12E2 DUP5 DUP3 DUP6 ADD PUSH2 0x1232 JUMP JUMPDEST SWAP2 POP POP SWAP3 SWAP2 POP POP JUMP JUMPDEST PUSH2 0x12F4 DUP2 PUSH2 0x11AB JUMP JUMPDEST DUP3 MSTORE POP POP JUMP JUMPDEST PUSH0 PUSH1 0x20 DUP3 ADD SWAP1 POP PUSH2 0x130D PUSH0 DUP4 ADD DUP5 PUSH2 0x12EB JUMP JUMPDEST SWAP3 SWAP2 POP POP JUMP JUMPDEST PUSH0 DUP1 PUSH1 0x40 DUP4 DUP6 SUB SLT ISZERO PUSH2 0x1329 JUMPI PUSH2 0x1328 PUSH2 0x1104 JUMP JUMPDEST JUMPDEST PUSH0 PUSH2 0x1336 DUP6 DUP3 DUP7 ADD PUSH2 0x1232 JUMP JUMPDEST SWAP3 POP POP PUSH1 0x20 PUSH2 0x1347 DUP6 DUP3 DUP7 ADD PUSH2 0x125C JUMP JUMPDEST SWAP2 POP POP SWAP3 POP SWAP3 SWAP1 POP JUMP JUMPDEST PUSH0 DUP2 SWAP1 POP SWAP2 SWAP1 POP JUMP JUMPDEST PUSH0 PUSH2 0x1374 PUSH2 0x136F PUSH2 0x136A DUP5 PUSH2 0x116C JUMP JUMPDEST PUSH2 0x1351 JUMP JUMPDEST PUSH2 0x116C JUMP JUMPDEST SWAP1 POP SWAP2 SWAP1 POP JUMP JUMPDEST PUSH0 PUSH2 0x1385 DUP3 PUSH2 0x135A JUMP JUMPDEST SWAP1 POP SWAP2 SWAP1 POP JUMP JUMPDEST PUSH0 PUSH2 0x1396 DUP3 PUSH2 0x137B JUMP JUMPDEST SWAP1 POP SWAP2 SWAP1 POP JUMP JUMPDEST PUSH2 0x13A6 DUP2 PUSH2 0x138C JUMP JUMPDEST DUP3 MSTORE POP POP JUMP JUMPDEST PUSH0 PUSH1 0x20 DUP3 ADD SWAP1 POP PUSH2 0x13BF PUSH0 DUP4 ADD DUP5 PUSH2 0x139D JUMP JUMPDEST SWAP3 SWAP2 POP POP JUMP JUMPDEST PUSH0 PUSH2 0x13CF DUP3 PUSH2 0x137B JUMP JUMPDEST SWAP1 POP SWAP2 SWAP1 POP JUMP JUMPDEST PUSH2 0x13DF DUP2 PUSH2 0x13C5 JUMP JUMPDEST DUP3 MSTORE POP POP JUMP JUMPDEST PUSH0 PUSH1 0x20 DUP3 ADD SWAP1 POP PUSH2 0x13F8 PUSH0 DUP4 ADD DUP5 PUSH2 0x13D6 JUMP JUMPDEST SWAP3 SWAP2 POP POP JUMP JUMPDEST PUSH2 0x1407 DUP2 PUSH2 0x1108 JUMP JUMPDEST DUP3 MSTORE POP POP JUMP JUMPDEST PUSH0 PUSH1 0x20 DUP3 ADD SWAP1 POP PUSH2 0x1420 PUSH0 DUP4 ADD DUP5 PUSH2 0x13FE JUMP JUMPDEST SWAP3 SWAP2 POP POP JUMP JUMPDEST PUSH2 0x142F DUP2 PUSH2 0x118B JUMP JUMPDEST DUP3 MSTORE POP POP JUMP JUMPDEST PUSH0 PUSH1 0x60 DUP3 ADD SWAP1 POP PUSH2 0x1448 PUSH0 DUP4 ADD DUP7 PUSH2 0x1426 JUMP JUMPDEST PUSH2 0x1455 PUSH1 0x20 DUP4 ADD DUP6 PUSH2 0x12EB JUMP JUMPDEST PUSH2 0x1462 PUSH1 0x40 DUP4 ADD DUP5 PUSH2 0x12EB JUMP JUMPDEST SWAP5 SWAP4 POP POP POP POP JUMP JUMPDEST PUSH0 DUP2 SWAP1 POP SWAP2 SWAP1 POP JUMP JUMPDEST PUSH2 0x147C DUP2 PUSH2 0x146A JUMP JUMPDEST DUP2 EQ PUSH2 0x1486 JUMPI PUSH0 DUP1 REVERT JUMPDEST POP JUMP JUMPDEST PUSH0 DUP2 MLOAD SWAP1 POP PUSH2 0x1497 DUP2 PUSH2 0x1473 JUMP JUMPDEST SWAP3 SWAP2 POP POP JUMP JUMPDEST PUSH0 PUSH1 0x20 DUP3 DUP5 SUB SLT ISZERO PUSH2 0x14B2 JUMPI PUSH2 0x14B1 PUSH2 0x1104 JUMP JUMPDEST JUMPDEST PUSH0 PUSH2 0x14BF DUP5 DUP3 DUP6 ADD PUSH2 0x1489 JUMP JUMPDEST SWAP2 POP POP SWAP3 SWAP2 POP POP JUMP JUMPDEST PUSH2 0x14D1 DUP2 PUSH2 0x146A JUMP JUMPDEST DUP3 MSTORE POP POP JUMP JUMPDEST PUSH0 PUSH1 0x40 DUP3 ADD SWAP1 POP PUSH2 0x14EA PUSH0 DUP4 ADD DUP6 PUSH2 0x14C8 JUMP JUMPDEST PUSH2 0x14F7 PUSH1 0x20 DUP4 ADD DUP5 PUSH2 0x1426 JUMP JUMPDEST SWAP4 SWAP3 POP POP POP JUMP JUMPDEST PUSH32 0x4E487B7100000000000000000000000000000000000000000000000000000000 PUSH0 MSTORE PUSH1 0x11 PUSH1 0x4 MSTORE PUSH1 0x24 PUSH0 REVERT JUMPDEST PUSH0 DUP2 PUSH1 0x1 SHR SWAP1 POP SWAP2 SWAP1 POP JUMP JUMPDEST PUSH0 DUP1 DUP3 SWAP2 POP DUP4 SWAP1 POP JUMPDEST PUSH1 0x1 DUP6 GT ISZERO PUSH2 0x1580 JUMPI DUP1 DUP7 DIV DUP2 GT ISZERO PUSH2 0x155C JUMPI PUSH2 0x155B PUSH2 0x14FE JUMP JUMPDEST JUMPDEST PUSH1 0x1 DUP6 AND ISZERO PUSH2 0x156B JUMPI DUP1 DUP3 MUL SWAP2 POP JUMPDEST DUP1 DUP2 MUL SWAP1 POP PUSH2 0x1579 DUP6 PUSH2 0x152B JUMP JUMPDEST SWAP5 POP PUSH2 0x1540 JUMP JUMPDEST SWAP5 POP SWAP5 SWAP3 POP POP POP JUMP JUMPDEST PUSH0 DUP3 PUSH2 0x1598 JUMPI PUSH1 0x1 SWAP1 POP PUSH2 0x1653 JUMP JUMPDEST DUP2 PUSH2 0x15A5 JUMPI PUSH0 SWAP1 POP PUSH2 0x1653 JUMP JUMPDEST DUP2 PUSH1 0x1 DUP2 EQ PUSH2 0x15BB JUMPI PUSH1 0x2 DUP2 EQ PUSH2 0x15C5 JUMPI PUSH2 0x15F4 JUMP JUMPDEST PUSH1 0x1 SWAP2 POP POP PUSH2 0x1653 JUMP JUMPDEST PUSH1 0xFF DUP5 GT ISZERO PUSH2 0x15D7 JUMPI PUSH2 0x15D6 PUSH2 0x14FE JUMP JUMPDEST JUMPDEST DUP4 PUSH1 0x2 EXP SWAP2 POP DUP5 DUP3 GT ISZERO PUSH2 0x15EE JUMPI PUSH2 0x15ED PUSH2 0x14FE JUMP JUMPDEST JUMPDEST POP PUSH2 0x1653 JUMP JUMPDEST POP PUSH1 0x20 DUP4 LT PUSH2 0x133 DUP4 LT AND PUSH1 0x4E DUP5 LT PUSH1 0xB DUP5 LT AND OR ISZERO PUSH2 0x1629 JUMPI DUP3 DUP3 EXP SWAP1 POP DUP4 DUP2 GT ISZERO PUSH2 0x1624 JUMPI PUSH2 0x1623 PUSH2 0x14FE JUMP JUMPDEST JUMPDEST PUSH2 0x1653 JUMP JUMPDEST PUSH2 0x1636 DUP5 DUP5 DUP5 PUSH1 0x1 PUSH2 0x1537 JUMP JUMPDEST SWAP3 POP SWAP1 POP DUP2 DUP5 DIV DUP2 GT ISZERO PUSH2 0x164D JUMPI PUSH2 0x164C PUSH2 0x14FE JUMP JUMPDEST JUMPDEST DUP2 DUP2 MUL SWAP1 POP JUMPDEST SWAP4 SWAP3 POP POP POP JUMP JUMPDEST PUSH0 PUSH2 0x1664 DUP3 PUSH2 0x11AB JUMP JUMPDEST SWAP2 POP PUSH2 0x166F DUP4 PUSH2 0x1108 JUMP JUMPDEST SWAP3 POP PUSH2 0x169C PUSH32 0xFFFFFFFFFFFFFFFFFFFFFFFFFFFFFFFFFFFFFFFFFFFFFFFFFFFFFFFFFFFFFFFF DUP5 DUP5 PUSH2 0x1589 JUMP JUMPDEST SWAP1 POP SWAP3 SWAP2 POP POP JUMP JUMPDEST PUSH0 PUSH2 0x16AE DUP3 PUSH2 0x11AB JUMP JUMPDEST SWAP2 POP PUSH2 0x16B9 DUP4 PUSH2 0x11AB JUMP JUMPDEST SWAP3 POP DUP3 DUP3 SUB SWAP1 POP DUP2 DUP2 GT ISZERO PUSH2 0x16D1 JUMPI PUSH2 0x16D0 PUSH2 0x14FE JUMP JUMPDEST JUMPDEST SWAP3 SWAP2 POP POP JUMP JUMPDEST PUSH0 PUSH2 0x16E1 DUP3 PUSH2 0x11AB JUMP JUMPDEST SWAP2 POP PUSH2 0x16EC DUP4 PUSH2 0x11AB JUMP JUMPDEST SWAP3 POP DUP3 DUP3 MUL PUSH2 0x16FA DUP2 PUSH2 0x11AB JUMP JUMPDEST SWAP2 POP DUP3 DUP3 DIV DUP5 EQ DUP4 ISZERO OR PUSH2 0x1711 JUMPI PUSH2 0x1710 PUSH2 0x14FE JUMP JUMPDEST JUMPDEST POP SWAP3 SWAP2 POP POP JUMP JUMPDEST PUSH32 0x4E487B7100000000000000000000000000000000000000000000000000000000 PUSH0 MSTORE PUSH1 0x12 PUSH1 0x4 MSTORE PUSH1 0x24 PUSH0 REVERT JUMPDEST PUSH0 PUSH2 0x174F DUP3 PUSH2 0x11AB JUMP JUMPDEST SWAP2 POP PUSH2 0x175A DUP4 PUSH2 0x11AB JUMP JUMPDEST SWAP3 POP DUP3 PUSH2 0x176A JUMPI PUSH2 0x1769 PUSH2 0x1718 JUMP JUMPDEST JUMPDEST DUP3 DUP3 DIV SWAP1 POP SWAP3 SWAP2 POP POP JUMP JUMPDEST PUSH0 PUSH2 0x177F DUP3 PUSH2 0x11AB JUMP JUMPDEST SWAP2 POP PUSH2 0x178A DUP4 PUSH2 0x11AB JUMP JUMPDEST SWAP3 POP DUP3 DUP3 ADD SWAP1 POP DUP1 DUP3 GT ISZERO PUSH2 0x17A2 JUMPI PUSH2 0x17A1 PUSH2 0x14FE JUMP JUMPDEST JUMPDEST SWAP3 SWAP2 POP POP JUMP JUMPDEST PUSH0 PUSH2 0x17B2 DUP3 PUSH2 0x1108 JUMP JUMPDEST SWAP2 POP PUSH4 0xFFFFFFFF DUP3 SUB PUSH2 0x17C8 JUMPI PUSH2 0x17C7 PUSH2 0x14FE JUMP JUMPDEST JUMPDEST PUSH1 0x1 DUP3 ADD SWAP1 POP SWAP2 SWAP1 POP JUMP JUMPDEST PUSH0 PUSH1 0x40 DUP3 ADD SWAP1 POP PUSH2 0x17E6 PUSH0 DUP4 ADD DUP6 PUSH2 0x12EB JUMP JUMPDEST PUSH2 0x17F3 PUSH1 0x20 DUP4 ADD DUP5 PUSH2 0x12EB JUMP JUMPDEST SWAP4 SWAP3 POP POP POP JUMP JUMPDEST PUSH0 PUSH1 0x40 DUP3 ADD SWAP1 POP PUSH2 0x180D PUSH0 DUP4 ADD DUP6 PUSH2 0x1426 JUMP JUMPDEST PUSH2 0x181A PUSH1 0x20 DUP4 ADD DUP5 PUSH2 0x12EB JUMP JUMPDEST SWAP4 SWAP3 POP POP POP JUMP JUMPDEST PUSH0 DUP2 ISZERO ISZERO SWAP1 POP SWAP2 SWAP1 POP JUMP JUMPDEST PUSH2 0x1835 DUP2 PUSH2 0x1821 JUMP JUMPDEST DUP2 EQ PUSH2 0x183F JUMPI PUSH0 DUP1 REVERT JUMPDEST POP JUMP JUMPDEST PUSH0 DUP2 MLOAD SWAP1 POP PUSH2 0x1850 DUP2 PUSH2 0x182C JUMP JUMPDEST SWAP3 SWAP2 POP POP JUMP JUMPDEST PUSH0 PUSH1 0x20 DUP3 DUP5 SUB SLT ISZERO PUSH2 0x186B JUMPI PUSH2 0x186A PUSH2 0x1104 JUMP JUMPDEST JUMPDEST PUSH0 PUSH2 0x1878 DUP5 DUP3 DUP6 ADD PUSH2 0x1842 JUMP JUMPDEST SWAP2 POP POP SWAP3 SWAP2 POP POP JUMP JUMPDEST PUSH0 PUSH2 0x188B DUP3 PUSH2 0x1108 JUMP JUMPDEST SWAP2 POP PUSH2 0x1896 DUP4 PUSH2 0x1108 JUMP JUMPDEST SWAP3 POP DUP3 DUP3 SUB SWAP1 POP PUSH4 0xFFFFFFFF DUP2 GT ISZERO PUSH2 0x18B2 JUMPI PUSH2 0x18B1 PUSH2 0x14FE JUMP JUMPDEST JUMPDEST SWAP3 SWAP2 POP POP JUMP INVALID LOG2 PUSH5 0x6970667358 0x22 SLT KECCAK256 EXP LOG0 0xBB MULMOD 0x2F 0xDA SHR 0xB1 CALLDATASIZE 0xC3 0xC 0xEA PUSH23 0xC85EE779B4FD8225B48A493EEF573F6FD02B2564736F6C PUSH4 0x43000817 STOP CALLER "
				},
				"gasEstimates": {
					"creation": {
						"codeDepositCost": "1276400",
						"executionCost": "infinite",
						"totalCost": "infinite"
					},
					"external": {
						"amount(address)": "2913",
						"claim()": "infinite",
						"claimed(address)": "2824",
						"decimal()": "2489",
						"deposit(address,uint256,uint256)": "infinite",
						"getClaimed(address)": "2917",
						"getCurrentHistoryNonce()": "infinite",
						"getHistory(uint32)": "infinite",
						"getPredict(address,uint256)": "infinite",
						"getTotalProfit(address)": "infinite",
						"getUnclaim(address)": "infinite",
						"historyInfo(uint32)": "infinite",
						"historyNonce()": "2510",
						"mask(address)": "2912",
						"paymentToken()": "infinite",
						"price()": "2514",
						"register()": "infinite",
						"totalAmount()": "2537",
						"totalValue()": "2491",
						"unclaim(address)": "2870",
						"valuePerAmount()": "2470"
					},
					"internal": {
						"_getUnclaim(address)": "infinite"
					}
				},
				"methodIdentifiers": {
					"amount(address)": "b9f0bf66",
					"claim()": "4e71d92d",
					"claimed(address)": "c884ef83",
					"decimal()": "76809ce3",
					"deposit(address,uint256,uint256)": "0efe6a8b",
					"getClaimed(address)": "eb46260e",
					"getCurrentHistoryNonce()": "6d1c6041",
					"getHistory(uint32)": "07040e91",
					"getPredict(address,uint256)": "13da0777",
					"getTotalProfit(address)": "8233fbcb",
					"getUnclaim(address)": "480a4262",
					"historyInfo(uint32)": "f54f0a8d",
					"historyNonce()": "cdf033f3",
					"mask(address)": "eeda71d5",
					"paymentToken()": "3013ce29",
					"price()": "a035b1fe",
					"register()": "1aa3a008",
					"totalAmount()": "1a39d8ef",
					"totalValue()": "d4c3eea0",
					"unclaim(address)": "1161e582",
					"valuePerAmount()": "7a19a488"
				}
			},
			"storageLayout": {
				"storage": [
					{
						"astId": 1388,
						"contract": "contracts/periphery/Fomo3d_flattened.sol:Fomo3d",
						"label": "paymentToken",
						"offset": 0,
						"slot": "0",
						"type": "t_contract(ERC20)1381"
					},
					{
						"astId": 1391,
						"contract": "contracts/periphery/Fomo3d_flattened.sol:Fomo3d",
						"label": "register",
						"offset": 0,
						"slot": "1",
						"type": "t_contract(Register)775"
					},
					{
						"astId": 1395,
						"contract": "contracts/periphery/Fomo3d_flattened.sol:Fomo3d",
						"label": "amount",
						"offset": 0,
						"slot": "2",
						"type": "t_mapping(t_address,t_uint256)"
					},
					{
						"astId": 1399,
						"contract": "contracts/periphery/Fomo3d_flattened.sol:Fomo3d",
						"label": "mask",
						"offset": 0,
						"slot": "3",
						"type": "t_mapping(t_address,t_uint256)"
					},
					{
						"astId": 1403,
						"contract": "contracts/periphery/Fomo3d_flattened.sol:Fomo3d",
						"label": "unclaim",
						"offset": 0,
						"slot": "4",
						"type": "t_mapping(t_address,t_uint256)"
					},
					{
						"astId": 1407,
						"contract": "contracts/periphery/Fomo3d_flattened.sol:Fomo3d",
						"label": "claimed",
						"offset": 0,
						"slot": "5",
						"type": "t_mapping(t_address,t_uint256)"
					},
					{
						"astId": 1412,
						"contract": "contracts/periphery/Fomo3d_flattened.sol:Fomo3d",
						"label": "historyInfo",
						"offset": 0,
						"slot": "6",
						"type": "t_mapping(t_uint32,t_struct(HistoryInfo)147_storage)"
					},
					{
						"astId": 1414,
						"contract": "contracts/periphery/Fomo3d_flattened.sol:Fomo3d",
						"label": "historyNonce",
						"offset": 0,
						"slot": "7",
						"type": "t_uint32"
					},
					{
						"astId": 1416,
						"contract": "contracts/periphery/Fomo3d_flattened.sol:Fomo3d",
						"label": "totalAmount",
						"offset": 0,
						"slot": "8",
						"type": "t_uint256"
					},
					{
						"astId": 1418,
						"contract": "contracts/periphery/Fomo3d_flattened.sol:Fomo3d",
						"label": "totalValue",
						"offset": 0,
						"slot": "9",
						"type": "t_uint256"
					},
					{
						"astId": 1420,
						"contract": "contracts/periphery/Fomo3d_flattened.sol:Fomo3d",
						"label": "valuePerAmount",
						"offset": 0,
						"slot": "10",
						"type": "t_uint256"
					},
					{
						"astId": 1422,
						"contract": "contracts/periphery/Fomo3d_flattened.sol:Fomo3d",
						"label": "decimal",
						"offset": 0,
						"slot": "11",
						"type": "t_uint32"
					},
					{
						"astId": 1424,
						"contract": "contracts/periphery/Fomo3d_flattened.sol:Fomo3d",
						"label": "price",
						"offset": 0,
						"slot": "12",
						"type": "t_uint256"
					}
				],
				"types": {
					"t_address": {
						"encoding": "inplace",
						"label": "address",
						"numberOfBytes": "20"
					},
					"t_contract(ERC20)1381": {
						"encoding": "inplace",
						"label": "contract ERC20",
						"numberOfBytes": "20"
					},
					"t_contract(Register)775": {
						"encoding": "inplace",
						"label": "contract Register",
						"numberOfBytes": "20"
					},
					"t_mapping(t_address,t_uint256)": {
						"encoding": "mapping",
						"key": "t_address",
						"label": "mapping(address => uint256)",
						"numberOfBytes": "32",
						"value": "t_uint256"
					},
					"t_mapping(t_uint32,t_struct(HistoryInfo)147_storage)": {
						"encoding": "mapping",
						"key": "t_uint32",
						"label": "mapping(uint32 => struct IFomo3d.HistoryInfo)",
						"numberOfBytes": "32",
						"value": "t_struct(HistoryInfo)147_storage"
					},
					"t_struct(HistoryInfo)147_storage": {
						"encoding": "inplace",
						"label": "struct IFomo3d.HistoryInfo",
						"members": [
							{
								"astId": 142,
								"contract": "contracts/periphery/Fomo3d_flattened.sol:Fomo3d",
								"label": "user",
								"offset": 0,
								"slot": "0",
								"type": "t_address"
							},
							{
								"astId": 144,
								"contract": "contracts/periphery/Fomo3d_flattened.sol:Fomo3d",
								"label": "value",
								"offset": 0,
								"slot": "1",
								"type": "t_uint256"
							},
							{
								"astId": 146,
								"contract": "contracts/periphery/Fomo3d_flattened.sol:Fomo3d",
								"label": "amount",
								"offset": 0,
								"slot": "2",
								"type": "t_uint256"
							}
						],
						"numberOfBytes": "96"
					},
					"t_uint256": {
						"encoding": "inplace",
						"label": "uint256",
						"numberOfBytes": "32"
					},
					"t_uint32": {
						"encoding": "inplace",
						"label": "uint32",
						"numberOfBytes": "4"
					}
				}
			},
			"userdoc": {
				"kind": "user",
				"methods": {
					"claim()": {
						"notice": "Withdraw all the value from the unclaim part"
					},
					"deposit(address,uint256,uint256)": {
						"notice": "Deposit from the userOnly the admin role can call this function"
					},
					"getCurrentHistoryNonce()": {
						"notice": "get history current nonce. (The nonce of the last history)"
					},
					"getHistory(uint32)": {
						"notice": "get history info with nonce"
					},
					"getPredict(address,uint256)": {
						"notice": "Return how much the user can get when he put more amount here"
					},
					"getUnclaim(address)": {
						"notice": "get user info"
					}
				},
				"version": 1
			}
		}
	}
}