{
	"data": {
		"bytecode": {
			"linkReferences": {},
			"object": "60806040523480156200001157600080fd5b50604051620061d7380380620061d78339818101604052810190620000379190620002ea565b6200004c6000801b846200010b60201b60201c565b506200007f7f241ecf16d79d0f8dbfb92cbc07fe17840425976cf0667f022fe9877caa831b08846200010b60201b60201c565b5080600160006101000a81548173ffffffffffffffffffffffffffffffffffffffff021916908373ffffffffffffffffffffffffffffffffffffffff16021790555081600260006101000a81548173ffffffffffffffffffffffffffffffffffffffff021916908373ffffffffffffffffffffffffffffffffffffffff16021790555050505062000346565b60006200011f83836200020e60201b60201c565b6200020357600160008085815260200190815260200160002060000160008473ffffffffffffffffffffffffffffffffffffffff1673ffffffffffffffffffffffffffffffffffffffff16815260200190815260200160002060006101000a81548160ff0219169083151502179055506200019f6200027860201b60201c565b73ffffffffffffffffffffffffffffffffffffffff168273ffffffffffffffffffffffffffffffffffffffff16847f2f8788117e7eff1d82e926ec794901d17c78024a50270940304540a733656f0d60405160405180910390a46001905062000208565b600090505b92915050565b600080600084815260200190815260200160002060000160008373ffffffffffffffffffffffffffffffffffffffff1673ffffffffffffffffffffffffffffffffffffffff16815260200190815260200160002060009054906101000a900460ff16905092915050565b600033905090565b600080fd5b600073ffffffffffffffffffffffffffffffffffffffff82169050919050565b6000620002b28262000285565b9050919050565b620002c481620002a5565b8114620002d057600080fd5b50565b600081519050620002e481620002b9565b92915050565b60008060006060848603121562000306576200030562000280565b5b60006200031686828701620002d3565b93505060206200032986828701620002d3565b92505060406200033c86828701620002d3565b9150509250925092565b615e8180620003566000396000f3fe608060405234801561001057600080fd5b506004361061023d5760003560e01c806375a6da9b1161013b578063b749ea83116100b8578063d8683b2e1161007c578063d8683b2e1461070a578063ec87621c1461073c578063f36b4b581461075a578063f3ebc98514610778578063fac333ac146107a95761023d565b8063b749ea8314610676578063d2b0022f14610694578063d547741f146106b2578063d56d229d146106ce578063d7b6453f146106ec5761023d565b80638667b8d9116100ff5780638667b8d9146105935780638c7a63ae146105c357806391d14854146105f6578063a217fddf14610626578063b670ed52146106445761023d565b806375a6da9b14610503578063793822f8146105335780637c1a03021461054f5780637c6ff2da1461056d5780638487a06a146105895761023d565b80632f2ff15d116101c95780633c36eaec1161018d5780633c36eaec146104385780634749c25c146104685780635a1c7c50146104985780635b94a71b146104b457806361d34d42146104d05761023d565b80632f2ff15d146103a857806336568abe146103c457806338ba4614146103e057806339da9fb8146103fc5780633c15ecf41461041a5761023d565b80631a75b3ed116102105780631a75b3ed146102f05780631aa3a0081461030c578063248a9ca31461032a5780632714795f1461035a5780632e413c37146103785761023d565b806301ffc9a71461024257806302f43023146102725780630b816045146102a257806319c2b4c3146102d2575b600080fd5b61025c60048036038101906102579190614951565b6107d9565b6040516102699190614999565b60405180910390f35b61028c600480360381019061028791906149ea565b610853565b6040516102999190614a36565b60405180910390f35b6102bc60048036038101906102b791906149ea565b61088d565b6040516102c99190614cc7565b60405180910390f35b6102da610ac1565b6040516102e79190614cf8565b60405180910390f35b61030a60048036038101906103059190614d78565b610ae9565b005b610314610bf5565b6040516103219190614e24565b60405180910390f35b610344600480360381019061033f9190614e75565b610c1b565b6040516103519190614eb1565b60405180910390f35b610362610c3a565b60405161036f9190614f3b565b60405180910390f35b610392600480360381019061038d91906149ea565b610cbe565b60405161039f9190614a36565b60405180910390f35b6103c260048036038101906103bd9190614f89565b610cf8565b005b6103de60048036038101906103d99190614f89565b610d1a565b005b6103fa60048036038101906103f5919061501f565b610d95565b005b610404611028565b60405161041191906150ee565b60405180910390f35b610422611080565b60405161042f9190614f3b565b60405180910390f35b610452600480360381019061044d91906149ea565b611104565b60405161045f9190614a36565b60405180910390f35b610482600480360381019061047d91906149ea565b61113e565b60405161048f9190614cf8565b60405180910390f35b6104b260048036038101906104ad9190615110565b611162565b005b6104ce60048036038101906104c99190615189565b6111dc565b005b6104ea60048036038101906104e591906149ea565b6113db565b6040516104fa94939291906151f8565b60405180910390f35b61051d6004803603810190610518919061523d565b611452565b60405161052a9190614999565b60405180910390f35b61054d6004803603810190610548919061526a565b61147d565b005b6105576118c1565b6040516105649190614cf8565b60405180910390f35b610587600480360381019061058291906152ff565b6118c7565b005b610591611ca4565b005b6105ad60048036038101906105a891906149ea565b611ca6565b6040516105ba9190614a36565b60405180910390f35b6105dd60048036038101906105d891906149ea565b611ce0565b6040516105ed9493929190615394565b60405180910390f35b610610600480360381019061060b9190614f89565b611dc4565b60405161061d9190614999565b60405180910390f35b61062e611e2e565b60405161063b9190614eb1565b60405180910390f35b61065e6004803603810190610659919061523d565b611e35565b60405161066d939291906153d9565b60405180910390f35b61067e61202c565b60405161068b9190614f3b565b60405180910390f35b61069c6120b0565b6040516106a99190614cf8565b60405180910390f35b6106cc60048036038101906106c79190614f89565b6120ca565b005b6106d66120ec565b6040516106e39190615446565b60405180910390f35b6106f4612112565b60405161070191906150ee565b60405180910390f35b610724600480360381019061071f919061523d565b61216a565b604051610733939291906154ba565b60405180910390f35b61074461221a565b6040516107519190614eb1565b60405180910390f35b61076261223e565b60405161076f9190614f3b565b60405180910390f35b610792600480360381019061078d919061523d565b6122c2565b6040516107a09291906154f8565b60405180910390f35b6107c360048036038101906107be91906149ea565b612440565b6040516107d09190614cf8565b60405180910390f35b60007f7965db0b000000000000000000000000000000000000000000000000000000007bffffffffffffffffffffffffffffffffffffffffffffffffffffffff1916827bffffffffffffffffffffffffffffffffffffffffffffffffffffffff1916148061084c575061084b82612464565b5b9050919050565b6009818154811061086357600080fd5b9060005260206000209060089182820401919006600402915054906101000a900463ffffffff1681565b61089561462c565b600560008381526020019081526020016000206040518060e00160405290816000820160009054906101000a900460ff161515151581526020016000820160019054906101000a900460ff161515151581526020016000820160029054906101000a900460ff161515151581526020016000820160039054906101000a900473ffffffffffffffffffffffffffffffffffffffff1673ffffffffffffffffffffffffffffffffffffffff1673ffffffffffffffffffffffffffffffffffffffff168152602001600182018054806020026020016040519081016040528092919081815260200182805480156109d557602002820191906000526020600020906000905b82829054906101000a900463ffffffff1663ffffffff16815260200190600401906020826003010492830192600103820291508084116109985790505b5050505050815260200160028201805480602002602001604051908101604052809291908181526020018280548015610a5957602002820191906000526020600020906000905b82829054906101000a900463ffffffff1663ffffffff1681526020019060040190602082600301049283019260010382029150808411610a1c5790505b5050505050815260200160038201805480602002602001604051908101604052809291908181526020018280548015610ab157602002820191906000526020600020905b815481526020019060010190808311610a9d575b5050505050815250509050919050565b6000600c60065481548110610ad957610ad861552f565b5b9060005260206000200154905090565b7f241ecf16d79d0f8dbfb92cbc07fe17840425976cf0667f022fe9877caa831b08610b13816124ce565b6000600b8054905003610b52576040517f775ade0100000000000000000000000000000000000000000000000000000000815260040160405180910390fd5b82829050600b8054905014610b93576040517fcc28991800000000000000000000000000000000000000000000000000000000815260040160405180910390fd5b828260099190610ba4929190614685565b508282600a9190610bb6929190614685565b507f8baf124fb435347a873afb6512246f2fae8e3fd69d4689513bef69293c84c29b8383604051610be89291906155e9565b60405180910390a1505050565b600260009054906101000a900473ffffffffffffffffffffffffffffffffffffffff1681565b6000806000838152602001908152602001600020600101549050919050565b60606007805480602002602001604051908101604052809291908181526020018280548015610cb457602002820191906000526020600020906000905b82829054906101000a900463ffffffff1663ffffffff1681526020019060040190602082600301049283019260010382029150808411610c775790505b5050505050905090565b60088181548110610cce57600080fd5b9060005260206000209060089182820401919006600402915054906101000a900463ffffffff1681565b610d0182610c1b565b610d0a816124ce565b610d1483836124e2565b50505050565b610d226125d3565b73ffffffffffffffffffffffffffffffffffffffff168173ffffffffffffffffffffffffffffffffffffffff1614610d86576040517f6697b23200000000000000000000000000000000000000000000000000000000815260040160405180910390fd5b610d9082826125db565b505050565b600260009054906101000a900473ffffffffffffffffffffffffffffffffffffffff1673ffffffffffffffffffffffffffffffffffffffff166312d9a6ad600260009054906101000a900473ffffffffffffffffffffffffffffffffffffffff1673ffffffffffffffffffffffffffffffffffffffff1663a126285b6040518163ffffffff1660e01b8152600401602060405180830381865afa158015610e40573d6000803e3d6000fd5b505050506040513d601f19601f82011682018060405250810190610e649190615622565b336040518363ffffffff1660e01b8152600401610e8292919061564f565b60006040518083038186803b158015610e9a57600080fd5b505afa158015610eae573d6000803e3d6000fd5b5050505060006005600085815260200190815260200160002090508060000160009054906101000a900460ff16610f1c57836040517f9a1cfbfd000000000000000000000000000000000000000000000000000000008152600401610f139190614cf8565b60405180910390fd5b8060000160019054906101000a900460ff1615610f7057836040517f502746dc000000000000000000000000000000000000000000000000000000008152600401610f679190614cf8565b60405180910390fd5b60018160000160016101000a81548160ff0219169083151502179055508282826003019190610fa092919061473b565b506000610fac856126cd565b90508160000160039054906101000a900473ffffffffffffffffffffffffffffffffffffffff1673ffffffffffffffffffffffffffffffffffffffff16857f2ae888b0dd6538e85f4e2b0881b69ba8e4af2ead705e8b76d6f93b8fe6ac4a6a8360405161101991906150ee565b60405180910390a35050505050565b6060600c80548060200260200160405190810160405280929190818152602001828054801561107657602002820191906000526020600020905b815481526020019060010190808311611062575b5050505050905090565b606060098054806020026020016040519081016040528092919081815260200182805480156110fa57602002820191906000526020600020906000905b82829054906101000a900463ffffffff1663ffffffff16815260200190600401906020826003010492830192600103820291508084116110bd5790505b5050505050905090565b600a818154811061111457600080fd5b9060005260206000209060089182820401919006600402915054906101000a900463ffffffff1681565b600c818154811061114e57600080fd5b906000526020600020016000915090505481565b7f241ecf16d79d0f8dbfb92cbc07fe17840425976cf0667f022fe9877caa831b0861118c816124ce565b8282600b919061119d92919061473b565b507f7deb1779af15e10714f572c4ec4ac6290b5e3132af43085b2d7cb86f75024bbf83836040516111cf9291906156e2565b60405180910390a1505050565b7f241ecf16d79d0f8dbfb92cbc07fe17840425976cf0667f022fe9877caa831b08611206816124ce565b6000600360008663ffffffff1663ffffffff1681526020019081526020016000209050600b80549050848490501461126a576040517fcc28991800000000000000000000000000000000000000000000000000000000815260040160405180910390fd5b8060000160009054906101000a900460ff16156112be57846040517f6358bbe70000000000000000000000000000000000000000000000000000000081526004016112b59190614a36565b60405180910390fd5b60018160000160006101000a81548160ff0219169083151502179055506112e58484612ca8565b8160020160008201518160000155602082015181600101908051906020019061130f929190614788565b5090505061131f84849050612ed3565b8160000160016101000a81548160ff021916908360ff160217905550838382600101919061134e929190614685565b5060078590806001815401808255809150506001900390600052602060002090600891828204019190066004029091909190916101000a81548163ffffffff021916908363ffffffff1602179055507fccfa93fc6dee2f7a59e08bd1a7bce043edec08ba7a9daa51aa4be9c95294acd6856040516113cc9190614a36565b60405180910390a15050505050565b60056020528060005260406000206000915090508060000160009054906101000a900460ff16908060000160019054906101000a900460ff16908060000160029054906101000a900460ff16908060000160039054906101000a900473ffffffffffffffffffffffffffffffffffffffff16905084565b60046020528060005260406000206000915090508060000160009054906101000a900460ff16905081565b7f241ecf16d79d0f8dbfb92cbc07fe17840425976cf0667f022fe9877caa831b086114a7816124ce565b6000600460008863ffffffff1663ffffffff1681526020019081526020016000209050838390508686905014611509576040517fcc28991800000000000000000000000000000000000000000000000000000000815260040160405180910390fd5b8060000160009054906101000a900460ff161561155d57866040517f74afa67a0000000000000000000000000000000000000000000000000000000081526004016115549190614a36565b60405180910390fd5b6115656147d5565b60005b878790508163ffffffff16101561178a576003600089898463ffffffff168181106115965761159561552f565b5b90506020020160208101906115ab919061523d565b63ffffffff1663ffffffff1681526020019081526020016000206040518060800160405290816000820160009054906101000a900460ff161515151581526020016000820160019054906101000a900460ff1660ff1660ff1681526020016001820180548060200260200160405190810160405280929190818152602001828054801561168357602002820191906000526020600020906000905b82829054906101000a900463ffffffff1663ffffffff16815260200190600401906020826003010492830192600103820291508084116116465790505b505050505081526020016002820160405180604001604052908160008201548152602001600182018054806020026020016040519081016040528092919081815260200182805480156116f557602002820191906000526020600020905b8154815260200190600101908083116116e1575b50505050508152505081525050915081600001516117775787878263ffffffff168181106117265761172561552f565b5b905060200201602081019061173b919061523d565b6040517fef38078000000000000000000000000000000000000000000000000000000000815260040161176e9190614a36565b60405180910390fd5b808061178290615735565b915050611568565b506117d5858580806020026020016040519081016040528093929190818152602001838360200280828437600081840152601f19601f82011690508083019250505050505050612f06565b8260030190805190602001906117ec929190614808565b5060018260000160006101000a81548160ff021916908315150217905550868683600101919061181d929190614685565b508484836002019190611831929190614685565b5060088890806001815401808255809150506001900390600052602060002090600891828204019190066004029091909190916101000a81548163ffffffff021916908363ffffffff1602179055507f83b611e3a9f3ebea1fa1254d2c7535bd0733ed9b76a5a2b0da450d5ba399ecbd886040516118af9190614a36565b60405180910390a15050505050505050565b60065481565b600260009054906101000a900473ffffffffffffffffffffffffffffffffffffffff1673ffffffffffffffffffffffffffffffffffffffff166312d9a6ad600260009054906101000a900473ffffffffffffffffffffffffffffffffffffffff1673ffffffffffffffffffffffffffffffffffffffff1663f46f16c26040518163ffffffff1660e01b8152600401602060405180830381865afa158015611972573d6000803e3d6000fd5b505050506040513d601f19601f820116820180604052508101906119969190615622565b336040518363ffffffff1660e01b81526004016119b492919061564f565b60006040518083038186803b1580156119cc57600080fd5b505afa1580156119e0573d6000803e3d6000fd5b5050505060008590506000600260009054906101000a900473ffffffffffffffffffffffffffffffffffffffff1673ffffffffffffffffffffffffffffffffffffffff1663e16c7d98600260009054906101000a900473ffffffffffffffffffffffffffffffffffffffff1673ffffffffffffffffffffffffffffffffffffffff1663a126285b6040518163ffffffff1660e01b8152600401602060405180830381865afa158015611a96573d6000803e3d6000fd5b505050506040513d601f19601f82011682018060405250810190611aba9190615622565b6040518263ffffffff1660e01b8152600401611ad69190614eb1565b602060405180830381865afa158015611af3573d6000803e3d6000fd5b505050506040513d601f19601f82011682018060405250810190611b179190615776565b905060008173ffffffffffffffffffffffffffffffffffffffff166380c95b14846040518263ffffffff1660e01b8152600401611b5491906157a3565b6020604051808303816000875af1158015611b73573d6000803e3d6000fd5b505050506040513d601f19601f82011682018060405250810190611b9791906157d3565b9050600060056000838152602001908152602001600020905060018160000160006101000a81548160ff021916908315150217905550838160000160036101000a81548173ffffffffffffffffffffffffffffffffffffffff021916908373ffffffffffffffffffffffffffffffffffffffff1602179055508787826001019190611c23929190614685565b508585826002019190611c37929190614685565b50600c829080600181540180825580915050600190039060005260206000200160009091909190915055817f48b98ad7a8a8dbe21cc82bf98710ad4d2cdd949ccac393692e4d9a1722c162c785604051611c9191906157a3565b60405180910390a2505050505050505050565b565b60078181548110611cb657600080fd5b9060005260206000209060089182820401919006600402915054906101000a900463ffffffff1681565b60008060008060005b600b80549050811015611dad5785600b8281548110611d0b57611d0a61552f565b5b906000526020600020015403611da05760018160098381548110611d3257611d3161552f565b5b90600052602060002090600891828204019190066004029054906101000a900463ffffffff16600a8481548110611d6c57611d6b61552f565b5b90600052602060002090600891828204019190066004029054906101000a900463ffffffff16945094509450945050611dbd565b8080600101915050611ce9565b5060008060008093509350935093505b9193509193565b600080600084815260200190815260200160002060000160008373ffffffffffffffffffffffffffffffffffffffff1673ffffffffffffffffffffffffffffffffffffffff16815260200190815260200160002060009054906101000a900460ff16905092915050565b6000801b81565b60608060606000600460008663ffffffff1663ffffffff1681526020019081526020016000206040518060800160405290816000820160009054906101000a900460ff1615151515815260200160018201805480602002602001604051908101604052809291908181526020018280548015611efc57602002820191906000526020600020906000905b82829054906101000a900463ffffffff1663ffffffff1681526020019060040190602082600301049283019260010382029150808411611ebf5790505b5050505050815260200160028201805480602002602001604051908101604052809291908181526020018280548015611f8057602002820191906000526020600020906000905b82829054906101000a900463ffffffff1663ffffffff1681526020019060040190602082600301049283019260010382029150808411611f435790505b505050505081526020016003820180548060200260200160405190810160405280929190818152602001828054801561200457602002820191906000526020600020906000905b82829054906101000a900463ffffffff1663ffffffff1681526020019060040190602082600301049283019260010382029150808411611fc75790505b5050505050815250509050806020015181604001518260600151935093509350509193909250565b606060088054806020026020016040519081016040528092919081815260200182805480156120a657602002820191906000526020600020906000905b82829054906101000a900463ffffffff1663ffffffff16815260200190600401906020826003010492830192600103820291508084116120695790505b5050505050905090565b6000600654600c805490506120c59190615800565b905090565b6120d382610c1b565b6120dc816124ce565b6120e683836125db565b50505050565b600160009054906101000a900473ffffffffffffffffffffffffffffffffffffffff1681565b6060600b80548060200260200160405190810160405280929190818152602001828054801561216057602002820191906000526020600020905b81548152602001906001019080831161214c575b5050505050905090565b60036020528060005260406000206000915090508060000160009054906101000a900460ff16908060000160019054906101000a900460ff169080600201604051806040016040529081600082015481526020016001820180548060200260200160405190810160405280929190818152602001828054801561220c57602002820191906000526020600020905b8154815260200190600101908083116121f8575b505050505081525050905083565b7f241ecf16d79d0f8dbfb92cbc07fe17840425976cf0667f022fe9877caa831b0881565b6060600a8054806020026020016040519081016040528092919081815260200182805480156122b857602002820191906000526020600020906000905b82829054906101000a900463ffffffff1663ffffffff168152602001906004019060208260030104928301926001038202915080841161227b5790505b5050505050905090565b60606122cc6148b8565b6000600360008563ffffffff1663ffffffff1681526020019081526020016000206040518060800160405290816000820160009054906101000a900460ff161515151581526020016000820160019054906101000a900460ff1660ff1660ff168152602001600182018054806020026020016040519081016040528092919081815260200182805480156123ab57602002820191906000526020600020906000905b82829054906101000a900463ffffffff1663ffffffff168152602001906004019060208260030104928301926001038202915080841161236e5790505b5050505050815260200160028201604051806040016040529081600082015481526020016001820180548060200260200160405190810160405280929190818152602001828054801561241d57602002820191906000526020600020905b815481526020019060010190808311612409575b505050505081525050815250509050806040015181606001519250925050915091565b600b818154811061245057600080fd5b906000526020600020016000915090505481565b60007f01ffc9a7000000000000000000000000000000000000000000000000000000007bffffffffffffffffffffffffffffffffffffffffffffffffffffffff1916827bffffffffffffffffffffffffffffffffffffffffffffffffffffffff1916149050919050565b6124df816124da6125d3565b612fcc565b50565b60006124ee8383611dc4565b6125c857600160008085815260200190815260200160002060000160008473ffffffffffffffffffffffffffffffffffffffff1673ffffffffffffffffffffffffffffffffffffffff16815260200190815260200160002060006101000a81548160ff0219169083151502179055506125656125d3565b73ffffffffffffffffffffffffffffffffffffffff168273ffffffffffffffffffffffffffffffffffffffff16847f2f8788117e7eff1d82e926ec794901d17c78024a50270940304540a733656f0d60405160405180910390a4600190506125cd565b600090505b92915050565b600033905090565b60006125e78383611dc4565b156126c257600080600085815260200190815260200160002060000160008473ffffffffffffffffffffffffffffffffffffffff1673ffffffffffffffffffffffffffffffffffffffff16815260200190815260200160002060006101000a81548160ff02191690831515021790555061265f6125d3565b73ffffffffffffffffffffffffffffffffffffffff168273ffffffffffffffffffffffffffffffffffffffff16847ff6391f5c32d9c69d2a47ea670b442974b53935d1edc7fd64eb21e047a839171b60405160405180910390a4600190506126c7565b600090505b92915050565b6060600060056000848152602001908152602001600020905060008160000160039054906101000a900473ffffffffffffffffffffffffffffffffffffffff16905060008260010180548060200260200160405190810160405280929190818152602001828054801561278b57602002820191906000526020600020906000905b82829054906101000a900463ffffffff1663ffffffff168152602001906004019060208260030104928301926001038202915080841161274e5790505b5050505050905060008360020180548060200260200160405190810160405280929190818152602001828054801561280e57602002820191906000526020600020906000905b82829054906101000a900463ffffffff1663ffffffff16815260200190600401906020826003010492830192600103820291508084116127d15790505b5050505050905060008460030160008154811061282e5761282d61552f565b5b906000526020600020015490506000805b83518110156128835783818151811061285b5761285a61552f565b5b602002602001015163ffffffff16826128749190615834565b9150808060010191505061283f565b5060008167ffffffffffffffff8111156128a05761289f615868565b5b6040519080825280602002602001820160405280156128ce5781602001602082028036833780820191505090505b509050600080600080600087905060005b8a51811015612af25760005b8a82815181106128fe576128fd61552f565b5b602002602001015163ffffffff16811015612ae45761291c8361301d565b80975081945050506129488c838151811061293a5761293961552f565b5b602002602001015187613038565b96506129538361301d565b809750819450505061296587876132d4565b9350600b848154811061297b5761297a61552f565b5b9060005260206000200154888663ffffffff168151811061299f5761299e61552f565b5b602002602001018181525050600083036129c2576129bc8a6135c0565b99508992505b63ffffffff8016600985815481106129dd576129dc61552f565b5b90600052602060002090600891828204019190066004029054906101000a900463ffffffff1663ffffffff161015612ac957600a8481548110612a2357612a2261552f565b5b906000526020600020906008918282040191900660040281819054906101000a900463ffffffff1680929190612a5890615897565b91906101000a81548163ffffffff021916908363ffffffff160217905550506000600a8581548110612a8d57612a8c61552f565b5b90600052602060002090600891828204019190066004029054906101000a900463ffffffff1663ffffffff1603612ac857612ac7846135f3565b5b5b8480612ad490615735565b95505080806001019150506128eb565b5080806001019150506128df565b5060018703612bad57600160009054906101000a900473ffffffffffffffffffffffffffffffffffffffff1673ffffffffffffffffffffffffffffffffffffffff1663731133e98c88600081518110612b4e57612b4d61552f565b5b602002602001015160016040518463ffffffff1660e01b8152600401612b7693929190615932565b600060405180830381600087803b158015612b9057600080fd5b505af1158015612ba4573d6000803e3d6000fd5b50505050612c5f565b6000612bb88761385b565b9050600080612bc68361389d565b91509150600160009054906101000a900473ffffffffffffffffffffffffffffffffffffffff1673ffffffffffffffffffffffffffffffffffffffff16631f7fdffa8f84846040518463ffffffff1660e01b8152600401612c299392919061597c565b600060405180830381600087803b158015612c4357600080fd5b505af1158015612c57573d6000803e3d6000fd5b505050505050505b60066000815480929190612c72906159d4565b919050555060018c60000160026101000a81548160ff021916908315150217905550859c50505050505050505050505050919050565b612cb06148b8565b600080612cbf85859050612ed3565b60ff1690506000806000806000898990509050600060076001886008612ce59190615b4f565b612cef9190615800565b612cf99190615bc9565b905060008167ffffffffffffffff811115612d1757612d16615868565b5b604051908082528060200260200182016040528015612d455781602001602082028036833780820191505090505b50905060005b8863ffffffff168163ffffffff161015612eb2578089612d6b9190615bfa565b6008612d779190615b4f565b96506007600188612d889190615800565b612d929190615bc9565b955060005b87811015612ea4578681612dab9190615834565b955060008263ffffffff1614612de857828681518110612dce57612dcd61552f565b5b60200260200101518b612de19190615c32565b9a50612e26565b84810315612ea4578d8d82818110612e0357612e0261552f565b5b9050602002016020810190612e18919061523d565b8b612e239190615c32565b9a505b6000600887612e359190615c6a565b1480612e4c5750600185612e499190615800565b81145b15612e97576003600187612e609190615800565b901c98508a838a81518110612e7857612e7761552f565b5b602002602001019063ffffffff16908163ffffffff168152505060009a505b8080600101915050612d97565b508080600101915050612d4b565b506000612ebe82613ac2565b9050809a505050505050505050505092915050565b6000600190505b81816008612ee89190615c9b565b1015612f01578080612ef990615ce6565b915050612eda565b919050565b60606000825167ffffffffffffffff811115612f2557612f24615868565b5b604051908082528060200260200182016040528015612f535781602001602082028036833780820191505090505b50915060005b8351811015612fc557838181518110612f7557612f7461552f565b5b602002602001015182612f889190615c32565b915081838281518110612f9e57612f9d61552f565b5b602002602001019063ffffffff16908163ffffffff16815250508080600101915050612f59565b5050919050565b612fd68282611dc4565b6130195780826040517fe2517d3f000000000000000000000000000000000000000000000000000000008152600401613010929190615d0f565b60405180910390fd5b5050565b6000806000839050602084901c935083819250925050915091565b600080600460008563ffffffff1663ffffffff1681526020019081526020016000206040518060800160405290816000820160009054906101000a900460ff16151515158152602001600182018054806020026020016040519081016040528092919081815260200182805480156130fb57602002820191906000526020600020906000905b82829054906101000a900463ffffffff1663ffffffff16815260200190600401906020826003010492830192600103820291508084116130be5790505b505050505081526020016002820180548060200260200160405190810160405280929190818152602001828054801561317f57602002820191906000526020600020906000905b82829054906101000a900463ffffffff1663ffffffff16815260200190600401906020826003010492830192600103820291508084116131425790505b505050505081526020016003820180548060200260200160405190810160405280929190818152602001828054801561320357602002820191906000526020600020906000905b82829054906101000a900463ffffffff1663ffffffff16815260200190600401906020826003010492830192600103820291508084116131c65790505b5050505050815250509050600081606001519050600082602001515190506000826001836132319190615800565b815181106132425761324161552f565b5b6020026020010151866132559190615d38565b905060005b828110156132c857846020015181815181106132795761327861552f565b5b602002602001015195508381815181106132965761329561552f565b5b602002602001015163ffffffff168263ffffffff1610156132bb5750505050506132ce565b808060010191505061325a565b50505050505b92915050565b600080600360008563ffffffff1663ffffffff1681526020019081526020016000206040518060800160405290816000820160009054906101000a900460ff161515151581526020016000820160019054906101000a900460ff1660ff1660ff168152602001600182018054806020026020016040519081016040528092919081815260200182805480156133b457602002820191906000526020600020906000905b82829054906101000a900463ffffffff1663ffffffff16815260200190600401906020826003010492830192600103820291508084116133775790505b5050505050815260200160028201604051806040016040529081600082015481526020016001820180548060200260200160405190810160405280929190818152602001828054801561342657602002820191906000526020600020905b815481526020019060010190808311613412575b505050505081525050815250509050600081606001519050600082604001519050600083602001519050600061345d846000613bb5565b876134689190615d38565b90506000808560000151905060008060005b8660ff168160ff1610156135af576000600190505b60088160ff16116135a1576001886134a79190615d69565b60ff168260ff160361353657848160ff168560086134c59190615d9e565b6134cf9190615834565b6134d99190615800565b92508883815181106134ee576134ed61552f565b5b602002602001015195508563ffffffff168763ffffffff161061351e5785876135179190615bfa565b9650613531565b829b5050505050505050505050506135ba565b61358e565b8060ff168460086135479190615d9e565b6135519190615834565b925061355d8a84613bb5565b95508563ffffffff168763ffffffff161061358557858761357e9190615bfa565b965061358d565b8293506135a1565b5b808061359990615ce6565b91505061348f565b50808060010191505061347a565b505050505050505050505b92915050565b6000816040516020016135d39190615e01565b6040516020818303038152906040528051906020012060001c9050919050565b6000600780548060200260200160405190810160405280929190818152602001828054801561366d57602002820191906000526020600020906000905b82829054906101000a900463ffffffff1663ffffffff16815260200190600401906020826003010492830192600103820291508084116136305790505b50505050509050600061367e6147d5565b60005b83518110156138545783818151811061369d5761369c61552f565b5b60200260200101519250600360008463ffffffff1663ffffffff1681526020019081526020016000206040518060800160405290816000820160009054906101000a900460ff161515151581526020016000820160019054906101000a900460ff1660ff1660ff1681526020016001820180548060200260200160405190810160405280929190818152602001828054801561378457602002820191906000526020600020906000905b82829054906101000a900463ffffffff1663ffffffff16815260200190600401906020826003010492830192600103820291508084116137475790505b505050505081526020016002820160405180604001604052908160008201548152602001600182018054806020026020016040519081016040528092919081815260200182805480156137f657602002820191906000526020600020905b8154815260200190600101908083116137e2575b50505050508152505081525050915060008260400151868151811061381e5761381d61552f565b5b602002602001015163ffffffff16146138475761383d83866000613c65565b61384683613e4d565b5b8080600101915050613681565b5050505050565b6060600082510361386e57819050613898565b6000829050600080600185516138849190615800565b9050613891838383613fd7565b8293505050505b919050565b60608060008351036138b457828391509150613abd565b6000600190506000600190505b845181101561392d57846001826138d89190615800565b815181106138e9576138e861552f565b5b60200260200101518582815181106139045761390361552f565b5b60200260200101511461392057818061391c906159d4565b9250505b80806001019150506138c1565b508067ffffffffffffffff81111561394857613947615868565b5b6040519080825280602002602001820160405280156139765781602001602082028036833780820191505090505b5092508067ffffffffffffffff81111561399357613992615868565b5b6040519080825280602002602001820160405280156139c15781602001602082028036833780820191505090505b5091506000846000815181106139da576139d961552f565b5b602002602001015190506000818582815181106139fa576139f961552f565b5b60200260200101818152505060005b8651811015613ab85782878281518110613a2657613a2561552f565b5b602002602001015114613a7f57868181518110613a4657613a4561552f565b5b602002602001015192508180613a5b906159d4565b92505082868381518110613a7257613a7161552f565b5b6020026020010181815250505b848281518110613a9257613a9161552f565b5b602002602001018051809190613aa7906159d4565b815250508080600101915050613a09565b505050505b915091565b613aca6148b8565b613ad26148b8565b825163ffffffff16816000018181525050600060088451613af39190615bc9565b9050600060088551613b059190615c6a565b14613b19578080613b15906159d4565b9150505b8067ffffffffffffffff811115613b3357613b32615868565b5b604051908082528060200260200182016040528015613b615781602001602082028036833780820191505090505b50826020018190525060005b8451811015613baa57613b9b8382878481518110613b8e57613b8d61552f565b5b602002602001015161402d565b92508080600101915050613b6d565b508192505050919050565b600082600001518210613bff57816040517f08545ce2000000000000000000000000000000000000000000000000000000008152600401613bf69190614cf8565b60405180910390fd5b6000600883613c0e9190615bc9565b90506000600884613c1f9190615c6a565b90506020816007613c309190615800565b613c3a9190615d9e565b85602001518381518110613c5157613c5061552f565b5b6020026020010151901c9250505092915050565b6000600360008563ffffffff1663ffffffff16815260200190815260200160002090506000816002016040518060400160405290816000820154815260200160018201805480602002602001604051908101604052809291908181526020018280548015613cf257602002820191906000526020600020905b815481526020019060010190808311613cde575b505050505081525050905060008260000160019054906101000a900460ff1690506000836001018681548110613d2b57613d2a61552f565b5b90600052602060002090600891828204019190066004029054906101000a900463ffffffff169050600080846000015188613d669190615834565b905060005b8460ff168160ff161015613dc8576003600183613d889190615800565b901c9150613d968683613bb5565b9250613db98683868b87613daa9190615c32565b613db49190615bfa565b61402d565b95508080600101915050613d6b565b5086866001018981548110613de057613ddf61552f565b5b90600052602060002090600891828204019190066004026101000a81548163ffffffff021916908363ffffffff1602179055508486600201600082015181600001556020820151816001019080519060200190613e3e929190614788565b50905050505050505050505050565b6000600360008363ffffffff1663ffffffff1681526020019081526020016000206040518060800160405290816000820160009054906101000a900460ff161515151581526020016000820160019054906101000a900460ff1660ff1660ff16815260200160018201805480602002602001604051908101604052809291908181526020018280548015613f2c57602002820191906000526020600020906000905b82829054906101000a900463ffffffff1663ffffffff1681526020019060040190602082600301049283019260010382029150808411613eef5790505b50505050508152602001600282016040518060400160405290816000820154815260200160018201805480602002602001604051908101604052809291908181526020018280548015613f9e57602002820191906000526020600020905b815481526020019060010190808311613f8a575b5050505050815250508152505090506000613fbe82606001516000613bb5565b63ffffffff1603613fd357613fd282614100565b5b5050565b80821015614028576000613fec848484614384565b9050600081111561400f5761400e84846001846140099190615800565b613fd7565b5b614026846001836140209190615834565b84613fd7565b505b505050565b6140356148b8565b60006008846140449190615bc9565b905060006008856140559190615c6a565b905060008160076140669190615800565b60206140729190615d9e565b63ffffffff8016901b19905080876020015184815181106140965761409561552f565b5b6020026020010181815116915081815250508160076140b59190615800565b60206140c19190615d9e565b8563ffffffff16901b876020015184815181106140e1576140e061552f565b5b6020026020010181815117915081815250508693505050509392505050565b6000600360008363ffffffff1663ffffffff1681526020019081526020016000209050606060005b600880549050811015614356576000600460006008848154811061414f5761414e61552f565b5b90600052602060002090600891828204019190066004029054906101000a900463ffffffff1663ffffffff1663ffffffff16815260200190815260200160002090508060010180548060200260200160405190810160405280929190818152602001828054801561420b57602002820191906000526020600020906000905b82829054906101000a900463ffffffff1663ffffffff16815260200190600401906020826003010492830192600103820291508084116141ce5790505b5050505050925060005b8351811015614347578563ffffffff168482815181106142385761423761552f565b5b602002602001015163ffffffff160361433a5760008260020182815481106142635761426261552f565b5b90600052602060002090600891828204019190066004026101000a81548163ffffffff021916908363ffffffff16021790555061431d8260020180548060200260200160405190810160405280929190818152602001828054801561431357602002820191906000526020600020906000905b82829054906101000a900463ffffffff1663ffffffff16815260200190600401906020826003010492830192600103820291508084116142d65790505b5050505050612f06565b826003019080519060200190614334929190614808565b50614347565b8080600101915050614215565b50508080600101915050614128565b506143626007846144e9565b60008260000160006101000a81548160ff021916908315150217905550505050565b60008084838151811061439a5761439961552f565b5b60200260200101519050600084905060008590505b8481101561446857828782815181106143cb576143ca61552f565b5b60200260200101511161445b578681815181106143eb576143ea61552f565b5b60200260200101518783815181106144065761440561552f565b5b60200260200101518884815181106144215761442061552f565b5b6020026020010189848151811061443b5761443a61552f565b5b60200260200101828152508281525050508180614457906159d4565b9250505b80806001019150506143af565b5085848151811061447c5761447b61552f565b5b60200260200101518682815181106144975761449661552f565b5b60200260200101518783815181106144b2576144b161552f565b5b602002602001018887815181106144cc576144cb61552f565b5b602002602001018281525082815250505080925050509392505050565b60008280549050905060005b81811015614626578263ffffffff168482815481106145175761451661552f565b5b90600052602060002090600891828204019190066004029054906101000a900463ffffffff1663ffffffff160361461957836001836145569190615800565b815481106145675761456661552f565b5b90600052602060002090600891828204019190066004029054906101000a900463ffffffff168482815481106145a05761459f61552f565b5b90600052602060002090600891828204019190066004026101000a81548163ffffffff021916908363ffffffff160217905550838054806145e4576145e3615e1c565b5b60019003818190600052602060002090600891828204019190066004026101000a81549063ffffffff02191690559055614626565b80806001019150506144f5565b50505050565b6040518060e00160405280600015158152602001600015158152602001600015158152602001600073ffffffffffffffffffffffffffffffffffffffff1681526020016060815260200160608152602001606081525090565b8280548282559060005260206000209060070160089004810192821561472a5791602002820160005b838211156146f857833563ffffffff1683826101000a81548163ffffffff021916908363ffffffff16021790555092602001926004016020816003010492830192600103026146ae565b80156147285782816101000a81549063ffffffff02191690556004016020816003010492830192600103026146f8565b505b50905061473791906148d2565b5090565b828054828255906000526020600020908101928215614777579160200282015b8281111561477657823582559160200191906001019061475b565b5b50905061478491906148d2565b5090565b8280548282559060005260206000209081019282156147c4579160200282015b828111156147c35782518255916020019190600101906147a8565b5b5090506147d191906148d2565b5090565b6040518060800160405280600015158152602001600060ff168152602001606081526020016148026148b8565b81525090565b828054828255906000526020600020906007016008900481019282156148a75791602002820160005b8382111561487557835183826101000a81548163ffffffff021916908363ffffffff1602179055509260200192600401602081600301049283019260010302614831565b80156148a55782816101000a81549063ffffffff0219169055600401602081600301049283019260010302614875565b505b5090506148b491906148d2565b5090565b604051806040016040528060008152602001606081525090565b5b808211156148eb5760008160009055506001016148d3565b5090565b600080fd5b600080fd5b60007fffffffff0000000000000000000000000000000000000000000000000000000082169050919050565b61492e816148f9565b811461493957600080fd5b50565b60008135905061494b81614925565b92915050565b600060208284031215614967576149666148ef565b5b60006149758482850161493c565b91505092915050565b60008115159050919050565b6149938161497e565b82525050565b60006020820190506149ae600083018461498a565b92915050565b6000819050919050565b6149c7816149b4565b81146149d257600080fd5b50565b6000813590506149e4816149be565b92915050565b600060208284031215614a00576149ff6148ef565b5b6000614a0e848285016149d5565b91505092915050565b600063ffffffff82169050919050565b614a3081614a17565b82525050565b6000602082019050614a4b6000830184614a27565b92915050565b614a5a8161497e565b82525050565b600073ffffffffffffffffffffffffffffffffffffffff82169050919050565b6000614a8b82614a60565b9050919050565b614a9b81614a80565b82525050565b600081519050919050565b600082825260208201905092915050565b6000819050602082019050919050565b614ad681614a17565b82525050565b6000614ae88383614acd565b60208301905092915050565b6000602082019050919050565b6000614b0c82614aa1565b614b168185614aac565b9350614b2183614abd565b8060005b83811015614b52578151614b398882614adc565b9750614b4483614af4565b925050600181019050614b25565b5085935050505092915050565b600081519050919050565b600082825260208201905092915050565b6000819050602082019050919050565b614b94816149b4565b82525050565b6000614ba68383614b8b565b60208301905092915050565b6000602082019050919050565b6000614bca82614b5f565b614bd48185614b6a565b9350614bdf83614b7b565b8060005b83811015614c10578151614bf78882614b9a565b9750614c0283614bb2565b925050600181019050614be3565b5085935050505092915050565b600060e083016000830151614c356000860182614a51565b506020830151614c486020860182614a51565b506040830151614c5b6040860182614a51565b506060830151614c6e6060860182614a92565b5060808301518482036080860152614c868282614b01565b91505060a083015184820360a0860152614ca08282614b01565b91505060c083015184820360c0860152614cba8282614bbf565b9150508091505092915050565b60006020820190508181036000830152614ce18184614c1d565b905092915050565b614cf2816149b4565b82525050565b6000602082019050614d0d6000830184614ce9565b92915050565b600080fd5b600080fd5b600080fd5b60008083601f840112614d3857614d37614d13565b5b8235905067ffffffffffffffff811115614d5557614d54614d18565b5b602083019150836020820283011115614d7157614d70614d1d565b5b9250929050565b60008060208385031215614d8f57614d8e6148ef565b5b600083013567ffffffffffffffff811115614dad57614dac6148f4565b5b614db985828601614d22565b92509250509250929050565b6000819050919050565b6000614dea614de5614de084614a60565b614dc5565b614a60565b9050919050565b6000614dfc82614dcf565b9050919050565b6000614e0e82614df1565b9050919050565b614e1e81614e03565b82525050565b6000602082019050614e396000830184614e15565b92915050565b6000819050919050565b614e5281614e3f565b8114614e5d57600080fd5b50565b600081359050614e6f81614e49565b92915050565b600060208284031215614e8b57614e8a6148ef565b5b6000614e9984828501614e60565b91505092915050565b614eab81614e3f565b82525050565b6000602082019050614ec66000830184614ea2565b92915050565b600082825260208201905092915050565b6000614ee882614aa1565b614ef28185614ecc565b9350614efd83614abd565b8060005b83811015614f2e578151614f158882614adc565b9750614f2083614af4565b925050600181019050614f01565b5085935050505092915050565b60006020820190508181036000830152614f558184614edd565b905092915050565b614f6681614a80565b8114614f7157600080fd5b50565b600081359050614f8381614f5d565b92915050565b60008060408385031215614fa057614f9f6148ef565b5b6000614fae85828601614e60565b9250506020614fbf85828601614f74565b9150509250929050565b60008083601f840112614fdf57614fde614d13565b5b8235905067ffffffffffffffff811115614ffc57614ffb614d18565b5b60208301915083602082028301111561501857615017614d1d565b5b9250929050565b600080600060408486031215615038576150376148ef565b5b6000615046868287016149d5565b935050602084013567ffffffffffffffff811115615067576150666148f4565b5b61507386828701614fc9565b92509250509250925092565b600082825260208201905092915050565b600061509b82614b5f565b6150a5818561507f565b93506150b083614b7b565b8060005b838110156150e15781516150c88882614b9a565b97506150d383614bb2565b9250506001810190506150b4565b5085935050505092915050565b600060208201905081810360008301526151088184615090565b905092915050565b60008060208385031215615127576151266148ef565b5b600083013567ffffffffffffffff811115615145576151446148f4565b5b61515185828601614fc9565b92509250509250929050565b61516681614a17565b811461517157600080fd5b50565b6000813590506151838161515d565b92915050565b6000806000604084860312156151a2576151a16148ef565b5b60006151b086828701615174565b935050602084013567ffffffffffffffff8111156151d1576151d06148f4565b5b6151dd86828701614d22565b92509250509250925092565b6151f281614a80565b82525050565b600060808201905061520d600083018761498a565b61521a602083018661498a565b615227604083018561498a565b61523460608301846151e9565b95945050505050565b600060208284031215615253576152526148ef565b5b600061526184828501615174565b91505092915050565b600080600080600060608688031215615286576152856148ef565b5b600061529488828901615174565b955050602086013567ffffffffffffffff8111156152b5576152b46148f4565b5b6152c188828901614d22565b9450945050604086013567ffffffffffffffff8111156152e4576152e36148f4565b5b6152f088828901614d22565b92509250509295509295909350565b60008060008060006060868803121561531b5761531a6148ef565b5b600061532988828901614f74565b955050602086013567ffffffffffffffff81111561534a576153496148f4565b5b61535688828901614d22565b9450945050604086013567ffffffffffffffff811115615379576153786148f4565b5b61538588828901614d22565b92509250509295509295909350565b60006080820190506153a9600083018761498a565b6153b66020830186614ce9565b6153c36040830185614a27565b6153d06060830184614a27565b95945050505050565b600060608201905081810360008301526153f38186614edd565b905081810360208301526154078185614edd565b9050818103604083015261541b8184614edd565b9050949350505050565b600061543082614df1565b9050919050565b61544081615425565b82525050565b600060208201905061545b6000830184615437565b92915050565b600060ff82169050919050565b61547781615461565b82525050565b60006040830160008301516154956000860182614b8b565b50602083015184820360208601526154ad8282614bbf565b9150508091505092915050565b60006060820190506154cf600083018661498a565b6154dc602083018561546e565b81810360408301526154ee818461547d565b9050949350505050565b600060408201905081810360008301526155128185614edd565b90508181036020830152615526818461547d565b90509392505050565b7f4e487b7100000000000000000000000000000000000000000000000000000000600052603260045260246000fd5b6000819050919050565b60006155776020840184615174565b905092915050565b6000602082019050919050565b60006155988385614ecc565b93506155a38261555e565b8060005b858110156155dc576155b98284615568565b6155c38882614adc565b97506155ce8361557f565b9250506001810190506155a7565b5085925050509392505050565b6000602082019050818103600083015261560481848661558c565b90509392505050565b60008151905061561c81614e49565b92915050565b600060208284031215615638576156376148ef565b5b60006156468482850161560d565b91505092915050565b60006040820190506156646000830185614ea2565b61567160208301846151e9565b9392505050565b600080fd5b82818337505050565b6000615692838561507f565b93507f07ffffffffffffffffffffffffffffffffffffffffffffffffffffffffffffff8311156156c5576156c4615678565b5b6020830292506156d683858461567d565b82840190509392505050565b600060208201905081810360008301526156fd818486615686565b90509392505050565b7f4e487b7100000000000000000000000000000000000000000000000000000000600052601160045260246000fd5b600061574082614a17565b915063ffffffff820361575657615755615706565b5b600182019050919050565b60008151905061577081614f5d565b92915050565b60006020828403121561578c5761578b6148ef565b5b600061579a84828501615761565b91505092915050565b60006020820190506157b860008301846151e9565b92915050565b6000815190506157cd816149be565b92915050565b6000602082840312156157e9576157e86148ef565b5b60006157f7848285016157be565b91505092915050565b600061580b826149b4565b9150615816836149b4565b925082820390508181111561582e5761582d615706565b5b92915050565b600061583f826149b4565b915061584a836149b4565b925082820190508082111561586257615861615706565b5b92915050565b7f4e487b7100000000000000000000000000000000000000000000000000000000600052604160045260246000fd5b60006158a282614a17565b9150600082036158b5576158b4615706565b5b600182039050919050565b6000819050919050565b60006158e56158e06158db846158c0565b614dc5565b6149b4565b9050919050565b6158f5816158ca565b82525050565b600082825260208201905092915050565b50565b600061591c6000836158fb565b91506159278261590c565b600082019050919050565b600060808201905061594760008301866151e9565b6159546020830185614ce9565b61596160408301846158ec565b81810360608301526159728161590f565b9050949350505050565b600060808201905061599160008301866151e9565b81810360208301526159a38185615090565b905081810360408301526159b78184615090565b905081810360608301526159ca8161590f565b9050949350505050565b60006159df826149b4565b91507fffffffffffffffffffffffffffffffffffffffffffffffffffffffffffffffff8203615a1157615a10615706565b5b600182019050919050565b60008160011c9050919050565b6000808291508390505b6001851115615a7357808604811115615a4f57615a4e615706565b5b6001851615615a5e5780820291505b8081029050615a6c85615a1c565b9450615a33565b94509492505050565b600082615a8c5760019050615b48565b81615a9a5760009050615b48565b8160018114615ab05760028114615aba57615ae9565b6001915050615b48565b60ff841115615acc57615acb615706565b5b8360020a915084821115615ae357615ae2615706565b5b50615b48565b5060208310610133831016604e8410600b8410161715615b1e5782820a905083811115615b1957615b18615706565b5b615b48565b615b2b8484846001615a29565b92509050818404811115615b4257615b41615706565b5b81810290505b9392505050565b6000615b5a826149b4565b9150615b6583614a17565b9250615b927fffffffffffffffffffffffffffffffffffffffffffffffffffffffffffffffff8484615a7c565b905092915050565b7f4e487b7100000000000000000000000000000000000000000000000000000000600052601260045260246000fd5b6000615bd4826149b4565b9150615bdf836149b4565b925082615bef57615bee615b9a565b5b828204905092915050565b6000615c0582614a17565b9150615c1083614a17565b9250828203905063ffffffff811115615c2c57615c2b615706565b5b92915050565b6000615c3d82614a17565b9150615c4883614a17565b9250828201905063ffffffff811115615c6457615c63615706565b5b92915050565b6000615c75826149b4565b9150615c80836149b4565b925082615c9057615c8f615b9a565b5b828206905092915050565b6000615ca6826149b4565b9150615cb183615461565b9250615cde7fffffffffffffffffffffffffffffffffffffffffffffffffffffffffffffffff8484615a7c565b905092915050565b6000615cf182615461565b915060ff8203615d0457615d03615706565b5b600182019050919050565b6000604082019050615d2460008301856151e9565b615d316020830184614ea2565b9392505050565b6000615d4382614a17565b9150615d4e83614a17565b925082615d5e57615d5d615b9a565b5b828206905092915050565b6000615d7482615461565b9150615d7f83615461565b9250828203905060ff811115615d9857615d97615706565b5b92915050565b6000615da9826149b4565b9150615db4836149b4565b9250828202615dc2816149b4565b91508282048414831517615dd957615dd8615706565b5b5092915050565b6000819050919050565b615dfb615df6826149b4565b615de0565b82525050565b6000615e0d8284615dea565b60208201915081905092915050565b7f4e487b7100000000000000000000000000000000000000000000000000000000600052603160045260246000fdfea2646970667358221220a8e17166d23cbe4c783b02af90c3d291e5d7acc9e1dfa729453534c75676a88d64736f6c63430008170033",
			"opcodes": "PUSH1 0x80 PUSH1 0x40 MSTORE CALLVALUE DUP1 ISZERO PUSH3 0x11 JUMPI PUSH1 0x0 DUP1 REVERT JUMPDEST POP PUSH1 0x40 MLOAD PUSH3 0x61D7 CODESIZE SUB DUP1 PUSH3 0x61D7 DUP4 CODECOPY DUP2 DUP2 ADD PUSH1 0x40 MSTORE DUP2 ADD SWAP1 PUSH3 0x37 SWAP2 SWAP1 PUSH3 0x2EA JUMP JUMPDEST PUSH3 0x4C PUSH1 0x0 DUP1 SHL DUP5 PUSH3 0x10B PUSH1 0x20 SHL PUSH1 0x20 SHR JUMP JUMPDEST POP PUSH3 0x7F PUSH32 0x241ECF16D79D0F8DBFB92CBC07FE17840425976CF0667F022FE9877CAA831B08 DUP5 PUSH3 0x10B PUSH1 0x20 SHL PUSH1 0x20 SHR JUMP JUMPDEST POP DUP1 PUSH1 0x1 PUSH1 0x0 PUSH2 0x100 EXP DUP2 SLOAD DUP2 PUSH20 0xFFFFFFFFFFFFFFFFFFFFFFFFFFFFFFFFFFFFFFFF MUL NOT AND SWAP1 DUP4 PUSH20 0xFFFFFFFFFFFFFFFFFFFFFFFFFFFFFFFFFFFFFFFF AND MUL OR SWAP1 SSTORE POP DUP2 PUSH1 0x2 PUSH1 0x0 PUSH2 0x100 EXP DUP2 SLOAD DUP2 PUSH20 0xFFFFFFFFFFFFFFFFFFFFFFFFFFFFFFFFFFFFFFFF MUL NOT AND SWAP1 DUP4 PUSH20 0xFFFFFFFFFFFFFFFFFFFFFFFFFFFFFFFFFFFFFFFF AND MUL OR SWAP1 SSTORE POP POP POP POP PUSH3 0x346 JUMP JUMPDEST PUSH1 0x0 PUSH3 0x11F DUP4 DUP4 PUSH3 0x20E PUSH1 0x20 SHL PUSH1 0x20 SHR JUMP JUMPDEST PUSH3 0x203 JUMPI PUSH1 0x1 PUSH1 0x0 DUP1 DUP6 DUP2 MSTORE PUSH1 0x20 ADD SWAP1 DUP2 MSTORE PUSH1 0x20 ADD PUSH1 0x0 KECCAK256 PUSH1 0x0 ADD PUSH1 0x0 DUP5 PUSH20 0xFFFFFFFFFFFFFFFFFFFFFFFFFFFFFFFFFFFFFFFF AND PUSH20 0xFFFFFFFFFFFFFFFFFFFFFFFFFFFFFFFFFFFFFFFF AND DUP2 MSTORE PUSH1 0x20 ADD SWAP1 DUP2 MSTORE PUSH1 0x20 ADD PUSH1 0x0 KECCAK256 PUSH1 0x0 PUSH2 0x100 EXP DUP2 SLOAD DUP2 PUSH1 0xFF MUL NOT AND SWAP1 DUP4 ISZERO ISZERO MUL OR SWAP1 SSTORE POP PUSH3 0x19F PUSH3 0x278 PUSH1 0x20 SHL PUSH1 0x20 SHR JUMP JUMPDEST PUSH20 0xFFFFFFFFFFFFFFFFFFFFFFFFFFFFFFFFFFFFFFFF AND DUP3 PUSH20 0xFFFFFFFFFFFFFFFFFFFFFFFFFFFFFFFFFFFFFFFF AND DUP5 PUSH32 0x2F8788117E7EFF1D82E926EC794901D17C78024A50270940304540A733656F0D PUSH1 0x40 MLOAD PUSH1 0x40 MLOAD DUP1 SWAP2 SUB SWAP1 LOG4 PUSH1 0x1 SWAP1 POP PUSH3 0x208 JUMP JUMPDEST PUSH1 0x0 SWAP1 POP JUMPDEST SWAP3 SWAP2 POP POP JUMP JUMPDEST PUSH1 0x0 DUP1 PUSH1 0x0 DUP5 DUP2 MSTORE PUSH1 0x20 ADD SWAP1 DUP2 MSTORE PUSH1 0x20 ADD PUSH1 0x0 KECCAK256 PUSH1 0x0 ADD PUSH1 0x0 DUP4 PUSH20 0xFFFFFFFFFFFFFFFFFFFFFFFFFFFFFFFFFFFFFFFF AND PUSH20 0xFFFFFFFFFFFFFFFFFFFFFFFFFFFFFFFFFFFFFFFF AND DUP2 MSTORE PUSH1 0x20 ADD SWAP1 DUP2 MSTORE PUSH1 0x20 ADD PUSH1 0x0 KECCAK256 PUSH1 0x0 SWAP1 SLOAD SWAP1 PUSH2 0x100 EXP SWAP1 DIV PUSH1 0xFF AND SWAP1 POP SWAP3 SWAP2 POP POP JUMP JUMPDEST PUSH1 0x0 CALLER SWAP1 POP SWAP1 JUMP JUMPDEST PUSH1 0x0 DUP1 REVERT JUMPDEST PUSH1 0x0 PUSH20 0xFFFFFFFFFFFFFFFFFFFFFFFFFFFFFFFFFFFFFFFF DUP3 AND SWAP1 POP SWAP2 SWAP1 POP JUMP JUMPDEST PUSH1 0x0 PUSH3 0x2B2 DUP3 PUSH3 0x285 JUMP JUMPDEST SWAP1 POP SWAP2 SWAP1 POP JUMP JUMPDEST PUSH3 0x2C4 DUP2 PUSH3 0x2A5 JUMP JUMPDEST DUP2 EQ PUSH3 0x2D0 JUMPI PUSH1 0x0 DUP1 REVERT JUMPDEST POP JUMP JUMPDEST PUSH1 0x0 DUP2 MLOAD SWAP1 POP PUSH3 0x2E4 DUP2 PUSH3 0x2B9 JUMP JUMPDEST SWAP3 SWAP2 POP POP JUMP JUMPDEST PUSH1 0x0 DUP1 PUSH1 0x0 PUSH1 0x60 DUP5 DUP7 SUB SLT ISZERO PUSH3 0x306 JUMPI PUSH3 0x305 PUSH3 0x280 JUMP JUMPDEST JUMPDEST PUSH1 0x0 PUSH3 0x316 DUP7 DUP3 DUP8 ADD PUSH3 0x2D3 JUMP JUMPDEST SWAP4 POP POP PUSH1 0x20 PUSH3 0x329 DUP7 DUP3 DUP8 ADD PUSH3 0x2D3 JUMP JUMPDEST SWAP3 POP POP PUSH1 0x40 PUSH3 0x33C DUP7 DUP3 DUP8 ADD PUSH3 0x2D3 JUMP JUMPDEST SWAP2 POP POP SWAP3 POP SWAP3 POP SWAP3 JUMP JUMPDEST PUSH2 0x5E81 DUP1 PUSH3 0x356 PUSH1 0x0 CODECOPY PUSH1 0x0 RETURN INVALID PUSH1 0x80 PUSH1 0x40 MSTORE CALLVALUE DUP1 ISZERO PUSH2 0x10 JUMPI PUSH1 0x0 DUP1 REVERT JUMPDEST POP PUSH1 0x4 CALLDATASIZE LT PUSH2 0x23D JUMPI PUSH1 0x0 CALLDATALOAD PUSH1 0xE0 SHR DUP1 PUSH4 0x75A6DA9B GT PUSH2 0x13B JUMPI DUP1 PUSH4 0xB749EA83 GT PUSH2 0xB8 JUMPI DUP1 PUSH4 0xD8683B2E GT PUSH2 0x7C JUMPI DUP1 PUSH4 0xD8683B2E EQ PUSH2 0x70A JUMPI DUP1 PUSH4 0xEC87621C EQ PUSH2 0x73C JUMPI DUP1 PUSH4 0xF36B4B58 EQ PUSH2 0x75A JUMPI DUP1 PUSH4 0xF3EBC985 EQ PUSH2 0x778 JUMPI DUP1 PUSH4 0xFAC333AC EQ PUSH2 0x7A9 JUMPI PUSH2 0x23D JUMP JUMPDEST DUP1 PUSH4 0xB749EA83 EQ PUSH2 0x676 JUMPI DUP1 PUSH4 0xD2B0022F EQ PUSH2 0x694 JUMPI DUP1 PUSH4 0xD547741F EQ PUSH2 0x6B2 JUMPI DUP1 PUSH4 0xD56D229D EQ PUSH2 0x6CE JUMPI DUP1 PUSH4 0xD7B6453F EQ PUSH2 0x6EC JUMPI PUSH2 0x23D JUMP JUMPDEST DUP1 PUSH4 0x8667B8D9 GT PUSH2 0xFF JUMPI DUP1 PUSH4 0x8667B8D9 EQ PUSH2 0x593 JUMPI DUP1 PUSH4 0x8C7A63AE EQ PUSH2 0x5C3 JUMPI DUP1 PUSH4 0x91D14854 EQ PUSH2 0x5F6 JUMPI DUP1 PUSH4 0xA217FDDF EQ PUSH2 0x626 JUMPI DUP1 PUSH4 0xB670ED52 EQ PUSH2 0x644 JUMPI PUSH2 0x23D JUMP JUMPDEST DUP1 PUSH4 0x75A6DA9B EQ PUSH2 0x503 JUMPI DUP1 PUSH4 0x793822F8 EQ PUSH2 0x533 JUMPI DUP1 PUSH4 0x7C1A0302 EQ PUSH2 0x54F JUMPI DUP1 PUSH4 0x7C6FF2DA EQ PUSH2 0x56D JUMPI DUP1 PUSH4 0x8487A06A EQ PUSH2 0x589 JUMPI PUSH2 0x23D JUMP JUMPDEST DUP1 PUSH4 0x2F2FF15D GT PUSH2 0x1C9 JUMPI DUP1 PUSH4 0x3C36EAEC GT PUSH2 0x18D JUMPI DUP1 PUSH4 0x3C36EAEC EQ PUSH2 0x438 JUMPI DUP1 PUSH4 0x4749C25C EQ PUSH2 0x468 JUMPI DUP1 PUSH4 0x5A1C7C50 EQ PUSH2 0x498 JUMPI DUP1 PUSH4 0x5B94A71B EQ PUSH2 0x4B4 JUMPI DUP1 PUSH4 0x61D34D42 EQ PUSH2 0x4D0 JUMPI PUSH2 0x23D JUMP JUMPDEST DUP1 PUSH4 0x2F2FF15D EQ PUSH2 0x3A8 JUMPI DUP1 PUSH4 0x36568ABE EQ PUSH2 0x3C4 JUMPI DUP1 PUSH4 0x38BA4614 EQ PUSH2 0x3E0 JUMPI DUP1 PUSH4 0x39DA9FB8 EQ PUSH2 0x3FC JUMPI DUP1 PUSH4 0x3C15ECF4 EQ PUSH2 0x41A JUMPI PUSH2 0x23D JUMP JUMPDEST DUP1 PUSH4 0x1A75B3ED GT PUSH2 0x210 JUMPI DUP1 PUSH4 0x1A75B3ED EQ PUSH2 0x2F0 JUMPI DUP1 PUSH4 0x1AA3A008 EQ PUSH2 0x30C JUMPI DUP1 PUSH4 0x248A9CA3 EQ PUSH2 0x32A JUMPI DUP1 PUSH4 0x2714795F EQ PUSH2 0x35A JUMPI DUP1 PUSH4 0x2E413C37 EQ PUSH2 0x378 JUMPI PUSH2 0x23D JUMP JUMPDEST DUP1 PUSH4 0x1FFC9A7 EQ PUSH2 0x242 JUMPI DUP1 PUSH4 0x2F43023 EQ PUSH2 0x272 JUMPI DUP1 PUSH4 0xB816045 EQ PUSH2 0x2A2 JUMPI DUP1 PUSH4 0x19C2B4C3 EQ PUSH2 0x2D2 JUMPI JUMPDEST PUSH1 0x0 DUP1 REVERT JUMPDEST PUSH2 0x25C PUSH1 0x4 DUP1 CALLDATASIZE SUB DUP2 ADD SWAP1 PUSH2 0x257 SWAP2 SWAP1 PUSH2 0x4951 JUMP JUMPDEST PUSH2 0x7D9 JUMP JUMPDEST PUSH1 0x40 MLOAD PUSH2 0x269 SWAP2 SWAP1 PUSH2 0x4999 JUMP JUMPDEST PUSH1 0x40 MLOAD DUP1 SWAP2 SUB SWAP1 RETURN JUMPDEST PUSH2 0x28C PUSH1 0x4 DUP1 CALLDATASIZE SUB DUP2 ADD SWAP1 PUSH2 0x287 SWAP2 SWAP1 PUSH2 0x49EA JUMP JUMPDEST PUSH2 0x853 JUMP JUMPDEST PUSH1 0x40 MLOAD PUSH2 0x299 SWAP2 SWAP1 PUSH2 0x4A36 JUMP JUMPDEST PUSH1 0x40 MLOAD DUP1 SWAP2 SUB SWAP1 RETURN JUMPDEST PUSH2 0x2BC PUSH1 0x4 DUP1 CALLDATASIZE SUB DUP2 ADD SWAP1 PUSH2 0x2B7 SWAP2 SWAP1 PUSH2 0x49EA JUMP JUMPDEST PUSH2 0x88D JUMP JUMPDEST PUSH1 0x40 MLOAD PUSH2 0x2C9 SWAP2 SWAP1 PUSH2 0x4CC7 JUMP JUMPDEST PUSH1 0x40 MLOAD DUP1 SWAP2 SUB SWAP1 RETURN JUMPDEST PUSH2 0x2DA PUSH2 0xAC1 JUMP JUMPDEST PUSH1 0x40 MLOAD PUSH2 0x2E7 SWAP2 SWAP1 PUSH2 0x4CF8 JUMP JUMPDEST PUSH1 0x40 MLOAD DUP1 SWAP2 SUB SWAP1 RETURN JUMPDEST PUSH2 0x30A PUSH1 0x4 DUP1 CALLDATASIZE SUB DUP2 ADD SWAP1 PUSH2 0x305 SWAP2 SWAP1 PUSH2 0x4D78 JUMP JUMPDEST PUSH2 0xAE9 JUMP JUMPDEST STOP JUMPDEST PUSH2 0x314 PUSH2 0xBF5 JUMP JUMPDEST PUSH1 0x40 MLOAD PUSH2 0x321 SWAP2 SWAP1 PUSH2 0x4E24 JUMP JUMPDEST PUSH1 0x40 MLOAD DUP1 SWAP2 SUB SWAP1 RETURN JUMPDEST PUSH2 0x344 PUSH1 0x4 DUP1 CALLDATASIZE SUB DUP2 ADD SWAP1 PUSH2 0x33F SWAP2 SWAP1 PUSH2 0x4E75 JUMP JUMPDEST PUSH2 0xC1B JUMP JUMPDEST PUSH1 0x40 MLOAD PUSH2 0x351 SWAP2 SWAP1 PUSH2 0x4EB1 JUMP JUMPDEST PUSH1 0x40 MLOAD DUP1 SWAP2 SUB SWAP1 RETURN JUMPDEST PUSH2 0x362 PUSH2 0xC3A JUMP JUMPDEST PUSH1 0x40 MLOAD PUSH2 0x36F SWAP2 SWAP1 PUSH2 0x4F3B JUMP JUMPDEST PUSH1 0x40 MLOAD DUP1 SWAP2 SUB SWAP1 RETURN JUMPDEST PUSH2 0x392 PUSH1 0x4 DUP1 CALLDATASIZE SUB DUP2 ADD SWAP1 PUSH2 0x38D SWAP2 SWAP1 PUSH2 0x49EA JUMP JUMPDEST PUSH2 0xCBE JUMP JUMPDEST PUSH1 0x40 MLOAD PUSH2 0x39F SWAP2 SWAP1 PUSH2 0x4A36 JUMP JUMPDEST PUSH1 0x40 MLOAD DUP1 SWAP2 SUB SWAP1 RETURN JUMPDEST PUSH2 0x3C2 PUSH1 0x4 DUP1 CALLDATASIZE SUB DUP2 ADD SWAP1 PUSH2 0x3BD SWAP2 SWAP1 PUSH2 0x4F89 JUMP JUMPDEST PUSH2 0xCF8 JUMP JUMPDEST STOP JUMPDEST PUSH2 0x3DE PUSH1 0x4 DUP1 CALLDATASIZE SUB DUP2 ADD SWAP1 PUSH2 0x3D9 SWAP2 SWAP1 PUSH2 0x4F89 JUMP JUMPDEST PUSH2 0xD1A JUMP JUMPDEST STOP JUMPDEST PUSH2 0x3FA PUSH1 0x4 DUP1 CALLDATASIZE SUB DUP2 ADD SWAP1 PUSH2 0x3F5 SWAP2 SWAP1 PUSH2 0x501F JUMP JUMPDEST PUSH2 0xD95 JUMP JUMPDEST STOP JUMPDEST PUSH2 0x404 PUSH2 0x1028 JUMP JUMPDEST PUSH1 0x40 MLOAD PUSH2 0x411 SWAP2 SWAP1 PUSH2 0x50EE JUMP JUMPDEST PUSH1 0x40 MLOAD DUP1 SWAP2 SUB SWAP1 RETURN JUMPDEST PUSH2 0x422 PUSH2 0x1080 JUMP JUMPDEST PUSH1 0x40 MLOAD PUSH2 0x42F SWAP2 SWAP1 PUSH2 0x4F3B JUMP JUMPDEST PUSH1 0x40 MLOAD DUP1 SWAP2 SUB SWAP1 RETURN JUMPDEST PUSH2 0x452 PUSH1 0x4 DUP1 CALLDATASIZE SUB DUP2 ADD SWAP1 PUSH2 0x44D SWAP2 SWAP1 PUSH2 0x49EA JUMP JUMPDEST PUSH2 0x1104 JUMP JUMPDEST PUSH1 0x40 MLOAD PUSH2 0x45F SWAP2 SWAP1 PUSH2 0x4A36 JUMP JUMPDEST PUSH1 0x40 MLOAD DUP1 SWAP2 SUB SWAP1 RETURN JUMPDEST PUSH2 0x482 PUSH1 0x4 DUP1 CALLDATASIZE SUB DUP2 ADD SWAP1 PUSH2 0x47D SWAP2 SWAP1 PUSH2 0x49EA JUMP JUMPDEST PUSH2 0x113E JUMP JUMPDEST PUSH1 0x40 MLOAD PUSH2 0x48F SWAP2 SWAP1 PUSH2 0x4CF8 JUMP JUMPDEST PUSH1 0x40 MLOAD DUP1 SWAP2 SUB SWAP1 RETURN JUMPDEST PUSH2 0x4B2 PUSH1 0x4 DUP1 CALLDATASIZE SUB DUP2 ADD SWAP1 PUSH2 0x4AD SWAP2 SWAP1 PUSH2 0x5110 JUMP JUMPDEST PUSH2 0x1162 JUMP JUMPDEST STOP JUMPDEST PUSH2 0x4CE PUSH1 0x4 DUP1 CALLDATASIZE SUB DUP2 ADD SWAP1 PUSH2 0x4C9 SWAP2 SWAP1 PUSH2 0x5189 JUMP JUMPDEST PUSH2 0x11DC JUMP JUMPDEST STOP JUMPDEST PUSH2 0x4EA PUSH1 0x4 DUP1 CALLDATASIZE SUB DUP2 ADD SWAP1 PUSH2 0x4E5 SWAP2 SWAP1 PUSH2 0x49EA JUMP JUMPDEST PUSH2 0x13DB JUMP JUMPDEST PUSH1 0x40 MLOAD PUSH2 0x4FA SWAP5 SWAP4 SWAP3 SWAP2 SWAP1 PUSH2 0x51F8 JUMP JUMPDEST PUSH1 0x40 MLOAD DUP1 SWAP2 SUB SWAP1 RETURN JUMPDEST PUSH2 0x51D PUSH1 0x4 DUP1 CALLDATASIZE SUB DUP2 ADD SWAP1 PUSH2 0x518 SWAP2 SWAP1 PUSH2 0x523D JUMP JUMPDEST PUSH2 0x1452 JUMP JUMPDEST PUSH1 0x40 MLOAD PUSH2 0x52A SWAP2 SWAP1 PUSH2 0x4999 JUMP JUMPDEST PUSH1 0x40 MLOAD DUP1 SWAP2 SUB SWAP1 RETURN JUMPDEST PUSH2 0x54D PUSH1 0x4 DUP1 CALLDATASIZE SUB DUP2 ADD SWAP1 PUSH2 0x548 SWAP2 SWAP1 PUSH2 0x526A JUMP JUMPDEST PUSH2 0x147D JUMP JUMPDEST STOP JUMPDEST PUSH2 0x557 PUSH2 0x18C1 JUMP JUMPDEST PUSH1 0x40 MLOAD PUSH2 0x564 SWAP2 SWAP1 PUSH2 0x4CF8 JUMP JUMPDEST PUSH1 0x40 MLOAD DUP1 SWAP2 SUB SWAP1 RETURN JUMPDEST PUSH2 0x587 PUSH1 0x4 DUP1 CALLDATASIZE SUB DUP2 ADD SWAP1 PUSH2 0x582 SWAP2 SWAP1 PUSH2 0x52FF JUMP JUMPDEST PUSH2 0x18C7 JUMP JUMPDEST STOP JUMPDEST PUSH2 0x591 PUSH2 0x1CA4 JUMP JUMPDEST STOP JUMPDEST PUSH2 0x5AD PUSH1 0x4 DUP1 CALLDATASIZE SUB DUP2 ADD SWAP1 PUSH2 0x5A8 SWAP2 SWAP1 PUSH2 0x49EA JUMP JUMPDEST PUSH2 0x1CA6 JUMP JUMPDEST PUSH1 0x40 MLOAD PUSH2 0x5BA SWAP2 SWAP1 PUSH2 0x4A36 JUMP JUMPDEST PUSH1 0x40 MLOAD DUP1 SWAP2 SUB SWAP1 RETURN JUMPDEST PUSH2 0x5DD PUSH1 0x4 DUP1 CALLDATASIZE SUB DUP2 ADD SWAP1 PUSH2 0x5D8 SWAP2 SWAP1 PUSH2 0x49EA JUMP JUMPDEST PUSH2 0x1CE0 JUMP JUMPDEST PUSH1 0x40 MLOAD PUSH2 0x5ED SWAP5 SWAP4 SWAP3 SWAP2 SWAP1 PUSH2 0x5394 JUMP JUMPDEST PUSH1 0x40 MLOAD DUP1 SWAP2 SUB SWAP1 RETURN JUMPDEST PUSH2 0x610 PUSH1 0x4 DUP1 CALLDATASIZE SUB DUP2 ADD SWAP1 PUSH2 0x60B SWAP2 SWAP1 PUSH2 0x4F89 JUMP JUMPDEST PUSH2 0x1DC4 JUMP JUMPDEST PUSH1 0x40 MLOAD PUSH2 0x61D SWAP2 SWAP1 PUSH2 0x4999 JUMP JUMPDEST PUSH1 0x40 MLOAD DUP1 SWAP2 SUB SWAP1 RETURN JUMPDEST PUSH2 0x62E PUSH2 0x1E2E JUMP JUMPDEST PUSH1 0x40 MLOAD PUSH2 0x63B SWAP2 SWAP1 PUSH2 0x4EB1 JUMP JUMPDEST PUSH1 0x40 MLOAD DUP1 SWAP2 SUB SWAP1 RETURN JUMPDEST PUSH2 0x65E PUSH1 0x4 DUP1 CALLDATASIZE SUB DUP2 ADD SWAP1 PUSH2 0x659 SWAP2 SWAP1 PUSH2 0x523D JUMP JUMPDEST PUSH2 0x1E35 JUMP JUMPDEST PUSH1 0x40 MLOAD PUSH2 0x66D SWAP4 SWAP3 SWAP2 SWAP1 PUSH2 0x53D9 JUMP JUMPDEST PUSH1 0x40 MLOAD DUP1 SWAP2 SUB SWAP1 RETURN JUMPDEST PUSH2 0x67E PUSH2 0x202C JUMP JUMPDEST PUSH1 0x40 MLOAD PUSH2 0x68B SWAP2 SWAP1 PUSH2 0x4F3B JUMP JUMPDEST PUSH1 0x40 MLOAD DUP1 SWAP2 SUB SWAP1 RETURN JUMPDEST PUSH2 0x69C PUSH2 0x20B0 JUMP JUMPDEST PUSH1 0x40 MLOAD PUSH2 0x6A9 SWAP2 SWAP1 PUSH2 0x4CF8 JUMP JUMPDEST PUSH1 0x40 MLOAD DUP1 SWAP2 SUB SWAP1 RETURN JUMPDEST PUSH2 0x6CC PUSH1 0x4 DUP1 CALLDATASIZE SUB DUP2 ADD SWAP1 PUSH2 0x6C7 SWAP2 SWAP1 PUSH2 0x4F89 JUMP JUMPDEST PUSH2 0x20CA JUMP JUMPDEST STOP JUMPDEST PUSH2 0x6D6 PUSH2 0x20EC JUMP JUMPDEST PUSH1 0x40 MLOAD PUSH2 0x6E3 SWAP2 SWAP1 PUSH2 0x5446 JUMP JUMPDEST PUSH1 0x40 MLOAD DUP1 SWAP2 SUB SWAP1 RETURN JUMPDEST PUSH2 0x6F4 PUSH2 0x2112 JUMP JUMPDEST PUSH1 0x40 MLOAD PUSH2 0x701 SWAP2 SWAP1 PUSH2 0x50EE JUMP JUMPDEST PUSH1 0x40 MLOAD DUP1 SWAP2 SUB SWAP1 RETURN JUMPDEST PUSH2 0x724 PUSH1 0x4 DUP1 CALLDATASIZE SUB DUP2 ADD SWAP1 PUSH2 0x71F SWAP2 SWAP1 PUSH2 0x523D JUMP JUMPDEST PUSH2 0x216A JUMP JUMPDEST PUSH1 0x40 MLOAD PUSH2 0x733 SWAP4 SWAP3 SWAP2 SWAP1 PUSH2 0x54BA JUMP JUMPDEST PUSH1 0x40 MLOAD DUP1 SWAP2 SUB SWAP1 RETURN JUMPDEST PUSH2 0x744 PUSH2 0x221A JUMP JUMPDEST PUSH1 0x40 MLOAD PUSH2 0x751 SWAP2 SWAP1 PUSH2 0x4EB1 JUMP JUMPDEST PUSH1 0x40 MLOAD DUP1 SWAP2 SUB SWAP1 RETURN JUMPDEST PUSH2 0x762 PUSH2 0x223E JUMP JUMPDEST PUSH1 0x40 MLOAD PUSH2 0x76F SWAP2 SWAP1 PUSH2 0x4F3B JUMP JUMPDEST PUSH1 0x40 MLOAD DUP1 SWAP2 SUB SWAP1 RETURN JUMPDEST PUSH2 0x792 PUSH1 0x4 DUP1 CALLDATASIZE SUB DUP2 ADD SWAP1 PUSH2 0x78D SWAP2 SWAP1 PUSH2 0x523D JUMP JUMPDEST PUSH2 0x22C2 JUMP JUMPDEST PUSH1 0x40 MLOAD PUSH2 0x7A0 SWAP3 SWAP2 SWAP1 PUSH2 0x54F8 JUMP JUMPDEST PUSH1 0x40 MLOAD DUP1 SWAP2 SUB SWAP1 RETURN JUMPDEST PUSH2 0x7C3 PUSH1 0x4 DUP1 CALLDATASIZE SUB DUP2 ADD SWAP1 PUSH2 0x7BE SWAP2 SWAP1 PUSH2 0x49EA JUMP JUMPDEST PUSH2 0x2440 JUMP JUMPDEST PUSH1 0x40 MLOAD PUSH2 0x7D0 SWAP2 SWAP1 PUSH2 0x4CF8 JUMP JUMPDEST PUSH1 0x40 MLOAD DUP1 SWAP2 SUB SWAP1 RETURN JUMPDEST PUSH1 0x0 PUSH32 0x7965DB0B00000000000000000000000000000000000000000000000000000000 PUSH28 0xFFFFFFFFFFFFFFFFFFFFFFFFFFFFFFFFFFFFFFFFFFFFFFFFFFFFFFFF NOT AND DUP3 PUSH28 0xFFFFFFFFFFFFFFFFFFFFFFFFFFFFFFFFFFFFFFFFFFFFFFFFFFFFFFFF NOT AND EQ DUP1 PUSH2 0x84C JUMPI POP PUSH2 0x84B DUP3 PUSH2 0x2464 JUMP JUMPDEST JUMPDEST SWAP1 POP SWAP2 SWAP1 POP JUMP JUMPDEST PUSH1 0x9 DUP2 DUP2 SLOAD DUP2 LT PUSH2 0x863 JUMPI PUSH1 0x0 DUP1 REVERT JUMPDEST SWAP1 PUSH1 0x0 MSTORE PUSH1 0x20 PUSH1 0x0 KECCAK256 SWAP1 PUSH1 0x8 SWAP2 DUP3 DUP3 DIV ADD SWAP2 SWAP1 MOD PUSH1 0x4 MUL SWAP2 POP SLOAD SWAP1 PUSH2 0x100 EXP SWAP1 DIV PUSH4 0xFFFFFFFF AND DUP2 JUMP JUMPDEST PUSH2 0x895 PUSH2 0x462C JUMP JUMPDEST PUSH1 0x5 PUSH1 0x0 DUP4 DUP2 MSTORE PUSH1 0x20 ADD SWAP1 DUP2 MSTORE PUSH1 0x20 ADD PUSH1 0x0 KECCAK256 PUSH1 0x40 MLOAD DUP1 PUSH1 0xE0 ADD PUSH1 0x40 MSTORE SWAP1 DUP2 PUSH1 0x0 DUP3 ADD PUSH1 0x0 SWAP1 SLOAD SWAP1 PUSH2 0x100 EXP SWAP1 DIV PUSH1 0xFF AND ISZERO ISZERO ISZERO ISZERO DUP2 MSTORE PUSH1 0x20 ADD PUSH1 0x0 DUP3 ADD PUSH1 0x1 SWAP1 SLOAD SWAP1 PUSH2 0x100 EXP SWAP1 DIV PUSH1 0xFF AND ISZERO ISZERO ISZERO ISZERO DUP2 MSTORE PUSH1 0x20 ADD PUSH1 0x0 DUP3 ADD PUSH1 0x2 SWAP1 SLOAD SWAP1 PUSH2 0x100 EXP SWAP1 DIV PUSH1 0xFF AND ISZERO ISZERO ISZERO ISZERO DUP2 MSTORE PUSH1 0x20 ADD PUSH1 0x0 DUP3 ADD PUSH1 0x3 SWAP1 SLOAD SWAP1 PUSH2 0x100 EXP SWAP1 DIV PUSH20 0xFFFFFFFFFFFFFFFFFFFFFFFFFFFFFFFFFFFFFFFF AND PUSH20 0xFFFFFFFFFFFFFFFFFFFFFFFFFFFFFFFFFFFFFFFF AND PUSH20 0xFFFFFFFFFFFFFFFFFFFFFFFFFFFFFFFFFFFFFFFF AND DUP2 MSTORE PUSH1 0x20 ADD PUSH1 0x1 DUP3 ADD DUP1 SLOAD DUP1 PUSH1 0x20 MUL PUSH1 0x20 ADD PUSH1 0x40 MLOAD SWAP1 DUP2 ADD PUSH1 0x40 MSTORE DUP1 SWAP3 SWAP2 SWAP1 DUP2 DUP2 MSTORE PUSH1 0x20 ADD DUP3 DUP1 SLOAD DUP1 ISZERO PUSH2 0x9D5 JUMPI PUSH1 0x20 MUL DUP3 ADD SWAP2 SWAP1 PUSH1 0x0 MSTORE PUSH1 0x20 PUSH1 0x0 KECCAK256 SWAP1 PUSH1 0x0 SWAP1 JUMPDEST DUP3 DUP3 SWAP1 SLOAD SWAP1 PUSH2 0x100 EXP SWAP1 DIV PUSH4 0xFFFFFFFF AND PUSH4 0xFFFFFFFF AND DUP2 MSTORE PUSH1 0x20 ADD SWAP1 PUSH1 0x4 ADD SWAP1 PUSH1 0x20 DUP3 PUSH1 0x3 ADD DIV SWAP3 DUP4 ADD SWAP3 PUSH1 0x1 SUB DUP3 MUL SWAP2 POP DUP1 DUP5 GT PUSH2 0x998 JUMPI SWAP1 POP JUMPDEST POP POP POP POP POP DUP2 MSTORE PUSH1 0x20 ADD PUSH1 0x2 DUP3 ADD DUP1 SLOAD DUP1 PUSH1 0x20 MUL PUSH1 0x20 ADD PUSH1 0x40 MLOAD SWAP1 DUP2 ADD PUSH1 0x40 MSTORE DUP1 SWAP3 SWAP2 SWAP1 DUP2 DUP2 MSTORE PUSH1 0x20 ADD DUP3 DUP1 SLOAD DUP1 ISZERO PUSH2 0xA59 JUMPI PUSH1 0x20 MUL DUP3 ADD SWAP2 SWAP1 PUSH1 0x0 MSTORE PUSH1 0x20 PUSH1 0x0 KECCAK256 SWAP1 PUSH1 0x0 SWAP1 JUMPDEST DUP3 DUP3 SWAP1 SLOAD SWAP1 PUSH2 0x100 EXP SWAP1 DIV PUSH4 0xFFFFFFFF AND PUSH4 0xFFFFFFFF AND DUP2 MSTORE PUSH1 0x20 ADD SWAP1 PUSH1 0x4 ADD SWAP1 PUSH1 0x20 DUP3 PUSH1 0x3 ADD DIV SWAP3 DUP4 ADD SWAP3 PUSH1 0x1 SUB DUP3 MUL SWAP2 POP DUP1 DUP5 GT PUSH2 0xA1C JUMPI SWAP1 POP JUMPDEST POP POP POP POP POP DUP2 MSTORE PUSH1 0x20 ADD PUSH1 0x3 DUP3 ADD DUP1 SLOAD DUP1 PUSH1 0x20 MUL PUSH1 0x20 ADD PUSH1 0x40 MLOAD SWAP1 DUP2 ADD PUSH1 0x40 MSTORE DUP1 SWAP3 SWAP2 SWAP1 DUP2 DUP2 MSTORE PUSH1 0x20 ADD DUP3 DUP1 SLOAD DUP1 ISZERO PUSH2 0xAB1 JUMPI PUSH1 0x20 MUL DUP3 ADD SWAP2 SWAP1 PUSH1 0x0 MSTORE PUSH1 0x20 PUSH1 0x0 KECCAK256 SWAP1 JUMPDEST DUP2 SLOAD DUP2 MSTORE PUSH1 0x20 ADD SWAP1 PUSH1 0x1 ADD SWAP1 DUP1 DUP4 GT PUSH2 0xA9D JUMPI JUMPDEST POP POP POP POP POP DUP2 MSTORE POP POP SWAP1 POP SWAP2 SWAP1 POP JUMP JUMPDEST PUSH1 0x0 PUSH1 0xC PUSH1 0x6 SLOAD DUP2 SLOAD DUP2 LT PUSH2 0xAD9 JUMPI PUSH2 0xAD8 PUSH2 0x552F JUMP JUMPDEST JUMPDEST SWAP1 PUSH1 0x0 MSTORE PUSH1 0x20 PUSH1 0x0 KECCAK256 ADD SLOAD SWAP1 POP SWAP1 JUMP JUMPDEST PUSH32 0x241ECF16D79D0F8DBFB92CBC07FE17840425976CF0667F022FE9877CAA831B08 PUSH2 0xB13 DUP2 PUSH2 0x24CE JUMP JUMPDEST PUSH1 0x0 PUSH1 0xB DUP1 SLOAD SWAP1 POP SUB PUSH2 0xB52 JUMPI PUSH1 0x40 MLOAD PUSH32 0x775ADE0100000000000000000000000000000000000000000000000000000000 DUP2 MSTORE PUSH1 0x4 ADD PUSH1 0x40 MLOAD DUP1 SWAP2 SUB SWAP1 REVERT JUMPDEST DUP3 DUP3 SWAP1 POP PUSH1 0xB DUP1 SLOAD SWAP1 POP EQ PUSH2 0xB93 JUMPI PUSH1 0x40 MLOAD PUSH32 0xCC28991800000000000000000000000000000000000000000000000000000000 DUP2 MSTORE PUSH1 0x4 ADD PUSH1 0x40 MLOAD DUP1 SWAP2 SUB SWAP1 REVERT JUMPDEST DUP3 DUP3 PUSH1 0x9 SWAP2 SWAP1 PUSH2 0xBA4 SWAP3 SWAP2 SWAP1 PUSH2 0x4685 JUMP JUMPDEST POP DUP3 DUP3 PUSH1 0xA SWAP2 SWAP1 PUSH2 0xBB6 SWAP3 SWAP2 SWAP1 PUSH2 0x4685 JUMP JUMPDEST POP PUSH32 0x8BAF124FB435347A873AFB6512246F2FAE8E3FD69D4689513BEF69293C84C29B DUP4 DUP4 PUSH1 0x40 MLOAD PUSH2 0xBE8 SWAP3 SWAP2 SWAP1 PUSH2 0x55E9 JUMP JUMPDEST PUSH1 0x40 MLOAD DUP1 SWAP2 SUB SWAP1 LOG1 POP POP POP JUMP JUMPDEST PUSH1 0x2 PUSH1 0x0 SWAP1 SLOAD SWAP1 PUSH2 0x100 EXP SWAP1 DIV PUSH20 0xFFFFFFFFFFFFFFFFFFFFFFFFFFFFFFFFFFFFFFFF AND DUP2 JUMP JUMPDEST PUSH1 0x0 DUP1 PUSH1 0x0 DUP4 DUP2 MSTORE PUSH1 0x20 ADD SWAP1 DUP2 MSTORE PUSH1 0x20 ADD PUSH1 0x0 KECCAK256 PUSH1 0x1 ADD SLOAD SWAP1 POP SWAP2 SWAP1 POP JUMP JUMPDEST PUSH1 0x60 PUSH1 0x7 DUP1 SLOAD DUP1 PUSH1 0x20 MUL PUSH1 0x20 ADD PUSH1 0x40 MLOAD SWAP1 DUP2 ADD PUSH1 0x40 MSTORE DUP1 SWAP3 SWAP2 SWAP1 DUP2 DUP2 MSTORE PUSH1 0x20 ADD DUP3 DUP1 SLOAD DUP1 ISZERO PUSH2 0xCB4 JUMPI PUSH1 0x20 MUL DUP3 ADD SWAP2 SWAP1 PUSH1 0x0 MSTORE PUSH1 0x20 PUSH1 0x0 KECCAK256 SWAP1 PUSH1 0x0 SWAP1 JUMPDEST DUP3 DUP3 SWAP1 SLOAD SWAP1 PUSH2 0x100 EXP SWAP1 DIV PUSH4 0xFFFFFFFF AND PUSH4 0xFFFFFFFF AND DUP2 MSTORE PUSH1 0x20 ADD SWAP1 PUSH1 0x4 ADD SWAP1 PUSH1 0x20 DUP3 PUSH1 0x3 ADD DIV SWAP3 DUP4 ADD SWAP3 PUSH1 0x1 SUB DUP3 MUL SWAP2 POP DUP1 DUP5 GT PUSH2 0xC77 JUMPI SWAP1 POP JUMPDEST POP POP POP POP POP SWAP1 POP SWAP1 JUMP JUMPDEST PUSH1 0x8 DUP2 DUP2 SLOAD DUP2 LT PUSH2 0xCCE JUMPI PUSH1 0x0 DUP1 REVERT JUMPDEST SWAP1 PUSH1 0x0 MSTORE PUSH1 0x20 PUSH1 0x0 KECCAK256 SWAP1 PUSH1 0x8 SWAP2 DUP3 DUP3 DIV ADD SWAP2 SWAP1 MOD PUSH1 0x4 MUL SWAP2 POP SLOAD SWAP1 PUSH2 0x100 EXP SWAP1 DIV PUSH4 0xFFFFFFFF AND DUP2 JUMP JUMPDEST PUSH2 0xD01 DUP3 PUSH2 0xC1B JUMP JUMPDEST PUSH2 0xD0A DUP2 PUSH2 0x24CE JUMP JUMPDEST PUSH2 0xD14 DUP4 DUP4 PUSH2 0x24E2 JUMP JUMPDEST POP POP POP POP JUMP JUMPDEST PUSH2 0xD22 PUSH2 0x25D3 JUMP JUMPDEST PUSH20 0xFFFFFFFFFFFFFFFFFFFFFFFFFFFFFFFFFFFFFFFF AND DUP2 PUSH20 0xFFFFFFFFFFFFFFFFFFFFFFFFFFFFFFFFFFFFFFFF AND EQ PUSH2 0xD86 JUMPI PUSH1 0x40 MLOAD PUSH32 0x6697B23200000000000000000000000000000000000000000000000000000000 DUP2 MSTORE PUSH1 0x4 ADD PUSH1 0x40 MLOAD DUP1 SWAP2 SUB SWAP1 REVERT JUMPDEST PUSH2 0xD90 DUP3 DUP3 PUSH2 0x25DB JUMP JUMPDEST POP POP POP JUMP JUMPDEST PUSH1 0x2 PUSH1 0x0 SWAP1 SLOAD SWAP1 PUSH2 0x100 EXP SWAP1 DIV PUSH20 0xFFFFFFFFFFFFFFFFFFFFFFFFFFFFFFFFFFFFFFFF AND PUSH20 0xFFFFFFFFFFFFFFFFFFFFFFFFFFFFFFFFFFFFFFFF AND PUSH4 0x12D9A6AD PUSH1 0x2 PUSH1 0x0 SWAP1 SLOAD SWAP1 PUSH2 0x100 EXP SWAP1 DIV PUSH20 0xFFFFFFFFFFFFFFFFFFFFFFFFFFFFFFFFFFFFFFFF AND PUSH20 0xFFFFFFFFFFFFFFFFFFFFFFFFFFFFFFFFFFFFFFFF AND PUSH4 0xA126285B PUSH1 0x40 MLOAD DUP2 PUSH4 0xFFFFFFFF AND PUSH1 0xE0 SHL DUP2 MSTORE PUSH1 0x4 ADD PUSH1 0x20 PUSH1 0x40 MLOAD DUP1 DUP4 SUB DUP2 DUP7 GAS STATICCALL ISZERO DUP1 ISZERO PUSH2 0xE40 JUMPI RETURNDATASIZE PUSH1 0x0 DUP1 RETURNDATACOPY RETURNDATASIZE PUSH1 0x0 REVERT JUMPDEST POP POP POP POP PUSH1 0x40 MLOAD RETURNDATASIZE PUSH1 0x1F NOT PUSH1 0x1F DUP3 ADD AND DUP3 ADD DUP1 PUSH1 0x40 MSTORE POP DUP2 ADD SWAP1 PUSH2 0xE64 SWAP2 SWAP1 PUSH2 0x5622 JUMP JUMPDEST CALLER PUSH1 0x40 MLOAD DUP4 PUSH4 0xFFFFFFFF AND PUSH1 0xE0 SHL DUP2 MSTORE PUSH1 0x4 ADD PUSH2 0xE82 SWAP3 SWAP2 SWAP1 PUSH2 0x564F JUMP JUMPDEST PUSH1 0x0 PUSH1 0x40 MLOAD DUP1 DUP4 SUB DUP2 DUP7 DUP1 EXTCODESIZE ISZERO DUP1 ISZERO PUSH2 0xE9A JUMPI PUSH1 0x0 DUP1 REVERT JUMPDEST POP GAS STATICCALL ISZERO DUP1 ISZERO PUSH2 0xEAE JUMPI RETURNDATASIZE PUSH1 0x0 DUP1 RETURNDATACOPY RETURNDATASIZE PUSH1 0x0 REVERT JUMPDEST POP POP POP POP PUSH1 0x0 PUSH1 0x5 PUSH1 0x0 DUP6 DUP2 MSTORE PUSH1 0x20 ADD SWAP1 DUP2 MSTORE PUSH1 0x20 ADD PUSH1 0x0 KECCAK256 SWAP1 POP DUP1 PUSH1 0x0 ADD PUSH1 0x0 SWAP1 SLOAD SWAP1 PUSH2 0x100 EXP SWAP1 DIV PUSH1 0xFF AND PUSH2 0xF1C JUMPI DUP4 PUSH1 0x40 MLOAD PUSH32 0x9A1CFBFD00000000000000000000000000000000000000000000000000000000 DUP2 MSTORE PUSH1 0x4 ADD PUSH2 0xF13 SWAP2 SWAP1 PUSH2 0x4CF8 JUMP JUMPDEST PUSH1 0x40 MLOAD DUP1 SWAP2 SUB SWAP1 REVERT JUMPDEST DUP1 PUSH1 0x0 ADD PUSH1 0x1 SWAP1 SLOAD SWAP1 PUSH2 0x100 EXP SWAP1 DIV PUSH1 0xFF AND ISZERO PUSH2 0xF70 JUMPI DUP4 PUSH1 0x40 MLOAD PUSH32 0x502746DC00000000000000000000000000000000000000000000000000000000 DUP2 MSTORE PUSH1 0x4 ADD PUSH2 0xF67 SWAP2 SWAP1 PUSH2 0x4CF8 JUMP JUMPDEST PUSH1 0x40 MLOAD DUP1 SWAP2 SUB SWAP1 REVERT JUMPDEST PUSH1 0x1 DUP2 PUSH1 0x0 ADD PUSH1 0x1 PUSH2 0x100 EXP DUP2 SLOAD DUP2 PUSH1 0xFF MUL NOT AND SWAP1 DUP4 ISZERO ISZERO MUL OR SWAP1 SSTORE POP DUP3 DUP3 DUP3 PUSH1 0x3 ADD SWAP2 SWAP1 PUSH2 0xFA0 SWAP3 SWAP2 SWAP1 PUSH2 0x473B JUMP JUMPDEST POP PUSH1 0x0 PUSH2 0xFAC DUP6 PUSH2 0x26CD JUMP JUMPDEST SWAP1 POP DUP2 PUSH1 0x0 ADD PUSH1 0x3 SWAP1 SLOAD SWAP1 PUSH2 0x100 EXP SWAP1 DIV PUSH20 0xFFFFFFFFFFFFFFFFFFFFFFFFFFFFFFFFFFFFFFFF AND PUSH20 0xFFFFFFFFFFFFFFFFFFFFFFFFFFFFFFFFFFFFFFFF AND DUP6 PUSH32 0x2AE888B0DD6538E85F4E2B0881B69BA8E4AF2EAD705E8B76D6F93B8FE6AC4A6A DUP4 PUSH1 0x40 MLOAD PUSH2 0x1019 SWAP2 SWAP1 PUSH2 0x50EE JUMP JUMPDEST PUSH1 0x40 MLOAD DUP1 SWAP2 SUB SWAP1 LOG3 POP POP POP POP POP JUMP JUMPDEST PUSH1 0x60 PUSH1 0xC DUP1 SLOAD DUP1 PUSH1 0x20 MUL PUSH1 0x20 ADD PUSH1 0x40 MLOAD SWAP1 DUP2 ADD PUSH1 0x40 MSTORE DUP1 SWAP3 SWAP2 SWAP1 DUP2 DUP2 MSTORE PUSH1 0x20 ADD DUP3 DUP1 SLOAD DUP1 ISZERO PUSH2 0x1076 JUMPI PUSH1 0x20 MUL DUP3 ADD SWAP2 SWAP1 PUSH1 0x0 MSTORE PUSH1 0x20 PUSH1 0x0 KECCAK256 SWAP1 JUMPDEST DUP2 SLOAD DUP2 MSTORE PUSH1 0x20 ADD SWAP1 PUSH1 0x1 ADD SWAP1 DUP1 DUP4 GT PUSH2 0x1062 JUMPI JUMPDEST POP POP POP POP POP SWAP1 POP SWAP1 JUMP JUMPDEST PUSH1 0x60 PUSH1 0x9 DUP1 SLOAD DUP1 PUSH1 0x20 MUL PUSH1 0x20 ADD PUSH1 0x40 MLOAD SWAP1 DUP2 ADD PUSH1 0x40 MSTORE DUP1 SWAP3 SWAP2 SWAP1 DUP2 DUP2 MSTORE PUSH1 0x20 ADD DUP3 DUP1 SLOAD DUP1 ISZERO PUSH2 0x10FA JUMPI PUSH1 0x20 MUL DUP3 ADD SWAP2 SWAP1 PUSH1 0x0 MSTORE PUSH1 0x20 PUSH1 0x0 KECCAK256 SWAP1 PUSH1 0x0 SWAP1 JUMPDEST DUP3 DUP3 SWAP1 SLOAD SWAP1 PUSH2 0x100 EXP SWAP1 DIV PUSH4 0xFFFFFFFF AND PUSH4 0xFFFFFFFF AND DUP2 MSTORE PUSH1 0x20 ADD SWAP1 PUSH1 0x4 ADD SWAP1 PUSH1 0x20 DUP3 PUSH1 0x3 ADD DIV SWAP3 DUP4 ADD SWAP3 PUSH1 0x1 SUB DUP3 MUL SWAP2 POP DUP1 DUP5 GT PUSH2 0x10BD JUMPI SWAP1 POP JUMPDEST POP POP POP POP POP SWAP1 POP SWAP1 JUMP JUMPDEST PUSH1 0xA DUP2 DUP2 SLOAD DUP2 LT PUSH2 0x1114 JUMPI PUSH1 0x0 DUP1 REVERT JUMPDEST SWAP1 PUSH1 0x0 MSTORE PUSH1 0x20 PUSH1 0x0 KECCAK256 SWAP1 PUSH1 0x8 SWAP2 DUP3 DUP3 DIV ADD SWAP2 SWAP1 MOD PUSH1 0x4 MUL SWAP2 POP SLOAD SWAP1 PUSH2 0x100 EXP SWAP1 DIV PUSH4 0xFFFFFFFF AND DUP2 JUMP JUMPDEST PUSH1 0xC DUP2 DUP2 SLOAD DUP2 LT PUSH2 0x114E JUMPI PUSH1 0x0 DUP1 REVERT JUMPDEST SWAP1 PUSH1 0x0 MSTORE PUSH1 0x20 PUSH1 0x0 KECCAK256 ADD PUSH1 0x0 SWAP2 POP SWAP1 POP SLOAD DUP2 JUMP JUMPDEST PUSH32 0x241ECF16D79D0F8DBFB92CBC07FE17840425976CF0667F022FE9877CAA831B08 PUSH2 0x118C DUP2 PUSH2 0x24CE JUMP JUMPDEST DUP3 DUP3 PUSH1 0xB SWAP2 SWAP1 PUSH2 0x119D SWAP3 SWAP2 SWAP1 PUSH2 0x473B JUMP JUMPDEST POP PUSH32 0x7DEB1779AF15E10714F572C4EC4AC6290B5E3132AF43085B2D7CB86F75024BBF DUP4 DUP4 PUSH1 0x40 MLOAD PUSH2 0x11CF SWAP3 SWAP2 SWAP1 PUSH2 0x56E2 JUMP JUMPDEST PUSH1 0x40 MLOAD DUP1 SWAP2 SUB SWAP1 LOG1 POP POP POP JUMP JUMPDEST PUSH32 0x241ECF16D79D0F8DBFB92CBC07FE17840425976CF0667F022FE9877CAA831B08 PUSH2 0x1206 DUP2 PUSH2 0x24CE JUMP JUMPDEST PUSH1 0x0 PUSH1 0x3 PUSH1 0x0 DUP7 PUSH4 0xFFFFFFFF AND PUSH4 0xFFFFFFFF AND DUP2 MSTORE PUSH1 0x20 ADD SWAP1 DUP2 MSTORE PUSH1 0x20 ADD PUSH1 0x0 KECCAK256 SWAP1 POP PUSH1 0xB DUP1 SLOAD SWAP1 POP DUP5 DUP5 SWAP1 POP EQ PUSH2 0x126A JUMPI PUSH1 0x40 MLOAD PUSH32 0xCC28991800000000000000000000000000000000000000000000000000000000 DUP2 MSTORE PUSH1 0x4 ADD PUSH1 0x40 MLOAD DUP1 SWAP2 SUB SWAP1 REVERT JUMPDEST DUP1 PUSH1 0x0 ADD PUSH1 0x0 SWAP1 SLOAD SWAP1 PUSH2 0x100 EXP SWAP1 DIV PUSH1 0xFF AND ISZERO PUSH2 0x12BE JUMPI DUP5 PUSH1 0x40 MLOAD PUSH32 0x6358BBE700000000000000000000000000000000000000000000000000000000 DUP2 MSTORE PUSH1 0x4 ADD PUSH2 0x12B5 SWAP2 SWAP1 PUSH2 0x4A36 JUMP JUMPDEST PUSH1 0x40 MLOAD DUP1 SWAP2 SUB SWAP1 REVERT JUMPDEST PUSH1 0x1 DUP2 PUSH1 0x0 ADD PUSH1 0x0 PUSH2 0x100 EXP DUP2 SLOAD DUP2 PUSH1 0xFF MUL NOT AND SWAP1 DUP4 ISZERO ISZERO MUL OR SWAP1 SSTORE POP PUSH2 0x12E5 DUP5 DUP5 PUSH2 0x2CA8 JUMP JUMPDEST DUP2 PUSH1 0x2 ADD PUSH1 0x0 DUP3 ADD MLOAD DUP2 PUSH1 0x0 ADD SSTORE PUSH1 0x20 DUP3 ADD MLOAD DUP2 PUSH1 0x1 ADD SWAP1 DUP1 MLOAD SWAP1 PUSH1 0x20 ADD SWAP1 PUSH2 0x130F SWAP3 SWAP2 SWAP1 PUSH2 0x4788 JUMP JUMPDEST POP SWAP1 POP POP PUSH2 0x131F DUP5 DUP5 SWAP1 POP PUSH2 0x2ED3 JUMP JUMPDEST DUP2 PUSH1 0x0 ADD PUSH1 0x1 PUSH2 0x100 EXP DUP2 SLOAD DUP2 PUSH1 0xFF MUL NOT AND SWAP1 DUP4 PUSH1 0xFF AND MUL OR SWAP1 SSTORE POP DUP4 DUP4 DUP3 PUSH1 0x1 ADD SWAP2 SWAP1 PUSH2 0x134E SWAP3 SWAP2 SWAP1 PUSH2 0x4685 JUMP JUMPDEST POP PUSH1 0x7 DUP6 SWAP1 DUP1 PUSH1 0x1 DUP2 SLOAD ADD DUP1 DUP3 SSTORE DUP1 SWAP2 POP POP PUSH1 0x1 SWAP1 SUB SWAP1 PUSH1 0x0 MSTORE PUSH1 0x20 PUSH1 0x0 KECCAK256 SWAP1 PUSH1 0x8 SWAP2 DUP3 DUP3 DIV ADD SWAP2 SWAP1 MOD PUSH1 0x4 MUL SWAP1 SWAP2 SWAP1 SWAP2 SWAP1 SWAP2 PUSH2 0x100 EXP DUP2 SLOAD DUP2 PUSH4 0xFFFFFFFF MUL NOT AND SWAP1 DUP4 PUSH4 0xFFFFFFFF AND MUL OR SWAP1 SSTORE POP PUSH32 0xCCFA93FC6DEE2F7A59E08BD1A7BCE043EDEC08BA7A9DAA51AA4BE9C95294ACD6 DUP6 PUSH1 0x40 MLOAD PUSH2 0x13CC SWAP2 SWAP1 PUSH2 0x4A36 JUMP JUMPDEST PUSH1 0x40 MLOAD DUP1 SWAP2 SUB SWAP1 LOG1 POP POP POP POP POP JUMP JUMPDEST PUSH1 0x5 PUSH1 0x20 MSTORE DUP1 PUSH1 0x0 MSTORE PUSH1 0x40 PUSH1 0x0 KECCAK256 PUSH1 0x0 SWAP2 POP SWAP1 POP DUP1 PUSH1 0x0 ADD PUSH1 0x0 SWAP1 SLOAD SWAP1 PUSH2 0x100 EXP SWAP1 DIV PUSH1 0xFF AND SWAP1 DUP1 PUSH1 0x0 ADD PUSH1 0x1 SWAP1 SLOAD SWAP1 PUSH2 0x100 EXP SWAP1 DIV PUSH1 0xFF AND SWAP1 DUP1 PUSH1 0x0 ADD PUSH1 0x2 SWAP1 SLOAD SWAP1 PUSH2 0x100 EXP SWAP1 DIV PUSH1 0xFF AND SWAP1 DUP1 PUSH1 0x0 ADD PUSH1 0x3 SWAP1 SLOAD SWAP1 PUSH2 0x100 EXP SWAP1 DIV PUSH20 0xFFFFFFFFFFFFFFFFFFFFFFFFFFFFFFFFFFFFFFFF AND SWAP1 POP DUP5 JUMP JUMPDEST PUSH1 0x4 PUSH1 0x20 MSTORE DUP1 PUSH1 0x0 MSTORE PUSH1 0x40 PUSH1 0x0 KECCAK256 PUSH1 0x0 SWAP2 POP SWAP1 POP DUP1 PUSH1 0x0 ADD PUSH1 0x0 SWAP1 SLOAD SWAP1 PUSH2 0x100 EXP SWAP1 DIV PUSH1 0xFF AND SWAP1 POP DUP2 JUMP JUMPDEST PUSH32 0x241ECF16D79D0F8DBFB92CBC07FE17840425976CF0667F022FE9877CAA831B08 PUSH2 0x14A7 DUP2 PUSH2 0x24CE JUMP JUMPDEST PUSH1 0x0 PUSH1 0x4 PUSH1 0x0 DUP9 PUSH4 0xFFFFFFFF AND PUSH4 0xFFFFFFFF AND DUP2 MSTORE PUSH1 0x20 ADD SWAP1 DUP2 MSTORE PUSH1 0x20 ADD PUSH1 0x0 KECCAK256 SWAP1 POP DUP4 DUP4 SWAP1 POP DUP7 DUP7 SWAP1 POP EQ PUSH2 0x1509 JUMPI PUSH1 0x40 MLOAD PUSH32 0xCC28991800000000000000000000000000000000000000000000000000000000 DUP2 MSTORE PUSH1 0x4 ADD PUSH1 0x40 MLOAD DUP1 SWAP2 SUB SWAP1 REVERT JUMPDEST DUP1 PUSH1 0x0 ADD PUSH1 0x0 SWAP1 SLOAD SWAP1 PUSH2 0x100 EXP SWAP1 DIV PUSH1 0xFF AND ISZERO PUSH2 0x155D JUMPI DUP7 PUSH1 0x40 MLOAD PUSH32 0x74AFA67A00000000000000000000000000000000000000000000000000000000 DUP2 MSTORE PUSH1 0x4 ADD PUSH2 0x1554 SWAP2 SWAP1 PUSH2 0x4A36 JUMP JUMPDEST PUSH1 0x40 MLOAD DUP1 SWAP2 SUB SWAP1 REVERT JUMPDEST PUSH2 0x1565 PUSH2 0x47D5 JUMP JUMPDEST PUSH1 0x0 JUMPDEST DUP8 DUP8 SWAP1 POP DUP2 PUSH4 0xFFFFFFFF AND LT ISZERO PUSH2 0x178A JUMPI PUSH1 0x3 PUSH1 0x0 DUP10 DUP10 DUP5 PUSH4 0xFFFFFFFF AND DUP2 DUP2 LT PUSH2 0x1596 JUMPI PUSH2 0x1595 PUSH2 0x552F JUMP JUMPDEST JUMPDEST SWAP1 POP PUSH1 0x20 MUL ADD PUSH1 0x20 DUP2 ADD SWAP1 PUSH2 0x15AB SWAP2 SWAP1 PUSH2 0x523D JUMP JUMPDEST PUSH4 0xFFFFFFFF AND PUSH4 0xFFFFFFFF AND DUP2 MSTORE PUSH1 0x20 ADD SWAP1 DUP2 MSTORE PUSH1 0x20 ADD PUSH1 0x0 KECCAK256 PUSH1 0x40 MLOAD DUP1 PUSH1 0x80 ADD PUSH1 0x40 MSTORE SWAP1 DUP2 PUSH1 0x0 DUP3 ADD PUSH1 0x0 SWAP1 SLOAD SWAP1 PUSH2 0x100 EXP SWAP1 DIV PUSH1 0xFF AND ISZERO ISZERO ISZERO ISZERO DUP2 MSTORE PUSH1 0x20 ADD PUSH1 0x0 DUP3 ADD PUSH1 0x1 SWAP1 SLOAD SWAP1 PUSH2 0x100 EXP SWAP1 DIV PUSH1 0xFF AND PUSH1 0xFF AND PUSH1 0xFF AND DUP2 MSTORE PUSH1 0x20 ADD PUSH1 0x1 DUP3 ADD DUP1 SLOAD DUP1 PUSH1 0x20 MUL PUSH1 0x20 ADD PUSH1 0x40 MLOAD SWAP1 DUP2 ADD PUSH1 0x40 MSTORE DUP1 SWAP3 SWAP2 SWAP1 DUP2 DUP2 MSTORE PUSH1 0x20 ADD DUP3 DUP1 SLOAD DUP1 ISZERO PUSH2 0x1683 JUMPI PUSH1 0x20 MUL DUP3 ADD SWAP2 SWAP1 PUSH1 0x0 MSTORE PUSH1 0x20 PUSH1 0x0 KECCAK256 SWAP1 PUSH1 0x0 SWAP1 JUMPDEST DUP3 DUP3 SWAP1 SLOAD SWAP1 PUSH2 0x100 EXP SWAP1 DIV PUSH4 0xFFFFFFFF AND PUSH4 0xFFFFFFFF AND DUP2 MSTORE PUSH1 0x20 ADD SWAP1 PUSH1 0x4 ADD SWAP1 PUSH1 0x20 DUP3 PUSH1 0x3 ADD DIV SWAP3 DUP4 ADD SWAP3 PUSH1 0x1 SUB DUP3 MUL SWAP2 POP DUP1 DUP5 GT PUSH2 0x1646 JUMPI SWAP1 POP JUMPDEST POP POP POP POP POP DUP2 MSTORE PUSH1 0x20 ADD PUSH1 0x2 DUP3 ADD PUSH1 0x40 MLOAD DUP1 PUSH1 0x40 ADD PUSH1 0x40 MSTORE SWAP1 DUP2 PUSH1 0x0 DUP3 ADD SLOAD DUP2 MSTORE PUSH1 0x20 ADD PUSH1 0x1 DUP3 ADD DUP1 SLOAD DUP1 PUSH1 0x20 MUL PUSH1 0x20 ADD PUSH1 0x40 MLOAD SWAP1 DUP2 ADD PUSH1 0x40 MSTORE DUP1 SWAP3 SWAP2 SWAP1 DUP2 DUP2 MSTORE PUSH1 0x20 ADD DUP3 DUP1 SLOAD DUP1 ISZERO PUSH2 0x16F5 JUMPI PUSH1 0x20 MUL DUP3 ADD SWAP2 SWAP1 PUSH1 0x0 MSTORE PUSH1 0x20 PUSH1 0x0 KECCAK256 SWAP1 JUMPDEST DUP2 SLOAD DUP2 MSTORE PUSH1 0x20 ADD SWAP1 PUSH1 0x1 ADD SWAP1 DUP1 DUP4 GT PUSH2 0x16E1 JUMPI JUMPDEST POP POP POP POP POP DUP2 MSTORE POP POP DUP2 MSTORE POP POP SWAP2 POP DUP2 PUSH1 0x0 ADD MLOAD PUSH2 0x1777 JUMPI DUP8 DUP8 DUP3 PUSH4 0xFFFFFFFF AND DUP2 DUP2 LT PUSH2 0x1726 JUMPI PUSH2 0x1725 PUSH2 0x552F JUMP JUMPDEST JUMPDEST SWAP1 POP PUSH1 0x20 MUL ADD PUSH1 0x20 DUP2 ADD SWAP1 PUSH2 0x173B SWAP2 SWAP1 PUSH2 0x523D JUMP JUMPDEST PUSH1 0x40 MLOAD PUSH32 0xEF38078000000000000000000000000000000000000000000000000000000000 DUP2 MSTORE PUSH1 0x4 ADD PUSH2 0x176E SWAP2 SWAP1 PUSH2 0x4A36 JUMP JUMPDEST PUSH1 0x40 MLOAD DUP1 SWAP2 SUB SWAP1 REVERT JUMPDEST DUP1 DUP1 PUSH2 0x1782 SWAP1 PUSH2 0x5735 JUMP JUMPDEST SWAP2 POP POP PUSH2 0x1568 JUMP JUMPDEST POP PUSH2 0x17D5 DUP6 DUP6 DUP1 DUP1 PUSH1 0x20 MUL PUSH1 0x20 ADD PUSH1 0x40 MLOAD SWAP1 DUP2 ADD PUSH1 0x40 MSTORE DUP1 SWAP4 SWAP3 SWAP2 SWAP1 DUP2 DUP2 MSTORE PUSH1 0x20 ADD DUP4 DUP4 PUSH1 0x20 MUL DUP1 DUP3 DUP5 CALLDATACOPY PUSH1 0x0 DUP2 DUP5 ADD MSTORE PUSH1 0x1F NOT PUSH1 0x1F DUP3 ADD AND SWAP1 POP DUP1 DUP4 ADD SWAP3 POP POP POP POP POP POP POP PUSH2 0x2F06 JUMP JUMPDEST DUP3 PUSH1 0x3 ADD SWAP1 DUP1 MLOAD SWAP1 PUSH1 0x20 ADD SWAP1 PUSH2 0x17EC SWAP3 SWAP2 SWAP1 PUSH2 0x4808 JUMP JUMPDEST POP PUSH1 0x1 DUP3 PUSH1 0x0 ADD PUSH1 0x0 PUSH2 0x100 EXP DUP2 SLOAD DUP2 PUSH1 0xFF MUL NOT AND SWAP1 DUP4 ISZERO ISZERO MUL OR SWAP1 SSTORE POP DUP7 DUP7 DUP4 PUSH1 0x1 ADD SWAP2 SWAP1 PUSH2 0x181D SWAP3 SWAP2 SWAP1 PUSH2 0x4685 JUMP JUMPDEST POP DUP5 DUP5 DUP4 PUSH1 0x2 ADD SWAP2 SWAP1 PUSH2 0x1831 SWAP3 SWAP2 SWAP1 PUSH2 0x4685 JUMP JUMPDEST POP PUSH1 0x8 DUP9 SWAP1 DUP1 PUSH1 0x1 DUP2 SLOAD ADD DUP1 DUP3 SSTORE DUP1 SWAP2 POP POP PUSH1 0x1 SWAP1 SUB SWAP1 PUSH1 0x0 MSTORE PUSH1 0x20 PUSH1 0x0 KECCAK256 SWAP1 PUSH1 0x8 SWAP2 DUP3 DUP3 DIV ADD SWAP2 SWAP1 MOD PUSH1 0x4 MUL SWAP1 SWAP2 SWAP1 SWAP2 SWAP1 SWAP2 PUSH2 0x100 EXP DUP2 SLOAD DUP2 PUSH4 0xFFFFFFFF MUL NOT AND SWAP1 DUP4 PUSH4 0xFFFFFFFF AND MUL OR SWAP1 SSTORE POP PUSH32 0x83B611E3A9F3EBEA1FA1254D2C7535BD0733ED9B76A5A2B0DA450D5BA399ECBD DUP9 PUSH1 0x40 MLOAD PUSH2 0x18AF SWAP2 SWAP1 PUSH2 0x4A36 JUMP JUMPDEST PUSH1 0x40 MLOAD DUP1 SWAP2 SUB SWAP1 LOG1 POP POP POP POP POP POP POP POP JUMP JUMPDEST PUSH1 0x6 SLOAD DUP2 JUMP JUMPDEST PUSH1 0x2 PUSH1 0x0 SWAP1 SLOAD SWAP1 PUSH2 0x100 EXP SWAP1 DIV PUSH20 0xFFFFFFFFFFFFFFFFFFFFFFFFFFFFFFFFFFFFFFFF AND PUSH20 0xFFFFFFFFFFFFFFFFFFFFFFFFFFFFFFFFFFFFFFFF AND PUSH4 0x12D9A6AD PUSH1 0x2 PUSH1 0x0 SWAP1 SLOAD SWAP1 PUSH2 0x100 EXP SWAP1 DIV PUSH20 0xFFFFFFFFFFFFFFFFFFFFFFFFFFFFFFFFFFFFFFFF AND PUSH20 0xFFFFFFFFFFFFFFFFFFFFFFFFFFFFFFFFFFFFFFFF AND PUSH4 0xF46F16C2 PUSH1 0x40 MLOAD DUP2 PUSH4 0xFFFFFFFF AND PUSH1 0xE0 SHL DUP2 MSTORE PUSH1 0x4 ADD PUSH1 0x20 PUSH1 0x40 MLOAD DUP1 DUP4 SUB DUP2 DUP7 GAS STATICCALL ISZERO DUP1 ISZERO PUSH2 0x1972 JUMPI RETURNDATASIZE PUSH1 0x0 DUP1 RETURNDATACOPY RETURNDATASIZE PUSH1 0x0 REVERT JUMPDEST POP POP POP POP PUSH1 0x40 MLOAD RETURNDATASIZE PUSH1 0x1F NOT PUSH1 0x1F DUP3 ADD AND DUP3 ADD DUP1 PUSH1 0x40 MSTORE POP DUP2 ADD SWAP1 PUSH2 0x1996 SWAP2 SWAP1 PUSH2 0x5622 JUMP JUMPDEST CALLER PUSH1 0x40 MLOAD DUP4 PUSH4 0xFFFFFFFF AND PUSH1 0xE0 SHL DUP2 MSTORE PUSH1 0x4 ADD PUSH2 0x19B4 SWAP3 SWAP2 SWAP1 PUSH2 0x564F JUMP JUMPDEST PUSH1 0x0 PUSH1 0x40 MLOAD DUP1 DUP4 SUB DUP2 DUP7 DUP1 EXTCODESIZE ISZERO DUP1 ISZERO PUSH2 0x19CC JUMPI PUSH1 0x0 DUP1 REVERT JUMPDEST POP GAS STATICCALL ISZERO DUP1 ISZERO PUSH2 0x19E0 JUMPI RETURNDATASIZE PUSH1 0x0 DUP1 RETURNDATACOPY RETURNDATASIZE PUSH1 0x0 REVERT JUMPDEST POP POP POP POP PUSH1 0x0 DUP6 SWAP1 POP PUSH1 0x0 PUSH1 0x2 PUSH1 0x0 SWAP1 SLOAD SWAP1 PUSH2 0x100 EXP SWAP1 DIV PUSH20 0xFFFFFFFFFFFFFFFFFFFFFFFFFFFFFFFFFFFFFFFF AND PUSH20 0xFFFFFFFFFFFFFFFFFFFFFFFFFFFFFFFFFFFFFFFF AND PUSH4 0xE16C7D98 PUSH1 0x2 PUSH1 0x0 SWAP1 SLOAD SWAP1 PUSH2 0x100 EXP SWAP1 DIV PUSH20 0xFFFFFFFFFFFFFFFFFFFFFFFFFFFFFFFFFFFFFFFF AND PUSH20 0xFFFFFFFFFFFFFFFFFFFFFFFFFFFFFFFFFFFFFFFF AND PUSH4 0xA126285B PUSH1 0x40 MLOAD DUP2 PUSH4 0xFFFFFFFF AND PUSH1 0xE0 SHL DUP2 MSTORE PUSH1 0x4 ADD PUSH1 0x20 PUSH1 0x40 MLOAD DUP1 DUP4 SUB DUP2 DUP7 GAS STATICCALL ISZERO DUP1 ISZERO PUSH2 0x1A96 JUMPI RETURNDATASIZE PUSH1 0x0 DUP1 RETURNDATACOPY RETURNDATASIZE PUSH1 0x0 REVERT JUMPDEST POP POP POP POP PUSH1 0x40 MLOAD RETURNDATASIZE PUSH1 0x1F NOT PUSH1 0x1F DUP3 ADD AND DUP3 ADD DUP1 PUSH1 0x40 MSTORE POP DUP2 ADD SWAP1 PUSH2 0x1ABA SWAP2 SWAP1 PUSH2 0x5622 JUMP JUMPDEST PUSH1 0x40 MLOAD DUP3 PUSH4 0xFFFFFFFF AND PUSH1 0xE0 SHL DUP2 MSTORE PUSH1 0x4 ADD PUSH2 0x1AD6 SWAP2 SWAP1 PUSH2 0x4EB1 JUMP JUMPDEST PUSH1 0x20 PUSH1 0x40 MLOAD DUP1 DUP4 SUB DUP2 DUP7 GAS STATICCALL ISZERO DUP1 ISZERO PUSH2 0x1AF3 JUMPI RETURNDATASIZE PUSH1 0x0 DUP1 RETURNDATACOPY RETURNDATASIZE PUSH1 0x0 REVERT JUMPDEST POP POP POP POP PUSH1 0x40 MLOAD RETURNDATASIZE PUSH1 0x1F NOT PUSH1 0x1F DUP3 ADD AND DUP3 ADD DUP1 PUSH1 0x40 MSTORE POP DUP2 ADD SWAP1 PUSH2 0x1B17 SWAP2 SWAP1 PUSH2 0x5776 JUMP JUMPDEST SWAP1 POP PUSH1 0x0 DUP2 PUSH20 0xFFFFFFFFFFFFFFFFFFFFFFFFFFFFFFFFFFFFFFFF AND PUSH4 0x80C95B14 DUP5 PUSH1 0x40 MLOAD DUP3 PUSH4 0xFFFFFFFF AND PUSH1 0xE0 SHL DUP2 MSTORE PUSH1 0x4 ADD PUSH2 0x1B54 SWAP2 SWAP1 PUSH2 0x57A3 JUMP JUMPDEST PUSH1 0x20 PUSH1 0x40 MLOAD DUP1 DUP4 SUB DUP2 PUSH1 0x0 DUP8 GAS CALL ISZERO DUP1 ISZERO PUSH2 0x1B73 JUMPI RETURNDATASIZE PUSH1 0x0 DUP1 RETURNDATACOPY RETURNDATASIZE PUSH1 0x0 REVERT JUMPDEST POP POP POP POP PUSH1 0x40 MLOAD RETURNDATASIZE PUSH1 0x1F NOT PUSH1 0x1F DUP3 ADD AND DUP3 ADD DUP1 PUSH1 0x40 MSTORE POP DUP2 ADD SWAP1 PUSH2 0x1B97 SWAP2 SWAP1 PUSH2 0x57D3 JUMP JUMPDEST SWAP1 POP PUSH1 0x0 PUSH1 0x5 PUSH1 0x0 DUP4 DUP2 MSTORE PUSH1 0x20 ADD SWAP1 DUP2 MSTORE PUSH1 0x20 ADD PUSH1 0x0 KECCAK256 SWAP1 POP PUSH1 0x1 DUP2 PUSH1 0x0 ADD PUSH1 0x0 PUSH2 0x100 EXP DUP2 SLOAD DUP2 PUSH1 0xFF MUL NOT AND SWAP1 DUP4 ISZERO ISZERO MUL OR SWAP1 SSTORE POP DUP4 DUP2 PUSH1 0x0 ADD PUSH1 0x3 PUSH2 0x100 EXP DUP2 SLOAD DUP2 PUSH20 0xFFFFFFFFFFFFFFFFFFFFFFFFFFFFFFFFFFFFFFFF MUL NOT AND SWAP1 DUP4 PUSH20 0xFFFFFFFFFFFFFFFFFFFFFFFFFFFFFFFFFFFFFFFF AND MUL OR SWAP1 SSTORE POP DUP8 DUP8 DUP3 PUSH1 0x1 ADD SWAP2 SWAP1 PUSH2 0x1C23 SWAP3 SWAP2 SWAP1 PUSH2 0x4685 JUMP JUMPDEST POP DUP6 DUP6 DUP3 PUSH1 0x2 ADD SWAP2 SWAP1 PUSH2 0x1C37 SWAP3 SWAP2 SWAP1 PUSH2 0x4685 JUMP JUMPDEST POP PUSH1 0xC DUP3 SWAP1 DUP1 PUSH1 0x1 DUP2 SLOAD ADD DUP1 DUP3 SSTORE DUP1 SWAP2 POP POP PUSH1 0x1 SWAP1 SUB SWAP1 PUSH1 0x0 MSTORE PUSH1 0x20 PUSH1 0x0 KECCAK256 ADD PUSH1 0x0 SWAP1 SWAP2 SWAP1 SWAP2 SWAP1 SWAP2 POP SSTORE DUP2 PUSH32 0x48B98AD7A8A8DBE21CC82BF98710AD4D2CDD949CCAC393692E4D9A1722C162C7 DUP6 PUSH1 0x40 MLOAD PUSH2 0x1C91 SWAP2 SWAP1 PUSH2 0x57A3 JUMP JUMPDEST PUSH1 0x40 MLOAD DUP1 SWAP2 SUB SWAP1 LOG2 POP POP POP POP POP POP POP POP POP JUMP JUMPDEST JUMP JUMPDEST PUSH1 0x7 DUP2 DUP2 SLOAD DUP2 LT PUSH2 0x1CB6 JUMPI PUSH1 0x0 DUP1 REVERT JUMPDEST SWAP1 PUSH1 0x0 MSTORE PUSH1 0x20 PUSH1 0x0 KECCAK256 SWAP1 PUSH1 0x8 SWAP2 DUP3 DUP3 DIV ADD SWAP2 SWAP1 MOD PUSH1 0x4 MUL SWAP2 POP SLOAD SWAP1 PUSH2 0x100 EXP SWAP1 DIV PUSH4 0xFFFFFFFF AND DUP2 JUMP JUMPDEST PUSH1 0x0 DUP1 PUSH1 0x0 DUP1 PUSH1 0x0 JUMPDEST PUSH1 0xB DUP1 SLOAD SWAP1 POP DUP2 LT ISZERO PUSH2 0x1DAD JUMPI DUP6 PUSH1 0xB DUP3 DUP2 SLOAD DUP2 LT PUSH2 0x1D0B JUMPI PUSH2 0x1D0A PUSH2 0x552F JUMP JUMPDEST JUMPDEST SWAP1 PUSH1 0x0 MSTORE PUSH1 0x20 PUSH1 0x0 KECCAK256 ADD SLOAD SUB PUSH2 0x1DA0 JUMPI PUSH1 0x1 DUP2 PUSH1 0x9 DUP4 DUP2 SLOAD DUP2 LT PUSH2 0x1D32 JUMPI PUSH2 0x1D31 PUSH2 0x552F JUMP JUMPDEST JUMPDEST SWAP1 PUSH1 0x0 MSTORE PUSH1 0x20 PUSH1 0x0 KECCAK256 SWAP1 PUSH1 0x8 SWAP2 DUP3 DUP3 DIV ADD SWAP2 SWAP1 MOD PUSH1 0x4 MUL SWAP1 SLOAD SWAP1 PUSH2 0x100 EXP SWAP1 DIV PUSH4 0xFFFFFFFF AND PUSH1 0xA DUP5 DUP2 SLOAD DUP2 LT PUSH2 0x1D6C JUMPI PUSH2 0x1D6B PUSH2 0x552F JUMP JUMPDEST JUMPDEST SWAP1 PUSH1 0x0 MSTORE PUSH1 0x20 PUSH1 0x0 KECCAK256 SWAP1 PUSH1 0x8 SWAP2 DUP3 DUP3 DIV ADD SWAP2 SWAP1 MOD PUSH1 0x4 MUL SWAP1 SLOAD SWAP1 PUSH2 0x100 EXP SWAP1 DIV PUSH4 0xFFFFFFFF AND SWAP5 POP SWAP5 POP SWAP5 POP SWAP5 POP POP PUSH2 0x1DBD JUMP JUMPDEST DUP1 DUP1 PUSH1 0x1 ADD SWAP2 POP POP PUSH2 0x1CE9 JUMP JUMPDEST POP PUSH1 0x0 DUP1 PUSH1 0x0 DUP1 SWAP4 POP SWAP4 POP SWAP4 POP SWAP4 POP JUMPDEST SWAP2 SWAP4 POP SWAP2 SWAP4 JUMP JUMPDEST PUSH1 0x0 DUP1 PUSH1 0x0 DUP5 DUP2 MSTORE PUSH1 0x20 ADD SWAP1 DUP2 MSTORE PUSH1 0x20 ADD PUSH1 0x0 KECCAK256 PUSH1 0x0 ADD PUSH1 0x0 DUP4 PUSH20 0xFFFFFFFFFFFFFFFFFFFFFFFFFFFFFFFFFFFFFFFF AND PUSH20 0xFFFFFFFFFFFFFFFFFFFFFFFFFFFFFFFFFFFFFFFF AND DUP2 MSTORE PUSH1 0x20 ADD SWAP1 DUP2 MSTORE PUSH1 0x20 ADD PUSH1 0x0 KECCAK256 PUSH1 0x0 SWAP1 SLOAD SWAP1 PUSH2 0x100 EXP SWAP1 DIV PUSH1 0xFF AND SWAP1 POP SWAP3 SWAP2 POP POP JUMP JUMPDEST PUSH1 0x0 DUP1 SHL DUP2 JUMP JUMPDEST PUSH1 0x60 DUP1 PUSH1 0x60 PUSH1 0x0 PUSH1 0x4 PUSH1 0x0 DUP7 PUSH4 0xFFFFFFFF AND PUSH4 0xFFFFFFFF AND DUP2 MSTORE PUSH1 0x20 ADD SWAP1 DUP2 MSTORE PUSH1 0x20 ADD PUSH1 0x0 KECCAK256 PUSH1 0x40 MLOAD DUP1 PUSH1 0x80 ADD PUSH1 0x40 MSTORE SWAP1 DUP2 PUSH1 0x0 DUP3 ADD PUSH1 0x0 SWAP1 SLOAD SWAP1 PUSH2 0x100 EXP SWAP1 DIV PUSH1 0xFF AND ISZERO ISZERO ISZERO ISZERO DUP2 MSTORE PUSH1 0x20 ADD PUSH1 0x1 DUP3 ADD DUP1 SLOAD DUP1 PUSH1 0x20 MUL PUSH1 0x20 ADD PUSH1 0x40 MLOAD SWAP1 DUP2 ADD PUSH1 0x40 MSTORE DUP1 SWAP3 SWAP2 SWAP1 DUP2 DUP2 MSTORE PUSH1 0x20 ADD DUP3 DUP1 SLOAD DUP1 ISZERO PUSH2 0x1EFC JUMPI PUSH1 0x20 MUL DUP3 ADD SWAP2 SWAP1 PUSH1 0x0 MSTORE PUSH1 0x20 PUSH1 0x0 KECCAK256 SWAP1 PUSH1 0x0 SWAP1 JUMPDEST DUP3 DUP3 SWAP1 SLOAD SWAP1 PUSH2 0x100 EXP SWAP1 DIV PUSH4 0xFFFFFFFF AND PUSH4 0xFFFFFFFF AND DUP2 MSTORE PUSH1 0x20 ADD SWAP1 PUSH1 0x4 ADD SWAP1 PUSH1 0x20 DUP3 PUSH1 0x3 ADD DIV SWAP3 DUP4 ADD SWAP3 PUSH1 0x1 SUB DUP3 MUL SWAP2 POP DUP1 DUP5 GT PUSH2 0x1EBF JUMPI SWAP1 POP JUMPDEST POP POP POP POP POP DUP2 MSTORE PUSH1 0x20 ADD PUSH1 0x2 DUP3 ADD DUP1 SLOAD DUP1 PUSH1 0x20 MUL PUSH1 0x20 ADD PUSH1 0x40 MLOAD SWAP1 DUP2 ADD PUSH1 0x40 MSTORE DUP1 SWAP3 SWAP2 SWAP1 DUP2 DUP2 MSTORE PUSH1 0x20 ADD DUP3 DUP1 SLOAD DUP1 ISZERO PUSH2 0x1F80 JUMPI PUSH1 0x20 MUL DUP3 ADD SWAP2 SWAP1 PUSH1 0x0 MSTORE PUSH1 0x20 PUSH1 0x0 KECCAK256 SWAP1 PUSH1 0x0 SWAP1 JUMPDEST DUP3 DUP3 SWAP1 SLOAD SWAP1 PUSH2 0x100 EXP SWAP1 DIV PUSH4 0xFFFFFFFF AND PUSH4 0xFFFFFFFF AND DUP2 MSTORE PUSH1 0x20 ADD SWAP1 PUSH1 0x4 ADD SWAP1 PUSH1 0x20 DUP3 PUSH1 0x3 ADD DIV SWAP3 DUP4 ADD SWAP3 PUSH1 0x1 SUB DUP3 MUL SWAP2 POP DUP1 DUP5 GT PUSH2 0x1F43 JUMPI SWAP1 POP JUMPDEST POP POP POP POP POP DUP2 MSTORE PUSH1 0x20 ADD PUSH1 0x3 DUP3 ADD DUP1 SLOAD DUP1 PUSH1 0x20 MUL PUSH1 0x20 ADD PUSH1 0x40 MLOAD SWAP1 DUP2 ADD PUSH1 0x40 MSTORE DUP1 SWAP3 SWAP2 SWAP1 DUP2 DUP2 MSTORE PUSH1 0x20 ADD DUP3 DUP1 SLOAD DUP1 ISZERO PUSH2 0x2004 JUMPI PUSH1 0x20 MUL DUP3 ADD SWAP2 SWAP1 PUSH1 0x0 MSTORE PUSH1 0x20 PUSH1 0x0 KECCAK256 SWAP1 PUSH1 0x0 SWAP1 JUMPDEST DUP3 DUP3 SWAP1 SLOAD SWAP1 PUSH2 0x100 EXP SWAP1 DIV PUSH4 0xFFFFFFFF AND PUSH4 0xFFFFFFFF AND DUP2 MSTORE PUSH1 0x20 ADD SWAP1 PUSH1 0x4 ADD SWAP1 PUSH1 0x20 DUP3 PUSH1 0x3 ADD DIV SWAP3 DUP4 ADD SWAP3 PUSH1 0x1 SUB DUP3 MUL SWAP2 POP DUP1 DUP5 GT PUSH2 0x1FC7 JUMPI SWAP1 POP JUMPDEST POP POP POP POP POP DUP2 MSTORE POP POP SWAP1 POP DUP1 PUSH1 0x20 ADD MLOAD DUP2 PUSH1 0x40 ADD MLOAD DUP3 PUSH1 0x60 ADD MLOAD SWAP4 POP SWAP4 POP SWAP4 POP POP SWAP2 SWAP4 SWAP1 SWAP3 POP JUMP JUMPDEST PUSH1 0x60 PUSH1 0x8 DUP1 SLOAD DUP1 PUSH1 0x20 MUL PUSH1 0x20 ADD PUSH1 0x40 MLOAD SWAP1 DUP2 ADD PUSH1 0x40 MSTORE DUP1 SWAP3 SWAP2 SWAP1 DUP2 DUP2 MSTORE PUSH1 0x20 ADD DUP3 DUP1 SLOAD DUP1 ISZERO PUSH2 0x20A6 JUMPI PUSH1 0x20 MUL DUP3 ADD SWAP2 SWAP1 PUSH1 0x0 MSTORE PUSH1 0x20 PUSH1 0x0 KECCAK256 SWAP1 PUSH1 0x0 SWAP1 JUMPDEST DUP3 DUP3 SWAP1 SLOAD SWAP1 PUSH2 0x100 EXP SWAP1 DIV PUSH4 0xFFFFFFFF AND PUSH4 0xFFFFFFFF AND DUP2 MSTORE PUSH1 0x20 ADD SWAP1 PUSH1 0x4 ADD SWAP1 PUSH1 0x20 DUP3 PUSH1 0x3 ADD DIV SWAP3 DUP4 ADD SWAP3 PUSH1 0x1 SUB DUP3 MUL SWAP2 POP DUP1 DUP5 GT PUSH2 0x2069 JUMPI SWAP1 POP JUMPDEST POP POP POP POP POP SWAP1 POP SWAP1 JUMP JUMPDEST PUSH1 0x0 PUSH1 0x6 SLOAD PUSH1 0xC DUP1 SLOAD SWAP1 POP PUSH2 0x20C5 SWAP2 SWAP1 PUSH2 0x5800 JUMP JUMPDEST SWAP1 POP SWAP1 JUMP JUMPDEST PUSH2 0x20D3 DUP3 PUSH2 0xC1B JUMP JUMPDEST PUSH2 0x20DC DUP2 PUSH2 0x24CE JUMP JUMPDEST PUSH2 0x20E6 DUP4 DUP4 PUSH2 0x25DB JUMP JUMPDEST POP POP POP POP JUMP JUMPDEST PUSH1 0x1 PUSH1 0x0 SWAP1 SLOAD SWAP1 PUSH2 0x100 EXP SWAP1 DIV PUSH20 0xFFFFFFFFFFFFFFFFFFFFFFFFFFFFFFFFFFFFFFFF AND DUP2 JUMP JUMPDEST PUSH1 0x60 PUSH1 0xB DUP1 SLOAD DUP1 PUSH1 0x20 MUL PUSH1 0x20 ADD PUSH1 0x40 MLOAD SWAP1 DUP2 ADD PUSH1 0x40 MSTORE DUP1 SWAP3 SWAP2 SWAP1 DUP2 DUP2 MSTORE PUSH1 0x20 ADD DUP3 DUP1 SLOAD DUP1 ISZERO PUSH2 0x2160 JUMPI PUSH1 0x20 MUL DUP3 ADD SWAP2 SWAP1 PUSH1 0x0 MSTORE PUSH1 0x20 PUSH1 0x0 KECCAK256 SWAP1 JUMPDEST DUP2 SLOAD DUP2 MSTORE PUSH1 0x20 ADD SWAP1 PUSH1 0x1 ADD SWAP1 DUP1 DUP4 GT PUSH2 0x214C JUMPI JUMPDEST POP POP POP POP POP SWAP1 POP SWAP1 JUMP JUMPDEST PUSH1 0x3 PUSH1 0x20 MSTORE DUP1 PUSH1 0x0 MSTORE PUSH1 0x40 PUSH1 0x0 KECCAK256 PUSH1 0x0 SWAP2 POP SWAP1 POP DUP1 PUSH1 0x0 ADD PUSH1 0x0 SWAP1 SLOAD SWAP1 PUSH2 0x100 EXP SWAP1 DIV PUSH1 0xFF AND SWAP1 DUP1 PUSH1 0x0 ADD PUSH1 0x1 SWAP1 SLOAD SWAP1 PUSH2 0x100 EXP SWAP1 DIV PUSH1 0xFF AND SWAP1 DUP1 PUSH1 0x2 ADD PUSH1 0x40 MLOAD DUP1 PUSH1 0x40 ADD PUSH1 0x40 MSTORE SWAP1 DUP2 PUSH1 0x0 DUP3 ADD SLOAD DUP2 MSTORE PUSH1 0x20 ADD PUSH1 0x1 DUP3 ADD DUP1 SLOAD DUP1 PUSH1 0x20 MUL PUSH1 0x20 ADD PUSH1 0x40 MLOAD SWAP1 DUP2 ADD PUSH1 0x40 MSTORE DUP1 SWAP3 SWAP2 SWAP1 DUP2 DUP2 MSTORE PUSH1 0x20 ADD DUP3 DUP1 SLOAD DUP1 ISZERO PUSH2 0x220C JUMPI PUSH1 0x20 MUL DUP3 ADD SWAP2 SWAP1 PUSH1 0x0 MSTORE PUSH1 0x20 PUSH1 0x0 KECCAK256 SWAP1 JUMPDEST DUP2 SLOAD DUP2 MSTORE PUSH1 0x20 ADD SWAP1 PUSH1 0x1 ADD SWAP1 DUP1 DUP4 GT PUSH2 0x21F8 JUMPI JUMPDEST POP POP POP POP POP DUP2 MSTORE POP POP SWAP1 POP DUP4 JUMP JUMPDEST PUSH32 0x241ECF16D79D0F8DBFB92CBC07FE17840425976CF0667F022FE9877CAA831B08 DUP2 JUMP JUMPDEST PUSH1 0x60 PUSH1 0xA DUP1 SLOAD DUP1 PUSH1 0x20 MUL PUSH1 0x20 ADD PUSH1 0x40 MLOAD SWAP1 DUP2 ADD PUSH1 0x40 MSTORE DUP1 SWAP3 SWAP2 SWAP1 DUP2 DUP2 MSTORE PUSH1 0x20 ADD DUP3 DUP1 SLOAD DUP1 ISZERO PUSH2 0x22B8 JUMPI PUSH1 0x20 MUL DUP3 ADD SWAP2 SWAP1 PUSH1 0x0 MSTORE PUSH1 0x20 PUSH1 0x0 KECCAK256 SWAP1 PUSH1 0x0 SWAP1 JUMPDEST DUP3 DUP3 SWAP1 SLOAD SWAP1 PUSH2 0x100 EXP SWAP1 DIV PUSH4 0xFFFFFFFF AND PUSH4 0xFFFFFFFF AND DUP2 MSTORE PUSH1 0x20 ADD SWAP1 PUSH1 0x4 ADD SWAP1 PUSH1 0x20 DUP3 PUSH1 0x3 ADD DIV SWAP3 DUP4 ADD SWAP3 PUSH1 0x1 SUB DUP3 MUL SWAP2 POP DUP1 DUP5 GT PUSH2 0x227B JUMPI SWAP1 POP JUMPDEST POP POP POP POP POP SWAP1 POP SWAP1 JUMP JUMPDEST PUSH1 0x60 PUSH2 0x22CC PUSH2 0x48B8 JUMP JUMPDEST PUSH1 0x0 PUSH1 0x3 PUSH1 0x0 DUP6 PUSH4 0xFFFFFFFF AND PUSH4 0xFFFFFFFF AND DUP2 MSTORE PUSH1 0x20 ADD SWAP1 DUP2 MSTORE PUSH1 0x20 ADD PUSH1 0x0 KECCAK256 PUSH1 0x40 MLOAD DUP1 PUSH1 0x80 ADD PUSH1 0x40 MSTORE SWAP1 DUP2 PUSH1 0x0 DUP3 ADD PUSH1 0x0 SWAP1 SLOAD SWAP1 PUSH2 0x100 EXP SWAP1 DIV PUSH1 0xFF AND ISZERO ISZERO ISZERO ISZERO DUP2 MSTORE PUSH1 0x20 ADD PUSH1 0x0 DUP3 ADD PUSH1 0x1 SWAP1 SLOAD SWAP1 PUSH2 0x100 EXP SWAP1 DIV PUSH1 0xFF AND PUSH1 0xFF AND PUSH1 0xFF AND DUP2 MSTORE PUSH1 0x20 ADD PUSH1 0x1 DUP3 ADD DUP1 SLOAD DUP1 PUSH1 0x20 MUL PUSH1 0x20 ADD PUSH1 0x40 MLOAD SWAP1 DUP2 ADD PUSH1 0x40 MSTORE DUP1 SWAP3 SWAP2 SWAP1 DUP2 DUP2 MSTORE PUSH1 0x20 ADD DUP3 DUP1 SLOAD DUP1 ISZERO PUSH2 0x23AB JUMPI PUSH1 0x20 MUL DUP3 ADD SWAP2 SWAP1 PUSH1 0x0 MSTORE PUSH1 0x20 PUSH1 0x0 KECCAK256 SWAP1 PUSH1 0x0 SWAP1 JUMPDEST DUP3 DUP3 SWAP1 SLOAD SWAP1 PUSH2 0x100 EXP SWAP1 DIV PUSH4 0xFFFFFFFF AND PUSH4 0xFFFFFFFF AND DUP2 MSTORE PUSH1 0x20 ADD SWAP1 PUSH1 0x4 ADD SWAP1 PUSH1 0x20 DUP3 PUSH1 0x3 ADD DIV SWAP3 DUP4 ADD SWAP3 PUSH1 0x1 SUB DUP3 MUL SWAP2 POP DUP1 DUP5 GT PUSH2 0x236E JUMPI SWAP1 POP JUMPDEST POP POP POP POP POP DUP2 MSTORE PUSH1 0x20 ADD PUSH1 0x2 DUP3 ADD PUSH1 0x40 MLOAD DUP1 PUSH1 0x40 ADD PUSH1 0x40 MSTORE SWAP1 DUP2 PUSH1 0x0 DUP3 ADD SLOAD DUP2 MSTORE PUSH1 0x20 ADD PUSH1 0x1 DUP3 ADD DUP1 SLOAD DUP1 PUSH1 0x20 MUL PUSH1 0x20 ADD PUSH1 0x40 MLOAD SWAP1 DUP2 ADD PUSH1 0x40 MSTORE DUP1 SWAP3 SWAP2 SWAP1 DUP2 DUP2 MSTORE PUSH1 0x20 ADD DUP3 DUP1 SLOAD DUP1 ISZERO PUSH2 0x241D JUMPI PUSH1 0x20 MUL DUP3 ADD SWAP2 SWAP1 PUSH1 0x0 MSTORE PUSH1 0x20 PUSH1 0x0 KECCAK256 SWAP1 JUMPDEST DUP2 SLOAD DUP2 MSTORE PUSH1 0x20 ADD SWAP1 PUSH1 0x1 ADD SWAP1 DUP1 DUP4 GT PUSH2 0x2409 JUMPI JUMPDEST POP POP POP POP POP DUP2 MSTORE POP POP DUP2 MSTORE POP POP SWAP1 POP DUP1 PUSH1 0x40 ADD MLOAD DUP2 PUSH1 0x60 ADD MLOAD SWAP3 POP SWAP3 POP POP SWAP2 POP SWAP2 JUMP JUMPDEST PUSH1 0xB DUP2 DUP2 SLOAD DUP2 LT PUSH2 0x2450 JUMPI PUSH1 0x0 DUP1 REVERT JUMPDEST SWAP1 PUSH1 0x0 MSTORE PUSH1 0x20 PUSH1 0x0 KECCAK256 ADD PUSH1 0x0 SWAP2 POP SWAP1 POP SLOAD DUP2 JUMP JUMPDEST PUSH1 0x0 PUSH32 0x1FFC9A700000000000000000000000000000000000000000000000000000000 PUSH28 0xFFFFFFFFFFFFFFFFFFFFFFFFFFFFFFFFFFFFFFFFFFFFFFFFFFFFFFFF NOT AND DUP3 PUSH28 0xFFFFFFFFFFFFFFFFFFFFFFFFFFFFFFFFFFFFFFFFFFFFFFFFFFFFFFFF NOT AND EQ SWAP1 POP SWAP2 SWAP1 POP JUMP JUMPDEST PUSH2 0x24DF DUP2 PUSH2 0x24DA PUSH2 0x25D3 JUMP JUMPDEST PUSH2 0x2FCC JUMP JUMPDEST POP JUMP JUMPDEST PUSH1 0x0 PUSH2 0x24EE DUP4 DUP4 PUSH2 0x1DC4 JUMP JUMPDEST PUSH2 0x25C8 JUMPI PUSH1 0x1 PUSH1 0x0 DUP1 DUP6 DUP2 MSTORE PUSH1 0x20 ADD SWAP1 DUP2 MSTORE PUSH1 0x20 ADD PUSH1 0x0 KECCAK256 PUSH1 0x0 ADD PUSH1 0x0 DUP5 PUSH20 0xFFFFFFFFFFFFFFFFFFFFFFFFFFFFFFFFFFFFFFFF AND PUSH20 0xFFFFFFFFFFFFFFFFFFFFFFFFFFFFFFFFFFFFFFFF AND DUP2 MSTORE PUSH1 0x20 ADD SWAP1 DUP2 MSTORE PUSH1 0x20 ADD PUSH1 0x0 KECCAK256 PUSH1 0x0 PUSH2 0x100 EXP DUP2 SLOAD DUP2 PUSH1 0xFF MUL NOT AND SWAP1 DUP4 ISZERO ISZERO MUL OR SWAP1 SSTORE POP PUSH2 0x2565 PUSH2 0x25D3 JUMP JUMPDEST PUSH20 0xFFFFFFFFFFFFFFFFFFFFFFFFFFFFFFFFFFFFFFFF AND DUP3 PUSH20 0xFFFFFFFFFFFFFFFFFFFFFFFFFFFFFFFFFFFFFFFF AND DUP5 PUSH32 0x2F8788117E7EFF1D82E926EC794901D17C78024A50270940304540A733656F0D PUSH1 0x40 MLOAD PUSH1 0x40 MLOAD DUP1 SWAP2 SUB SWAP1 LOG4 PUSH1 0x1 SWAP1 POP PUSH2 0x25CD JUMP JUMPDEST PUSH1 0x0 SWAP1 POP JUMPDEST SWAP3 SWAP2 POP POP JUMP JUMPDEST PUSH1 0x0 CALLER SWAP1 POP SWAP1 JUMP JUMPDEST PUSH1 0x0 PUSH2 0x25E7 DUP4 DUP4 PUSH2 0x1DC4 JUMP JUMPDEST ISZERO PUSH2 0x26C2 JUMPI PUSH1 0x0 DUP1 PUSH1 0x0 DUP6 DUP2 MSTORE PUSH1 0x20 ADD SWAP1 DUP2 MSTORE PUSH1 0x20 ADD PUSH1 0x0 KECCAK256 PUSH1 0x0 ADD PUSH1 0x0 DUP5 PUSH20 0xFFFFFFFFFFFFFFFFFFFFFFFFFFFFFFFFFFFFFFFF AND PUSH20 0xFFFFFFFFFFFFFFFFFFFFFFFFFFFFFFFFFFFFFFFF AND DUP2 MSTORE PUSH1 0x20 ADD SWAP1 DUP2 MSTORE PUSH1 0x20 ADD PUSH1 0x0 KECCAK256 PUSH1 0x0 PUSH2 0x100 EXP DUP2 SLOAD DUP2 PUSH1 0xFF MUL NOT AND SWAP1 DUP4 ISZERO ISZERO MUL OR SWAP1 SSTORE POP PUSH2 0x265F PUSH2 0x25D3 JUMP JUMPDEST PUSH20 0xFFFFFFFFFFFFFFFFFFFFFFFFFFFFFFFFFFFFFFFF AND DUP3 PUSH20 0xFFFFFFFFFFFFFFFFFFFFFFFFFFFFFFFFFFFFFFFF AND DUP5 PUSH32 0xF6391F5C32D9C69D2A47EA670B442974B53935D1EDC7FD64EB21E047A839171B PUSH1 0x40 MLOAD PUSH1 0x40 MLOAD DUP1 SWAP2 SUB SWAP1 LOG4 PUSH1 0x1 SWAP1 POP PUSH2 0x26C7 JUMP JUMPDEST PUSH1 0x0 SWAP1 POP JUMPDEST SWAP3 SWAP2 POP POP JUMP JUMPDEST PUSH1 0x60 PUSH1 0x0 PUSH1 0x5 PUSH1 0x0 DUP5 DUP2 MSTORE PUSH1 0x20 ADD SWAP1 DUP2 MSTORE PUSH1 0x20 ADD PUSH1 0x0 KECCAK256 SWAP1 POP PUSH1 0x0 DUP2 PUSH1 0x0 ADD PUSH1 0x3 SWAP1 SLOAD SWAP1 PUSH2 0x100 EXP SWAP1 DIV PUSH20 0xFFFFFFFFFFFFFFFFFFFFFFFFFFFFFFFFFFFFFFFF AND SWAP1 POP PUSH1 0x0 DUP3 PUSH1 0x1 ADD DUP1 SLOAD DUP1 PUSH1 0x20 MUL PUSH1 0x20 ADD PUSH1 0x40 MLOAD SWAP1 DUP2 ADD PUSH1 0x40 MSTORE DUP1 SWAP3 SWAP2 SWAP1 DUP2 DUP2 MSTORE PUSH1 0x20 ADD DUP3 DUP1 SLOAD DUP1 ISZERO PUSH2 0x278B JUMPI PUSH1 0x20 MUL DUP3 ADD SWAP2 SWAP1 PUSH1 0x0 MSTORE PUSH1 0x20 PUSH1 0x0 KECCAK256 SWAP1 PUSH1 0x0 SWAP1 JUMPDEST DUP3 DUP3 SWAP1 SLOAD SWAP1 PUSH2 0x100 EXP SWAP1 DIV PUSH4 0xFFFFFFFF AND PUSH4 0xFFFFFFFF AND DUP2 MSTORE PUSH1 0x20 ADD SWAP1 PUSH1 0x4 ADD SWAP1 PUSH1 0x20 DUP3 PUSH1 0x3 ADD DIV SWAP3 DUP4 ADD SWAP3 PUSH1 0x1 SUB DUP3 MUL SWAP2 POP DUP1 DUP5 GT PUSH2 0x274E JUMPI SWAP1 POP JUMPDEST POP POP POP POP POP SWAP1 POP PUSH1 0x0 DUP4 PUSH1 0x2 ADD DUP1 SLOAD DUP1 PUSH1 0x20 MUL PUSH1 0x20 ADD PUSH1 0x40 MLOAD SWAP1 DUP2 ADD PUSH1 0x40 MSTORE DUP1 SWAP3 SWAP2 SWAP1 DUP2 DUP2 MSTORE PUSH1 0x20 ADD DUP3 DUP1 SLOAD DUP1 ISZERO PUSH2 0x280E JUMPI PUSH1 0x20 MUL DUP3 ADD SWAP2 SWAP1 PUSH1 0x0 MSTORE PUSH1 0x20 PUSH1 0x0 KECCAK256 SWAP1 PUSH1 0x0 SWAP1 JUMPDEST DUP3 DUP3 SWAP1 SLOAD SWAP1 PUSH2 0x100 EXP SWAP1 DIV PUSH4 0xFFFFFFFF AND PUSH4 0xFFFFFFFF AND DUP2 MSTORE PUSH1 0x20 ADD SWAP1 PUSH1 0x4 ADD SWAP1 PUSH1 0x20 DUP3 PUSH1 0x3 ADD DIV SWAP3 DUP4 ADD SWAP3 PUSH1 0x1 SUB DUP3 MUL SWAP2 POP DUP1 DUP5 GT PUSH2 0x27D1 JUMPI SWAP1 POP JUMPDEST POP POP POP POP POP SWAP1 POP PUSH1 0x0 DUP5 PUSH1 0x3 ADD PUSH1 0x0 DUP2 SLOAD DUP2 LT PUSH2 0x282E JUMPI PUSH2 0x282D PUSH2 0x552F JUMP JUMPDEST JUMPDEST SWAP1 PUSH1 0x0 MSTORE PUSH1 0x20 PUSH1 0x0 KECCAK256 ADD SLOAD SWAP1 POP PUSH1 0x0 DUP1 JUMPDEST DUP4 MLOAD DUP2 LT ISZERO PUSH2 0x2883 JUMPI DUP4 DUP2 DUP2 MLOAD DUP2 LT PUSH2 0x285B JUMPI PUSH2 0x285A PUSH2 0x552F JUMP JUMPDEST JUMPDEST PUSH1 0x20 MUL PUSH1 0x20 ADD ADD MLOAD PUSH4 0xFFFFFFFF AND DUP3 PUSH2 0x2874 SWAP2 SWAP1 PUSH2 0x5834 JUMP JUMPDEST SWAP2 POP DUP1 DUP1 PUSH1 0x1 ADD SWAP2 POP POP PUSH2 0x283F JUMP JUMPDEST POP PUSH1 0x0 DUP2 PUSH8 0xFFFFFFFFFFFFFFFF DUP2 GT ISZERO PUSH2 0x28A0 JUMPI PUSH2 0x289F PUSH2 0x5868 JUMP JUMPDEST JUMPDEST PUSH1 0x40 MLOAD SWAP1 DUP1 DUP3 MSTORE DUP1 PUSH1 0x20 MUL PUSH1 0x20 ADD DUP3 ADD PUSH1 0x40 MSTORE DUP1 ISZERO PUSH2 0x28CE JUMPI DUP2 PUSH1 0x20 ADD PUSH1 0x20 DUP3 MUL DUP1 CALLDATASIZE DUP4 CALLDATACOPY DUP1 DUP3 ADD SWAP2 POP POP SWAP1 POP JUMPDEST POP SWAP1 POP PUSH1 0x0 DUP1 PUSH1 0x0 DUP1 PUSH1 0x0 DUP8 SWAP1 POP PUSH1 0x0 JUMPDEST DUP11 MLOAD DUP2 LT ISZERO PUSH2 0x2AF2 JUMPI PUSH1 0x0 JUMPDEST DUP11 DUP3 DUP2 MLOAD DUP2 LT PUSH2 0x28FE JUMPI PUSH2 0x28FD PUSH2 0x552F JUMP JUMPDEST JUMPDEST PUSH1 0x20 MUL PUSH1 0x20 ADD ADD MLOAD PUSH4 0xFFFFFFFF AND DUP2 LT ISZERO PUSH2 0x2AE4 JUMPI PUSH2 0x291C DUP4 PUSH2 0x301D JUMP JUMPDEST DUP1 SWAP8 POP DUP2 SWAP5 POP POP POP PUSH2 0x2948 DUP13 DUP4 DUP2 MLOAD DUP2 LT PUSH2 0x293A JUMPI PUSH2 0x2939 PUSH2 0x552F JUMP JUMPDEST JUMPDEST PUSH1 0x20 MUL PUSH1 0x20 ADD ADD MLOAD DUP8 PUSH2 0x3038 JUMP JUMPDEST SWAP7 POP PUSH2 0x2953 DUP4 PUSH2 0x301D JUMP JUMPDEST DUP1 SWAP8 POP DUP2 SWAP5 POP POP POP PUSH2 0x2965 DUP8 DUP8 PUSH2 0x32D4 JUMP JUMPDEST SWAP4 POP PUSH1 0xB DUP5 DUP2 SLOAD DUP2 LT PUSH2 0x297B JUMPI PUSH2 0x297A PUSH2 0x552F JUMP JUMPDEST JUMPDEST SWAP1 PUSH1 0x0 MSTORE PUSH1 0x20 PUSH1 0x0 KECCAK256 ADD SLOAD DUP9 DUP7 PUSH4 0xFFFFFFFF AND DUP2 MLOAD DUP2 LT PUSH2 0x299F JUMPI PUSH2 0x299E PUSH2 0x552F JUMP JUMPDEST JUMPDEST PUSH1 0x20 MUL PUSH1 0x20 ADD ADD DUP2 DUP2 MSTORE POP POP PUSH1 0x0 DUP4 SUB PUSH2 0x29C2 JUMPI PUSH2 0x29BC DUP11 PUSH2 0x35C0 JUMP JUMPDEST SWAP10 POP DUP10 SWAP3 POP JUMPDEST PUSH4 0xFFFFFFFF DUP1 AND PUSH1 0x9 DUP6 DUP2 SLOAD DUP2 LT PUSH2 0x29DD JUMPI PUSH2 0x29DC PUSH2 0x552F JUMP JUMPDEST JUMPDEST SWAP1 PUSH1 0x0 MSTORE PUSH1 0x20 PUSH1 0x0 KECCAK256 SWAP1 PUSH1 0x8 SWAP2 DUP3 DUP3 DIV ADD SWAP2 SWAP1 MOD PUSH1 0x4 MUL SWAP1 SLOAD SWAP1 PUSH2 0x100 EXP SWAP1 DIV PUSH4 0xFFFFFFFF AND PUSH4 0xFFFFFFFF AND LT ISZERO PUSH2 0x2AC9 JUMPI PUSH1 0xA DUP5 DUP2 SLOAD DUP2 LT PUSH2 0x2A23 JUMPI PUSH2 0x2A22 PUSH2 0x552F JUMP JUMPDEST JUMPDEST SWAP1 PUSH1 0x0 MSTORE PUSH1 0x20 PUSH1 0x0 KECCAK256 SWAP1 PUSH1 0x8 SWAP2 DUP3 DUP3 DIV ADD SWAP2 SWAP1 MOD PUSH1 0x4 MUL DUP2 DUP2 SWAP1 SLOAD SWAP1 PUSH2 0x100 EXP SWAP1 DIV PUSH4 0xFFFFFFFF AND DUP1 SWAP3 SWAP2 SWAP1 PUSH2 0x2A58 SWAP1 PUSH2 0x5897 JUMP JUMPDEST SWAP2 SWAP1 PUSH2 0x100 EXP DUP2 SLOAD DUP2 PUSH4 0xFFFFFFFF MUL NOT AND SWAP1 DUP4 PUSH4 0xFFFFFFFF AND MUL OR SWAP1 SSTORE POP POP PUSH1 0x0 PUSH1 0xA DUP6 DUP2 SLOAD DUP2 LT PUSH2 0x2A8D JUMPI PUSH2 0x2A8C PUSH2 0x552F JUMP JUMPDEST JUMPDEST SWAP1 PUSH1 0x0 MSTORE PUSH1 0x20 PUSH1 0x0 KECCAK256 SWAP1 PUSH1 0x8 SWAP2 DUP3 DUP3 DIV ADD SWAP2 SWAP1 MOD PUSH1 0x4 MUL SWAP1 SLOAD SWAP1 PUSH2 0x100 EXP SWAP1 DIV PUSH4 0xFFFFFFFF AND PUSH4 0xFFFFFFFF AND SUB PUSH2 0x2AC8 JUMPI PUSH2 0x2AC7 DUP5 PUSH2 0x35F3 JUMP JUMPDEST JUMPDEST JUMPDEST DUP5 DUP1 PUSH2 0x2AD4 SWAP1 PUSH2 0x5735 JUMP JUMPDEST SWAP6 POP POP DUP1 DUP1 PUSH1 0x1 ADD SWAP2 POP POP PUSH2 0x28EB JUMP JUMPDEST POP DUP1 DUP1 PUSH1 0x1 ADD SWAP2 POP POP PUSH2 0x28DF JUMP JUMPDEST POP PUSH1 0x1 DUP8 SUB PUSH2 0x2BAD JUMPI PUSH1 0x1 PUSH1 0x0 SWAP1 SLOAD SWAP1 PUSH2 0x100 EXP SWAP1 DIV PUSH20 0xFFFFFFFFFFFFFFFFFFFFFFFFFFFFFFFFFFFFFFFF AND PUSH20 0xFFFFFFFFFFFFFFFFFFFFFFFFFFFFFFFFFFFFFFFF AND PUSH4 0x731133E9 DUP13 DUP9 PUSH1 0x0 DUP2 MLOAD DUP2 LT PUSH2 0x2B4E JUMPI PUSH2 0x2B4D PUSH2 0x552F JUMP JUMPDEST JUMPDEST PUSH1 0x20 MUL PUSH1 0x20 ADD ADD MLOAD PUSH1 0x1 PUSH1 0x40 MLOAD DUP5 PUSH4 0xFFFFFFFF AND PUSH1 0xE0 SHL DUP2 MSTORE PUSH1 0x4 ADD PUSH2 0x2B76 SWAP4 SWAP3 SWAP2 SWAP1 PUSH2 0x5932 JUMP JUMPDEST PUSH1 0x0 PUSH1 0x40 MLOAD DUP1 DUP4 SUB DUP2 PUSH1 0x0 DUP8 DUP1 EXTCODESIZE ISZERO DUP1 ISZERO PUSH2 0x2B90 JUMPI PUSH1 0x0 DUP1 REVERT JUMPDEST POP GAS CALL ISZERO DUP1 ISZERO PUSH2 0x2BA4 JUMPI RETURNDATASIZE PUSH1 0x0 DUP1 RETURNDATACOPY RETURNDATASIZE PUSH1 0x0 REVERT JUMPDEST POP POP POP POP PUSH2 0x2C5F JUMP JUMPDEST PUSH1 0x0 PUSH2 0x2BB8 DUP8 PUSH2 0x385B JUMP JUMPDEST SWAP1 POP PUSH1 0x0 DUP1 PUSH2 0x2BC6 DUP4 PUSH2 0x389D JUMP JUMPDEST SWAP2 POP SWAP2 POP PUSH1 0x1 PUSH1 0x0 SWAP1 SLOAD SWAP1 PUSH2 0x100 EXP SWAP1 DIV PUSH20 0xFFFFFFFFFFFFFFFFFFFFFFFFFFFFFFFFFFFFFFFF AND PUSH20 0xFFFFFFFFFFFFFFFFFFFFFFFFFFFFFFFFFFFFFFFF AND PUSH4 0x1F7FDFFA DUP16 DUP5 DUP5 PUSH1 0x40 MLOAD DUP5 PUSH4 0xFFFFFFFF AND PUSH1 0xE0 SHL DUP2 MSTORE PUSH1 0x4 ADD PUSH2 0x2C29 SWAP4 SWAP3 SWAP2 SWAP1 PUSH2 0x597C JUMP JUMPDEST PUSH1 0x0 PUSH1 0x40 MLOAD DUP1 DUP4 SUB DUP2 PUSH1 0x0 DUP8 DUP1 EXTCODESIZE ISZERO DUP1 ISZERO PUSH2 0x2C43 JUMPI PUSH1 0x0 DUP1 REVERT JUMPDEST POP GAS CALL ISZERO DUP1 ISZERO PUSH2 0x2C57 JUMPI RETURNDATASIZE PUSH1 0x0 DUP1 RETURNDATACOPY RETURNDATASIZE PUSH1 0x0 REVERT JUMPDEST POP POP POP POP POP POP POP JUMPDEST PUSH1 0x6 PUSH1 0x0 DUP2 SLOAD DUP1 SWAP3 SWAP2 SWAP1 PUSH2 0x2C72 SWAP1 PUSH2 0x59D4 JUMP JUMPDEST SWAP2 SWAP1 POP SSTORE POP PUSH1 0x1 DUP13 PUSH1 0x0 ADD PUSH1 0x2 PUSH2 0x100 EXP DUP2 SLOAD DUP2 PUSH1 0xFF MUL NOT AND SWAP1 DUP4 ISZERO ISZERO MUL OR SWAP1 SSTORE POP DUP6 SWAP13 POP POP POP POP POP POP POP POP POP POP POP POP POP SWAP2 SWAP1 POP JUMP JUMPDEST PUSH2 0x2CB0 PUSH2 0x48B8 JUMP JUMPDEST PUSH1 0x0 DUP1 PUSH2 0x2CBF DUP6 DUP6 SWAP1 POP PUSH2 0x2ED3 JUMP JUMPDEST PUSH1 0xFF AND SWAP1 POP PUSH1 0x0 DUP1 PUSH1 0x0 DUP1 PUSH1 0x0 DUP10 DUP10 SWAP1 POP SWAP1 POP PUSH1 0x0 PUSH1 0x7 PUSH1 0x1 DUP9 PUSH1 0x8 PUSH2 0x2CE5 SWAP2 SWAP1 PUSH2 0x5B4F JUMP JUMPDEST PUSH2 0x2CEF SWAP2 SWAP1 PUSH2 0x5800 JUMP JUMPDEST PUSH2 0x2CF9 SWAP2 SWAP1 PUSH2 0x5BC9 JUMP JUMPDEST SWAP1 POP PUSH1 0x0 DUP2 PUSH8 0xFFFFFFFFFFFFFFFF DUP2 GT ISZERO PUSH2 0x2D17 JUMPI PUSH2 0x2D16 PUSH2 0x5868 JUMP JUMPDEST JUMPDEST PUSH1 0x40 MLOAD SWAP1 DUP1 DUP3 MSTORE DUP1 PUSH1 0x20 MUL PUSH1 0x20 ADD DUP3 ADD PUSH1 0x40 MSTORE DUP1 ISZERO PUSH2 0x2D45 JUMPI DUP2 PUSH1 0x20 ADD PUSH1 0x20 DUP3 MUL DUP1 CALLDATASIZE DUP4 CALLDATACOPY DUP1 DUP3 ADD SWAP2 POP POP SWAP1 POP JUMPDEST POP SWAP1 POP PUSH1 0x0 JUMPDEST DUP9 PUSH4 0xFFFFFFFF AND DUP2 PUSH4 0xFFFFFFFF AND LT ISZERO PUSH2 0x2EB2 JUMPI DUP1 DUP10 PUSH2 0x2D6B SWAP2 SWAP1 PUSH2 0x5BFA JUMP JUMPDEST PUSH1 0x8 PUSH2 0x2D77 SWAP2 SWAP1 PUSH2 0x5B4F JUMP JUMPDEST SWAP7 POP PUSH1 0x7 PUSH1 0x1 DUP9 PUSH2 0x2D88 SWAP2 SWAP1 PUSH2 0x5800 JUMP JUMPDEST PUSH2 0x2D92 SWAP2 SWAP1 PUSH2 0x5BC9 JUMP JUMPDEST SWAP6 POP PUSH1 0x0 JUMPDEST DUP8 DUP2 LT ISZERO PUSH2 0x2EA4 JUMPI DUP7 DUP2 PUSH2 0x2DAB SWAP2 SWAP1 PUSH2 0x5834 JUMP JUMPDEST SWAP6 POP PUSH1 0x0 DUP3 PUSH4 0xFFFFFFFF AND EQ PUSH2 0x2DE8 JUMPI DUP3 DUP7 DUP2 MLOAD DUP2 LT PUSH2 0x2DCE JUMPI PUSH2 0x2DCD PUSH2 0x552F JUMP JUMPDEST JUMPDEST PUSH1 0x20 MUL PUSH1 0x20 ADD ADD MLOAD DUP12 PUSH2 0x2DE1 SWAP2 SWAP1 PUSH2 0x5C32 JUMP JUMPDEST SWAP11 POP PUSH2 0x2E26 JUMP JUMPDEST DUP5 DUP2 SUB ISZERO PUSH2 0x2EA4 JUMPI DUP14 DUP14 DUP3 DUP2 DUP2 LT PUSH2 0x2E03 JUMPI PUSH2 0x2E02 PUSH2 0x552F JUMP JUMPDEST JUMPDEST SWAP1 POP PUSH1 0x20 MUL ADD PUSH1 0x20 DUP2 ADD SWAP1 PUSH2 0x2E18 SWAP2 SWAP1 PUSH2 0x523D JUMP JUMPDEST DUP12 PUSH2 0x2E23 SWAP2 SWAP1 PUSH2 0x5C32 JUMP JUMPDEST SWAP11 POP JUMPDEST PUSH1 0x0 PUSH1 0x8 DUP8 PUSH2 0x2E35 SWAP2 SWAP1 PUSH2 0x5C6A JUMP JUMPDEST EQ DUP1 PUSH2 0x2E4C JUMPI POP PUSH1 0x1 DUP6 PUSH2 0x2E49 SWAP2 SWAP1 PUSH2 0x5800 JUMP JUMPDEST DUP2 EQ JUMPDEST ISZERO PUSH2 0x2E97 JUMPI PUSH1 0x3 PUSH1 0x1 DUP8 PUSH2 0x2E60 SWAP2 SWAP1 PUSH2 0x5800 JUMP JUMPDEST SWAP1 SHR SWAP9 POP DUP11 DUP4 DUP11 DUP2 MLOAD DUP2 LT PUSH2 0x2E78 JUMPI PUSH2 0x2E77 PUSH2 0x552F JUMP JUMPDEST JUMPDEST PUSH1 0x20 MUL PUSH1 0x20 ADD ADD SWAP1 PUSH4 0xFFFFFFFF AND SWAP1 DUP2 PUSH4 0xFFFFFFFF AND DUP2 MSTORE POP POP PUSH1 0x0 SWAP11 POP JUMPDEST DUP1 DUP1 PUSH1 0x1 ADD SWAP2 POP POP PUSH2 0x2D97 JUMP JUMPDEST POP DUP1 DUP1 PUSH1 0x1 ADD SWAP2 POP POP PUSH2 0x2D4B JUMP JUMPDEST POP PUSH1 0x0 PUSH2 0x2EBE DUP3 PUSH2 0x3AC2 JUMP JUMPDEST SWAP1 POP DUP1 SWAP11 POP POP POP POP POP POP POP POP POP POP POP SWAP3 SWAP2 POP POP JUMP JUMPDEST PUSH1 0x0 PUSH1 0x1 SWAP1 POP JUMPDEST DUP2 DUP2 PUSH1 0x8 PUSH2 0x2EE8 SWAP2 SWAP1 PUSH2 0x5C9B JUMP JUMPDEST LT ISZERO PUSH2 0x2F01 JUMPI DUP1 DUP1 PUSH2 0x2EF9 SWAP1 PUSH2 0x5CE6 JUMP JUMPDEST SWAP2 POP POP PUSH2 0x2EDA JUMP JUMPDEST SWAP2 SWAP1 POP JUMP JUMPDEST PUSH1 0x60 PUSH1 0x0 DUP3 MLOAD PUSH8 0xFFFFFFFFFFFFFFFF DUP2 GT ISZERO PUSH2 0x2F25 JUMPI PUSH2 0x2F24 PUSH2 0x5868 JUMP JUMPDEST JUMPDEST PUSH1 0x40 MLOAD SWAP1 DUP1 DUP3 MSTORE DUP1 PUSH1 0x20 MUL PUSH1 0x20 ADD DUP3 ADD PUSH1 0x40 MSTORE DUP1 ISZERO PUSH2 0x2F53 JUMPI DUP2 PUSH1 0x20 ADD PUSH1 0x20 DUP3 MUL DUP1 CALLDATASIZE DUP4 CALLDATACOPY DUP1 DUP3 ADD SWAP2 POP POP SWAP1 POP JUMPDEST POP SWAP2 POP PUSH1 0x0 JUMPDEST DUP4 MLOAD DUP2 LT ISZERO PUSH2 0x2FC5 JUMPI DUP4 DUP2 DUP2 MLOAD DUP2 LT PUSH2 0x2F75 JUMPI PUSH2 0x2F74 PUSH2 0x552F JUMP JUMPDEST JUMPDEST PUSH1 0x20 MUL PUSH1 0x20 ADD ADD MLOAD DUP3 PUSH2 0x2F88 SWAP2 SWAP1 PUSH2 0x5C32 JUMP JUMPDEST SWAP2 POP DUP2 DUP4 DUP3 DUP2 MLOAD DUP2 LT PUSH2 0x2F9E JUMPI PUSH2 0x2F9D PUSH2 0x552F JUMP JUMPDEST JUMPDEST PUSH1 0x20 MUL PUSH1 0x20 ADD ADD SWAP1 PUSH4 0xFFFFFFFF AND SWAP1 DUP2 PUSH4 0xFFFFFFFF AND DUP2 MSTORE POP POP DUP1 DUP1 PUSH1 0x1 ADD SWAP2 POP POP PUSH2 0x2F59 JUMP JUMPDEST POP POP SWAP2 SWAP1 POP JUMP JUMPDEST PUSH2 0x2FD6 DUP3 DUP3 PUSH2 0x1DC4 JUMP JUMPDEST PUSH2 0x3019 JUMPI DUP1 DUP3 PUSH1 0x40 MLOAD PUSH32 0xE2517D3F00000000000000000000000000000000000000000000000000000000 DUP2 MSTORE PUSH1 0x4 ADD PUSH2 0x3010 SWAP3 SWAP2 SWAP1 PUSH2 0x5D0F JUMP JUMPDEST PUSH1 0x40 MLOAD DUP1 SWAP2 SUB SWAP1 REVERT JUMPDEST POP POP JUMP JUMPDEST PUSH1 0x0 DUP1 PUSH1 0x0 DUP4 SWAP1 POP PUSH1 0x20 DUP5 SWAP1 SHR SWAP4 POP DUP4 DUP2 SWAP3 POP SWAP3 POP POP SWAP2 POP SWAP2 JUMP JUMPDEST PUSH1 0x0 DUP1 PUSH1 0x4 PUSH1 0x0 DUP6 PUSH4 0xFFFFFFFF AND PUSH4 0xFFFFFFFF AND DUP2 MSTORE PUSH1 0x20 ADD SWAP1 DUP2 MSTORE PUSH1 0x20 ADD PUSH1 0x0 KECCAK256 PUSH1 0x40 MLOAD DUP1 PUSH1 0x80 ADD PUSH1 0x40 MSTORE SWAP1 DUP2 PUSH1 0x0 DUP3 ADD PUSH1 0x0 SWAP1 SLOAD SWAP1 PUSH2 0x100 EXP SWAP1 DIV PUSH1 0xFF AND ISZERO ISZERO ISZERO ISZERO DUP2 MSTORE PUSH1 0x20 ADD PUSH1 0x1 DUP3 ADD DUP1 SLOAD DUP1 PUSH1 0x20 MUL PUSH1 0x20 ADD PUSH1 0x40 MLOAD SWAP1 DUP2 ADD PUSH1 0x40 MSTORE DUP1 SWAP3 SWAP2 SWAP1 DUP2 DUP2 MSTORE PUSH1 0x20 ADD DUP3 DUP1 SLOAD DUP1 ISZERO PUSH2 0x30FB JUMPI PUSH1 0x20 MUL DUP3 ADD SWAP2 SWAP1 PUSH1 0x0 MSTORE PUSH1 0x20 PUSH1 0x0 KECCAK256 SWAP1 PUSH1 0x0 SWAP1 JUMPDEST DUP3 DUP3 SWAP1 SLOAD SWAP1 PUSH2 0x100 EXP SWAP1 DIV PUSH4 0xFFFFFFFF AND PUSH4 0xFFFFFFFF AND DUP2 MSTORE PUSH1 0x20 ADD SWAP1 PUSH1 0x4 ADD SWAP1 PUSH1 0x20 DUP3 PUSH1 0x3 ADD DIV SWAP3 DUP4 ADD SWAP3 PUSH1 0x1 SUB DUP3 MUL SWAP2 POP DUP1 DUP5 GT PUSH2 0x30BE JUMPI SWAP1 POP JUMPDEST POP POP POP POP POP DUP2 MSTORE PUSH1 0x20 ADD PUSH1 0x2 DUP3 ADD DUP1 SLOAD DUP1 PUSH1 0x20 MUL PUSH1 0x20 ADD PUSH1 0x40 MLOAD SWAP1 DUP2 ADD PUSH1 0x40 MSTORE DUP1 SWAP3 SWAP2 SWAP1 DUP2 DUP2 MSTORE PUSH1 0x20 ADD DUP3 DUP1 SLOAD DUP1 ISZERO PUSH2 0x317F JUMPI PUSH1 0x20 MUL DUP3 ADD SWAP2 SWAP1 PUSH1 0x0 MSTORE PUSH1 0x20 PUSH1 0x0 KECCAK256 SWAP1 PUSH1 0x0 SWAP1 JUMPDEST DUP3 DUP3 SWAP1 SLOAD SWAP1 PUSH2 0x100 EXP SWAP1 DIV PUSH4 0xFFFFFFFF AND PUSH4 0xFFFFFFFF AND DUP2 MSTORE PUSH1 0x20 ADD SWAP1 PUSH1 0x4 ADD SWAP1 PUSH1 0x20 DUP3 PUSH1 0x3 ADD DIV SWAP3 DUP4 ADD SWAP3 PUSH1 0x1 SUB DUP3 MUL SWAP2 POP DUP1 DUP5 GT PUSH2 0x3142 JUMPI SWAP1 POP JUMPDEST POP POP POP POP POP DUP2 MSTORE PUSH1 0x20 ADD PUSH1 0x3 DUP3 ADD DUP1 SLOAD DUP1 PUSH1 0x20 MUL PUSH1 0x20 ADD PUSH1 0x40 MLOAD SWAP1 DUP2 ADD PUSH1 0x40 MSTORE DUP1 SWAP3 SWAP2 SWAP1 DUP2 DUP2 MSTORE PUSH1 0x20 ADD DUP3 DUP1 SLOAD DUP1 ISZERO PUSH2 0x3203 JUMPI PUSH1 0x20 MUL DUP3 ADD SWAP2 SWAP1 PUSH1 0x0 MSTORE PUSH1 0x20 PUSH1 0x0 KECCAK256 SWAP1 PUSH1 0x0 SWAP1 JUMPDEST DUP3 DUP3 SWAP1 SLOAD SWAP1 PUSH2 0x100 EXP SWAP1 DIV PUSH4 0xFFFFFFFF AND PUSH4 0xFFFFFFFF AND DUP2 MSTORE PUSH1 0x20 ADD SWAP1 PUSH1 0x4 ADD SWAP1 PUSH1 0x20 DUP3 PUSH1 0x3 ADD DIV SWAP3 DUP4 ADD SWAP3 PUSH1 0x1 SUB DUP3 MUL SWAP2 POP DUP1 DUP5 GT PUSH2 0x31C6 JUMPI SWAP1 POP JUMPDEST POP POP POP POP POP DUP2 MSTORE POP POP SWAP1 POP PUSH1 0x0 DUP2 PUSH1 0x60 ADD MLOAD SWAP1 POP PUSH1 0x0 DUP3 PUSH1 0x20 ADD MLOAD MLOAD SWAP1 POP PUSH1 0x0 DUP3 PUSH1 0x1 DUP4 PUSH2 0x3231 SWAP2 SWAP1 PUSH2 0x5800 JUMP JUMPDEST DUP2 MLOAD DUP2 LT PUSH2 0x3242 JUMPI PUSH2 0x3241 PUSH2 0x552F JUMP JUMPDEST JUMPDEST PUSH1 0x20 MUL PUSH1 0x20 ADD ADD MLOAD DUP7 PUSH2 0x3255 SWAP2 SWAP1 PUSH2 0x5D38 JUMP JUMPDEST SWAP1 POP PUSH1 0x0 JUMPDEST DUP3 DUP2 LT ISZERO PUSH2 0x32C8 JUMPI DUP5 PUSH1 0x20 ADD MLOAD DUP2 DUP2 MLOAD DUP2 LT PUSH2 0x3279 JUMPI PUSH2 0x3278 PUSH2 0x552F JUMP JUMPDEST JUMPDEST PUSH1 0x20 MUL PUSH1 0x20 ADD ADD MLOAD SWAP6 POP DUP4 DUP2 DUP2 MLOAD DUP2 LT PUSH2 0x3296 JUMPI PUSH2 0x3295 PUSH2 0x552F JUMP JUMPDEST JUMPDEST PUSH1 0x20 MUL PUSH1 0x20 ADD ADD MLOAD PUSH4 0xFFFFFFFF AND DUP3 PUSH4 0xFFFFFFFF AND LT ISZERO PUSH2 0x32BB JUMPI POP POP POP POP POP PUSH2 0x32CE JUMP JUMPDEST DUP1 DUP1 PUSH1 0x1 ADD SWAP2 POP POP PUSH2 0x325A JUMP JUMPDEST POP POP POP POP POP JUMPDEST SWAP3 SWAP2 POP POP JUMP JUMPDEST PUSH1 0x0 DUP1 PUSH1 0x3 PUSH1 0x0 DUP6 PUSH4 0xFFFFFFFF AND PUSH4 0xFFFFFFFF AND DUP2 MSTORE PUSH1 0x20 ADD SWAP1 DUP2 MSTORE PUSH1 0x20 ADD PUSH1 0x0 KECCAK256 PUSH1 0x40 MLOAD DUP1 PUSH1 0x80 ADD PUSH1 0x40 MSTORE SWAP1 DUP2 PUSH1 0x0 DUP3 ADD PUSH1 0x0 SWAP1 SLOAD SWAP1 PUSH2 0x100 EXP SWAP1 DIV PUSH1 0xFF AND ISZERO ISZERO ISZERO ISZERO DUP2 MSTORE PUSH1 0x20 ADD PUSH1 0x0 DUP3 ADD PUSH1 0x1 SWAP1 SLOAD SWAP1 PUSH2 0x100 EXP SWAP1 DIV PUSH1 0xFF AND PUSH1 0xFF AND PUSH1 0xFF AND DUP2 MSTORE PUSH1 0x20 ADD PUSH1 0x1 DUP3 ADD DUP1 SLOAD DUP1 PUSH1 0x20 MUL PUSH1 0x20 ADD PUSH1 0x40 MLOAD SWAP1 DUP2 ADD PUSH1 0x40 MSTORE DUP1 SWAP3 SWAP2 SWAP1 DUP2 DUP2 MSTORE PUSH1 0x20 ADD DUP3 DUP1 SLOAD DUP1 ISZERO PUSH2 0x33B4 JUMPI PUSH1 0x20 MUL DUP3 ADD SWAP2 SWAP1 PUSH1 0x0 MSTORE PUSH1 0x20 PUSH1 0x0 KECCAK256 SWAP1 PUSH1 0x0 SWAP1 JUMPDEST DUP3 DUP3 SWAP1 SLOAD SWAP1 PUSH2 0x100 EXP SWAP1 DIV PUSH4 0xFFFFFFFF AND PUSH4 0xFFFFFFFF AND DUP2 MSTORE PUSH1 0x20 ADD SWAP1 PUSH1 0x4 ADD SWAP1 PUSH1 0x20 DUP3 PUSH1 0x3 ADD DIV SWAP3 DUP4 ADD SWAP3 PUSH1 0x1 SUB DUP3 MUL SWAP2 POP DUP1 DUP5 GT PUSH2 0x3377 JUMPI SWAP1 POP JUMPDEST POP POP POP POP POP DUP2 MSTORE PUSH1 0x20 ADD PUSH1 0x2 DUP3 ADD PUSH1 0x40 MLOAD DUP1 PUSH1 0x40 ADD PUSH1 0x40 MSTORE SWAP1 DUP2 PUSH1 0x0 DUP3 ADD SLOAD DUP2 MSTORE PUSH1 0x20 ADD PUSH1 0x1 DUP3 ADD DUP1 SLOAD DUP1 PUSH1 0x20 MUL PUSH1 0x20 ADD PUSH1 0x40 MLOAD SWAP1 DUP2 ADD PUSH1 0x40 MSTORE DUP1 SWAP3 SWAP2 SWAP1 DUP2 DUP2 MSTORE PUSH1 0x20 ADD DUP3 DUP1 SLOAD DUP1 ISZERO PUSH2 0x3426 JUMPI PUSH1 0x20 MUL DUP3 ADD SWAP2 SWAP1 PUSH1 0x0 MSTORE PUSH1 0x20 PUSH1 0x0 KECCAK256 SWAP1 JUMPDEST DUP2 SLOAD DUP2 MSTORE PUSH1 0x20 ADD SWAP1 PUSH1 0x1 ADD SWAP1 DUP1 DUP4 GT PUSH2 0x3412 JUMPI JUMPDEST POP POP POP POP POP DUP2 MSTORE POP POP DUP2 MSTORE POP POP SWAP1 POP PUSH1 0x0 DUP2 PUSH1 0x60 ADD MLOAD SWAP1 POP PUSH1 0x0 DUP3 PUSH1 0x40 ADD MLOAD SWAP1 POP PUSH1 0x0 DUP4 PUSH1 0x20 ADD MLOAD SWAP1 POP PUSH1 0x0 PUSH2 0x345D DUP5 PUSH1 0x0 PUSH2 0x3BB5 JUMP JUMPDEST DUP8 PUSH2 0x3468 SWAP2 SWAP1 PUSH2 0x5D38 JUMP JUMPDEST SWAP1 POP PUSH1 0x0 DUP1 DUP6 PUSH1 0x0 ADD MLOAD SWAP1 POP PUSH1 0x0 DUP1 PUSH1 0x0 JUMPDEST DUP7 PUSH1 0xFF AND DUP2 PUSH1 0xFF AND LT ISZERO PUSH2 0x35AF JUMPI PUSH1 0x0 PUSH1 0x1 SWAP1 POP JUMPDEST PUSH1 0x8 DUP2 PUSH1 0xFF AND GT PUSH2 0x35A1 JUMPI PUSH1 0x1 DUP9 PUSH2 0x34A7 SWAP2 SWAP1 PUSH2 0x5D69 JUMP JUMPDEST PUSH1 0xFF AND DUP3 PUSH1 0xFF AND SUB PUSH2 0x3536 JUMPI DUP5 DUP2 PUSH1 0xFF AND DUP6 PUSH1 0x8 PUSH2 0x34C5 SWAP2 SWAP1 PUSH2 0x5D9E JUMP JUMPDEST PUSH2 0x34CF SWAP2 SWAP1 PUSH2 0x5834 JUMP JUMPDEST PUSH2 0x34D9 SWAP2 SWAP1 PUSH2 0x5800 JUMP JUMPDEST SWAP3 POP DUP9 DUP4 DUP2 MLOAD DUP2 LT PUSH2 0x34EE JUMPI PUSH2 0x34ED PUSH2 0x552F JUMP JUMPDEST JUMPDEST PUSH1 0x20 MUL PUSH1 0x20 ADD ADD MLOAD SWAP6 POP DUP6 PUSH4 0xFFFFFFFF AND DUP8 PUSH4 0xFFFFFFFF AND LT PUSH2 0x351E JUMPI DUP6 DUP8 PUSH2 0x3517 SWAP2 SWAP1 PUSH2 0x5BFA JUMP JUMPDEST SWAP7 POP PUSH2 0x3531 JUMP JUMPDEST DUP3 SWAP12 POP POP POP POP POP POP POP POP POP POP POP POP PUSH2 0x35BA JUMP JUMPDEST PUSH2 0x358E JUMP JUMPDEST DUP1 PUSH1 0xFF AND DUP5 PUSH1 0x8 PUSH2 0x3547 SWAP2 SWAP1 PUSH2 0x5D9E JUMP JUMPDEST PUSH2 0x3551 SWAP2 SWAP1 PUSH2 0x5834 JUMP JUMPDEST SWAP3 POP PUSH2 0x355D DUP11 DUP5 PUSH2 0x3BB5 JUMP JUMPDEST SWAP6 POP DUP6 PUSH4 0xFFFFFFFF AND DUP8 PUSH4 0xFFFFFFFF AND LT PUSH2 0x3585 JUMPI DUP6 DUP8 PUSH2 0x357E SWAP2 SWAP1 PUSH2 0x5BFA JUMP JUMPDEST SWAP7 POP PUSH2 0x358D JUMP JUMPDEST DUP3 SWAP4 POP PUSH2 0x35A1 JUMP JUMPDEST JUMPDEST DUP1 DUP1 PUSH2 0x3599 SWAP1 PUSH2 0x5CE6 JUMP JUMPDEST SWAP2 POP POP PUSH2 0x348F JUMP JUMPDEST POP DUP1 DUP1 PUSH1 0x1 ADD SWAP2 POP POP PUSH2 0x347A JUMP JUMPDEST POP POP POP POP POP POP POP POP POP POP JUMPDEST SWAP3 SWAP2 POP POP JUMP JUMPDEST PUSH1 0x0 DUP2 PUSH1 0x40 MLOAD PUSH1 0x20 ADD PUSH2 0x35D3 SWAP2 SWAP1 PUSH2 0x5E01 JUMP JUMPDEST PUSH1 0x40 MLOAD PUSH1 0x20 DUP2 DUP4 SUB SUB DUP2 MSTORE SWAP1 PUSH1 0x40 MSTORE DUP1 MLOAD SWAP1 PUSH1 0x20 ADD KECCAK256 PUSH1 0x0 SHR SWAP1 POP SWAP2 SWAP1 POP JUMP JUMPDEST PUSH1 0x0 PUSH1 0x7 DUP1 SLOAD DUP1 PUSH1 0x20 MUL PUSH1 0x20 ADD PUSH1 0x40 MLOAD SWAP1 DUP2 ADD PUSH1 0x40 MSTORE DUP1 SWAP3 SWAP2 SWAP1 DUP2 DUP2 MSTORE PUSH1 0x20 ADD DUP3 DUP1 SLOAD DUP1 ISZERO PUSH2 0x366D JUMPI PUSH1 0x20 MUL DUP3 ADD SWAP2 SWAP1 PUSH1 0x0 MSTORE PUSH1 0x20 PUSH1 0x0 KECCAK256 SWAP1 PUSH1 0x0 SWAP1 JUMPDEST DUP3 DUP3 SWAP1 SLOAD SWAP1 PUSH2 0x100 EXP SWAP1 DIV PUSH4 0xFFFFFFFF AND PUSH4 0xFFFFFFFF AND DUP2 MSTORE PUSH1 0x20 ADD SWAP1 PUSH1 0x4 ADD SWAP1 PUSH1 0x20 DUP3 PUSH1 0x3 ADD DIV SWAP3 DUP4 ADD SWAP3 PUSH1 0x1 SUB DUP3 MUL SWAP2 POP DUP1 DUP5 GT PUSH2 0x3630 JUMPI SWAP1 POP JUMPDEST POP POP POP POP POP SWAP1 POP PUSH1 0x0 PUSH2 0x367E PUSH2 0x47D5 JUMP JUMPDEST PUSH1 0x0 JUMPDEST DUP4 MLOAD DUP2 LT ISZERO PUSH2 0x3854 JUMPI DUP4 DUP2 DUP2 MLOAD DUP2 LT PUSH2 0x369D JUMPI PUSH2 0x369C PUSH2 0x552F JUMP JUMPDEST JUMPDEST PUSH1 0x20 MUL PUSH1 0x20 ADD ADD MLOAD SWAP3 POP PUSH1 0x3 PUSH1 0x0 DUP5 PUSH4 0xFFFFFFFF AND PUSH4 0xFFFFFFFF AND DUP2 MSTORE PUSH1 0x20 ADD SWAP1 DUP2 MSTORE PUSH1 0x20 ADD PUSH1 0x0 KECCAK256 PUSH1 0x40 MLOAD DUP1 PUSH1 0x80 ADD PUSH1 0x40 MSTORE SWAP1 DUP2 PUSH1 0x0 DUP3 ADD PUSH1 0x0 SWAP1 SLOAD SWAP1 PUSH2 0x100 EXP SWAP1 DIV PUSH1 0xFF AND ISZERO ISZERO ISZERO ISZERO DUP2 MSTORE PUSH1 0x20 ADD PUSH1 0x0 DUP3 ADD PUSH1 0x1 SWAP1 SLOAD SWAP1 PUSH2 0x100 EXP SWAP1 DIV PUSH1 0xFF AND PUSH1 0xFF AND PUSH1 0xFF AND DUP2 MSTORE PUSH1 0x20 ADD PUSH1 0x1 DUP3 ADD DUP1 SLOAD DUP1 PUSH1 0x20 MUL PUSH1 0x20 ADD PUSH1 0x40 MLOAD SWAP1 DUP2 ADD PUSH1 0x40 MSTORE DUP1 SWAP3 SWAP2 SWAP1 DUP2 DUP2 MSTORE PUSH1 0x20 ADD DUP3 DUP1 SLOAD DUP1 ISZERO PUSH2 0x3784 JUMPI PUSH1 0x20 MUL DUP3 ADD SWAP2 SWAP1 PUSH1 0x0 MSTORE PUSH1 0x20 PUSH1 0x0 KECCAK256 SWAP1 PUSH1 0x0 SWAP1 JUMPDEST DUP3 DUP3 SWAP1 SLOAD SWAP1 PUSH2 0x100 EXP SWAP1 DIV PUSH4 0xFFFFFFFF AND PUSH4 0xFFFFFFFF AND DUP2 MSTORE PUSH1 0x20 ADD SWAP1 PUSH1 0x4 ADD SWAP1 PUSH1 0x20 DUP3 PUSH1 0x3 ADD DIV SWAP3 DUP4 ADD SWAP3 PUSH1 0x1 SUB DUP3 MUL SWAP2 POP DUP1 DUP5 GT PUSH2 0x3747 JUMPI SWAP1 POP JUMPDEST POP POP POP POP POP DUP2 MSTORE PUSH1 0x20 ADD PUSH1 0x2 DUP3 ADD PUSH1 0x40 MLOAD DUP1 PUSH1 0x40 ADD PUSH1 0x40 MSTORE SWAP1 DUP2 PUSH1 0x0 DUP3 ADD SLOAD DUP2 MSTORE PUSH1 0x20 ADD PUSH1 0x1 DUP3 ADD DUP1 SLOAD DUP1 PUSH1 0x20 MUL PUSH1 0x20 ADD PUSH1 0x40 MLOAD SWAP1 DUP2 ADD PUSH1 0x40 MSTORE DUP1 SWAP3 SWAP2 SWAP1 DUP2 DUP2 MSTORE PUSH1 0x20 ADD DUP3 DUP1 SLOAD DUP1 ISZERO PUSH2 0x37F6 JUMPI PUSH1 0x20 MUL DUP3 ADD SWAP2 SWAP1 PUSH1 0x0 MSTORE PUSH1 0x20 PUSH1 0x0 KECCAK256 SWAP1 JUMPDEST DUP2 SLOAD DUP2 MSTORE PUSH1 0x20 ADD SWAP1 PUSH1 0x1 ADD SWAP1 DUP1 DUP4 GT PUSH2 0x37E2 JUMPI JUMPDEST POP POP POP POP POP DUP2 MSTORE POP POP DUP2 MSTORE POP POP SWAP2 POP PUSH1 0x0 DUP3 PUSH1 0x40 ADD MLOAD DUP7 DUP2 MLOAD DUP2 LT PUSH2 0x381E JUMPI PUSH2 0x381D PUSH2 0x552F JUMP JUMPDEST JUMPDEST PUSH1 0x20 MUL PUSH1 0x20 ADD ADD MLOAD PUSH4 0xFFFFFFFF AND EQ PUSH2 0x3847 JUMPI PUSH2 0x383D DUP4 DUP7 PUSH1 0x0 PUSH2 0x3C65 JUMP JUMPDEST PUSH2 0x3846 DUP4 PUSH2 0x3E4D JUMP JUMPDEST JUMPDEST DUP1 DUP1 PUSH1 0x1 ADD SWAP2 POP POP PUSH2 0x3681 JUMP JUMPDEST POP POP POP POP POP JUMP JUMPDEST PUSH1 0x60 PUSH1 0x0 DUP3 MLOAD SUB PUSH2 0x386E JUMPI DUP2 SWAP1 POP PUSH2 0x3898 JUMP JUMPDEST PUSH1 0x0 DUP3 SWAP1 POP PUSH1 0x0 DUP1 PUSH1 0x1 DUP6 MLOAD PUSH2 0x3884 SWAP2 SWAP1 PUSH2 0x5800 JUMP JUMPDEST SWAP1 POP PUSH2 0x3891 DUP4 DUP4 DUP4 PUSH2 0x3FD7 JUMP JUMPDEST DUP3 SWAP4 POP POP POP POP JUMPDEST SWAP2 SWAP1 POP JUMP JUMPDEST PUSH1 0x60 DUP1 PUSH1 0x0 DUP4 MLOAD SUB PUSH2 0x38B4 JUMPI DUP3 DUP4 SWAP2 POP SWAP2 POP PUSH2 0x3ABD JUMP JUMPDEST PUSH1 0x0 PUSH1 0x1 SWAP1 POP PUSH1 0x0 PUSH1 0x1 SWAP1 POP JUMPDEST DUP5 MLOAD DUP2 LT ISZERO PUSH2 0x392D JUMPI DUP5 PUSH1 0x1 DUP3 PUSH2 0x38D8 SWAP2 SWAP1 PUSH2 0x5800 JUMP JUMPDEST DUP2 MLOAD DUP2 LT PUSH2 0x38E9 JUMPI PUSH2 0x38E8 PUSH2 0x552F JUMP JUMPDEST JUMPDEST PUSH1 0x20 MUL PUSH1 0x20 ADD ADD MLOAD DUP6 DUP3 DUP2 MLOAD DUP2 LT PUSH2 0x3904 JUMPI PUSH2 0x3903 PUSH2 0x552F JUMP JUMPDEST JUMPDEST PUSH1 0x20 MUL PUSH1 0x20 ADD ADD MLOAD EQ PUSH2 0x3920 JUMPI DUP2 DUP1 PUSH2 0x391C SWAP1 PUSH2 0x59D4 JUMP JUMPDEST SWAP3 POP POP JUMPDEST DUP1 DUP1 PUSH1 0x1 ADD SWAP2 POP POP PUSH2 0x38C1 JUMP JUMPDEST POP DUP1 PUSH8 0xFFFFFFFFFFFFFFFF DUP2 GT ISZERO PUSH2 0x3948 JUMPI PUSH2 0x3947 PUSH2 0x5868 JUMP JUMPDEST JUMPDEST PUSH1 0x40 MLOAD SWAP1 DUP1 DUP3 MSTORE DUP1 PUSH1 0x20 MUL PUSH1 0x20 ADD DUP3 ADD PUSH1 0x40 MSTORE DUP1 ISZERO PUSH2 0x3976 JUMPI DUP2 PUSH1 0x20 ADD PUSH1 0x20 DUP3 MUL DUP1 CALLDATASIZE DUP4 CALLDATACOPY DUP1 DUP3 ADD SWAP2 POP POP SWAP1 POP JUMPDEST POP SWAP3 POP DUP1 PUSH8 0xFFFFFFFFFFFFFFFF DUP2 GT ISZERO PUSH2 0x3993 JUMPI PUSH2 0x3992 PUSH2 0x5868 JUMP JUMPDEST JUMPDEST PUSH1 0x40 MLOAD SWAP1 DUP1 DUP3 MSTORE DUP1 PUSH1 0x20 MUL PUSH1 0x20 ADD DUP3 ADD PUSH1 0x40 MSTORE DUP1 ISZERO PUSH2 0x39C1 JUMPI DUP2 PUSH1 0x20 ADD PUSH1 0x20 DUP3 MUL DUP1 CALLDATASIZE DUP4 CALLDATACOPY DUP1 DUP3 ADD SWAP2 POP POP SWAP1 POP JUMPDEST POP SWAP2 POP PUSH1 0x0 DUP5 PUSH1 0x0 DUP2 MLOAD DUP2 LT PUSH2 0x39DA JUMPI PUSH2 0x39D9 PUSH2 0x552F JUMP JUMPDEST JUMPDEST PUSH1 0x20 MUL PUSH1 0x20 ADD ADD MLOAD SWAP1 POP PUSH1 0x0 DUP2 DUP6 DUP3 DUP2 MLOAD DUP2 LT PUSH2 0x39FA JUMPI PUSH2 0x39F9 PUSH2 0x552F JUMP JUMPDEST JUMPDEST PUSH1 0x20 MUL PUSH1 0x20 ADD ADD DUP2 DUP2 MSTORE POP POP PUSH1 0x0 JUMPDEST DUP7 MLOAD DUP2 LT ISZERO PUSH2 0x3AB8 JUMPI DUP3 DUP8 DUP3 DUP2 MLOAD DUP2 LT PUSH2 0x3A26 JUMPI PUSH2 0x3A25 PUSH2 0x552F JUMP JUMPDEST JUMPDEST PUSH1 0x20 MUL PUSH1 0x20 ADD ADD MLOAD EQ PUSH2 0x3A7F JUMPI DUP7 DUP2 DUP2 MLOAD DUP2 LT PUSH2 0x3A46 JUMPI PUSH2 0x3A45 PUSH2 0x552F JUMP JUMPDEST JUMPDEST PUSH1 0x20 MUL PUSH1 0x20 ADD ADD MLOAD SWAP3 POP DUP2 DUP1 PUSH2 0x3A5B SWAP1 PUSH2 0x59D4 JUMP JUMPDEST SWAP3 POP POP DUP3 DUP7 DUP4 DUP2 MLOAD DUP2 LT PUSH2 0x3A72 JUMPI PUSH2 0x3A71 PUSH2 0x552F JUMP JUMPDEST JUMPDEST PUSH1 0x20 MUL PUSH1 0x20 ADD ADD DUP2 DUP2 MSTORE POP POP JUMPDEST DUP5 DUP3 DUP2 MLOAD DUP2 LT PUSH2 0x3A92 JUMPI PUSH2 0x3A91 PUSH2 0x552F JUMP JUMPDEST JUMPDEST PUSH1 0x20 MUL PUSH1 0x20 ADD ADD DUP1 MLOAD DUP1 SWAP2 SWAP1 PUSH2 0x3AA7 SWAP1 PUSH2 0x59D4 JUMP JUMPDEST DUP2 MSTORE POP POP DUP1 DUP1 PUSH1 0x1 ADD SWAP2 POP POP PUSH2 0x3A09 JUMP JUMPDEST POP POP POP POP JUMPDEST SWAP2 POP SWAP2 JUMP JUMPDEST PUSH2 0x3ACA PUSH2 0x48B8 JUMP JUMPDEST PUSH2 0x3AD2 PUSH2 0x48B8 JUMP JUMPDEST DUP3 MLOAD PUSH4 0xFFFFFFFF AND DUP2 PUSH1 0x0 ADD DUP2 DUP2 MSTORE POP POP PUSH1 0x0 PUSH1 0x8 DUP5 MLOAD PUSH2 0x3AF3 SWAP2 SWAP1 PUSH2 0x5BC9 JUMP JUMPDEST SWAP1 POP PUSH1 0x0 PUSH1 0x8 DUP6 MLOAD PUSH2 0x3B05 SWAP2 SWAP1 PUSH2 0x5C6A JUMP JUMPDEST EQ PUSH2 0x3B19 JUMPI DUP1 DUP1 PUSH2 0x3B15 SWAP1 PUSH2 0x59D4 JUMP JUMPDEST SWAP2 POP POP JUMPDEST DUP1 PUSH8 0xFFFFFFFFFFFFFFFF DUP2 GT ISZERO PUSH2 0x3B33 JUMPI PUSH2 0x3B32 PUSH2 0x5868 JUMP JUMPDEST JUMPDEST PUSH1 0x40 MLOAD SWAP1 DUP1 DUP3 MSTORE DUP1 PUSH1 0x20 MUL PUSH1 0x20 ADD DUP3 ADD PUSH1 0x40 MSTORE DUP1 ISZERO PUSH2 0x3B61 JUMPI DUP2 PUSH1 0x20 ADD PUSH1 0x20 DUP3 MUL DUP1 CALLDATASIZE DUP4 CALLDATACOPY DUP1 DUP3 ADD SWAP2 POP POP SWAP1 POP JUMPDEST POP DUP3 PUSH1 0x20 ADD DUP2 SWAP1 MSTORE POP PUSH1 0x0 JUMPDEST DUP5 MLOAD DUP2 LT ISZERO PUSH2 0x3BAA JUMPI PUSH2 0x3B9B DUP4 DUP3 DUP8 DUP5 DUP2 MLOAD DUP2 LT PUSH2 0x3B8E JUMPI PUSH2 0x3B8D PUSH2 0x552F JUMP JUMPDEST JUMPDEST PUSH1 0x20 MUL PUSH1 0x20 ADD ADD MLOAD PUSH2 0x402D JUMP JUMPDEST SWAP3 POP DUP1 DUP1 PUSH1 0x1 ADD SWAP2 POP POP PUSH2 0x3B6D JUMP JUMPDEST POP DUP2 SWAP3 POP POP POP SWAP2 SWAP1 POP JUMP JUMPDEST PUSH1 0x0 DUP3 PUSH1 0x0 ADD MLOAD DUP3 LT PUSH2 0x3BFF JUMPI DUP2 PUSH1 0x40 MLOAD PUSH32 0x8545CE200000000000000000000000000000000000000000000000000000000 DUP2 MSTORE PUSH1 0x4 ADD PUSH2 0x3BF6 SWAP2 SWAP1 PUSH2 0x4CF8 JUMP JUMPDEST PUSH1 0x40 MLOAD DUP1 SWAP2 SUB SWAP1 REVERT JUMPDEST PUSH1 0x0 PUSH1 0x8 DUP4 PUSH2 0x3C0E SWAP2 SWAP1 PUSH2 0x5BC9 JUMP JUMPDEST SWAP1 POP PUSH1 0x0 PUSH1 0x8 DUP5 PUSH2 0x3C1F SWAP2 SWAP1 PUSH2 0x5C6A JUMP JUMPDEST SWAP1 POP PUSH1 0x20 DUP2 PUSH1 0x7 PUSH2 0x3C30 SWAP2 SWAP1 PUSH2 0x5800 JUMP JUMPDEST PUSH2 0x3C3A SWAP2 SWAP1 PUSH2 0x5D9E JUMP JUMPDEST DUP6 PUSH1 0x20 ADD MLOAD DUP4 DUP2 MLOAD DUP2 LT PUSH2 0x3C51 JUMPI PUSH2 0x3C50 PUSH2 0x552F JUMP JUMPDEST JUMPDEST PUSH1 0x20 MUL PUSH1 0x20 ADD ADD MLOAD SWAP1 SHR SWAP3 POP POP POP SWAP3 SWAP2 POP POP JUMP JUMPDEST PUSH1 0x0 PUSH1 0x3 PUSH1 0x0 DUP6 PUSH4 0xFFFFFFFF AND PUSH4 0xFFFFFFFF AND DUP2 MSTORE PUSH1 0x20 ADD SWAP1 DUP2 MSTORE PUSH1 0x20 ADD PUSH1 0x0 KECCAK256 SWAP1 POP PUSH1 0x0 DUP2 PUSH1 0x2 ADD PUSH1 0x40 MLOAD DUP1 PUSH1 0x40 ADD PUSH1 0x40 MSTORE SWAP1 DUP2 PUSH1 0x0 DUP3 ADD SLOAD DUP2 MSTORE PUSH1 0x20 ADD PUSH1 0x1 DUP3 ADD DUP1 SLOAD DUP1 PUSH1 0x20 MUL PUSH1 0x20 ADD PUSH1 0x40 MLOAD SWAP1 DUP2 ADD PUSH1 0x40 MSTORE DUP1 SWAP3 SWAP2 SWAP1 DUP2 DUP2 MSTORE PUSH1 0x20 ADD DUP3 DUP1 SLOAD DUP1 ISZERO PUSH2 0x3CF2 JUMPI PUSH1 0x20 MUL DUP3 ADD SWAP2 SWAP1 PUSH1 0x0 MSTORE PUSH1 0x20 PUSH1 0x0 KECCAK256 SWAP1 JUMPDEST DUP2 SLOAD DUP2 MSTORE PUSH1 0x20 ADD SWAP1 PUSH1 0x1 ADD SWAP1 DUP1 DUP4 GT PUSH2 0x3CDE JUMPI JUMPDEST POP POP POP POP POP DUP2 MSTORE POP POP SWAP1 POP PUSH1 0x0 DUP3 PUSH1 0x0 ADD PUSH1 0x1 SWAP1 SLOAD SWAP1 PUSH2 0x100 EXP SWAP1 DIV PUSH1 0xFF AND SWAP1 POP PUSH1 0x0 DUP4 PUSH1 0x1 ADD DUP7 DUP2 SLOAD DUP2 LT PUSH2 0x3D2B JUMPI PUSH2 0x3D2A PUSH2 0x552F JUMP JUMPDEST JUMPDEST SWAP1 PUSH1 0x0 MSTORE PUSH1 0x20 PUSH1 0x0 KECCAK256 SWAP1 PUSH1 0x8 SWAP2 DUP3 DUP3 DIV ADD SWAP2 SWAP1 MOD PUSH1 0x4 MUL SWAP1 SLOAD SWAP1 PUSH2 0x100 EXP SWAP1 DIV PUSH4 0xFFFFFFFF AND SWAP1 POP PUSH1 0x0 DUP1 DUP5 PUSH1 0x0 ADD MLOAD DUP9 PUSH2 0x3D66 SWAP2 SWAP1 PUSH2 0x5834 JUMP JUMPDEST SWAP1 POP PUSH1 0x0 JUMPDEST DUP5 PUSH1 0xFF AND DUP2 PUSH1 0xFF AND LT ISZERO PUSH2 0x3DC8 JUMPI PUSH1 0x3 PUSH1 0x1 DUP4 PUSH2 0x3D88 SWAP2 SWAP1 PUSH2 0x5800 JUMP JUMPDEST SWAP1 SHR SWAP2 POP PUSH2 0x3D96 DUP7 DUP4 PUSH2 0x3BB5 JUMP JUMPDEST SWAP3 POP PUSH2 0x3DB9 DUP7 DUP4 DUP7 DUP12 DUP8 PUSH2 0x3DAA SWAP2 SWAP1 PUSH2 0x5C32 JUMP JUMPDEST PUSH2 0x3DB4 SWAP2 SWAP1 PUSH2 0x5BFA JUMP JUMPDEST PUSH2 0x402D JUMP JUMPDEST SWAP6 POP DUP1 DUP1 PUSH1 0x1 ADD SWAP2 POP POP PUSH2 0x3D6B JUMP JUMPDEST POP DUP7 DUP7 PUSH1 0x1 ADD DUP10 DUP2 SLOAD DUP2 LT PUSH2 0x3DE0 JUMPI PUSH2 0x3DDF PUSH2 0x552F JUMP JUMPDEST JUMPDEST SWAP1 PUSH1 0x0 MSTORE PUSH1 0x20 PUSH1 0x0 KECCAK256 SWAP1 PUSH1 0x8 SWAP2 DUP3 DUP3 DIV ADD SWAP2 SWAP1 MOD PUSH1 0x4 MUL PUSH2 0x100 EXP DUP2 SLOAD DUP2 PUSH4 0xFFFFFFFF MUL NOT AND SWAP1 DUP4 PUSH4 0xFFFFFFFF AND MUL OR SWAP1 SSTORE POP DUP5 DUP7 PUSH1 0x2 ADD PUSH1 0x0 DUP3 ADD MLOAD DUP2 PUSH1 0x0 ADD SSTORE PUSH1 0x20 DUP3 ADD MLOAD DUP2 PUSH1 0x1 ADD SWAP1 DUP1 MLOAD SWAP1 PUSH1 0x20 ADD SWAP1 PUSH2 0x3E3E SWAP3 SWAP2 SWAP1 PUSH2 0x4788 JUMP JUMPDEST POP SWAP1 POP POP POP POP POP POP POP POP POP POP POP JUMP JUMPDEST PUSH1 0x0 PUSH1 0x3 PUSH1 0x0 DUP4 PUSH4 0xFFFFFFFF AND PUSH4 0xFFFFFFFF AND DUP2 MSTORE PUSH1 0x20 ADD SWAP1 DUP2 MSTORE PUSH1 0x20 ADD PUSH1 0x0 KECCAK256 PUSH1 0x40 MLOAD DUP1 PUSH1 0x80 ADD PUSH1 0x40 MSTORE SWAP1 DUP2 PUSH1 0x0 DUP3 ADD PUSH1 0x0 SWAP1 SLOAD SWAP1 PUSH2 0x100 EXP SWAP1 DIV PUSH1 0xFF AND ISZERO ISZERO ISZERO ISZERO DUP2 MSTORE PUSH1 0x20 ADD PUSH1 0x0 DUP3 ADD PUSH1 0x1 SWAP1 SLOAD SWAP1 PUSH2 0x100 EXP SWAP1 DIV PUSH1 0xFF AND PUSH1 0xFF AND PUSH1 0xFF AND DUP2 MSTORE PUSH1 0x20 ADD PUSH1 0x1 DUP3 ADD DUP1 SLOAD DUP1 PUSH1 0x20 MUL PUSH1 0x20 ADD PUSH1 0x40 MLOAD SWAP1 DUP2 ADD PUSH1 0x40 MSTORE DUP1 SWAP3 SWAP2 SWAP1 DUP2 DUP2 MSTORE PUSH1 0x20 ADD DUP3 DUP1 SLOAD DUP1 ISZERO PUSH2 0x3F2C JUMPI PUSH1 0x20 MUL DUP3 ADD SWAP2 SWAP1 PUSH1 0x0 MSTORE PUSH1 0x20 PUSH1 0x0 KECCAK256 SWAP1 PUSH1 0x0 SWAP1 JUMPDEST DUP3 DUP3 SWAP1 SLOAD SWAP1 PUSH2 0x100 EXP SWAP1 DIV PUSH4 0xFFFFFFFF AND PUSH4 0xFFFFFFFF AND DUP2 MSTORE PUSH1 0x20 ADD SWAP1 PUSH1 0x4 ADD SWAP1 PUSH1 0x20 DUP3 PUSH1 0x3 ADD DIV SWAP3 DUP4 ADD SWAP3 PUSH1 0x1 SUB DUP3 MUL SWAP2 POP DUP1 DUP5 GT PUSH2 0x3EEF JUMPI SWAP1 POP JUMPDEST POP POP POP POP POP DUP2 MSTORE PUSH1 0x20 ADD PUSH1 0x2 DUP3 ADD PUSH1 0x40 MLOAD DUP1 PUSH1 0x40 ADD PUSH1 0x40 MSTORE SWAP1 DUP2 PUSH1 0x0 DUP3 ADD SLOAD DUP2 MSTORE PUSH1 0x20 ADD PUSH1 0x1 DUP3 ADD DUP1 SLOAD DUP1 PUSH1 0x20 MUL PUSH1 0x20 ADD PUSH1 0x40 MLOAD SWAP1 DUP2 ADD PUSH1 0x40 MSTORE DUP1 SWAP3 SWAP2 SWAP1 DUP2 DUP2 MSTORE PUSH1 0x20 ADD DUP3 DUP1 SLOAD DUP1 ISZERO PUSH2 0x3F9E JUMPI PUSH1 0x20 MUL DUP3 ADD SWAP2 SWAP1 PUSH1 0x0 MSTORE PUSH1 0x20 PUSH1 0x0 KECCAK256 SWAP1 JUMPDEST DUP2 SLOAD DUP2 MSTORE PUSH1 0x20 ADD SWAP1 PUSH1 0x1 ADD SWAP1 DUP1 DUP4 GT PUSH2 0x3F8A JUMPI JUMPDEST POP POP POP POP POP DUP2 MSTORE POP POP DUP2 MSTORE POP POP SWAP1 POP PUSH1 0x0 PUSH2 0x3FBE DUP3 PUSH1 0x60 ADD MLOAD PUSH1 0x0 PUSH2 0x3BB5 JUMP JUMPDEST PUSH4 0xFFFFFFFF AND SUB PUSH2 0x3FD3 JUMPI PUSH2 0x3FD2 DUP3 PUSH2 0x4100 JUMP JUMPDEST JUMPDEST POP POP JUMP JUMPDEST DUP1 DUP3 LT ISZERO PUSH2 0x4028 JUMPI PUSH1 0x0 PUSH2 0x3FEC DUP5 DUP5 DUP5 PUSH2 0x4384 JUMP JUMPDEST SWAP1 POP PUSH1 0x0 DUP2 GT ISZERO PUSH2 0x400F JUMPI PUSH2 0x400E DUP5 DUP5 PUSH1 0x1 DUP5 PUSH2 0x4009 SWAP2 SWAP1 PUSH2 0x5800 JUMP JUMPDEST PUSH2 0x3FD7 JUMP JUMPDEST JUMPDEST PUSH2 0x4026 DUP5 PUSH1 0x1 DUP4 PUSH2 0x4020 SWAP2 SWAP1 PUSH2 0x5834 JUMP JUMPDEST DUP5 PUSH2 0x3FD7 JUMP JUMPDEST POP JUMPDEST POP POP POP JUMP JUMPDEST PUSH2 0x4035 PUSH2 0x48B8 JUMP JUMPDEST PUSH1 0x0 PUSH1 0x8 DUP5 PUSH2 0x4044 SWAP2 SWAP1 PUSH2 0x5BC9 JUMP JUMPDEST SWAP1 POP PUSH1 0x0 PUSH1 0x8 DUP6 PUSH2 0x4055 SWAP2 SWAP1 PUSH2 0x5C6A JUMP JUMPDEST SWAP1 POP PUSH1 0x0 DUP2 PUSH1 0x7 PUSH2 0x4066 SWAP2 SWAP1 PUSH2 0x5800 JUMP JUMPDEST PUSH1 0x20 PUSH2 0x4072 SWAP2 SWAP1 PUSH2 0x5D9E JUMP JUMPDEST PUSH4 0xFFFFFFFF DUP1 AND SWAP1 SHL NOT SWAP1 POP DUP1 DUP8 PUSH1 0x20 ADD MLOAD DUP5 DUP2 MLOAD DUP2 LT PUSH2 0x4096 JUMPI PUSH2 0x4095 PUSH2 0x552F JUMP JUMPDEST JUMPDEST PUSH1 0x20 MUL PUSH1 0x20 ADD ADD DUP2 DUP2 MLOAD AND SWAP2 POP DUP2 DUP2 MSTORE POP POP DUP2 PUSH1 0x7 PUSH2 0x40B5 SWAP2 SWAP1 PUSH2 0x5800 JUMP JUMPDEST PUSH1 0x20 PUSH2 0x40C1 SWAP2 SWAP1 PUSH2 0x5D9E JUMP JUMPDEST DUP6 PUSH4 0xFFFFFFFF AND SWAP1 SHL DUP8 PUSH1 0x20 ADD MLOAD DUP5 DUP2 MLOAD DUP2 LT PUSH2 0x40E1 JUMPI PUSH2 0x40E0 PUSH2 0x552F JUMP JUMPDEST JUMPDEST PUSH1 0x20 MUL PUSH1 0x20 ADD ADD DUP2 DUP2 MLOAD OR SWAP2 POP DUP2 DUP2 MSTORE POP POP DUP7 SWAP4 POP POP POP POP SWAP4 SWAP3 POP POP POP JUMP JUMPDEST PUSH1 0x0 PUSH1 0x3 PUSH1 0x0 DUP4 PUSH4 0xFFFFFFFF AND PUSH4 0xFFFFFFFF AND DUP2 MSTORE PUSH1 0x20 ADD SWAP1 DUP2 MSTORE PUSH1 0x20 ADD PUSH1 0x0 KECCAK256 SWAP1 POP PUSH1 0x60 PUSH1 0x0 JUMPDEST PUSH1 0x8 DUP1 SLOAD SWAP1 POP DUP2 LT ISZERO PUSH2 0x4356 JUMPI PUSH1 0x0 PUSH1 0x4 PUSH1 0x0 PUSH1 0x8 DUP5 DUP2 SLOAD DUP2 LT PUSH2 0x414F JUMPI PUSH2 0x414E PUSH2 0x552F JUMP JUMPDEST JUMPDEST SWAP1 PUSH1 0x0 MSTORE PUSH1 0x20 PUSH1 0x0 KECCAK256 SWAP1 PUSH1 0x8 SWAP2 DUP3 DUP3 DIV ADD SWAP2 SWAP1 MOD PUSH1 0x4 MUL SWAP1 SLOAD SWAP1 PUSH2 0x100 EXP SWAP1 DIV PUSH4 0xFFFFFFFF AND PUSH4 0xFFFFFFFF AND PUSH4 0xFFFFFFFF AND DUP2 MSTORE PUSH1 0x20 ADD SWAP1 DUP2 MSTORE PUSH1 0x20 ADD PUSH1 0x0 KECCAK256 SWAP1 POP DUP1 PUSH1 0x1 ADD DUP1 SLOAD DUP1 PUSH1 0x20 MUL PUSH1 0x20 ADD PUSH1 0x40 MLOAD SWAP1 DUP2 ADD PUSH1 0x40 MSTORE DUP1 SWAP3 SWAP2 SWAP1 DUP2 DUP2 MSTORE PUSH1 0x20 ADD DUP3 DUP1 SLOAD DUP1 ISZERO PUSH2 0x420B JUMPI PUSH1 0x20 MUL DUP3 ADD SWAP2 SWAP1 PUSH1 0x0 MSTORE PUSH1 0x20 PUSH1 0x0 KECCAK256 SWAP1 PUSH1 0x0 SWAP1 JUMPDEST DUP3 DUP3 SWAP1 SLOAD SWAP1 PUSH2 0x100 EXP SWAP1 DIV PUSH4 0xFFFFFFFF AND PUSH4 0xFFFFFFFF AND DUP2 MSTORE PUSH1 0x20 ADD SWAP1 PUSH1 0x4 ADD SWAP1 PUSH1 0x20 DUP3 PUSH1 0x3 ADD DIV SWAP3 DUP4 ADD SWAP3 PUSH1 0x1 SUB DUP3 MUL SWAP2 POP DUP1 DUP5 GT PUSH2 0x41CE JUMPI SWAP1 POP JUMPDEST POP POP POP POP POP SWAP3 POP PUSH1 0x0 JUMPDEST DUP4 MLOAD DUP2 LT ISZERO PUSH2 0x4347 JUMPI DUP6 PUSH4 0xFFFFFFFF AND DUP5 DUP3 DUP2 MLOAD DUP2 LT PUSH2 0x4238 JUMPI PUSH2 0x4237 PUSH2 0x552F JUMP JUMPDEST JUMPDEST PUSH1 0x20 MUL PUSH1 0x20 ADD ADD MLOAD PUSH4 0xFFFFFFFF AND SUB PUSH2 0x433A JUMPI PUSH1 0x0 DUP3 PUSH1 0x2 ADD DUP3 DUP2 SLOAD DUP2 LT PUSH2 0x4263 JUMPI PUSH2 0x4262 PUSH2 0x552F JUMP JUMPDEST JUMPDEST SWAP1 PUSH1 0x0 MSTORE PUSH1 0x20 PUSH1 0x0 KECCAK256 SWAP1 PUSH1 0x8 SWAP2 DUP3 DUP3 DIV ADD SWAP2 SWAP1 MOD PUSH1 0x4 MUL PUSH2 0x100 EXP DUP2 SLOAD DUP2 PUSH4 0xFFFFFFFF MUL NOT AND SWAP1 DUP4 PUSH4 0xFFFFFFFF AND MUL OR SWAP1 SSTORE POP PUSH2 0x431D DUP3 PUSH1 0x2 ADD DUP1 SLOAD DUP1 PUSH1 0x20 MUL PUSH1 0x20 ADD PUSH1 0x40 MLOAD SWAP1 DUP2 ADD PUSH1 0x40 MSTORE DUP1 SWAP3 SWAP2 SWAP1 DUP2 DUP2 MSTORE PUSH1 0x20 ADD DUP3 DUP1 SLOAD DUP1 ISZERO PUSH2 0x4313 JUMPI PUSH1 0x20 MUL DUP3 ADD SWAP2 SWAP1 PUSH1 0x0 MSTORE PUSH1 0x20 PUSH1 0x0 KECCAK256 SWAP1 PUSH1 0x0 SWAP1 JUMPDEST DUP3 DUP3 SWAP1 SLOAD SWAP1 PUSH2 0x100 EXP SWAP1 DIV PUSH4 0xFFFFFFFF AND PUSH4 0xFFFFFFFF AND DUP2 MSTORE PUSH1 0x20 ADD SWAP1 PUSH1 0x4 ADD SWAP1 PUSH1 0x20 DUP3 PUSH1 0x3 ADD DIV SWAP3 DUP4 ADD SWAP3 PUSH1 0x1 SUB DUP3 MUL SWAP2 POP DUP1 DUP5 GT PUSH2 0x42D6 JUMPI SWAP1 POP JUMPDEST POP POP POP POP POP PUSH2 0x2F06 JUMP JUMPDEST DUP3 PUSH1 0x3 ADD SWAP1 DUP1 MLOAD SWAP1 PUSH1 0x20 ADD SWAP1 PUSH2 0x4334 SWAP3 SWAP2 SWAP1 PUSH2 0x4808 JUMP JUMPDEST POP PUSH2 0x4347 JUMP JUMPDEST DUP1 DUP1 PUSH1 0x1 ADD SWAP2 POP POP PUSH2 0x4215 JUMP JUMPDEST POP POP DUP1 DUP1 PUSH1 0x1 ADD SWAP2 POP POP PUSH2 0x4128 JUMP JUMPDEST POP PUSH2 0x4362 PUSH1 0x7 DUP5 PUSH2 0x44E9 JUMP JUMPDEST PUSH1 0x0 DUP3 PUSH1 0x0 ADD PUSH1 0x0 PUSH2 0x100 EXP DUP2 SLOAD DUP2 PUSH1 0xFF MUL NOT AND SWAP1 DUP4 ISZERO ISZERO MUL OR SWAP1 SSTORE POP POP POP POP JUMP JUMPDEST PUSH1 0x0 DUP1 DUP5 DUP4 DUP2 MLOAD DUP2 LT PUSH2 0x439A JUMPI PUSH2 0x4399 PUSH2 0x552F JUMP JUMPDEST JUMPDEST PUSH1 0x20 MUL PUSH1 0x20 ADD ADD MLOAD SWAP1 POP PUSH1 0x0 DUP5 SWAP1 POP PUSH1 0x0 DUP6 SWAP1 POP JUMPDEST DUP5 DUP2 LT ISZERO PUSH2 0x4468 JUMPI DUP3 DUP8 DUP3 DUP2 MLOAD DUP2 LT PUSH2 0x43CB JUMPI PUSH2 0x43CA PUSH2 0x552F JUMP JUMPDEST JUMPDEST PUSH1 0x20 MUL PUSH1 0x20 ADD ADD MLOAD GT PUSH2 0x445B JUMPI DUP7 DUP2 DUP2 MLOAD DUP2 LT PUSH2 0x43EB JUMPI PUSH2 0x43EA PUSH2 0x552F JUMP JUMPDEST JUMPDEST PUSH1 0x20 MUL PUSH1 0x20 ADD ADD MLOAD DUP8 DUP4 DUP2 MLOAD DUP2 LT PUSH2 0x4406 JUMPI PUSH2 0x4405 PUSH2 0x552F JUMP JUMPDEST JUMPDEST PUSH1 0x20 MUL PUSH1 0x20 ADD ADD MLOAD DUP9 DUP5 DUP2 MLOAD DUP2 LT PUSH2 0x4421 JUMPI PUSH2 0x4420 PUSH2 0x552F JUMP JUMPDEST JUMPDEST PUSH1 0x20 MUL PUSH1 0x20 ADD ADD DUP10 DUP5 DUP2 MLOAD DUP2 LT PUSH2 0x443B JUMPI PUSH2 0x443A PUSH2 0x552F JUMP JUMPDEST JUMPDEST PUSH1 0x20 MUL PUSH1 0x20 ADD ADD DUP3 DUP2 MSTORE POP DUP3 DUP2 MSTORE POP POP POP DUP2 DUP1 PUSH2 0x4457 SWAP1 PUSH2 0x59D4 JUMP JUMPDEST SWAP3 POP POP JUMPDEST DUP1 DUP1 PUSH1 0x1 ADD SWAP2 POP POP PUSH2 0x43AF JUMP JUMPDEST POP DUP6 DUP5 DUP2 MLOAD DUP2 LT PUSH2 0x447C JUMPI PUSH2 0x447B PUSH2 0x552F JUMP JUMPDEST JUMPDEST PUSH1 0x20 MUL PUSH1 0x20 ADD ADD MLOAD DUP7 DUP3 DUP2 MLOAD DUP2 LT PUSH2 0x4497 JUMPI PUSH2 0x4496 PUSH2 0x552F JUMP JUMPDEST JUMPDEST PUSH1 0x20 MUL PUSH1 0x20 ADD ADD MLOAD DUP8 DUP4 DUP2 MLOAD DUP2 LT PUSH2 0x44B2 JUMPI PUSH2 0x44B1 PUSH2 0x552F JUMP JUMPDEST JUMPDEST PUSH1 0x20 MUL PUSH1 0x20 ADD ADD DUP9 DUP8 DUP2 MLOAD DUP2 LT PUSH2 0x44CC JUMPI PUSH2 0x44CB PUSH2 0x552F JUMP JUMPDEST JUMPDEST PUSH1 0x20 MUL PUSH1 0x20 ADD ADD DUP3 DUP2 MSTORE POP DUP3 DUP2 MSTORE POP POP POP DUP1 SWAP3 POP POP POP SWAP4 SWAP3 POP POP POP JUMP JUMPDEST PUSH1 0x0 DUP3 DUP1 SLOAD SWAP1 POP SWAP1 POP PUSH1 0x0 JUMPDEST DUP2 DUP2 LT ISZERO PUSH2 0x4626 JUMPI DUP3 PUSH4 0xFFFFFFFF AND DUP5 DUP3 DUP2 SLOAD DUP2 LT PUSH2 0x4517 JUMPI PUSH2 0x4516 PUSH2 0x552F JUMP JUMPDEST JUMPDEST SWAP1 PUSH1 0x0 MSTORE PUSH1 0x20 PUSH1 0x0 KECCAK256 SWAP1 PUSH1 0x8 SWAP2 DUP3 DUP3 DIV ADD SWAP2 SWAP1 MOD PUSH1 0x4 MUL SWAP1 SLOAD SWAP1 PUSH2 0x100 EXP SWAP1 DIV PUSH4 0xFFFFFFFF AND PUSH4 0xFFFFFFFF AND SUB PUSH2 0x4619 JUMPI DUP4 PUSH1 0x1 DUP4 PUSH2 0x4556 SWAP2 SWAP1 PUSH2 0x5800 JUMP JUMPDEST DUP2 SLOAD DUP2 LT PUSH2 0x4567 JUMPI PUSH2 0x4566 PUSH2 0x552F JUMP JUMPDEST JUMPDEST SWAP1 PUSH1 0x0 MSTORE PUSH1 0x20 PUSH1 0x0 KECCAK256 SWAP1 PUSH1 0x8 SWAP2 DUP3 DUP3 DIV ADD SWAP2 SWAP1 MOD PUSH1 0x4 MUL SWAP1 SLOAD SWAP1 PUSH2 0x100 EXP SWAP1 DIV PUSH4 0xFFFFFFFF AND DUP5 DUP3 DUP2 SLOAD DUP2 LT PUSH2 0x45A0 JUMPI PUSH2 0x459F PUSH2 0x552F JUMP JUMPDEST JUMPDEST SWAP1 PUSH1 0x0 MSTORE PUSH1 0x20 PUSH1 0x0 KECCAK256 SWAP1 PUSH1 0x8 SWAP2 DUP3 DUP3 DIV ADD SWAP2 SWAP1 MOD PUSH1 0x4 MUL PUSH2 0x100 EXP DUP2 SLOAD DUP2 PUSH4 0xFFFFFFFF MUL NOT AND SWAP1 DUP4 PUSH4 0xFFFFFFFF AND MUL OR SWAP1 SSTORE POP DUP4 DUP1 SLOAD DUP1 PUSH2 0x45E4 JUMPI PUSH2 0x45E3 PUSH2 0x5E1C JUMP JUMPDEST JUMPDEST PUSH1 0x1 SWAP1 SUB DUP2 DUP2 SWAP1 PUSH1 0x0 MSTORE PUSH1 0x20 PUSH1 0x0 KECCAK256 SWAP1 PUSH1 0x8 SWAP2 DUP3 DUP3 DIV ADD SWAP2 SWAP1 MOD PUSH1 0x4 MUL PUSH2 0x100 EXP DUP2 SLOAD SWAP1 PUSH4 0xFFFFFFFF MUL NOT AND SWAP1 SSTORE SWAP1 SSTORE PUSH2 0x4626 JUMP JUMPDEST DUP1 DUP1 PUSH1 0x1 ADD SWAP2 POP POP PUSH2 0x44F5 JUMP JUMPDEST POP POP POP POP JUMP JUMPDEST PUSH1 0x40 MLOAD DUP1 PUSH1 0xE0 ADD PUSH1 0x40 MSTORE DUP1 PUSH1 0x0 ISZERO ISZERO DUP2 MSTORE PUSH1 0x20 ADD PUSH1 0x0 ISZERO ISZERO DUP2 MSTORE PUSH1 0x20 ADD PUSH1 0x0 ISZERO ISZERO DUP2 MSTORE PUSH1 0x20 ADD PUSH1 0x0 PUSH20 0xFFFFFFFFFFFFFFFFFFFFFFFFFFFFFFFFFFFFFFFF AND DUP2 MSTORE PUSH1 0x20 ADD PUSH1 0x60 DUP2 MSTORE PUSH1 0x20 ADD PUSH1 0x60 DUP2 MSTORE PUSH1 0x20 ADD PUSH1 0x60 DUP2 MSTORE POP SWAP1 JUMP JUMPDEST DUP3 DUP1 SLOAD DUP3 DUP3 SSTORE SWAP1 PUSH1 0x0 MSTORE PUSH1 0x20 PUSH1 0x0 KECCAK256 SWAP1 PUSH1 0x7 ADD PUSH1 0x8 SWAP1 DIV DUP2 ADD SWAP3 DUP3 ISZERO PUSH2 0x472A JUMPI SWAP2 PUSH1 0x20 MUL DUP3 ADD PUSH1 0x0 JUMPDEST DUP4 DUP3 GT ISZERO PUSH2 0x46F8 JUMPI DUP4 CALLDATALOAD PUSH4 0xFFFFFFFF AND DUP4 DUP3 PUSH2 0x100 EXP DUP2 SLOAD DUP2 PUSH4 0xFFFFFFFF MUL NOT AND SWAP1 DUP4 PUSH4 0xFFFFFFFF AND MUL OR SWAP1 SSTORE POP SWAP3 PUSH1 0x20 ADD SWAP3 PUSH1 0x4 ADD PUSH1 0x20 DUP2 PUSH1 0x3 ADD DIV SWAP3 DUP4 ADD SWAP3 PUSH1 0x1 SUB MUL PUSH2 0x46AE JUMP JUMPDEST DUP1 ISZERO PUSH2 0x4728 JUMPI DUP3 DUP2 PUSH2 0x100 EXP DUP2 SLOAD SWAP1 PUSH4 0xFFFFFFFF MUL NOT AND SWAP1 SSTORE PUSH1 0x4 ADD PUSH1 0x20 DUP2 PUSH1 0x3 ADD DIV SWAP3 DUP4 ADD SWAP3 PUSH1 0x1 SUB MUL PUSH2 0x46F8 JUMP JUMPDEST POP JUMPDEST POP SWAP1 POP PUSH2 0x4737 SWAP2 SWAP1 PUSH2 0x48D2 JUMP JUMPDEST POP SWAP1 JUMP JUMPDEST DUP3 DUP1 SLOAD DUP3 DUP3 SSTORE SWAP1 PUSH1 0x0 MSTORE PUSH1 0x20 PUSH1 0x0 KECCAK256 SWAP1 DUP2 ADD SWAP3 DUP3 ISZERO PUSH2 0x4777 JUMPI SWAP2 PUSH1 0x20 MUL DUP3 ADD JUMPDEST DUP3 DUP2 GT ISZERO PUSH2 0x4776 JUMPI DUP3 CALLDATALOAD DUP3 SSTORE SWAP2 PUSH1 0x20 ADD SWAP2 SWAP1 PUSH1 0x1 ADD SWAP1 PUSH2 0x475B JUMP JUMPDEST JUMPDEST POP SWAP1 POP PUSH2 0x4784 SWAP2 SWAP1 PUSH2 0x48D2 JUMP JUMPDEST POP SWAP1 JUMP JUMPDEST DUP3 DUP1 SLOAD DUP3 DUP3 SSTORE SWAP1 PUSH1 0x0 MSTORE PUSH1 0x20 PUSH1 0x0 KECCAK256 SWAP1 DUP2 ADD SWAP3 DUP3 ISZERO PUSH2 0x47C4 JUMPI SWAP2 PUSH1 0x20 MUL DUP3 ADD JUMPDEST DUP3 DUP2 GT ISZERO PUSH2 0x47C3 JUMPI DUP3 MLOAD DUP3 SSTORE SWAP2 PUSH1 0x20 ADD SWAP2 SWAP1 PUSH1 0x1 ADD SWAP1 PUSH2 0x47A8 JUMP JUMPDEST JUMPDEST POP SWAP1 POP PUSH2 0x47D1 SWAP2 SWAP1 PUSH2 0x48D2 JUMP JUMPDEST POP SWAP1 JUMP JUMPDEST PUSH1 0x40 MLOAD DUP1 PUSH1 0x80 ADD PUSH1 0x40 MSTORE DUP1 PUSH1 0x0 ISZERO ISZERO DUP2 MSTORE PUSH1 0x20 ADD PUSH1 0x0 PUSH1 0xFF AND DUP2 MSTORE PUSH1 0x20 ADD PUSH1 0x60 DUP2 MSTORE PUSH1 0x20 ADD PUSH2 0x4802 PUSH2 0x48B8 JUMP JUMPDEST DUP2 MSTORE POP SWAP1 JUMP JUMPDEST DUP3 DUP1 SLOAD DUP3 DUP3 SSTORE SWAP1 PUSH1 0x0 MSTORE PUSH1 0x20 PUSH1 0x0 KECCAK256 SWAP1 PUSH1 0x7 ADD PUSH1 0x8 SWAP1 DIV DUP2 ADD SWAP3 DUP3 ISZERO PUSH2 0x48A7 JUMPI SWAP2 PUSH1 0x20 MUL DUP3 ADD PUSH1 0x0 JUMPDEST DUP4 DUP3 GT ISZERO PUSH2 0x4875 JUMPI DUP4 MLOAD DUP4 DUP3 PUSH2 0x100 EXP DUP2 SLOAD DUP2 PUSH4 0xFFFFFFFF MUL NOT AND SWAP1 DUP4 PUSH4 0xFFFFFFFF AND MUL OR SWAP1 SSTORE POP SWAP3 PUSH1 0x20 ADD SWAP3 PUSH1 0x4 ADD PUSH1 0x20 DUP2 PUSH1 0x3 ADD DIV SWAP3 DUP4 ADD SWAP3 PUSH1 0x1 SUB MUL PUSH2 0x4831 JUMP JUMPDEST DUP1 ISZERO PUSH2 0x48A5 JUMPI DUP3 DUP2 PUSH2 0x100 EXP DUP2 SLOAD SWAP1 PUSH4 0xFFFFFFFF MUL NOT AND SWAP1 SSTORE PUSH1 0x4 ADD PUSH1 0x20 DUP2 PUSH1 0x3 ADD DIV SWAP3 DUP4 ADD SWAP3 PUSH1 0x1 SUB MUL PUSH2 0x4875 JUMP JUMPDEST POP JUMPDEST POP SWAP1 POP PUSH2 0x48B4 SWAP2 SWAP1 PUSH2 0x48D2 JUMP JUMPDEST POP SWAP1 JUMP JUMPDEST PUSH1 0x40 MLOAD DUP1 PUSH1 0x40 ADD PUSH1 0x40 MSTORE DUP1 PUSH1 0x0 DUP2 MSTORE PUSH1 0x20 ADD PUSH1 0x60 DUP2 MSTORE POP SWAP1 JUMP JUMPDEST JUMPDEST DUP1 DUP3 GT ISZERO PUSH2 0x48EB JUMPI PUSH1 0x0 DUP2 PUSH1 0x0 SWAP1 SSTORE POP PUSH1 0x1 ADD PUSH2 0x48D3 JUMP JUMPDEST POP SWAP1 JUMP JUMPDEST PUSH1 0x0 DUP1 REVERT JUMPDEST PUSH1 0x0 DUP1 REVERT JUMPDEST PUSH1 0x0 PUSH32 0xFFFFFFFF00000000000000000000000000000000000000000000000000000000 DUP3 AND SWAP1 POP SWAP2 SWAP1 POP JUMP JUMPDEST PUSH2 0x492E DUP2 PUSH2 0x48F9 JUMP JUMPDEST DUP2 EQ PUSH2 0x4939 JUMPI PUSH1 0x0 DUP1 REVERT JUMPDEST POP JUMP JUMPDEST PUSH1 0x0 DUP2 CALLDATALOAD SWAP1 POP PUSH2 0x494B DUP2 PUSH2 0x4925 JUMP JUMPDEST SWAP3 SWAP2 POP POP JUMP JUMPDEST PUSH1 0x0 PUSH1 0x20 DUP3 DUP5 SUB SLT ISZERO PUSH2 0x4967 JUMPI PUSH2 0x4966 PUSH2 0x48EF JUMP JUMPDEST JUMPDEST PUSH1 0x0 PUSH2 0x4975 DUP5 DUP3 DUP6 ADD PUSH2 0x493C JUMP JUMPDEST SWAP2 POP POP SWAP3 SWAP2 POP POP JUMP JUMPDEST PUSH1 0x0 DUP2 ISZERO ISZERO SWAP1 POP SWAP2 SWAP1 POP JUMP JUMPDEST PUSH2 0x4993 DUP2 PUSH2 0x497E JUMP JUMPDEST DUP3 MSTORE POP POP JUMP JUMPDEST PUSH1 0x0 PUSH1 0x20 DUP3 ADD SWAP1 POP PUSH2 0x49AE PUSH1 0x0 DUP4 ADD DUP5 PUSH2 0x498A JUMP JUMPDEST SWAP3 SWAP2 POP POP JUMP JUMPDEST PUSH1 0x0 DUP2 SWAP1 POP SWAP2 SWAP1 POP JUMP JUMPDEST PUSH2 0x49C7 DUP2 PUSH2 0x49B4 JUMP JUMPDEST DUP2 EQ PUSH2 0x49D2 JUMPI PUSH1 0x0 DUP1 REVERT JUMPDEST POP JUMP JUMPDEST PUSH1 0x0 DUP2 CALLDATALOAD SWAP1 POP PUSH2 0x49E4 DUP2 PUSH2 0x49BE JUMP JUMPDEST SWAP3 SWAP2 POP POP JUMP JUMPDEST PUSH1 0x0 PUSH1 0x20 DUP3 DUP5 SUB SLT ISZERO PUSH2 0x4A00 JUMPI PUSH2 0x49FF PUSH2 0x48EF JUMP JUMPDEST JUMPDEST PUSH1 0x0 PUSH2 0x4A0E DUP5 DUP3 DUP6 ADD PUSH2 0x49D5 JUMP JUMPDEST SWAP2 POP POP SWAP3 SWAP2 POP POP JUMP JUMPDEST PUSH1 0x0 PUSH4 0xFFFFFFFF DUP3 AND SWAP1 POP SWAP2 SWAP1 POP JUMP JUMPDEST PUSH2 0x4A30 DUP2 PUSH2 0x4A17 JUMP JUMPDEST DUP3 MSTORE POP POP JUMP JUMPDEST PUSH1 0x0 PUSH1 0x20 DUP3 ADD SWAP1 POP PUSH2 0x4A4B PUSH1 0x0 DUP4 ADD DUP5 PUSH2 0x4A27 JUMP JUMPDEST SWAP3 SWAP2 POP POP JUMP JUMPDEST PUSH2 0x4A5A DUP2 PUSH2 0x497E JUMP JUMPDEST DUP3 MSTORE POP POP JUMP JUMPDEST PUSH1 0x0 PUSH20 0xFFFFFFFFFFFFFFFFFFFFFFFFFFFFFFFFFFFFFFFF DUP3 AND SWAP1 POP SWAP2 SWAP1 POP JUMP JUMPDEST PUSH1 0x0 PUSH2 0x4A8B DUP3 PUSH2 0x4A60 JUMP JUMPDEST SWAP1 POP SWAP2 SWAP1 POP JUMP JUMPDEST PUSH2 0x4A9B DUP2 PUSH2 0x4A80 JUMP JUMPDEST DUP3 MSTORE POP POP JUMP JUMPDEST PUSH1 0x0 DUP2 MLOAD SWAP1 POP SWAP2 SWAP1 POP JUMP JUMPDEST PUSH1 0x0 DUP3 DUP3 MSTORE PUSH1 0x20 DUP3 ADD SWAP1 POP SWAP3 SWAP2 POP POP JUMP JUMPDEST PUSH1 0x0 DUP2 SWAP1 POP PUSH1 0x20 DUP3 ADD SWAP1 POP SWAP2 SWAP1 POP JUMP JUMPDEST PUSH2 0x4AD6 DUP2 PUSH2 0x4A17 JUMP JUMPDEST DUP3 MSTORE POP POP JUMP JUMPDEST PUSH1 0x0 PUSH2 0x4AE8 DUP4 DUP4 PUSH2 0x4ACD JUMP JUMPDEST PUSH1 0x20 DUP4 ADD SWAP1 POP SWAP3 SWAP2 POP POP JUMP JUMPDEST PUSH1 0x0 PUSH1 0x20 DUP3 ADD SWAP1 POP SWAP2 SWAP1 POP JUMP JUMPDEST PUSH1 0x0 PUSH2 0x4B0C DUP3 PUSH2 0x4AA1 JUMP JUMPDEST PUSH2 0x4B16 DUP2 DUP6 PUSH2 0x4AAC JUMP JUMPDEST SWAP4 POP PUSH2 0x4B21 DUP4 PUSH2 0x4ABD JUMP JUMPDEST DUP1 PUSH1 0x0 JUMPDEST DUP4 DUP2 LT ISZERO PUSH2 0x4B52 JUMPI DUP2 MLOAD PUSH2 0x4B39 DUP9 DUP3 PUSH2 0x4ADC JUMP JUMPDEST SWAP8 POP PUSH2 0x4B44 DUP4 PUSH2 0x4AF4 JUMP JUMPDEST SWAP3 POP POP PUSH1 0x1 DUP2 ADD SWAP1 POP PUSH2 0x4B25 JUMP JUMPDEST POP DUP6 SWAP4 POP POP POP POP SWAP3 SWAP2 POP POP JUMP JUMPDEST PUSH1 0x0 DUP2 MLOAD SWAP1 POP SWAP2 SWAP1 POP JUMP JUMPDEST PUSH1 0x0 DUP3 DUP3 MSTORE PUSH1 0x20 DUP3 ADD SWAP1 POP SWAP3 SWAP2 POP POP JUMP JUMPDEST PUSH1 0x0 DUP2 SWAP1 POP PUSH1 0x20 DUP3 ADD SWAP1 POP SWAP2 SWAP1 POP JUMP JUMPDEST PUSH2 0x4B94 DUP2 PUSH2 0x49B4 JUMP JUMPDEST DUP3 MSTORE POP POP JUMP JUMPDEST PUSH1 0x0 PUSH2 0x4BA6 DUP4 DUP4 PUSH2 0x4B8B JUMP JUMPDEST PUSH1 0x20 DUP4 ADD SWAP1 POP SWAP3 SWAP2 POP POP JUMP JUMPDEST PUSH1 0x0 PUSH1 0x20 DUP3 ADD SWAP1 POP SWAP2 SWAP1 POP JUMP JUMPDEST PUSH1 0x0 PUSH2 0x4BCA DUP3 PUSH2 0x4B5F JUMP JUMPDEST PUSH2 0x4BD4 DUP2 DUP6 PUSH2 0x4B6A JUMP JUMPDEST SWAP4 POP PUSH2 0x4BDF DUP4 PUSH2 0x4B7B JUMP JUMPDEST DUP1 PUSH1 0x0 JUMPDEST DUP4 DUP2 LT ISZERO PUSH2 0x4C10 JUMPI DUP2 MLOAD PUSH2 0x4BF7 DUP9 DUP3 PUSH2 0x4B9A JUMP JUMPDEST SWAP8 POP PUSH2 0x4C02 DUP4 PUSH2 0x4BB2 JUMP JUMPDEST SWAP3 POP POP PUSH1 0x1 DUP2 ADD SWAP1 POP PUSH2 0x4BE3 JUMP JUMPDEST POP DUP6 SWAP4 POP POP POP POP SWAP3 SWAP2 POP POP JUMP JUMPDEST PUSH1 0x0 PUSH1 0xE0 DUP4 ADD PUSH1 0x0 DUP4 ADD MLOAD PUSH2 0x4C35 PUSH1 0x0 DUP7 ADD DUP3 PUSH2 0x4A51 JUMP JUMPDEST POP PUSH1 0x20 DUP4 ADD MLOAD PUSH2 0x4C48 PUSH1 0x20 DUP7 ADD DUP3 PUSH2 0x4A51 JUMP JUMPDEST POP PUSH1 0x40 DUP4 ADD MLOAD PUSH2 0x4C5B PUSH1 0x40 DUP7 ADD DUP3 PUSH2 0x4A51 JUMP JUMPDEST POP PUSH1 0x60 DUP4 ADD MLOAD PUSH2 0x4C6E PUSH1 0x60 DUP7 ADD DUP3 PUSH2 0x4A92 JUMP JUMPDEST POP PUSH1 0x80 DUP4 ADD MLOAD DUP5 DUP3 SUB PUSH1 0x80 DUP7 ADD MSTORE PUSH2 0x4C86 DUP3 DUP3 PUSH2 0x4B01 JUMP JUMPDEST SWAP2 POP POP PUSH1 0xA0 DUP4 ADD MLOAD DUP5 DUP3 SUB PUSH1 0xA0 DUP7 ADD MSTORE PUSH2 0x4CA0 DUP3 DUP3 PUSH2 0x4B01 JUMP JUMPDEST SWAP2 POP POP PUSH1 0xC0 DUP4 ADD MLOAD DUP5 DUP3 SUB PUSH1 0xC0 DUP7 ADD MSTORE PUSH2 0x4CBA DUP3 DUP3 PUSH2 0x4BBF JUMP JUMPDEST SWAP2 POP POP DUP1 SWAP2 POP POP SWAP3 SWAP2 POP POP JUMP JUMPDEST PUSH1 0x0 PUSH1 0x20 DUP3 ADD SWAP1 POP DUP2 DUP2 SUB PUSH1 0x0 DUP4 ADD MSTORE PUSH2 0x4CE1 DUP2 DUP5 PUSH2 0x4C1D JUMP JUMPDEST SWAP1 POP SWAP3 SWAP2 POP POP JUMP JUMPDEST PUSH2 0x4CF2 DUP2 PUSH2 0x49B4 JUMP JUMPDEST DUP3 MSTORE POP POP JUMP JUMPDEST PUSH1 0x0 PUSH1 0x20 DUP3 ADD SWAP1 POP PUSH2 0x4D0D PUSH1 0x0 DUP4 ADD DUP5 PUSH2 0x4CE9 JUMP JUMPDEST SWAP3 SWAP2 POP POP JUMP JUMPDEST PUSH1 0x0 DUP1 REVERT JUMPDEST PUSH1 0x0 DUP1 REVERT JUMPDEST PUSH1 0x0 DUP1 REVERT JUMPDEST PUSH1 0x0 DUP1 DUP4 PUSH1 0x1F DUP5 ADD SLT PUSH2 0x4D38 JUMPI PUSH2 0x4D37 PUSH2 0x4D13 JUMP JUMPDEST JUMPDEST DUP3 CALLDATALOAD SWAP1 POP PUSH8 0xFFFFFFFFFFFFFFFF DUP2 GT ISZERO PUSH2 0x4D55 JUMPI PUSH2 0x4D54 PUSH2 0x4D18 JUMP JUMPDEST JUMPDEST PUSH1 0x20 DUP4 ADD SWAP2 POP DUP4 PUSH1 0x20 DUP3 MUL DUP4 ADD GT ISZERO PUSH2 0x4D71 JUMPI PUSH2 0x4D70 PUSH2 0x4D1D JUMP JUMPDEST JUMPDEST SWAP3 POP SWAP3 SWAP1 POP JUMP JUMPDEST PUSH1 0x0 DUP1 PUSH1 0x20 DUP4 DUP6 SUB SLT ISZERO PUSH2 0x4D8F JUMPI PUSH2 0x4D8E PUSH2 0x48EF JUMP JUMPDEST JUMPDEST PUSH1 0x0 DUP4 ADD CALLDATALOAD PUSH8 0xFFFFFFFFFFFFFFFF DUP2 GT ISZERO PUSH2 0x4DAD JUMPI PUSH2 0x4DAC PUSH2 0x48F4 JUMP JUMPDEST JUMPDEST PUSH2 0x4DB9 DUP6 DUP3 DUP7 ADD PUSH2 0x4D22 JUMP JUMPDEST SWAP3 POP SWAP3 POP POP SWAP3 POP SWAP3 SWAP1 POP JUMP JUMPDEST PUSH1 0x0 DUP2 SWAP1 POP SWAP2 SWAP1 POP JUMP JUMPDEST PUSH1 0x0 PUSH2 0x4DEA PUSH2 0x4DE5 PUSH2 0x4DE0 DUP5 PUSH2 0x4A60 JUMP JUMPDEST PUSH2 0x4DC5 JUMP JUMPDEST PUSH2 0x4A60 JUMP JUMPDEST SWAP1 POP SWAP2 SWAP1 POP JUMP JUMPDEST PUSH1 0x0 PUSH2 0x4DFC DUP3 PUSH2 0x4DCF JUMP JUMPDEST SWAP1 POP SWAP2 SWAP1 POP JUMP JUMPDEST PUSH1 0x0 PUSH2 0x4E0E DUP3 PUSH2 0x4DF1 JUMP JUMPDEST SWAP1 POP SWAP2 SWAP1 POP JUMP JUMPDEST PUSH2 0x4E1E DUP2 PUSH2 0x4E03 JUMP JUMPDEST DUP3 MSTORE POP POP JUMP JUMPDEST PUSH1 0x0 PUSH1 0x20 DUP3 ADD SWAP1 POP PUSH2 0x4E39 PUSH1 0x0 DUP4 ADD DUP5 PUSH2 0x4E15 JUMP JUMPDEST SWAP3 SWAP2 POP POP JUMP JUMPDEST PUSH1 0x0 DUP2 SWAP1 POP SWAP2 SWAP1 POP JUMP JUMPDEST PUSH2 0x4E52 DUP2 PUSH2 0x4E3F JUMP JUMPDEST DUP2 EQ PUSH2 0x4E5D JUMPI PUSH1 0x0 DUP1 REVERT JUMPDEST POP JUMP JUMPDEST PUSH1 0x0 DUP2 CALLDATALOAD SWAP1 POP PUSH2 0x4E6F DUP2 PUSH2 0x4E49 JUMP JUMPDEST SWAP3 SWAP2 POP POP JUMP JUMPDEST PUSH1 0x0 PUSH1 0x20 DUP3 DUP5 SUB SLT ISZERO PUSH2 0x4E8B JUMPI PUSH2 0x4E8A PUSH2 0x48EF JUMP JUMPDEST JUMPDEST PUSH1 0x0 PUSH2 0x4E99 DUP5 DUP3 DUP6 ADD PUSH2 0x4E60 JUMP JUMPDEST SWAP2 POP POP SWAP3 SWAP2 POP POP JUMP JUMPDEST PUSH2 0x4EAB DUP2 PUSH2 0x4E3F JUMP JUMPDEST DUP3 MSTORE POP POP JUMP JUMPDEST PUSH1 0x0 PUSH1 0x20 DUP3 ADD SWAP1 POP PUSH2 0x4EC6 PUSH1 0x0 DUP4 ADD DUP5 PUSH2 0x4EA2 JUMP JUMPDEST SWAP3 SWAP2 POP POP JUMP JUMPDEST PUSH1 0x0 DUP3 DUP3 MSTORE PUSH1 0x20 DUP3 ADD SWAP1 POP SWAP3 SWAP2 POP POP JUMP JUMPDEST PUSH1 0x0 PUSH2 0x4EE8 DUP3 PUSH2 0x4AA1 JUMP JUMPDEST PUSH2 0x4EF2 DUP2 DUP6 PUSH2 0x4ECC JUMP JUMPDEST SWAP4 POP PUSH2 0x4EFD DUP4 PUSH2 0x4ABD JUMP JUMPDEST DUP1 PUSH1 0x0 JUMPDEST DUP4 DUP2 LT ISZERO PUSH2 0x4F2E JUMPI DUP2 MLOAD PUSH2 0x4F15 DUP9 DUP3 PUSH2 0x4ADC JUMP JUMPDEST SWAP8 POP PUSH2 0x4F20 DUP4 PUSH2 0x4AF4 JUMP JUMPDEST SWAP3 POP POP PUSH1 0x1 DUP2 ADD SWAP1 POP PUSH2 0x4F01 JUMP JUMPDEST POP DUP6 SWAP4 POP POP POP POP SWAP3 SWAP2 POP POP JUMP JUMPDEST PUSH1 0x0 PUSH1 0x20 DUP3 ADD SWAP1 POP DUP2 DUP2 SUB PUSH1 0x0 DUP4 ADD MSTORE PUSH2 0x4F55 DUP2 DUP5 PUSH2 0x4EDD JUMP JUMPDEST SWAP1 POP SWAP3 SWAP2 POP POP JUMP JUMPDEST PUSH2 0x4F66 DUP2 PUSH2 0x4A80 JUMP JUMPDEST DUP2 EQ PUSH2 0x4F71 JUMPI PUSH1 0x0 DUP1 REVERT JUMPDEST POP JUMP JUMPDEST PUSH1 0x0 DUP2 CALLDATALOAD SWAP1 POP PUSH2 0x4F83 DUP2 PUSH2 0x4F5D JUMP JUMPDEST SWAP3 SWAP2 POP POP JUMP JUMPDEST PUSH1 0x0 DUP1 PUSH1 0x40 DUP4 DUP6 SUB SLT ISZERO PUSH2 0x4FA0 JUMPI PUSH2 0x4F9F PUSH2 0x48EF JUMP JUMPDEST JUMPDEST PUSH1 0x0 PUSH2 0x4FAE DUP6 DUP3 DUP7 ADD PUSH2 0x4E60 JUMP JUMPDEST SWAP3 POP POP PUSH1 0x20 PUSH2 0x4FBF DUP6 DUP3 DUP7 ADD PUSH2 0x4F74 JUMP JUMPDEST SWAP2 POP POP SWAP3 POP SWAP3 SWAP1 POP JUMP JUMPDEST PUSH1 0x0 DUP1 DUP4 PUSH1 0x1F DUP5 ADD SLT PUSH2 0x4FDF JUMPI PUSH2 0x4FDE PUSH2 0x4D13 JUMP JUMPDEST JUMPDEST DUP3 CALLDATALOAD SWAP1 POP PUSH8 0xFFFFFFFFFFFFFFFF DUP2 GT ISZERO PUSH2 0x4FFC JUMPI PUSH2 0x4FFB PUSH2 0x4D18 JUMP JUMPDEST JUMPDEST PUSH1 0x20 DUP4 ADD SWAP2 POP DUP4 PUSH1 0x20 DUP3 MUL DUP4 ADD GT ISZERO PUSH2 0x5018 JUMPI PUSH2 0x5017 PUSH2 0x4D1D JUMP JUMPDEST JUMPDEST SWAP3 POP SWAP3 SWAP1 POP JUMP JUMPDEST PUSH1 0x0 DUP1 PUSH1 0x0 PUSH1 0x40 DUP5 DUP7 SUB SLT ISZERO PUSH2 0x5038 JUMPI PUSH2 0x5037 PUSH2 0x48EF JUMP JUMPDEST JUMPDEST PUSH1 0x0 PUSH2 0x5046 DUP7 DUP3 DUP8 ADD PUSH2 0x49D5 JUMP JUMPDEST SWAP4 POP POP PUSH1 0x20 DUP5 ADD CALLDATALOAD PUSH8 0xFFFFFFFFFFFFFFFF DUP2 GT ISZERO PUSH2 0x5067 JUMPI PUSH2 0x5066 PUSH2 0x48F4 JUMP JUMPDEST JUMPDEST PUSH2 0x5073 DUP7 DUP3 DUP8 ADD PUSH2 0x4FC9 JUMP JUMPDEST SWAP3 POP SWAP3 POP POP SWAP3 POP SWAP3 POP SWAP3 JUMP JUMPDEST PUSH1 0x0 DUP3 DUP3 MSTORE PUSH1 0x20 DUP3 ADD SWAP1 POP SWAP3 SWAP2 POP POP JUMP JUMPDEST PUSH1 0x0 PUSH2 0x509B DUP3 PUSH2 0x4B5F JUMP JUMPDEST PUSH2 0x50A5 DUP2 DUP6 PUSH2 0x507F JUMP JUMPDEST SWAP4 POP PUSH2 0x50B0 DUP4 PUSH2 0x4B7B JUMP JUMPDEST DUP1 PUSH1 0x0 JUMPDEST DUP4 DUP2 LT ISZERO PUSH2 0x50E1 JUMPI DUP2 MLOAD PUSH2 0x50C8 DUP9 DUP3 PUSH2 0x4B9A JUMP JUMPDEST SWAP8 POP PUSH2 0x50D3 DUP4 PUSH2 0x4BB2 JUMP JUMPDEST SWAP3 POP POP PUSH1 0x1 DUP2 ADD SWAP1 POP PUSH2 0x50B4 JUMP JUMPDEST POP DUP6 SWAP4 POP POP POP POP SWAP3 SWAP2 POP POP JUMP JUMPDEST PUSH1 0x0 PUSH1 0x20 DUP3 ADD SWAP1 POP DUP2 DUP2 SUB PUSH1 0x0 DUP4 ADD MSTORE PUSH2 0x5108 DUP2 DUP5 PUSH2 0x5090 JUMP JUMPDEST SWAP1 POP SWAP3 SWAP2 POP POP JUMP JUMPDEST PUSH1 0x0 DUP1 PUSH1 0x20 DUP4 DUP6 SUB SLT ISZERO PUSH2 0x5127 JUMPI PUSH2 0x5126 PUSH2 0x48EF JUMP JUMPDEST JUMPDEST PUSH1 0x0 DUP4 ADD CALLDATALOAD PUSH8 0xFFFFFFFFFFFFFFFF DUP2 GT ISZERO PUSH2 0x5145 JUMPI PUSH2 0x5144 PUSH2 0x48F4 JUMP JUMPDEST JUMPDEST PUSH2 0x5151 DUP6 DUP3 DUP7 ADD PUSH2 0x4FC9 JUMP JUMPDEST SWAP3 POP SWAP3 POP POP SWAP3 POP SWAP3 SWAP1 POP JUMP JUMPDEST PUSH2 0x5166 DUP2 PUSH2 0x4A17 JUMP JUMPDEST DUP2 EQ PUSH2 0x5171 JUMPI PUSH1 0x0 DUP1 REVERT JUMPDEST POP JUMP JUMPDEST PUSH1 0x0 DUP2 CALLDATALOAD SWAP1 POP PUSH2 0x5183 DUP2 PUSH2 0x515D JUMP JUMPDEST SWAP3 SWAP2 POP POP JUMP JUMPDEST PUSH1 0x0 DUP1 PUSH1 0x0 PUSH1 0x40 DUP5 DUP7 SUB SLT ISZERO PUSH2 0x51A2 JUMPI PUSH2 0x51A1 PUSH2 0x48EF JUMP JUMPDEST JUMPDEST PUSH1 0x0 PUSH2 0x51B0 DUP7 DUP3 DUP8 ADD PUSH2 0x5174 JUMP JUMPDEST SWAP4 POP POP PUSH1 0x20 DUP5 ADD CALLDATALOAD PUSH8 0xFFFFFFFFFFFFFFFF DUP2 GT ISZERO PUSH2 0x51D1 JUMPI PUSH2 0x51D0 PUSH2 0x48F4 JUMP JUMPDEST JUMPDEST PUSH2 0x51DD DUP7 DUP3 DUP8 ADD PUSH2 0x4D22 JUMP JUMPDEST SWAP3 POP SWAP3 POP POP SWAP3 POP SWAP3 POP SWAP3 JUMP JUMPDEST PUSH2 0x51F2 DUP2 PUSH2 0x4A80 JUMP JUMPDEST DUP3 MSTORE POP POP JUMP JUMPDEST PUSH1 0x0 PUSH1 0x80 DUP3 ADD SWAP1 POP PUSH2 0x520D PUSH1 0x0 DUP4 ADD DUP8 PUSH2 0x498A JUMP JUMPDEST PUSH2 0x521A PUSH1 0x20 DUP4 ADD DUP7 PUSH2 0x498A JUMP JUMPDEST PUSH2 0x5227 PUSH1 0x40 DUP4 ADD DUP6 PUSH2 0x498A JUMP JUMPDEST PUSH2 0x5234 PUSH1 0x60 DUP4 ADD DUP5 PUSH2 0x51E9 JUMP JUMPDEST SWAP6 SWAP5 POP POP POP POP POP JUMP JUMPDEST PUSH1 0x0 PUSH1 0x20 DUP3 DUP5 SUB SLT ISZERO PUSH2 0x5253 JUMPI PUSH2 0x5252 PUSH2 0x48EF JUMP JUMPDEST JUMPDEST PUSH1 0x0 PUSH2 0x5261 DUP5 DUP3 DUP6 ADD PUSH2 0x5174 JUMP JUMPDEST SWAP2 POP POP SWAP3 SWAP2 POP POP JUMP JUMPDEST PUSH1 0x0 DUP1 PUSH1 0x0 DUP1 PUSH1 0x0 PUSH1 0x60 DUP7 DUP9 SUB SLT ISZERO PUSH2 0x5286 JUMPI PUSH2 0x5285 PUSH2 0x48EF JUMP JUMPDEST JUMPDEST PUSH1 0x0 PUSH2 0x5294 DUP9 DUP3 DUP10 ADD PUSH2 0x5174 JUMP JUMPDEST SWAP6 POP POP PUSH1 0x20 DUP7 ADD CALLDATALOAD PUSH8 0xFFFFFFFFFFFFFFFF DUP2 GT ISZERO PUSH2 0x52B5 JUMPI PUSH2 0x52B4 PUSH2 0x48F4 JUMP JUMPDEST JUMPDEST PUSH2 0x52C1 DUP9 DUP3 DUP10 ADD PUSH2 0x4D22 JUMP JUMPDEST SWAP5 POP SWAP5 POP POP PUSH1 0x40 DUP7 ADD CALLDATALOAD PUSH8 0xFFFFFFFFFFFFFFFF DUP2 GT ISZERO PUSH2 0x52E4 JUMPI PUSH2 0x52E3 PUSH2 0x48F4 JUMP JUMPDEST JUMPDEST PUSH2 0x52F0 DUP9 DUP3 DUP10 ADD PUSH2 0x4D22 JUMP JUMPDEST SWAP3 POP SWAP3 POP POP SWAP3 SWAP6 POP SWAP3 SWAP6 SWAP1 SWAP4 POP JUMP JUMPDEST PUSH1 0x0 DUP1 PUSH1 0x0 DUP1 PUSH1 0x0 PUSH1 0x60 DUP7 DUP9 SUB SLT ISZERO PUSH2 0x531B JUMPI PUSH2 0x531A PUSH2 0x48EF JUMP JUMPDEST JUMPDEST PUSH1 0x0 PUSH2 0x5329 DUP9 DUP3 DUP10 ADD PUSH2 0x4F74 JUMP JUMPDEST SWAP6 POP POP PUSH1 0x20 DUP7 ADD CALLDATALOAD PUSH8 0xFFFFFFFFFFFFFFFF DUP2 GT ISZERO PUSH2 0x534A JUMPI PUSH2 0x5349 PUSH2 0x48F4 JUMP JUMPDEST JUMPDEST PUSH2 0x5356 DUP9 DUP3 DUP10 ADD PUSH2 0x4D22 JUMP JUMPDEST SWAP5 POP SWAP5 POP POP PUSH1 0x40 DUP7 ADD CALLDATALOAD PUSH8 0xFFFFFFFFFFFFFFFF DUP2 GT ISZERO PUSH2 0x5379 JUMPI PUSH2 0x5378 PUSH2 0x48F4 JUMP JUMPDEST JUMPDEST PUSH2 0x5385 DUP9 DUP3 DUP10 ADD PUSH2 0x4D22 JUMP JUMPDEST SWAP3 POP SWAP3 POP POP SWAP3 SWAP6 POP SWAP3 SWAP6 SWAP1 SWAP4 POP JUMP JUMPDEST PUSH1 0x0 PUSH1 0x80 DUP3 ADD SWAP1 POP PUSH2 0x53A9 PUSH1 0x0 DUP4 ADD DUP8 PUSH2 0x498A JUMP JUMPDEST PUSH2 0x53B6 PUSH1 0x20 DUP4 ADD DUP7 PUSH2 0x4CE9 JUMP JUMPDEST PUSH2 0x53C3 PUSH1 0x40 DUP4 ADD DUP6 PUSH2 0x4A27 JUMP JUMPDEST PUSH2 0x53D0 PUSH1 0x60 DUP4 ADD DUP5 PUSH2 0x4A27 JUMP JUMPDEST SWAP6 SWAP5 POP POP POP POP POP JUMP JUMPDEST PUSH1 0x0 PUSH1 0x60 DUP3 ADD SWAP1 POP DUP2 DUP2 SUB PUSH1 0x0 DUP4 ADD MSTORE PUSH2 0x53F3 DUP2 DUP7 PUSH2 0x4EDD JUMP JUMPDEST SWAP1 POP DUP2 DUP2 SUB PUSH1 0x20 DUP4 ADD MSTORE PUSH2 0x5407 DUP2 DUP6 PUSH2 0x4EDD JUMP JUMPDEST SWAP1 POP DUP2 DUP2 SUB PUSH1 0x40 DUP4 ADD MSTORE PUSH2 0x541B DUP2 DUP5 PUSH2 0x4EDD JUMP JUMPDEST SWAP1 POP SWAP5 SWAP4 POP POP POP POP JUMP JUMPDEST PUSH1 0x0 PUSH2 0x5430 DUP3 PUSH2 0x4DF1 JUMP JUMPDEST SWAP1 POP SWAP2 SWAP1 POP JUMP JUMPDEST PUSH2 0x5440 DUP2 PUSH2 0x5425 JUMP JUMPDEST DUP3 MSTORE POP POP JUMP JUMPDEST PUSH1 0x0 PUSH1 0x20 DUP3 ADD SWAP1 POP PUSH2 0x545B PUSH1 0x0 DUP4 ADD DUP5 PUSH2 0x5437 JUMP JUMPDEST SWAP3 SWAP2 POP POP JUMP JUMPDEST PUSH1 0x0 PUSH1 0xFF DUP3 AND SWAP1 POP SWAP2 SWAP1 POP JUMP JUMPDEST PUSH2 0x5477 DUP2 PUSH2 0x5461 JUMP JUMPDEST DUP3 MSTORE POP POP JUMP JUMPDEST PUSH1 0x0 PUSH1 0x40 DUP4 ADD PUSH1 0x0 DUP4 ADD MLOAD PUSH2 0x5495 PUSH1 0x0 DUP7 ADD DUP3 PUSH2 0x4B8B JUMP JUMPDEST POP PUSH1 0x20 DUP4 ADD MLOAD DUP5 DUP3 SUB PUSH1 0x20 DUP7 ADD MSTORE PUSH2 0x54AD DUP3 DUP3 PUSH2 0x4BBF JUMP JUMPDEST SWAP2 POP POP DUP1 SWAP2 POP POP SWAP3 SWAP2 POP POP JUMP JUMPDEST PUSH1 0x0 PUSH1 0x60 DUP3 ADD SWAP1 POP PUSH2 0x54CF PUSH1 0x0 DUP4 ADD DUP7 PUSH2 0x498A JUMP JUMPDEST PUSH2 0x54DC PUSH1 0x20 DUP4 ADD DUP6 PUSH2 0x546E JUMP JUMPDEST DUP2 DUP2 SUB PUSH1 0x40 DUP4 ADD MSTORE PUSH2 0x54EE DUP2 DUP5 PUSH2 0x547D JUMP JUMPDEST SWAP1 POP SWAP5 SWAP4 POP POP POP POP JUMP JUMPDEST PUSH1 0x0 PUSH1 0x40 DUP3 ADD SWAP1 POP DUP2 DUP2 SUB PUSH1 0x0 DUP4 ADD MSTORE PUSH2 0x5512 DUP2 DUP6 PUSH2 0x4EDD JUMP JUMPDEST SWAP1 POP DUP2 DUP2 SUB PUSH1 0x20 DUP4 ADD MSTORE PUSH2 0x5526 DUP2 DUP5 PUSH2 0x547D JUMP JUMPDEST SWAP1 POP SWAP4 SWAP3 POP POP POP JUMP JUMPDEST PUSH32 0x4E487B7100000000000000000000000000000000000000000000000000000000 PUSH1 0x0 MSTORE PUSH1 0x32 PUSH1 0x4 MSTORE PUSH1 0x24 PUSH1 0x0 REVERT JUMPDEST PUSH1 0x0 DUP2 SWAP1 POP SWAP2 SWAP1 POP JUMP JUMPDEST PUSH1 0x0 PUSH2 0x5577 PUSH1 0x20 DUP5 ADD DUP5 PUSH2 0x5174 JUMP JUMPDEST SWAP1 POP SWAP3 SWAP2 POP POP JUMP JUMPDEST PUSH1 0x0 PUSH1 0x20 DUP3 ADD SWAP1 POP SWAP2 SWAP1 POP JUMP JUMPDEST PUSH1 0x0 PUSH2 0x5598 DUP4 DUP6 PUSH2 0x4ECC JUMP JUMPDEST SWAP4 POP PUSH2 0x55A3 DUP3 PUSH2 0x555E JUMP JUMPDEST DUP1 PUSH1 0x0 JUMPDEST DUP6 DUP2 LT ISZERO PUSH2 0x55DC JUMPI PUSH2 0x55B9 DUP3 DUP5 PUSH2 0x5568 JUMP JUMPDEST PUSH2 0x55C3 DUP9 DUP3 PUSH2 0x4ADC JUMP JUMPDEST SWAP8 POP PUSH2 0x55CE DUP4 PUSH2 0x557F JUMP JUMPDEST SWAP3 POP POP PUSH1 0x1 DUP2 ADD SWAP1 POP PUSH2 0x55A7 JUMP JUMPDEST POP DUP6 SWAP3 POP POP POP SWAP4 SWAP3 POP POP POP JUMP JUMPDEST PUSH1 0x0 PUSH1 0x20 DUP3 ADD SWAP1 POP DUP2 DUP2 SUB PUSH1 0x0 DUP4 ADD MSTORE PUSH2 0x5604 DUP2 DUP5 DUP7 PUSH2 0x558C JUMP JUMPDEST SWAP1 POP SWAP4 SWAP3 POP POP POP JUMP JUMPDEST PUSH1 0x0 DUP2 MLOAD SWAP1 POP PUSH2 0x561C DUP2 PUSH2 0x4E49 JUMP JUMPDEST SWAP3 SWAP2 POP POP JUMP JUMPDEST PUSH1 0x0 PUSH1 0x20 DUP3 DUP5 SUB SLT ISZERO PUSH2 0x5638 JUMPI PUSH2 0x5637 PUSH2 0x48EF JUMP JUMPDEST JUMPDEST PUSH1 0x0 PUSH2 0x5646 DUP5 DUP3 DUP6 ADD PUSH2 0x560D JUMP JUMPDEST SWAP2 POP POP SWAP3 SWAP2 POP POP JUMP JUMPDEST PUSH1 0x0 PUSH1 0x40 DUP3 ADD SWAP1 POP PUSH2 0x5664 PUSH1 0x0 DUP4 ADD DUP6 PUSH2 0x4EA2 JUMP JUMPDEST PUSH2 0x5671 PUSH1 0x20 DUP4 ADD DUP5 PUSH2 0x51E9 JUMP JUMPDEST SWAP4 SWAP3 POP POP POP JUMP JUMPDEST PUSH1 0x0 DUP1 REVERT JUMPDEST DUP3 DUP2 DUP4 CALLDATACOPY POP POP POP JUMP JUMPDEST PUSH1 0x0 PUSH2 0x5692 DUP4 DUP6 PUSH2 0x507F JUMP JUMPDEST SWAP4 POP PUSH32 0x7FFFFFFFFFFFFFFFFFFFFFFFFFFFFFFFFFFFFFFFFFFFFFFFFFFFFFFFFFFFFFF DUP4 GT ISZERO PUSH2 0x56C5 JUMPI PUSH2 0x56C4 PUSH2 0x5678 JUMP JUMPDEST JUMPDEST PUSH1 0x20 DUP4 MUL SWAP3 POP PUSH2 0x56D6 DUP4 DUP6 DUP5 PUSH2 0x567D JUMP JUMPDEST DUP3 DUP5 ADD SWAP1 POP SWAP4 SWAP3 POP POP POP JUMP JUMPDEST PUSH1 0x0 PUSH1 0x20 DUP3 ADD SWAP1 POP DUP2 DUP2 SUB PUSH1 0x0 DUP4 ADD MSTORE PUSH2 0x56FD DUP2 DUP5 DUP7 PUSH2 0x5686 JUMP JUMPDEST SWAP1 POP SWAP4 SWAP3 POP POP POP JUMP JUMPDEST PUSH32 0x4E487B7100000000000000000000000000000000000000000000000000000000 PUSH1 0x0 MSTORE PUSH1 0x11 PUSH1 0x4 MSTORE PUSH1 0x24 PUSH1 0x0 REVERT JUMPDEST PUSH1 0x0 PUSH2 0x5740 DUP3 PUSH2 0x4A17 JUMP JUMPDEST SWAP2 POP PUSH4 0xFFFFFFFF DUP3 SUB PUSH2 0x5756 JUMPI PUSH2 0x5755 PUSH2 0x5706 JUMP JUMPDEST JUMPDEST PUSH1 0x1 DUP3 ADD SWAP1 POP SWAP2 SWAP1 POP JUMP JUMPDEST PUSH1 0x0 DUP2 MLOAD SWAP1 POP PUSH2 0x5770 DUP2 PUSH2 0x4F5D JUMP JUMPDEST SWAP3 SWAP2 POP POP JUMP JUMPDEST PUSH1 0x0 PUSH1 0x20 DUP3 DUP5 SUB SLT ISZERO PUSH2 0x578C JUMPI PUSH2 0x578B PUSH2 0x48EF JUMP JUMPDEST JUMPDEST PUSH1 0x0 PUSH2 0x579A DUP5 DUP3 DUP6 ADD PUSH2 0x5761 JUMP JUMPDEST SWAP2 POP POP SWAP3 SWAP2 POP POP JUMP JUMPDEST PUSH1 0x0 PUSH1 0x20 DUP3 ADD SWAP1 POP PUSH2 0x57B8 PUSH1 0x0 DUP4 ADD DUP5 PUSH2 0x51E9 JUMP JUMPDEST SWAP3 SWAP2 POP POP JUMP JUMPDEST PUSH1 0x0 DUP2 MLOAD SWAP1 POP PUSH2 0x57CD DUP2 PUSH2 0x49BE JUMP JUMPDEST SWAP3 SWAP2 POP POP JUMP JUMPDEST PUSH1 0x0 PUSH1 0x20 DUP3 DUP5 SUB SLT ISZERO PUSH2 0x57E9 JUMPI PUSH2 0x57E8 PUSH2 0x48EF JUMP JUMPDEST JUMPDEST PUSH1 0x0 PUSH2 0x57F7 DUP5 DUP3 DUP6 ADD PUSH2 0x57BE JUMP JUMPDEST SWAP2 POP POP SWAP3 SWAP2 POP POP JUMP JUMPDEST PUSH1 0x0 PUSH2 0x580B DUP3 PUSH2 0x49B4 JUMP JUMPDEST SWAP2 POP PUSH2 0x5816 DUP4 PUSH2 0x49B4 JUMP JUMPDEST SWAP3 POP DUP3 DUP3 SUB SWAP1 POP DUP2 DUP2 GT ISZERO PUSH2 0x582E JUMPI PUSH2 0x582D PUSH2 0x5706 JUMP JUMPDEST JUMPDEST SWAP3 SWAP2 POP POP JUMP JUMPDEST PUSH1 0x0 PUSH2 0x583F DUP3 PUSH2 0x49B4 JUMP JUMPDEST SWAP2 POP PUSH2 0x584A DUP4 PUSH2 0x49B4 JUMP JUMPDEST SWAP3 POP DUP3 DUP3 ADD SWAP1 POP DUP1 DUP3 GT ISZERO PUSH2 0x5862 JUMPI PUSH2 0x5861 PUSH2 0x5706 JUMP JUMPDEST JUMPDEST SWAP3 SWAP2 POP POP JUMP JUMPDEST PUSH32 0x4E487B7100000000000000000000000000000000000000000000000000000000 PUSH1 0x0 MSTORE PUSH1 0x41 PUSH1 0x4 MSTORE PUSH1 0x24 PUSH1 0x0 REVERT JUMPDEST PUSH1 0x0 PUSH2 0x58A2 DUP3 PUSH2 0x4A17 JUMP JUMPDEST SWAP2 POP PUSH1 0x0 DUP3 SUB PUSH2 0x58B5 JUMPI PUSH2 0x58B4 PUSH2 0x5706 JUMP JUMPDEST JUMPDEST PUSH1 0x1 DUP3 SUB SWAP1 POP SWAP2 SWAP1 POP JUMP JUMPDEST PUSH1 0x0 DUP2 SWAP1 POP SWAP2 SWAP1 POP JUMP JUMPDEST PUSH1 0x0 PUSH2 0x58E5 PUSH2 0x58E0 PUSH2 0x58DB DUP5 PUSH2 0x58C0 JUMP JUMPDEST PUSH2 0x4DC5 JUMP JUMPDEST PUSH2 0x49B4 JUMP JUMPDEST SWAP1 POP SWAP2 SWAP1 POP JUMP JUMPDEST PUSH2 0x58F5 DUP2 PUSH2 0x58CA JUMP JUMPDEST DUP3 MSTORE POP POP JUMP JUMPDEST PUSH1 0x0 DUP3 DUP3 MSTORE PUSH1 0x20 DUP3 ADD SWAP1 POP SWAP3 SWAP2 POP POP JUMP JUMPDEST POP JUMP JUMPDEST PUSH1 0x0 PUSH2 0x591C PUSH1 0x0 DUP4 PUSH2 0x58FB JUMP JUMPDEST SWAP2 POP PUSH2 0x5927 DUP3 PUSH2 0x590C JUMP JUMPDEST PUSH1 0x0 DUP3 ADD SWAP1 POP SWAP2 SWAP1 POP JUMP JUMPDEST PUSH1 0x0 PUSH1 0x80 DUP3 ADD SWAP1 POP PUSH2 0x5947 PUSH1 0x0 DUP4 ADD DUP7 PUSH2 0x51E9 JUMP JUMPDEST PUSH2 0x5954 PUSH1 0x20 DUP4 ADD DUP6 PUSH2 0x4CE9 JUMP JUMPDEST PUSH2 0x5961 PUSH1 0x40 DUP4 ADD DUP5 PUSH2 0x58EC JUMP JUMPDEST DUP2 DUP2 SUB PUSH1 0x60 DUP4 ADD MSTORE PUSH2 0x5972 DUP2 PUSH2 0x590F JUMP JUMPDEST SWAP1 POP SWAP5 SWAP4 POP POP POP POP JUMP JUMPDEST PUSH1 0x0 PUSH1 0x80 DUP3 ADD SWAP1 POP PUSH2 0x5991 PUSH1 0x0 DUP4 ADD DUP7 PUSH2 0x51E9 JUMP JUMPDEST DUP2 DUP2 SUB PUSH1 0x20 DUP4 ADD MSTORE PUSH2 0x59A3 DUP2 DUP6 PUSH2 0x5090 JUMP JUMPDEST SWAP1 POP DUP2 DUP2 SUB PUSH1 0x40 DUP4 ADD MSTORE PUSH2 0x59B7 DUP2 DUP5 PUSH2 0x5090 JUMP JUMPDEST SWAP1 POP DUP2 DUP2 SUB PUSH1 0x60 DUP4 ADD MSTORE PUSH2 0x59CA DUP2 PUSH2 0x590F JUMP JUMPDEST SWAP1 POP SWAP5 SWAP4 POP POP POP POP JUMP JUMPDEST PUSH1 0x0 PUSH2 0x59DF DUP3 PUSH2 0x49B4 JUMP JUMPDEST SWAP2 POP PUSH32 0xFFFFFFFFFFFFFFFFFFFFFFFFFFFFFFFFFFFFFFFFFFFFFFFFFFFFFFFFFFFFFFFF DUP3 SUB PUSH2 0x5A11 JUMPI PUSH2 0x5A10 PUSH2 0x5706 JUMP JUMPDEST JUMPDEST PUSH1 0x1 DUP3 ADD SWAP1 POP SWAP2 SWAP1 POP JUMP JUMPDEST PUSH1 0x0 DUP2 PUSH1 0x1 SHR SWAP1 POP SWAP2 SWAP1 POP JUMP JUMPDEST PUSH1 0x0 DUP1 DUP3 SWAP2 POP DUP4 SWAP1 POP JUMPDEST PUSH1 0x1 DUP6 GT ISZERO PUSH2 0x5A73 JUMPI DUP1 DUP7 DIV DUP2 GT ISZERO PUSH2 0x5A4F JUMPI PUSH2 0x5A4E PUSH2 0x5706 JUMP JUMPDEST JUMPDEST PUSH1 0x1 DUP6 AND ISZERO PUSH2 0x5A5E JUMPI DUP1 DUP3 MUL SWAP2 POP JUMPDEST DUP1 DUP2 MUL SWAP1 POP PUSH2 0x5A6C DUP6 PUSH2 0x5A1C JUMP JUMPDEST SWAP5 POP PUSH2 0x5A33 JUMP JUMPDEST SWAP5 POP SWAP5 SWAP3 POP POP POP JUMP JUMPDEST PUSH1 0x0 DUP3 PUSH2 0x5A8C JUMPI PUSH1 0x1 SWAP1 POP PUSH2 0x5B48 JUMP JUMPDEST DUP2 PUSH2 0x5A9A JUMPI PUSH1 0x0 SWAP1 POP PUSH2 0x5B48 JUMP JUMPDEST DUP2 PUSH1 0x1 DUP2 EQ PUSH2 0x5AB0 JUMPI PUSH1 0x2 DUP2 EQ PUSH2 0x5ABA JUMPI PUSH2 0x5AE9 JUMP JUMPDEST PUSH1 0x1 SWAP2 POP POP PUSH2 0x5B48 JUMP JUMPDEST PUSH1 0xFF DUP5 GT ISZERO PUSH2 0x5ACC JUMPI PUSH2 0x5ACB PUSH2 0x5706 JUMP JUMPDEST JUMPDEST DUP4 PUSH1 0x2 EXP SWAP2 POP DUP5 DUP3 GT ISZERO PUSH2 0x5AE3 JUMPI PUSH2 0x5AE2 PUSH2 0x5706 JUMP JUMPDEST JUMPDEST POP PUSH2 0x5B48 JUMP JUMPDEST POP PUSH1 0x20 DUP4 LT PUSH2 0x133 DUP4 LT AND PUSH1 0x4E DUP5 LT PUSH1 0xB DUP5 LT AND OR ISZERO PUSH2 0x5B1E JUMPI DUP3 DUP3 EXP SWAP1 POP DUP4 DUP2 GT ISZERO PUSH2 0x5B19 JUMPI PUSH2 0x5B18 PUSH2 0x5706 JUMP JUMPDEST JUMPDEST PUSH2 0x5B48 JUMP JUMPDEST PUSH2 0x5B2B DUP5 DUP5 DUP5 PUSH1 0x1 PUSH2 0x5A29 JUMP JUMPDEST SWAP3 POP SWAP1 POP DUP2 DUP5 DIV DUP2 GT ISZERO PUSH2 0x5B42 JUMPI PUSH2 0x5B41 PUSH2 0x5706 JUMP JUMPDEST JUMPDEST DUP2 DUP2 MUL SWAP1 POP JUMPDEST SWAP4 SWAP3 POP POP POP JUMP JUMPDEST PUSH1 0x0 PUSH2 0x5B5A DUP3 PUSH2 0x49B4 JUMP JUMPDEST SWAP2 POP PUSH2 0x5B65 DUP4 PUSH2 0x4A17 JUMP JUMPDEST SWAP3 POP PUSH2 0x5B92 PUSH32 0xFFFFFFFFFFFFFFFFFFFFFFFFFFFFFFFFFFFFFFFFFFFFFFFFFFFFFFFFFFFFFFFF DUP5 DUP5 PUSH2 0x5A7C JUMP JUMPDEST SWAP1 POP SWAP3 SWAP2 POP POP JUMP JUMPDEST PUSH32 0x4E487B7100000000000000000000000000000000000000000000000000000000 PUSH1 0x0 MSTORE PUSH1 0x12 PUSH1 0x4 MSTORE PUSH1 0x24 PUSH1 0x0 REVERT JUMPDEST PUSH1 0x0 PUSH2 0x5BD4 DUP3 PUSH2 0x49B4 JUMP JUMPDEST SWAP2 POP PUSH2 0x5BDF DUP4 PUSH2 0x49B4 JUMP JUMPDEST SWAP3 POP DUP3 PUSH2 0x5BEF JUMPI PUSH2 0x5BEE PUSH2 0x5B9A JUMP JUMPDEST JUMPDEST DUP3 DUP3 DIV SWAP1 POP SWAP3 SWAP2 POP POP JUMP JUMPDEST PUSH1 0x0 PUSH2 0x5C05 DUP3 PUSH2 0x4A17 JUMP JUMPDEST SWAP2 POP PUSH2 0x5C10 DUP4 PUSH2 0x4A17 JUMP JUMPDEST SWAP3 POP DUP3 DUP3 SUB SWAP1 POP PUSH4 0xFFFFFFFF DUP2 GT ISZERO PUSH2 0x5C2C JUMPI PUSH2 0x5C2B PUSH2 0x5706 JUMP JUMPDEST JUMPDEST SWAP3 SWAP2 POP POP JUMP JUMPDEST PUSH1 0x0 PUSH2 0x5C3D DUP3 PUSH2 0x4A17 JUMP JUMPDEST SWAP2 POP PUSH2 0x5C48 DUP4 PUSH2 0x4A17 JUMP JUMPDEST SWAP3 POP DUP3 DUP3 ADD SWAP1 POP PUSH4 0xFFFFFFFF DUP2 GT ISZERO PUSH2 0x5C64 JUMPI PUSH2 0x5C63 PUSH2 0x5706 JUMP JUMPDEST JUMPDEST SWAP3 SWAP2 POP POP JUMP JUMPDEST PUSH1 0x0 PUSH2 0x5C75 DUP3 PUSH2 0x49B4 JUMP JUMPDEST SWAP2 POP PUSH2 0x5C80 DUP4 PUSH2 0x49B4 JUMP JUMPDEST SWAP3 POP DUP3 PUSH2 0x5C90 JUMPI PUSH2 0x5C8F PUSH2 0x5B9A JUMP JUMPDEST JUMPDEST DUP3 DUP3 MOD SWAP1 POP SWAP3 SWAP2 POP POP JUMP JUMPDEST PUSH1 0x0 PUSH2 0x5CA6 DUP3 PUSH2 0x49B4 JUMP JUMPDEST SWAP2 POP PUSH2 0x5CB1 DUP4 PUSH2 0x5461 JUMP JUMPDEST SWAP3 POP PUSH2 0x5CDE PUSH32 0xFFFFFFFFFFFFFFFFFFFFFFFFFFFFFFFFFFFFFFFFFFFFFFFFFFFFFFFFFFFFFFFF DUP5 DUP5 PUSH2 0x5A7C JUMP JUMPDEST SWAP1 POP SWAP3 SWAP2 POP POP JUMP JUMPDEST PUSH1 0x0 PUSH2 0x5CF1 DUP3 PUSH2 0x5461 JUMP JUMPDEST SWAP2 POP PUSH1 0xFF DUP3 SUB PUSH2 0x5D04 JUMPI PUSH2 0x5D03 PUSH2 0x5706 JUMP JUMPDEST JUMPDEST PUSH1 0x1 DUP3 ADD SWAP1 POP SWAP2 SWAP1 POP JUMP JUMPDEST PUSH1 0x0 PUSH1 0x40 DUP3 ADD SWAP1 POP PUSH2 0x5D24 PUSH1 0x0 DUP4 ADD DUP6 PUSH2 0x51E9 JUMP JUMPDEST PUSH2 0x5D31 PUSH1 0x20 DUP4 ADD DUP5 PUSH2 0x4EA2 JUMP JUMPDEST SWAP4 SWAP3 POP POP POP JUMP JUMPDEST PUSH1 0x0 PUSH2 0x5D43 DUP3 PUSH2 0x4A17 JUMP JUMPDEST SWAP2 POP PUSH2 0x5D4E DUP4 PUSH2 0x4A17 JUMP JUMPDEST SWAP3 POP DUP3 PUSH2 0x5D5E JUMPI PUSH2 0x5D5D PUSH2 0x5B9A JUMP JUMPDEST JUMPDEST DUP3 DUP3 MOD SWAP1 POP SWAP3 SWAP2 POP POP JUMP JUMPDEST PUSH1 0x0 PUSH2 0x5D74 DUP3 PUSH2 0x5461 JUMP JUMPDEST SWAP2 POP PUSH2 0x5D7F DUP4 PUSH2 0x5461 JUMP JUMPDEST SWAP3 POP DUP3 DUP3 SUB SWAP1 POP PUSH1 0xFF DUP2 GT ISZERO PUSH2 0x5D98 JUMPI PUSH2 0x5D97 PUSH2 0x5706 JUMP JUMPDEST JUMPDEST SWAP3 SWAP2 POP POP JUMP JUMPDEST PUSH1 0x0 PUSH2 0x5DA9 DUP3 PUSH2 0x49B4 JUMP JUMPDEST SWAP2 POP PUSH2 0x5DB4 DUP4 PUSH2 0x49B4 JUMP JUMPDEST SWAP3 POP DUP3 DUP3 MUL PUSH2 0x5DC2 DUP2 PUSH2 0x49B4 JUMP JUMPDEST SWAP2 POP DUP3 DUP3 DIV DUP5 EQ DUP4 ISZERO OR PUSH2 0x5DD9 JUMPI PUSH2 0x5DD8 PUSH2 0x5706 JUMP JUMPDEST JUMPDEST POP SWAP3 SWAP2 POP POP JUMP JUMPDEST PUSH1 0x0 DUP2 SWAP1 POP SWAP2 SWAP1 POP JUMP JUMPDEST PUSH2 0x5DFB PUSH2 0x5DF6 DUP3 PUSH2 0x49B4 JUMP JUMPDEST PUSH2 0x5DE0 JUMP JUMPDEST DUP3 MSTORE POP POP JUMP JUMPDEST PUSH1 0x0 PUSH2 0x5E0D DUP3 DUP5 PUSH2 0x5DEA JUMP JUMPDEST PUSH1 0x20 DUP3 ADD SWAP2 POP DUP2 SWAP1 POP SWAP3 SWAP2 POP POP JUMP JUMPDEST PUSH32 0x4E487B7100000000000000000000000000000000000000000000000000000000 PUSH1 0x0 MSTORE PUSH1 0x31 PUSH1 0x4 MSTORE PUSH1 0x24 PUSH1 0x0 REVERT INVALID LOG2 PUSH5 0x6970667358 0x22 SLT KECCAK256 0xA8 0xE1 PUSH18 0x66D23CBE4C783B02AF90C3D291E5D7ACC9E1 0xDF 0xA7 0x29 GASLIMIT CALLDATALOAD CALLVALUE 0xC7 JUMP PUSH23 0xA88D64736F6C6343000817003300000000000000000000 "
		},
		"gasEstimates": {
			"creation": {
				"codeDepositCost": "4838600",
				"executionCost": "infinite",
				"totalCost": "infinite"
			},
			"external": {
				"DEFAULT_ADMIN_ROLE()": "446",
				"MANAGER_ROLE()": "395",
				"drawingPoolsInfo(uint32)": "2873",
				"execRequestBatch()": "278",
				"existedDrawing(uint256)": "6683",
				"existedUnit(uint256)": "6594",
				"fulfillRandomWords(uint256,uint256[])": "infinite",
				"getExistedDrawingPool()": "infinite",
				"getExistedUnitPool()": "infinite",
				"getLastRequestId()": "6830",
				"getPoolInfo(uint32)": "infinite",
				"getRequestInfo(uint256)": "infinite",
				"getReuqestQueue()": "infinite",
				"getRoleAdmin(bytes32)": "infinite",
				"getTokenInfo(uint256)": "infinite",
				"getTokenMaxAmounts()": "infinite",
				"getTokenPoolInfo()": "infinite",
				"getTokenRemainings()": "infinite",
				"getUnitPoolInfo(uint32)": "infinite",
				"grantRole(bytes32,address)": "infinite",
				"hasRole(bytes32,address)": "3229",
				"ids(uint256)": "infinite",
				"maxAmounts(uint256)": "6618",
				"nftContract()": "infinite",
				"pendingRequestNum()": "infinite",
				"register()": "infinite",
				"remainings(uint256)": "6594",
				"renounceRole(bytes32,address)": "infinite",
				"requestNonce()": "2519",
				"requestsInfo(uint256)": "infinite",
				"requestsQueue(uint256)": "infinite",
				"revokeRole(bytes32,address)": "infinite",
				"sendRequest(address,uint32[],uint32[])": "infinite",
				"setDrawingPool(uint32,uint32[],uint32[])": "infinite",
				"setTokenMaxAmount(uint32[])": "infinite",
				"setTokenPool(uint256[])": "infinite",
				"setUnitPool(uint32,uint32[])": "infinite",
				"supportsInterface(bytes4)": "774",
				"unitPoolsInfo(uint32)": "infinite"
			},
			"internal": {
				"buildOcTree(uint32[] calldata)": "infinite",
				"checkUnitStatus(uint32)": "infinite",
				"closeUnitPool(uint32)": "infinite",
				"count(uint256[] memory)": "infinite",
				"drawTokenIndex(uint32,uint32)": "infinite",
				"drawUnitPoolID(uint32,uint32)": "infinite",
				"execRequest(uint256)": "infinite",
				"getAccumulatedArr(uint32[] memory)": "infinite",
				"getOctreeHeight(uint256)": "infinite",
				"getRandomWord32(uint256)": "69",
				"hash(uint256)": "infinite",
				"pop(uint32[] storage pointer,uint32)": "infinite",
				"removeTokenProb(uint256)": "infinite",
				"updateTokenProb(uint32,uint256,uint32)": "infinite"
			}
		},
		"methodIdentifiers": {
			"DEFAULT_ADMIN_ROLE()": "a217fddf",
			"MANAGER_ROLE()": "ec87621c",
			"drawingPoolsInfo(uint32)": "75a6da9b",
			"execRequestBatch()": "8487a06a",
			"existedDrawing(uint256)": "2e413c37",
			"existedUnit(uint256)": "8667b8d9",
			"fulfillRandomWords(uint256,uint256[])": "38ba4614",
			"getExistedDrawingPool()": "b749ea83",
			"getExistedUnitPool()": "2714795f",
			"getLastRequestId()": "19c2b4c3",
			"getPoolInfo(uint32)": "b670ed52",
			"getRequestInfo(uint256)": "0b816045",
			"getReuqestQueue()": "39da9fb8",
			"getRoleAdmin(bytes32)": "248a9ca3",
			"getTokenInfo(uint256)": "8c7a63ae",
			"getTokenMaxAmounts()": "3c15ecf4",
			"getTokenPoolInfo()": "d7b6453f",
			"getTokenRemainings()": "f36b4b58",
			"getUnitPoolInfo(uint32)": "f3ebc985",
			"grantRole(bytes32,address)": "2f2ff15d",
			"hasRole(bytes32,address)": "91d14854",
			"ids(uint256)": "fac333ac",
			"maxAmounts(uint256)": "02f43023",
			"nftContract()": "d56d229d",
			"pendingRequestNum()": "d2b0022f",
			"register()": "1aa3a008",
			"remainings(uint256)": "3c36eaec",
			"renounceRole(bytes32,address)": "36568abe",
			"requestNonce()": "7c1a0302",
			"requestsInfo(uint256)": "61d34d42",
			"requestsQueue(uint256)": "4749c25c",
			"revokeRole(bytes32,address)": "d547741f",
			"sendRequest(address,uint32[],uint32[])": "7c6ff2da",
			"setDrawingPool(uint32,uint32[],uint32[])": "793822f8",
			"setTokenMaxAmount(uint32[])": "1a75b3ed",
			"setTokenPool(uint256[])": "5a1c7c50",
			"setUnitPool(uint32,uint32[])": "5b94a71b",
			"supportsInterface(bytes4)": "01ffc9a7",
			"unitPoolsInfo(uint32)": "d8683b2e"
		}
	},
	"abi": [
		{
			"inputs": [
				{
					"internalType": "address",
					"name": "_initialAdmin",
					"type": "address"
				},
				{
					"internalType": "address",
					"name": "_register",
					"type": "address"
				},
				{
					"internalType": "address",
					"name": "_nftContract",
					"type": "address"
				}
			],
			"stateMutability": "nonpayable",
			"type": "constructor"
		},
		{
			"inputs": [],
			"name": "AccessControlBadConfirmation",
			"type": "error"
		},
		{
			"inputs": [
				{
					"internalType": "address",
					"name": "account",
					"type": "address"
				},
				{
					"internalType": "bytes32",
					"name": "neededRole",
					"type": "bytes32"
				}
			],
			"name": "AccessControlUnauthorizedAccount",
			"type": "error"
		},
		{
			"inputs": [
				{
					"internalType": "address",
					"name": "",
					"type": "address"
				},
				{
					"internalType": "uint32",
					"name": "",
					"type": "uint32"
				}
			],
			"name": "DrawableNotEnough",
			"type": "error"
		},
		{
			"inputs": [
				{
					"internalType": "uint32",
					"name": "",
					"type": "uint32"
				}
			],
			"name": "DrawingPoolExisted",
			"type": "error"
		},
		{
			"inputs": [
				{
					"internalType": "uint32",
					"name": "",
					"type": "uint32"
				}
			],
			"name": "DrwaingPoolNotExist",
			"type": "error"
		},
		{
			"inputs": [],
			"name": "EmptyIDs",
			"type": "error"
		},
		{
			"inputs": [
				{
					"internalType": "address",
					"name": "",
					"type": "address"
				},
				{
					"internalType": "bytes32",
					"name": "",
					"type": "bytes32"
				}
			],
			"name": "HasRoleAlready",
			"type": "error"
		},
		{
			"inputs": [
				{
					"internalType": "uint256",
					"name": "",
					"type": "uint256"
				}
			],
			"name": "InvalidIndex",
			"type": "error"
		},
		{
			"inputs": [],
			"name": "LengthNotMatch",
			"type": "error"
		},
		{
			"inputs": [],
			"name": "NoPendingRequest",
			"type": "error"
		},
		{
			"inputs": [
				{
					"internalType": "uint256",
					"name": "",
					"type": "uint256"
				}
			],
			"name": "RequestAlreadyFulfilled",
			"type": "error"
		},
		{
			"inputs": [
				{
					"internalType": "uint256",
					"name": "",
					"type": "uint256"
				}
			],
			"name": "RequestNotExist",
			"type": "error"
		},
		{
			"inputs": [
				{
					"internalType": "uint256",
					"name": "",
					"type": "uint256"
				}
			],
			"name": "RequestNotFulfilled",
			"type": "error"
		},
		{
			"inputs": [
				{
					"internalType": "uint256",
					"name": "",
					"type": "uint256"
				}
			],
			"name": "TokenExisted",
			"type": "error"
		},
		{
			"inputs": [
				{
					"internalType": "uint256",
					"name": "",
					"type": "uint256"
				}
			],
			"name": "TokenNotExist",
			"type": "error"
		},
		{
			"inputs": [
				{
					"internalType": "uint32",
					"name": "",
					"type": "uint32"
				}
			],
			"name": "UnitPoolExisted",
			"type": "error"
		},
		{
			"inputs": [
				{
					"internalType": "uint32",
					"name": "",
					"type": "uint32"
				}
			],
			"name": "UnitPoolNotExist",
			"type": "error"
		},
		{
			"inputs": [],
			"name": "ZeroAmount",
			"type": "error"
		},
		{
			"anonymous": false,
			"inputs": [
				{
					"indexed": true,
					"internalType": "uint256",
					"name": "requestId",
					"type": "uint256"
				},
				{
					"indexed": true,
					"internalType": "address",
					"name": "requester",
					"type": "address"
				},
				{
					"indexed": false,
					"internalType": "uint256[]",
					"name": "ids",
					"type": "uint256[]"
				}
			],
			"name": "RequestCompleted",
			"type": "event"
		},
		{
			"anonymous": false,
			"inputs": [
				{
					"indexed": true,
					"internalType": "uint256",
					"name": "requestId",
					"type": "uint256"
				},
				{
					"indexed": false,
					"internalType": "uint256[]",
					"name": "randomWords",
					"type": "uint256[]"
				}
			],
			"name": "RequestFulfilled",
			"type": "event"
		},
		{
			"anonymous": false,
			"inputs": [
				{
					"indexed": true,
					"internalType": "uint256",
					"name": "requestId",
					"type": "uint256"
				},
				{
					"indexed": false,
					"internalType": "address",
					"name": "_requester",
					"type": "address"
				}
			],
			"name": "RequestSent",
			"type": "event"
		},
		{
			"anonymous": false,
			"inputs": [
				{
					"indexed": true,
					"internalType": "bytes32",
					"name": "role",
					"type": "bytes32"
				},
				{
					"indexed": true,
					"internalType": "bytes32",
					"name": "previousAdminRole",
					"type": "bytes32"
				},
				{
					"indexed": true,
					"internalType": "bytes32",
					"name": "newAdminRole",
					"type": "bytes32"
				}
			],
			"name": "RoleAdminChanged",
			"type": "event"
		},
		{
			"anonymous": false,
			"inputs": [
				{
					"indexed": true,
					"internalType": "bytes32",
					"name": "role",
					"type": "bytes32"
				},
				{
					"indexed": true,
					"internalType": "address",
					"name": "account",
					"type": "address"
				},
				{
					"indexed": true,
					"internalType": "address",
					"name": "sender",
					"type": "address"
				}
			],
			"name": "RoleGranted",
			"type": "event"
		},
		{
			"anonymous": false,
			"inputs": [
				{
					"indexed": true,
					"internalType": "bytes32",
					"name": "role",
					"type": "bytes32"
				},
				{
					"indexed": true,
					"internalType": "address",
					"name": "account",
					"type": "address"
				},
				{
					"indexed": true,
					"internalType": "address",
					"name": "sender",
					"type": "address"
				}
			],
			"name": "RoleRevoked",
			"type": "event"
		},
		{
			"anonymous": false,
			"inputs": [
				{
					"indexed": false,
					"internalType": "uint32",
					"name": "drawingPoolID",
					"type": "uint32"
				}
			],
			"name": "SetDrawingPool",
			"type": "event"
		},
		{
			"anonymous": false,
			"inputs": [
				{
					"indexed": false,
					"internalType": "uint32[]",
					"name": "maxAmounts",
					"type": "uint32[]"
				}
			],
			"name": "SetTokenMaxAmount",
			"type": "event"
		},
		{
			"anonymous": false,
			"inputs": [
				{
					"indexed": false,
					"internalType": "uint256[]",
					"name": "ids",
					"type": "uint256[]"
				}
			],
			"name": "SetTokenPool",
			"type": "event"
		},
		{
			"anonymous": false,
			"inputs": [
				{
					"indexed": false,
					"internalType": "uint32",
					"name": "unitPoolID",
					"type": "uint32"
				}
			],
			"name": "SetUnitPool",
			"type": "event"
		},
		{
			"inputs": [],
			"name": "DEFAULT_ADMIN_ROLE",
			"outputs": [
				{
					"internalType": "bytes32",
					"name": "",
					"type": "bytes32"
				}
			],
			"stateMutability": "view",
			"type": "function"
		},
		{
			"inputs": [],
			"name": "MANAGER_ROLE",
			"outputs": [
				{
					"internalType": "bytes32",
					"name": "",
					"type": "bytes32"
				}
			],
			"stateMutability": "view",
			"type": "function"
		},
		{
			"inputs": [
				{
					"internalType": "uint32",
					"name": "",
					"type": "uint32"
				}
			],
			"name": "drawingPoolsInfo",
			"outputs": [
				{
					"internalType": "bool",
					"name": "enable",
					"type": "bool"
				}
			],
			"stateMutability": "view",
			"type": "function"
		},
		{
			"inputs": [],
			"name": "execRequestBatch",
			"outputs": [],
			"stateMutability": "nonpayable",
			"type": "function"
		},
		{
			"inputs": [
				{
					"internalType": "uint256",
					"name": "",
					"type": "uint256"
				}
			],
			"name": "existedDrawing",
			"outputs": [
				{
					"internalType": "uint32",
					"name": "",
					"type": "uint32"
				}
			],
			"stateMutability": "view",
			"type": "function"
		},
		{
			"inputs": [
				{
					"internalType": "uint256",
					"name": "",
					"type": "uint256"
				}
			],
			"name": "existedUnit",
			"outputs": [
				{
					"internalType": "uint32",
					"name": "",
					"type": "uint32"
				}
			],
			"stateMutability": "view",
			"type": "function"
		},
		{
			"inputs": [
				{
					"internalType": "uint256",
					"name": "_requestId",
					"type": "uint256"
				},
				{
					"internalType": "uint256[]",
					"name": "_randomWords",
					"type": "uint256[]"
				}
			],
			"name": "fulfillRandomWords",
			"outputs": [],
			"stateMutability": "nonpayable",
			"type": "function"
		},
		{
			"inputs": [],
			"name": "getExistedDrawingPool",
			"outputs": [
				{
					"internalType": "uint32[]",
					"name": "drawingPools",
					"type": "uint32[]"
				}
			],
			"stateMutability": "view",
			"type": "function"
		},
		{
			"inputs": [],
			"name": "getExistedUnitPool",
			"outputs": [
				{
					"internalType": "uint32[]",
					"name": "unitPools",
					"type": "uint32[]"
				}
			],
			"stateMutability": "view",
			"type": "function"
		},
		{
			"inputs": [],
			"name": "getLastRequestId",
			"outputs": [
				{
					"internalType": "uint256",
					"name": "requestId",
					"type": "uint256"
				}
			],
			"stateMutability": "view",
			"type": "function"
		},
		{
			"inputs": [
				{
					"internalType": "uint32",
					"name": "_poolID",
					"type": "uint32"
				}
			],
			"name": "getPoolInfo",
			"outputs": [
				{
					"internalType": "uint32[]",
					"name": "unitPools",
					"type": "uint32[]"
				},
				{
					"internalType": "uint32[]",
					"name": "probs",
					"type": "uint32[]"
				},
				{
					"internalType": "uint32[]",
					"name": "accumulatedProbs",
					"type": "uint32[]"
				}
			],
			"stateMutability": "view",
			"type": "function"
		},
		{
			"inputs": [
				{
					"internalType": "uint256",
					"name": "_requestId",
					"type": "uint256"
				}
			],
			"name": "getRequestInfo",
			"outputs": [
				{
					"components": [
						{
							"internalType": "bool",
							"name": "exists",
							"type": "bool"
						},
						{
							"internalType": "bool",
							"name": "fulfilled",
							"type": "bool"
						},
						{
							"internalType": "bool",
							"name": "completed",
							"type": "bool"
						},
						{
							"internalType": "address",
							"name": "requestSender",
							"type": "address"
						},
						{
							"internalType": "uint32[]",
							"name": "poolsID",
							"type": "uint32[]"
						},
						{
							"internalType": "uint32[]",
							"name": "amounts",
							"type": "uint32[]"
						},
						{
							"internalType": "uint256[]",
							"name": "randomWords",
							"type": "uint256[]"
						}
					],
					"internalType": "struct IHierarchicalDrawing.RequestInfo",
					"name": "",
					"type": "tuple"
				}
			],
			"stateMutability": "view",
			"type": "function"
		},
		{
			"inputs": [],
			"name": "getReuqestQueue",
			"outputs": [
				{
					"internalType": "uint256[]",
					"name": "queue",
					"type": "uint256[]"
				}
			],
			"stateMutability": "view",
			"type": "function"
		},
		{
			"inputs": [
				{
					"internalType": "bytes32",
					"name": "role",
					"type": "bytes32"
				}
			],
			"name": "getRoleAdmin",
			"outputs": [
				{
					"internalType": "bytes32",
					"name": "",
					"type": "bytes32"
				}
			],
			"stateMutability": "view",
			"type": "function"
		},
		{
			"inputs": [
				{
					"internalType": "uint256",
					"name": "_id",
					"type": "uint256"
				}
			],
			"name": "getTokenInfo",
			"outputs": [
				{
					"internalType": "bool",
					"name": "existed",
					"type": "bool"
				},
				{
					"internalType": "uint256",
					"name": "index",
					"type": "uint256"
				},
				{
					"internalType": "uint32",
					"name": "maxAmount",
					"type": "uint32"
				},
				{
					"internalType": "uint32",
					"name": "remaining",
					"type": "uint32"
				}
			],
			"stateMutability": "view",
			"type": "function"
		},
		{
			"inputs": [],
			"name": "getTokenMaxAmounts",
			"outputs": [
				{
					"internalType": "uint32[]",
					"name": "",
					"type": "uint32[]"
				}
			],
			"stateMutability": "view",
			"type": "function"
		},
		{
			"inputs": [],
			"name": "getTokenPoolInfo",
			"outputs": [
				{
					"internalType": "uint256[]",
					"name": "",
					"type": "uint256[]"
				}
			],
			"stateMutability": "view",
			"type": "function"
		},
		{
			"inputs": [],
			"name": "getTokenRemainings",
			"outputs": [
				{
					"internalType": "uint32[]",
					"name": "",
					"type": "uint32[]"
				}
			],
			"stateMutability": "view",
			"type": "function"
		},
		{
			"inputs": [
				{
					"internalType": "uint32",
					"name": "_unitID",
					"type": "uint32"
				}
			],
			"name": "getUnitPoolInfo",
			"outputs": [
				{
					"internalType": "uint32[]",
					"name": "probs",
					"type": "uint32[]"
				},
				{
					"components": [
						{
							"internalType": "uint256",
							"name": "nums",
							"type": "uint256"
						},
						{
							"internalType": "uint256[]",
							"name": "result",
							"type": "uint256[]"
						}
					],
					"internalType": "struct PackedArray.PackedArray32",
					"name": "tree",
					"type": "tuple"
				}
			],
			"stateMutability": "view",
			"type": "function"
		},
		{
			"inputs": [
				{
					"internalType": "bytes32",
					"name": "role",
					"type": "bytes32"
				},
				{
					"internalType": "address",
					"name": "account",
					"type": "address"
				}
			],
			"name": "grantRole",
			"outputs": [],
			"stateMutability": "nonpayable",
			"type": "function"
		},
		{
			"inputs": [
				{
					"internalType": "bytes32",
					"name": "role",
					"type": "bytes32"
				},
				{
					"internalType": "address",
					"name": "account",
					"type": "address"
				}
			],
			"name": "hasRole",
			"outputs": [
				{
					"internalType": "bool",
					"name": "",
					"type": "bool"
				}
			],
			"stateMutability": "view",
			"type": "function"
		},
		{
			"inputs": [
				{
					"internalType": "uint256",
					"name": "",
					"type": "uint256"
				}
			],
			"name": "ids",
			"outputs": [
				{
					"internalType": "uint256",
					"name": "",
					"type": "uint256"
				}
			],
			"stateMutability": "view",
			"type": "function"
		},
		{
			"inputs": [
				{
					"internalType": "uint256",
					"name": "",
					"type": "uint256"
				}
			],
			"name": "maxAmounts",
			"outputs": [
				{
					"internalType": "uint32",
					"name": "",
					"type": "uint32"
				}
			],
			"stateMutability": "view",
			"type": "function"
		},
		{
			"inputs": [],
			"name": "nftContract",
			"outputs": [
				{
					"internalType": "contract IMyNFT",
					"name": "",
					"type": "address"
				}
			],
			"stateMutability": "view",
			"type": "function"
		},
		{
			"inputs": [],
			"name": "pendingRequestNum",
			"outputs": [
				{
					"internalType": "uint256",
					"name": "pending",
					"type": "uint256"
				}
			],
			"stateMutability": "view",
			"type": "function"
		},
		{
			"inputs": [],
			"name": "register",
			"outputs": [
				{
					"internalType": "contract Register",
					"name": "",
					"type": "address"
				}
			],
			"stateMutability": "view",
			"type": "function"
		},
		{
			"inputs": [
				{
					"internalType": "uint256",
					"name": "",
					"type": "uint256"
				}
			],
			"name": "remainings",
			"outputs": [
				{
					"internalType": "uint32",
					"name": "",
					"type": "uint32"
				}
			],
			"stateMutability": "view",
			"type": "function"
		},
		{
			"inputs": [
				{
					"internalType": "bytes32",
					"name": "role",
					"type": "bytes32"
				},
				{
					"internalType": "address",
					"name": "callerConfirmation",
					"type": "address"
				}
			],
			"name": "renounceRole",
			"outputs": [],
			"stateMutability": "nonpayable",
			"type": "function"
		},
		{
			"inputs": [],
			"name": "requestNonce",
			"outputs": [
				{
					"internalType": "uint256",
					"name": "",
					"type": "uint256"
				}
			],
			"stateMutability": "view",
			"type": "function"
		},
		{
			"inputs": [
				{
					"internalType": "uint256",
					"name": "",
					"type": "uint256"
				}
			],
			"name": "requestsInfo",
			"outputs": [
				{
					"internalType": "bool",
					"name": "exists",
					"type": "bool"
				},
				{
					"internalType": "bool",
					"name": "fulfilled",
					"type": "bool"
				},
				{
					"internalType": "bool",
					"name": "completed",
					"type": "bool"
				},
				{
					"internalType": "address",
					"name": "requestSender",
					"type": "address"
				}
			],
			"stateMutability": "view",
			"type": "function"
		},
		{
			"inputs": [
				{
					"internalType": "uint256",
					"name": "",
					"type": "uint256"
				}
			],
			"name": "requestsQueue",
			"outputs": [
				{
					"internalType": "uint256",
					"name": "",
					"type": "uint256"
				}
			],
			"stateMutability": "view",
			"type": "function"
		},
		{
			"inputs": [
				{
					"internalType": "bytes32",
					"name": "role",
					"type": "bytes32"
				},
				{
					"internalType": "address",
					"name": "account",
					"type": "address"
				}
			],
			"name": "revokeRole",
			"outputs": [],
			"stateMutability": "nonpayable",
			"type": "function"
		},
		{
			"inputs": [
				{
					"internalType": "address",
					"name": "_user",
					"type": "address"
				},
				{
					"internalType": "uint32[]",
					"name": "_poolsID",
					"type": "uint32[]"
				},
				{
					"internalType": "uint32[]",
					"name": "_drawAmounts",
					"type": "uint32[]"
				}
			],
			"name": "sendRequest",
			"outputs": [],
			"stateMutability": "nonpayable",
			"type": "function"
		},
		{
			"inputs": [
				{
					"internalType": "uint32",
					"name": "_poolID",
					"type": "uint32"
				},
				{
					"internalType": "uint32[]",
					"name": "_unitIDs",
					"type": "uint32[]"
				},
				{
					"internalType": "uint32[]",
					"name": "_probs",
					"type": "uint32[]"
				}
			],
			"name": "setDrawingPool",
			"outputs": [],
			"stateMutability": "nonpayable",
			"type": "function"
		},
		{
			"inputs": [
				{
					"internalType": "uint32[]",
					"name": "_maxAmounts",
					"type": "uint32[]"
				}
			],
			"name": "setTokenMaxAmount",
			"outputs": [],
			"stateMutability": "nonpayable",
			"type": "function"
		},
		{
			"inputs": [
				{
					"internalType": "uint256[]",
					"name": "_ids",
					"type": "uint256[]"
				}
			],
			"name": "setTokenPool",
			"outputs": [],
			"stateMutability": "nonpayable",
			"type": "function"
		},
		{
			"inputs": [
				{
					"internalType": "uint32",
					"name": "_unitID",
					"type": "uint32"
				},
				{
					"internalType": "uint32[]",
					"name": "_probs",
					"type": "uint32[]"
				}
			],
			"name": "setUnitPool",
			"outputs": [],
			"stateMutability": "nonpayable",
			"type": "function"
		},
		{
			"inputs": [
				{
					"internalType": "bytes4",
					"name": "interfaceId",
					"type": "bytes4"
				}
			],
			"name": "supportsInterface",
			"outputs": [
				{
					"internalType": "bool",
					"name": "",
					"type": "bool"
				}
			],
			"stateMutability": "view",
			"type": "function"
		},
		{
			"inputs": [
				{
					"internalType": "uint32",
					"name": "",
					"type": "uint32"
				}
			],
			"name": "unitPoolsInfo",
			"outputs": [
				{
					"internalType": "bool",
					"name": "enable",
					"type": "bool"
				},
				{
					"internalType": "uint8",
					"name": "treeHeight",
					"type": "uint8"
				},
				{
					"components": [
						{
							"internalType": "uint256",
							"name": "nums",
							"type": "uint256"
						},
						{
							"internalType": "uint256[]",
							"name": "result",
							"type": "uint256[]"
						}
					],
					"internalType": "struct PackedArray.PackedArray32",
					"name": "tree",
					"type": "tuple"
				}
			],
			"stateMutability": "view",
			"type": "function"
		}
	]
}